{
  "_format": "hh-sol-artifact-1",
  "contractName": "StakingCaller",
  "sourceName": "solidity/precompiles/staking/testdata/StakingCaller.sol",
  "abi": [
    {
      "inputs": [
        {
          "internalType": "address",
          "name": "_contract",
          "type": "address"
        },
        {
          "internalType": "string",
          "name": "_validatorAddr",
          "type": "string"
        },
        {
          "internalType": "uint256",
          "name": "_amount",
          "type": "uint256"
        }
      ],
      "name": "callERC20AndDelegate",
      "outputs": [],
      "stateMutability": "payable",
      "type": "function"
    },
    {
      "inputs": [],
      "name": "counter",
      "outputs": [
        {
          "internalType": "uint256",
          "name": "",
          "type": "uint256"
        }
      ],
      "stateMutability": "view",
      "type": "function"
    },
    {
      "inputs": [
        {
          "internalType": "address",
          "name": "",
          "type": "address"
        },
        {
          "internalType": "string",
          "name": "",
          "type": "string"
        }
      ],
      "name": "delegation",
      "outputs": [
        {
          "internalType": "uint256",
          "name": "",
          "type": "uint256"
        }
      ],
      "stateMutability": "view",
      "type": "function"
    },
    {
      "inputs": [
        {
          "internalType": "address",
          "name": "_delegatorAddr",
          "type": "address"
        },
        {
          "internalType": "string",
          "name": "_validatorAddr",
          "type": "string"
        }
      ],
      "name": "getDelegation",
      "outputs": [
        {
          "internalType": "uint256",
          "name": "shares",
          "type": "uint256"
        },
        {
          "components": [
            {
              "internalType": "string",
              "name": "denom",
              "type": "string"
            },
            {
              "internalType": "uint256",
              "name": "amount",
              "type": "uint256"
            }
          ],
          "internalType": "struct Coin",
          "name": "balance",
          "type": "tuple"
        }
      ],
      "stateMutability": "view",
      "type": "function"
    },
    {
      "inputs": [
        {
          "internalType": "address",
          "name": "_delegatorAddr",
          "type": "address"
        },
        {
          "internalType": "string",
          "name": "_validatorSrcAddr",
          "type": "string"
        },
        {
          "internalType": "string",
          "name": "_validatorDstAddr",
          "type": "string"
        }
      ],
      "name": "getRedelegation",
      "outputs": [
        {
          "components": [
            {
              "internalType": "string",
              "name": "delegatorAddress",
              "type": "string"
            },
            {
              "internalType": "string",
              "name": "validatorSrcAddress",
              "type": "string"
            },
            {
              "internalType": "string",
              "name": "validatorDstAddress",
              "type": "string"
            },
            {
              "components": [
                {
                  "internalType": "int64",
                  "name": "creationHeight",
                  "type": "int64"
                },
                {
                  "internalType": "int64",
                  "name": "completionTime",
                  "type": "int64"
                },
                {
                  "internalType": "uint256",
                  "name": "initialBalance",
                  "type": "uint256"
                },
                {
                  "internalType": "uint256",
                  "name": "sharesDst",
                  "type": "uint256"
                }
              ],
              "internalType": "struct RedelegationEntry[]",
              "name": "entries",
              "type": "tuple[]"
            }
          ],
          "internalType": "struct RedelegationOutput",
          "name": "redelegation",
          "type": "tuple"
        }
      ],
      "stateMutability": "view",
      "type": "function"
    },
    {
      "inputs": [
        {
          "internalType": "address",
          "name": "_delegatorAddr",
          "type": "address"
        },
        {
          "internalType": "string",
          "name": "_validatorSrcAddr",
          "type": "string"
        },
        {
          "internalType": "string",
          "name": "_validatorDstAddr",
          "type": "string"
        },
        {
          "components": [
            {
              "internalType": "bytes",
              "name": "key",
              "type": "bytes"
            },
            {
              "internalType": "uint64",
              "name": "offset",
              "type": "uint64"
            },
            {
              "internalType": "uint64",
              "name": "limit",
              "type": "uint64"
            },
            {
              "internalType": "bool",
              "name": "countTotal",
              "type": "bool"
            },
            {
              "internalType": "bool",
              "name": "reverse",
              "type": "bool"
            }
          ],
          "internalType": "struct PageRequest",
          "name": "_pageRequest",
          "type": "tuple"
        }
      ],
      "name": "getRedelegations",
      "outputs": [
        {
          "components": [
            {
              "components": [
                {
                  "internalType": "string",
                  "name": "delegatorAddress",
                  "type": "string"
                },
                {
                  "internalType": "string",
                  "name": "validatorSrcAddress",
                  "type": "string"
                },
                {
                  "internalType": "string",
                  "name": "validatorDstAddress",
                  "type": "string"
                },
                {
                  "components": [
                    {
                      "internalType": "int64",
                      "name": "creationHeight",
                      "type": "int64"
                    },
                    {
                      "internalType": "int64",
                      "name": "completionTime",
                      "type": "int64"
                    },
                    {
                      "internalType": "uint256",
                      "name": "initialBalance",
                      "type": "uint256"
                    },
                    {
                      "internalType": "uint256",
                      "name": "sharesDst",
                      "type": "uint256"
                    }
                  ],
                  "internalType": "struct RedelegationEntry[]",
                  "name": "entries",
                  "type": "tuple[]"
                }
              ],
              "internalType": "struct Redelegation",
              "name": "redelegation",
              "type": "tuple"
            },
            {
              "components": [
                {
                  "components": [
                    {
                      "internalType": "int64",
                      "name": "creationHeight",
                      "type": "int64"
                    },
                    {
                      "internalType": "int64",
                      "name": "completionTime",
                      "type": "int64"
                    },
                    {
                      "internalType": "uint256",
                      "name": "initialBalance",
                      "type": "uint256"
                    },
                    {
                      "internalType": "uint256",
                      "name": "sharesDst",
                      "type": "uint256"
                    }
                  ],
                  "internalType": "struct RedelegationEntry",
                  "name": "redelegationEntry",
                  "type": "tuple"
                },
                {
                  "internalType": "uint256",
                  "name": "balance",
                  "type": "uint256"
                }
              ],
              "internalType": "struct RedelegationEntryResponse[]",
              "name": "entries",
              "type": "tuple[]"
            }
          ],
          "internalType": "struct RedelegationResponse[]",
          "name": "response",
          "type": "tuple[]"
        },
        {
          "components": [
            {
              "internalType": "bytes",
              "name": "nextKey",
              "type": "bytes"
            },
            {
              "internalType": "uint64",
              "name": "total",
              "type": "uint64"
            }
          ],
          "internalType": "struct PageResponse",
          "name": "pageResponse",
          "type": "tuple"
        }
      ],
      "stateMutability": "view",
      "type": "function"
    },
    {
      "inputs": [
        {
          "internalType": "address",
          "name": "_delegatorAddr",
          "type": "address"
        },
        {
          "internalType": "string",
          "name": "_validatorAddr",
          "type": "string"
        }
      ],
      "name": "getUnbondingDelegation",
      "outputs": [
        {
          "components": [
            {
              "internalType": "string",
              "name": "delegatorAddress",
              "type": "string"
            },
            {
              "internalType": "string",
              "name": "validatorAddress",
              "type": "string"
            },
            {
              "components": [
                {
                  "internalType": "int64",
                  "name": "creationHeight",
                  "type": "int64"
                },
                {
                  "internalType": "int64",
                  "name": "completionTime",
                  "type": "int64"
                },
                {
                  "internalType": "uint256",
                  "name": "initialBalance",
                  "type": "uint256"
                },
                {
                  "internalType": "uint256",
                  "name": "balance",
                  "type": "uint256"
                },
                {
                  "internalType": "uint64",
                  "name": "unbondingId",
                  "type": "uint64"
                },
                {
                  "internalType": "int64",
                  "name": "unbondingOnHoldRefCount",
                  "type": "int64"
                }
              ],
              "internalType": "struct UnbondingDelegationEntry[]",
              "name": "entries",
              "type": "tuple[]"
            }
          ],
          "internalType": "struct UnbondingDelegationOutput",
          "name": "unbondingDelegation",
          "type": "tuple"
        }
      ],
      "stateMutability": "view",
      "type": "function"
    },
    {
      "inputs": [
        {
          "internalType": "address",
          "name": "_validatorAddr",
          "type": "address"
        }
      ],
      "name": "getValidator",
      "outputs": [
        {
          "components": [
            {
              "internalType": "string",
              "name": "operatorAddress",
              "type": "string"
            },
            {
              "internalType": "string",
              "name": "consensusPubkey",
              "type": "string"
            },
            {
              "internalType": "bool",
              "name": "jailed",
              "type": "bool"
            },
            {
              "internalType": "enum BondStatus",
              "name": "status",
              "type": "uint8"
            },
            {
              "internalType": "uint256",
              "name": "tokens",
              "type": "uint256"
            },
            {
              "internalType": "uint256",
              "name": "delegatorShares",
              "type": "uint256"
            },
            {
              "internalType": "string",
              "name": "description",
              "type": "string"
            },
            {
              "internalType": "int64",
              "name": "unbondingHeight",
              "type": "int64"
            },
            {
              "internalType": "int64",
              "name": "unbondingTime",
              "type": "int64"
            },
            {
              "internalType": "uint256",
              "name": "commission",
              "type": "uint256"
            },
            {
              "internalType": "uint256",
              "name": "minSelfDelegation",
              "type": "uint256"
            }
          ],
          "internalType": "struct Validator",
          "name": "validator",
          "type": "tuple"
        }
      ],
      "stateMutability": "view",
      "type": "function"
    },
    {
      "inputs": [
        {
          "internalType": "string",
          "name": "_status",
          "type": "string"
        },
        {
          "components": [
            {
              "internalType": "bytes",
              "name": "key",
              "type": "bytes"
            },
            {
              "internalType": "uint64",
              "name": "offset",
              "type": "uint64"
            },
            {
              "internalType": "uint64",
              "name": "limit",
              "type": "uint64"
            },
            {
              "internalType": "bool",
              "name": "countTotal",
              "type": "bool"
            },
            {
              "internalType": "bool",
              "name": "reverse",
              "type": "bool"
            }
          ],
          "internalType": "struct PageRequest",
          "name": "_pageRequest",
          "type": "tuple"
        }
      ],
      "name": "getValidators",
      "outputs": [
        {
          "components": [
            {
              "internalType": "string",
              "name": "operatorAddress",
              "type": "string"
            },
            {
              "internalType": "string",
              "name": "consensusPubkey",
              "type": "string"
            },
            {
              "internalType": "bool",
              "name": "jailed",
              "type": "bool"
            },
            {
              "internalType": "enum BondStatus",
              "name": "status",
              "type": "uint8"
            },
            {
              "internalType": "uint256",
              "name": "tokens",
              "type": "uint256"
            },
            {
              "internalType": "uint256",
              "name": "delegatorShares",
              "type": "uint256"
            },
            {
              "internalType": "string",
              "name": "description",
              "type": "string"
            },
            {
              "internalType": "int64",
              "name": "unbondingHeight",
              "type": "int64"
            },
            {
              "internalType": "int64",
              "name": "unbondingTime",
              "type": "int64"
            },
            {
              "internalType": "uint256",
              "name": "commission",
              "type": "uint256"
            },
            {
              "internalType": "uint256",
              "name": "minSelfDelegation",
              "type": "uint256"
            }
          ],
          "internalType": "struct Validator[]",
          "name": "validators",
          "type": "tuple[]"
        },
        {
          "components": [
            {
              "internalType": "bytes",
              "name": "nextKey",
              "type": "bytes"
            },
            {
              "internalType": "uint64",
              "name": "total",
              "type": "uint64"
            }
          ],
          "internalType": "struct PageResponse",
          "name": "pageResponse",
          "type": "tuple"
        }
      ],
      "stateMutability": "view",
      "type": "function"
    },
    {
      "inputs": [
        {
          "internalType": "address",
          "name": "_delegatorAddr",
          "type": "address"
        },
        {
          "internalType": "string",
          "name": "_validatorAddr",
          "type": "string"
        },
        {
          "internalType": "string",
          "name": "_calltype",
          "type": "string"
        }
      ],
      "name": "testCallDelegation",
      "outputs": [
        {
          "internalType": "uint256",
          "name": "shares",
          "type": "uint256"
        },
        {
          "components": [
            {
              "internalType": "string",
              "name": "denom",
              "type": "string"
            },
            {
              "internalType": "uint256",
              "name": "amount",
              "type": "uint256"
            }
          ],
          "internalType": "struct Coin",
          "name": "coin",
          "type": "tuple"
        }
      ],
      "stateMutability": "nonpayable",
      "type": "function"
    },
    {
      "inputs": [
        {
          "internalType": "string",
          "name": "_validatorAddr",
          "type": "string"
        },
        {
          "internalType": "uint256",
          "name": "_amount",
          "type": "uint256"
        },
        {
          "internalType": "string",
          "name": "_calltype",
          "type": "string"
        }
      ],
      "name": "testCallUndelegate",
      "outputs": [],
      "stateMutability": "nonpayable",
      "type": "function"
    },
    {
      "inputs": [
        {
          "internalType": "string",
          "name": "_validatorAddr",
          "type": "string"
        },
        {
          "internalType": "uint256",
          "name": "_amount",
          "type": "uint256"
        },
        {
          "internalType": "uint256",
          "name": "_creationHeight",
          "type": "uint256"
        }
      ],
      "name": "testCancelUnbonding",
      "outputs": [],
      "stateMutability": "nonpayable",
      "type": "function"
    },
    {
      "inputs": [
        {
          "components": [
            {
              "internalType": "string",
              "name": "moniker",
              "type": "string"
            },
            {
              "internalType": "string",
              "name": "identity",
              "type": "string"
            },
            {
              "internalType": "string",
              "name": "website",
              "type": "string"
            },
            {
              "internalType": "string",
              "name": "securityContact",
              "type": "string"
            },
            {
              "internalType": "string",
              "name": "details",
              "type": "string"
            }
          ],
          "internalType": "struct Description",
          "name": "_descr",
          "type": "tuple"
        },
        {
          "components": [
            {
              "internalType": "uint256",
              "name": "rate",
              "type": "uint256"
            },
            {
              "internalType": "uint256",
              "name": "maxRate",
              "type": "uint256"
            },
            {
              "internalType": "uint256",
              "name": "maxChangeRate",
              "type": "uint256"
            }
          ],
          "internalType": "struct CommissionRates",
          "name": "_commRates",
          "type": "tuple"
        },
        {
          "internalType": "uint256",
          "name": "_minSelfDel",
          "type": "uint256"
        },
        {
          "internalType": "address",
          "name": "_valAddr",
          "type": "address"
        },
        {
          "internalType": "string",
          "name": "_pubkey",
          "type": "string"
        },
        {
          "internalType": "uint256",
          "name": "_value",
          "type": "uint256"
        }
      ],
      "name": "testCreateValidator",
      "outputs": [
        {
          "internalType": "bool",
          "name": "",
          "type": "bool"
        }
      ],
      "stateMutability": "nonpayable",
      "type": "function"
    },
    {
      "inputs": [
        {
          "internalType": "string",
          "name": "_validatorAddr",
          "type": "string"
        }
      ],
      "name": "testDelegate",
      "outputs": [],
      "stateMutability": "payable",
      "type": "function"
    },
    {
      "inputs": [
        {
          "internalType": "string",
          "name": "_validatorAddr",
          "type": "string"
        }
      ],
      "name": "testDelegateAndFailCustomLogic",
      "outputs": [],
      "stateMutability": "payable",
      "type": "function"
    },
    {
      "inputs": [
        {
          "internalType": "string",
          "name": "_validatorAddr",
          "type": "string"
        }
      ],
      "name": "testDelegateIncrementCounter",
      "outputs": [],
      "stateMutability": "payable",
      "type": "function"
    },
    {
      "inputs": [
        {
          "components": [
            {
              "internalType": "string",
              "name": "moniker",
              "type": "string"
            },
            {
              "internalType": "string",
              "name": "identity",
              "type": "string"
            },
            {
              "internalType": "string",
              "name": "website",
              "type": "string"
            },
            {
              "internalType": "string",
              "name": "securityContact",
              "type": "string"
            },
            {
              "internalType": "string",
              "name": "details",
              "type": "string"
            }
          ],
          "internalType": "struct Description",
          "name": "_descr",
          "type": "tuple"
        },
        {
          "internalType": "address",
          "name": "_valAddr",
          "type": "address"
        },
        {
          "internalType": "int256",
          "name": "_commRate",
          "type": "int256"
        },
        {
          "internalType": "int256",
          "name": "_minSelfDel",
          "type": "int256"
        }
      ],
      "name": "testEditValidator",
      "outputs": [
        {
          "internalType": "bool",
          "name": "",
          "type": "bool"
        }
      ],
      "stateMutability": "nonpayable",
      "type": "function"
    },
    {
      "inputs": [
        {
          "internalType": "string",
          "name": "_validatorSrcAddr",
          "type": "string"
        },
        {
          "internalType": "string",
          "name": "_validatorDstAddr",
          "type": "string"
        },
        {
          "internalType": "uint256",
          "name": "_amount",
          "type": "uint256"
        }
      ],
      "name": "testRedelegate",
      "outputs": [],
      "stateMutability": "nonpayable",
      "type": "function"
    },
    {
      "inputs": [
        {
          "internalType": "string",
          "name": "_validatorAddr",
          "type": "string"
        },
        {
          "internalType": "uint256",
          "name": "_amount",
          "type": "uint256"
        }
      ],
      "name": "testUndelegate",
      "outputs": [],
      "stateMutability": "nonpayable",
      "type": "function"
    },
    {
      "inputs": [
        {
          "internalType": "address",
          "name": "",
          "type": "address"
        },
        {
          "internalType": "uint256",
          "name": "",
          "type": "uint256"
        }
      ],
      "name": "unbondingQueue",
      "outputs": [
        {
          "internalType": "string",
          "name": "validator",
          "type": "string"
        },
        {
          "internalType": "uint256",
          "name": "amount",
          "type": "uint256"
        },
        {
          "internalType": "uint256",
          "name": "creationHeight",
          "type": "uint256"
        },
        {
          "internalType": "int64",
          "name": "completionTime",
          "type": "int64"
        }
      ],
      "stateMutability": "view",
      "type": "function"
    }
  ],
  "bytecode": "0x60806040526040518060200160405280604051806060016040528060238152602001620062536023913981525060019060016200003e92919062000053565b503480156200004c57600080fd5b50620004a1565b828054828255906000526020600020908101928215620000a0579160200282015b828111156200009f5782518290816200008e9190620003ba565b509160200191906001019062000074565b5b509050620000af9190620000b3565b5090565b5b80821115620000d75760008181620000cd9190620000db565b50600101620000b4565b5090565b508054620000e990620001a9565b6000825580601f10620000fd57506200011e565b601f0160209004906000526020600020908101906200011d919062000121565b5b50565b5b808211156200013c57600081600090555060010162000122565b5090565b600081519050919050565b7f4e487b7100000000000000000000000000000000000000000000000000000000600052604160045260246000fd5b7f4e487b7100000000000000000000000000000000000000000000000000000000600052602260045260246000fd5b60006002820490506001821680620001c257607f821691505b602082108103620001d857620001d76200017a565b5b50919050565b60008190508160005260206000209050919050565b60006020601f8301049050919050565b600082821b905092915050565b600060088302620002427fffffffffffffffffffffffffffffffffffffffffffffffffffffffffffffffff8262000203565b6200024e868362000203565b95508019841693508086168417925050509392505050565b6000819050919050565b6000819050919050565b60006200029b620002956200028f8462000266565b62000270565b62000266565b9050919050565b6000819050919050565b620002b7836200027a565b620002cf620002c682620002a2565b84845462000210565b825550505050565b600090565b620002e6620002d7565b620002f3818484620002ac565b505050565b5b818110156200031b576200030f600082620002dc565b600181019050620002f9565b5050565b601f8211156200036a576200033481620001de565b6200033f84620001f3565b810160208510156200034f578190505b620003676200035e85620001f3565b830182620002f8565b50505b505050565b600082821c905092915050565b60006200038f600019846008026200036f565b1980831691505092915050565b6000620003aa83836200037c565b9150826002028217905092915050565b620003c58262000140565b67ffffffffffffffff811115620003e157620003e06200014b565b5b620003ed8254620001a9565b620003fa8282856200031f565b600060209050601f8311600181146200043257600084156200041d578287015190505b6200042985826200039c565b86555062000499565b601f1984166200044286620001de565b60005b828110156200046c5784890151825560018201915060208501945060208101905062000445565b868310156200048c578489015162000488601f8916826200037c565b8355505b6001600288020188555050505b505050505050565b615da280620004b16000396000f3fe60806040526004361061011f5760003560e01c8063570467ac116100a0578063b13d424211610064578063b13d42421461040a578063b3e9823414610448578063b61b519714610471578063cf2753cf1461048d578063f732b065146104cb5761011f565b8063570467ac146102ff57806361bc221a1461033c57806368ac3df314610367578063a4603a2e146103a4578063af9a90b2146103cd5761011f565b806331bcbcb3116100e757806331bcbcb31461022e5780633a9ba8051461024a578063455b85511461028a578063464d2d03146102c7578063569c21e3146102e35761011f565b80631904bb2e1461012457806319b16c4c146101615780632345e7d41461019f578063241774e6146101c857806329e71c8214610205575b600080fd5b34801561013057600080fd5b5061014b60048036038101906101469190612603565b610509565b6040516101589190612884565b60405180910390f35b34801561016d57600080fd5b50610188600480360381019061018391906129db565b610599565b604051610196929190612ab2565b60405180910390f35b3480156101ab57600080fd5b506101c660048036038101906101c19190612b0e565b610a98565b005b3480156101d457600080fd5b506101ef60048036038101906101ea9190612b99565b610fe0565b6040516101fc9190612bf5565b60405180910390f35b34801561021157600080fd5b5061022c60048036038101906102279190612c10565b61101b565b005b61024860048036038101906102439190612c6c565b611282565b005b34801561025657600080fd5b50610271600480360381019061026c9190612cdb565b611502565b6040516102819493929190612d74565b60405180910390f35b34801561029657600080fd5b506102b160048036038101906102ac9190612b99565b6115e4565b6040516102be9190612f6b565b60405180910390f35b6102e160048036038101906102dc9190612f8d565b611677565b005b6102fd60048036038101906102f89190612f8d565b611802565b005b34801561030b57600080fd5b50610326600480360381019061032191906129db565b611946565b6040516103339190613152565b60405180910390f35b34801561034857600080fd5b506103516119dc565b60405161035e9190612bf5565b60405180910390f35b34801561037357600080fd5b5061038e600480360381019061038991906131b7565b6119e2565b60405161039b919061328c565b60405180910390f35b3480156103b057600080fd5b506103cb60048036038101906103c691906132a7565b611a78565b005b3480156103d957600080fd5b506103f460048036038101906103ef919061334c565b611b58565b604051610401919061328c565b60405180910390f35b34801561041657600080fd5b50610431600480360381019061042c91906133ee565b611be8565b60405161043f9291906136b7565b60405180910390f35b34801561045457600080fd5b5061046f600480360381019061046a91906136ee565b611c80565b005b61048b60048036038101906104869190612f8d565b611e38565b005b34801561049957600080fd5b506104b460048036038101906104af9190612b99565b611f95565b6040516104c2929190612ab2565b60405180910390f35b3480156104d757600080fd5b506104f260048036038101906104ed9190613924565b61202d565b604051610500929190613c3b565b60405180910390f35b610511612439565b61080073ffffffffffffffffffffffffffffffffffffffff1663223b3b7a836040518263ffffffff1660e01b815260040161054c9190613c81565b600060405180830381865afa158015610569573d6000803e3d6000fd5b505050506040513d6000823e3d601f19601f820116820180604052508101906105929190613ee7565b9050919050565b60006105a36124ad565b60006108009050600086866040516024016105bf929190613f30565b6040516020818303038152906040527f241774e6000000000000000000000000000000000000000000000000000000007bffffffffffffffffffffffffffffffffffffffffffffffffffffffff19166020820180517bffffffffffffffffffffffffffffffffffffffffffffffffffffffff838183161783525050505090506000856040516020016106519190613f9c565b60405160208183030381529060405280519060200120905060405160200161067890613fff565b604051602081830303815290604052805190602001208103610764576000808473ffffffffffffffffffffffffffffffffffffffff16846040516106bc9190614050565b600060405180830381855af49150503d80600081146106f7576040519150601f19603f3d011682016040523d82523d6000602084013e6106fc565b606091505b509150915081610741576040517f08c379a0000000000000000000000000000000000000000000000000000000008152600401610738906140d9565b60405180910390fd5b808060200190518101906107559190614165565b80975081985050505050610a8d565b6040516020016107739061420d565b60405160208183030381529060405280519060200120810361085f576000808473ffffffffffffffffffffffffffffffffffffffff16846040516107b79190614050565b600060405180830381855afa9150503d80600081146107f2576040519150601f19603f3d011682016040523d82523d6000602084013e6107f7565b606091505b50915091508161083c576040517f08c379a00000000000000000000000000000000000000000000000000000000081526004016108339061426e565b60405180910390fd5b808060200190518101906108509190614165565b80975081985050505050610a8c565b60405160200161086e906142da565b60405160208183030381529060405280519060200120810361095c576000808473ffffffffffffffffffffffffffffffffffffffff16846040516108b29190614050565b6000604051808303816000865af19150503d80600081146108ef576040519150601f19603f3d011682016040523d82523d6000602084013e6108f4565b606091505b509150915081610939576040517f08c379a00000000000000000000000000000000000000000000000000000000081526004016109309061433b565b60405180910390fd5b8080602001905181019061094d9190614165565b80975081985050505050610a8b565b60405160200161096b906143a7565b604051602081830303815290604052805190602001208103610a4f5760006040518060400160405280601a81526020017f64656c65676174696f6e28616464726573732c737472696e6729000000000000815250805190602001209050600060a490506060600060208b01516020808d0101516040518681528e6004820152604060248201526033604482015282606482015281608482015260c081878360008e5af281519c5060608201519450610100820160405280610a2b57600080fd5b50505050604051806040016040528083815260200182815250975050505050610a8a565b6040517f08c379a0000000000000000000000000000000000000000000000000000000008152600401610a8190614408565b60405180910390fd5b5b5b5b505050935093915050565b610aa06120cb565b600061080090506000308585604051602401610abe93929190614428565b6040516020818303038152906040527f3edab33c000000000000000000000000000000000000000000000000000000007bffffffffffffffffffffffffffffffffffffffffffffffffffffffff19166020820180517bffffffffffffffffffffffffffffffffffffffffffffffffffffffff83818316178352505050509050600083604051602001610b509190613f9c565b6040516020818303038152906040528051906020012090506000621baf8042610b799190614495565b9050604051602001610b8a90613fff565b604051602081830303815290604052805190602001208203610c70576000808573ffffffffffffffffffffffffffffffffffffffff1685604051610bce9190614050565b600060405180830381855af49150503d8060008114610c09576040519150601f19603f3d011682016040523d82523d6000602084013e610c0e565b606091505b509150915081610c53576040517f08c379a0000000000000000000000000000000000000000000000000000000008152600401610c4a906140d9565b60405180910390fd5b80806020019051810190610c6791906144c9565b92505050610ee7565b604051602001610c7f9061420d565b604051602081830303815290604052805190602001208203610d65576000808573ffffffffffffffffffffffffffffffffffffffff1685604051610cc39190614050565b600060405180830381855afa9150503d8060008114610cfe576040519150601f19603f3d011682016040523d82523d6000602084013e610d03565b606091505b509150915081610d48576040517f08c379a0000000000000000000000000000000000000000000000000000000008152600401610d3f9061426e565b60405180910390fd5b80806020019051810190610d5c91906144c9565b92505050610ee6565b604051602001610d74906142da565b604051602081830303815290604052805190602001208203610e5c576000808573ffffffffffffffffffffffffffffffffffffffff1685604051610db89190614050565b6000604051808303816000865af19150503d8060008114610df5576040519150601f19603f3d011682016040523d82523d6000602084013e610dfa565b606091505b509150915081610e3f576040517f08c379a0000000000000000000000000000000000000000000000000000000008152600401610e369061433b565b60405180910390fd5b80806020019051810190610e5391906144c9565b92505050610ee5565b604051602001610e6b906143a7565b604051602081830303815290604052805190602001208203610ea957602083018351600080828460008a5af280610ea157600080fd5b505050610ee4565b6040517f08c379a0000000000000000000000000000000000000000000000000000000008152600401610edb90614408565b60405180910390fd5b5b5b5b6000439050600360003373ffffffffffffffffffffffffffffffffffffffff1673ffffffffffffffffffffffffffffffffffffffff16815260200190815260200160002060405180608001604052808a81526020018981526020018381526020018460070b81525090806001815401808255809150506001900390600052602060002090600402016000909190919091506000820151816000019081610f8d9190614702565b50602082015181600101556040820151816002015560608201518160030160006101000a81548167ffffffffffffffff021916908360070b67ffffffffffffffff16021790555050505050505050505050565b600260205281600052604060002081805160208101820180518482526020830160208501208183528095505050505050600091509150505481565b6110236120cb565b80600260003373ffffffffffffffffffffffffffffffffffffffff1673ffffffffffffffffffffffffffffffffffffffff168152602001908152602001600020836040516110719190613f9c565b90815260200160405180910390205410156110c1576040517f08c379a00000000000000000000000000000000000000000000000000000000081526004016110b890614820565b60405180910390fd5b600061080073ffffffffffffffffffffffffffffffffffffffff16633edab33c3085856040518463ffffffff1660e01b815260040161110293929190614428565b6020604051808303816000875af1158015611121573d6000803e3d6000fd5b505050506040513d601f19601f8201168201806040525081019061114591906144c9565b905060008160070b1361118d576040517f08c379a00000000000000000000000000000000000000000000000000000000081526004016111849061488c565b60405180910390fd5b6000439050600360003373ffffffffffffffffffffffffffffffffffffffff1673ffffffffffffffffffffffffffffffffffffffff16815260200190815260200160002060405180608001604052808681526020018581526020018381526020018460070b815250908060018154018082558091505060019003906000526020600020906004020160009091909190915060008201518160000190816112339190614702565b50602082015181600101556040820151816002015560608201518160030160006101000a81548167ffffffffffffffff021916908360070b67ffffffffffffffff160217905550505050505050565b61128a6120cb565b60008373ffffffffffffffffffffffffffffffffffffffff1633836040516024016112b69291906148ac565b6040516020818303038152906040527fa9059cbb000000000000000000000000000000000000000000000000000000007bffffffffffffffffffffffffffffffffffffffffffffffffffffffff19166020820180517bffffffffffffffffffffffffffffffffffffffffffffffffffffffff83818316178352505050506040516113409190614050565b6000604051808303816000865af19150503d806000811461137d576040519150601f19603f3d011682016040523d82523d6000602084013e611382565b606091505b50509050806113c6576040517f08c379a00000000000000000000000000000000000000000000000000000000081526004016113bd90614921565b60405180910390fd5b61080073ffffffffffffffffffffffffffffffffffffffff166353266bbb3085346040518463ffffffff1660e01b815260040161140593929190614428565b6020604051808303816000875af1158015611424573d6000803e3d6000fd5b505050506040513d601f19601f820116820180604052508101906114489190614941565b90508061148a576040517f08c379a0000000000000000000000000000000000000000000000000000000008152600401611481906149ba565b60405180910390fd5b34600260003373ffffffffffffffffffffffffffffffffffffffff1673ffffffffffffffffffffffffffffffffffffffff168152602001908152602001600020846040516114d89190613f9c565b908152602001604051809103902060008282546114f59190614495565b9250508190555050505050565b6003602052816000526040600020818154811061151e57600080fd5b90600052602060002090600402016000915091505080600001805461154290614525565b80601f016020809104026020016040519081016040528092919081815260200182805461156e90614525565b80156115bb5780601f10611590576101008083540402835291602001916115bb565b820191906000526020600020905b81548152906001019060200180831161159e57829003601f168201915b5050505050908060010154908060020154908060030160009054906101000a900460070b905084565b6115ec6124c7565b61080073ffffffffffffffffffffffffffffffffffffffff1663a03ffee184846040518363ffffffff1660e01b8152600401611629929190613f30565b600060405180830381865afa158015611646573d6000803e3d6000fd5b505050506040513d6000823e3d601f19601f8201168201806040525081019061166f9190614c0f565b905092915050565b61167f6120cb565b600061080073ffffffffffffffffffffffffffffffffffffffff166353266bbb3084346040518463ffffffff1660e01b81526004016116c093929190614428565b6020604051808303816000875af11580156116df573d6000803e3d6000fd5b505050506040513d601f19601f820116820180604052508101906117039190614941565b905080611745576040517f08c379a000000000000000000000000000000000000000000000000000000000815260040161173c906149ba565b60405180910390fd5b34600260003373ffffffffffffffffffffffffffffffffffffffff1673ffffffffffffffffffffffffffffffffffffffff168152602001908152602001600020836040516117939190613f9c565b908152602001604051809103902060008282546117b09190614495565b925050819055503373ffffffffffffffffffffffffffffffffffffffff166108fc349081150290604051600060405180830381858888f193505050501580156117fd573d6000803e3d6000fd5b505050565b61180a6120cb565b600061080073ffffffffffffffffffffffffffffffffffffffff166353266bbb3084346040518463ffffffff1660e01b815260040161184b93929190614428565b6020604051808303816000875af115801561186a573d6000803e3d6000fd5b505050506040513d601f19601f8201168201806040525081019061188e9190614941565b9050806118d0576040517f08c379a00000000000000000000000000000000000000000000000000000000081526004016118c7906149ba565b60405180910390fd5b34600260003373ffffffffffffffffffffffffffffffffffffffff1673ffffffffffffffffffffffffffffffffffffffff1681526020019081526020016000208360405161191e9190613f9c565b9081526020016040518091039020600082825461193b9190614495565b925050819055505050565b61194e6124e8565b61080073ffffffffffffffffffffffffffffffffffffffff16637d9f939c8585856040518463ffffffff1660e01b815260040161198d93929190614c58565b600060405180830381865afa1580156119aa573d6000803e3d6000fd5b505050506040513d6000823e3d601f19601f820116820180604052508101906119d39190614ec0565b90509392505050565b60005481565b600061080073ffffffffffffffffffffffffffffffffffffffff1663f7cd55168888888888886040518763ffffffff1660e01b8152600401611a29969594939291906150dd565b6020604051808303816000875af1158015611a48573d6000803e3d6000fd5b505050506040513d601f19601f82011682018060405250810190611a6c9190614941565b90509695505050505050565b611a806120cb565b600061080073ffffffffffffffffffffffffffffffffffffffff166312d58dfe308686866040518563ffffffff1660e01b8152600401611ac3949392919061514d565b6020604051808303816000875af1158015611ae2573d6000803e3d6000fd5b505050506040513d601f19601f82011682018060405250810190611b069190614941565b905080611b48576040517f08c379a0000000000000000000000000000000000000000000000000000000008152600401611b3f906151e5565b60405180910390fd5b611b5282846122c4565b50505050565b600061080073ffffffffffffffffffffffffffffffffffffffff1663a50f05ac868686866040518563ffffffff1660e01b8152600401611b9b9493929190615214565b6020604051808303816000875af1158015611bba573d6000803e3d6000fd5b505050506040513d601f19601f82011682018060405250810190611bde9190614941565b9050949350505050565b6060611bf2612510565b61080073ffffffffffffffffffffffffffffffffffffffff1663186b216785856040518363ffffffff1660e01b8152600401611c2f9291906153be565b600060405180830381865afa158015611c4c573d6000803e3d6000fd5b505050506040513d6000823e3d601f19601f82011682018060405250810190611c7591906155b2565b915091509250929050565b600061080073ffffffffffffffffffffffffffffffffffffffff166354b826f5308686866040518563ffffffff1660e01b8152600401611cc3949392919061562a565b6020604051808303816000875af1158015611ce2573d6000803e3d6000fd5b505050506040513d601f19601f82011682018060405250810190611d0691906144c9565b905060008160070b13611d4e576040517f08c379a0000000000000000000000000000000000000000000000000000000008152600401611d45906156c9565b60405180910390fd5b81600260003373ffffffffffffffffffffffffffffffffffffffff1673ffffffffffffffffffffffffffffffffffffffff16815260200190815260200160002085604051611d9c9190613f9c565b90815260200160405180910390206000828254611db991906156e9565b9250508190555081600260003373ffffffffffffffffffffffffffffffffffffffff1673ffffffffffffffffffffffffffffffffffffffff16815260200190815260200160002084604051611e0e9190613f9c565b90815260200160405180910390206000828254611e2b9190614495565b9250508190555050505050565b611e406120cb565b600061080073ffffffffffffffffffffffffffffffffffffffff166353266bbb3084346040518463ffffffff1660e01b8152600401611e8193929190614428565b6020604051808303816000875af1158015611ea0573d6000803e3d6000fd5b505050506040513d601f19601f82011682018060405250810190611ec49190614941565b905080611f06576040517f08c379a0000000000000000000000000000000000000000000000000000000008152600401611efd906149ba565b60405180910390fd5b34600260003373ffffffffffffffffffffffffffffffffffffffff1673ffffffffffffffffffffffffffffffffffffffff16815260200190815260200160002083604051611f549190613f9c565b90815260200160405180910390206000828254611f719190614495565b925050819055506001600080828254611f8a9190614495565b925050819055505050565b6000611f9f6124ad565b61080073ffffffffffffffffffffffffffffffffffffffff1663241774e685856040518363ffffffff1660e01b8152600401611fdc929190613f30565b600060405180830381865afa158015611ff9573d6000803e3d6000fd5b505050506040513d6000823e3d601f19601f820116820180604052508101906120229190614165565b915091509250929050565b6060612037612510565b61080073ffffffffffffffffffffffffffffffffffffffff166310a2851c878787876040518563ffffffff1660e01b81526004016120789493929190615793565b600060405180830381865afa158015612095573d6000803e3d6000fd5b505050506040513d6000823e3d601f19601f820116820180604052508101906120be9190615b51565b9150915094509492505050565b60005b600360003373ffffffffffffffffffffffffffffffffffffffff1673ffffffffffffffffffffffffffffffffffffffff168152602001908152602001600020805490508110156122c1576000600360003373ffffffffffffffffffffffffffffffffffffffff1673ffffffffffffffffffffffffffffffffffffffff168152602001908152602001600020828154811061216b5761216a615bc9565b5b90600052602060002090600402019050428160030160009054906101000a900460070b60070b116122ad57600360003373ffffffffffffffffffffffffffffffffffffffff1673ffffffffffffffffffffffffffffffffffffffff16815260200190815260200160002082815481106121e7576121e6615bc9565b5b9060005260206000209060040201600080820160006122069190612534565b600182016000905560028201600090556003820160006101000a81549067ffffffffffffffff021916905550508060010154600260003373ffffffffffffffffffffffffffffffffffffffff1673ffffffffffffffffffffffffffffffffffffffff168152602001908152602001600020826000016040516122889190615c7b565b908152602001604051809103902060008282546122a591906156e9565b925050819055505b5080806122b990615c92565b9150506120ce565b50565b6000600360003373ffffffffffffffffffffffffffffffffffffffff1673ffffffffffffffffffffffffffffffffffffffff168152602001908152602001600020905060005b818054905081101561243357600082828154811061232b5761232a615bc9565b5b906000526020600020906004020190508481600201541461234c5750612420565b8381600101541015612393576040517f08c379a000000000000000000000000000000000000000000000000000000000815260040161238a90615d4c565b60405180910390fd5b838160010160008282546123a791906156e9565b92505081905550600081600101540361241a578282815481106123cd576123cc615bc9565b5b9060005260206000209060040201600080820160006123ec9190612534565b600182016000905560028201600090556003820160006101000a81549067ffffffffffffffff021916905550505b50612433565b808061242b90615c92565b91505061230a565b50505050565b6040518061016001604052806060815260200160608152602001600015158152602001600060038111156124705761246f6126db565b5b8152602001600081526020016000815260200160608152602001600060070b8152602001600060070b815260200160008152602001600081525090565b604051806040016040528060608152602001600081525090565b60405180606001604052806060815260200160608152602001606081525090565b6040518060800160405280606081526020016060815260200160608152602001606081525090565b604051806040016040528060608152602001600067ffffffffffffffff1681525090565b50805461254090614525565b6000825580601f106125525750612571565b601f0160209004906000526020600020908101906125709190612574565b5b50565b5b8082111561258d576000816000905550600101612575565b5090565b6000604051905090565b600080fd5b600080fd5b600073ffffffffffffffffffffffffffffffffffffffff82169050919050565b60006125d0826125a5565b9050919050565b6125e0816125c5565b81146125eb57600080fd5b50565b6000813590506125fd816125d7565b92915050565b6000602082840312156126195761261861259b565b5b6000612627848285016125ee565b91505092915050565b600081519050919050565b600082825260208201905092915050565b60005b8381101561266a57808201518184015260208101905061264f565b60008484015250505050565b6000601f19601f8301169050919050565b600061269282612630565b61269c818561263b565b93506126ac81856020860161264c565b6126b581612676565b840191505092915050565b60008115159050919050565b6126d5816126c0565b82525050565b7f4e487b7100000000000000000000000000000000000000000000000000000000600052602160045260246000fd5b6004811061271b5761271a6126db565b5b50565b600081905061272c8261270a565b919050565b600061273c8261271e565b9050919050565b61274c81612731565b82525050565b6000819050919050565b61276581612752565b82525050565b60008160070b9050919050565b6127818161276b565b82525050565b60006101608301600083015184820360008601526127a58282612687565b915050602083015184820360208601526127bf8282612687565b91505060408301516127d460408601826126cc565b5060608301516127e76060860182612743565b5060808301516127fa608086018261275c565b5060a083015161280d60a086018261275c565b5060c083015184820360c08601526128258282612687565b91505060e083015161283a60e0860182612778565b5061010083015161284f610100860182612778565b5061012083015161286461012086018261275c565b5061014083015161287961014086018261275c565b508091505092915050565b6000602082019050818103600083015261289e8184612787565b905092915050565b600080fd5b600080fd5b7f4e487b7100000000000000000000000000000000000000000000000000000000600052604160045260246000fd5b6128e882612676565b810181811067ffffffffffffffff82111715612907576129066128b0565b5b80604052505050565b600061291a612591565b905061292682826128df565b919050565b600067ffffffffffffffff821115612946576129456128b0565b5b61294f82612676565b9050602081019050919050565b82818337600083830152505050565b600061297e6129798461292b565b612910565b90508281526020810184848401111561299a576129996128ab565b5b6129a584828561295c565b509392505050565b600082601f8301126129c2576129c16128a6565b5b81356129d284826020860161296b565b91505092915050565b6000806000606084860312156129f4576129f361259b565b5b6000612a02868287016125ee565b935050602084013567ffffffffffffffff811115612a2357612a226125a0565b5b612a2f868287016129ad565b925050604084013567ffffffffffffffff811115612a5057612a4f6125a0565b5b612a5c868287016129ad565b9150509250925092565b612a6f81612752565b82525050565b60006040830160008301518482036000860152612a928282612687565b9150506020830151612aa7602086018261275c565b508091505092915050565b6000604082019050612ac76000830185612a66565b8181036020830152612ad98184612a75565b90509392505050565b612aeb81612752565b8114612af657600080fd5b50565b600081359050612b0881612ae2565b92915050565b600080600060608486031215612b2757612b2661259b565b5b600084013567ffffffffffffffff811115612b4557612b446125a0565b5b612b51868287016129ad565b9350506020612b6286828701612af9565b925050604084013567ffffffffffffffff811115612b8357612b826125a0565b5b612b8f868287016129ad565b9150509250925092565b60008060408385031215612bb057612baf61259b565b5b6000612bbe858286016125ee565b925050602083013567ffffffffffffffff811115612bdf57612bde6125a0565b5b612beb858286016129ad565b9150509250929050565b6000602082019050612c0a6000830184612a66565b92915050565b60008060408385031215612c2757612c2661259b565b5b600083013567ffffffffffffffff811115612c4557612c446125a0565b5b612c51858286016129ad565b9250506020612c6285828601612af9565b9150509250929050565b600080600060608486031215612c8557612c8461259b565b5b6000612c93868287016125ee565b935050602084013567ffffffffffffffff811115612cb457612cb36125a0565b5b612cc0868287016129ad565b9250506040612cd186828701612af9565b9150509250925092565b60008060408385031215612cf257612cf161259b565b5b6000612d00858286016125ee565b9250506020612d1185828601612af9565b9150509250929050565b600082825260208201905092915050565b6000612d3782612630565b612d418185612d1b565b9350612d5181856020860161264c565b612d5a81612676565b840191505092915050565b612d6e8161276b565b82525050565b60006080820190508181036000830152612d8e8187612d2c565b9050612d9d6020830186612a66565b612daa6040830185612a66565b612db76060830184612d65565b95945050505050565b600081519050919050565b600082825260208201905092915050565b6000819050602082019050919050565b600067ffffffffffffffff82169050919050565b612e0981612dec565b82525050565b60c082016000820151612e256000850182612778565b506020820151612e386020850182612778565b506040820151612e4b604085018261275c565b506060820151612e5e606085018261275c565b506080820151612e716080850182612e00565b5060a0820151612e8460a0850182612778565b50505050565b6000612e968383612e0f565b60c08301905092915050565b6000602082019050919050565b6000612eba82612dc0565b612ec48185612dcb565b9350612ecf83612ddc565b8060005b83811015612f00578151612ee78882612e8a565b9750612ef283612ea2565b925050600181019050612ed3565b5085935050505092915050565b60006060830160008301518482036000860152612f2a8282612687565b91505060208301518482036020860152612f448282612687565b91505060408301518482036040860152612f5e8282612eaf565b9150508091505092915050565b60006020820190508181036000830152612f858184612f0d565b905092915050565b600060208284031215612fa357612fa261259b565b5b600082013567ffffffffffffffff811115612fc157612fc06125a0565b5b612fcd848285016129ad565b91505092915050565b600081519050919050565b600082825260208201905092915050565b6000819050602082019050919050565b6080820160008201516130186000850182612778565b50602082015161302b6020850182612778565b50604082015161303e604085018261275c565b506060820151613051606085018261275c565b50505050565b60006130638383613002565b60808301905092915050565b6000602082019050919050565b600061308782612fd6565b6130918185612fe1565b935061309c83612ff2565b8060005b838110156130cd5781516130b48882613057565b97506130bf8361306f565b9250506001810190506130a0565b5085935050505092915050565b600060808301600083015184820360008601526130f78282612687565b915050602083015184820360208601526131118282612687565b9150506040830151848203604086015261312b8282612687565b91505060608301518482036060860152613145828261307c565b9150508091505092915050565b6000602082019050818103600083015261316c81846130da565b905092915050565b600080fd5b600060a0828403121561318f5761318e613174565b5b81905092915050565b6000606082840312156131ae576131ad613174565b5b81905092915050565b60008060008060008061010087890312156131d5576131d461259b565b5b600087013567ffffffffffffffff8111156131f3576131f26125a0565b5b6131ff89828a01613179565b965050602061321089828a01613198565b955050608061322189828a01612af9565b94505060a061323289828a016125ee565b93505060c087013567ffffffffffffffff811115613253576132526125a0565b5b61325f89828a016129ad565b92505060e061327089828a01612af9565b9150509295509295509295565b613286816126c0565b82525050565b60006020820190506132a1600083018461327d565b92915050565b6000806000606084860312156132c0576132bf61259b565b5b600084013567ffffffffffffffff8111156132de576132dd6125a0565b5b6132ea868287016129ad565b93505060206132fb86828701612af9565b925050604061330c86828701612af9565b9150509250925092565b6000819050919050565b61332981613316565b811461333457600080fd5b50565b60008135905061334681613320565b92915050565b600080600080608085870312156133665761336561259b565b5b600085013567ffffffffffffffff811115613384576133836125a0565b5b61339087828801613179565b94505060206133a1878288016125ee565b93505060406133b287828801613337565b92505060606133c387828801613337565b91505092959194509250565b600060a082840312156133e5576133e4613174565b5b81905092915050565b600080604083850312156134055761340461259b565b5b600083013567ffffffffffffffff811115613423576134226125a0565b5b61342f858286016129ad565b925050602083013567ffffffffffffffff8111156134505761344f6125a0565b5b61345c858286016133cf565b9150509250929050565b600081519050919050565b600082825260208201905092915050565b6000819050602082019050919050565b60006101608301600083015184820360008601526134b08282612687565b915050602083015184820360208601526134ca8282612687565b91505060408301516134df60408601826126cc565b5060608301516134f26060860182612743565b506080830151613505608086018261275c565b5060a083015161351860a086018261275c565b5060c083015184820360c08601526135308282612687565b91505060e083015161354560e0860182612778565b5061010083015161355a610100860182612778565b5061012083015161356f61012086018261275c565b5061014083015161358461014086018261275c565b508091505092915050565b600061359b8383613492565b905092915050565b6000602082019050919050565b60006135bb82613466565b6135c58185613471565b9350836020820285016135d785613482565b8060005b8581101561361357848403895281516135f4858261358f565b94506135ff836135a3565b925060208a019950506001810190506135db565b50829750879550505050505092915050565b600081519050919050565b600082825260208201905092915050565b600061364c82613625565b6136568185613630565b935061366681856020860161264c565b61366f81612676565b840191505092915050565b600060408301600083015184820360008601526136978282613641565b91505060208301516136ac6020860182612e00565b508091505092915050565b600060408201905081810360008301526136d181856135b0565b905081810360208301526136e5818461367a565b90509392505050565b6000806000606084860312156137075761370661259b565b5b600084013567ffffffffffffffff811115613725576137246125a0565b5b613731868287016129ad565b935050602084013567ffffffffffffffff811115613752576137516125a0565b5b61375e868287016129ad565b925050604061376f86828701612af9565b9150509250925092565b600080fd5b600080fd5b600067ffffffffffffffff82111561379e5761379d6128b0565b5b6137a782612676565b9050602081019050919050565b60006137c76137c284613783565b612910565b9050828152602081018484840111156137e3576137e26128ab565b5b6137ee84828561295c565b509392505050565b600082601f83011261380b5761380a6128a6565b5b813561381b8482602086016137b4565b91505092915050565b61382d81612dec565b811461383857600080fd5b50565b60008135905061384a81613824565b92915050565b613859816126c0565b811461386457600080fd5b50565b60008135905061387681613850565b92915050565b600060a0828403121561389257613891613779565b5b61389c60a0612910565b9050600082013567ffffffffffffffff8111156138bc576138bb61377e565b5b6138c8848285016137f6565b60008301525060206138dc8482850161383b565b60208301525060406138f08482850161383b565b604083015250606061390484828501613867565b606083015250608061391884828501613867565b60808301525092915050565b6000806000806080858703121561393e5761393d61259b565b5b600061394c878288016125ee565b945050602085013567ffffffffffffffff81111561396d5761396c6125a0565b5b613979878288016129ad565b935050604085013567ffffffffffffffff81111561399a576139996125a0565b5b6139a6878288016129ad565b925050606085013567ffffffffffffffff8111156139c7576139c66125a0565b5b6139d38782880161387c565b91505092959194509250565b600081519050919050565b600082825260208201905092915050565b6000819050602082019050919050565b60006080830160008301518482036000860152613a288282612687565b91505060208301518482036020860152613a428282612687565b91505060408301518482036040860152613a5c8282612687565b91505060608301518482036060860152613a76828261307c565b9150508091505092915050565b600081519050919050565b600082825260208201905092915050565b6000819050602082019050919050565b60a082016000820151613ac56000850182613002565b506020820151613ad8608085018261275c565b50505050565b6000613aea8383613aaf565b60a08301905092915050565b6000602082019050919050565b6000613b0e82613a83565b613b188185613a8e565b9350613b2383613a9f565b8060005b83811015613b54578151613b3b8882613ade565b9750613b4683613af6565b925050600181019050613b27565b5085935050505092915050565b60006040830160008301518482036000860152613b7e8282613a0b565b91505060208301518482036020860152613b988282613b03565b9150508091505092915050565b6000613bb18383613b61565b905092915050565b6000602082019050919050565b6000613bd1826139df565b613bdb81856139ea565b935083602082028501613bed856139fb565b8060005b85811015613c295784840389528151613c0a8582613ba5565b9450613c1583613bb9565b925060208a01995050600181019050613bf1565b50829750879550505050505092915050565b60006040820190508181036000830152613c558185613bc6565b90508181036020830152613c69818461367a565b90509392505050565b613c7b816125c5565b82525050565b6000602082019050613c966000830184613c72565b92915050565b6000613caf613caa8461292b565b612910565b905082815260208101848484011115613ccb57613cca6128ab565b5b613cd684828561264c565b509392505050565b600082601f830112613cf357613cf26128a6565b5b8151613d03848260208601613c9c565b91505092915050565b600081519050613d1b81613850565b92915050565b60048110613d2e57600080fd5b50565b600081519050613d4081613d21565b92915050565b600081519050613d5581612ae2565b92915050565b613d648161276b565b8114613d6f57600080fd5b50565b600081519050613d8181613d5b565b92915050565b60006101608284031215613d9e57613d9d613779565b5b613da9610160612910565b9050600082015167ffffffffffffffff811115613dc957613dc861377e565b5b613dd584828501613cde565b600083015250602082015167ffffffffffffffff811115613df957613df861377e565b5b613e0584828501613cde565b6020830152506040613e1984828501613d0c565b6040830152506060613e2d84828501613d31565b6060830152506080613e4184828501613d46565b60808301525060a0613e5584828501613d46565b60a08301525060c082015167ffffffffffffffff811115613e7957613e7861377e565b5b613e8584828501613cde565b60c08301525060e0613e9984828501613d72565b60e083015250610100613eae84828501613d72565b61010083015250610120613ec484828501613d46565b61012083015250610140613eda84828501613d46565b6101408301525092915050565b600060208284031215613efd57613efc61259b565b5b600082015167ffffffffffffffff811115613f1b57613f1a6125a0565b5b613f2784828501613d87565b91505092915050565b6000604082019050613f456000830185613c72565b8181036020830152613f578184612d2c565b90509392505050565b600081905092915050565b6000613f7682612630565b613f808185613f60565b9350613f9081856020860161264c565b80840191505092915050565b6000613fa88284613f6b565b915081905092915050565b7f64656c656761746563616c6c0000000000000000000000000000000000000000600082015250565b6000613fe9600c83613f60565b9150613ff482613fb3565b600c82019050919050565b600061400a82613fdc565b9150819050919050565b600081905092915050565b600061402a82613625565b6140348185614014565b935061404481856020860161264c565b80840191505092915050565b600061405c828461401f565b915081905092915050565b7f6661696c65642064656c656761746563616c6c20746f20707265636f6d70696c60008201527f6500000000000000000000000000000000000000000000000000000000000000602082015250565b60006140c3602183612d1b565b91506140ce82614067565b604082019050919050565b600060208201905081810360008301526140f2816140b6565b9050919050565b60006040828403121561410f5761410e613779565b5b6141196040612910565b9050600082015167ffffffffffffffff8111156141395761413861377e565b5b61414584828501613cde565b600083015250602061415984828501613d46565b60208301525092915050565b6000806040838503121561417c5761417b61259b565b5b600061418a85828601613d46565b925050602083015167ffffffffffffffff8111156141ab576141aa6125a0565b5b6141b7858286016140f9565b9150509250929050565b7f73746174696363616c6c00000000000000000000000000000000000000000000600082015250565b60006141f7600a83613f60565b9150614202826141c1565b600a82019050919050565b6000614218826141ea565b9150819050919050565b7f6661696c65642073746174696363616c6c20746f20707265636f6d70696c6500600082015250565b6000614258601f83612d1b565b915061426382614222565b602082019050919050565b600060208201905081810360008301526142878161424b565b9050919050565b7f63616c6c00000000000000000000000000000000000000000000000000000000600082015250565b60006142c4600483613f60565b91506142cf8261428e565b600482019050919050565b60006142e5826142b7565b9150819050919050565b7f6661696c65642063616c6c20746f20707265636f6d70696c6500000000000000600082015250565b6000614325601983612d1b565b9150614330826142ef565b602082019050919050565b6000602082019050818103600083015261435481614318565b9050919050565b7f63616c6c636f6465000000000000000000000000000000000000000000000000600082015250565b6000614391600883613f60565b915061439c8261435b565b600882019050919050565b60006143b282614384565b9150819050919050565b7f696e76616c69642063616c6c7479706500000000000000000000000000000000600082015250565b60006143f2601083612d1b565b91506143fd826143bc565b602082019050919050565b60006020820190508181036000830152614421816143e5565b9050919050565b600060608201905061443d6000830186613c72565b818103602083015261444f8185612d2c565b905061445e6040830184612a66565b949350505050565b7f4e487b7100000000000000000000000000000000000000000000000000000000600052601160045260246000fd5b60006144a082612752565b91506144ab83612752565b92508282019050808211156144c3576144c2614466565b5b92915050565b6000602082840312156144df576144de61259b565b5b60006144ed84828501613d72565b91505092915050565b7f4e487b7100000000000000000000000000000000000000000000000000000000600052602260045260246000fd5b6000600282049050600182168061453d57607f821691505b6020821081036145505761454f6144f6565b5b50919050565b60008190508160005260206000209050919050565b60006020601f8301049050919050565b600082821b905092915050565b6000600883026145b87fffffffffffffffffffffffffffffffffffffffffffffffffffffffffffffffff8261457b565b6145c2868361457b565b95508019841693508086168417925050509392505050565b6000819050919050565b60006145ff6145fa6145f584612752565b6145da565b612752565b9050919050565b6000819050919050565b614619836145e4565b61462d61462582614606565b848454614588565b825550505050565b600090565b614642614635565b61464d818484614610565b505050565b5b818110156146715761466660008261463a565b600181019050614653565b5050565b601f8211156146b65761468781614556565b6146908461456b565b8101602085101561469f578190505b6146b36146ab8561456b565b830182614652565b50505b505050565b600082821c905092915050565b60006146d9600019846008026146bb565b1980831691505092915050565b60006146f283836146c8565b9150826002028217905092915050565b61470b82612630565b67ffffffffffffffff811115614724576147236128b0565b5b61472e8254614525565b614739828285614675565b600060209050601f83116001811461476c576000841561475a578287015190505b61476485826146e6565b8655506147cc565b601f19841661477a86614556565b60005b828110156147a25784890151825560018201915060208501945060208101905061477d565b868310156147bf57848901516147bb601f8916826146c8565b8355505b6001600288020188555050505b505050505050565b7f496e73756666696369656e742064656c65676174696f6e000000000000000000600082015250565b600061480a601783612d1b565b9150614815826147d4565b602082019050919050565b60006020820190508181036000830152614839816147fd565b9050919050565b7f4661696c656420746f20756e64656c6567617465000000000000000000000000600082015250565b6000614876601483612d1b565b915061488182614840565b602082019050919050565b600060208201905081810360008301526148a581614869565b9050919050565b60006040820190506148c16000830185613c72565b6148ce6020830184612a66565b9392505050565b7f7472616e73666572206661696c65640000000000000000000000000000000000600082015250565b600061490b600f83612d1b565b9150614916826148d5565b602082019050919050565b6000602082019050818103600083015261493a816148fe565b9050919050565b6000602082840312156149575761495661259b565b5b600061496584828501613d0c565b91505092915050565b7f64656c6567617465206661696c65640000000000000000000000000000000000600082015250565b60006149a4600f83612d1b565b91506149af8261496e565b602082019050919050565b600060208201905081810360008301526149d381614997565b9050919050565b600067ffffffffffffffff8211156149f5576149f46128b0565b5b602082029050602081019050919050565b600080fd5b600081519050614a1a81613824565b92915050565b600060c08284031215614a3657614a35613779565b5b614a4060c0612910565b90506000614a5084828501613d72565b6000830152506020614a6484828501613d72565b6020830152506040614a7884828501613d46565b6040830152506060614a8c84828501613d46565b6060830152506080614aa084828501614a0b565b60808301525060a0614ab484828501613d72565b60a08301525092915050565b6000614ad3614ace846149da565b612910565b90508083825260208201905060c08402830185811115614af657614af5614a06565b5b835b81811015614b1f5780614b0b8882614a20565b84526020840193505060c081019050614af8565b5050509392505050565b600082601f830112614b3e57614b3d6128a6565b5b8151614b4e848260208601614ac0565b91505092915050565b600060608284031215614b6d57614b6c613779565b5b614b776060612910565b9050600082015167ffffffffffffffff811115614b9757614b9661377e565b5b614ba384828501613cde565b600083015250602082015167ffffffffffffffff811115614bc757614bc661377e565b5b614bd384828501613cde565b602083015250604082015167ffffffffffffffff811115614bf757614bf661377e565b5b614c0384828501614b29565b60408301525092915050565b600060208284031215614c2557614c2461259b565b5b600082015167ffffffffffffffff811115614c4357614c426125a0565b5b614c4f84828501614b57565b91505092915050565b6000606082019050614c6d6000830186613c72565b8181036020830152614c7f8185612d2c565b90508181036040830152614c938184612d2c565b9050949350505050565b600067ffffffffffffffff821115614cb857614cb76128b0565b5b602082029050602081019050919050565b600060808284031215614cdf57614cde613779565b5b614ce96080612910565b90506000614cf984828501613d72565b6000830152506020614d0d84828501613d72565b6020830152506040614d2184828501613d46565b6040830152506060614d3584828501613d46565b60608301525092915050565b6000614d54614d4f84614c9d565b612910565b90508083825260208201905060808402830185811115614d7757614d76614a06565b5b835b81811015614da05780614d8c8882614cc9565b845260208401935050608081019050614d79565b5050509392505050565b600082601f830112614dbf57614dbe6128a6565b5b8151614dcf848260208601614d41565b91505092915050565b600060808284031215614dee57614ded613779565b5b614df86080612910565b9050600082015167ffffffffffffffff811115614e1857614e1761377e565b5b614e2484828501613cde565b600083015250602082015167ffffffffffffffff811115614e4857614e4761377e565b5b614e5484828501613cde565b602083015250604082015167ffffffffffffffff811115614e7857614e7761377e565b5b614e8484828501613cde565b604083015250606082015167ffffffffffffffff811115614ea857614ea761377e565b5b614eb484828501614daa565b60608301525092915050565b600060208284031215614ed657614ed561259b565b5b600082015167ffffffffffffffff811115614ef457614ef36125a0565b5b614f0084828501614dd8565b91505092915050565b600080fd5b600080fd5b600080fd5b60008083356001602003843603038112614f3557614f34614f13565b5b83810192508235915060208301925067ffffffffffffffff821115614f5d57614f5c614f09565b5b600182023603831315614f7357614f72614f0e565b5b509250929050565b6000614f87838561263b565b9350614f9483858461295c565b614f9d83612676565b840190509392505050565b600060a08301614fbb6000840184614f18565b8583036000870152614fce838284614f7b565b92505050614fdf6020840184614f18565b8583036020870152614ff2838284614f7b565b925050506150036040840184614f18565b8583036040870152615016838284614f7b565b925050506150276060840184614f18565b858303606087015261503a838284614f7b565b9250505061504b6080840184614f18565b858303608087015261505e838284614f7b565b925050508091505092915050565b600061507b6020840184612af9565b905092915050565b60608201615094600083018361506c565b6150a1600085018261275c565b506150af602083018361506c565b6150bc602085018261275c565b506150ca604083018361506c565b6150d7604085018261275c565b50505050565b60006101008201905081810360008301526150f88189614fa8565b90506151076020830188615083565b6151146080830187612a66565b61512160a0830186613c72565b81810360c08301526151338185612d2c565b905061514260e0830184612a66565b979650505050505050565b60006080820190506151626000830187613c72565b81810360208301526151748186612d2c565b90506151836040830185612a66565b6151906060830184612a66565b95945050505050565b7f4661696c656420746f2063616e63656c20756e626f6e64696e67000000000000600082015250565b60006151cf601a83612d1b565b91506151da82615199565b602082019050919050565b600060208201905081810360008301526151fe816151c2565b9050919050565b61520e81613316565b82525050565b6000608082019050818103600083015261522e8187614fa8565b905061523d6020830186613c72565b61524a6040830185615205565b6152576060830184615205565b95945050505050565b6000808335600160200384360303811261527d5761527c614f13565b5b83810192508235915060208301925067ffffffffffffffff8211156152a5576152a4614f09565b5b6001820236038313156152bb576152ba614f0e565b5b509250929050565b60006152cf8385613630565b93506152dc83858461295c565b6152e583612676565b840190509392505050565b60006152ff602084018461383b565b905092915050565b60006153166020840184613867565b905092915050565b600060a083016153316000840184615260565b85830360008701526153448382846152c3565b9250505061535560208401846152f0565b6153626020860182612e00565b5061537060408401846152f0565b61537d6040860182612e00565b5061538b6060840184615307565b61539860608601826126cc565b506153a66080840184615307565b6153b360808601826126cc565b508091505092915050565b600060408201905081810360008301526153d88185612d2c565b905081810360208301526153ec818461531e565b90509392505050565b600067ffffffffffffffff8211156154105761540f6128b0565b5b602082029050602081019050919050565b600061543461542f846153f5565b612910565b9050808382526020820190506020840283018581111561545757615456614a06565b5b835b8181101561549e57805167ffffffffffffffff81111561547c5761547b6128a6565b5b8086016154898982613d87565b85526020850194505050602081019050615459565b5050509392505050565b600082601f8301126154bd576154bc6128a6565b5b81516154cd848260208601615421565b91505092915050565b60006154e96154e484613783565b612910565b905082815260208101848484011115615505576155046128ab565b5b61551084828561264c565b509392505050565b600082601f83011261552d5761552c6128a6565b5b815161553d8482602086016154d6565b91505092915050565b60006040828403121561555c5761555b613779565b5b6155666040612910565b9050600082015167ffffffffffffffff8111156155865761558561377e565b5b61559284828501615518565b60008301525060206155a684828501614a0b565b60208301525092915050565b600080604083850312156155c9576155c861259b565b5b600083015167ffffffffffffffff8111156155e7576155e66125a0565b5b6155f3858286016154a8565b925050602083015167ffffffffffffffff811115615614576156136125a0565b5b61562085828601615546565b9150509250929050565b600060808201905061563f6000830187613c72565b81810360208301526156518186612d2c565b905081810360408301526156658185612d2c565b90506156746060830184612a66565b95945050505050565b7f4661696c656420746f20726564656c6567617465000000000000000000000000600082015250565b60006156b3601483612d1b565b91506156be8261567d565b602082019050919050565b600060208201905081810360008301526156e2816156a6565b9050919050565b60006156f482612752565b91506156ff83612752565b925082820390508181111561571757615716614466565b5b92915050565b600060a083016000830151848203600086015261573a8282613641565b915050602083015161574f6020860182612e00565b5060408301516157626040860182612e00565b50606083015161577560608601826126cc565b50608083015161578860808601826126cc565b508091505092915050565b60006080820190506157a86000830187613c72565b81810360208301526157ba8186612d2c565b905081810360408301526157ce8185612d2c565b905081810360608301526157e2818461571d565b905095945050505050565b600067ffffffffffffffff821115615808576158076128b0565b5b602082029050602081019050919050565b60006080828403121561582f5761582e613779565b5b6158396080612910565b9050600082015167ffffffffffffffff8111156158595761585861377e565b5b61586584828501613cde565b600083015250602082015167ffffffffffffffff8111156158895761588861377e565b5b61589584828501613cde565b602083015250604082015167ffffffffffffffff8111156158b9576158b861377e565b5b6158c584828501613cde565b604083015250606082015167ffffffffffffffff8111156158e9576158e861377e565b5b6158f584828501614daa565b60608301525092915050565b600067ffffffffffffffff82111561591c5761591b6128b0565b5b602082029050602081019050919050565b600060a0828403121561594357615942613779565b5b61594d6040612910565b9050600061595d84828501614cc9565b600083015250608061597184828501613d46565b60208301525092915050565b600061599061598b84615901565b612910565b90508083825260208201905060a084028301858111156159b3576159b2614a06565b5b835b818110156159dc57806159c8888261592d565b84526020840193505060a0810190506159b5565b5050509392505050565b600082601f8301126159fb576159fa6128a6565b5b8151615a0b84826020860161597d565b91505092915050565b600060408284031215615a2a57615a29613779565b5b615a346040612910565b9050600082015167ffffffffffffffff811115615a5457615a5361377e565b5b615a6084828501615819565b600083015250602082015167ffffffffffffffff811115615a8457615a8361377e565b5b615a90848285016159e6565b60208301525092915050565b6000615aaf615aaa846157ed565b612910565b90508083825260208201905060208402830185811115615ad257615ad1614a06565b5b835b81811015615b1957805167ffffffffffffffff811115615af757615af66128a6565b5b808601615b048982615a14565b85526020850194505050602081019050615ad4565b5050509392505050565b600082601f830112615b3857615b376128a6565b5b8151615b48848260208601615a9c565b91505092915050565b60008060408385031215615b6857615b6761259b565b5b600083015167ffffffffffffffff811115615b8657615b856125a0565b5b615b9285828601615b23565b925050602083015167ffffffffffffffff811115615bb357615bb26125a0565b5b615bbf85828601615546565b9150509250929050565b7f4e487b7100000000000000000000000000000000000000000000000000000000600052603260045260246000fd5b60008154615c0581614525565b615c0f8186613f60565b94506001821660008114615c2a5760018114615c3f57615c72565b60ff1983168652811515820286019350615c72565b615c4885614556565b60005b83811015615c6a57815481890152600182019150602081019050615c4b565b838801955050505b50505092915050565b6000615c878284615bf8565b915081905092915050565b6000615c9d82612752565b91507fffffffffffffffffffffffffffffffffffffffffffffffffffffffffffffffff8203615ccf57615cce614466565b5b600182019050919050565b7f616d6f756e74206578636565647320756e626f6e64696e6720656e747279206160008201527f6d6f756e74000000000000000000000000000000000000000000000000000000602082015250565b6000615d36602583612d1b565b9150615d4182615cda565b604082019050919050565b60006020820190508181036000830152615d6581615d29565b905091905056fea264697066735822122041e0f27074e339c4a8cd4de42bc9228c64ae03832ad543ba8103ed63eebdc33a64736f6c634300081400332f636f736d6f732e7374616b696e672e763162657461312e4d736744656c6567617465",
  "linkReferences": {},
  "deployedLinkReferences": {}
}