{
  "_format": "hh-sol-artifact-1",
  "contractName": "StakingCaller",
  "sourceName": "solidity/precompiles/staking/testdata/StakingCaller.sol",
  "abi": [
    {
      "inputs": [
        {
          "internalType": "address",
          "name": "_contract",
          "type": "address"
        },
        {
          "internalType": "string",
          "name": "_validatorAddr",
          "type": "string"
        },
        {
          "internalType": "uint256",
          "name": "_amount",
          "type": "uint256"
        }
      ],
      "name": "callERC20AndDelegate",
      "outputs": [],
      "stateMutability": "payable",
      "type": "function"
    },
    {
      "inputs": [],
      "name": "counter",
      "outputs": [
        {
          "internalType": "uint256",
          "name": "",
          "type": "uint256"
        }
      ],
      "stateMutability": "view",
      "type": "function"
    },
    {
      "inputs": [
        {
          "internalType": "address",
          "name": "",
          "type": "address"
        },
        {
          "internalType": "string",
          "name": "",
          "type": "string"
        }
      ],
      "name": "delegations",
      "outputs": [
        {
          "internalType": "uint256",
          "name": "",
          "type": "uint256"
        }
      ],
      "stateMutability": "view",
      "type": "function"
    },
    {
      "inputs": [
        {
          "internalType": "address",
          "name": "_delegatorAddr",
          "type": "address"
        },
        {
          "internalType": "string",
          "name": "_validatorAddr",
          "type": "string"
        }
      ],
      "name": "getDelegation",
      "outputs": [
        {
          "internalType": "uint256",
          "name": "shares",
          "type": "uint256"
        },
        {
          "components": [
            {
              "internalType": "string",
              "name": "denom",
              "type": "string"
            },
            {
              "internalType": "uint256",
              "name": "amount",
              "type": "uint256"
            }
          ],
          "internalType": "struct Coin",
          "name": "balance",
          "type": "tuple"
        }
      ],
      "stateMutability": "view",
      "type": "function"
    },
    {
      "inputs": [
        {
          "internalType": "address",
          "name": "_delegatorAddr",
          "type": "address"
        },
        {
          "internalType": "string",
          "name": "_validatorSrcAddr",
          "type": "string"
        },
        {
          "internalType": "string",
          "name": "_validatorDstAddr",
          "type": "string"
        }
      ],
      "name": "getRedelegation",
      "outputs": [
        {
          "components": [
            {
              "internalType": "string",
              "name": "delegatorAddress",
              "type": "string"
            },
            {
              "internalType": "string",
              "name": "validatorSrcAddress",
              "type": "string"
            },
            {
              "internalType": "string",
              "name": "validatorDstAddress",
              "type": "string"
            },
            {
              "components": [
                {
                  "internalType": "int64",
                  "name": "creationHeight",
                  "type": "int64"
                },
                {
                  "internalType": "int64",
                  "name": "completionTime",
                  "type": "int64"
                },
                {
                  "internalType": "uint256",
                  "name": "initialBalance",
                  "type": "uint256"
                },
                {
                  "internalType": "uint256",
                  "name": "sharesDst",
                  "type": "uint256"
                }
              ],
              "internalType": "struct RedelegationEntry[]",
              "name": "entries",
              "type": "tuple[]"
            }
          ],
          "internalType": "struct RedelegationOutput",
          "name": "redelegation",
          "type": "tuple"
        }
      ],
      "stateMutability": "view",
      "type": "function"
    },
    {
      "inputs": [
        {
          "internalType": "address",
          "name": "_delegatorAddr",
          "type": "address"
        },
        {
          "internalType": "string",
          "name": "_validatorSrcAddr",
          "type": "string"
        },
        {
          "internalType": "string",
          "name": "_validatorDstAddr",
          "type": "string"
        },
        {
          "components": [
            {
              "internalType": "bytes",
              "name": "key",
              "type": "bytes"
            },
            {
              "internalType": "uint64",
              "name": "offset",
              "type": "uint64"
            },
            {
              "internalType": "uint64",
              "name": "limit",
              "type": "uint64"
            },
            {
              "internalType": "bool",
              "name": "countTotal",
              "type": "bool"
            },
            {
              "internalType": "bool",
              "name": "reverse",
              "type": "bool"
            }
          ],
          "internalType": "struct PageRequest",
          "name": "_pageRequest",
          "type": "tuple"
        }
      ],
      "name": "getRedelegations",
      "outputs": [
        {
          "components": [
            {
              "components": [
                {
                  "internalType": "string",
                  "name": "delegatorAddress",
                  "type": "string"
                },
                {
                  "internalType": "string",
                  "name": "validatorSrcAddress",
                  "type": "string"
                },
                {
                  "internalType": "string",
                  "name": "validatorDstAddress",
                  "type": "string"
                },
                {
                  "components": [
                    {
                      "internalType": "int64",
                      "name": "creationHeight",
                      "type": "int64"
                    },
                    {
                      "internalType": "int64",
                      "name": "completionTime",
                      "type": "int64"
                    },
                    {
                      "internalType": "uint256",
                      "name": "initialBalance",
                      "type": "uint256"
                    },
                    {
                      "internalType": "uint256",
                      "name": "sharesDst",
                      "type": "uint256"
                    }
                  ],
                  "internalType": "struct RedelegationEntry[]",
                  "name": "entries",
                  "type": "tuple[]"
                }
              ],
              "internalType": "struct Redelegation",
              "name": "redelegation",
              "type": "tuple"
            },
            {
              "components": [
                {
                  "components": [
                    {
                      "internalType": "int64",
                      "name": "creationHeight",
                      "type": "int64"
                    },
                    {
                      "internalType": "int64",
                      "name": "completionTime",
                      "type": "int64"
                    },
                    {
                      "internalType": "uint256",
                      "name": "initialBalance",
                      "type": "uint256"
                    },
                    {
                      "internalType": "uint256",
                      "name": "sharesDst",
                      "type": "uint256"
                    }
                  ],
                  "internalType": "struct RedelegationEntry",
                  "name": "redelegationEntry",
                  "type": "tuple"
                },
                {
                  "internalType": "uint256",
                  "name": "balance",
                  "type": "uint256"
                }
              ],
              "internalType": "struct RedelegationEntryResponse[]",
              "name": "entries",
              "type": "tuple[]"
            }
          ],
          "internalType": "struct RedelegationResponse[]",
          "name": "response",
          "type": "tuple[]"
        },
        {
          "components": [
            {
              "internalType": "bytes",
              "name": "nextKey",
              "type": "bytes"
            },
            {
              "internalType": "uint64",
              "name": "total",
              "type": "uint64"
            }
          ],
          "internalType": "struct PageResponse",
          "name": "pageResponse",
          "type": "tuple"
        }
      ],
      "stateMutability": "view",
      "type": "function"
    },
    {
      "inputs": [
        {
          "internalType": "address",
          "name": "_delegatorAddr",
          "type": "address"
        },
        {
          "internalType": "string",
          "name": "_validatorAddr",
          "type": "string"
        }
      ],
      "name": "getUnbondingDelegation",
      "outputs": [
        {
          "components": [
            {
              "internalType": "string",
              "name": "delegatorAddress",
              "type": "string"
            },
            {
              "internalType": "string",
              "name": "validatorAddress",
              "type": "string"
            },
            {
              "components": [
                {
                  "internalType": "int64",
                  "name": "creationHeight",
                  "type": "int64"
                },
                {
                  "internalType": "int64",
                  "name": "completionTime",
                  "type": "int64"
                },
                {
                  "internalType": "uint256",
                  "name": "initialBalance",
                  "type": "uint256"
                },
                {
                  "internalType": "uint256",
                  "name": "balance",
                  "type": "uint256"
                },
                {
                  "internalType": "uint64",
                  "name": "unbondingId",
                  "type": "uint64"
                },
                {
                  "internalType": "int64",
                  "name": "unbondingOnHoldRefCount",
                  "type": "int64"
                }
              ],
              "internalType": "struct UnbondingDelegationEntry[]",
              "name": "entries",
              "type": "tuple[]"
            }
          ],
          "internalType": "struct UnbondingDelegationOutput",
          "name": "unbondingDelegation",
          "type": "tuple"
        }
      ],
      "stateMutability": "view",
      "type": "function"
    },
    {
      "inputs": [
        {
          "internalType": "address",
          "name": "_validatorAddr",
          "type": "address"
        }
      ],
      "name": "getValidator",
      "outputs": [
        {
          "components": [
            {
              "internalType": "string",
              "name": "operatorAddress",
              "type": "string"
            },
            {
              "internalType": "string",
              "name": "consensusPubkey",
              "type": "string"
            },
            {
              "internalType": "bool",
              "name": "jailed",
              "type": "bool"
            },
            {
              "internalType": "enum BondStatus",
              "name": "status",
              "type": "uint8"
            },
            {
              "internalType": "uint256",
              "name": "tokens",
              "type": "uint256"
            },
            {
              "internalType": "uint256",
              "name": "delegatorShares",
              "type": "uint256"
            },
            {
              "internalType": "string",
              "name": "description",
              "type": "string"
            },
            {
              "internalType": "int64",
              "name": "unbondingHeight",
              "type": "int64"
            },
            {
              "internalType": "int64",
              "name": "unbondingTime",
              "type": "int64"
            },
            {
              "internalType": "uint256",
              "name": "commission",
              "type": "uint256"
            },
            {
              "internalType": "uint256",
              "name": "minSelfDelegation",
              "type": "uint256"
            }
          ],
          "internalType": "struct Validator",
          "name": "validator",
          "type": "tuple"
        }
      ],
      "stateMutability": "view",
      "type": "function"
    },
    {
      "inputs": [
        {
          "internalType": "string",
          "name": "_status",
          "type": "string"
        },
        {
          "components": [
            {
              "internalType": "bytes",
              "name": "key",
              "type": "bytes"
            },
            {
              "internalType": "uint64",
              "name": "offset",
              "type": "uint64"
            },
            {
              "internalType": "uint64",
              "name": "limit",
              "type": "uint64"
            },
            {
              "internalType": "bool",
              "name": "countTotal",
              "type": "bool"
            },
            {
              "internalType": "bool",
              "name": "reverse",
              "type": "bool"
            }
          ],
          "internalType": "struct PageRequest",
          "name": "_pageRequest",
          "type": "tuple"
        }
      ],
      "name": "getValidators",
      "outputs": [
        {
          "components": [
            {
              "internalType": "string",
              "name": "operatorAddress",
              "type": "string"
            },
            {
              "internalType": "string",
              "name": "consensusPubkey",
              "type": "string"
            },
            {
              "internalType": "bool",
              "name": "jailed",
              "type": "bool"
            },
            {
              "internalType": "enum BondStatus",
              "name": "status",
              "type": "uint8"
            },
            {
              "internalType": "uint256",
              "name": "tokens",
              "type": "uint256"
            },
            {
              "internalType": "uint256",
              "name": "delegatorShares",
              "type": "uint256"
            },
            {
              "internalType": "string",
              "name": "description",
              "type": "string"
            },
            {
              "internalType": "int64",
              "name": "unbondingHeight",
              "type": "int64"
            },
            {
              "internalType": "int64",
              "name": "unbondingTime",
              "type": "int64"
            },
            {
              "internalType": "uint256",
              "name": "commission",
              "type": "uint256"
            },
            {
              "internalType": "uint256",
              "name": "minSelfDelegation",
              "type": "uint256"
            }
          ],
          "internalType": "struct Validator[]",
          "name": "validators",
          "type": "tuple[]"
        },
        {
          "components": [
            {
              "internalType": "bytes",
              "name": "nextKey",
              "type": "bytes"
            },
            {
              "internalType": "uint64",
              "name": "total",
              "type": "uint64"
            }
          ],
          "internalType": "struct PageResponse",
          "name": "pageResponse",
          "type": "tuple"
        }
      ],
      "stateMutability": "view",
      "type": "function"
    },
    {
      "inputs": [
        {
          "internalType": "address",
          "name": "_delegatorAddr",
          "type": "address"
        },
        {
          "internalType": "string",
          "name": "_validatorAddr",
          "type": "string"
        },
        {
          "internalType": "string",
          "name": "_calltype",
          "type": "string"
        }
      ],
      "name": "testCallDelegation",
      "outputs": [
        {
          "internalType": "uint256",
          "name": "shares",
          "type": "uint256"
        },
        {
          "components": [
            {
              "internalType": "string",
              "name": "denom",
              "type": "string"
            },
            {
              "internalType": "uint256",
              "name": "amount",
              "type": "uint256"
            }
          ],
          "internalType": "struct Coin",
          "name": "coin",
          "type": "tuple"
        }
      ],
      "stateMutability": "nonpayable",
      "type": "function"
    },
    {
      "inputs": [
        {
          "internalType": "string",
          "name": "_validatorAddr",
          "type": "string"
        },
        {
          "internalType": "uint256",
          "name": "_amount",
          "type": "uint256"
        },
        {
          "internalType": "string",
          "name": "_calltype",
          "type": "string"
        }
      ],
      "name": "testCallUndelegate",
      "outputs": [],
      "stateMutability": "nonpayable",
      "type": "function"
    },
    {
      "inputs": [
        {
          "internalType": "string",
          "name": "_validatorAddr",
          "type": "string"
        },
        {
          "internalType": "uint256",
          "name": "_amount",
          "type": "uint256"
        },
        {
          "internalType": "uint256",
          "name": "_creationHeight",
          "type": "uint256"
        }
      ],
      "name": "testCancelUnbonding",
      "outputs": [],
      "stateMutability": "nonpayable",
      "type": "function"
    },
    {
      "inputs": [
        {
          "components": [
            {
              "internalType": "string",
              "name": "moniker",
              "type": "string"
            },
            {
              "internalType": "string",
              "name": "identity",
              "type": "string"
            },
            {
              "internalType": "string",
              "name": "website",
              "type": "string"
            },
            {
              "internalType": "string",
              "name": "securityContact",
              "type": "string"
            },
            {
              "internalType": "string",
              "name": "details",
              "type": "string"
            }
          ],
          "internalType": "struct Description",
          "name": "_descr",
          "type": "tuple"
        },
        {
          "components": [
            {
              "internalType": "uint256",
              "name": "rate",
              "type": "uint256"
            },
            {
              "internalType": "uint256",
              "name": "maxRate",
              "type": "uint256"
            },
            {
              "internalType": "uint256",
              "name": "maxChangeRate",
              "type": "uint256"
            }
          ],
          "internalType": "struct CommissionRates",
          "name": "_commRates",
          "type": "tuple"
        },
        {
          "internalType": "uint256",
          "name": "_minSelfDel",
          "type": "uint256"
        },
        {
          "internalType": "address",
          "name": "_valAddr",
          "type": "address"
        },
        {
          "internalType": "string",
          "name": "_pubkey",
          "type": "string"
        },
        {
          "internalType": "uint256",
          "name": "_value",
          "type": "uint256"
        }
      ],
      "name": "testCreateValidator",
      "outputs": [
        {
          "internalType": "bool",
          "name": "",
          "type": "bool"
        }
      ],
      "stateMutability": "nonpayable",
      "type": "function"
    },
    {
      "inputs": [
        {
          "internalType": "string",
          "name": "_validatorAddr",
          "type": "string"
        }
      ],
      "name": "testDelegate",
      "outputs": [],
      "stateMutability": "payable",
      "type": "function"
    },
    {
      "inputs": [
        {
          "internalType": "string",
          "name": "_validatorAddr",
          "type": "string"
        }
      ],
      "name": "testDelegateAndFailCustomLogic",
      "outputs": [],
      "stateMutability": "payable",
      "type": "function"
    },
    {
      "inputs": [
        {
          "internalType": "string",
          "name": "_validatorAddr",
          "type": "string"
        }
      ],
      "name": "testDelegateIncrementCounter",
      "outputs": [],
      "stateMutability": "payable",
      "type": "function"
    },
    {
      "inputs": [
        {
          "components": [
            {
              "internalType": "string",
              "name": "moniker",
              "type": "string"
            },
            {
              "internalType": "string",
              "name": "identity",
              "type": "string"
            },
            {
              "internalType": "string",
              "name": "website",
              "type": "string"
            },
            {
              "internalType": "string",
              "name": "securityContact",
              "type": "string"
            },
            {
              "internalType": "string",
              "name": "details",
              "type": "string"
            }
          ],
          "internalType": "struct Description",
          "name": "_descr",
          "type": "tuple"
        },
        {
          "internalType": "address",
          "name": "_valAddr",
          "type": "address"
        },
        {
          "internalType": "int256",
          "name": "_commRate",
          "type": "int256"
        },
        {
          "internalType": "int256",
          "name": "_minSelfDel",
          "type": "int256"
        }
      ],
      "name": "testEditValidator",
      "outputs": [
        {
          "internalType": "bool",
          "name": "",
          "type": "bool"
        }
      ],
      "stateMutability": "nonpayable",
      "type": "function"
    },
    {
      "inputs": [
        {
          "internalType": "string",
          "name": "_validatorSrcAddr",
          "type": "string"
        },
        {
          "internalType": "string",
          "name": "_validatorDstAddr",
          "type": "string"
        },
        {
          "internalType": "uint256",
          "name": "_amount",
          "type": "uint256"
        }
      ],
      "name": "testRedelegate",
      "outputs": [],
      "stateMutability": "nonpayable",
      "type": "function"
    },
    {
      "inputs": [
        {
          "internalType": "string",
          "name": "_validatorAddr",
          "type": "string"
        },
        {
          "internalType": "uint256",
          "name": "_amount",
          "type": "uint256"
        }
      ],
      "name": "testUndelegate",
      "outputs": [],
      "stateMutability": "nonpayable",
      "type": "function"
    },
    {
      "inputs": [
        {
          "internalType": "address",
          "name": "",
          "type": "address"
        },
        {
          "internalType": "uint256",
          "name": "",
          "type": "uint256"
        }
      ],
      "name": "unbondingDelegations",
      "outputs": [
        {
          "internalType": "string",
          "name": "validator",
          "type": "string"
        },
        {
          "internalType": "uint256",
          "name": "amount",
          "type": "uint256"
        },
        {
          "internalType": "uint256",
          "name": "creationHeight",
          "type": "uint256"
        },
        {
          "internalType": "int64",
          "name": "completionTime",
          "type": "int64"
        }
      ],
      "stateMutability": "view",
      "type": "function"
    }
  ],
  "bytecode": "0x60806040526040518060200160405280604051806060016040528060238152602001620063d16023913981525060039060016200003e92919062000053565b503480156200004c57600080fd5b50620004a1565b828054828255906000526020600020908101928215620000a0579160200282015b828111156200009f5782518290816200008e9190620003ba565b509160200191906001019062000074565b5b509050620000af9190620000b3565b5090565b5b80821115620000d75760008181620000cd9190620000db565b50600101620000b4565b5090565b508054620000e990620001a9565b6000825580601f10620000fd57506200011e565b601f0160209004906000526020600020908101906200011d919062000121565b5b50565b5b808211156200013c57600081600090555060010162000122565b5090565b600081519050919050565b7f4e487b7100000000000000000000000000000000000000000000000000000000600052604160045260246000fd5b7f4e487b7100000000000000000000000000000000000000000000000000000000600052602260045260246000fd5b60006002820490506001821680620001c257607f821691505b602082108103620001d857620001d76200017a565b5b50919050565b60008190508160005260206000209050919050565b60006020601f8301049050919050565b600082821b905092915050565b600060088302620002427fffffffffffffffffffffffffffffffffffffffffffffffffffffffffffffffff8262000203565b6200024e868362000203565b95508019841693508086168417925050509392505050565b6000819050919050565b6000819050919050565b60006200029b620002956200028f8462000266565b62000270565b62000266565b9050919050565b6000819050919050565b620002b7836200027a565b620002cf620002c682620002a2565b84845462000210565b825550505050565b600090565b620002e6620002d7565b620002f3818484620002ac565b505050565b5b818110156200031b576200030f600082620002dc565b600181019050620002f9565b5050565b601f8211156200036a576200033481620001de565b6200033f84620001f3565b810160208510156200034f578190505b620003676200035e85620001f3565b830182620002f8565b50505b505050565b600082821c905092915050565b60006200038f600019846008026200036f565b1980831691505092915050565b6000620003aa83836200037c565b9150826002028217905092915050565b620003c58262000140565b67ffffffffffffffff811115620003e157620003e06200014b565b5b620003ed8254620001a9565b620003fa8282856200031f565b600060209050601f8311600181146200043257600084156200041d578287015190505b6200042985826200039c565b86555062000499565b601f1984166200044286620001de565b60005b828110156200046c5784890151825560018201915060208501945060208101905062000445565b868310156200048c578489015162000488601f8916826200037c565b8355505b6001600288020188555050505b505050505050565b615f2080620004b16000396000f3fe60806040526004361061011f5760003560e01c806361bc221a116100a0578063b3e9823411610064578063b3e982341461040b578063b61b519714610434578063cf2753cf14610450578063ddbaf2c21461048e578063f732b065146104cb5761011f565b806361bc221a146102ff57806368ac3df31461032a578063a4603a2e14610367578063af9a90b214610390578063b13d4242146103cd5761011f565b806331bcbcb3116100e757806331bcbcb314610231578063455b85511461024d578063464d2d031461028a578063569c21e3146102a6578063570467ac146102c25761011f565b8063088b32b1146101245780631904bb2e1461016457806319b16c4c146101a15780632345e7d4146101df57806329e71c8214610208575b600080fd5b34801561013057600080fd5b5061014b60048036038101906101469190612693565b610509565b60405161015b949392919061278e565b60405180910390f35b34801561017057600080fd5b5061018b600480360381019061018691906127da565b6105eb565b60405161019891906129fe565b60405180910390f35b3480156101ad57600080fd5b506101c860048036038101906101c39190612b55565b61067b565b6040516101d6929190612c1d565b60405180910390f35b3480156101eb57600080fd5b5061020660048036038101906102019190612c4d565b610b7a565b005b34801561021457600080fd5b5061022f600480360381019061022a9190612cd8565b610fdd565b005b61024b60048036038101906102469190612d34565b6110cb565b005b34801561025957600080fd5b50610274600480360381019061026f9190612da3565b6112e4565b6040516102819190612faa565b60405180910390f35b6102a4600480360381019061029f9190612fcc565b611377565b005b6102c060048036038101906102bb9190612fcc565b61149b565b005b3480156102ce57600080fd5b506102e960048036038101906102e49190612b55565b611578565b6040516102f69190613191565b60405180910390f35b34801561030b57600080fd5b5061031461160e565b60405161032191906131b3565b60405180910390f35b34801561033657600080fd5b50610351600480360381019061034c9190613211565b611614565b60405161035e91906132e6565b60405180910390f35b34801561037357600080fd5b5061038e60048036038101906103899190613301565b6116aa565b005b34801561039c57600080fd5b506103b760048036038101906103b291906133a6565b611794565b6040516103c491906132e6565b60405180910390f35b3480156103d957600080fd5b506103f460048036038101906103ef9190613448565b611824565b604051610402929190613711565b60405180910390f35b34801561041757600080fd5b50610432600480360381019061042d9190613748565b6118bc565b005b61044e60048036038101906104499190612fcc565b6119b0565b005b34801561045c57600080fd5b5061047760048036038101906104729190612da3565b611aa7565b604051610485929190612c1d565b60405180910390f35b34801561049a57600080fd5b506104b560048036038101906104b09190612da3565b611b3f565b6040516104c291906131b3565b60405180910390f35b3480156104d757600080fd5b506104f260048036038101906104ed919061397e565b611b7a565b604051610500929190613c95565b60405180910390f35b6001602052816000526040600020818154811061052557600080fd5b90600052602060002090600402016000915091505080600001805461054990613cfb565b80601f016020809104026020016040519081016040528092919081815260200182805461057590613cfb565b80156105c25780601f10610597576101008083540402835291602001916105c2565b820191906000526020600020905b8154815290600101906020018083116105a557829003601f168201915b5050505050908060010154908060020154908060030160009054906101000a900460070b905084565b6105f3612493565b61080073ffffffffffffffffffffffffffffffffffffffff1663223b3b7a836040518263ffffffff1660e01b815260040161062e9190613d3b565b600060405180830381865afa15801561064b573d6000803e3d6000fd5b505050506040513d6000823e3d601f19601f820116820180604052508101906106749190613fa1565b9050919050565b6000610685612507565b60006108009050600086866040516024016106a1929190613fea565b6040516020818303038152906040527f241774e6000000000000000000000000000000000000000000000000000000007bffffffffffffffffffffffffffffffffffffffffffffffffffffffff19166020820180517bffffffffffffffffffffffffffffffffffffffffffffffffffffffff838183161783525050505090506000856040516020016107339190614056565b60405160208183030381529060405280519060200120905060405160200161075a906140b9565b604051602081830303815290604052805190602001208103610846576000808473ffffffffffffffffffffffffffffffffffffffff168460405161079e919061410a565b600060405180830381855af49150503d80600081146107d9576040519150601f19603f3d011682016040523d82523d6000602084013e6107de565b606091505b509150915081610823576040517f08c379a000000000000000000000000000000000000000000000000000000000815260040161081a90614193565b60405180910390fd5b80806020019051810190610837919061421f565b80975081985050505050610b6f565b604051602001610855906142c7565b604051602081830303815290604052805190602001208103610941576000808473ffffffffffffffffffffffffffffffffffffffff1684604051610899919061410a565b600060405180830381855afa9150503d80600081146108d4576040519150601f19603f3d011682016040523d82523d6000602084013e6108d9565b606091505b50915091508161091e576040517f08c379a000000000000000000000000000000000000000000000000000000000815260040161091590614328565b60405180910390fd5b80806020019051810190610932919061421f565b80975081985050505050610b6e565b60405160200161095090614394565b604051602081830303815290604052805190602001208103610a3e576000808473ffffffffffffffffffffffffffffffffffffffff1684604051610994919061410a565b6000604051808303816000865af19150503d80600081146109d1576040519150601f19603f3d011682016040523d82523d6000602084013e6109d6565b606091505b509150915081610a1b576040517f08c379a0000000000000000000000000000000000000000000000000000000008152600401610a12906143f5565b60405180910390fd5b80806020019051810190610a2f919061421f565b80975081985050505050610b6d565b604051602001610a4d90614461565b604051602081830303815290604052805190602001208103610b315760006040518060400160405280601a81526020017f64656c65676174696f6e28616464726573732c737472696e6729000000000000815250805190602001209050600060a490506060600060208b01516020808d0101516040518681528e6004820152604060248201526033604482015282606482015281608482015260c081878360008e5af281519c5060608201519450610100820160405280610b0d57600080fd5b50505050604051806040016040528083815260200182815250975050505050610b6c565b6040517f08c379a0000000000000000000000000000000000000000000000000000000008152600401610b63906144c2565b60405180910390fd5b5b5b5b505050935093915050565b610b82611c18565b600061080090506000308585604051602401610ba0939291906144e2565b6040516020818303038152906040527f3edab33c000000000000000000000000000000000000000000000000000000007bffffffffffffffffffffffffffffffffffffffffffffffffffffffff19166020820180517bffffffffffffffffffffffffffffffffffffffffffffffffffffffff83818316178352505050509050600083604051602001610c329190614056565b6040516020818303038152906040528051906020012090506000621baf8042610c5b919061454f565b9050604051602001610c6c906140b9565b604051602081830303815290604052805190602001208203610d52576000808573ffffffffffffffffffffffffffffffffffffffff1685604051610cb0919061410a565b600060405180830381855af49150503d8060008114610ceb576040519150601f19603f3d011682016040523d82523d6000602084013e610cf0565b606091505b509150915081610d35576040517f08c379a0000000000000000000000000000000000000000000000000000000008152600401610d2c90614193565b60405180910390fd5b80806020019051810190610d499190614583565b92505050610fc9565b604051602001610d61906142c7565b604051602081830303815290604052805190602001208203610e47576000808573ffffffffffffffffffffffffffffffffffffffff1685604051610da5919061410a565b600060405180830381855afa9150503d8060008114610de0576040519150601f19603f3d011682016040523d82523d6000602084013e610de5565b606091505b509150915081610e2a576040517f08c379a0000000000000000000000000000000000000000000000000000000008152600401610e2190614328565b60405180910390fd5b80806020019051810190610e3e9190614583565b92505050610fc8565b604051602001610e5690614394565b604051602081830303815290604052805190602001208203610f3e576000808573ffffffffffffffffffffffffffffffffffffffff1685604051610e9a919061410a565b6000604051808303816000865af19150503d8060008114610ed7576040519150601f19603f3d011682016040523d82523d6000602084013e610edc565b606091505b509150915081610f21576040517f08c379a0000000000000000000000000000000000000000000000000000000008152600401610f18906143f5565b60405180910390fd5b80806020019051810190610f359190614583565b92505050610fc7565b604051602001610f4d90614461565b604051602081830303815290604052805190602001208203610f8b57602083018351600080828460008a5af280610f8357600080fd5b505050610fc6565b6040517f08c379a0000000000000000000000000000000000000000000000000000000008152600401610fbd906144c2565b60405180910390fd5b5b5b5b610fd4878783611e10565b50505050505050565b610fe78282611eff565b610fef611c18565b600061080073ffffffffffffffffffffffffffffffffffffffff16633edab33c3085856040518463ffffffff1660e01b8152600401611030939291906144e2565b6020604051808303816000875af115801561104f573d6000803e3d6000fd5b505050506040513d601f19601f820116820180604052508101906110739190614583565b905060008160070b136110bb576040517f08c379a00000000000000000000000000000000000000000000000000000000081526004016110b2906145fc565b60405180910390fd5b6110c6838383611e10565b505050565b6110d3611c18565b60008373ffffffffffffffffffffffffffffffffffffffff1633836040516024016110ff92919061461c565b6040516020818303038152906040527fa9059cbb000000000000000000000000000000000000000000000000000000007bffffffffffffffffffffffffffffffffffffffffffffffffffffffff19166020820180517bffffffffffffffffffffffffffffffffffffffffffffffffffffffff8381831617835250505050604051611189919061410a565b6000604051808303816000865af19150503d80600081146111c6576040519150601f19603f3d011682016040523d82523d6000602084013e6111cb565b606091505b505090508061120f576040517f08c379a000000000000000000000000000000000000000000000000000000000815260040161120690614691565b60405180910390fd5b61080073ffffffffffffffffffffffffffffffffffffffff166353266bbb3085346040518463ffffffff1660e01b815260040161124e939291906144e2565b6020604051808303816000875af115801561126d573d6000803e3d6000fd5b505050506040513d601f19601f8201168201806040525081019061129191906146b1565b9050806112d3576040517f08c379a00000000000000000000000000000000000000000000000000000000081526004016112ca9061472a565b60405180910390fd5b6112de338434611fa0565b50505050565b6112ec612521565b61080073ffffffffffffffffffffffffffffffffffffffff1663a03ffee184846040518363ffffffff1660e01b8152600401611329929190613fea565b600060405180830381865afa158015611346573d6000803e3d6000fd5b505050506040513d6000823e3d601f19601f8201168201806040525081019061136f919061497f565b905092915050565b61137f611c18565b600061080073ffffffffffffffffffffffffffffffffffffffff166353266bbb3084346040518463ffffffff1660e01b81526004016113c0939291906144e2565b6020604051808303816000875af11580156113df573d6000803e3d6000fd5b505050506040513d601f19601f8201168201806040525081019061140391906146b1565b905080611445576040517f08c379a000000000000000000000000000000000000000000000000000000000815260040161143c9061472a565b60405180910390fd5b611450338334611fa0565b3373ffffffffffffffffffffffffffffffffffffffff166108fc349081150290604051600060405180830381858888f19350505050158015611496573d6000803e3d6000fd5b505050565b6114a3611c18565b600061080073ffffffffffffffffffffffffffffffffffffffff166353266bbb3084346040518463ffffffff1660e01b81526004016114e4939291906144e2565b6020604051808303816000875af1158015611503573d6000803e3d6000fd5b505050506040513d601f19601f8201168201806040525081019061152791906146b1565b905080611569576040517f08c379a00000000000000000000000000000000000000000000000000000000081526004016115609061472a565b60405180910390fd5b611574338334611fa0565b5050565b611580612542565b61080073ffffffffffffffffffffffffffffffffffffffff16637d9f939c8585856040518463ffffffff1660e01b81526004016115bf939291906149c8565b600060405180830381865afa1580156115dc573d6000803e3d6000fd5b505050506040513d6000823e3d601f19601f820116820180604052508101906116059190614c30565b90509392505050565b60025481565b600061080073ffffffffffffffffffffffffffffffffffffffff1663f7cd55168888888888886040518763ffffffff1660e01b815260040161165b96959493929190614e4d565b6020604051808303816000875af115801561167a573d6000803e3d6000fd5b505050506040513d601f19601f8201168201806040525081019061169e91906146b1565b90509695505050505050565b6116b2611c18565b6116bc3384612016565b600061080073ffffffffffffffffffffffffffffffffffffffff166312d58dfe308686866040518563ffffffff1660e01b81526004016116ff9493929190614ebd565b6020604051808303816000875af115801561171e573d6000803e3d6000fd5b505050506040513d601f19601f8201168201806040525081019061174291906146b1565b905080611784576040517f08c379a000000000000000000000000000000000000000000000000000000000815260040161177b90614f55565b60405180910390fd5b61178e82846121f0565b50505050565b600061080073ffffffffffffffffffffffffffffffffffffffff1663a50f05ac868686866040518563ffffffff1660e01b81526004016117d79493929190614f84565b6020604051808303816000875af11580156117f6573d6000803e3d6000fd5b505050506040513d601f19601f8201168201806040525081019061181a91906146b1565b9050949350505050565b606061182e61256a565b61080073ffffffffffffffffffffffffffffffffffffffff1663186b216785856040518363ffffffff1660e01b815260040161186b92919061512e565b600060405180830381865afa158015611888573d6000803e3d6000fd5b505050506040513d6000823e3d601f19601f820116820180604052508101906118b19190615322565b915091509250929050565b6118c68382611eff565b600061080073ffffffffffffffffffffffffffffffffffffffff166354b826f5308686866040518563ffffffff1660e01b8152600401611909949392919061539a565b6020604051808303816000875af1158015611928573d6000803e3d6000fd5b505050506040513d601f19601f8201168201806040525081019061194c9190614583565b905060008160070b13611994576040517f08c379a000000000000000000000000000000000000000000000000000000000815260040161198b90615439565b60405180910390fd5b61199f338584612365565b6119aa338484611fa0565b50505050565b6119b8611c18565b600061080073ffffffffffffffffffffffffffffffffffffffff166353266bbb3084346040518463ffffffff1660e01b81526004016119f9939291906144e2565b6020604051808303816000875af1158015611a18573d6000803e3d6000fd5b505050506040513d601f19601f82011682018060405250810190611a3c91906146b1565b905080611a7e576040517f08c379a0000000000000000000000000000000000000000000000000000000008152600401611a759061472a565b60405180910390fd5b611a89338334611fa0565b600160026000828254611a9c919061454f565b925050819055505050565b6000611ab1612507565b61080073ffffffffffffffffffffffffffffffffffffffff1663241774e685856040518363ffffffff1660e01b8152600401611aee929190613fea565b600060405180830381865afa158015611b0b573d6000803e3d6000fd5b505050506040513d6000823e3d601f19601f82011682018060405250810190611b34919061421f565b915091509250929050565b600060205281600052604060002081805160208101820180518482526020830160208501208183528095505050505050600091509150505481565b6060611b8461256a565b61080073ffffffffffffffffffffffffffffffffffffffff166310a2851c878787876040518563ffffffff1660e01b8152600401611bc594939291906154cf565b600060405180830381865afa158015611be2573d6000803e3d6000fd5b505050506040513d6000823e3d601f19601f82011682018060405250810190611c0b919061588d565b9150915094509492505050565b60005b600160003373ffffffffffffffffffffffffffffffffffffffff1673ffffffffffffffffffffffffffffffffffffffff16815260200190815260200160002080549050811015611e0d576000600160003373ffffffffffffffffffffffffffffffffffffffff1673ffffffffffffffffffffffffffffffffffffffff1681526020019081526020016000208281548110611cb857611cb7615905565b5b90600052602060002090600402019050428160030160009054906101000a900460070b60070b11611df957600160003373ffffffffffffffffffffffffffffffffffffffff1673ffffffffffffffffffffffffffffffffffffffff1681526020019081526020016000208281548110611d3457611d33615905565b5b906000526020600020906004020160008082016000611d53919061258e565b600182016000905560028201600090556003820160006101000a81549067ffffffffffffffff0219169055505080600101546000803373ffffffffffffffffffffffffffffffffffffffff1673ffffffffffffffffffffffffffffffffffffffff16815260200190815260200160002082600001604051611dd491906159cc565b90815260200160405180910390206000828254611df191906159e3565b925050819055505b508080611e0590615a17565b915050611c1b565b50565b600160003373ffffffffffffffffffffffffffffffffffffffff1673ffffffffffffffffffffffffffffffffffffffff16815260200190815260200160002060405180608001604052808581526020018481526020014381526020018360070b81525090806001815401808255809150506001900390600052602060002090600402016000909190919091506000820151816000019081611eb19190615bf6565b50602082015181600101556040820151816002015560608201518160030160006101000a81548167ffffffffffffffff021916908360070b67ffffffffffffffff1602179055505050505050565b806000803373ffffffffffffffffffffffffffffffffffffffff1673ffffffffffffffffffffffffffffffffffffffff16815260200190815260200160002083604051611f4c9190614056565b9081526020016040518091039020541015611f9c576040517f08c379a0000000000000000000000000000000000000000000000000000000008152600401611f9390615d3a565b60405180910390fd5b5050565b806000808573ffffffffffffffffffffffffffffffffffffffff1673ffffffffffffffffffffffffffffffffffffffff16815260200190815260200160002083604051611fed9190614056565b9081526020016040518091039020600082825461200a919061454f565b92505081905550505050565b600080600090505b600160008573ffffffffffffffffffffffffffffffffffffffff1673ffffffffffffffffffffffffffffffffffffffff168152602001908152602001600020805490508110156121a3576000600160008673ffffffffffffffffffffffffffffffffffffffff1673ffffffffffffffffffffffffffffffffffffffff16815260200190815260200160002082815481106120bb576120ba615905565b5b906000526020600020906004020190506121618160000180546120dd90613cfb565b80601f016020809104026020016040519081016040528092919081815260200182805461210990613cfb565b80156121565780601f1061212b57610100808354040283529160200191612156565b820191906000526020600020905b81548152906001019060200180831161213957829003601f168201915b505050505085612478565b80156121805750428160030160009054906101000a900460070b60070b115b1561218f5760019250506121a3565b50808061219b90615a17565b91505061201e565b5060011515811515146121eb576040517f08c379a00000000000000000000000000000000000000000000000000000000081526004016121e290615dcc565b60405180910390fd5b505050565b6000600160003373ffffffffffffffffffffffffffffffffffffffff1673ffffffffffffffffffffffffffffffffffffffff168152602001908152602001600020905060005b818054905081101561235f57600082828154811061225757612256615905565b5b9060005260206000209060040201905084816002015414612278575061234c565b83816001015410156122bf576040517f08c379a00000000000000000000000000000000000000000000000000000000081526004016122b690615e5e565b60405180910390fd5b838160010160008282546122d391906159e3565b925050819055506000816001015403612346578282815481106122f9576122f8615905565b5b906000526020600020906004020160008082016000612318919061258e565b600182016000905560028201600090556003820160006101000a81549067ffffffffffffffff021916905550505b5061235f565b808061235790615a17565b915050612236565b50505050565b806000808573ffffffffffffffffffffffffffffffffffffffff1673ffffffffffffffffffffffffffffffffffffffff168152602001908152602001600020836040516123b29190614056565b9081526020016040518091039020541015612402576040517f08c379a00000000000000000000000000000000000000000000000000000000081526004016123f990615eca565b60405180910390fd5b806000808573ffffffffffffffffffffffffffffffffffffffff1673ffffffffffffffffffffffffffffffffffffffff1681526020019081526020016000208360405161244f9190614056565b9081526020016040518091039020600082825461246c91906159e3565b92505081905550505050565b60008180519060200120838051906020012014905092915050565b6040518061016001604052806060815260200160608152602001600015158152602001600060038111156124ca576124c961286c565b5b8152602001600081526020016000815260200160608152602001600060070b8152602001600060070b815260200160008152602001600081525090565b604051806040016040528060608152602001600081525090565b60405180606001604052806060815260200160608152602001606081525090565b6040518060800160405280606081526020016060815260200160608152602001606081525090565b604051806040016040528060608152602001600067ffffffffffffffff1681525090565b50805461259a90613cfb565b6000825580601f106125ac57506125cb565b601f0160209004906000526020600020908101906125ca91906125ce565b5b50565b5b808211156125e75760008160009055506001016125cf565b5090565b6000604051905090565b600080fd5b600080fd5b600073ffffffffffffffffffffffffffffffffffffffff82169050919050565b600061262a826125ff565b9050919050565b61263a8161261f565b811461264557600080fd5b50565b60008135905061265781612631565b92915050565b6000819050919050565b6126708161265d565b811461267b57600080fd5b50565b60008135905061268d81612667565b92915050565b600080604083850312156126aa576126a96125f5565b5b60006126b885828601612648565b92505060206126c98582860161267e565b9150509250929050565b600081519050919050565b600082825260208201905092915050565b60005b8381101561270d5780820151818401526020810190506126f2565b60008484015250505050565b6000601f19601f8301169050919050565b6000612735826126d3565b61273f81856126de565b935061274f8185602086016126ef565b61275881612719565b840191505092915050565b61276c8161265d565b82525050565b60008160070b9050919050565b61278881612772565b82525050565b600060808201905081810360008301526127a8818761272a565b90506127b76020830186612763565b6127c46040830185612763565b6127d1606083018461277f565b95945050505050565b6000602082840312156127f0576127ef6125f5565b5b60006127fe84828501612648565b91505092915050565b600082825260208201905092915050565b6000612823826126d3565b61282d8185612807565b935061283d8185602086016126ef565b61284681612719565b840191505092915050565b60008115159050919050565b61286681612851565b82525050565b7f4e487b7100000000000000000000000000000000000000000000000000000000600052602160045260246000fd5b600481106128ac576128ab61286c565b5b50565b60008190506128bd8261289b565b919050565b60006128cd826128af565b9050919050565b6128dd816128c2565b82525050565b6128ec8161265d565b82525050565b6128fb81612772565b82525050565b600061016083016000830151848203600086015261291f8282612818565b915050602083015184820360208601526129398282612818565b915050604083015161294e604086018261285d565b50606083015161296160608601826128d4565b50608083015161297460808601826128e3565b5060a083015161298760a08601826128e3565b5060c083015184820360c086015261299f8282612818565b91505060e08301516129b460e08601826128f2565b506101008301516129c96101008601826128f2565b506101208301516129de6101208601826128e3565b506101408301516129f36101408601826128e3565b508091505092915050565b60006020820190508181036000830152612a188184612901565b905092915050565b600080fd5b600080fd5b7f4e487b7100000000000000000000000000000000000000000000000000000000600052604160045260246000fd5b612a6282612719565b810181811067ffffffffffffffff82111715612a8157612a80612a2a565b5b80604052505050565b6000612a946125eb565b9050612aa08282612a59565b919050565b600067ffffffffffffffff821115612ac057612abf612a2a565b5b612ac982612719565b9050602081019050919050565b82818337600083830152505050565b6000612af8612af384612aa5565b612a8a565b905082815260208101848484011115612b1457612b13612a25565b5b612b1f848285612ad6565b509392505050565b600082601f830112612b3c57612b3b612a20565b5b8135612b4c848260208601612ae5565b91505092915050565b600080600060608486031215612b6e57612b6d6125f5565b5b6000612b7c86828701612648565b935050602084013567ffffffffffffffff811115612b9d57612b9c6125fa565b5b612ba986828701612b27565b925050604084013567ffffffffffffffff811115612bca57612bc96125fa565b5b612bd686828701612b27565b9150509250925092565b60006040830160008301518482036000860152612bfd8282612818565b9150506020830151612c1260208601826128e3565b508091505092915050565b6000604082019050612c326000830185612763565b8181036020830152612c448184612be0565b90509392505050565b600080600060608486031215612c6657612c656125f5565b5b600084013567ffffffffffffffff811115612c8457612c836125fa565b5b612c9086828701612b27565b9350506020612ca18682870161267e565b925050604084013567ffffffffffffffff811115612cc257612cc16125fa565b5b612cce86828701612b27565b9150509250925092565b60008060408385031215612cef57612cee6125f5565b5b600083013567ffffffffffffffff811115612d0d57612d0c6125fa565b5b612d1985828601612b27565b9250506020612d2a8582860161267e565b9150509250929050565b600080600060608486031215612d4d57612d4c6125f5565b5b6000612d5b86828701612648565b935050602084013567ffffffffffffffff811115612d7c57612d7b6125fa565b5b612d8886828701612b27565b9250506040612d998682870161267e565b9150509250925092565b60008060408385031215612dba57612db96125f5565b5b6000612dc885828601612648565b925050602083013567ffffffffffffffff811115612de957612de86125fa565b5b612df585828601612b27565b9150509250929050565b600081519050919050565b600082825260208201905092915050565b6000819050602082019050919050565b600067ffffffffffffffff82169050919050565b612e4881612e2b565b82525050565b60c082016000820151612e6460008501826128f2565b506020820151612e7760208501826128f2565b506040820151612e8a60408501826128e3565b506060820151612e9d60608501826128e3565b506080820151612eb06080850182612e3f565b5060a0820151612ec360a08501826128f2565b50505050565b6000612ed58383612e4e565b60c08301905092915050565b6000602082019050919050565b6000612ef982612dff565b612f038185612e0a565b9350612f0e83612e1b565b8060005b83811015612f3f578151612f268882612ec9565b9750612f3183612ee1565b925050600181019050612f12565b5085935050505092915050565b60006060830160008301518482036000860152612f698282612818565b91505060208301518482036020860152612f838282612818565b91505060408301518482036040860152612f9d8282612eee565b9150508091505092915050565b60006020820190508181036000830152612fc48184612f4c565b905092915050565b600060208284031215612fe257612fe16125f5565b5b600082013567ffffffffffffffff81111561300057612fff6125fa565b5b61300c84828501612b27565b91505092915050565b600081519050919050565b600082825260208201905092915050565b6000819050602082019050919050565b60808201600082015161305760008501826128f2565b50602082015161306a60208501826128f2565b50604082015161307d60408501826128e3565b50606082015161309060608501826128e3565b50505050565b60006130a28383613041565b60808301905092915050565b6000602082019050919050565b60006130c682613015565b6130d08185613020565b93506130db83613031565b8060005b8381101561310c5781516130f38882613096565b97506130fe836130ae565b9250506001810190506130df565b5085935050505092915050565b600060808301600083015184820360008601526131368282612818565b915050602083015184820360208601526131508282612818565b9150506040830151848203604086015261316a8282612818565b9150506060830151848203606086015261318482826130bb565b9150508091505092915050565b600060208201905081810360008301526131ab8184613119565b905092915050565b60006020820190506131c86000830184612763565b92915050565b600080fd5b600060a082840312156131e9576131e86131ce565b5b81905092915050565b600060608284031215613208576132076131ce565b5b81905092915050565b600080600080600080610100878903121561322f5761322e6125f5565b5b600087013567ffffffffffffffff81111561324d5761324c6125fa565b5b61325989828a016131d3565b965050602061326a89828a016131f2565b955050608061327b89828a0161267e565b94505060a061328c89828a01612648565b93505060c087013567ffffffffffffffff8111156132ad576132ac6125fa565b5b6132b989828a01612b27565b92505060e06132ca89828a0161267e565b9150509295509295509295565b6132e081612851565b82525050565b60006020820190506132fb60008301846132d7565b92915050565b60008060006060848603121561331a576133196125f5565b5b600084013567ffffffffffffffff811115613338576133376125fa565b5b61334486828701612b27565b93505060206133558682870161267e565b92505060406133668682870161267e565b9150509250925092565b6000819050919050565b61338381613370565b811461338e57600080fd5b50565b6000813590506133a08161337a565b92915050565b600080600080608085870312156133c0576133bf6125f5565b5b600085013567ffffffffffffffff8111156133de576133dd6125fa565b5b6133ea878288016131d3565b94505060206133fb87828801612648565b935050604061340c87828801613391565b925050606061341d87828801613391565b91505092959194509250565b600060a0828403121561343f5761343e6131ce565b5b81905092915050565b6000806040838503121561345f5761345e6125f5565b5b600083013567ffffffffffffffff81111561347d5761347c6125fa565b5b61348985828601612b27565b925050602083013567ffffffffffffffff8111156134aa576134a96125fa565b5b6134b685828601613429565b9150509250929050565b600081519050919050565b600082825260208201905092915050565b6000819050602082019050919050565b600061016083016000830151848203600086015261350a8282612818565b915050602083015184820360208601526135248282612818565b9150506040830151613539604086018261285d565b50606083015161354c60608601826128d4565b50608083015161355f60808601826128e3565b5060a083015161357260a08601826128e3565b5060c083015184820360c086015261358a8282612818565b91505060e083015161359f60e08601826128f2565b506101008301516135b46101008601826128f2565b506101208301516135c96101208601826128e3565b506101408301516135de6101408601826128e3565b508091505092915050565b60006135f583836134ec565b905092915050565b6000602082019050919050565b6000613615826134c0565b61361f81856134cb565b935083602082028501613631856134dc565b8060005b8581101561366d578484038952815161364e85826135e9565b9450613659836135fd565b925060208a01995050600181019050613635565b50829750879550505050505092915050565b600081519050919050565b600082825260208201905092915050565b60006136a68261367f565b6136b0818561368a565b93506136c08185602086016126ef565b6136c981612719565b840191505092915050565b600060408301600083015184820360008601526136f1828261369b565b91505060208301516137066020860182612e3f565b508091505092915050565b6000604082019050818103600083015261372b818561360a565b9050818103602083015261373f81846136d4565b90509392505050565b600080600060608486031215613761576137606125f5565b5b600084013567ffffffffffffffff81111561377f5761377e6125fa565b5b61378b86828701612b27565b935050602084013567ffffffffffffffff8111156137ac576137ab6125fa565b5b6137b886828701612b27565b92505060406137c98682870161267e565b9150509250925092565b600080fd5b600080fd5b600067ffffffffffffffff8211156137f8576137f7612a2a565b5b61380182612719565b9050602081019050919050565b600061382161381c846137dd565b612a8a565b90508281526020810184848401111561383d5761383c612a25565b5b613848848285612ad6565b509392505050565b600082601f83011261386557613864612a20565b5b813561387584826020860161380e565b91505092915050565b61388781612e2b565b811461389257600080fd5b50565b6000813590506138a48161387e565b92915050565b6138b381612851565b81146138be57600080fd5b50565b6000813590506138d0816138aa565b92915050565b600060a082840312156138ec576138eb6137d3565b5b6138f660a0612a8a565b9050600082013567ffffffffffffffff811115613916576139156137d8565b5b61392284828501613850565b600083015250602061393684828501613895565b602083015250604061394a84828501613895565b604083015250606061395e848285016138c1565b6060830152506080613972848285016138c1565b60808301525092915050565b60008060008060808587031215613998576139976125f5565b5b60006139a687828801612648565b945050602085013567ffffffffffffffff8111156139c7576139c66125fa565b5b6139d387828801612b27565b935050604085013567ffffffffffffffff8111156139f4576139f36125fa565b5b613a0087828801612b27565b925050606085013567ffffffffffffffff811115613a2157613a206125fa565b5b613a2d878288016138d6565b91505092959194509250565b600081519050919050565b600082825260208201905092915050565b6000819050602082019050919050565b60006080830160008301518482036000860152613a828282612818565b91505060208301518482036020860152613a9c8282612818565b91505060408301518482036040860152613ab68282612818565b91505060608301518482036060860152613ad082826130bb565b9150508091505092915050565b600081519050919050565b600082825260208201905092915050565b6000819050602082019050919050565b60a082016000820151613b1f6000850182613041565b506020820151613b3260808501826128e3565b50505050565b6000613b448383613b09565b60a08301905092915050565b6000602082019050919050565b6000613b6882613add565b613b728185613ae8565b9350613b7d83613af9565b8060005b83811015613bae578151613b958882613b38565b9750613ba083613b50565b925050600181019050613b81565b5085935050505092915050565b60006040830160008301518482036000860152613bd88282613a65565b91505060208301518482036020860152613bf28282613b5d565b9150508091505092915050565b6000613c0b8383613bbb565b905092915050565b6000602082019050919050565b6000613c2b82613a39565b613c358185613a44565b935083602082028501613c4785613a55565b8060005b85811015613c835784840389528151613c648582613bff565b9450613c6f83613c13565b925060208a01995050600181019050613c4b565b50829750879550505050505092915050565b60006040820190508181036000830152613caf8185613c20565b90508181036020830152613cc381846136d4565b90509392505050565b7f4e487b7100000000000000000000000000000000000000000000000000000000600052602260045260246000fd5b60006002820490506001821680613d1357607f821691505b602082108103613d2657613d25613ccc565b5b50919050565b613d358161261f565b82525050565b6000602082019050613d506000830184613d2c565b92915050565b6000613d69613d6484612aa5565b612a8a565b905082815260208101848484011115613d8557613d84612a25565b5b613d908482856126ef565b509392505050565b600082601f830112613dad57613dac612a20565b5b8151613dbd848260208601613d56565b91505092915050565b600081519050613dd5816138aa565b92915050565b60048110613de857600080fd5b50565b600081519050613dfa81613ddb565b92915050565b600081519050613e0f81612667565b92915050565b613e1e81612772565b8114613e2957600080fd5b50565b600081519050613e3b81613e15565b92915050565b60006101608284031215613e5857613e576137d3565b5b613e63610160612a8a565b9050600082015167ffffffffffffffff811115613e8357613e826137d8565b5b613e8f84828501613d98565b600083015250602082015167ffffffffffffffff811115613eb357613eb26137d8565b5b613ebf84828501613d98565b6020830152506040613ed384828501613dc6565b6040830152506060613ee784828501613deb565b6060830152506080613efb84828501613e00565b60808301525060a0613f0f84828501613e00565b60a08301525060c082015167ffffffffffffffff811115613f3357613f326137d8565b5b613f3f84828501613d98565b60c08301525060e0613f5384828501613e2c565b60e083015250610100613f6884828501613e2c565b61010083015250610120613f7e84828501613e00565b61012083015250610140613f9484828501613e00565b6101408301525092915050565b600060208284031215613fb757613fb66125f5565b5b600082015167ffffffffffffffff811115613fd557613fd46125fa565b5b613fe184828501613e41565b91505092915050565b6000604082019050613fff6000830185613d2c565b8181036020830152614011818461272a565b90509392505050565b600081905092915050565b6000614030826126d3565b61403a818561401a565b935061404a8185602086016126ef565b80840191505092915050565b60006140628284614025565b915081905092915050565b7f64656c656761746563616c6c0000000000000000000000000000000000000000600082015250565b60006140a3600c8361401a565b91506140ae8261406d565b600c82019050919050565b60006140c482614096565b9150819050919050565b600081905092915050565b60006140e48261367f565b6140ee81856140ce565b93506140fe8185602086016126ef565b80840191505092915050565b600061411682846140d9565b915081905092915050565b7f6661696c65642064656c656761746563616c6c20746f20707265636f6d70696c60008201527f6500000000000000000000000000000000000000000000000000000000000000602082015250565b600061417d6021836126de565b915061418882614121565b604082019050919050565b600060208201905081810360008301526141ac81614170565b9050919050565b6000604082840312156141c9576141c86137d3565b5b6141d36040612a8a565b9050600082015167ffffffffffffffff8111156141f3576141f26137d8565b5b6141ff84828501613d98565b600083015250602061421384828501613e00565b60208301525092915050565b60008060408385031215614236576142356125f5565b5b600061424485828601613e00565b925050602083015167ffffffffffffffff811115614265576142646125fa565b5b614271858286016141b3565b9150509250929050565b7f73746174696363616c6c00000000000000000000000000000000000000000000600082015250565b60006142b1600a8361401a565b91506142bc8261427b565b600a82019050919050565b60006142d2826142a4565b9150819050919050565b7f6661696c65642073746174696363616c6c20746f20707265636f6d70696c6500600082015250565b6000614312601f836126de565b915061431d826142dc565b602082019050919050565b6000602082019050818103600083015261434181614305565b9050919050565b7f63616c6c00000000000000000000000000000000000000000000000000000000600082015250565b600061437e60048361401a565b915061438982614348565b600482019050919050565b600061439f82614371565b9150819050919050565b7f6661696c65642063616c6c20746f20707265636f6d70696c6500000000000000600082015250565b60006143df6019836126de565b91506143ea826143a9565b602082019050919050565b6000602082019050818103600083015261440e816143d2565b9050919050565b7f63616c6c636f6465000000000000000000000000000000000000000000000000600082015250565b600061444b60088361401a565b915061445682614415565b600882019050919050565b600061446c8261443e565b9150819050919050565b7f696e76616c69642063616c6c7479706500000000000000000000000000000000600082015250565b60006144ac6010836126de565b91506144b782614476565b602082019050919050565b600060208201905081810360008301526144db8161449f565b9050919050565b60006060820190506144f76000830186613d2c565b8181036020830152614509818561272a565b90506145186040830184612763565b949350505050565b7f4e487b7100000000000000000000000000000000000000000000000000000000600052601160045260246000fd5b600061455a8261265d565b91506145658361265d565b925082820190508082111561457d5761457c614520565b5b92915050565b600060208284031215614599576145986125f5565b5b60006145a784828501613e2c565b91505092915050565b7f4661696c656420746f20756e64656c6567617465000000000000000000000000600082015250565b60006145e66014836126de565b91506145f1826145b0565b602082019050919050565b60006020820190508181036000830152614615816145d9565b9050919050565b60006040820190506146316000830185613d2c565b61463e6020830184612763565b9392505050565b7f7472616e73666572206661696c65640000000000000000000000000000000000600082015250565b600061467b600f836126de565b915061468682614645565b602082019050919050565b600060208201905081810360008301526146aa8161466e565b9050919050565b6000602082840312156146c7576146c66125f5565b5b60006146d584828501613dc6565b91505092915050565b7f64656c6567617465206661696c65640000000000000000000000000000000000600082015250565b6000614714600f836126de565b915061471f826146de565b602082019050919050565b6000602082019050818103600083015261474381614707565b9050919050565b600067ffffffffffffffff82111561476557614764612a2a565b5b602082029050602081019050919050565b600080fd5b60008151905061478a8161387e565b92915050565b600060c082840312156147a6576147a56137d3565b5b6147b060c0612a8a565b905060006147c084828501613e2c565b60008301525060206147d484828501613e2c565b60208301525060406147e884828501613e00565b60408301525060606147fc84828501613e00565b60608301525060806148108482850161477b565b60808301525060a061482484828501613e2c565b60a08301525092915050565b600061484361483e8461474a565b612a8a565b90508083825260208201905060c0840283018581111561486657614865614776565b5b835b8181101561488f578061487b8882614790565b84526020840193505060c081019050614868565b5050509392505050565b600082601f8301126148ae576148ad612a20565b5b81516148be848260208601614830565b91505092915050565b6000606082840312156148dd576148dc6137d3565b5b6148e76060612a8a565b9050600082015167ffffffffffffffff811115614907576149066137d8565b5b61491384828501613d98565b600083015250602082015167ffffffffffffffff811115614937576149366137d8565b5b61494384828501613d98565b602083015250604082015167ffffffffffffffff811115614967576149666137d8565b5b61497384828501614899565b60408301525092915050565b600060208284031215614995576149946125f5565b5b600082015167ffffffffffffffff8111156149b3576149b26125fa565b5b6149bf848285016148c7565b91505092915050565b60006060820190506149dd6000830186613d2c565b81810360208301526149ef818561272a565b90508181036040830152614a03818461272a565b9050949350505050565b600067ffffffffffffffff821115614a2857614a27612a2a565b5b602082029050602081019050919050565b600060808284031215614a4f57614a4e6137d3565b5b614a596080612a8a565b90506000614a6984828501613e2c565b6000830152506020614a7d84828501613e2c565b6020830152506040614a9184828501613e00565b6040830152506060614aa584828501613e00565b60608301525092915050565b6000614ac4614abf84614a0d565b612a8a565b90508083825260208201905060808402830185811115614ae757614ae6614776565b5b835b81811015614b105780614afc8882614a39565b845260208401935050608081019050614ae9565b5050509392505050565b600082601f830112614b2f57614b2e612a20565b5b8151614b3f848260208601614ab1565b91505092915050565b600060808284031215614b5e57614b5d6137d3565b5b614b686080612a8a565b9050600082015167ffffffffffffffff811115614b8857614b876137d8565b5b614b9484828501613d98565b600083015250602082015167ffffffffffffffff811115614bb857614bb76137d8565b5b614bc484828501613d98565b602083015250604082015167ffffffffffffffff811115614be857614be76137d8565b5b614bf484828501613d98565b604083015250606082015167ffffffffffffffff811115614c1857614c176137d8565b5b614c2484828501614b1a565b60608301525092915050565b600060208284031215614c4657614c456125f5565b5b600082015167ffffffffffffffff811115614c6457614c636125fa565b5b614c7084828501614b48565b91505092915050565b600080fd5b600080fd5b600080fd5b60008083356001602003843603038112614ca557614ca4614c83565b5b83810192508235915060208301925067ffffffffffffffff821115614ccd57614ccc614c79565b5b600182023603831315614ce357614ce2614c7e565b5b509250929050565b6000614cf78385612807565b9350614d04838584612ad6565b614d0d83612719565b840190509392505050565b600060a08301614d2b6000840184614c88565b8583036000870152614d3e838284614ceb565b92505050614d4f6020840184614c88565b8583036020870152614d62838284614ceb565b92505050614d736040840184614c88565b8583036040870152614d86838284614ceb565b92505050614d976060840184614c88565b8583036060870152614daa838284614ceb565b92505050614dbb6080840184614c88565b8583036080870152614dce838284614ceb565b925050508091505092915050565b6000614deb602084018461267e565b905092915050565b60608201614e046000830183614ddc565b614e1160008501826128e3565b50614e1f6020830183614ddc565b614e2c60208501826128e3565b50614e3a6040830183614ddc565b614e4760408501826128e3565b50505050565b6000610100820190508181036000830152614e688189614d18565b9050614e776020830188614df3565b614e846080830187612763565b614e9160a0830186613d2c565b81810360c0830152614ea3818561272a565b9050614eb260e0830184612763565b979650505050505050565b6000608082019050614ed26000830187613d2c565b8181036020830152614ee4818661272a565b9050614ef36040830185612763565b614f006060830184612763565b95945050505050565b7f4661696c656420746f2063616e63656c20756e626f6e64696e67000000000000600082015250565b6000614f3f601a836126de565b9150614f4a82614f09565b602082019050919050565b60006020820190508181036000830152614f6e81614f32565b9050919050565b614f7e81613370565b82525050565b60006080820190508181036000830152614f9e8187614d18565b9050614fad6020830186613d2c565b614fba6040830185614f75565b614fc76060830184614f75565b95945050505050565b60008083356001602003843603038112614fed57614fec614c83565b5b83810192508235915060208301925067ffffffffffffffff82111561501557615014614c79565b5b60018202360383131561502b5761502a614c7e565b5b509250929050565b600061503f838561368a565b935061504c838584612ad6565b61505583612719565b840190509392505050565b600061506f6020840184613895565b905092915050565b600061508660208401846138c1565b905092915050565b600060a083016150a16000840184614fd0565b85830360008701526150b4838284615033565b925050506150c56020840184615060565b6150d26020860182612e3f565b506150e06040840184615060565b6150ed6040860182612e3f565b506150fb6060840184615077565b615108606086018261285d565b506151166080840184615077565b615123608086018261285d565b508091505092915050565b60006040820190508181036000830152615148818561272a565b9050818103602083015261515c818461508e565b90509392505050565b600067ffffffffffffffff8211156151805761517f612a2a565b5b602082029050602081019050919050565b60006151a461519f84615165565b612a8a565b905080838252602082019050602084028301858111156151c7576151c6614776565b5b835b8181101561520e57805167ffffffffffffffff8111156151ec576151eb612a20565b5b8086016151f98982613e41565b855260208501945050506020810190506151c9565b5050509392505050565b600082601f83011261522d5761522c612a20565b5b815161523d848260208601615191565b91505092915050565b6000615259615254846137dd565b612a8a565b90508281526020810184848401111561527557615274612a25565b5b6152808482856126ef565b509392505050565b600082601f83011261529d5761529c612a20565b5b81516152ad848260208601615246565b91505092915050565b6000604082840312156152cc576152cb6137d3565b5b6152d66040612a8a565b9050600082015167ffffffffffffffff8111156152f6576152f56137d8565b5b61530284828501615288565b60008301525060206153168482850161477b565b60208301525092915050565b60008060408385031215615339576153386125f5565b5b600083015167ffffffffffffffff811115615357576153566125fa565b5b61536385828601615218565b925050602083015167ffffffffffffffff811115615384576153836125fa565b5b615390858286016152b6565b9150509250929050565b60006080820190506153af6000830187613d2c565b81810360208301526153c1818661272a565b905081810360408301526153d5818561272a565b90506153e46060830184612763565b95945050505050565b7f4661696c656420746f20726564656c6567617465000000000000000000000000600082015250565b60006154236014836126de565b915061542e826153ed565b602082019050919050565b6000602082019050818103600083015261545281615416565b9050919050565b600060a0830160008301518482036000860152615476828261369b565b915050602083015161548b6020860182612e3f565b50604083015161549e6040860182612e3f565b5060608301516154b1606086018261285d565b5060808301516154c4608086018261285d565b508091505092915050565b60006080820190506154e46000830187613d2c565b81810360208301526154f6818661272a565b9050818103604083015261550a818561272a565b9050818103606083015261551e8184615459565b905095945050505050565b600067ffffffffffffffff82111561554457615543612a2a565b5b602082029050602081019050919050565b60006080828403121561556b5761556a6137d3565b5b6155756080612a8a565b9050600082015167ffffffffffffffff811115615595576155946137d8565b5b6155a184828501613d98565b600083015250602082015167ffffffffffffffff8111156155c5576155c46137d8565b5b6155d184828501613d98565b602083015250604082015167ffffffffffffffff8111156155f5576155f46137d8565b5b61560184828501613d98565b604083015250606082015167ffffffffffffffff811115615625576156246137d8565b5b61563184828501614b1a565b60608301525092915050565b600067ffffffffffffffff82111561565857615657612a2a565b5b602082029050602081019050919050565b600060a0828403121561567f5761567e6137d3565b5b6156896040612a8a565b9050600061569984828501614a39565b60008301525060806156ad84828501613e00565b60208301525092915050565b60006156cc6156c78461563d565b612a8a565b90508083825260208201905060a084028301858111156156ef576156ee614776565b5b835b8181101561571857806157048882615669565b84526020840193505060a0810190506156f1565b5050509392505050565b600082601f83011261573757615736612a20565b5b81516157478482602086016156b9565b91505092915050565b600060408284031215615766576157656137d3565b5b6157706040612a8a565b9050600082015167ffffffffffffffff8111156157905761578f6137d8565b5b61579c84828501615555565b600083015250602082015167ffffffffffffffff8111156157c0576157bf6137d8565b5b6157cc84828501615722565b60208301525092915050565b60006157eb6157e684615529565b612a8a565b9050808382526020820190506020840283018581111561580e5761580d614776565b5b835b8181101561585557805167ffffffffffffffff81111561583357615832612a20565b5b8086016158408982615750565b85526020850194505050602081019050615810565b5050509392505050565b600082601f83011261587457615873612a20565b5b81516158848482602086016157d8565b91505092915050565b600080604083850312156158a4576158a36125f5565b5b600083015167ffffffffffffffff8111156158c2576158c16125fa565b5b6158ce8582860161585f565b925050602083015167ffffffffffffffff8111156158ef576158ee6125fa565b5b6158fb858286016152b6565b9150509250929050565b7f4e487b7100000000000000000000000000000000000000000000000000000000600052603260045260246000fd5b60008190508160005260206000209050919050565b6000815461595681613cfb565b615960818661401a565b9450600182166000811461597b5760018114615990576159c3565b60ff19831686528115158202860193506159c3565b61599985615934565b60005b838110156159bb5781548189015260018201915060208101905061599c565b838801955050505b50505092915050565b60006159d88284615949565b915081905092915050565b60006159ee8261265d565b91506159f98361265d565b9250828203905081811115615a1157615a10614520565b5b92915050565b6000615a228261265d565b91507fffffffffffffffffffffffffffffffffffffffffffffffffffffffffffffffff8203615a5457615a53614520565b5b600182019050919050565b60006020601f8301049050919050565b600082821b905092915050565b600060088302615aac7fffffffffffffffffffffffffffffffffffffffffffffffffffffffffffffffff82615a6f565b615ab68683615a6f565b95508019841693508086168417925050509392505050565b6000819050919050565b6000615af3615aee615ae98461265d565b615ace565b61265d565b9050919050565b6000819050919050565b615b0d83615ad8565b615b21615b1982615afa565b848454615a7c565b825550505050565b600090565b615b36615b29565b615b41818484615b04565b505050565b5b81811015615b6557615b5a600082615b2e565b600181019050615b47565b5050565b601f821115615baa57615b7b81615934565b615b8484615a5f565b81016020851015615b93578190505b615ba7615b9f85615a5f565b830182615b46565b50505b505050565b600082821c905092915050565b6000615bcd60001984600802615baf565b1980831691505092915050565b6000615be68383615bbc565b9150826002028217905092915050565b615bff826126d3565b67ffffffffffffffff811115615c1857615c17612a2a565b5b615c228254613cfb565b615c2d828285615b69565b600060209050601f831160018114615c605760008415615c4e578287015190505b615c588582615bda565b865550615cc0565b601f198416615c6e86615934565b60005b82811015615c9657848901518255600182019150602085019450602081019050615c71565b86831015615cb35784890151615caf601f891682615bbc565b8355505b6001600288020188555050505b505050505050565b7f44656c65676174696f6e20646f6573206e6f74206578697374206f7220696e7360008201527f756666696369656e742064656c65676174696f6e20616d6f756e740000000000602082015250565b6000615d24603b836126de565b9150615d2f82615cc8565b604082019050919050565b60006020820190508181036000830152615d5381615d17565b9050919050565b7f556e626f6e64696e672064656c65676174696f6e20646f6573206e6f7420657860008201527f6973740000000000000000000000000000000000000000000000000000000000602082015250565b6000615db66023836126de565b9150615dc182615d5a565b604082019050919050565b60006020820190508181036000830152615de581615da9565b9050919050565b7f616d6f756e74206578636565647320756e626f6e64696e6720656e747279206160008201527f6d6f756e74000000000000000000000000000000000000000000000000000000602082015250565b6000615e486025836126de565b9150615e5382615dec565b604082019050919050565b60006020820190508181036000830152615e7781615e3b565b9050919050565b7f496e73756666696369656e742064656c65676174696f6e20616d6f756e740000600082015250565b6000615eb4601e836126de565b9150615ebf82615e7e565b602082019050919050565b60006020820190508181036000830152615ee381615ea7565b905091905056fea264697066735822122016ac52a7cdeca18fc9a87a81c885e6b4008363e5480699fb78c4a77257b7a7e464736f6c634300081400332f636f736d6f732e7374616b696e672e763162657461312e4d736744656c6567617465",
  "linkReferences": {},
  "deployedLinkReferences": {}
}