{
  "_format": "hh-sol-artifact-1",
  "contractName": "StakingCallerTwo",
  "sourceName": "solidity/precompiles/staking/testdata/StakingCallerTwo.sol",
  "abi": [
    {
      "inputs": [],
      "name": "counter",
      "outputs": [
        {
          "internalType": "uint256",
          "name": "",
          "type": "uint256"
        }
      ],
      "stateMutability": "view",
      "type": "function"
    },
    {
      "inputs": [
        {
          "internalType": "address",
          "name": "",
          "type": "address"
        },
        {
          "internalType": "string",
          "name": "",
          "type": "string"
        }
      ],
      "name": "delegation",
      "outputs": [
        {
          "internalType": "uint256",
          "name": "",
          "type": "uint256"
        }
      ],
      "stateMutability": "view",
      "type": "function"
    },
    {
      "inputs": [
        {
          "components": [
            {
              "internalType": "string",
              "name": "moniker",
              "type": "string"
            },
            {
              "internalType": "string",
              "name": "identity",
              "type": "string"
            },
            {
              "internalType": "string",
              "name": "website",
              "type": "string"
            },
            {
              "internalType": "string",
              "name": "securityContact",
              "type": "string"
            },
            {
              "internalType": "string",
              "name": "details",
              "type": "string"
            }
          ],
          "internalType": "struct Description",
          "name": "_descr",
          "type": "tuple"
        },
        {
          "components": [
            {
              "internalType": "uint256",
              "name": "rate",
              "type": "uint256"
            },
            {
              "internalType": "uint256",
              "name": "maxRate",
              "type": "uint256"
            },
            {
              "internalType": "uint256",
              "name": "maxChangeRate",
              "type": "uint256"
            }
          ],
          "internalType": "struct CommissionRates",
          "name": "_commRates",
          "type": "tuple"
        },
        {
          "internalType": "uint256",
          "name": "_minSelfDel",
          "type": "uint256"
        },
        {
          "internalType": "address",
          "name": "_validator",
          "type": "address"
        },
        {
          "internalType": "string",
          "name": "_pubkey",
          "type": "string"
        },
        {
          "internalType": "bool",
          "name": "_before",
          "type": "bool"
        },
        {
          "internalType": "bool",
          "name": "_after",
          "type": "bool"
        }
      ],
      "name": "testCreateValidatorWithTransfer",
      "outputs": [],
      "stateMutability": "payable",
      "type": "function"
    },
    {
      "inputs": [
        {
          "internalType": "string",
          "name": "_validatorAddr",
          "type": "string"
        },
        {
          "internalType": "bool",
          "name": "_before",
          "type": "bool"
        },
        {
          "internalType": "bool",
          "name": "_after",
          "type": "bool"
        }
      ],
      "name": "testDelegateWithCounterAndTransfer",
      "outputs": [],
      "stateMutability": "payable",
      "type": "function"
    },
    {
      "inputs": [
        {
          "internalType": "address payable",
          "name": "_dest",
          "type": "address"
        },
        {
          "internalType": "address payable",
          "name": "_delegator",
          "type": "address"
        },
        {
          "internalType": "string",
          "name": "_validatorAddr",
          "type": "string"
        },
        {
          "internalType": "bool",
          "name": "_before",
          "type": "bool"
        },
        {
          "internalType": "bool",
          "name": "_after",
          "type": "bool"
        }
      ],
      "name": "testDelegateWithTransfer",
      "outputs": [],
      "stateMutability": "payable",
      "type": "function"
    }
  ],
  "bytecode": "0x608060405234801561001057600080fd5b506114cd806100206000396000f3fe60806040526004361061004a5760003560e01c8063241774e61461004f57806361bc221a1461008c57806366dafc7a146100b7578063b9a6bbca146100d3578063c5b75f01146100ef575b600080fd5b34801561005b57600080fd5b5061007660048036038101906100719190610b20565b61010b565b6040516100839190610b95565b60405180910390f35b34801561009857600080fd5b506100a1610146565b6040516100ae9190610b95565b60405180910390f35b6100d160048036038101906100cc9190610c26565b61014c565b005b6100ed60048036038101906100e89190610d2c565b610424565b005b61010960048036038101906101049190610e08565b610692565b005b600160205281600052604060002081805160208101820180518482526020830160208501208183528095505050505050600091509150505481565b60005481565b81156102185760008081548092919061016490610ea6565b919050555060008573ffffffffffffffffffffffffffffffffffffffff16600f60405161019090610f1f565b60006040518083038185875af1925050503d80600081146101cd576040519150601f19603f3d011682016040523d82523d6000602084013e6101d2565b606091505b5050905080610216576040517f08c379a000000000000000000000000000000000000000000000000000000000815260040161020d90610fb7565b60405180910390fd5b505b600061080073ffffffffffffffffffffffffffffffffffffffff166353266bbb3086346040518463ffffffff1660e01b815260040161025993929190611054565b6020604051808303816000875af1158015610278573d6000803e3d6000fd5b505050506040513d601f19601f8201168201806040525081019061029c91906110a7565b9050806102de576040517f08c379a00000000000000000000000000000000000000000000000000000000081526004016102d590611120565b60405180910390fd5b34600160008773ffffffffffffffffffffffffffffffffffffffff1673ffffffffffffffffffffffffffffffffffffffff1681526020019081526020016000208560405161032c919061117c565b908152602001604051809103902060008282546103499190611193565b92505081905550811561041c5760008081548092919061036890610ea6565b919050555060008673ffffffffffffffffffffffffffffffffffffffff16600f60405161039490610f1f565b60006040518083038185875af1925050503d80600081146103d1576040519150601f19603f3d011682016040523d82523d6000602084013e6103d6565b606091505b505090508061041a576040517f08c379a000000000000000000000000000000000000000000000000000000000815260040161041190610fb7565b60405180910390fd5b505b505050505050565b81156104f05760008081548092919061043c90610ea6565b919050555060008473ffffffffffffffffffffffffffffffffffffffff16600f60405161046890610f1f565b60006040518083038185875af1925050503d80600081146104a5576040519150601f19603f3d011682016040523d82523d6000602084013e6104aa565b606091505b50509050806104ee576040517f08c379a00000000000000000000000000000000000000000000000000000000081526004016104e590610fb7565b60405180910390fd5b505b600061080073ffffffffffffffffffffffffffffffffffffffff1663f7cd55168989898989346040518763ffffffff1660e01b8152600401610537969594939291906113bb565b6020604051808303816000875af1158015610556573d6000803e3d6000fd5b505050506040513d601f19601f8201168201806040525081019061057a91906110a7565b9050806105bc576040517f08c379a00000000000000000000000000000000000000000000000000000000081526004016105b390611477565b60405180910390fd5b8115610688576000808154809291906105d490610ea6565b919050555060008573ffffffffffffffffffffffffffffffffffffffff16600f60405161060090610f1f565b60006040518083038185875af1925050503d806000811461063d576040519150601f19603f3d011682016040523d82523d6000602084013e610642565b606091505b5050905080610686576040517f08c379a000000000000000000000000000000000000000000000000000000000815260040161067d90610fb7565b60405180910390fd5b505b5050505050505050565b811561075e576000808154809291906106aa90610ea6565b919050555060003373ffffffffffffffffffffffffffffffffffffffff16600f6040516106d690610f1f565b60006040518083038185875af1925050503d8060008114610713576040519150601f19603f3d011682016040523d82523d6000602084013e610718565b606091505b505090508061075c576040517f08c379a000000000000000000000000000000000000000000000000000000000815260040161075390610fb7565b60405180910390fd5b505b600061080073ffffffffffffffffffffffffffffffffffffffff166353266bbb3086346040518463ffffffff1660e01b815260040161079f93929190611054565b6020604051808303816000875af11580156107be573d6000803e3d6000fd5b505050506040513d601f19601f820116820180604052508101906107e291906110a7565b905080610824576040517f08c379a000000000000000000000000000000000000000000000000000000000815260040161081b90611120565b60405180910390fd5b34600160003373ffffffffffffffffffffffffffffffffffffffff1673ffffffffffffffffffffffffffffffffffffffff16815260200190815260200160002085604051610872919061117c565b9081526020016040518091039020600082825461088f9190611193565b925050819055508115610962576000808154809291906108ae90610ea6565b919050555060003373ffffffffffffffffffffffffffffffffffffffff16600f6040516108da90610f1f565b60006040518083038185875af1925050503d8060008114610917576040519150601f19603f3d011682016040523d82523d6000602084013e61091c565b606091505b5050905080610960576040517f08c379a000000000000000000000000000000000000000000000000000000000815260040161095790610fb7565b60405180910390fd5b505b50505050565b6000604051905090565b600080fd5b600080fd5b600073ffffffffffffffffffffffffffffffffffffffff82169050919050565b60006109a78261097c565b9050919050565b6109b78161099c565b81146109c257600080fd5b50565b6000813590506109d4816109ae565b92915050565b600080fd5b600080fd5b6000601f19601f8301169050919050565b7f4e487b7100000000000000000000000000000000000000000000000000000000600052604160045260246000fd5b610a2d826109e4565b810181811067ffffffffffffffff82111715610a4c57610a4b6109f5565b5b80604052505050565b6000610a5f610968565b9050610a6b8282610a24565b919050565b600067ffffffffffffffff821115610a8b57610a8a6109f5565b5b610a94826109e4565b9050602081019050919050565b82818337600083830152505050565b6000610ac3610abe84610a70565b610a55565b905082815260208101848484011115610adf57610ade6109df565b5b610aea848285610aa1565b509392505050565b600082601f830112610b0757610b066109da565b5b8135610b17848260208601610ab0565b91505092915050565b60008060408385031215610b3757610b36610972565b5b6000610b45858286016109c5565b925050602083013567ffffffffffffffff811115610b6657610b65610977565b5b610b7285828601610af2565b9150509250929050565b6000819050919050565b610b8f81610b7c565b82525050565b6000602082019050610baa6000830184610b86565b92915050565b6000610bbb8261097c565b9050919050565b610bcb81610bb0565b8114610bd657600080fd5b50565b600081359050610be881610bc2565b92915050565b60008115159050919050565b610c0381610bee565b8114610c0e57600080fd5b50565b600081359050610c2081610bfa565b92915050565b600080600080600060a08688031215610c4257610c41610972565b5b6000610c5088828901610bd9565b9550506020610c6188828901610bd9565b945050604086013567ffffffffffffffff811115610c8257610c81610977565b5b610c8e88828901610af2565b9350506060610c9f88828901610c11565b9250506080610cb088828901610c11565b9150509295509295909350565b600080fd5b600060a08284031215610cd857610cd7610cbd565b5b81905092915050565b600060608284031215610cf757610cf6610cbd565b5b81905092915050565b610d0981610b7c565b8114610d1457600080fd5b50565b600081359050610d2681610d00565b92915050565b6000806000806000806000610120888a031215610d4c57610d4b610972565b5b600088013567ffffffffffffffff811115610d6a57610d69610977565b5b610d768a828b01610cc2565b9750506020610d878a828b01610ce1565b9650506080610d988a828b01610d17565b95505060a0610da98a828b016109c5565b94505060c088013567ffffffffffffffff811115610dca57610dc9610977565b5b610dd68a828b01610af2565b93505060e0610de78a828b01610c11565b925050610100610df98a828b01610c11565b91505092959891949750929550565b600080600060608486031215610e2157610e20610972565b5b600084013567ffffffffffffffff811115610e3f57610e3e610977565b5b610e4b86828701610af2565b9350506020610e5c86828701610c11565b9250506040610e6d86828701610c11565b9150509250925092565b7f4e487b7100000000000000000000000000000000000000000000000000000000600052601160045260246000fd5b6000610eb182610b7c565b91507fffffffffffffffffffffffffffffffffffffffffffffffffffffffffffffffff8203610ee357610ee2610e77565b5b600182019050919050565b600081905092915050565b50565b6000610f09600083610eee565b9150610f1482610ef9565b600082019050919050565b6000610f2a82610efc565b9150819050919050565b600082825260208201905092915050565b7f4661696c656420746f2073656e6420457468657220746f2064656c656761746f60008201527f7200000000000000000000000000000000000000000000000000000000000000602082015250565b6000610fa1602183610f34565b9150610fac82610f45565b604082019050919050565b60006020820190508181036000830152610fd081610f94565b9050919050565b610fe08161099c565b82525050565b600081519050919050565b60005b8381101561100f578082015181840152602081019050610ff4565b60008484015250505050565b600061102682610fe6565b6110308185610f34565b9350611040818560208601610ff1565b611049816109e4565b840191505092915050565b60006060820190506110696000830186610fd7565b818103602083015261107b818561101b565b905061108a6040830184610b86565b949350505050565b6000815190506110a181610bfa565b92915050565b6000602082840312156110bd576110bc610972565b5b60006110cb84828501611092565b91505092915050565b7f4661696c656420746f2064656c65676174650000000000000000000000000000600082015250565b600061110a601283610f34565b9150611115826110d4565b602082019050919050565b60006020820190508181036000830152611139816110fd565b9050919050565b600081905092915050565b600061115682610fe6565b6111608185611140565b9350611170818560208601610ff1565b80840191505092915050565b6000611188828461114b565b915081905092915050565b600061119e82610b7c565b91506111a983610b7c565b92508282019050808211156111c1576111c0610e77565b5b92915050565b600080fd5b600080fd5b600080fd5b600080833560016020038436030381126111f3576111f26111d1565b5b83810192508235915060208301925067ffffffffffffffff82111561121b5761121a6111c7565b5b600182023603831315611231576112306111cc565b5b509250929050565b600082825260208201905092915050565b60006112568385611239565b9350611263838584610aa1565b61126c836109e4565b840190509392505050565b600060a0830161128a60008401846111d6565b858303600087015261129d83828461124a565b925050506112ae60208401846111d6565b85830360208701526112c183828461124a565b925050506112d260408401846111d6565b85830360408701526112e583828461124a565b925050506112f660608401846111d6565b858303606087015261130983828461124a565b9250505061131a60808401846111d6565b858303608087015261132d83828461124a565b925050508091505092915050565b600061134a6020840184610d17565b905092915050565b61135b81610b7c565b82525050565b60608201611372600083018361133b565b61137f6000850182611352565b5061138d602083018361133b565b61139a6020850182611352565b506113a8604083018361133b565b6113b56040850182611352565b50505050565b60006101008201905081810360008301526113d68189611277565b90506113e56020830188611361565b6113f26080830187610b86565b6113ff60a0830186610fd7565b81810360c0830152611411818561101b565b905061142060e0830184610b86565b979650505050505050565b7f4661696c656420746f20637265617465207468652076616c696461746f720000600082015250565b6000611461601e83610f34565b915061146c8261142b565b602082019050919050565b6000602082019050818103600083015261149081611454565b905091905056fea2646970667358221220ba281daeb3b6294d17efaafa41f7036e33d1abdff69b8d2c729b3f73bd26e73b64736f6c63430008140033",
  "linkReferences": {},
  "deployedLinkReferences": {}
}