{
  "_format": "hh-sol-artifact-1",
  "contractName": "WETH9Mock",
  "sourceName": "contracts/WETH9Mock.sol",
  "abi": [
    {
      "anonymous": false,
      "inputs": [
        {
          "indexed": true,
          "internalType": "address",
          "name": "dst",
          "type": "address"
        },
        {
          "indexed": false,
          "internalType": "uint256",
          "name": "wad",
          "type": "uint256"
        }
      ],
      "name": "Deposit",
      "type": "event"
    },
    {
      "anonymous": false,
      "inputs": [
        {
          "indexed": true,
          "internalType": "address",
          "name": "src",
          "type": "address"
        },
        {
          "indexed": false,
          "internalType": "uint256",
          "name": "wad",
          "type": "uint256"
        }
      ],
      "name": "Withdrawal",
      "type": "event"
    },
    {
      "inputs": [
        {
          "internalType": "address",
          "name": "",
          "type": "address"
        }
      ],
      "name": "balanceOf",
      "outputs": [
        {
          "internalType": "uint256",
          "name": "",
          "type": "uint256"
        }
      ],
      "stateMutability": "view",
      "type": "function"
    },
    {
      "inputs": [],
      "name": "decimals",
      "outputs": [
        {
          "internalType": "uint8",
          "name": "",
          "type": "uint8"
        }
      ],
      "stateMutability": "view",
      "type": "function"
    },
    {
      "inputs": [],
      "name": "deposit",
      "outputs": [],
      "stateMutability": "payable",
      "type": "function"
    },
    {
      "inputs": [],
      "name": "name",
      "outputs": [
        {
          "internalType": "string",
          "name": "",
          "type": "string"
        }
      ],
      "stateMutability": "view",
      "type": "function"
    },
    {
      "inputs": [],
      "name": "symbol",
      "outputs": [
        {
          "internalType": "string",
          "name": "",
          "type": "string"
        }
      ],
      "stateMutability": "view",
      "type": "function"
    },
    {
      "inputs": [
        {
          "internalType": "uint256",
          "name": "wad",
          "type": "uint256"
        }
      ],
      "name": "withdraw",
      "outputs": [],
      "stateMutability": "nonpayable",
      "type": "function"
    }
  ],
  "bytecode": "0x60c0604052600d60809081526c2bb930b83832b21022ba3432b960991b60a05260009061002c9082610114565b506040805180820190915260048152630ae8aa8960e31b60208201526001906100559082610114565b506002805460ff1916601217905534801561006f57600080fd5b506101d2565b634e487b7160e01b600052604160045260246000fd5b600181811c9082168061009f57607f821691505b6020821081036100bf57634e487b7160e01b600052602260045260246000fd5b50919050565b601f82111561010f57806000526020600020601f840160051c810160208510156100ec5750805b601f840160051c820191505b8181101561010c57600081556001016100f8565b50505b505050565b81516001600160401b0381111561012d5761012d610075565b6101418161013b845461008b565b846100c5565b6020601f821160018114610175576000831561015d5750848201515b600019600385901b1c1916600184901b17845561010c565b600084815260208120601f198516915b828110156101a55787850151825560209485019460019092019101610185565b50848210156101c35786840151600019600387901b60f8161c191681555b50505050600190811b01905550565b61044e806101e16000396000f3fe6080604052600436106100555760003560e01c806306fdde031461005a5780632e1a7d4d14610085578063313ce567146100a757806370a08231146100d357806395d89b411461010e578063d0e30db014610123575b600080fd5b34801561006657600080fd5b5061006f61012b565b60405161007c9190610305565b60405180910390f35b34801561009157600080fd5b506100a56100a0366004610353565b6101b9565b005b3480156100b357600080fd5b506002546100c19060ff1681565b60405160ff909116815260200161007c565b3480156100df57600080fd5b506101006100ee36600461036c565b60036020526000908152604090205481565b60405190815260200161007c565b34801561011a57600080fd5b5061006f61029d565b6100a56102aa565b600080546101389061039c565b80601f01602080910402602001604051908101604052809291908181526020018280546101649061039c565b80156101b15780601f10610186576101008083540402835291602001916101b1565b820191906000526020600020905b81548152906001019060200180831161019457829003601f168201915b505050505081565b336000908152600360205260409020548111156102135760405162461bcd60e51b8152602060048201526014602482015273496e73756666696369656e742062616c616e636560601b604482015260640160405180910390fd5b33600090815260036020526040812080548392906102329084906103ec565b9091555050604051339082156108fc029083906000818181858888f19350505050158015610264573d6000803e3d6000fd5b5060405181815233907f7fcf532c15f0a6db0bd6d0e038bea71d30d808c7d98cb3bf7268a95bf5081b659060200160405180910390a250565b600180546101389061039c565b33600090815260036020526040812080543492906102c9908490610405565b909155505060405134815233907fe1fffcc4923d04b559f4d29a8bfc6cda04eb5b0d3c460751c2402c5c5cc9109c9060200160405180910390a2565b602081526000825180602084015260005b818110156103335760208186018101516040868401015201610316565b506000604082850101526040601f19601f83011684010191505092915050565b60006020828403121561036557600080fd5b5035919050565b60006020828403121561037e57600080fd5b81356001600160a01b038116811461039557600080fd5b9392505050565b600181811c908216806103b057607f821691505b6020821081036103d057634e487b7160e01b600052602260045260246000fd5b50919050565b634e487b7160e01b600052601160045260246000fd5b818103818111156103ff576103ff6103d6565b92915050565b808201808211156103ff576103ff6103d656fea2646970667358221220adeba175a2582b8ae55c5b9e8e0e8a578da8262671a051bee4ec84c46c5688d064736f6c634300081c0033",
  "linkReferences": {},
  "deployedLinkReferences": {}
}