{"abi":[{"type":"function","name":"delegateFromSelf","inputs":[{"name":"validator","type":"string","internalType":"string"},{"name":"amount","type":"uint256","internalType":"uint256"}],"outputs":[],"stateMutability":"nonpayable"},{"type":"function","name":"delegation","inputs":[{"name":"delegator","type":"address","internalType":"address"},{"name":"validator","type":"string","internalType":"string"}],"outputs":[{"name":"shares","type":"uint256","internalType":"uint256"},{"name":"balance","type":"tuple","internalType":"struct Coin","components":[{"name":"denom","type":"string","internalType":"string"},{"name":"amount","type":"uint256","internalType":"uint256"}]}],"stateMutability":"view"},{"type":"function","name":"deposit","inputs":[],"outputs":[],"stateMutability":"payable"},{"type":"event","name":"Done","inputs":[{"name":"step","type":"string","indexed":false,"internalType":"string"}],"anonymous":false}],"bytecode":{"object":"0x608060405234801561000f575f80fd5b506109378061001d5f395ff3fe608060405260043610610033575f3560e01c8063241774e614610037578063d0e30db014610074578063e06fdee61461007e575b5f80fd5b348015610042575f80fd5b5061005d60048036038101906100589190610314565b6100a6565b60405161006b92919061045c565b60405180910390f35b61007c61013c565b005b348015610089575f80fd5b506100a4600480360381019061009f91906104b4565b610173565b005b5f6100af61022f565b61080073ffffffffffffffffffffffffffffffffffffffff1663241774e68686866040518463ffffffff1660e01b81526004016100ee9392919061056a565b5f60405180830381865afa158015610108573d5f803e3d5ffd5b505050506040513d5f823e3d601f19601f820116820180604052508101906101309190610739565b91509150935093915050565b7f3f6f2035e83c1b5cdbbac085d1dd974406b29f19c2b348224cb9a453e04a9995604051610169906107dd565b60405180910390a1565b61080073ffffffffffffffffffffffffffffffffffffffff166353266bbb308585856040518563ffffffff1660e01b81526004016101b494939291906107fb565b6020604051808303815f875af11580156101d0573d5f803e3d5ffd5b505050506040513d601f19601f820116820180604052508101906101f4919061086e565b507f3f6f2035e83c1b5cdbbac085d1dd974406b29f19c2b348224cb9a453e04a9995604051610222906108e3565b60405180910390a1505050565b6040518060400160405280606081526020015f81525090565b5f604051905090565b5f80fd5b5f80fd5b5f73ffffffffffffffffffffffffffffffffffffffff82169050919050565b5f61028282610259565b9050919050565b61029281610278565b811461029c575f80fd5b50565b5f813590506102ad81610289565b92915050565b5f80fd5b5f80fd5b5f80fd5b5f8083601f8401126102d4576102d36102b3565b5b8235905067ffffffffffffffff8111156102f1576102f06102b7565b5b60208301915083600182028301111561030d5761030c6102bb565b5b9250929050565b5f805f6040848603121561032b5761032a610251565b5b5f6103388682870161029f565b935050602084013567ffffffffffffffff81111561035957610358610255565b5b610365868287016102bf565b92509250509250925092565b5f819050919050565b61038381610371565b82525050565b5f81519050919050565b5f82825260208201905092915050565b5f5b838110156103c05780820151818401526020810190506103a5565b5f8484015250505050565b5f601f19601f8301169050919050565b5f6103e582610389565b6103ef8185610393565b93506103ff8185602086016103a3565b610408816103cb565b840191505092915050565b61041c81610371565b82525050565b5f604083015f8301518482035f86015261043c82826103db565b91505060208301516104516020860182610413565b508091505092915050565b5f60408201905061046f5f83018561037a565b81810360208301526104818184610422565b90509392505050565b61049381610371565b811461049d575f80fd5b50565b5f813590506104ae8161048a565b92915050565b5f805f604084860312156104cb576104ca610251565b5b5f84013567ffffffffffffffff8111156104e8576104e7610255565b5b6104f4868287016102bf565b93509350506020610507868287016104a0565b9150509250925092565b61051a81610278565b82525050565b5f82825260208201905092915050565b828183375f83830152505050565b5f6105498385610520565b9350610556838584610530565b61055f836103cb565b840190509392505050565b5f60408201905061057d5f830186610511565b818103602083015261059081848661053e565b9050949350505050565b5f815190506105a88161048a565b92915050565b5f80fd5b7f4e487b71000000000000000000000000000000000000000000000000000000005f52604160045260245ffd5b6105e8826103cb565b810181811067ffffffffffffffff82111715610607576106066105b2565b5b80604052505050565b5f610619610248565b905061062582826105df565b919050565b5f80fd5b5f80fd5b5f67ffffffffffffffff82111561064c5761064b6105b2565b5b610655826103cb565b9050602081019050919050565b5f61067461066f84610632565b610610565b9050828152602081018484840111156106905761068f61062e565b5b61069b8482856103a3565b509392505050565b5f82601f8301126106b7576106b66102b3565b5b81516106c7848260208601610662565b91505092915050565b5f604082840312156106e5576106e46105ae565b5b6106ef6040610610565b90505f82015167ffffffffffffffff81111561070e5761070d61062a565b5b61071a848285016106a3565b5f83015250602061072d8482850161059a565b60208301525092915050565b5f806040838503121561074f5761074e610251565b5b5f61075c8582860161059a565b925050602083015167ffffffffffffffff81111561077d5761077c610255565b5b610789858286016106d0565b9150509250929050565b7f6465706f736974000000000000000000000000000000000000000000000000005f82015250565b5f6107c7600783610520565b91506107d282610793565b602082019050919050565b5f6020820190508181035f8301526107f4816107bb565b9050919050565b5f60608201905061080e5f830187610511565b818103602083015261082181858761053e565b9050610830604083018461037a565b95945050505050565b5f8115159050919050565b61084d81610839565b8114610857575f80fd5b50565b5f8151905061086881610844565b92915050565b5f6020828403121561088357610882610251565b5b5f6108908482850161085a565b91505092915050565b7f64656c65676174650000000000000000000000000000000000000000000000005f82015250565b5f6108cd600883610520565b91506108d882610899565b602082019050919050565b5f6020820190508181035f8301526108fa816108c1565b905091905056fea2646970667358221220ebb231fe05b43de2e02891ad40d58b7a36224d66541a9949565ec5db3b419f8e64736f6c63430008170033","linkReferences":{}},"methodIdentifiers":{"delegateFromSelf(string,uint256)":"e06fdee6","delegation(address,string)":"241774e6","deposit()":"d0e30db0"},"id":2}