{"abi":[{"type":"function","name":"delegateFromSelf","inputs":[{"name":"validator","type":"string","internalType":"string"},{"name":"amount","type":"uint256","internalType":"uint256"}],"outputs":[{"name":"","type":"bool","internalType":"bool"}],"stateMutability":"nonpayable"},{"type":"function","name":"delegation","inputs":[{"name":"delegator","type":"address","internalType":"address"},{"name":"validator","type":"string","internalType":"string"}],"outputs":[{"name":"shares","type":"uint256","internalType":"uint256"},{"name":"balance","type":"tuple","internalType":"struct Coin","components":[{"name":"denom","type":"string","internalType":"string"},{"name":"amount","type":"uint256","internalType":"uint256"}]}],"stateMutability":"view"},{"type":"function","name":"deposit","inputs":[],"outputs":[],"stateMutability":"payable"},{"type":"event","name":"Done","inputs":[{"name":"step","type":"string","indexed":false,"internalType":"string"}],"anonymous":false}],"bytecode":{"object":"0x608060405234801561000f575f80fd5b50610a258061001d5f395ff3fe608060405260043610610033575f3560e01c8063241774e614610037578063d0e30db014610074578063e06fdee61461007e575b5f80fd5b348015610042575f80fd5b5061005d60048036038101906100589190610339565b6100ba565b60405161006b929190610481565b60405180910390f35b61007c610150565b005b348015610089575f80fd5b506100a4600480360381019061009f9190610601565b610187565b6040516100b19190610675565b60405180910390f35b5f6100c3610254565b61080073ffffffffffffffffffffffffffffffffffffffff1663241774e68686866040518463ffffffff1660e01b8152600401610102939291906106d9565b5f60405180830381865afa15801561011c573d5f803e3d5ffd5b505050506040513d5f823e3d601f19601f8201168201806040525081019061014491906107fc565b91509150935093915050565b7f3f6f2035e83c1b5cdbbac085d1dd974406b29f19c2b348224cb9a453e04a999560405161017d906108a0565b60405180910390a1565b5f8061080073ffffffffffffffffffffffffffffffffffffffff166353266bbb3086866040518463ffffffff1660e01b81526004016101c8939291906108f6565b6020604051808303815f875af11580156101e4573d5f803e3d5ffd5b505050506040513d601f19601f82011682018060405250810190610208919061095c565b90508061024a576040517f08c379a0000000000000000000000000000000000000000000000000000000008152600401610241906109d1565b60405180910390fd5b8091505092915050565b6040518060400160405280606081526020015f81525090565b5f604051905090565b5f80fd5b5f80fd5b5f73ffffffffffffffffffffffffffffffffffffffff82169050919050565b5f6102a78261027e565b9050919050565b6102b78161029d565b81146102c1575f80fd5b50565b5f813590506102d2816102ae565b92915050565b5f80fd5b5f80fd5b5f80fd5b5f8083601f8401126102f9576102f86102d8565b5b8235905067ffffffffffffffff811115610316576103156102dc565b5b602083019150836001820283011115610332576103316102e0565b5b9250929050565b5f805f604084860312156103505761034f610276565b5b5f61035d868287016102c4565b935050602084013567ffffffffffffffff81111561037e5761037d61027a565b5b61038a868287016102e4565b92509250509250925092565b5f819050919050565b6103a881610396565b82525050565b5f81519050919050565b5f82825260208201905092915050565b5f5b838110156103e55780820151818401526020810190506103ca565b5f8484015250505050565b5f601f19601f8301169050919050565b5f61040a826103ae565b61041481856103b8565b93506104248185602086016103c8565b61042d816103f0565b840191505092915050565b61044181610396565b82525050565b5f604083015f8301518482035f8601526104618282610400565b91505060208301516104766020860182610438565b508091505092915050565b5f6040820190506104945f83018561039f565b81810360208301526104a68184610447565b90509392505050565b5f80fd5b7f4e487b71000000000000000000000000000000000000000000000000000000005f52604160045260245ffd5b6104e9826103f0565b810181811067ffffffffffffffff82111715610508576105076104b3565b5b80604052505050565b5f61051a61026d565b905061052682826104e0565b919050565b5f67ffffffffffffffff821115610545576105446104b3565b5b61054e826103f0565b9050602081019050919050565b828183375f83830152505050565b5f61057b6105768461052b565b610511565b905082815260208101848484011115610597576105966104af565b5b6105a284828561055b565b509392505050565b5f82601f8301126105be576105bd6102d8565b5b81356105ce848260208601610569565b91505092915050565b6105e081610396565b81146105ea575f80fd5b50565b5f813590506105fb816105d7565b92915050565b5f806040838503121561061757610616610276565b5b5f83013567ffffffffffffffff8111156106345761063361027a565b5b610640858286016105aa565b9250506020610651858286016105ed565b9150509250929050565b5f8115159050919050565b61066f8161065b565b82525050565b5f6020820190506106885f830184610666565b92915050565b6106978161029d565b82525050565b5f82825260208201905092915050565b5f6106b8838561069d565b93506106c583858461055b565b6106ce836103f0565b840190509392505050565b5f6040820190506106ec5f83018661068e565b81810360208301526106ff8184866106ad565b9050949350505050565b5f81519050610717816105d7565b92915050565b5f80fd5b5f80fd5b5f6107376107328461052b565b610511565b905082815260208101848484011115610753576107526104af565b5b61075e8482856103c8565b509392505050565b5f82601f83011261077a576107796102d8565b5b815161078a848260208601610725565b91505092915050565b5f604082840312156107a8576107a761071d565b5b6107b26040610511565b90505f82015167ffffffffffffffff8111156107d1576107d0610721565b5b6107dd84828501610766565b5f8301525060206107f084828501610709565b60208301525092915050565b5f806040838503121561081257610811610276565b5b5f61081f85828601610709565b925050602083015167ffffffffffffffff8111156108405761083f61027a565b5b61084c85828601610793565b9150509250929050565b7f6465706f736974000000000000000000000000000000000000000000000000005f82015250565b5f61088a60078361069d565b915061089582610856565b602082019050919050565b5f6020820190508181035f8301526108b78161087e565b9050919050565b5f6108c8826103ae565b6108d2818561069d565b93506108e28185602086016103c8565b6108eb816103f0565b840191505092915050565b5f6060820190506109095f83018661068e565b818103602083015261091b81856108be565b905061092a604083018461039f565b949350505050565b61093b8161065b565b8114610945575f80fd5b50565b5f8151905061095681610932565b92915050565b5f6020828403121561097157610970610276565b5b5f61097e84828501610948565b91505092915050565b7f64656c6567617465206661696c656400000000000000000000000000000000005f82015250565b5f6109bb600f8361069d565b91506109c682610987565b602082019050919050565b5f6020820190508181035f8301526109e8816109af565b905091905056fea2646970667358221220037de77655719779b675c798b440db1f4b29d283ca69469b111efb4e99b5d30064736f6c63430008170033","linkReferences":{}},"methodIdentifiers":{"delegateFromSelf(string,uint256)":"e06fdee6","delegation(address,string)":"241774e6","deposit()":"d0e30db0"},"id":6}