{"abi":[{"type":"function","name":"vm","inputs":[],"outputs":[{"name":"","type":"address","internalType":"contract Vm"}],"stateMutability":"view"}],"bytecode":{"object":"0x608060405234801561000f575f80fd5b506101258061001d5f395ff3fe6080604052348015600e575f80fd5b50600436106026575f3560e01c80633a76846314602a575b5f80fd5b60306044565b604051603b919060d8565b60405180910390f35b7f885cb69240a935d632d79c317109709ecfa91a80626ff3989d68f67f5b1dd12d5f1c81565b5f73ffffffffffffffffffffffffffffffffffffffff82169050919050565b5f819050919050565b5f60a660a2609e84606a565b6089565b606a565b9050919050565b5f60b5826092565b9050919050565b5f60c48260ad565b9050919050565b60d28160bc565b82525050565b5f60208201905060e95f83018460cb565b9291505056fea26469706673582212206061b22b669517551179d6796d81216d3e98ee2c9ea309ba16e527a0c6ac8a6564736f6c63430008170033","linkReferences":{}},"methodIdentifiers":{"vm()":"3a768463"},"id":7}