{
  "_format": "hh-sol-artifact-1",
  "contractName": "DistributionCaller",
  "sourceName": "solidity/precompiles/testutil/contracts/DistributionCaller.sol",
  "abi": [
    {
      "inputs": [],
      "name": "counter",
      "outputs": [
        {
          "internalType": "int64",
          "name": "",
          "type": "int64"
        }
      ],
      "stateMutability": "view",
      "type": "function"
    },
    {
      "inputs": [
        {
          "internalType": "address",
          "name": "_delAddr",
          "type": "address"
        },
        {
          "internalType": "string",
          "name": "_withdrawAddr",
          "type": "string"
        }
      ],
      "name": "delegateCallSetWithdrawAddress",
      "outputs": [],
      "stateMutability": "nonpayable",
      "type": "function"
    },
    {
      "inputs": [],
      "name": "deposit",
      "outputs": [],
      "stateMutability": "payable",
      "type": "function"
    },
    {
      "inputs": [],
      "name": "getCommunityPool",
      "outputs": [
        {
          "components": [
            {
              "internalType": "string",
              "name": "denom",
              "type": "string"
            },
            {
              "internalType": "uint256",
              "name": "amount",
              "type": "uint256"
            },
            {
              "internalType": "uint8",
              "name": "precision",
              "type": "uint8"
            }
          ],
          "internalType": "struct DecCoin[]",
          "name": "",
          "type": "tuple[]"
        }
      ],
      "stateMutability": "view",
      "type": "function"
    },
    {
      "inputs": [
        {
          "internalType": "address",
          "name": "_delAddr",
          "type": "address"
        },
        {
          "internalType": "string",
          "name": "_valAddr",
          "type": "string"
        }
      ],
      "name": "getDelegationRewards",
      "outputs": [
        {
          "components": [
            {
              "internalType": "string",
              "name": "denom",
              "type": "string"
            },
            {
              "internalType": "uint256",
              "name": "amount",
              "type": "uint256"
            },
            {
              "internalType": "uint8",
              "name": "precision",
              "type": "uint8"
            }
          ],
          "internalType": "struct DecCoin[]",
          "name": "",
          "type": "tuple[]"
        }
      ],
      "stateMutability": "view",
      "type": "function"
    },
    {
      "inputs": [
        {
          "internalType": "address",
          "name": "_delAddr",
          "type": "address"
        }
      ],
      "name": "getDelegationTotalRewards",
      "outputs": [
        {
          "components": [
            {
              "internalType": "string",
              "name": "validatorAddress",
              "type": "string"
            },
            {
              "components": [
                {
                  "internalType": "string",
                  "name": "denom",
                  "type": "string"
                },
                {
                  "internalType": "uint256",
                  "name": "amount",
                  "type": "uint256"
                },
                {
                  "internalType": "uint8",
                  "name": "precision",
                  "type": "uint8"
                }
              ],
              "internalType": "struct DecCoin[]",
              "name": "reward",
              "type": "tuple[]"
            }
          ],
          "internalType": "struct DelegationDelegatorReward[]",
          "name": "rewards",
          "type": "tuple[]"
        },
        {
          "components": [
            {
              "internalType": "string",
              "name": "denom",
              "type": "string"
            },
            {
              "internalType": "uint256",
              "name": "amount",
              "type": "uint256"
            },
            {
              "internalType": "uint8",
              "name": "precision",
              "type": "uint8"
            }
          ],
          "internalType": "struct DecCoin[]",
          "name": "total",
          "type": "tuple[]"
        }
      ],
      "stateMutability": "view",
      "type": "function"
    },
    {
      "inputs": [
        {
          "internalType": "address",
          "name": "_delAddr",
          "type": "address"
        }
      ],
      "name": "getDelegatorValidators",
      "outputs": [
        {
          "internalType": "string[]",
          "name": "",
          "type": "string[]"
        }
      ],
      "stateMutability": "view",
      "type": "function"
    },
    {
      "inputs": [
        {
          "internalType": "address",
          "name": "_delAddr",
          "type": "address"
        }
      ],
      "name": "getDelegatorWithdrawAddress",
      "outputs": [
        {
          "internalType": "string",
          "name": "",
          "type": "string"
        }
      ],
      "stateMutability": "view",
      "type": "function"
    },
    {
      "inputs": [
        {
          "internalType": "string",
          "name": "_valAddr",
          "type": "string"
        }
      ],
      "name": "getValidatorCommission",
      "outputs": [
        {
          "components": [
            {
              "internalType": "string",
              "name": "denom",
              "type": "string"
            },
            {
              "internalType": "uint256",
              "name": "amount",
              "type": "uint256"
            },
            {
              "internalType": "uint8",
              "name": "precision",
              "type": "uint8"
            }
          ],
          "internalType": "struct DecCoin[]",
          "name": "",
          "type": "tuple[]"
        }
      ],
      "stateMutability": "view",
      "type": "function"
    },
    {
      "inputs": [
        {
          "internalType": "string",
          "name": "_valAddr",
          "type": "string"
        }
      ],
      "name": "getValidatorDistributionInfo",
      "outputs": [
        {
          "components": [
            {
              "internalType": "string",
              "name": "operatorAddress",
              "type": "string"
            },
            {
              "components": [
                {
                  "internalType": "string",
                  "name": "denom",
                  "type": "string"
                },
                {
                  "internalType": "uint256",
                  "name": "amount",
                  "type": "uint256"
                },
                {
                  "internalType": "uint8",
                  "name": "precision",
                  "type": "uint8"
                }
              ],
              "internalType": "struct DecCoin[]",
              "name": "selfBondRewards",
              "type": "tuple[]"
            },
            {
              "components": [
                {
                  "internalType": "string",
                  "name": "denom",
                  "type": "string"
                },
                {
                  "internalType": "uint256",
                  "name": "amount",
                  "type": "uint256"
                },
                {
                  "internalType": "uint8",
                  "name": "precision",
                  "type": "uint8"
                }
              ],
              "internalType": "struct DecCoin[]",
              "name": "commission",
              "type": "tuple[]"
            }
          ],
          "internalType": "struct ValidatorDistributionInfo",
          "name": "",
          "type": "tuple"
        }
      ],
      "stateMutability": "view",
      "type": "function"
    },
    {
      "inputs": [
        {
          "internalType": "string",
          "name": "_valAddr",
          "type": "string"
        }
      ],
      "name": "getValidatorOutstandingRewards",
      "outputs": [
        {
          "components": [
            {
              "internalType": "string",
              "name": "denom",
              "type": "string"
            },
            {
              "internalType": "uint256",
              "name": "amount",
              "type": "uint256"
            },
            {
              "internalType": "uint8",
              "name": "precision",
              "type": "uint8"
            }
          ],
          "internalType": "struct DecCoin[]",
          "name": "",
          "type": "tuple[]"
        }
      ],
      "stateMutability": "view",
      "type": "function"
    },
    {
      "inputs": [
        {
          "internalType": "string",
          "name": "_valAddr",
          "type": "string"
        },
        {
          "internalType": "uint64",
          "name": "_startingHeight",
          "type": "uint64"
        },
        {
          "internalType": "uint64",
          "name": "_endingHeight",
          "type": "uint64"
        },
        {
          "components": [
            {
              "internalType": "bytes",
              "name": "key",
              "type": "bytes"
            },
            {
              "internalType": "uint64",
              "name": "offset",
              "type": "uint64"
            },
            {
              "internalType": "uint64",
              "name": "limit",
              "type": "uint64"
            },
            {
              "internalType": "bool",
              "name": "countTotal",
              "type": "bool"
            },
            {
              "internalType": "bool",
              "name": "reverse",
              "type": "bool"
            }
          ],
          "internalType": "struct PageRequest",
          "name": "pageRequest",
          "type": "tuple"
        }
      ],
      "name": "getValidatorSlashes",
      "outputs": [
        {
          "components": [
            {
              "internalType": "uint64",
              "name": "validatorPeriod",
              "type": "uint64"
            },
            {
              "components": [
                {
                  "internalType": "uint256",
                  "name": "value",
                  "type": "uint256"
                },
                {
                  "internalType": "uint8",
                  "name": "precision",
                  "type": "uint8"
                }
              ],
              "internalType": "struct Dec",
              "name": "fraction",
              "type": "tuple"
            }
          ],
          "internalType": "struct ValidatorSlashEvent[]",
          "name": "",
          "type": "tuple[]"
        },
        {
          "components": [
            {
              "internalType": "bytes",
              "name": "nextKey",
              "type": "bytes"
            },
            {
              "internalType": "uint64",
              "name": "total",
              "type": "uint64"
            }
          ],
          "internalType": "struct PageResponse",
          "name": "",
          "type": "tuple"
        }
      ],
      "stateMutability": "view",
      "type": "function"
    },
    {
      "inputs": [
        {
          "internalType": "address payable",
          "name": "_delAddr",
          "type": "address"
        },
        {
          "internalType": "address payable",
          "name": "_withdrawer",
          "type": "address"
        },
        {
          "internalType": "string",
          "name": "_valAddr",
          "type": "string"
        },
        {
          "internalType": "bool",
          "name": "_after",
          "type": "bool"
        }
      ],
      "name": "revertWithdrawRewardsAndTransfer",
      "outputs": [],
      "stateMutability": "nonpayable",
      "type": "function"
    },
    {
      "inputs": [
        {
          "internalType": "address",
          "name": "_delAddr",
          "type": "address"
        }
      ],
      "name": "staticCallGetWithdrawAddress",
      "outputs": [
        {
          "internalType": "bytes",
          "name": "",
          "type": "bytes"
        }
      ],
      "stateMutability": "view",
      "type": "function"
    },
    {
      "inputs": [
        {
          "internalType": "address",
          "name": "_delAddr",
          "type": "address"
        },
        {
          "internalType": "string",
          "name": "_withdrawAddr",
          "type": "string"
        }
      ],
      "name": "staticCallSetWithdrawAddress",
      "outputs": [],
      "stateMutability": "view",
      "type": "function"
    },
    {
      "inputs": [
        {
          "internalType": "address",
          "name": "_delAddr",
          "type": "address"
        },
        {
          "internalType": "uint32",
          "name": "_maxRetrieve",
          "type": "uint32"
        }
      ],
      "name": "testClaimRewards",
      "outputs": [
        {
          "internalType": "bool",
          "name": "success",
          "type": "bool"
        }
      ],
      "stateMutability": "nonpayable",
      "type": "function"
    },
    {
      "inputs": [
        {
          "internalType": "uint32",
          "name": "_maxRetrieve",
          "type": "uint32"
        },
        {
          "internalType": "bool",
          "name": "_before",
          "type": "bool"
        },
        {
          "internalType": "bool",
          "name": "_after",
          "type": "bool"
        }
      ],
      "name": "testClaimRewardsWithTransfer",
      "outputs": [],
      "stateMutability": "nonpayable",
      "type": "function"
    },
    {
      "inputs": [
        {
          "internalType": "string",
          "name": "_validatorAddr",
          "type": "string"
        },
        {
          "internalType": "uint256",
          "name": "_amount",
          "type": "uint256"
        }
      ],
      "name": "testDelegateFromContract",
      "outputs": [],
      "stateMutability": "payable",
      "type": "function"
    },
    {
      "inputs": [
        {
          "internalType": "address",
          "name": "depositor",
          "type": "address"
        },
        {
          "internalType": "string",
          "name": "validatorAddress",
          "type": "string"
        },
        {
          "components": [
            {
              "internalType": "string",
              "name": "denom",
              "type": "string"
            },
            {
              "internalType": "uint256",
              "name": "amount",
              "type": "uint256"
            }
          ],
          "internalType": "struct Coin[]",
          "name": "amount",
          "type": "tuple[]"
        }
      ],
      "name": "testDepositValidatorRewardsPool",
      "outputs": [
        {
          "internalType": "bool",
          "name": "success",
          "type": "bool"
        }
      ],
      "stateMutability": "nonpayable",
      "type": "function"
    },
    {
      "inputs": [
        {
          "internalType": "string",
          "name": "validatorAddress",
          "type": "string"
        },
        {
          "components": [
            {
              "internalType": "string",
              "name": "denom",
              "type": "string"
            },
            {
              "internalType": "uint256",
              "name": "amount",
              "type": "uint256"
            }
          ],
          "internalType": "struct Coin[]",
          "name": "amount",
          "type": "tuple[]"
        },
        {
          "internalType": "bool",
          "name": "_before",
          "type": "bool"
        },
        {
          "internalType": "bool",
          "name": "_after",
          "type": "bool"
        }
      ],
      "name": "testDepositValidatorRewardsPoolWithTransfer",
      "outputs": [],
      "stateMutability": "nonpayable",
      "type": "function"
    },
    {
      "inputs": [
        {
          "internalType": "address",
          "name": "depositor",
          "type": "address"
        },
        {
          "components": [
            {
              "internalType": "string",
              "name": "denom",
              "type": "string"
            },
            {
              "internalType": "uint256",
              "name": "amount",
              "type": "uint256"
            }
          ],
          "internalType": "struct Coin[]",
          "name": "amount",
          "type": "tuple[]"
        }
      ],
      "name": "testFundCommunityPool",
      "outputs": [
        {
          "internalType": "bool",
          "name": "success",
          "type": "bool"
        }
      ],
      "stateMutability": "nonpayable",
      "type": "function"
    },
    {
      "inputs": [
        {
          "internalType": "address payable",
          "name": "depositor",
          "type": "address"
        },
        {
          "components": [
            {
              "internalType": "string",
              "name": "denom",
              "type": "string"
            },
            {
              "internalType": "uint256",
              "name": "amount",
              "type": "uint256"
            }
          ],
          "internalType": "struct Coin[]",
          "name": "amount",
          "type": "tuple[]"
        },
        {
          "internalType": "bool",
          "name": "_before",
          "type": "bool"
        },
        {
          "internalType": "bool",
          "name": "_after",
          "type": "bool"
        }
      ],
      "name": "testFundCommunityPoolWithTransfer",
      "outputs": [],
      "stateMutability": "nonpayable",
      "type": "function"
    },
    {
      "inputs": [
        {
          "internalType": "string",
          "name": "_withdrawAddr",
          "type": "string"
        },
        {
          "internalType": "address",
          "name": "_delAddr",
          "type": "address"
        },
        {
          "internalType": "string",
          "name": "_valAddr",
          "type": "string"
        }
      ],
      "name": "testRevertState",
      "outputs": [
        {
          "components": [
            {
              "internalType": "string",
              "name": "denom",
              "type": "string"
            },
            {
              "internalType": "uint256",
              "name": "amount",
              "type": "uint256"
            }
          ],
          "internalType": "struct Coin[]",
          "name": "",
          "type": "tuple[]"
        }
      ],
      "stateMutability": "nonpayable",
      "type": "function"
    },
    {
      "inputs": [
        {
          "internalType": "address",
          "name": "_delAddr",
          "type": "address"
        },
        {
          "internalType": "string",
          "name": "_withdrawAddr",
          "type": "string"
        }
      ],
      "name": "testSetWithdrawAddress",
      "outputs": [
        {
          "internalType": "bool",
          "name": "",
          "type": "bool"
        }
      ],
      "stateMutability": "nonpayable",
      "type": "function"
    },
    {
      "inputs": [
        {
          "internalType": "string",
          "name": "_withdrawAddr",
          "type": "string"
        }
      ],
      "name": "testSetWithdrawAddressFromContract",
      "outputs": [
        {
          "internalType": "bool",
          "name": "",
          "type": "bool"
        }
      ],
      "stateMutability": "nonpayable",
      "type": "function"
    },
    {
      "inputs": [
        {
          "internalType": "address",
          "name": "delegatorAddress",
          "type": "address"
        },
        {
          "internalType": "uint32",
          "name": "maxRetrieve",
          "type": "uint32"
        }
      ],
      "name": "testTryClaimRewards",
      "outputs": [
        {
          "internalType": "bool",
          "name": "",
          "type": "bool"
        }
      ],
      "stateMutability": "nonpayable",
      "type": "function"
    },
    {
      "inputs": [
        {
          "internalType": "address",
          "name": "_delAddr",
          "type": "address"
        },
        {
          "internalType": "string",
          "name": "_valAddr",
          "type": "string"
        }
      ],
      "name": "testWithdrawDelegatorReward",
      "outputs": [
        {
          "components": [
            {
              "internalType": "string",
              "name": "denom",
              "type": "string"
            },
            {
              "internalType": "uint256",
              "name": "amount",
              "type": "uint256"
            }
          ],
          "internalType": "struct Coin[]",
          "name": "",
          "type": "tuple[]"
        }
      ],
      "stateMutability": "nonpayable",
      "type": "function"
    },
    {
      "inputs": [
        {
          "internalType": "string",
          "name": "_valAddr",
          "type": "string"
        }
      ],
      "name": "testWithdrawDelegatorRewardFromContract",
      "outputs": [
        {
          "components": [
            {
              "internalType": "string",
              "name": "denom",
              "type": "string"
            },
            {
              "internalType": "uint256",
              "name": "amount",
              "type": "uint256"
            }
          ],
          "internalType": "struct Coin[]",
          "name": "",
          "type": "tuple[]"
        }
      ],
      "stateMutability": "nonpayable",
      "type": "function"
    },
    {
      "inputs": [
        {
          "internalType": "string",
          "name": "_valAddr",
          "type": "string"
        },
        {
          "internalType": "bool",
          "name": "_before",
          "type": "bool"
        },
        {
          "internalType": "bool",
          "name": "_after",
          "type": "bool"
        }
      ],
      "name": "testWithdrawDelegatorRewardWithTransfer",
      "outputs": [
        {
          "components": [
            {
              "internalType": "string",
              "name": "denom",
              "type": "string"
            },
            {
              "internalType": "uint256",
              "name": "amount",
              "type": "uint256"
            }
          ],
          "internalType": "struct Coin[]",
          "name": "coins",
          "type": "tuple[]"
        }
      ],
      "stateMutability": "nonpayable",
      "type": "function"
    },
    {
      "inputs": [
        {
          "internalType": "string",
          "name": "_valAddr",
          "type": "string"
        }
      ],
      "name": "testWithdrawValidatorCommission",
      "outputs": [
        {
          "components": [
            {
              "internalType": "string",
              "name": "denom",
              "type": "string"
            },
            {
              "internalType": "uint256",
              "name": "amount",
              "type": "uint256"
            }
          ],
          "internalType": "struct Coin[]",
          "name": "",
          "type": "tuple[]"
        }
      ],
      "stateMutability": "nonpayable",
      "type": "function"
    },
    {
      "inputs": [
        {
          "internalType": "string",
          "name": "_valAddr",
          "type": "string"
        },
        {
          "internalType": "address payable",
          "name": "_withdrawer",
          "type": "address"
        },
        {
          "internalType": "bool",
          "name": "_before",
          "type": "bool"
        },
        {
          "internalType": "bool",
          "name": "_after",
          "type": "bool"
        }
      ],
      "name": "testWithdrawValidatorCommissionWithTransfer",
      "outputs": [
        {
          "components": [
            {
              "internalType": "string",
              "name": "denom",
              "type": "string"
            },
            {
              "internalType": "uint256",
              "name": "amount",
              "type": "uint256"
            }
          ],
          "internalType": "struct Coin[]",
          "name": "coins",
          "type": "tuple[]"
        }
      ],
      "stateMutability": "nonpayable",
      "type": "function"
    },
    {
      "inputs": [
        {
          "internalType": "address",
          "name": "_delAddr",
          "type": "address"
        },
        {
          "internalType": "string",
          "name": "_valAddr",
          "type": "string"
        }
      ],
      "name": "withdrawDelegatorRewardsAndRevert",
      "outputs": [
        {
          "components": [
            {
              "internalType": "string",
              "name": "denom",
              "type": "string"
            },
            {
              "internalType": "uint256",
              "name": "amount",
              "type": "uint256"
            }
          ],
          "internalType": "struct Coin[]",
          "name": "coins",
          "type": "tuple[]"
        }
      ],
      "stateMutability": "nonpayable",
      "type": "function"
    }
  ],
  "bytecode": "0x60806040526040518060200160405280604051806060016040528060238152602001620055676023913981525060009060016200003e92919062000053565b503480156200004c57600080fd5b50620004a1565b828054828255906000526020600020908101928215620000a0579160200282015b828111156200009f5782518290816200008e9190620003ba565b509160200191906001019062000074565b5b509050620000af9190620000b3565b5090565b5b80821115620000d75760008181620000cd9190620000db565b50600101620000b4565b5090565b508054620000e990620001a9565b6000825580601f10620000fd57506200011e565b601f0160209004906000526020600020908101906200011d919062000121565b5b50565b5b808211156200013c57600081600090555060010162000122565b5090565b600081519050919050565b7f4e487b7100000000000000000000000000000000000000000000000000000000600052604160045260246000fd5b7f4e487b7100000000000000000000000000000000000000000000000000000000600052602260045260246000fd5b60006002820490506001821680620001c257607f821691505b602082108103620001d857620001d76200017a565b5b50919050565b60008190508160005260206000209050919050565b60006020601f8301049050919050565b600082821b905092915050565b600060088302620002427fffffffffffffffffffffffffffffffffffffffffffffffffffffffffffffffff8262000203565b6200024e868362000203565b95508019841693508086168417925050509392505050565b6000819050919050565b6000819050919050565b60006200029b620002956200028f8462000266565b62000270565b62000266565b9050919050565b6000819050919050565b620002b7836200027a565b620002cf620002c682620002a2565b84845462000210565b825550505050565b600090565b620002e6620002d7565b620002f3818484620002ac565b505050565b5b818110156200031b576200030f600082620002dc565b600181019050620002f9565b5050565b601f8211156200036a576200033481620001de565b6200033f84620001f3565b810160208510156200034f578190505b620003676200035e85620001f3565b830182620002f8565b50505b505050565b600082821c905092915050565b60006200038f600019846008026200036f565b1980831691505092915050565b6000620003aa83836200037c565b9150826002028217905092915050565b620003c58262000140565b67ffffffffffffffff811115620003e157620003e06200014b565b5b620003ed8254620001a9565b620003fa8282856200031f565b600060209050601f8311600181146200043257600084156200041d578287015190505b6200042985826200039c565b86555062000499565b601f1984166200044286620001de565b60005b828110156200046c5784890151825560018201915060208501945060208101905062000445565b868310156200048c578489015162000488601f8916826200037c565b8355505b6001600288020188555050505b505050505050565b6150b680620004b16000396000f3fe6080604052600436106101e35760003560e01c80637c9db0bb11610102578063cb85aa0a11610095578063ddbfa27111610064578063ddbfa271146107b9578063e0421e39146107f6578063e236c7a614610833578063f9ed9b6714610871576101e3565b8063cb85aa0a14610719578063d0e30db014610756578063d3f831be14610760578063dd987c201461079d576101e3565b8063ad5c4cdd116100d1578063ad5c4cdd14610639578063b2d1788314610676578063b6a216ae146106b3578063be4efc57146106f0576101e3565b80637c9db0bb1461054457806388b2d5811461058157806393574cd1146105bf578063963516e4146105fc576101e3565b8063382d823c1161017a5780636b7a547c116101495780636b7a547c146104645780636f669da4146104a157806378a5dfd1146104de578063796b96d21461051b576101e3565b8063382d823c1461039457806346e16d34146103bf578063613d4de8146103fc57806361bc221a14610439576101e3565b80631b050207116101b65780631b050207146102c8578063201139a2146102f15780632947221b1461032e578063296c60aa1461036b576101e3565b806301b68000146101e85780630c05e9e4146102255780630da8476814610262578063151732ec1461029f575b600080fd5b3480156101f457600080fd5b5061020f600480360381019061020a9190612986565b61089a565b60405161021c9190612a43565b60405180910390f35b34801561023157600080fd5b5061024c60048036038101906102479190612b9a565b6109e2565b6040516102599190612ddd565b60405180910390f35b34801561026e57600080fd5b5061028960048036038101906102849190612dff565b610a72565b6040516102969190612f5a565b60405180910390f35b3480156102ab57600080fd5b506102c660048036038101906102c1919061313c565b610b01565b005b3480156102d457600080fd5b506102ef60048036038101906102ea9190613219565b610d94565b005b3480156102fd57600080fd5b5061031860048036038101906103139190612b9a565b610f1b565b6040516103259190612f5a565b60405180910390f35b34801561033a57600080fd5b506103556004803603810190610350919061329c565b610fa9565b6040516103629190612f5a565b60405180910390f35b34801561037757600080fd5b50610392600480360381019061038d9190612dff565b611235565b005b3480156103a057600080fd5b506103a9611376565b6040516103b69190613391565b60405180910390f35b3480156103cb57600080fd5b506103e660048036038101906103e19190612dff565b6113f3565b6040516103f391906133c2565b60405180910390f35b34801561040857600080fd5b50610423600480360381019061041e91906133dd565b61147d565b6040516104309190612f5a565b60405180910390f35b34801561044557600080fd5b5061044e611770565b60405161045b919061347c565b60405180910390f35b34801561047057600080fd5b5061048b60048036038101906104869190613497565b611783565b60405161049891906133c2565b60405180910390f35b3480156104ad57600080fd5b506104c860048036038101906104c3919061352f565b61189b565b6040516104d591906133c2565b60405180910390f35b3480156104ea57600080fd5b5061050560048036038101906105009190612dff565b611925565b6040516105129190613391565b60405180910390f35b34801561052757600080fd5b50610542600480360381019061053d9190612dff565b6119b2565b005b34801561055057600080fd5b5061056b60048036038101906105669190612b9a565b611af3565b6040516105789190613391565b60405180910390f35b34801561058d57600080fd5b506105a860048036038101906105a391906135d3565b611b7d565b6040516105b6929190613815565b60405180910390f35b3480156105cb57600080fd5b506105e660048036038101906105e1919061352f565b611c1b565b6040516105f391906133c2565b60405180910390f35b34801561060857600080fd5b50610623600480360381019061061e9190612b9a565b611cb3565b60405161063091906133c2565b60405180910390f35b34801561064557600080fd5b50610660600480360381019061065b9190612dff565b611d3c565b60405161066d9190612f5a565b60405180910390f35b34801561068257600080fd5b5061069d6004803603810190610698919061384c565b611dc8565b6040516106aa9190612f5a565b60405180910390f35b3480156106bf57600080fd5b506106da60048036038101906106d59190612986565b611f1d565b6040516106e79190613999565b60405180910390f35b3480156106fc57600080fd5b50610717600480360381019061071291906139bb565b611fa7565b005b34801561072557600080fd5b50610740600480360381019061073b9190612986565b61226d565b60405161074d9190613a58565b60405180910390f35b61075e6122f7565b005b34801561076c57600080fd5b5061078760048036038101906107829190612b9a565b6122f9565b6040516107949190613391565b60405180910390f35b6107b760048036038101906107b29190613a7a565b612383565b005b3480156107c557600080fd5b506107e060048036038101906107db9190613ad6565b61240a565b6040516107ed91906133c2565b60405180910390f35b34801561080257600080fd5b5061081d60048036038101906108189190612b9a565b612525565b60405161082a9190612f5a565b60405180910390f35b34801561083f57600080fd5b5061085a60048036038101906108559190612986565b6125b1565b604051610868929190613c67565b60405180910390f35b34801561087d57600080fd5b5061089860048036038101906108939190613c9e565b61263e565b005b606060008061080173ffffffffffffffffffffffffffffffffffffffff16846040516024016108c99190613d30565b6040516020818303038152906040527f5431f450000000000000000000000000000000000000000000000000000000007bffffffffffffffffffffffffffffffffffffffffffffffffffffffff19166020820180517bffffffffffffffffffffffffffffffffffffffffffffffffffffffff83818316178352505050506040516109539190613d87565b600060405180830381855afa9150503d806000811461098e576040519150601f19603f3d011682016040523d82523d6000602084013e610993565b606091505b5091509150816109d8576040517f08c379a00000000000000000000000000000000000000000000000000000000081526004016109cf90613dea565b60405180910390fd5b8092505050919050565b6109ea6128cf565b61080173ffffffffffffffffffffffffffffffffffffffff166354212a89836040518263ffffffff1660e01b8152600401610a259190613a58565b600060405180830381865afa158015610a42573d6000803e3d6000fd5b505050506040513d6000823e3d601f19601f82011682018060405250810190610a6b91906140d4565b9050919050565b606061080173ffffffffffffffffffffffffffffffffffffffff1663b46a8d6184846040518363ffffffff1660e01b8152600401610ab192919061411d565b6000604051808303816000875af1158015610ad0573d6000803e3d6000fd5b505050506040513d6000823e3d601f19601f82011682018060405250810190610af9919061426e565b905092915050565b8115610bff576001600081819054906101000a900460070b80929190610b26906142e6565b91906101000a81548167ffffffffffffffff021916908360070b67ffffffffffffffff1602179055505060003373ffffffffffffffffffffffffffffffffffffffff16600f604051610b779061433c565b60006040518083038185875af1925050503d8060008114610bb4576040519150601f19603f3d011682016040523d82523d6000602084013e610bb9565b606091505b5050905080610bfd576040517f08c379a0000000000000000000000000000000000000000000000000000000008152600401610bf4906143c3565b60405180910390fd5b505b600061080173ffffffffffffffffffffffffffffffffffffffff16632eb1df523087876040518463ffffffff1660e01b8152600401610c40939291906143e3565b6020604051808303816000875af1158015610c5f573d6000803e3d6000fd5b505050506040513d601f19601f82011682018060405250810190610c83919061443d565b905080610c8f57600080fd5b8115610d8d576001600081819054906101000a900460070b80929190610cb4906142e6565b91906101000a81548167ffffffffffffffff021916908360070b67ffffffffffffffff1602179055505060003373ffffffffffffffffffffffffffffffffffffffff16600f604051610d059061433c565b60006040518083038185875af1925050503d8060008114610d42576040519150601f19603f3d011682016040523d82523d6000602084013e610d47565b606091505b5050905080610d8b576040517f08c379a0000000000000000000000000000000000000000000000000000000008152600401610d82906143c3565b60405180910390fd5b505b5050505050565b3073ffffffffffffffffffffffffffffffffffffffff1663ad5c4cdd85846040518363ffffffff1660e01b8152600401610dcf9291906144c9565b6000604051808303816000875af1925050508015610e1057506040513d6000823e3d601f19601f82011682018060405250810190610e0d919061426e565b60015b15610e1757505b8015610f15576001600081819054906101000a900460070b80929190610e3c906142e6565b91906101000a81548167ffffffffffffffff021916908360070b67ffffffffffffffff1602179055505060008373ffffffffffffffffffffffffffffffffffffffff16600f604051610e8d9061433c565b60006040518083038185875af1925050503d8060008114610eca576040519150601f19603f3d011682016040523d82523d6000602084013e610ecf565b606091505b5050905080610f13576040517f08c379a0000000000000000000000000000000000000000000000000000000008152600401610f0a906143c3565b60405180910390fd5b505b50505050565b606061080173ffffffffffffffffffffffffffffffffffffffff1663b46a8d6130846040518363ffffffff1660e01b8152600401610f5a92919061411d565b6000604051808303816000875af1158015610f79573d6000803e3d6000fd5b505050506040513d6000823e3d601f19601f82011682018060405250810190610fa2919061426e565b9050919050565b606082156110a9576001600081819054906101000a900460070b80929190610fd0906142e6565b91906101000a81548167ffffffffffffffff021916908360070b67ffffffffffffffff1602179055505060003373ffffffffffffffffffffffffffffffffffffffff16600f6040516110219061433c565b60006040518083038185875af1925050503d806000811461105e576040519150601f19603f3d011682016040523d82523d6000602084013e611063565b606091505b50509050806110a7576040517f08c379a000000000000000000000000000000000000000000000000000000000815260040161109e906143c3565b60405180910390fd5b505b61080173ffffffffffffffffffffffffffffffffffffffff1663b46a8d6130866040518363ffffffff1660e01b81526004016110e692919061411d565b6000604051808303816000875af1158015611105573d6000803e3d6000fd5b505050506040513d6000823e3d601f19601f8201168201806040525081019061112e919061426e565b9050811561122e576001600081819054906101000a900460070b80929190611155906142e6565b91906101000a81548167ffffffffffffffff021916908360070b67ffffffffffffffff1602179055505060003373ffffffffffffffffffffffffffffffffffffffff16600f6040516111a69061433c565b60006040518083038185875af1925050503d80600081146111e3576040519150601f19603f3d011682016040523d82523d6000602084013e6111e8565b606091505b505090508061122c576040517f08c379a0000000000000000000000000000000000000000000000000000000008152600401611223906143c3565b60405180910390fd5b505b9392505050565b600061080173ffffffffffffffffffffffffffffffffffffffff16838360405160240161126392919061411d565b6040516020818303038152906040527f5a9d9a96000000000000000000000000000000000000000000000000000000007bffffffffffffffffffffffffffffffffffffffffffffffffffffffff19166020820180517bffffffffffffffffffffffffffffffffffffffffffffffffffffffff83818316178352505050506040516112ed9190613d87565b600060405180830381855af49150503d8060008114611328576040519150601f19603f3d011682016040523d82523d6000602084013e61132d565b606091505b5050905080611371576040517f08c379a00000000000000000000000000000000000000000000000000000000081526004016113689061456b565b60405180910390fd5b505050565b606061080173ffffffffffffffffffffffffffffffffffffffff166314d140b06040518163ffffffff1660e01b8152600401600060405180830381865afa1580156113c5573d6000803e3d6000fd5b505050506040513d6000823e3d601f19601f820116820180604052508101906113ee919061458b565b905090565b600061080173ffffffffffffffffffffffffffffffffffffffff16635a9d9a9684846040518363ffffffff1660e01b815260040161143292919061411d565b6020604051808303816000875af1158015611451573d6000803e3d6000fd5b505050506040513d601f19601f82011682018060405250810190611475919061443d565b905092915050565b606082156115b1576001600081819054906101000a900460070b809291906114a4906142e6565b91906101000a81548167ffffffffffffffff021916908360070b67ffffffffffffffff160217905550503073ffffffffffffffffffffffffffffffffffffffff168473ffffffffffffffffffffffffffffffffffffffff16146115b05760008473ffffffffffffffffffffffffffffffffffffffff16600f6040516115289061433c565b60006040518083038185875af1925050503d8060008114611565576040519150601f19603f3d011682016040523d82523d6000602084013e61156a565b606091505b50509050806115ae576040517f08c379a00000000000000000000000000000000000000000000000000000000081526004016115a5906143c3565b60405180910390fd5b505b5b61080173ffffffffffffffffffffffffffffffffffffffff16633ce4e3be866040518263ffffffff1660e01b81526004016115ec9190613a58565b6000604051808303816000875af115801561160b573d6000803e3d6000fd5b505050506040513d6000823e3d601f19601f82011682018060405250810190611634919061426e565b90508115611768576001600081819054906101000a900460070b8092919061165b906142e6565b91906101000a81548167ffffffffffffffff021916908360070b67ffffffffffffffff160217905550503073ffffffffffffffffffffffffffffffffffffffff168473ffffffffffffffffffffffffffffffffffffffff16146117675760008473ffffffffffffffffffffffffffffffffffffffff16600f6040516116df9061433c565b60006040518083038185875af1925050503d806000811461171c576040519150601f19603f3d011682016040523d82523d6000602084013e611721565b606091505b5050905080611765576040517f08c379a000000000000000000000000000000000000000000000000000000000815260040161175c906143c3565b60405180910390fd5b505b5b949350505050565b600160009054906101000a900460070b81565b600060018060008282829054906101000a900460070b6117a391906145d4565b92506101000a81548167ffffffffffffffff021916908360070b67ffffffffffffffff16021790555061080173ffffffffffffffffffffffffffffffffffffffff16632d2b079c84846040518363ffffffff1660e01b8152600401611809929190614634565b6020604051808303816000875af1158015611828573d6000803e3d6000fd5b505050506040513d601f19601f8201168201806040525081019061184c919061443d565b905060018060008282829054906101000a900460070b61186c9190614664565b92506101000a81548167ffffffffffffffff021916908360070b67ffffffffffffffff16021790555092915050565b600061080173ffffffffffffffffffffffffffffffffffffffff16632efe8a5f84846040518363ffffffff1660e01b81526004016118da9291906146d3565b6020604051808303816000875af11580156118f9573d6000803e3d6000fd5b505050506040513d601f19601f8201168201806040525081019061191d919061443d565b905092915050565b606061080173ffffffffffffffffffffffffffffffffffffffff16639ad563b484846040518363ffffffff1660e01b815260040161196492919061411d565b600060405180830381865afa158015611981573d6000803e3d6000fd5b505050506040513d6000823e3d601f19601f820116820180604052508101906119aa919061458b565b905092915050565b600061080173ffffffffffffffffffffffffffffffffffffffff1683836040516024016119e092919061411d565b6040516020818303038152906040527f5a9d9a96000000000000000000000000000000000000000000000000000000007bffffffffffffffffffffffffffffffffffffffffffffffffffffffff19166020820180517bffffffffffffffffffffffffffffffffffffffffffffffffffffffff8381831617835250505050604051611a6a9190613d87565b600060405180830381855afa9150503d8060008114611aa5576040519150601f19603f3d011682016040523d82523d6000602084013e611aaa565b606091505b5050905080611aee576040517f08c379a0000000000000000000000000000000000000000000000000000000008152600401611ae590613dea565b60405180910390fd5b505050565b606061080173ffffffffffffffffffffffffffffffffffffffff16633dd40f78836040518263ffffffff1660e01b8152600401611b309190613a58565b600060405180830381865afa158015611b4d573d6000803e3d6000fd5b505050506040513d6000823e3d601f19601f82011682018060405250810190611b76919061458b565b9050919050565b6060611b876128f0565b61080173ffffffffffffffffffffffffffffffffffffffff16638f2473ce878787876040518563ffffffff1660e01b8152600401611bc89493929190614887565b600060405180830381865afa158015611be5573d6000803e3d6000fd5b505050506040513d6000823e3d601f19601f82011682018060405250810190611c0e9190614b5f565b9150915094509492505050565b60008061080173ffffffffffffffffffffffffffffffffffffffff16632efe8a5f85856040518363ffffffff1660e01b8152600401611c5b9291906146d3565b6020604051808303816000875af1925050508015611c9757506040513d601f19601f82011682018060405250810190611c94919061443d565b60015b611ca45760009050611ca9565b809150505b8091505092915050565b600061080173ffffffffffffffffffffffffffffffffffffffff16635a9d9a9630846040518363ffffffff1660e01b8152600401611cf292919061411d565b6020604051808303816000875af1158015611d11573d6000803e3d6000fd5b505050506040513d601f19601f82011682018060405250810190611d35919061443d565b9050919050565b606061080173ffffffffffffffffffffffffffffffffffffffff1663b46a8d6184846040518363ffffffff1660e01b8152600401611d7b92919061411d565b6000604051808303816000875af1158015611d9a573d6000803e3d6000fd5b505050506040513d6000823e3d601f19601f82011682018060405250810190611dc3919061426e565b600080fd5b6060600061080173ffffffffffffffffffffffffffffffffffffffff16635a9d9a9633876040518363ffffffff1660e01b8152600401611e0992919061411d565b6020604051808303816000875af1158015611e28573d6000803e3d6000fd5b505050506040513d601f19601f82011682018060405250810190611e4c919061443d565b905080611e8e576040517f08c379a0000000000000000000000000000000000000000000000000000000008152600401611e8590614c23565b60405180910390fd5b61080173ffffffffffffffffffffffffffffffffffffffff1663b46a8d6185856040518363ffffffff1660e01b8152600401611ecb92919061411d565b6000604051808303816000875af1158015611eea573d6000803e3d6000fd5b505050506040513d6000823e3d601f19601f82011682018060405250810190611f13919061426e565b9150509392505050565b606061080173ffffffffffffffffffffffffffffffffffffffff1663a66cb605836040518263ffffffff1660e01b8152600401611f5a9190613d30565b600060405180830381865afa158015611f77573d6000803e3d6000fd5b505050506040513d6000823e3d601f19601f82011682018060405250810190611fa09190614d24565b9050919050565b81156120a5576001600081819054906101000a900460070b80929190611fcc906142e6565b91906101000a81548167ffffffffffffffff021916908360070b67ffffffffffffffff1602179055505060003373ffffffffffffffffffffffffffffffffffffffff16600f60405161201d9061433c565b60006040518083038185875af1925050503d806000811461205a576040519150601f19603f3d011682016040523d82523d6000602084013e61205f565b606091505b50509050806120a3576040517f08c379a000000000000000000000000000000000000000000000000000000000815260040161209a906143c3565b60405180910390fd5b505b600061080173ffffffffffffffffffffffffffffffffffffffff16632efe8a5f30866040518363ffffffff1660e01b81526004016120e49291906146d3565b6020604051808303816000875af1158015612103573d6000803e3d6000fd5b505050506040513d601f19601f82011682018060405250810190612127919061443d565b905080612169576040517f08c379a000000000000000000000000000000000000000000000000000000000815260040161216090614db9565b60405180910390fd5b8115612267576001600081819054906101000a900460070b8092919061218e906142e6565b91906101000a81548167ffffffffffffffff021916908360070b67ffffffffffffffff1602179055505060003373ffffffffffffffffffffffffffffffffffffffff16600f6040516121df9061433c565b60006040518083038185875af1925050503d806000811461221c576040519150601f19603f3d011682016040523d82523d6000602084013e612221565b606091505b5050905080612265576040517f08c379a000000000000000000000000000000000000000000000000000000000815260040161225c906143c3565b60405180910390fd5b505b50505050565b606061080173ffffffffffffffffffffffffffffffffffffffff16635431f450836040518263ffffffff1660e01b81526004016122aa9190613d30565b600060405180830381865afa1580156122c7573d6000803e3d6000fd5b505050506040513d6000823e3d601f19601f820116820180604052508101906122f09190614dd9565b9050919050565b565b606061080173ffffffffffffffffffffffffffffffffffffffff166385b2d2da836040518263ffffffff1660e01b81526004016123369190613a58565b600060405180830381865afa158015612353573d6000803e3d6000fd5b505050506040513d6000823e3d601f19601f8201168201806040525081019061237c919061458b565b9050919050565b61080073ffffffffffffffffffffffffffffffffffffffff166353266bbb3084846040518463ffffffff1660e01b81526004016123c293929190614e31565b6020604051808303816000875af11580156123e1573d6000803e3d6000fd5b505050506040513d601f19601f82011682018060405250810190612405919061443d565b505050565b600060018060008282829054906101000a900460070b61242a91906145d4565b92506101000a81548167ffffffffffffffff021916908360070b67ffffffffffffffff16021790555061080173ffffffffffffffffffffffffffffffffffffffff16632eb1df528585856040518463ffffffff1660e01b8152600401612492939291906143e3565b6020604051808303816000875af11580156124b1573d6000803e3d6000fd5b505050506040513d601f19601f820116820180604052508101906124d5919061443d565b905060018060008282829054906101000a900460070b6124f59190614664565b92506101000a81548167ffffffffffffffff021916908360070b67ffffffffffffffff1602179055509392505050565b606061080173ffffffffffffffffffffffffffffffffffffffff16633ce4e3be836040518263ffffffff1660e01b81526004016125629190613a58565b6000604051808303816000875af1158015612581573d6000803e3d6000fd5b505050506040513d6000823e3d601f19601f820116820180604052508101906125aa919061426e565b9050919050565b60608061080173ffffffffffffffffffffffffffffffffffffffff166354be1a28846040518263ffffffff1660e01b81526004016125ef9190613d30565b600060405180830381865afa15801561260c573d6000803e3d6000fd5b505050506040513d6000823e3d601f19601f820116820180604052508101906126359190614fd8565b91509150915091565b811561273c576001600081819054906101000a900460070b80929190612663906142e6565b91906101000a81548167ffffffffffffffff021916908360070b67ffffffffffffffff1602179055505060008473ffffffffffffffffffffffffffffffffffffffff16600f6040516126b49061433c565b60006040518083038185875af1925050503d80600081146126f1576040519150601f19603f3d011682016040523d82523d6000602084013e6126f6565b606091505b505090508061273a576040517f08c379a0000000000000000000000000000000000000000000000000000000008152600401612731906143c3565b60405180910390fd5b505b600061080173ffffffffffffffffffffffffffffffffffffffff16632d2b079c86866040518363ffffffff1660e01b815260040161277b929190615050565b6020604051808303816000875af115801561279a573d6000803e3d6000fd5b505050506040513d601f19601f820116820180604052508101906127be919061443d565b9050806127ca57600080fd5b81156128c8576001600081819054906101000a900460070b809291906127ef906142e6565b91906101000a81548167ffffffffffffffff021916908360070b67ffffffffffffffff1602179055505060008573ffffffffffffffffffffffffffffffffffffffff16600f6040516128409061433c565b60006040518083038185875af1925050503d806000811461287d576040519150601f19603f3d011682016040523d82523d6000602084013e612882565b606091505b50509050806128c6576040517f08c379a00000000000000000000000000000000000000000000000000000000081526004016128bd906143c3565b60405180910390fd5b505b5050505050565b60405180606001604052806060815260200160608152602001606081525090565b604051806040016040528060608152602001600067ffffffffffffffff1681525090565b6000604051905090565b600080fd5b600080fd5b600073ffffffffffffffffffffffffffffffffffffffff82169050919050565b600061295382612928565b9050919050565b61296381612948565b811461296e57600080fd5b50565b6000813590506129808161295a565b92915050565b60006020828403121561299c5761299b61291e565b5b60006129aa84828501612971565b91505092915050565b600081519050919050565b600082825260208201905092915050565b60005b838110156129ed5780820151818401526020810190506129d2565b60008484015250505050565b6000601f19601f8301169050919050565b6000612a15826129b3565b612a1f81856129be565b9350612a2f8185602086016129cf565b612a38816129f9565b840191505092915050565b60006020820190508181036000830152612a5d8184612a0a565b905092915050565b600080fd5b600080fd5b7f4e487b7100000000000000000000000000000000000000000000000000000000600052604160045260246000fd5b612aa7826129f9565b810181811067ffffffffffffffff82111715612ac657612ac5612a6f565b5b80604052505050565b6000612ad9612914565b9050612ae58282612a9e565b919050565b600067ffffffffffffffff821115612b0557612b04612a6f565b5b612b0e826129f9565b9050602081019050919050565b82818337600083830152505050565b6000612b3d612b3884612aea565b612acf565b905082815260208101848484011115612b5957612b58612a6a565b5b612b64848285612b1b565b509392505050565b600082601f830112612b8157612b80612a65565b5b8135612b91848260208601612b2a565b91505092915050565b600060208284031215612bb057612baf61291e565b5b600082013567ffffffffffffffff811115612bce57612bcd612923565b5b612bda84828501612b6c565b91505092915050565b600081519050919050565b600082825260208201905092915050565b6000612c0a82612be3565b612c148185612bee565b9350612c248185602086016129cf565b612c2d816129f9565b840191505092915050565b600081519050919050565b600082825260208201905092915050565b6000819050602082019050919050565b6000819050919050565b612c7781612c64565b82525050565b600060ff82169050919050565b612c9381612c7d565b82525050565b60006060830160008301518482036000860152612cb68282612bff565b9150506020830151612ccb6020860182612c6e565b506040830151612cde6040860182612c8a565b508091505092915050565b6000612cf58383612c99565b905092915050565b6000602082019050919050565b6000612d1582612c38565b612d1f8185612c43565b935083602082028501612d3185612c54565b8060005b85811015612d6d5784840389528151612d4e8582612ce9565b9450612d5983612cfd565b925060208a01995050600181019050612d35565b50829750879550505050505092915050565b60006060830160008301518482036000860152612d9c8282612bff565b91505060208301518482036020860152612db68282612d0a565b91505060408301518482036040860152612dd08282612d0a565b9150508091505092915050565b60006020820190508181036000830152612df78184612d7f565b905092915050565b60008060408385031215612e1657612e1561291e565b5b6000612e2485828601612971565b925050602083013567ffffffffffffffff811115612e4557612e44612923565b5b612e5185828601612b6c565b9150509250929050565b600081519050919050565b600082825260208201905092915050565b6000819050602082019050919050565b60006040830160008301518482036000860152612ea48282612bff565b9150506020830151612eb96020860182612c6e565b508091505092915050565b6000612ed08383612e87565b905092915050565b6000602082019050919050565b6000612ef082612e5b565b612efa8185612e66565b935083602082028501612f0c85612e77565b8060005b85811015612f485784840389528151612f298582612ec4565b9450612f3483612ed8565b925060208a01995050600181019050612f10565b50829750879550505050505092915050565b60006020820190508181036000830152612f748184612ee5565b905092915050565b600067ffffffffffffffff821115612f9757612f96612a6f565b5b602082029050602081019050919050565b600080fd5b600080fd5b600080fd5b612fc081612c64565b8114612fcb57600080fd5b50565b600081359050612fdd81612fb7565b92915050565b600060408284031215612ff957612ff8612fad565b5b6130036040612acf565b9050600082013567ffffffffffffffff81111561302357613022612fb2565b5b61302f84828501612b6c565b600083015250602061304384828501612fce565b60208301525092915050565b600061306261305d84612f7c565b612acf565b9050808382526020820190506020840283018581111561308557613084612fa8565b5b835b818110156130cc57803567ffffffffffffffff8111156130aa576130a9612a65565b5b8086016130b78982612fe3565b85526020850194505050602081019050613087565b5050509392505050565b600082601f8301126130eb576130ea612a65565b5b81356130fb84826020860161304f565b91505092915050565b60008115159050919050565b61311981613104565b811461312457600080fd5b50565b60008135905061313681613110565b92915050565b600080600080608085870312156131565761315561291e565b5b600085013567ffffffffffffffff81111561317457613173612923565b5b61318087828801612b6c565b945050602085013567ffffffffffffffff8111156131a1576131a0612923565b5b6131ad878288016130d6565b93505060406131be87828801613127565b92505060606131cf87828801613127565b91505092959194509250565b60006131e682612928565b9050919050565b6131f6816131db565b811461320157600080fd5b50565b600081359050613213816131ed565b92915050565b600080600080608085870312156132335761323261291e565b5b600061324187828801613204565b945050602061325287828801613204565b935050604085013567ffffffffffffffff81111561327357613272612923565b5b61327f87828801612b6c565b925050606061329087828801613127565b91505092959194509250565b6000806000606084860312156132b5576132b461291e565b5b600084013567ffffffffffffffff8111156132d3576132d2612923565b5b6132df86828701612b6c565b93505060206132f086828701613127565b925050604061330186828701613127565b9150509250925092565b600082825260208201905092915050565b600061332782612c38565b613331818561330b565b93508360208202850161334385612c54565b8060005b8581101561337f57848403895281516133608582612ce9565b945061336b83612cfd565b925060208a01995050600181019050613347565b50829750879550505050505092915050565b600060208201905081810360008301526133ab818461331c565b905092915050565b6133bc81613104565b82525050565b60006020820190506133d760008301846133b3565b92915050565b600080600080608085870312156133f7576133f661291e565b5b600085013567ffffffffffffffff81111561341557613414612923565b5b61342187828801612b6c565b945050602061343287828801613204565b935050604061344387828801613127565b925050606061345487828801613127565b91505092959194509250565b60008160070b9050919050565b61347681613460565b82525050565b6000602082019050613491600083018461346d565b92915050565b600080604083850312156134ae576134ad61291e565b5b60006134bc85828601612971565b925050602083013567ffffffffffffffff8111156134dd576134dc612923565b5b6134e9858286016130d6565b9150509250929050565b600063ffffffff82169050919050565b61350c816134f3565b811461351757600080fd5b50565b60008135905061352981613503565b92915050565b600080604083850312156135465761354561291e565b5b600061355485828601612971565b92505060206135658582860161351a565b9150509250929050565b600067ffffffffffffffff82169050919050565b61358c8161356f565b811461359757600080fd5b50565b6000813590506135a981613583565b92915050565b600080fd5b600060a082840312156135ca576135c96135af565b5b81905092915050565b600080600080608085870312156135ed576135ec61291e565b5b600085013567ffffffffffffffff81111561360b5761360a612923565b5b61361787828801612b6c565b94505060206136288782880161359a565b93505060406136398782880161359a565b925050606085013567ffffffffffffffff81111561365a57613659612923565b5b613666878288016135b4565b91505092959194509250565b600081519050919050565b600082825260208201905092915050565b6000819050602082019050919050565b6136a78161356f565b82525050565b6040820160008201516136c36000850182612c6e565b5060208201516136d66020850182612c8a565b50505050565b6060820160008201516136f2600085018261369e565b50602082015161370560208501826136ad565b50505050565b600061371783836136dc565b60608301905092915050565b6000602082019050919050565b600061373b82613672565b613745818561367d565b93506137508361368e565b8060005b83811015613781578151613768888261370b565b975061377383613723565b925050600181019050613754565b5085935050505092915050565b600082825260208201905092915050565b60006137aa826129b3565b6137b4818561378e565b93506137c48185602086016129cf565b6137cd816129f9565b840191505092915050565b600060408301600083015184820360008601526137f5828261379f565b915050602083015161380a602086018261369e565b508091505092915050565b6000604082019050818103600083015261382f8185613730565b9050818103602083015261384381846137d8565b90509392505050565b6000806000606084860312156138655761386461291e565b5b600084013567ffffffffffffffff81111561388357613882612923565b5b61388f86828701612b6c565b93505060206138a086828701612971565b925050604084013567ffffffffffffffff8111156138c1576138c0612923565b5b6138cd86828701612b6c565b9150509250925092565b600081519050919050565b600082825260208201905092915050565b6000819050602082019050919050565b600061390f8383612bff565b905092915050565b6000602082019050919050565b600061392f826138d7565b61393981856138e2565b93508360208202850161394b856138f3565b8060005b8581101561398757848403895281516139688582613903565b945061397383613917565b925060208a0199505060018101905061394f565b50829750879550505050505092915050565b600060208201905081810360008301526139b38184613924565b905092915050565b6000806000606084860312156139d4576139d361291e565b5b60006139e28682870161351a565b93505060206139f386828701613127565b9250506040613a0486828701613127565b9150509250925092565b600082825260208201905092915050565b6000613a2a82612be3565b613a348185613a0e565b9350613a448185602086016129cf565b613a4d816129f9565b840191505092915050565b60006020820190508181036000830152613a728184613a1f565b905092915050565b60008060408385031215613a9157613a9061291e565b5b600083013567ffffffffffffffff811115613aaf57613aae612923565b5b613abb85828601612b6c565b9250506020613acc85828601612fce565b9150509250929050565b600080600060608486031215613aef57613aee61291e565b5b6000613afd86828701612971565b935050602084013567ffffffffffffffff811115613b1e57613b1d612923565b5b613b2a86828701612b6c565b925050604084013567ffffffffffffffff811115613b4b57613b4a612923565b5b613b57868287016130d6565b9150509250925092565b600081519050919050565b600082825260208201905092915050565b6000819050602082019050919050565b60006040830160008301518482036000860152613baa8282612bff565b91505060208301518482036020860152613bc48282612d0a565b9150508091505092915050565b6000613bdd8383613b8d565b905092915050565b6000602082019050919050565b6000613bfd82613b61565b613c078185613b6c565b935083602082028501613c1985613b7d565b8060005b85811015613c555784840389528151613c368582613bd1565b9450613c4183613be5565b925060208a01995050600181019050613c1d565b50829750879550505050505092915050565b60006040820190508181036000830152613c818185613bf2565b90508181036020830152613c95818461331c565b90509392505050565b60008060008060808587031215613cb857613cb761291e565b5b6000613cc687828801613204565b945050602085013567ffffffffffffffff811115613ce757613ce6612923565b5b613cf3878288016130d6565b9350506040613d0487828801613127565b9250506060613d1587828801613127565b91505092959194509250565b613d2a81612948565b82525050565b6000602082019050613d456000830184613d21565b92915050565b600081905092915050565b6000613d61826129b3565b613d6b8185613d4b565b9350613d7b8185602086016129cf565b80840191505092915050565b6000613d938284613d56565b915081905092915050565b7f6661696c65642073746174696343616c6c20746f20707265636f6d70696c6500600082015250565b6000613dd4601f83613a0e565b9150613ddf82613d9e565b602082019050919050565b60006020820190508181036000830152613e0381613dc7565b9050919050565b6000613e1d613e1884612aea565b612acf565b905082815260208101848484011115613e3957613e38612a6a565b5b613e448482856129cf565b509392505050565b600082601f830112613e6157613e60612a65565b5b8151613e71848260208601613e0a565b91505092915050565b600067ffffffffffffffff821115613e9557613e94612a6f565b5b602082029050602081019050919050565b600081519050613eb581612fb7565b92915050565b613ec481612c7d565b8114613ecf57600080fd5b50565b600081519050613ee181613ebb565b92915050565b600060608284031215613efd57613efc612fad565b5b613f076060612acf565b9050600082015167ffffffffffffffff811115613f2757613f26612fb2565b5b613f3384828501613e4c565b6000830152506020613f4784828501613ea6565b6020830152506040613f5b84828501613ed2565b60408301525092915050565b6000613f7a613f7584613e7a565b612acf565b90508083825260208201905060208402830185811115613f9d57613f9c612fa8565b5b835b81811015613fe457805167ffffffffffffffff811115613fc257613fc1612a65565b5b808601613fcf8982613ee7565b85526020850194505050602081019050613f9f565b5050509392505050565b600082601f83011261400357614002612a65565b5b8151614013848260208601613f67565b91505092915050565b60006060828403121561403257614031612fad565b5b61403c6060612acf565b9050600082015167ffffffffffffffff81111561405c5761405b612fb2565b5b61406884828501613e4c565b600083015250602082015167ffffffffffffffff81111561408c5761408b612fb2565b5b61409884828501613fee565b602083015250604082015167ffffffffffffffff8111156140bc576140bb612fb2565b5b6140c884828501613fee565b60408301525092915050565b6000602082840312156140ea576140e961291e565b5b600082015167ffffffffffffffff81111561410857614107612923565b5b6141148482850161401c565b91505092915050565b60006040820190506141326000830185613d21565b81810360208301526141448184613a1f565b90509392505050565b60006040828403121561416357614162612fad565b5b61416d6040612acf565b9050600082015167ffffffffffffffff81111561418d5761418c612fb2565b5b61419984828501613e4c565b60008301525060206141ad84828501613ea6565b60208301525092915050565b60006141cc6141c784612f7c565b612acf565b905080838252602082019050602084028301858111156141ef576141ee612fa8565b5b835b8181101561423657805167ffffffffffffffff81111561421457614213612a65565b5b808601614221898261414d565b855260208501945050506020810190506141f1565b5050509392505050565b600082601f83011261425557614254612a65565b5b81516142658482602086016141b9565b91505092915050565b6000602082840312156142845761428361291e565b5b600082015167ffffffffffffffff8111156142a2576142a1612923565b5b6142ae84828501614240565b91505092915050565b7f4e487b7100000000000000000000000000000000000000000000000000000000600052601160045260246000fd5b60006142f182613460565b9150677fffffffffffffff820361430b5761430a6142b7565b5b600182019050919050565b50565b6000614326600083613d4b565b915061433182614316565b600082019050919050565b600061434782614319565b9150819050919050565b7f4661696c656420746f2073656e6420457468657220746f2064656c656761746f60008201527f7200000000000000000000000000000000000000000000000000000000000000602082015250565b60006143ad602183613a0e565b91506143b882614351565b604082019050919050565b600060208201905081810360008301526143dc816143a0565b9050919050565b60006060820190506143f86000830186613d21565b818103602083015261440a8185613a1f565b9050818103604083015261441e8184612ee5565b9050949350505050565b60008151905061443781613110565b92915050565b6000602082840312156144535761445261291e565b5b600061446184828501614428565b91505092915050565b6000819050919050565b600061448f61448a61448584612928565b61446a565b612928565b9050919050565b60006144a182614474565b9050919050565b60006144b382614496565b9050919050565b6144c3816144a8565b82525050565b60006040820190506144de60008301856144ba565b81810360208301526144f08184613a1f565b90509392505050565b7f6661696c65642064656c656761746543616c6c20746f20707265636f6d70696c60008201527f6500000000000000000000000000000000000000000000000000000000000000602082015250565b6000614555602183613a0e565b9150614560826144f9565b604082019050919050565b6000602082019050818103600083015261458481614548565b9050919050565b6000602082840312156145a1576145a061291e565b5b600082015167ffffffffffffffff8111156145bf576145be612923565b5b6145cb84828501613fee565b91505092915050565b60006145df82613460565b91506145ea83613460565b925082820190507fffffffffffffffffffffffffffffffffffffffffffffffff80000000000000008112677fffffffffffffff8213171561462e5761462d6142b7565b5b92915050565b60006040820190506146496000830185613d21565b818103602083015261465b8184612ee5565b90509392505050565b600061466f82613460565b915061467a83613460565b92508282039050677fffffffffffffff81137fffffffffffffffffffffffffffffffffffffffffffffffff8000000000000000821217156146be576146bd6142b7565b5b92915050565b6146cd816134f3565b82525050565b60006040820190506146e86000830185613d21565b6146f560208301846146c4565b9392505050565b6147058161356f565b82525050565b600080fd5b600080fd5b600080fd5b6000808335600160200384360303811261473757614736614715565b5b83810192508235915060208301925067ffffffffffffffff82111561475f5761475e61470b565b5b60018202360383131561477557614774614710565b5b509250929050565b6000614789838561378e565b9350614796838584612b1b565b61479f836129f9565b840190509392505050565b60006147b9602084018461359a565b905092915050565b60006147d06020840184613127565b905092915050565b6147e181613104565b82525050565b600060a083016147fa600084018461471a565b858303600087015261480d83828461477d565b9250505061481e60208401846147aa565b61482b602086018261369e565b5061483960408401846147aa565b614846604086018261369e565b5061485460608401846147c1565b61486160608601826147d8565b5061486f60808401846147c1565b61487c60808601826147d8565b508091505092915050565b600060808201905081810360008301526148a18187613a1f565b90506148b060208301866146fc565b6148bd60408301856146fc565b81810360608301526148cf81846147e7565b905095945050505050565b600067ffffffffffffffff8211156148f5576148f4612a6f565b5b602082029050602081019050919050565b60008151905061491581613583565b92915050565b60006040828403121561493157614930612fad565b5b61493b6040612acf565b9050600061494b84828501613ea6565b600083015250602061495f84828501613ed2565b60208301525092915050565b60006060828403121561498157614980612fad565b5b61498b6040612acf565b9050600061499b84828501614906565b60008301525060206149af8482850161491b565b60208301525092915050565b60006149ce6149c9846148da565b612acf565b905080838252602082019050606084028301858111156149f1576149f0612fa8565b5b835b81811015614a1a5780614a06888261496b565b8452602084019350506060810190506149f3565b5050509392505050565b600082601f830112614a3957614a38612a65565b5b8151614a498482602086016149bb565b91505092915050565b600067ffffffffffffffff821115614a6d57614a6c612a6f565b5b614a76826129f9565b9050602081019050919050565b6000614a96614a9184614a52565b612acf565b905082815260208101848484011115614ab257614ab1612a6a565b5b614abd8482856129cf565b509392505050565b600082601f830112614ada57614ad9612a65565b5b8151614aea848260208601614a83565b91505092915050565b600060408284031215614b0957614b08612fad565b5b614b136040612acf565b9050600082015167ffffffffffffffff811115614b3357614b32612fb2565b5b614b3f84828501614ac5565b6000830152506020614b5384828501614906565b60208301525092915050565b60008060408385031215614b7657614b7561291e565b5b600083015167ffffffffffffffff811115614b9457614b93612923565b5b614ba085828601614a24565b925050602083015167ffffffffffffffff811115614bc157614bc0612923565b5b614bcd85828601614af3565b9150509250929050565b7f6661696c656420746f2073657420776974686472617720616464726573730000600082015250565b6000614c0d601e83613a0e565b9150614c1882614bd7565b602082019050919050565b60006020820190508181036000830152614c3c81614c00565b9050919050565b600067ffffffffffffffff821115614c5e57614c5d612a6f565b5b602082029050602081019050919050565b6000614c82614c7d84614c43565b612acf565b90508083825260208201905060208402830185811115614ca557614ca4612fa8565b5b835b81811015614cec57805167ffffffffffffffff811115614cca57614cc9612a65565b5b808601614cd78982613e4c565b85526020850194505050602081019050614ca7565b5050509392505050565b600082601f830112614d0b57614d0a612a65565b5b8151614d1b848260208601614c6f565b91505092915050565b600060208284031215614d3a57614d3961291e565b5b600082015167ffffffffffffffff811115614d5857614d57612923565b5b614d6484828501614cf6565b91505092915050565b7f6661696c656420746f20636c61696d2072657761726473000000000000000000600082015250565b6000614da3601783613a0e565b9150614dae82614d6d565b602082019050919050565b60006020820190508181036000830152614dd281614d96565b9050919050565b600060208284031215614def57614dee61291e565b5b600082015167ffffffffffffffff811115614e0d57614e0c612923565b5b614e1984828501613e4c565b91505092915050565b614e2b81612c64565b82525050565b6000606082019050614e466000830186613d21565b8181036020830152614e588185613a1f565b9050614e676040830184614e22565b949350505050565b600067ffffffffffffffff821115614e8a57614e89612a6f565b5b602082029050602081019050919050565b600060408284031215614eb157614eb0612fad565b5b614ebb6040612acf565b9050600082015167ffffffffffffffff811115614edb57614eda612fb2565b5b614ee784828501613e4c565b600083015250602082015167ffffffffffffffff811115614f0b57614f0a612fb2565b5b614f1784828501613fee565b60208301525092915050565b6000614f36614f3184614e6f565b612acf565b90508083825260208201905060208402830185811115614f5957614f58612fa8565b5b835b81811015614fa057805167ffffffffffffffff811115614f7e57614f7d612a65565b5b808601614f8b8982614e9b565b85526020850194505050602081019050614f5b565b5050509392505050565b600082601f830112614fbf57614fbe612a65565b5b8151614fcf848260208601614f23565b91505092915050565b60008060408385031215614fef57614fee61291e565b5b600083015167ffffffffffffffff81111561500d5761500c612923565b5b61501985828601614faa565b925050602083015167ffffffffffffffff81111561503a57615039612923565b5b61504685828601613fee565b9150509250929050565b600060408201905061506560008301856144ba565b81810360208301526150778184612ee5565b9050939250505056fea264697066735822122029031955eea8124bd387b1347ffc0b95c6f6481176b99631d2f22f619cdd7ae164736f6c634300081400332f636f736d6f732e7374616b696e672e763162657461312e4d736744656c6567617465",
  "linkReferences": {},
  "deployedLinkReferences": {}
}