{
  "_format": "hh-sol-artifact-1",
  "contractName": "DistributionCaller",
  "sourceName": "solidity/precompiles/testutil/contracts/DistributionCaller.sol",
  "abi": [
    {
      "inputs": [],
      "name": "counter",
      "outputs": [
        {
          "internalType": "int64",
          "name": "",
          "type": "int64"
        }
      ],
      "stateMutability": "view",
      "type": "function"
    },
    {
      "inputs": [
        {
          "internalType": "address",
          "name": "_delAddr",
          "type": "address"
        },
        {
          "internalType": "string",
          "name": "_withdrawAddr",
          "type": "string"
        }
      ],
      "name": "delegateCallSetWithdrawAddress",
      "outputs": [],
      "stateMutability": "nonpayable",
      "type": "function"
    },
    {
      "inputs": [],
      "name": "deposit",
      "outputs": [],
      "stateMutability": "payable",
      "type": "function"
    },
    {
      "inputs": [
        {
          "internalType": "address",
          "name": "_delAddr",
          "type": "address"
        },
        {
          "internalType": "string",
          "name": "_valAddr",
          "type": "string"
        }
      ],
      "name": "getDelegationRewards",
      "outputs": [
        {
          "components": [
            {
              "internalType": "string",
              "name": "denom",
              "type": "string"
            },
            {
              "internalType": "uint256",
              "name": "amount",
              "type": "uint256"
            },
            {
              "internalType": "uint8",
              "name": "precision",
              "type": "uint8"
            }
          ],
          "internalType": "struct DecCoin[]",
          "name": "",
          "type": "tuple[]"
        }
      ],
      "stateMutability": "view",
      "type": "function"
    },
    {
      "inputs": [
        {
          "internalType": "address",
          "name": "_delAddr",
          "type": "address"
        }
      ],
      "name": "getDelegationTotalRewards",
      "outputs": [
        {
          "components": [
            {
              "internalType": "string",
              "name": "validatorAddress",
              "type": "string"
            },
            {
              "components": [
                {
                  "internalType": "string",
                  "name": "denom",
                  "type": "string"
                },
                {
                  "internalType": "uint256",
                  "name": "amount",
                  "type": "uint256"
                },
                {
                  "internalType": "uint8",
                  "name": "precision",
                  "type": "uint8"
                }
              ],
              "internalType": "struct DecCoin[]",
              "name": "reward",
              "type": "tuple[]"
            }
          ],
          "internalType": "struct DelegationDelegatorReward[]",
          "name": "rewards",
          "type": "tuple[]"
        },
        {
          "components": [
            {
              "internalType": "string",
              "name": "denom",
              "type": "string"
            },
            {
              "internalType": "uint256",
              "name": "amount",
              "type": "uint256"
            },
            {
              "internalType": "uint8",
              "name": "precision",
              "type": "uint8"
            }
          ],
          "internalType": "struct DecCoin[]",
          "name": "total",
          "type": "tuple[]"
        }
      ],
      "stateMutability": "view",
      "type": "function"
    },
    {
      "inputs": [
        {
          "internalType": "address",
          "name": "_delAddr",
          "type": "address"
        }
      ],
      "name": "getDelegatorValidators",
      "outputs": [
        {
          "internalType": "string[]",
          "name": "",
          "type": "string[]"
        }
      ],
      "stateMutability": "view",
      "type": "function"
    },
    {
      "inputs": [
        {
          "internalType": "address",
          "name": "_delAddr",
          "type": "address"
        }
      ],
      "name": "getDelegatorWithdrawAddress",
      "outputs": [
        {
          "internalType": "string",
          "name": "",
          "type": "string"
        }
      ],
      "stateMutability": "view",
      "type": "function"
    },
    {
      "inputs": [
        {
          "internalType": "string",
          "name": "_valAddr",
          "type": "string"
        }
      ],
      "name": "getValidatorCommission",
      "outputs": [
        {
          "components": [
            {
              "internalType": "string",
              "name": "denom",
              "type": "string"
            },
            {
              "internalType": "uint256",
              "name": "amount",
              "type": "uint256"
            },
            {
              "internalType": "uint8",
              "name": "precision",
              "type": "uint8"
            }
          ],
          "internalType": "struct DecCoin[]",
          "name": "",
          "type": "tuple[]"
        }
      ],
      "stateMutability": "view",
      "type": "function"
    },
    {
      "inputs": [
        {
          "internalType": "string",
          "name": "_valAddr",
          "type": "string"
        }
      ],
      "name": "getValidatorDistributionInfo",
      "outputs": [
        {
          "components": [
            {
              "internalType": "string",
              "name": "operatorAddress",
              "type": "string"
            },
            {
              "components": [
                {
                  "internalType": "string",
                  "name": "denom",
                  "type": "string"
                },
                {
                  "internalType": "uint256",
                  "name": "amount",
                  "type": "uint256"
                },
                {
                  "internalType": "uint8",
                  "name": "precision",
                  "type": "uint8"
                }
              ],
              "internalType": "struct DecCoin[]",
              "name": "selfBondRewards",
              "type": "tuple[]"
            },
            {
              "components": [
                {
                  "internalType": "string",
                  "name": "denom",
                  "type": "string"
                },
                {
                  "internalType": "uint256",
                  "name": "amount",
                  "type": "uint256"
                },
                {
                  "internalType": "uint8",
                  "name": "precision",
                  "type": "uint8"
                }
              ],
              "internalType": "struct DecCoin[]",
              "name": "commission",
              "type": "tuple[]"
            }
          ],
          "internalType": "struct ValidatorDistributionInfo",
          "name": "",
          "type": "tuple"
        }
      ],
      "stateMutability": "view",
      "type": "function"
    },
    {
      "inputs": [
        {
          "internalType": "string",
          "name": "_valAddr",
          "type": "string"
        }
      ],
      "name": "getValidatorOutstandingRewards",
      "outputs": [
        {
          "components": [
            {
              "internalType": "string",
              "name": "denom",
              "type": "string"
            },
            {
              "internalType": "uint256",
              "name": "amount",
              "type": "uint256"
            },
            {
              "internalType": "uint8",
              "name": "precision",
              "type": "uint8"
            }
          ],
          "internalType": "struct DecCoin[]",
          "name": "",
          "type": "tuple[]"
        }
      ],
      "stateMutability": "view",
      "type": "function"
    },
    {
      "inputs": [
        {
          "internalType": "string",
          "name": "_valAddr",
          "type": "string"
        },
        {
          "internalType": "uint64",
          "name": "_startingHeight",
          "type": "uint64"
        },
        {
          "internalType": "uint64",
          "name": "_endingHeight",
          "type": "uint64"
        },
        {
          "components": [
            {
              "internalType": "bytes",
              "name": "key",
              "type": "bytes"
            },
            {
              "internalType": "uint64",
              "name": "offset",
              "type": "uint64"
            },
            {
              "internalType": "uint64",
              "name": "limit",
              "type": "uint64"
            },
            {
              "internalType": "bool",
              "name": "countTotal",
              "type": "bool"
            },
            {
              "internalType": "bool",
              "name": "reverse",
              "type": "bool"
            }
          ],
          "internalType": "struct PageRequest",
          "name": "pageRequest",
          "type": "tuple"
        }
      ],
      "name": "getValidatorSlashes",
      "outputs": [
        {
          "components": [
            {
              "internalType": "uint64",
              "name": "validatorPeriod",
              "type": "uint64"
            },
            {
              "components": [
                {
                  "internalType": "uint256",
                  "name": "value",
                  "type": "uint256"
                },
                {
                  "internalType": "uint8",
                  "name": "precision",
                  "type": "uint8"
                }
              ],
              "internalType": "struct Dec",
              "name": "fraction",
              "type": "tuple"
            }
          ],
          "internalType": "struct ValidatorSlashEvent[]",
          "name": "",
          "type": "tuple[]"
        },
        {
          "components": [
            {
              "internalType": "bytes",
              "name": "nextKey",
              "type": "bytes"
            },
            {
              "internalType": "uint64",
              "name": "total",
              "type": "uint64"
            }
          ],
          "internalType": "struct PageResponse",
          "name": "",
          "type": "tuple"
        }
      ],
      "stateMutability": "view",
      "type": "function"
    },
    {
      "inputs": [
        {
          "internalType": "address payable",
          "name": "_delAddr",
          "type": "address"
        },
        {
          "internalType": "address payable",
          "name": "_withdrawer",
          "type": "address"
        },
        {
          "internalType": "string",
          "name": "_valAddr",
          "type": "string"
        },
        {
          "internalType": "bool",
          "name": "_after",
          "type": "bool"
        }
      ],
      "name": "revertWithdrawRewardsAndTransfer",
      "outputs": [],
      "stateMutability": "nonpayable",
      "type": "function"
    },
    {
      "inputs": [
        {
          "internalType": "address",
          "name": "_delAddr",
          "type": "address"
        }
      ],
      "name": "staticCallGetWithdrawAddress",
      "outputs": [
        {
          "internalType": "bytes",
          "name": "",
          "type": "bytes"
        }
      ],
      "stateMutability": "view",
      "type": "function"
    },
    {
      "inputs": [
        {
          "internalType": "address",
          "name": "_delAddr",
          "type": "address"
        },
        {
          "internalType": "string",
          "name": "_withdrawAddr",
          "type": "string"
        }
      ],
      "name": "staticCallSetWithdrawAddress",
      "outputs": [],
      "stateMutability": "view",
      "type": "function"
    },
    {
      "inputs": [
        {
          "internalType": "address",
          "name": "_delAddr",
          "type": "address"
        },
        {
          "internalType": "uint32",
          "name": "_maxRetrieve",
          "type": "uint32"
        }
      ],
      "name": "testClaimRewards",
      "outputs": [
        {
          "internalType": "bool",
          "name": "success",
          "type": "bool"
        }
      ],
      "stateMutability": "nonpayable",
      "type": "function"
    },
    {
      "inputs": [
        {
          "internalType": "address payable",
          "name": "_delAddr",
          "type": "address"
        },
        {
          "internalType": "uint32",
          "name": "_maxRetrieve",
          "type": "uint32"
        },
        {
          "internalType": "bool",
          "name": "_before",
          "type": "bool"
        },
        {
          "internalType": "bool",
          "name": "_after",
          "type": "bool"
        }
      ],
      "name": "testClaimRewardsWithTransfer",
      "outputs": [],
      "stateMutability": "nonpayable",
      "type": "function"
    },
    {
      "inputs": [
        {
          "internalType": "string",
          "name": "_validatorAddr",
          "type": "string"
        },
        {
          "internalType": "uint256",
          "name": "_amount",
          "type": "uint256"
        }
      ],
      "name": "testDelegateFromContract",
      "outputs": [],
      "stateMutability": "nonpayable",
      "type": "function"
    },
    {
      "inputs": [
        {
          "internalType": "address",
          "name": "depositor",
          "type": "address"
        },
        {
          "internalType": "uint256",
          "name": "amount",
          "type": "uint256"
        }
      ],
      "name": "testFundCommunityPool",
      "outputs": [
        {
          "internalType": "bool",
          "name": "success",
          "type": "bool"
        }
      ],
      "stateMutability": "nonpayable",
      "type": "function"
    },
    {
      "inputs": [
        {
          "internalType": "address payable",
          "name": "depositor",
          "type": "address"
        },
        {
          "internalType": "uint256",
          "name": "amount",
          "type": "uint256"
        },
        {
          "internalType": "bool",
          "name": "_before",
          "type": "bool"
        },
        {
          "internalType": "bool",
          "name": "_after",
          "type": "bool"
        }
      ],
      "name": "testFundCommunityPoolWithTransfer",
      "outputs": [],
      "stateMutability": "nonpayable",
      "type": "function"
    },
    {
      "inputs": [
        {
          "internalType": "string",
          "name": "_withdrawAddr",
          "type": "string"
        },
        {
          "internalType": "address",
          "name": "_delAddr",
          "type": "address"
        },
        {
          "internalType": "string",
          "name": "_valAddr",
          "type": "string"
        }
      ],
      "name": "testRevertState",
      "outputs": [
        {
          "components": [
            {
              "internalType": "string",
              "name": "denom",
              "type": "string"
            },
            {
              "internalType": "uint256",
              "name": "amount",
              "type": "uint256"
            }
          ],
          "internalType": "struct Coin[]",
          "name": "",
          "type": "tuple[]"
        }
      ],
      "stateMutability": "nonpayable",
      "type": "function"
    },
    {
      "inputs": [
        {
          "internalType": "address",
          "name": "_delAddr",
          "type": "address"
        },
        {
          "internalType": "string",
          "name": "_withdrawAddr",
          "type": "string"
        }
      ],
      "name": "testSetWithdrawAddress",
      "outputs": [
        {
          "internalType": "bool",
          "name": "",
          "type": "bool"
        }
      ],
      "stateMutability": "nonpayable",
      "type": "function"
    },
    {
      "inputs": [
        {
          "internalType": "string",
          "name": "_withdrawAddr",
          "type": "string"
        }
      ],
      "name": "testSetWithdrawAddressFromContract",
      "outputs": [
        {
          "internalType": "bool",
          "name": "",
          "type": "bool"
        }
      ],
      "stateMutability": "nonpayable",
      "type": "function"
    },
    {
      "inputs": [
        {
          "internalType": "address",
          "name": "delegatorAddress",
          "type": "address"
        },
        {
          "internalType": "uint32",
          "name": "maxRetrieve",
          "type": "uint32"
        }
      ],
      "name": "testTryClaimRewards",
      "outputs": [
        {
          "internalType": "bool",
          "name": "",
          "type": "bool"
        }
      ],
      "stateMutability": "nonpayable",
      "type": "function"
    },
    {
      "inputs": [
        {
          "internalType": "address",
          "name": "_delAddr",
          "type": "address"
        },
        {
          "internalType": "string",
          "name": "_valAddr",
          "type": "string"
        }
      ],
      "name": "testWithdrawDelegatorReward",
      "outputs": [
        {
          "components": [
            {
              "internalType": "string",
              "name": "denom",
              "type": "string"
            },
            {
              "internalType": "uint256",
              "name": "amount",
              "type": "uint256"
            }
          ],
          "internalType": "struct Coin[]",
          "name": "",
          "type": "tuple[]"
        }
      ],
      "stateMutability": "nonpayable",
      "type": "function"
    },
    {
      "inputs": [
        {
          "internalType": "string",
          "name": "_valAddr",
          "type": "string"
        }
      ],
      "name": "testWithdrawDelegatorRewardFromContract",
      "outputs": [
        {
          "components": [
            {
              "internalType": "string",
              "name": "denom",
              "type": "string"
            },
            {
              "internalType": "uint256",
              "name": "amount",
              "type": "uint256"
            }
          ],
          "internalType": "struct Coin[]",
          "name": "",
          "type": "tuple[]"
        }
      ],
      "stateMutability": "nonpayable",
      "type": "function"
    },
    {
      "inputs": [
        {
          "internalType": "address payable",
          "name": "_delAddr",
          "type": "address"
        },
        {
          "internalType": "string",
          "name": "_valAddr",
          "type": "string"
        },
        {
          "internalType": "bool",
          "name": "_before",
          "type": "bool"
        },
        {
          "internalType": "bool",
          "name": "_after",
          "type": "bool"
        }
      ],
      "name": "testWithdrawDelegatorRewardWithTransfer",
      "outputs": [
        {
          "components": [
            {
              "internalType": "string",
              "name": "denom",
              "type": "string"
            },
            {
              "internalType": "uint256",
              "name": "amount",
              "type": "uint256"
            }
          ],
          "internalType": "struct Coin[]",
          "name": "coins",
          "type": "tuple[]"
        }
      ],
      "stateMutability": "nonpayable",
      "type": "function"
    },
    {
      "inputs": [
        {
          "internalType": "string",
          "name": "_valAddr",
          "type": "string"
        }
      ],
      "name": "testWithdrawValidatorCommission",
      "outputs": [
        {
          "components": [
            {
              "internalType": "string",
              "name": "denom",
              "type": "string"
            },
            {
              "internalType": "uint256",
              "name": "amount",
              "type": "uint256"
            }
          ],
          "internalType": "struct Coin[]",
          "name": "",
          "type": "tuple[]"
        }
      ],
      "stateMutability": "nonpayable",
      "type": "function"
    },
    {
      "inputs": [
        {
          "internalType": "string",
          "name": "_valAddr",
          "type": "string"
        },
        {
          "internalType": "address payable",
          "name": "_withdrawer",
          "type": "address"
        },
        {
          "internalType": "bool",
          "name": "_before",
          "type": "bool"
        },
        {
          "internalType": "bool",
          "name": "_after",
          "type": "bool"
        }
      ],
      "name": "testWithdrawValidatorCommissionWithTransfer",
      "outputs": [
        {
          "components": [
            {
              "internalType": "string",
              "name": "denom",
              "type": "string"
            },
            {
              "internalType": "uint256",
              "name": "amount",
              "type": "uint256"
            }
          ],
          "internalType": "struct Coin[]",
          "name": "coins",
          "type": "tuple[]"
        }
      ],
      "stateMutability": "nonpayable",
      "type": "function"
    },
    {
      "inputs": [
        {
          "internalType": "address",
          "name": "_delAddr",
          "type": "address"
        },
        {
          "internalType": "string",
          "name": "_valAddr",
          "type": "string"
        }
      ],
      "name": "withdrawDelegatorRewardsAndRevert",
      "outputs": [
        {
          "components": [
            {
              "internalType": "string",
              "name": "denom",
              "type": "string"
            },
            {
              "internalType": "uint256",
              "name": "amount",
              "type": "uint256"
            }
          ],
          "internalType": "struct Coin[]",
          "name": "coins",
          "type": "tuple[]"
        }
      ],
      "stateMutability": "nonpayable",
      "type": "function"
    }
  ],
  "bytecode": "0x6080604052604051806020016040528060405180606001604052806023815260200162004e7c6023913981525060009060016200003e92919062000053565b503480156200004c57600080fd5b50620004a1565b828054828255906000526020600020908101928215620000a0579160200282015b828111156200009f5782518290816200008e9190620003ba565b509160200191906001019062000074565b5b509050620000af9190620000b3565b5090565b5b80821115620000d75760008181620000cd9190620000db565b50600101620000b4565b5090565b508054620000e990620001a9565b6000825580601f10620000fd57506200011e565b601f0160209004906000526020600020908101906200011d919062000121565b5b50565b5b808211156200013c57600081600090555060010162000122565b5090565b600081519050919050565b7f4e487b7100000000000000000000000000000000000000000000000000000000600052604160045260246000fd5b7f4e487b7100000000000000000000000000000000000000000000000000000000600052602260045260246000fd5b60006002820490506001821680620001c257607f821691505b602082108103620001d857620001d76200017a565b5b50919050565b60008190508160005260206000209050919050565b60006020601f8301049050919050565b600082821b905092915050565b600060088302620002427fffffffffffffffffffffffffffffffffffffffffffffffffffffffffffffffff8262000203565b6200024e868362000203565b95508019841693508086168417925050509392505050565b6000819050919050565b6000819050919050565b60006200029b620002956200028f8462000266565b62000270565b62000266565b9050919050565b6000819050919050565b620002b7836200027a565b620002cf620002c682620002a2565b84845462000210565b825550505050565b600090565b620002e6620002d7565b620002f3818484620002ac565b505050565b5b818110156200031b576200030f600082620002dc565b600181019050620002f9565b5050565b601f8211156200036a576200033481620001de565b6200033f84620001f3565b810160208510156200034f578190505b620003676200035e85620001f3565b830182620002f8565b50505b505050565b600082821c905092915050565b60006200038f600019846008026200036f565b1980831691505092915050565b6000620003aa83836200037c565b9150826002028217905092915050565b620003c58262000140565b67ffffffffffffffff811115620003e157620003e06200014b565b5b620003ed8254620001a9565b620003fa8282856200031f565b600060209050601f8311600181146200043257600084156200041d578287015190505b6200042985826200039c565b86555062000499565b601f1984166200044286620001de565b60005b828110156200046c5784890151825560018201915060208501945060208101905062000445565b868310156200048c578489015162000488601f8916826200037c565b8355505b6001600288020188555050505b505050505050565b6149cb80620004b16000396000f3fe6080604052600436106101c25760003560e01c80637c9db0bb116100f7578063b6a216ae11610095578063d3f831be11610064578063d3f831be14610714578063dd987c2014610751578063e0421e391461077a578063e236c7a6146107b7576101c2565b8063b6a216ae14610653578063c7804bb514610690578063cb85aa0a146106cd578063d0e30db01461070a576101c2565b806393574cd1116100d157806393574cd11461055f578063963516e41461059c578063ad5c4cdd146105d9578063b2d1788314610616576101c2565b80637c9db0bb146104a75780637e9a3556146104e457806388b2d58114610521576101c2565b806346e16d34116101645780636cc9ac8a1161013e5780636cc9ac8a146103db5780636f669da41461040457806378a5dfd114610441578063796b96d21461047e576101c2565b806346e16d3414610336578063613d4de81461037357806361bc221a146103b0576101c2565b80630da84768116101a05780630da847681461026a5780631b050207146102a7578063201139a2146102d0578063296c60aa1461030d576101c2565b80630183e4b4146101c757806301b68000146101f05780630c05e9e41461022d575b600080fd5b3480156101d357600080fd5b506101ee60048036038101906101e99190612594565b6107f5565b005b3480156101fc57600080fd5b5061021760048036038101906102129190612639565b610b24565b60405161022491906126f6565b60405180910390f35b34801561023957600080fd5b50610254600480360381019061024f919061284d565b610c6c565b6040516102619190612a90565b60405180910390f35b34801561027657600080fd5b50610291600480360381019061028c9190612ab2565b610cfc565b60405161029e9190612c0d565b60405180910390f35b3480156102b357600080fd5b506102ce60048036038101906102c99190612c2f565b610d8b565b005b3480156102dc57600080fd5b506102f760048036038101906102f2919061284d565b610f12565b6040516103049190612c0d565b60405180910390f35b34801561031957600080fd5b50610334600480360381019061032f9190612ab2565b610fa0565b005b34801561034257600080fd5b5061035d60048036038101906103589190612ab2565b6110e1565b60405161036a9190612cc1565b60405180910390f35b34801561037f57600080fd5b5061039a60048036038101906103959190612cdc565b61116b565b6040516103a79190612c0d565b60405180910390f35b3480156103bc57600080fd5b506103c561145e565b6040516103d29190612d7b565b60405180910390f35b3480156103e757600080fd5b5061040260048036038101906103fd9190612dc2565b611471565b005b34801561041057600080fd5b5061042b60048036038101906104269190612e29565b611702565b6040516104389190612cc1565b60405180910390f35b34801561044d57600080fd5b5061046860048036038101906104639190612ab2565b61178c565b6040516104759190612eef565b60405180910390f35b34801561048a57600080fd5b506104a560048036038101906104a09190612ab2565b611819565b005b3480156104b357600080fd5b506104ce60048036038101906104c9919061284d565b61195a565b6040516104db9190612eef565b60405180910390f35b3480156104f057600080fd5b5061050b60048036038101906105069190612f11565b6119e4565b6040516105189190612c0d565b60405180910390f35b34801561052d57600080fd5b5061054860048036038101906105439190612ff8565b611c71565b60405161055692919061323a565b60405180910390f35b34801561056b57600080fd5b5061058660048036038101906105819190612e29565b611d0f565b6040516105939190612cc1565b60405180910390f35b3480156105a857600080fd5b506105c360048036038101906105be919061284d565b611da7565b6040516105d09190612cc1565b60405180910390f35b3480156105e557600080fd5b5061060060048036038101906105fb9190612ab2565b611e30565b60405161060d9190612c0d565b60405180910390f35b34801561062257600080fd5b5061063d60048036038101906106389190613271565b611ebc565b60405161064a9190612c0d565b60405180910390f35b34801561065f57600080fd5b5061067a60048036038101906106759190612639565b612011565b60405161068791906133be565b60405180910390f35b34801561069c57600080fd5b506106b760048036038101906106b291906133e0565b61209b565b6040516106c49190612cc1565b60405180910390f35b3480156106d957600080fd5b506106f460048036038101906106ef9190612639565b6121b3565b604051610701919061346a565b60405180910390f35b61071261223d565b005b34801561072057600080fd5b5061073b6004803603810190610736919061284d565b61223f565b6040516107489190612eef565b60405180910390f35b34801561075d57600080fd5b506107786004803603810190610773919061348c565b6122c9565b005b34801561078657600080fd5b506107a1600480360381019061079c919061284d565b612350565b6040516107ae9190612c0d565b60405180910390f35b3480156107c357600080fd5b506107de60048036038101906107d99190612639565b6123dc565b6040516107ec9291906135ee565b60405180910390f35b8115610927576001600081819054906101000a900460070b8092919061081a90613654565b91906101000a81548167ffffffffffffffff021916908360070b67ffffffffffffffff160217905550503073ffffffffffffffffffffffffffffffffffffffff168473ffffffffffffffffffffffffffffffffffffffff16146109265760008473ffffffffffffffffffffffffffffffffffffffff16600f60405161089e906136b5565b60006040518083038185875af1925050503d80600081146108db576040519150601f19603f3d011682016040523d82523d6000602084013e6108e0565b606091505b5050905080610924576040517f08c379a000000000000000000000000000000000000000000000000000000000815260040161091b9061373c565b60405180910390fd5b505b5b600061080173ffffffffffffffffffffffffffffffffffffffff16632efe8a5f86866040518363ffffffff1660e01b81526004016109669291906137ca565b6020604051808303816000875af1158015610985573d6000803e3d6000fd5b505050506040513d601f19601f820116820180604052508101906109a99190613808565b9050806109eb576040517f08c379a00000000000000000000000000000000000000000000000000000000081526004016109e290613881565b60405180910390fd5b8115610b1d576001600081819054906101000a900460070b80929190610a1090613654565b91906101000a81548167ffffffffffffffff021916908360070b67ffffffffffffffff160217905550503073ffffffffffffffffffffffffffffffffffffffff168573ffffffffffffffffffffffffffffffffffffffff1614610b1c5760008573ffffffffffffffffffffffffffffffffffffffff16600f604051610a94906136b5565b60006040518083038185875af1925050503d8060008114610ad1576040519150601f19603f3d011682016040523d82523d6000602084013e610ad6565b606091505b5050905080610b1a576040517f08c379a0000000000000000000000000000000000000000000000000000000008152600401610b119061373c565b60405180910390fd5b505b5b5050505050565b606060008061080173ffffffffffffffffffffffffffffffffffffffff1684604051602401610b5391906138b0565b6040516020818303038152906040527f5431f450000000000000000000000000000000000000000000000000000000007bffffffffffffffffffffffffffffffffffffffffffffffffffffffff19166020820180517bffffffffffffffffffffffffffffffffffffffffffffffffffffffff8381831617835250505050604051610bdd91906138fc565b600060405180830381855afa9150503d8060008114610c18576040519150601f19603f3d011682016040523d82523d6000602084013e610c1d565b606091505b509150915081610c62576040517f08c379a0000000000000000000000000000000000000000000000000000000008152600401610c599061395f565b60405180910390fd5b8092505050919050565b610c74612469565b61080173ffffffffffffffffffffffffffffffffffffffff166354212a89836040518263ffffffff1660e01b8152600401610caf919061346a565b600060405180830381865afa158015610ccc573d6000803e3d6000fd5b505050506040513d6000823e3d601f19601f82011682018060405250810190610cf59190613c58565b9050919050565b606061080173ffffffffffffffffffffffffffffffffffffffff1663b46a8d6184846040518363ffffffff1660e01b8152600401610d3b929190613ca1565b6000604051808303816000875af1158015610d5a573d6000803e3d6000fd5b505050506040513d6000823e3d601f19601f82011682018060405250810190610d839190613e1e565b905092915050565b3073ffffffffffffffffffffffffffffffffffffffff1663ad5c4cdd85846040518363ffffffff1660e01b8152600401610dc6929190613e67565b6000604051808303816000875af1925050508015610e0757506040513d6000823e3d601f19601f82011682018060405250810190610e049190613e1e565b60015b15610e0e57505b8015610f0c576001600081819054906101000a900460070b80929190610e3390613654565b91906101000a81548167ffffffffffffffff021916908360070b67ffffffffffffffff1602179055505060008373ffffffffffffffffffffffffffffffffffffffff16600f604051610e84906136b5565b60006040518083038185875af1925050503d8060008114610ec1576040519150601f19603f3d011682016040523d82523d6000602084013e610ec6565b606091505b5050905080610f0a576040517f08c379a0000000000000000000000000000000000000000000000000000000008152600401610f019061373c565b60405180910390fd5b505b50505050565b606061080173ffffffffffffffffffffffffffffffffffffffff1663b46a8d6130846040518363ffffffff1660e01b8152600401610f51929190613ca1565b6000604051808303816000875af1158015610f70573d6000803e3d6000fd5b505050506040513d6000823e3d601f19601f82011682018060405250810190610f999190613e1e565b9050919050565b600061080173ffffffffffffffffffffffffffffffffffffffff168383604051602401610fce929190613ca1565b6040516020818303038152906040527f5a9d9a96000000000000000000000000000000000000000000000000000000007bffffffffffffffffffffffffffffffffffffffffffffffffffffffff19166020820180517bffffffffffffffffffffffffffffffffffffffffffffffffffffffff838183161783525050505060405161105891906138fc565b600060405180830381855af49150503d8060008114611093576040519150601f19603f3d011682016040523d82523d6000602084013e611098565b606091505b50509050806110dc576040517f08c379a00000000000000000000000000000000000000000000000000000000081526004016110d390613f09565b60405180910390fd5b505050565b600061080173ffffffffffffffffffffffffffffffffffffffff16635a9d9a9684846040518363ffffffff1660e01b8152600401611120929190613ca1565b6020604051808303816000875af115801561113f573d6000803e3d6000fd5b505050506040513d601f19601f820116820180604052508101906111639190613808565b905092915050565b6060821561129f576001600081819054906101000a900460070b8092919061119290613654565b91906101000a81548167ffffffffffffffff021916908360070b67ffffffffffffffff160217905550503073ffffffffffffffffffffffffffffffffffffffff168473ffffffffffffffffffffffffffffffffffffffff161461129e5760008473ffffffffffffffffffffffffffffffffffffffff16600f604051611216906136b5565b60006040518083038185875af1925050503d8060008114611253576040519150601f19603f3d011682016040523d82523d6000602084013e611258565b606091505b505090508061129c576040517f08c379a00000000000000000000000000000000000000000000000000000000081526004016112939061373c565b60405180910390fd5b505b5b61080173ffffffffffffffffffffffffffffffffffffffff16633ce4e3be866040518263ffffffff1660e01b81526004016112da919061346a565b6000604051808303816000875af11580156112f9573d6000803e3d6000fd5b505050506040513d6000823e3d601f19601f820116820180604052508101906113229190613e1e565b90508115611456576001600081819054906101000a900460070b8092919061134990613654565b91906101000a81548167ffffffffffffffff021916908360070b67ffffffffffffffff160217905550503073ffffffffffffffffffffffffffffffffffffffff168473ffffffffffffffffffffffffffffffffffffffff16146114555760008473ffffffffffffffffffffffffffffffffffffffff16600f6040516113cd906136b5565b60006040518083038185875af1925050503d806000811461140a576040519150601f19603f3d011682016040523d82523d6000602084013e61140f565b606091505b5050905080611453576040517f08c379a000000000000000000000000000000000000000000000000000000000815260040161144a9061373c565b60405180910390fd5b505b5b949350505050565b600160009054906101000a900460070b81565b811561156f576001600081819054906101000a900460070b8092919061149690613654565b91906101000a81548167ffffffffffffffff021916908360070b67ffffffffffffffff1602179055505060008473ffffffffffffffffffffffffffffffffffffffff16600f6040516114e7906136b5565b60006040518083038185875af1925050503d8060008114611524576040519150601f19603f3d011682016040523d82523d6000602084013e611529565b606091505b505090508061156d576040517f08c379a00000000000000000000000000000000000000000000000000000000081526004016115649061373c565b60405180910390fd5b505b600061080173ffffffffffffffffffffffffffffffffffffffff1663ed41d0b686866040518363ffffffff1660e01b81526004016115ae929190613f38565b6020604051808303816000875af11580156115cd573d6000803e3d6000fd5b505050506040513d601f19601f820116820180604052508101906115f19190613808565b9050806115fd57600080fd5b81156116fb576001600081819054906101000a900460070b8092919061162290613654565b91906101000a81548167ffffffffffffffff021916908360070b67ffffffffffffffff1602179055505060008573ffffffffffffffffffffffffffffffffffffffff16600f604051611673906136b5565b60006040518083038185875af1925050503d80600081146116b0576040519150601f19603f3d011682016040523d82523d6000602084013e6116b5565b606091505b50509050806116f9576040517f08c379a00000000000000000000000000000000000000000000000000000000081526004016116f09061373c565b60405180910390fd5b505b5050505050565b600061080173ffffffffffffffffffffffffffffffffffffffff16632efe8a5f84846040518363ffffffff1660e01b8152600401611741929190613f61565b6020604051808303816000875af1158015611760573d6000803e3d6000fd5b505050506040513d601f19601f820116820180604052508101906117849190613808565b905092915050565b606061080173ffffffffffffffffffffffffffffffffffffffff16639ad563b484846040518363ffffffff1660e01b81526004016117cb929190613ca1565b600060405180830381865afa1580156117e8573d6000803e3d6000fd5b505050506040513d6000823e3d601f19601f820116820180604052508101906118119190613f8a565b905092915050565b600061080173ffffffffffffffffffffffffffffffffffffffff168383604051602401611847929190613ca1565b6040516020818303038152906040527f5a9d9a96000000000000000000000000000000000000000000000000000000007bffffffffffffffffffffffffffffffffffffffffffffffffffffffff19166020820180517bffffffffffffffffffffffffffffffffffffffffffffffffffffffff83818316178352505050506040516118d191906138fc565b600060405180830381855afa9150503d806000811461190c576040519150601f19603f3d011682016040523d82523d6000602084013e611911565b606091505b5050905080611955576040517f08c379a000000000000000000000000000000000000000000000000000000000815260040161194c9061395f565b60405180910390fd5b505050565b606061080173ffffffffffffffffffffffffffffffffffffffff16633dd40f78836040518263ffffffff1660e01b8152600401611997919061346a565b600060405180830381865afa1580156119b4573d6000803e3d6000fd5b505050506040513d6000823e3d601f19601f820116820180604052508101906119dd9190613f8a565b9050919050565b60608215611ae4576001600081819054906101000a900460070b80929190611a0b90613654565b91906101000a81548167ffffffffffffffff021916908360070b67ffffffffffffffff1602179055505060008573ffffffffffffffffffffffffffffffffffffffff16600f604051611a5c906136b5565b60006040518083038185875af1925050503d8060008114611a99576040519150601f19603f3d011682016040523d82523d6000602084013e611a9e565b606091505b5050905080611ae2576040517f08c379a0000000000000000000000000000000000000000000000000000000008152600401611ad99061373c565b60405180910390fd5b505b61080173ffffffffffffffffffffffffffffffffffffffff1663b46a8d6186866040518363ffffffff1660e01b8152600401611b21929190613e67565b6000604051808303816000875af1158015611b40573d6000803e3d6000fd5b505050506040513d6000823e3d601f19601f82011682018060405250810190611b699190613e1e565b90508115611c69576001600081819054906101000a900460070b80929190611b9090613654565b91906101000a81548167ffffffffffffffff021916908360070b67ffffffffffffffff1602179055505060008573ffffffffffffffffffffffffffffffffffffffff16600f604051611be1906136b5565b60006040518083038185875af1925050503d8060008114611c1e576040519150601f19603f3d011682016040523d82523d6000602084013e611c23565b606091505b5050905080611c67576040517f08c379a0000000000000000000000000000000000000000000000000000000008152600401611c5e9061373c565b60405180910390fd5b505b949350505050565b6060611c7b61248a565b61080173ffffffffffffffffffffffffffffffffffffffff16638f2473ce878787876040518563ffffffff1660e01b8152600401611cbc949392919061415e565b600060405180830381865afa158015611cd9573d6000803e3d6000fd5b505050506040513d6000823e3d601f19601f82011682018060405250810190611d029190614436565b9150915094509492505050565b60008061080173ffffffffffffffffffffffffffffffffffffffff16632efe8a5f85856040518363ffffffff1660e01b8152600401611d4f929190613f61565b6020604051808303816000875af1925050508015611d8b57506040513d601f19601f82011682018060405250810190611d889190613808565b60015b611d985760009050611d9d565b809150505b8091505092915050565b600061080173ffffffffffffffffffffffffffffffffffffffff16635a9d9a9630846040518363ffffffff1660e01b8152600401611de6929190613ca1565b6020604051808303816000875af1158015611e05573d6000803e3d6000fd5b505050506040513d601f19601f82011682018060405250810190611e299190613808565b9050919050565b606061080173ffffffffffffffffffffffffffffffffffffffff1663b46a8d6184846040518363ffffffff1660e01b8152600401611e6f929190613ca1565b6000604051808303816000875af1158015611e8e573d6000803e3d6000fd5b505050506040513d6000823e3d601f19601f82011682018060405250810190611eb79190613e1e565b600080fd5b6060600061080173ffffffffffffffffffffffffffffffffffffffff16635a9d9a9633876040518363ffffffff1660e01b8152600401611efd929190613ca1565b6020604051808303816000875af1158015611f1c573d6000803e3d6000fd5b505050506040513d601f19601f82011682018060405250810190611f409190613808565b905080611f82576040517f08c379a0000000000000000000000000000000000000000000000000000000008152600401611f79906144fa565b60405180910390fd5b61080173ffffffffffffffffffffffffffffffffffffffff1663b46a8d6185856040518363ffffffff1660e01b8152600401611fbf929190613ca1565b6000604051808303816000875af1158015611fde573d6000803e3d6000fd5b505050506040513d6000823e3d601f19601f820116820180604052508101906120079190613e1e565b9150509392505050565b606061080173ffffffffffffffffffffffffffffffffffffffff1663a66cb605836040518263ffffffff1660e01b815260040161204e91906138b0565b600060405180830381865afa15801561206b573d6000803e3d6000fd5b505050506040513d6000823e3d601f19601f8201168201806040525081019061209491906145fb565b9050919050565b600060018060008282829054906101000a900460070b6120bb9190614644565b92506101000a81548167ffffffffffffffff021916908360070b67ffffffffffffffff16021790555061080173ffffffffffffffffffffffffffffffffffffffff1663ed41d0b684846040518363ffffffff1660e01b81526004016121219291906146a4565b6020604051808303816000875af1158015612140573d6000803e3d6000fd5b505050506040513d601f19601f820116820180604052508101906121649190613808565b905060018060008282829054906101000a900460070b61218491906146cd565b92506101000a81548167ffffffffffffffff021916908360070b67ffffffffffffffff16021790555092915050565b606061080173ffffffffffffffffffffffffffffffffffffffff16635431f450836040518263ffffffff1660e01b81526004016121f091906138b0565b600060405180830381865afa15801561220d573d6000803e3d6000fd5b505050506040513d6000823e3d601f19601f82011682018060405250810190612236919061472d565b9050919050565b565b606061080173ffffffffffffffffffffffffffffffffffffffff166385b2d2da836040518263ffffffff1660e01b815260040161227c919061346a565b600060405180830381865afa158015612299573d6000803e3d6000fd5b505050506040513d6000823e3d601f19601f820116820180604052508101906122c29190613f8a565b9050919050565b61080073ffffffffffffffffffffffffffffffffffffffff166353266bbb3084846040518463ffffffff1660e01b815260040161230893929190614776565b6020604051808303816000875af1158015612327573d6000803e3d6000fd5b505050506040513d601f19601f8201168201806040525081019061234b9190613808565b505050565b606061080173ffffffffffffffffffffffffffffffffffffffff16633ce4e3be836040518263ffffffff1660e01b815260040161238d919061346a565b6000604051808303816000875af11580156123ac573d6000803e3d6000fd5b505050506040513d6000823e3d601f19601f820116820180604052508101906123d59190613e1e565b9050919050565b60608061080173ffffffffffffffffffffffffffffffffffffffff166354be1a28846040518263ffffffff1660e01b815260040161241a91906138b0565b600060405180830381865afa158015612437573d6000803e3d6000fd5b505050506040513d6000823e3d601f19601f82011682018060405250810190612460919061491d565b91509150915091565b60405180606001604052806060815260200160608152602001606081525090565b604051806040016040528060608152602001600067ffffffffffffffff1681525090565b6000604051905090565b600080fd5b600080fd5b600073ffffffffffffffffffffffffffffffffffffffff82169050919050565b60006124ed826124c2565b9050919050565b6124fd816124e2565b811461250857600080fd5b50565b60008135905061251a816124f4565b92915050565b600063ffffffff82169050919050565b61253981612520565b811461254457600080fd5b50565b60008135905061255681612530565b92915050565b60008115159050919050565b6125718161255c565b811461257c57600080fd5b50565b60008135905061258e81612568565b92915050565b600080600080608085870312156125ae576125ad6124b8565b5b60006125bc8782880161250b565b94505060206125cd87828801612547565b93505060406125de8782880161257f565b92505060606125ef8782880161257f565b91505092959194509250565b6000612606826124c2565b9050919050565b612616816125fb565b811461262157600080fd5b50565b6000813590506126338161260d565b92915050565b60006020828403121561264f5761264e6124b8565b5b600061265d84828501612624565b91505092915050565b600081519050919050565b600082825260208201905092915050565b60005b838110156126a0578082015181840152602081019050612685565b60008484015250505050565b6000601f19601f8301169050919050565b60006126c882612666565b6126d28185612671565b93506126e2818560208601612682565b6126eb816126ac565b840191505092915050565b6000602082019050818103600083015261271081846126bd565b905092915050565b600080fd5b600080fd5b7f4e487b7100000000000000000000000000000000000000000000000000000000600052604160045260246000fd5b61275a826126ac565b810181811067ffffffffffffffff8211171561277957612778612722565b5b80604052505050565b600061278c6124ae565b90506127988282612751565b919050565b600067ffffffffffffffff8211156127b8576127b7612722565b5b6127c1826126ac565b9050602081019050919050565b82818337600083830152505050565b60006127f06127eb8461279d565b612782565b90508281526020810184848401111561280c5761280b61271d565b5b6128178482856127ce565b509392505050565b600082601f83011261283457612833612718565b5b81356128448482602086016127dd565b91505092915050565b600060208284031215612863576128626124b8565b5b600082013567ffffffffffffffff811115612881576128806124bd565b5b61288d8482850161281f565b91505092915050565b600081519050919050565b600082825260208201905092915050565b60006128bd82612896565b6128c781856128a1565b93506128d7818560208601612682565b6128e0816126ac565b840191505092915050565b600081519050919050565b600082825260208201905092915050565b6000819050602082019050919050565b6000819050919050565b61292a81612917565b82525050565b600060ff82169050919050565b61294681612930565b82525050565b6000606083016000830151848203600086015261296982826128b2565b915050602083015161297e6020860182612921565b506040830151612991604086018261293d565b508091505092915050565b60006129a8838361294c565b905092915050565b6000602082019050919050565b60006129c8826128eb565b6129d281856128f6565b9350836020820285016129e485612907565b8060005b85811015612a205784840389528151612a01858261299c565b9450612a0c836129b0565b925060208a019950506001810190506129e8565b50829750879550505050505092915050565b60006060830160008301518482036000860152612a4f82826128b2565b91505060208301518482036020860152612a6982826129bd565b91505060408301518482036040860152612a8382826129bd565b9150508091505092915050565b60006020820190508181036000830152612aaa8184612a32565b905092915050565b60008060408385031215612ac957612ac86124b8565b5b6000612ad785828601612624565b925050602083013567ffffffffffffffff811115612af857612af76124bd565b5b612b048582860161281f565b9150509250929050565b600081519050919050565b600082825260208201905092915050565b6000819050602082019050919050565b60006040830160008301518482036000860152612b5782826128b2565b9150506020830151612b6c6020860182612921565b508091505092915050565b6000612b838383612b3a565b905092915050565b6000602082019050919050565b6000612ba382612b0e565b612bad8185612b19565b935083602082028501612bbf85612b2a565b8060005b85811015612bfb5784840389528151612bdc8582612b77565b9450612be783612b8b565b925060208a01995050600181019050612bc3565b50829750879550505050505092915050565b60006020820190508181036000830152612c278184612b98565b905092915050565b60008060008060808587031215612c4957612c486124b8565b5b6000612c578782880161250b565b9450506020612c688782880161250b565b935050604085013567ffffffffffffffff811115612c8957612c886124bd565b5b612c958782880161281f565b9250506060612ca68782880161257f565b91505092959194509250565b612cbb8161255c565b82525050565b6000602082019050612cd66000830184612cb2565b92915050565b60008060008060808587031215612cf657612cf56124b8565b5b600085013567ffffffffffffffff811115612d1457612d136124bd565b5b612d208782880161281f565b9450506020612d318782880161250b565b9350506040612d428782880161257f565b9250506060612d538782880161257f565b91505092959194509250565b60008160070b9050919050565b612d7581612d5f565b82525050565b6000602082019050612d906000830184612d6c565b92915050565b612d9f81612917565b8114612daa57600080fd5b50565b600081359050612dbc81612d96565b92915050565b60008060008060808587031215612ddc57612ddb6124b8565b5b6000612dea8782880161250b565b9450506020612dfb87828801612dad565b9350506040612e0c8782880161257f565b9250506060612e1d8782880161257f565b91505092959194509250565b60008060408385031215612e4057612e3f6124b8565b5b6000612e4e85828601612624565b9250506020612e5f85828601612547565b9150509250929050565b600082825260208201905092915050565b6000612e85826128eb565b612e8f8185612e69565b935083602082028501612ea185612907565b8060005b85811015612edd5784840389528151612ebe858261299c565b9450612ec9836129b0565b925060208a01995050600181019050612ea5565b50829750879550505050505092915050565b60006020820190508181036000830152612f098184612e7a565b905092915050565b60008060008060808587031215612f2b57612f2a6124b8565b5b6000612f398782880161250b565b945050602085013567ffffffffffffffff811115612f5a57612f596124bd565b5b612f668782880161281f565b9350506040612f778782880161257f565b9250506060612f888782880161257f565b91505092959194509250565b600067ffffffffffffffff82169050919050565b612fb181612f94565b8114612fbc57600080fd5b50565b600081359050612fce81612fa8565b92915050565b600080fd5b600060a08284031215612fef57612fee612fd4565b5b81905092915050565b60008060008060808587031215613012576130116124b8565b5b600085013567ffffffffffffffff8111156130305761302f6124bd565b5b61303c8782880161281f565b945050602061304d87828801612fbf565b935050604061305e87828801612fbf565b925050606085013567ffffffffffffffff81111561307f5761307e6124bd565b5b61308b87828801612fd9565b91505092959194509250565b600081519050919050565b600082825260208201905092915050565b6000819050602082019050919050565b6130cc81612f94565b82525050565b6040820160008201516130e86000850182612921565b5060208201516130fb602085018261293d565b50505050565b60608201600082015161311760008501826130c3565b50602082015161312a60208501826130d2565b50505050565b600061313c8383613101565b60608301905092915050565b6000602082019050919050565b600061316082613097565b61316a81856130a2565b9350613175836130b3565b8060005b838110156131a657815161318d8882613130565b975061319883613148565b925050600181019050613179565b5085935050505092915050565b600082825260208201905092915050565b60006131cf82612666565b6131d981856131b3565b93506131e9818560208601612682565b6131f2816126ac565b840191505092915050565b6000604083016000830151848203600086015261321a82826131c4565b915050602083015161322f60208601826130c3565b508091505092915050565b600060408201905081810360008301526132548185613155565b9050818103602083015261326881846131fd565b90509392505050565b60008060006060848603121561328a576132896124b8565b5b600084013567ffffffffffffffff8111156132a8576132a76124bd565b5b6132b48682870161281f565b93505060206132c586828701612624565b925050604084013567ffffffffffffffff8111156132e6576132e56124bd565b5b6132f28682870161281f565b9150509250925092565b600081519050919050565b600082825260208201905092915050565b6000819050602082019050919050565b600061333483836128b2565b905092915050565b6000602082019050919050565b6000613354826132fc565b61335e8185613307565b93508360208202850161337085613318565b8060005b858110156133ac578484038952815161338d8582613328565b94506133988361333c565b925060208a01995050600181019050613374565b50829750879550505050505092915050565b600060208201905081810360008301526133d88184613349565b905092915050565b600080604083850312156133f7576133f66124b8565b5b600061340585828601612624565b925050602061341685828601612dad565b9150509250929050565b600082825260208201905092915050565b600061343c82612896565b6134468185613420565b9350613456818560208601612682565b61345f816126ac565b840191505092915050565b600060208201905081810360008301526134848184613431565b905092915050565b600080604083850312156134a3576134a26124b8565b5b600083013567ffffffffffffffff8111156134c1576134c06124bd565b5b6134cd8582860161281f565b92505060206134de85828601612dad565b9150509250929050565b600081519050919050565b600082825260208201905092915050565b6000819050602082019050919050565b6000604083016000830151848203600086015261353182826128b2565b9150506020830151848203602086015261354b82826129bd565b9150508091505092915050565b60006135648383613514565b905092915050565b6000602082019050919050565b6000613584826134e8565b61358e81856134f3565b9350836020820285016135a085613504565b8060005b858110156135dc57848403895281516135bd8582613558565b94506135c88361356c565b925060208a019950506001810190506135a4565b50829750879550505050505092915050565b600060408201905081810360008301526136088185613579565b9050818103602083015261361c8184612e7a565b90509392505050565b7f4e487b7100000000000000000000000000000000000000000000000000000000600052601160045260246000fd5b600061365f82612d5f565b9150677fffffffffffffff820361367957613678613625565b5b600182019050919050565b600081905092915050565b50565b600061369f600083613684565b91506136aa8261368f565b600082019050919050565b60006136c082613692565b9150819050919050565b7f4661696c656420746f2073656e6420457468657220746f2064656c656761746f60008201527f7200000000000000000000000000000000000000000000000000000000000000602082015250565b6000613726602183613420565b9150613731826136ca565b604082019050919050565b6000602082019050818103600083015261375581613719565b9050919050565b6000819050919050565b600061378161377c613777846124c2565b61375c565b6124c2565b9050919050565b600061379382613766565b9050919050565b60006137a582613788565b9050919050565b6137b58161379a565b82525050565b6137c481612520565b82525050565b60006040820190506137df60008301856137ac565b6137ec60208301846137bb565b9392505050565b60008151905061380281612568565b92915050565b60006020828403121561381e5761381d6124b8565b5b600061382c848285016137f3565b91505092915050565b7f6661696c656420746f20636c61696d2072657761726473000000000000000000600082015250565b600061386b601783613420565b915061387682613835565b602082019050919050565b6000602082019050818103600083015261389a8161385e565b9050919050565b6138aa816125fb565b82525050565b60006020820190506138c560008301846138a1565b92915050565b60006138d682612666565b6138e08185613684565b93506138f0818560208601612682565b80840191505092915050565b600061390882846138cb565b915081905092915050565b7f6661696c65642073746174696343616c6c20746f20707265636f6d70696c6500600082015250565b6000613949601f83613420565b915061395482613913565b602082019050919050565b600060208201905081810360008301526139788161393c565b9050919050565b600080fd5b600080fd5b600061399c6139978461279d565b612782565b9050828152602081018484840111156139b8576139b761271d565b5b6139c3848285612682565b509392505050565b600082601f8301126139e0576139df612718565b5b81516139f0848260208601613989565b91505092915050565b600067ffffffffffffffff821115613a1457613a13612722565b5b602082029050602081019050919050565b600080fd5b600081519050613a3981612d96565b92915050565b613a4881612930565b8114613a5357600080fd5b50565b600081519050613a6581613a3f565b92915050565b600060608284031215613a8157613a8061397f565b5b613a8b6060612782565b9050600082015167ffffffffffffffff811115613aab57613aaa613984565b5b613ab7848285016139cb565b6000830152506020613acb84828501613a2a565b6020830152506040613adf84828501613a56565b60408301525092915050565b6000613afe613af9846139f9565b612782565b90508083825260208201905060208402830185811115613b2157613b20613a25565b5b835b81811015613b6857805167ffffffffffffffff811115613b4657613b45612718565b5b808601613b538982613a6b565b85526020850194505050602081019050613b23565b5050509392505050565b600082601f830112613b8757613b86612718565b5b8151613b97848260208601613aeb565b91505092915050565b600060608284031215613bb657613bb561397f565b5b613bc06060612782565b9050600082015167ffffffffffffffff811115613be057613bdf613984565b5b613bec848285016139cb565b600083015250602082015167ffffffffffffffff811115613c1057613c0f613984565b5b613c1c84828501613b72565b602083015250604082015167ffffffffffffffff811115613c4057613c3f613984565b5b613c4c84828501613b72565b60408301525092915050565b600060208284031215613c6e57613c6d6124b8565b5b600082015167ffffffffffffffff811115613c8c57613c8b6124bd565b5b613c9884828501613ba0565b91505092915050565b6000604082019050613cb660008301856138a1565b8181036020830152613cc88184613431565b90509392505050565b600067ffffffffffffffff821115613cec57613ceb612722565b5b602082029050602081019050919050565b600060408284031215613d1357613d1261397f565b5b613d1d6040612782565b9050600082015167ffffffffffffffff811115613d3d57613d3c613984565b5b613d49848285016139cb565b6000830152506020613d5d84828501613a2a565b60208301525092915050565b6000613d7c613d7784613cd1565b612782565b90508083825260208201905060208402830185811115613d9f57613d9e613a25565b5b835b81811015613de657805167ffffffffffffffff811115613dc457613dc3612718565b5b808601613dd18982613cfd565b85526020850194505050602081019050613da1565b5050509392505050565b600082601f830112613e0557613e04612718565b5b8151613e15848260208601613d69565b91505092915050565b600060208284031215613e3457613e336124b8565b5b600082015167ffffffffffffffff811115613e5257613e516124bd565b5b613e5e84828501613df0565b91505092915050565b6000604082019050613e7c60008301856137ac565b8181036020830152613e8e8184613431565b90509392505050565b7f6661696c65642064656c656761746543616c6c20746f20707265636f6d70696c60008201527f6500000000000000000000000000000000000000000000000000000000000000602082015250565b6000613ef3602183613420565b9150613efe82613e97565b604082019050919050565b60006020820190508181036000830152613f2281613ee6565b9050919050565b613f3281612917565b82525050565b6000604082019050613f4d60008301856137ac565b613f5a6020830184613f29565b9392505050565b6000604082019050613f7660008301856138a1565b613f8360208301846137bb565b9392505050565b600060208284031215613fa057613f9f6124b8565b5b600082015167ffffffffffffffff811115613fbe57613fbd6124bd565b5b613fca84828501613b72565b91505092915050565b613fdc81612f94565b82525050565b600080fd5b600080fd5b600080fd5b6000808335600160200384360303811261400e5761400d613fec565b5b83810192508235915060208301925067ffffffffffffffff82111561403657614035613fe2565b5b60018202360383131561404c5761404b613fe7565b5b509250929050565b600061406083856131b3565b935061406d8385846127ce565b614076836126ac565b840190509392505050565b60006140906020840184612fbf565b905092915050565b60006140a7602084018461257f565b905092915050565b6140b88161255c565b82525050565b600060a083016140d16000840184613ff1565b85830360008701526140e4838284614054565b925050506140f56020840184614081565b61410260208601826130c3565b506141106040840184614081565b61411d60408601826130c3565b5061412b6060840184614098565b61413860608601826140af565b506141466080840184614098565b61415360808601826140af565b508091505092915050565b600060808201905081810360008301526141788187613431565b90506141876020830186613fd3565b6141946040830185613fd3565b81810360608301526141a681846140be565b905095945050505050565b600067ffffffffffffffff8211156141cc576141cb612722565b5b602082029050602081019050919050565b6000815190506141ec81612fa8565b92915050565b6000604082840312156142085761420761397f565b5b6142126040612782565b9050600061422284828501613a2a565b600083015250602061423684828501613a56565b60208301525092915050565b6000606082840312156142585761425761397f565b5b6142626040612782565b90506000614272848285016141dd565b6000830152506020614286848285016141f2565b60208301525092915050565b60006142a56142a0846141b1565b612782565b905080838252602082019050606084028301858111156142c8576142c7613a25565b5b835b818110156142f157806142dd8882614242565b8452602084019350506060810190506142ca565b5050509392505050565b600082601f8301126143105761430f612718565b5b8151614320848260208601614292565b91505092915050565b600067ffffffffffffffff82111561434457614343612722565b5b61434d826126ac565b9050602081019050919050565b600061436d61436884614329565b612782565b9050828152602081018484840111156143895761438861271d565b5b614394848285612682565b509392505050565b600082601f8301126143b1576143b0612718565b5b81516143c184826020860161435a565b91505092915050565b6000604082840312156143e0576143df61397f565b5b6143ea6040612782565b9050600082015167ffffffffffffffff81111561440a57614409613984565b5b6144168482850161439c565b600083015250602061442a848285016141dd565b60208301525092915050565b6000806040838503121561444d5761444c6124b8565b5b600083015167ffffffffffffffff81111561446b5761446a6124bd565b5b614477858286016142fb565b925050602083015167ffffffffffffffff811115614498576144976124bd565b5b6144a4858286016143ca565b9150509250929050565b7f6661696c656420746f2073657420776974686472617720616464726573730000600082015250565b60006144e4601e83613420565b91506144ef826144ae565b602082019050919050565b60006020820190508181036000830152614513816144d7565b9050919050565b600067ffffffffffffffff82111561453557614534612722565b5b602082029050602081019050919050565b60006145596145548461451a565b612782565b9050808382526020820190506020840283018581111561457c5761457b613a25565b5b835b818110156145c357805167ffffffffffffffff8111156145a1576145a0612718565b5b8086016145ae89826139cb565b8552602085019450505060208101905061457e565b5050509392505050565b600082601f8301126145e2576145e1612718565b5b81516145f2848260208601614546565b91505092915050565b600060208284031215614611576146106124b8565b5b600082015167ffffffffffffffff81111561462f5761462e6124bd565b5b61463b848285016145cd565b91505092915050565b600061464f82612d5f565b915061465a83612d5f565b925082820190507fffffffffffffffffffffffffffffffffffffffffffffffff80000000000000008112677fffffffffffffff8213171561469e5761469d613625565b5b92915050565b60006040820190506146b960008301856138a1565b6146c66020830184613f29565b9392505050565b60006146d882612d5f565b91506146e383612d5f565b92508282039050677fffffffffffffff81137fffffffffffffffffffffffffffffffffffffffffffffffff80000000000000008212171561472757614726613625565b5b92915050565b600060208284031215614743576147426124b8565b5b600082015167ffffffffffffffff811115614761576147606124bd565b5b61476d848285016139cb565b91505092915050565b600060608201905061478b60008301866138a1565b818103602083015261479d8185613431565b90506147ac6040830184613f29565b949350505050565b600067ffffffffffffffff8211156147cf576147ce612722565b5b602082029050602081019050919050565b6000604082840312156147f6576147f561397f565b5b6148006040612782565b9050600082015167ffffffffffffffff8111156148205761481f613984565b5b61482c848285016139cb565b600083015250602082015167ffffffffffffffff8111156148505761484f613984565b5b61485c84828501613b72565b60208301525092915050565b600061487b614876846147b4565b612782565b9050808382526020820190506020840283018581111561489e5761489d613a25565b5b835b818110156148e557805167ffffffffffffffff8111156148c3576148c2612718565b5b8086016148d089826147e0565b855260208501945050506020810190506148a0565b5050509392505050565b600082601f83011261490457614903612718565b5b8151614914848260208601614868565b91505092915050565b60008060408385031215614934576149336124b8565b5b600083015167ffffffffffffffff811115614952576149516124bd565b5b61495e858286016148ef565b925050602083015167ffffffffffffffff81111561497f5761497e6124bd565b5b61498b85828601613b72565b915050925092905056fea26469706673582212203b0ffb48a50f25dc097ac3a6056d380ed54cd8969bc440230406b8eba038f79264736f6c634300081400332f636f736d6f732e7374616b696e672e763162657461312e4d736744656c6567617465",
  "linkReferences": {},
  "deployedLinkReferences": {}
}