{
  "_format": "hh-sol-artifact-1",
  "contractName": "DistributionCaller",
  "sourceName": "solidity/precompiles/testutil/contracts/DistributionCaller.sol",
  "abi": [
    {
      "inputs": [],
      "name": "counter",
      "outputs": [
        {
          "internalType": "int64",
          "name": "",
          "type": "int64"
        }
      ],
      "stateMutability": "view",
      "type": "function"
    },
    {
      "inputs": [
        {
          "internalType": "address",
          "name": "_delAddr",
          "type": "address"
        },
        {
          "internalType": "string",
          "name": "_withdrawAddr",
          "type": "string"
        }
      ],
      "name": "delegateCallSetWithdrawAddress",
      "outputs": [],
      "stateMutability": "nonpayable",
      "type": "function"
    },
    {
      "inputs": [],
      "name": "deposit",
      "outputs": [],
      "stateMutability": "payable",
      "type": "function"
    },
    {
      "inputs": [],
      "name": "getCommunityPool",
      "outputs": [
        {
          "components": [
            {
              "internalType": "string",
              "name": "denom",
              "type": "string"
            },
            {
              "internalType": "uint256",
              "name": "amount",
              "type": "uint256"
            },
            {
              "internalType": "uint8",
              "name": "precision",
              "type": "uint8"
            }
          ],
          "internalType": "struct DecCoin[]",
          "name": "",
          "type": "tuple[]"
        }
      ],
      "stateMutability": "view",
      "type": "function"
    },
    {
      "inputs": [
        {
          "internalType": "address",
          "name": "_delAddr",
          "type": "address"
        },
        {
          "internalType": "string",
          "name": "_valAddr",
          "type": "string"
        }
      ],
      "name": "getDelegationRewards",
      "outputs": [
        {
          "components": [
            {
              "internalType": "string",
              "name": "denom",
              "type": "string"
            },
            {
              "internalType": "uint256",
              "name": "amount",
              "type": "uint256"
            },
            {
              "internalType": "uint8",
              "name": "precision",
              "type": "uint8"
            }
          ],
          "internalType": "struct DecCoin[]",
          "name": "",
          "type": "tuple[]"
        }
      ],
      "stateMutability": "view",
      "type": "function"
    },
    {
      "inputs": [
        {
          "internalType": "address",
          "name": "_delAddr",
          "type": "address"
        }
      ],
      "name": "getDelegationTotalRewards",
      "outputs": [
        {
          "components": [
            {
              "internalType": "string",
              "name": "validatorAddress",
              "type": "string"
            },
            {
              "components": [
                {
                  "internalType": "string",
                  "name": "denom",
                  "type": "string"
                },
                {
                  "internalType": "uint256",
                  "name": "amount",
                  "type": "uint256"
                },
                {
                  "internalType": "uint8",
                  "name": "precision",
                  "type": "uint8"
                }
              ],
              "internalType": "struct DecCoin[]",
              "name": "reward",
              "type": "tuple[]"
            }
          ],
          "internalType": "struct DelegationDelegatorReward[]",
          "name": "rewards",
          "type": "tuple[]"
        },
        {
          "components": [
            {
              "internalType": "string",
              "name": "denom",
              "type": "string"
            },
            {
              "internalType": "uint256",
              "name": "amount",
              "type": "uint256"
            },
            {
              "internalType": "uint8",
              "name": "precision",
              "type": "uint8"
            }
          ],
          "internalType": "struct DecCoin[]",
          "name": "total",
          "type": "tuple[]"
        }
      ],
      "stateMutability": "view",
      "type": "function"
    },
    {
      "inputs": [
        {
          "internalType": "address",
          "name": "_delAddr",
          "type": "address"
        }
      ],
      "name": "getDelegatorValidators",
      "outputs": [
        {
          "internalType": "string[]",
          "name": "",
          "type": "string[]"
        }
      ],
      "stateMutability": "view",
      "type": "function"
    },
    {
      "inputs": [
        {
          "internalType": "address",
          "name": "_delAddr",
          "type": "address"
        }
      ],
      "name": "getDelegatorWithdrawAddress",
      "outputs": [
        {
          "internalType": "string",
          "name": "",
          "type": "string"
        }
      ],
      "stateMutability": "view",
      "type": "function"
    },
    {
      "inputs": [
        {
          "internalType": "string",
          "name": "_valAddr",
          "type": "string"
        }
      ],
      "name": "getValidatorCommission",
      "outputs": [
        {
          "components": [
            {
              "internalType": "string",
              "name": "denom",
              "type": "string"
            },
            {
              "internalType": "uint256",
              "name": "amount",
              "type": "uint256"
            },
            {
              "internalType": "uint8",
              "name": "precision",
              "type": "uint8"
            }
          ],
          "internalType": "struct DecCoin[]",
          "name": "",
          "type": "tuple[]"
        }
      ],
      "stateMutability": "view",
      "type": "function"
    },
    {
      "inputs": [
        {
          "internalType": "string",
          "name": "_valAddr",
          "type": "string"
        }
      ],
      "name": "getValidatorDistributionInfo",
      "outputs": [
        {
          "components": [
            {
              "internalType": "string",
              "name": "operatorAddress",
              "type": "string"
            },
            {
              "components": [
                {
                  "internalType": "string",
                  "name": "denom",
                  "type": "string"
                },
                {
                  "internalType": "uint256",
                  "name": "amount",
                  "type": "uint256"
                },
                {
                  "internalType": "uint8",
                  "name": "precision",
                  "type": "uint8"
                }
              ],
              "internalType": "struct DecCoin[]",
              "name": "selfBondRewards",
              "type": "tuple[]"
            },
            {
              "components": [
                {
                  "internalType": "string",
                  "name": "denom",
                  "type": "string"
                },
                {
                  "internalType": "uint256",
                  "name": "amount",
                  "type": "uint256"
                },
                {
                  "internalType": "uint8",
                  "name": "precision",
                  "type": "uint8"
                }
              ],
              "internalType": "struct DecCoin[]",
              "name": "commission",
              "type": "tuple[]"
            }
          ],
          "internalType": "struct ValidatorDistributionInfo",
          "name": "",
          "type": "tuple"
        }
      ],
      "stateMutability": "view",
      "type": "function"
    },
    {
      "inputs": [
        {
          "internalType": "string",
          "name": "_valAddr",
          "type": "string"
        }
      ],
      "name": "getValidatorOutstandingRewards",
      "outputs": [
        {
          "components": [
            {
              "internalType": "string",
              "name": "denom",
              "type": "string"
            },
            {
              "internalType": "uint256",
              "name": "amount",
              "type": "uint256"
            },
            {
              "internalType": "uint8",
              "name": "precision",
              "type": "uint8"
            }
          ],
          "internalType": "struct DecCoin[]",
          "name": "",
          "type": "tuple[]"
        }
      ],
      "stateMutability": "view",
      "type": "function"
    },
    {
      "inputs": [
        {
          "internalType": "string",
          "name": "_valAddr",
          "type": "string"
        },
        {
          "internalType": "uint64",
          "name": "_startingHeight",
          "type": "uint64"
        },
        {
          "internalType": "uint64",
          "name": "_endingHeight",
          "type": "uint64"
        },
        {
          "components": [
            {
              "internalType": "bytes",
              "name": "key",
              "type": "bytes"
            },
            {
              "internalType": "uint64",
              "name": "offset",
              "type": "uint64"
            },
            {
              "internalType": "uint64",
              "name": "limit",
              "type": "uint64"
            },
            {
              "internalType": "bool",
              "name": "countTotal",
              "type": "bool"
            },
            {
              "internalType": "bool",
              "name": "reverse",
              "type": "bool"
            }
          ],
          "internalType": "struct PageRequest",
          "name": "pageRequest",
          "type": "tuple"
        }
      ],
      "name": "getValidatorSlashes",
      "outputs": [
        {
          "components": [
            {
              "internalType": "uint64",
              "name": "validatorPeriod",
              "type": "uint64"
            },
            {
              "components": [
                {
                  "internalType": "uint256",
                  "name": "value",
                  "type": "uint256"
                },
                {
                  "internalType": "uint8",
                  "name": "precision",
                  "type": "uint8"
                }
              ],
              "internalType": "struct Dec",
              "name": "fraction",
              "type": "tuple"
            }
          ],
          "internalType": "struct ValidatorSlashEvent[]",
          "name": "",
          "type": "tuple[]"
        },
        {
          "components": [
            {
              "internalType": "bytes",
              "name": "nextKey",
              "type": "bytes"
            },
            {
              "internalType": "uint64",
              "name": "total",
              "type": "uint64"
            }
          ],
          "internalType": "struct PageResponse",
          "name": "",
          "type": "tuple"
        }
      ],
      "stateMutability": "view",
      "type": "function"
    },
    {
      "inputs": [
        {
          "internalType": "address payable",
          "name": "_delAddr",
          "type": "address"
        },
        {
          "internalType": "address payable",
          "name": "_withdrawer",
          "type": "address"
        },
        {
          "internalType": "string",
          "name": "_valAddr",
          "type": "string"
        },
        {
          "internalType": "bool",
          "name": "_after",
          "type": "bool"
        }
      ],
      "name": "revertWithdrawRewardsAndTransfer",
      "outputs": [],
      "stateMutability": "nonpayable",
      "type": "function"
    },
    {
      "inputs": [
        {
          "internalType": "address",
          "name": "_delAddr",
          "type": "address"
        }
      ],
      "name": "staticCallGetWithdrawAddress",
      "outputs": [
        {
          "internalType": "bytes",
          "name": "",
          "type": "bytes"
        }
      ],
      "stateMutability": "view",
      "type": "function"
    },
    {
      "inputs": [
        {
          "internalType": "address",
          "name": "_delAddr",
          "type": "address"
        },
        {
          "internalType": "string",
          "name": "_withdrawAddr",
          "type": "string"
        }
      ],
      "name": "staticCallSetWithdrawAddress",
      "outputs": [],
      "stateMutability": "view",
      "type": "function"
    },
    {
      "inputs": [
        {
          "internalType": "address",
          "name": "_delAddr",
          "type": "address"
        },
        {
          "internalType": "uint32",
          "name": "_maxRetrieve",
          "type": "uint32"
        }
      ],
      "name": "testClaimRewards",
      "outputs": [
        {
          "internalType": "bool",
          "name": "success",
          "type": "bool"
        }
      ],
      "stateMutability": "nonpayable",
      "type": "function"
    },
    {
      "inputs": [
        {
          "internalType": "address payable",
          "name": "_delAddr",
          "type": "address"
        },
        {
          "internalType": "uint32",
          "name": "_maxRetrieve",
          "type": "uint32"
        },
        {
          "internalType": "bool",
          "name": "_before",
          "type": "bool"
        },
        {
          "internalType": "bool",
          "name": "_after",
          "type": "bool"
        }
      ],
      "name": "testClaimRewardsWithTransfer",
      "outputs": [],
      "stateMutability": "nonpayable",
      "type": "function"
    },
    {
      "inputs": [
        {
          "internalType": "string",
          "name": "_validatorAddr",
          "type": "string"
        },
        {
          "internalType": "uint256",
          "name": "_amount",
          "type": "uint256"
        }
      ],
      "name": "testDelegateFromContract",
      "outputs": [],
      "stateMutability": "nonpayable",
      "type": "function"
    },
    {
      "inputs": [
        {
          "internalType": "address",
          "name": "depositor",
          "type": "address"
        },
        {
          "internalType": "string",
          "name": "validatorAddress",
          "type": "string"
        },
        {
          "components": [
            {
              "internalType": "string",
              "name": "denom",
              "type": "string"
            },
            {
              "internalType": "uint256",
              "name": "amount",
              "type": "uint256"
            }
          ],
          "internalType": "struct Coin[]",
          "name": "amount",
          "type": "tuple[]"
        }
      ],
      "name": "testDepositValidatorRewardsPool",
      "outputs": [
        {
          "internalType": "bool",
          "name": "success",
          "type": "bool"
        }
      ],
      "stateMutability": "nonpayable",
      "type": "function"
    },
    {
      "inputs": [
        {
          "internalType": "address payable",
          "name": "depositor",
          "type": "address"
        },
        {
          "internalType": "string",
          "name": "validatorAddress",
          "type": "string"
        },
        {
          "components": [
            {
              "internalType": "string",
              "name": "denom",
              "type": "string"
            },
            {
              "internalType": "uint256",
              "name": "amount",
              "type": "uint256"
            }
          ],
          "internalType": "struct Coin[]",
          "name": "amount",
          "type": "tuple[]"
        },
        {
          "internalType": "bool",
          "name": "_before",
          "type": "bool"
        },
        {
          "internalType": "bool",
          "name": "_after",
          "type": "bool"
        }
      ],
      "name": "testDepositValidatorRewardsPoolWithTransfer",
      "outputs": [],
      "stateMutability": "nonpayable",
      "type": "function"
    },
    {
      "inputs": [
        {
          "internalType": "address",
          "name": "depositor",
          "type": "address"
        },
        {
          "components": [
            {
              "internalType": "string",
              "name": "denom",
              "type": "string"
            },
            {
              "internalType": "uint256",
              "name": "amount",
              "type": "uint256"
            }
          ],
          "internalType": "struct Coin[]",
          "name": "amount",
          "type": "tuple[]"
        }
      ],
      "name": "testFundCommunityPool",
      "outputs": [
        {
          "internalType": "bool",
          "name": "success",
          "type": "bool"
        }
      ],
      "stateMutability": "nonpayable",
      "type": "function"
    },
    {
      "inputs": [
        {
          "internalType": "address payable",
          "name": "depositor",
          "type": "address"
        },
        {
          "components": [
            {
              "internalType": "string",
              "name": "denom",
              "type": "string"
            },
            {
              "internalType": "uint256",
              "name": "amount",
              "type": "uint256"
            }
          ],
          "internalType": "struct Coin[]",
          "name": "amount",
          "type": "tuple[]"
        },
        {
          "internalType": "bool",
          "name": "_before",
          "type": "bool"
        },
        {
          "internalType": "bool",
          "name": "_after",
          "type": "bool"
        }
      ],
      "name": "testFundCommunityPoolWithTransfer",
      "outputs": [],
      "stateMutability": "nonpayable",
      "type": "function"
    },
    {
      "inputs": [
        {
          "internalType": "string",
          "name": "_withdrawAddr",
          "type": "string"
        },
        {
          "internalType": "address",
          "name": "_delAddr",
          "type": "address"
        },
        {
          "internalType": "string",
          "name": "_valAddr",
          "type": "string"
        }
      ],
      "name": "testRevertState",
      "outputs": [
        {
          "components": [
            {
              "internalType": "string",
              "name": "denom",
              "type": "string"
            },
            {
              "internalType": "uint256",
              "name": "amount",
              "type": "uint256"
            }
          ],
          "internalType": "struct Coin[]",
          "name": "",
          "type": "tuple[]"
        }
      ],
      "stateMutability": "nonpayable",
      "type": "function"
    },
    {
      "inputs": [
        {
          "internalType": "address",
          "name": "_delAddr",
          "type": "address"
        },
        {
          "internalType": "string",
          "name": "_withdrawAddr",
          "type": "string"
        }
      ],
      "name": "testSetWithdrawAddress",
      "outputs": [
        {
          "internalType": "bool",
          "name": "",
          "type": "bool"
        }
      ],
      "stateMutability": "nonpayable",
      "type": "function"
    },
    {
      "inputs": [
        {
          "internalType": "string",
          "name": "_withdrawAddr",
          "type": "string"
        }
      ],
      "name": "testSetWithdrawAddressFromContract",
      "outputs": [
        {
          "internalType": "bool",
          "name": "",
          "type": "bool"
        }
      ],
      "stateMutability": "nonpayable",
      "type": "function"
    },
    {
      "inputs": [
        {
          "internalType": "address",
          "name": "delegatorAddress",
          "type": "address"
        },
        {
          "internalType": "uint32",
          "name": "maxRetrieve",
          "type": "uint32"
        }
      ],
      "name": "testTryClaimRewards",
      "outputs": [
        {
          "internalType": "bool",
          "name": "",
          "type": "bool"
        }
      ],
      "stateMutability": "nonpayable",
      "type": "function"
    },
    {
      "inputs": [
        {
          "internalType": "address",
          "name": "_delAddr",
          "type": "address"
        },
        {
          "internalType": "string",
          "name": "_valAddr",
          "type": "string"
        }
      ],
      "name": "testWithdrawDelegatorReward",
      "outputs": [
        {
          "components": [
            {
              "internalType": "string",
              "name": "denom",
              "type": "string"
            },
            {
              "internalType": "uint256",
              "name": "amount",
              "type": "uint256"
            }
          ],
          "internalType": "struct Coin[]",
          "name": "",
          "type": "tuple[]"
        }
      ],
      "stateMutability": "nonpayable",
      "type": "function"
    },
    {
      "inputs": [
        {
          "internalType": "string",
          "name": "_valAddr",
          "type": "string"
        }
      ],
      "name": "testWithdrawDelegatorRewardFromContract",
      "outputs": [
        {
          "components": [
            {
              "internalType": "string",
              "name": "denom",
              "type": "string"
            },
            {
              "internalType": "uint256",
              "name": "amount",
              "type": "uint256"
            }
          ],
          "internalType": "struct Coin[]",
          "name": "",
          "type": "tuple[]"
        }
      ],
      "stateMutability": "nonpayable",
      "type": "function"
    },
    {
      "inputs": [
        {
          "internalType": "address payable",
          "name": "_delAddr",
          "type": "address"
        },
        {
          "internalType": "string",
          "name": "_valAddr",
          "type": "string"
        },
        {
          "internalType": "bool",
          "name": "_before",
          "type": "bool"
        },
        {
          "internalType": "bool",
          "name": "_after",
          "type": "bool"
        }
      ],
      "name": "testWithdrawDelegatorRewardWithTransfer",
      "outputs": [
        {
          "components": [
            {
              "internalType": "string",
              "name": "denom",
              "type": "string"
            },
            {
              "internalType": "uint256",
              "name": "amount",
              "type": "uint256"
            }
          ],
          "internalType": "struct Coin[]",
          "name": "coins",
          "type": "tuple[]"
        }
      ],
      "stateMutability": "nonpayable",
      "type": "function"
    },
    {
      "inputs": [
        {
          "internalType": "string",
          "name": "_valAddr",
          "type": "string"
        }
      ],
      "name": "testWithdrawValidatorCommission",
      "outputs": [
        {
          "components": [
            {
              "internalType": "string",
              "name": "denom",
              "type": "string"
            },
            {
              "internalType": "uint256",
              "name": "amount",
              "type": "uint256"
            }
          ],
          "internalType": "struct Coin[]",
          "name": "",
          "type": "tuple[]"
        }
      ],
      "stateMutability": "nonpayable",
      "type": "function"
    },
    {
      "inputs": [
        {
          "internalType": "string",
          "name": "_valAddr",
          "type": "string"
        },
        {
          "internalType": "address payable",
          "name": "_withdrawer",
          "type": "address"
        },
        {
          "internalType": "bool",
          "name": "_before",
          "type": "bool"
        },
        {
          "internalType": "bool",
          "name": "_after",
          "type": "bool"
        }
      ],
      "name": "testWithdrawValidatorCommissionWithTransfer",
      "outputs": [
        {
          "components": [
            {
              "internalType": "string",
              "name": "denom",
              "type": "string"
            },
            {
              "internalType": "uint256",
              "name": "amount",
              "type": "uint256"
            }
          ],
          "internalType": "struct Coin[]",
          "name": "coins",
          "type": "tuple[]"
        }
      ],
      "stateMutability": "nonpayable",
      "type": "function"
    },
    {
      "inputs": [
        {
          "internalType": "address",
          "name": "_delAddr",
          "type": "address"
        },
        {
          "internalType": "string",
          "name": "_valAddr",
          "type": "string"
        }
      ],
      "name": "withdrawDelegatorRewardsAndRevert",
      "outputs": [
        {
          "components": [
            {
              "internalType": "string",
              "name": "denom",
              "type": "string"
            },
            {
              "internalType": "uint256",
              "name": "amount",
              "type": "uint256"
            }
          ],
          "internalType": "struct Coin[]",
          "name": "coins",
          "type": "tuple[]"
        }
      ],
      "stateMutability": "nonpayable",
      "type": "function"
    }
  ],
  "bytecode": "0x60806040526040518060200160405280604051806060016040528060238152602001620056896023913981525060009060016200003e92919062000053565b503480156200004c57600080fd5b50620004a1565b828054828255906000526020600020908101928215620000a0579160200282015b828111156200009f5782518290816200008e9190620003ba565b509160200191906001019062000074565b5b509050620000af9190620000b3565b5090565b5b80821115620000d75760008181620000cd9190620000db565b50600101620000b4565b5090565b508054620000e990620001a9565b6000825580601f10620000fd57506200011e565b601f0160209004906000526020600020908101906200011d919062000121565b5b50565b5b808211156200013c57600081600090555060010162000122565b5090565b600081519050919050565b7f4e487b7100000000000000000000000000000000000000000000000000000000600052604160045260246000fd5b7f4e487b7100000000000000000000000000000000000000000000000000000000600052602260045260246000fd5b60006002820490506001821680620001c257607f821691505b602082108103620001d857620001d76200017a565b5b50919050565b60008190508160005260206000209050919050565b60006020601f8301049050919050565b600082821b905092915050565b600060088302620002427fffffffffffffffffffffffffffffffffffffffffffffffffffffffffffffffff8262000203565b6200024e868362000203565b95508019841693508086168417925050509392505050565b6000819050919050565b6000819050919050565b60006200029b620002956200028f8462000266565b62000270565b62000266565b9050919050565b6000819050919050565b620002b7836200027a565b620002cf620002c682620002a2565b84845462000210565b825550505050565b600090565b620002e6620002d7565b620002f3818484620002ac565b505050565b5b818110156200031b576200030f600082620002dc565b600181019050620002f9565b5050565b601f8211156200036a576200033481620001de565b6200033f84620001f3565b810160208510156200034f578190505b620003676200035e85620001f3565b830182620002f8565b50505b505050565b600082821c905092915050565b60006200038f600019846008026200036f565b1980831691505092915050565b6000620003aa83836200037c565b9150826002028217905092915050565b620003c58262000140565b67ffffffffffffffff811115620003e157620003e06200014b565b5b620003ed8254620001a9565b620003fa8282856200031f565b600060209050601f8311600181146200043257600084156200041d578287015190505b6200042985826200039c565b86555062000499565b601f1984166200044286620001de565b60005b828110156200046c5784890151825560018201915060208501945060208101905062000445565b868310156200048c578489015162000488601f8916826200037c565b8355505b6001600288020188555050505b505050505050565b6151d880620004b16000396000f3fe6080604052600436106101e35760003560e01c80637c9db0bb11610102578063cb85aa0a11610095578063ddbfa27111610064578063ddbfa271146107c6578063e0421e3914610803578063e236c7a614610840578063f9ed9b671461087e576101e3565b8063cb85aa0a14610719578063d0e30db014610756578063d3f831be14610760578063dd987c201461079d576101e3565b8063963516e4116100d1578063963516e414610625578063ad5c4cdd14610662578063b2d178831461069f578063b6a216ae146106dc576101e3565b80637c9db0bb146105305780637e9a35561461056d57806388b2d581146105aa57806393574cd1146105e8576101e3565b8063467253cf1161017a5780636b7a547c116101495780636b7a547c146104505780636f669da41461048d57806378a5dfd1146104ca578063796b96d214610507576101e3565b8063467253cf1461038257806346e16d34146103ab578063613d4de8146103e857806361bc221a14610425576101e3565b80631b050207116101b65780631b050207146102c8578063201139a2146102f1578063296c60aa1461032e578063382d823c14610357576101e3565b80630183e4b4146101e857806301b68000146102115780630c05e9e41461024e5780630da847681461028b575b600080fd5b3480156101f457600080fd5b5061020f600480360381019061020a9190612a72565b6108a7565b005b34801561021d57600080fd5b5061023860048036038101906102339190612b17565b610bd6565b6040516102459190612bd4565b60405180910390f35b34801561025a57600080fd5b5061027560048036038101906102709190612d2b565b610d1e565b6040516102829190612f6e565b60405180910390f35b34801561029757600080fd5b506102b260048036038101906102ad9190612f90565b610dae565b6040516102bf91906130eb565b60405180910390f35b3480156102d457600080fd5b506102ef60048036038101906102ea919061310d565b610e3d565b005b3480156102fd57600080fd5b5061031860048036038101906103139190612d2b565b610fc4565b60405161032591906130eb565b60405180910390f35b34801561033a57600080fd5b5061035560048036038101906103509190612f90565b611052565b005b34801561036357600080fd5b5061036c611193565b6040516103799190613216565b60405180910390f35b34801561038e57600080fd5b506103a960048036038101906103a491906133c0565b611210565b005b3480156103b757600080fd5b506103d260048036038101906103cd9190612f90565b6114a4565b6040516103df9190613482565b60405180910390f35b3480156103f457600080fd5b5061040f600480360381019061040a919061349d565b61152e565b60405161041c91906130eb565b60405180910390f35b34801561043157600080fd5b5061043a611821565b604051610447919061353c565b60405180910390f35b34801561045c57600080fd5b5061047760048036038101906104729190613557565b611834565b6040516104849190613482565b60405180910390f35b34801561049957600080fd5b506104b460048036038101906104af91906135b3565b61194c565b6040516104c19190613482565b60405180910390f35b3480156104d657600080fd5b506104f160048036038101906104ec9190612f90565b6119d6565b6040516104fe9190613216565b60405180910390f35b34801561051357600080fd5b5061052e60048036038101906105299190612f90565b611a63565b005b34801561053c57600080fd5b5061055760048036038101906105529190612d2b565b611ba4565b6040516105649190613216565b60405180910390f35b34801561057957600080fd5b50610594600480360381019061058f91906135f3565b611c2e565b6040516105a191906130eb565b60405180910390f35b3480156105b657600080fd5b506105d160048036038101906105cc91906136da565b611ebb565b6040516105df92919061391c565b60405180910390f35b3480156105f457600080fd5b5061060f600480360381019061060a91906135b3565b611f59565b60405161061c9190613482565b60405180910390f35b34801561063157600080fd5b5061064c60048036038101906106479190612d2b565b611ff1565b6040516106599190613482565b60405180910390f35b34801561066e57600080fd5b5061068960048036038101906106849190612f90565b61207a565b60405161069691906130eb565b60405180910390f35b3480156106ab57600080fd5b506106c660048036038101906106c19190613953565b612106565b6040516106d391906130eb565b60405180910390f35b3480156106e857600080fd5b5061070360048036038101906106fe9190612b17565b61225b565b6040516107109190613aa0565b60405180910390f35b34801561072557600080fd5b50610740600480360381019061073b9190612b17565b6122e5565b60405161074d9190613b0c565b60405180910390f35b61075e61236f565b005b34801561076c57600080fd5b5061078760048036038101906107829190612d2b565b612371565b6040516107949190613216565b60405180910390f35b3480156107a957600080fd5b506107c460048036038101906107bf9190613b2e565b6123fb565b005b3480156107d257600080fd5b506107ed60048036038101906107e89190613b8a565b612482565b6040516107fa9190613482565b60405180910390f35b34801561080f57600080fd5b5061082a60048036038101906108259190612d2b565b61259d565b60405161083791906130eb565b60405180910390f35b34801561084c57600080fd5b5061086760048036038101906108629190612b17565b612629565b604051610875929190613d1b565b60405180910390f35b34801561088a57600080fd5b506108a560048036038101906108a09190613d52565b6126b6565b005b81156109d9576001600081819054906101000a900460070b809291906108cc90613e04565b91906101000a81548167ffffffffffffffff021916908360070b67ffffffffffffffff160217905550503073ffffffffffffffffffffffffffffffffffffffff168473ffffffffffffffffffffffffffffffffffffffff16146109d85760008473ffffffffffffffffffffffffffffffffffffffff16600f60405161095090613e65565b60006040518083038185875af1925050503d806000811461098d576040519150601f19603f3d011682016040523d82523d6000602084013e610992565b606091505b50509050806109d6576040517f08c379a00000000000000000000000000000000000000000000000000000000081526004016109cd90613eec565b60405180910390fd5b505b5b600061080173ffffffffffffffffffffffffffffffffffffffff16632efe8a5f86866040518363ffffffff1660e01b8152600401610a18929190613f7a565b6020604051808303816000875af1158015610a37573d6000803e3d6000fd5b505050506040513d601f19601f82011682018060405250810190610a5b9190613fb8565b905080610a9d576040517f08c379a0000000000000000000000000000000000000000000000000000000008152600401610a9490614031565b60405180910390fd5b8115610bcf576001600081819054906101000a900460070b80929190610ac290613e04565b91906101000a81548167ffffffffffffffff021916908360070b67ffffffffffffffff160217905550503073ffffffffffffffffffffffffffffffffffffffff168573ffffffffffffffffffffffffffffffffffffffff1614610bce5760008573ffffffffffffffffffffffffffffffffffffffff16600f604051610b4690613e65565b60006040518083038185875af1925050503d8060008114610b83576040519150601f19603f3d011682016040523d82523d6000602084013e610b88565b606091505b5050905080610bcc576040517f08c379a0000000000000000000000000000000000000000000000000000000008152600401610bc390613eec565b60405180910390fd5b505b5b5050505050565b606060008061080173ffffffffffffffffffffffffffffffffffffffff1684604051602401610c059190614060565b6040516020818303038152906040527f5431f450000000000000000000000000000000000000000000000000000000007bffffffffffffffffffffffffffffffffffffffffffffffffffffffff19166020820180517bffffffffffffffffffffffffffffffffffffffffffffffffffffffff8381831617835250505050604051610c8f91906140ac565b600060405180830381855afa9150503d8060008114610cca576040519150601f19603f3d011682016040523d82523d6000602084013e610ccf565b606091505b509150915081610d14576040517f08c379a0000000000000000000000000000000000000000000000000000000008152600401610d0b9061410f565b60405180910390fd5b8092505050919050565b610d26612947565b61080173ffffffffffffffffffffffffffffffffffffffff166354212a89836040518263ffffffff1660e01b8152600401610d619190613b0c565b600060405180830381865afa158015610d7e573d6000803e3d6000fd5b505050506040513d6000823e3d601f19601f82011682018060405250810190610da791906143f9565b9050919050565b606061080173ffffffffffffffffffffffffffffffffffffffff1663b46a8d6184846040518363ffffffff1660e01b8152600401610ded929190614442565b6000604051808303816000875af1158015610e0c573d6000803e3d6000fd5b505050506040513d6000823e3d601f19601f82011682018060405250810190610e359190614593565b905092915050565b3073ffffffffffffffffffffffffffffffffffffffff1663ad5c4cdd85846040518363ffffffff1660e01b8152600401610e789291906145dc565b6000604051808303816000875af1925050508015610eb957506040513d6000823e3d601f19601f82011682018060405250810190610eb69190614593565b60015b15610ec057505b8015610fbe576001600081819054906101000a900460070b80929190610ee590613e04565b91906101000a81548167ffffffffffffffff021916908360070b67ffffffffffffffff1602179055505060008373ffffffffffffffffffffffffffffffffffffffff16600f604051610f3690613e65565b60006040518083038185875af1925050503d8060008114610f73576040519150601f19603f3d011682016040523d82523d6000602084013e610f78565b606091505b5050905080610fbc576040517f08c379a0000000000000000000000000000000000000000000000000000000008152600401610fb390613eec565b60405180910390fd5b505b50505050565b606061080173ffffffffffffffffffffffffffffffffffffffff1663b46a8d6130846040518363ffffffff1660e01b8152600401611003929190614442565b6000604051808303816000875af1158015611022573d6000803e3d6000fd5b505050506040513d6000823e3d601f19601f8201168201806040525081019061104b9190614593565b9050919050565b600061080173ffffffffffffffffffffffffffffffffffffffff168383604051602401611080929190614442565b6040516020818303038152906040527f5a9d9a96000000000000000000000000000000000000000000000000000000007bffffffffffffffffffffffffffffffffffffffffffffffffffffffff19166020820180517bffffffffffffffffffffffffffffffffffffffffffffffffffffffff838183161783525050505060405161110a91906140ac565b600060405180830381855af49150503d8060008114611145576040519150601f19603f3d011682016040523d82523d6000602084013e61114a565b606091505b505090508061118e576040517f08c379a00000000000000000000000000000000000000000000000000000000081526004016111859061467e565b60405180910390fd5b505050565b606061080173ffffffffffffffffffffffffffffffffffffffff166314d140b06040518163ffffffff1660e01b8152600401600060405180830381865afa1580156111e2573d6000803e3d6000fd5b505050506040513d6000823e3d601f19601f8201168201806040525081019061120b919061469e565b905090565b811561130e576001600081819054906101000a900460070b8092919061123590613e04565b91906101000a81548167ffffffffffffffff021916908360070b67ffffffffffffffff1602179055505060008573ffffffffffffffffffffffffffffffffffffffff16600f60405161128690613e65565b60006040518083038185875af1925050503d80600081146112c3576040519150601f19603f3d011682016040523d82523d6000602084013e6112c8565b606091505b505090508061130c576040517f08c379a000000000000000000000000000000000000000000000000000000000815260040161130390613eec565b60405180910390fd5b505b600061080173ffffffffffffffffffffffffffffffffffffffff16632eb1df528787876040518463ffffffff1660e01b815260040161134f939291906146e7565b6020604051808303816000875af115801561136e573d6000803e3d6000fd5b505050506040513d601f19601f820116820180604052508101906113929190613fb8565b90508061139e57600080fd5b811561149c576001600081819054906101000a900460070b809291906113c390613e04565b91906101000a81548167ffffffffffffffff021916908360070b67ffffffffffffffff1602179055505060008673ffffffffffffffffffffffffffffffffffffffff16600f60405161141490613e65565b60006040518083038185875af1925050503d8060008114611451576040519150601f19603f3d011682016040523d82523d6000602084013e611456565b606091505b505090508061149a576040517f08c379a000000000000000000000000000000000000000000000000000000000815260040161149190613eec565b60405180910390fd5b505b505050505050565b600061080173ffffffffffffffffffffffffffffffffffffffff16635a9d9a9684846040518363ffffffff1660e01b81526004016114e3929190614442565b6020604051808303816000875af1158015611502573d6000803e3d6000fd5b505050506040513d601f19601f820116820180604052508101906115269190613fb8565b905092915050565b60608215611662576001600081819054906101000a900460070b8092919061155590613e04565b91906101000a81548167ffffffffffffffff021916908360070b67ffffffffffffffff160217905550503073ffffffffffffffffffffffffffffffffffffffff168473ffffffffffffffffffffffffffffffffffffffff16146116615760008473ffffffffffffffffffffffffffffffffffffffff16600f6040516115d990613e65565b60006040518083038185875af1925050503d8060008114611616576040519150601f19603f3d011682016040523d82523d6000602084013e61161b565b606091505b505090508061165f576040517f08c379a000000000000000000000000000000000000000000000000000000000815260040161165690613eec565b60405180910390fd5b505b5b61080173ffffffffffffffffffffffffffffffffffffffff16633ce4e3be866040518263ffffffff1660e01b815260040161169d9190613b0c565b6000604051808303816000875af11580156116bc573d6000803e3d6000fd5b505050506040513d6000823e3d601f19601f820116820180604052508101906116e59190614593565b90508115611819576001600081819054906101000a900460070b8092919061170c90613e04565b91906101000a81548167ffffffffffffffff021916908360070b67ffffffffffffffff160217905550503073ffffffffffffffffffffffffffffffffffffffff168473ffffffffffffffffffffffffffffffffffffffff16146118185760008473ffffffffffffffffffffffffffffffffffffffff16600f60405161179090613e65565b60006040518083038185875af1925050503d80600081146117cd576040519150601f19603f3d011682016040523d82523d6000602084013e6117d2565b606091505b5050905080611816576040517f08c379a000000000000000000000000000000000000000000000000000000000815260040161180d90613eec565b60405180910390fd5b505b5b949350505050565b600160009054906101000a900460070b81565b600060018060008282829054906101000a900460070b611854919061472c565b92506101000a81548167ffffffffffffffff021916908360070b67ffffffffffffffff16021790555061080173ffffffffffffffffffffffffffffffffffffffff16632d2b079c84846040518363ffffffff1660e01b81526004016118ba92919061478c565b6020604051808303816000875af11580156118d9573d6000803e3d6000fd5b505050506040513d601f19601f820116820180604052508101906118fd9190613fb8565b905060018060008282829054906101000a900460070b61191d91906147bc565b92506101000a81548167ffffffffffffffff021916908360070b67ffffffffffffffff16021790555092915050565b600061080173ffffffffffffffffffffffffffffffffffffffff16632efe8a5f84846040518363ffffffff1660e01b815260040161198b92919061481c565b6020604051808303816000875af11580156119aa573d6000803e3d6000fd5b505050506040513d601f19601f820116820180604052508101906119ce9190613fb8565b905092915050565b606061080173ffffffffffffffffffffffffffffffffffffffff16639ad563b484846040518363ffffffff1660e01b8152600401611a15929190614442565b600060405180830381865afa158015611a32573d6000803e3d6000fd5b505050506040513d6000823e3d601f19601f82011682018060405250810190611a5b919061469e565b905092915050565b600061080173ffffffffffffffffffffffffffffffffffffffff168383604051602401611a91929190614442565b6040516020818303038152906040527f5a9d9a96000000000000000000000000000000000000000000000000000000007bffffffffffffffffffffffffffffffffffffffffffffffffffffffff19166020820180517bffffffffffffffffffffffffffffffffffffffffffffffffffffffff8381831617835250505050604051611b1b91906140ac565b600060405180830381855afa9150503d8060008114611b56576040519150601f19603f3d011682016040523d82523d6000602084013e611b5b565b606091505b5050905080611b9f576040517f08c379a0000000000000000000000000000000000000000000000000000000008152600401611b969061410f565b60405180910390fd5b505050565b606061080173ffffffffffffffffffffffffffffffffffffffff16633dd40f78836040518263ffffffff1660e01b8152600401611be19190613b0c565b600060405180830381865afa158015611bfe573d6000803e3d6000fd5b505050506040513d6000823e3d601f19601f82011682018060405250810190611c27919061469e565b9050919050565b60608215611d2e576001600081819054906101000a900460070b80929190611c5590613e04565b91906101000a81548167ffffffffffffffff021916908360070b67ffffffffffffffff1602179055505060008573ffffffffffffffffffffffffffffffffffffffff16600f604051611ca690613e65565b60006040518083038185875af1925050503d8060008114611ce3576040519150601f19603f3d011682016040523d82523d6000602084013e611ce8565b606091505b5050905080611d2c576040517f08c379a0000000000000000000000000000000000000000000000000000000008152600401611d2390613eec565b60405180910390fd5b505b61080173ffffffffffffffffffffffffffffffffffffffff1663b46a8d6186866040518363ffffffff1660e01b8152600401611d6b9291906145dc565b6000604051808303816000875af1158015611d8a573d6000803e3d6000fd5b505050506040513d6000823e3d601f19601f82011682018060405250810190611db39190614593565b90508115611eb3576001600081819054906101000a900460070b80929190611dda90613e04565b91906101000a81548167ffffffffffffffff021916908360070b67ffffffffffffffff1602179055505060008573ffffffffffffffffffffffffffffffffffffffff16600f604051611e2b90613e65565b60006040518083038185875af1925050503d8060008114611e68576040519150601f19603f3d011682016040523d82523d6000602084013e611e6d565b606091505b5050905080611eb1576040517f08c379a0000000000000000000000000000000000000000000000000000000008152600401611ea890613eec565b60405180910390fd5b505b949350505050565b6060611ec5612968565b61080173ffffffffffffffffffffffffffffffffffffffff16638f2473ce878787876040518563ffffffff1660e01b8152600401611f0694939291906149d0565b600060405180830381865afa158015611f23573d6000803e3d6000fd5b505050506040513d6000823e3d601f19601f82011682018060405250810190611f4c9190614ca8565b9150915094509492505050565b60008061080173ffffffffffffffffffffffffffffffffffffffff16632efe8a5f85856040518363ffffffff1660e01b8152600401611f9992919061481c565b6020604051808303816000875af1925050508015611fd557506040513d601f19601f82011682018060405250810190611fd29190613fb8565b60015b611fe25760009050611fe7565b809150505b8091505092915050565b600061080173ffffffffffffffffffffffffffffffffffffffff16635a9d9a9630846040518363ffffffff1660e01b8152600401612030929190614442565b6020604051808303816000875af115801561204f573d6000803e3d6000fd5b505050506040513d601f19601f820116820180604052508101906120739190613fb8565b9050919050565b606061080173ffffffffffffffffffffffffffffffffffffffff1663b46a8d6184846040518363ffffffff1660e01b81526004016120b9929190614442565b6000604051808303816000875af11580156120d8573d6000803e3d6000fd5b505050506040513d6000823e3d601f19601f820116820180604052508101906121019190614593565b600080fd5b6060600061080173ffffffffffffffffffffffffffffffffffffffff16635a9d9a9633876040518363ffffffff1660e01b8152600401612147929190614442565b6020604051808303816000875af1158015612166573d6000803e3d6000fd5b505050506040513d601f19601f8201168201806040525081019061218a9190613fb8565b9050806121cc576040517f08c379a00000000000000000000000000000000000000000000000000000000081526004016121c390614d6c565b60405180910390fd5b61080173ffffffffffffffffffffffffffffffffffffffff1663b46a8d6185856040518363ffffffff1660e01b8152600401612209929190614442565b6000604051808303816000875af1158015612228573d6000803e3d6000fd5b505050506040513d6000823e3d601f19601f820116820180604052508101906122519190614593565b9150509392505050565b606061080173ffffffffffffffffffffffffffffffffffffffff1663a66cb605836040518263ffffffff1660e01b81526004016122989190614060565b600060405180830381865afa1580156122b5573d6000803e3d6000fd5b505050506040513d6000823e3d601f19601f820116820180604052508101906122de9190614e6d565b9050919050565b606061080173ffffffffffffffffffffffffffffffffffffffff16635431f450836040518263ffffffff1660e01b81526004016123229190614060565b600060405180830381865afa15801561233f573d6000803e3d6000fd5b505050506040513d6000823e3d601f19601f820116820180604052508101906123689190614eb6565b9050919050565b565b606061080173ffffffffffffffffffffffffffffffffffffffff166385b2d2da836040518263ffffffff1660e01b81526004016123ae9190613b0c565b600060405180830381865afa1580156123cb573d6000803e3d6000fd5b505050506040513d6000823e3d601f19601f820116820180604052508101906123f4919061469e565b9050919050565b61080073ffffffffffffffffffffffffffffffffffffffff166353266bbb3084846040518463ffffffff1660e01b815260040161243a93929190614f0e565b6020604051808303816000875af1158015612459573d6000803e3d6000fd5b505050506040513d601f19601f8201168201806040525081019061247d9190613fb8565b505050565b600060018060008282829054906101000a900460070b6124a2919061472c565b92506101000a81548167ffffffffffffffff021916908360070b67ffffffffffffffff16021790555061080173ffffffffffffffffffffffffffffffffffffffff16632eb1df528585856040518463ffffffff1660e01b815260040161250a93929190614f4c565b6020604051808303816000875af1158015612529573d6000803e3d6000fd5b505050506040513d601f19601f8201168201806040525081019061254d9190613fb8565b905060018060008282829054906101000a900460070b61256d91906147bc565b92506101000a81548167ffffffffffffffff021916908360070b67ffffffffffffffff1602179055509392505050565b606061080173ffffffffffffffffffffffffffffffffffffffff16633ce4e3be836040518263ffffffff1660e01b81526004016125da9190613b0c565b6000604051808303816000875af11580156125f9573d6000803e3d6000fd5b505050506040513d6000823e3d601f19601f820116820180604052508101906126229190614593565b9050919050565b60608061080173ffffffffffffffffffffffffffffffffffffffff166354be1a28846040518263ffffffff1660e01b81526004016126679190614060565b600060405180830381865afa158015612684573d6000803e3d6000fd5b505050506040513d6000823e3d601f19601f820116820180604052508101906126ad91906150fa565b91509150915091565b81156127b4576001600081819054906101000a900460070b809291906126db90613e04565b91906101000a81548167ffffffffffffffff021916908360070b67ffffffffffffffff1602179055505060008473ffffffffffffffffffffffffffffffffffffffff16600f60405161272c90613e65565b60006040518083038185875af1925050503d8060008114612769576040519150601f19603f3d011682016040523d82523d6000602084013e61276e565b606091505b50509050806127b2576040517f08c379a00000000000000000000000000000000000000000000000000000000081526004016127a990613eec565b60405180910390fd5b505b600061080173ffffffffffffffffffffffffffffffffffffffff16632d2b079c86866040518363ffffffff1660e01b81526004016127f3929190615172565b6020604051808303816000875af1158015612812573d6000803e3d6000fd5b505050506040513d601f19601f820116820180604052508101906128369190613fb8565b90508061284257600080fd5b8115612940576001600081819054906101000a900460070b8092919061286790613e04565b91906101000a81548167ffffffffffffffff021916908360070b67ffffffffffffffff1602179055505060008573ffffffffffffffffffffffffffffffffffffffff16600f6040516128b890613e65565b60006040518083038185875af1925050503d80600081146128f5576040519150601f19603f3d011682016040523d82523d6000602084013e6128fa565b606091505b505090508061293e576040517f08c379a000000000000000000000000000000000000000000000000000000000815260040161293590613eec565b60405180910390fd5b505b5050505050565b60405180606001604052806060815260200160608152602001606081525090565b604051806040016040528060608152602001600067ffffffffffffffff1681525090565b6000604051905090565b600080fd5b600080fd5b600073ffffffffffffffffffffffffffffffffffffffff82169050919050565b60006129cb826129a0565b9050919050565b6129db816129c0565b81146129e657600080fd5b50565b6000813590506129f8816129d2565b92915050565b600063ffffffff82169050919050565b612a17816129fe565b8114612a2257600080fd5b50565b600081359050612a3481612a0e565b92915050565b60008115159050919050565b612a4f81612a3a565b8114612a5a57600080fd5b50565b600081359050612a6c81612a46565b92915050565b60008060008060808587031215612a8c57612a8b612996565b5b6000612a9a878288016129e9565b9450506020612aab87828801612a25565b9350506040612abc87828801612a5d565b9250506060612acd87828801612a5d565b91505092959194509250565b6000612ae4826129a0565b9050919050565b612af481612ad9565b8114612aff57600080fd5b50565b600081359050612b1181612aeb565b92915050565b600060208284031215612b2d57612b2c612996565b5b6000612b3b84828501612b02565b91505092915050565b600081519050919050565b600082825260208201905092915050565b60005b83811015612b7e578082015181840152602081019050612b63565b60008484015250505050565b6000601f19601f8301169050919050565b6000612ba682612b44565b612bb08185612b4f565b9350612bc0818560208601612b60565b612bc981612b8a565b840191505092915050565b60006020820190508181036000830152612bee8184612b9b565b905092915050565b600080fd5b600080fd5b7f4e487b7100000000000000000000000000000000000000000000000000000000600052604160045260246000fd5b612c3882612b8a565b810181811067ffffffffffffffff82111715612c5757612c56612c00565b5b80604052505050565b6000612c6a61298c565b9050612c768282612c2f565b919050565b600067ffffffffffffffff821115612c9657612c95612c00565b5b612c9f82612b8a565b9050602081019050919050565b82818337600083830152505050565b6000612cce612cc984612c7b565b612c60565b905082815260208101848484011115612cea57612ce9612bfb565b5b612cf5848285612cac565b509392505050565b600082601f830112612d1257612d11612bf6565b5b8135612d22848260208601612cbb565b91505092915050565b600060208284031215612d4157612d40612996565b5b600082013567ffffffffffffffff811115612d5f57612d5e61299b565b5b612d6b84828501612cfd565b91505092915050565b600081519050919050565b600082825260208201905092915050565b6000612d9b82612d74565b612da58185612d7f565b9350612db5818560208601612b60565b612dbe81612b8a565b840191505092915050565b600081519050919050565b600082825260208201905092915050565b6000819050602082019050919050565b6000819050919050565b612e0881612df5565b82525050565b600060ff82169050919050565b612e2481612e0e565b82525050565b60006060830160008301518482036000860152612e478282612d90565b9150506020830151612e5c6020860182612dff565b506040830151612e6f6040860182612e1b565b508091505092915050565b6000612e868383612e2a565b905092915050565b6000602082019050919050565b6000612ea682612dc9565b612eb08185612dd4565b935083602082028501612ec285612de5565b8060005b85811015612efe5784840389528151612edf8582612e7a565b9450612eea83612e8e565b925060208a01995050600181019050612ec6565b50829750879550505050505092915050565b60006060830160008301518482036000860152612f2d8282612d90565b91505060208301518482036020860152612f478282612e9b565b91505060408301518482036040860152612f618282612e9b565b9150508091505092915050565b60006020820190508181036000830152612f888184612f10565b905092915050565b60008060408385031215612fa757612fa6612996565b5b6000612fb585828601612b02565b925050602083013567ffffffffffffffff811115612fd657612fd561299b565b5b612fe285828601612cfd565b9150509250929050565b600081519050919050565b600082825260208201905092915050565b6000819050602082019050919050565b600060408301600083015184820360008601526130358282612d90565b915050602083015161304a6020860182612dff565b508091505092915050565b60006130618383613018565b905092915050565b6000602082019050919050565b600061308182612fec565b61308b8185612ff7565b93508360208202850161309d85613008565b8060005b858110156130d957848403895281516130ba8582613055565b94506130c583613069565b925060208a019950506001810190506130a1565b50829750879550505050505092915050565b600060208201905081810360008301526131058184613076565b905092915050565b6000806000806080858703121561312757613126612996565b5b6000613135878288016129e9565b9450506020613146878288016129e9565b935050604085013567ffffffffffffffff8111156131675761316661299b565b5b61317387828801612cfd565b925050606061318487828801612a5d565b91505092959194509250565b600082825260208201905092915050565b60006131ac82612dc9565b6131b68185613190565b9350836020820285016131c885612de5565b8060005b8581101561320457848403895281516131e58582612e7a565b94506131f083612e8e565b925060208a019950506001810190506131cc565b50829750879550505050505092915050565b6000602082019050818103600083015261323081846131a1565b905092915050565b600067ffffffffffffffff82111561325357613252612c00565b5b602082029050602081019050919050565b600080fd5b600080fd5b600080fd5b61327c81612df5565b811461328757600080fd5b50565b60008135905061329981613273565b92915050565b6000604082840312156132b5576132b4613269565b5b6132bf6040612c60565b9050600082013567ffffffffffffffff8111156132df576132de61326e565b5b6132eb84828501612cfd565b60008301525060206132ff8482850161328a565b60208301525092915050565b600061331e61331984613238565b612c60565b9050808382526020820190506020840283018581111561334157613340613264565b5b835b8181101561338857803567ffffffffffffffff81111561336657613365612bf6565b5b808601613373898261329f565b85526020850194505050602081019050613343565b5050509392505050565b600082601f8301126133a7576133a6612bf6565b5b81356133b784826020860161330b565b91505092915050565b600080600080600060a086880312156133dc576133db612996565b5b60006133ea888289016129e9565b955050602086013567ffffffffffffffff81111561340b5761340a61299b565b5b61341788828901612cfd565b945050604086013567ffffffffffffffff8111156134385761343761299b565b5b61344488828901613392565b935050606061345588828901612a5d565b925050608061346688828901612a5d565b9150509295509295909350565b61347c81612a3a565b82525050565b60006020820190506134976000830184613473565b92915050565b600080600080608085870312156134b7576134b6612996565b5b600085013567ffffffffffffffff8111156134d5576134d461299b565b5b6134e187828801612cfd565b94505060206134f2878288016129e9565b935050604061350387828801612a5d565b925050606061351487828801612a5d565b91505092959194509250565b60008160070b9050919050565b61353681613520565b82525050565b6000602082019050613551600083018461352d565b92915050565b6000806040838503121561356e5761356d612996565b5b600061357c85828601612b02565b925050602083013567ffffffffffffffff81111561359d5761359c61299b565b5b6135a985828601613392565b9150509250929050565b600080604083850312156135ca576135c9612996565b5b60006135d885828601612b02565b92505060206135e985828601612a25565b9150509250929050565b6000806000806080858703121561360d5761360c612996565b5b600061361b878288016129e9565b945050602085013567ffffffffffffffff81111561363c5761363b61299b565b5b61364887828801612cfd565b935050604061365987828801612a5d565b925050606061366a87828801612a5d565b91505092959194509250565b600067ffffffffffffffff82169050919050565b61369381613676565b811461369e57600080fd5b50565b6000813590506136b08161368a565b92915050565b600080fd5b600060a082840312156136d1576136d06136b6565b5b81905092915050565b600080600080608085870312156136f4576136f3612996565b5b600085013567ffffffffffffffff8111156137125761371161299b565b5b61371e87828801612cfd565b945050602061372f878288016136a1565b9350506040613740878288016136a1565b925050606085013567ffffffffffffffff8111156137615761376061299b565b5b61376d878288016136bb565b91505092959194509250565b600081519050919050565b600082825260208201905092915050565b6000819050602082019050919050565b6137ae81613676565b82525050565b6040820160008201516137ca6000850182612dff565b5060208201516137dd6020850182612e1b565b50505050565b6060820160008201516137f960008501826137a5565b50602082015161380c60208501826137b4565b50505050565b600061381e83836137e3565b60608301905092915050565b6000602082019050919050565b600061384282613779565b61384c8185613784565b935061385783613795565b8060005b8381101561388857815161386f8882613812565b975061387a8361382a565b92505060018101905061385b565b5085935050505092915050565b600082825260208201905092915050565b60006138b182612b44565b6138bb8185613895565b93506138cb818560208601612b60565b6138d481612b8a565b840191505092915050565b600060408301600083015184820360008601526138fc82826138a6565b915050602083015161391160208601826137a5565b508091505092915050565b600060408201905081810360008301526139368185613837565b9050818103602083015261394a81846138df565b90509392505050565b60008060006060848603121561396c5761396b612996565b5b600084013567ffffffffffffffff81111561398a5761398961299b565b5b61399686828701612cfd565b93505060206139a786828701612b02565b925050604084013567ffffffffffffffff8111156139c8576139c761299b565b5b6139d486828701612cfd565b9150509250925092565b600081519050919050565b600082825260208201905092915050565b6000819050602082019050919050565b6000613a168383612d90565b905092915050565b6000602082019050919050565b6000613a36826139de565b613a4081856139e9565b935083602082028501613a52856139fa565b8060005b85811015613a8e5784840389528151613a6f8582613a0a565b9450613a7a83613a1e565b925060208a01995050600181019050613a56565b50829750879550505050505092915050565b60006020820190508181036000830152613aba8184613a2b565b905092915050565b600082825260208201905092915050565b6000613ade82612d74565b613ae88185613ac2565b9350613af8818560208601612b60565b613b0181612b8a565b840191505092915050565b60006020820190508181036000830152613b268184613ad3565b905092915050565b60008060408385031215613b4557613b44612996565b5b600083013567ffffffffffffffff811115613b6357613b6261299b565b5b613b6f85828601612cfd565b9250506020613b808582860161328a565b9150509250929050565b600080600060608486031215613ba357613ba2612996565b5b6000613bb186828701612b02565b935050602084013567ffffffffffffffff811115613bd257613bd161299b565b5b613bde86828701612cfd565b925050604084013567ffffffffffffffff811115613bff57613bfe61299b565b5b613c0b86828701613392565b9150509250925092565b600081519050919050565b600082825260208201905092915050565b6000819050602082019050919050565b60006040830160008301518482036000860152613c5e8282612d90565b91505060208301518482036020860152613c788282612e9b565b9150508091505092915050565b6000613c918383613c41565b905092915050565b6000602082019050919050565b6000613cb182613c15565b613cbb8185613c20565b935083602082028501613ccd85613c31565b8060005b85811015613d095784840389528151613cea8582613c85565b9450613cf583613c99565b925060208a01995050600181019050613cd1565b50829750879550505050505092915050565b60006040820190508181036000830152613d358185613ca6565b90508181036020830152613d4981846131a1565b90509392505050565b60008060008060808587031215613d6c57613d6b612996565b5b6000613d7a878288016129e9565b945050602085013567ffffffffffffffff811115613d9b57613d9a61299b565b5b613da787828801613392565b9350506040613db887828801612a5d565b9250506060613dc987828801612a5d565b91505092959194509250565b7f4e487b7100000000000000000000000000000000000000000000000000000000600052601160045260246000fd5b6000613e0f82613520565b9150677fffffffffffffff8203613e2957613e28613dd5565b5b600182019050919050565b600081905092915050565b50565b6000613e4f600083613e34565b9150613e5a82613e3f565b600082019050919050565b6000613e7082613e42565b9150819050919050565b7f4661696c656420746f2073656e6420457468657220746f2064656c656761746f60008201527f7200000000000000000000000000000000000000000000000000000000000000602082015250565b6000613ed6602183613ac2565b9150613ee182613e7a565b604082019050919050565b60006020820190508181036000830152613f0581613ec9565b9050919050565b6000819050919050565b6000613f31613f2c613f27846129a0565b613f0c565b6129a0565b9050919050565b6000613f4382613f16565b9050919050565b6000613f5582613f38565b9050919050565b613f6581613f4a565b82525050565b613f74816129fe565b82525050565b6000604082019050613f8f6000830185613f5c565b613f9c6020830184613f6b565b9392505050565b600081519050613fb281612a46565b92915050565b600060208284031215613fce57613fcd612996565b5b6000613fdc84828501613fa3565b91505092915050565b7f6661696c656420746f20636c61696d2072657761726473000000000000000000600082015250565b600061401b601783613ac2565b915061402682613fe5565b602082019050919050565b6000602082019050818103600083015261404a8161400e565b9050919050565b61405a81612ad9565b82525050565b60006020820190506140756000830184614051565b92915050565b600061408682612b44565b6140908185613e34565b93506140a0818560208601612b60565b80840191505092915050565b60006140b8828461407b565b915081905092915050565b7f6661696c65642073746174696343616c6c20746f20707265636f6d70696c6500600082015250565b60006140f9601f83613ac2565b9150614104826140c3565b602082019050919050565b60006020820190508181036000830152614128816140ec565b9050919050565b600061414261413d84612c7b565b612c60565b90508281526020810184848401111561415e5761415d612bfb565b5b614169848285612b60565b509392505050565b600082601f83011261418657614185612bf6565b5b815161419684826020860161412f565b91505092915050565b600067ffffffffffffffff8211156141ba576141b9612c00565b5b602082029050602081019050919050565b6000815190506141da81613273565b92915050565b6141e981612e0e565b81146141f457600080fd5b50565b600081519050614206816141e0565b92915050565b60006060828403121561422257614221613269565b5b61422c6060612c60565b9050600082015167ffffffffffffffff81111561424c5761424b61326e565b5b61425884828501614171565b600083015250602061426c848285016141cb565b6020830152506040614280848285016141f7565b60408301525092915050565b600061429f61429a8461419f565b612c60565b905080838252602082019050602084028301858111156142c2576142c1613264565b5b835b8181101561430957805167ffffffffffffffff8111156142e7576142e6612bf6565b5b8086016142f4898261420c565b855260208501945050506020810190506142c4565b5050509392505050565b600082601f83011261432857614327612bf6565b5b815161433884826020860161428c565b91505092915050565b60006060828403121561435757614356613269565b5b6143616060612c60565b9050600082015167ffffffffffffffff8111156143815761438061326e565b5b61438d84828501614171565b600083015250602082015167ffffffffffffffff8111156143b1576143b061326e565b5b6143bd84828501614313565b602083015250604082015167ffffffffffffffff8111156143e1576143e061326e565b5b6143ed84828501614313565b60408301525092915050565b60006020828403121561440f5761440e612996565b5b600082015167ffffffffffffffff81111561442d5761442c61299b565b5b61443984828501614341565b91505092915050565b60006040820190506144576000830185614051565b81810360208301526144698184613ad3565b90509392505050565b60006040828403121561448857614487613269565b5b6144926040612c60565b9050600082015167ffffffffffffffff8111156144b2576144b161326e565b5b6144be84828501614171565b60008301525060206144d2848285016141cb565b60208301525092915050565b60006144f16144ec84613238565b612c60565b9050808382526020820190506020840283018581111561451457614513613264565b5b835b8181101561455b57805167ffffffffffffffff81111561453957614538612bf6565b5b8086016145468982614472565b85526020850194505050602081019050614516565b5050509392505050565b600082601f83011261457a57614579612bf6565b5b815161458a8482602086016144de565b91505092915050565b6000602082840312156145a9576145a8612996565b5b600082015167ffffffffffffffff8111156145c7576145c661299b565b5b6145d384828501614565565b91505092915050565b60006040820190506145f16000830185613f5c565b81810360208301526146038184613ad3565b90509392505050565b7f6661696c65642064656c656761746543616c6c20746f20707265636f6d70696c60008201527f6500000000000000000000000000000000000000000000000000000000000000602082015250565b6000614668602183613ac2565b91506146738261460c565b604082019050919050565b600060208201905081810360008301526146978161465b565b9050919050565b6000602082840312156146b4576146b3612996565b5b600082015167ffffffffffffffff8111156146d2576146d161299b565b5b6146de84828501614313565b91505092915050565b60006060820190506146fc6000830186613f5c565b818103602083015261470e8185613ad3565b905081810360408301526147228184613076565b9050949350505050565b600061473782613520565b915061474283613520565b925082820190507fffffffffffffffffffffffffffffffffffffffffffffffff80000000000000008112677fffffffffffffff8213171561478657614785613dd5565b5b92915050565b60006040820190506147a16000830185614051565b81810360208301526147b38184613076565b90509392505050565b60006147c782613520565b91506147d283613520565b92508282039050677fffffffffffffff81137fffffffffffffffffffffffffffffffffffffffffffffffff80000000000000008212171561481657614815613dd5565b5b92915050565b60006040820190506148316000830185614051565b61483e6020830184613f6b565b9392505050565b61484e81613676565b82525050565b600080fd5b600080fd5b600080fd5b600080833560016020038436030381126148805761487f61485e565b5b83810192508235915060208301925067ffffffffffffffff8211156148a8576148a7614854565b5b6001820236038313156148be576148bd614859565b5b509250929050565b60006148d28385613895565b93506148df838584612cac565b6148e883612b8a565b840190509392505050565b600061490260208401846136a1565b905092915050565b60006149196020840184612a5d565b905092915050565b61492a81612a3a565b82525050565b600060a083016149436000840184614863565b85830360008701526149568382846148c6565b9250505061496760208401846148f3565b61497460208601826137a5565b5061498260408401846148f3565b61498f60408601826137a5565b5061499d606084018461490a565b6149aa6060860182614921565b506149b8608084018461490a565b6149c56080860182614921565b508091505092915050565b600060808201905081810360008301526149ea8187613ad3565b90506149f96020830186614845565b614a066040830185614845565b8181036060830152614a188184614930565b905095945050505050565b600067ffffffffffffffff821115614a3e57614a3d612c00565b5b602082029050602081019050919050565b600081519050614a5e8161368a565b92915050565b600060408284031215614a7a57614a79613269565b5b614a846040612c60565b90506000614a94848285016141cb565b6000830152506020614aa8848285016141f7565b60208301525092915050565b600060608284031215614aca57614ac9613269565b5b614ad46040612c60565b90506000614ae484828501614a4f565b6000830152506020614af884828501614a64565b60208301525092915050565b6000614b17614b1284614a23565b612c60565b90508083825260208201905060608402830185811115614b3a57614b39613264565b5b835b81811015614b635780614b4f8882614ab4565b845260208401935050606081019050614b3c565b5050509392505050565b600082601f830112614b8257614b81612bf6565b5b8151614b92848260208601614b04565b91505092915050565b600067ffffffffffffffff821115614bb657614bb5612c00565b5b614bbf82612b8a565b9050602081019050919050565b6000614bdf614bda84614b9b565b612c60565b905082815260208101848484011115614bfb57614bfa612bfb565b5b614c06848285612b60565b509392505050565b600082601f830112614c2357614c22612bf6565b5b8151614c33848260208601614bcc565b91505092915050565b600060408284031215614c5257614c51613269565b5b614c5c6040612c60565b9050600082015167ffffffffffffffff811115614c7c57614c7b61326e565b5b614c8884828501614c0e565b6000830152506020614c9c84828501614a4f565b60208301525092915050565b60008060408385031215614cbf57614cbe612996565b5b600083015167ffffffffffffffff811115614cdd57614cdc61299b565b5b614ce985828601614b6d565b925050602083015167ffffffffffffffff811115614d0a57614d0961299b565b5b614d1685828601614c3c565b9150509250929050565b7f6661696c656420746f2073657420776974686472617720616464726573730000600082015250565b6000614d56601e83613ac2565b9150614d6182614d20565b602082019050919050565b60006020820190508181036000830152614d8581614d49565b9050919050565b600067ffffffffffffffff821115614da757614da6612c00565b5b602082029050602081019050919050565b6000614dcb614dc684614d8c565b612c60565b90508083825260208201905060208402830185811115614dee57614ded613264565b5b835b81811015614e3557805167ffffffffffffffff811115614e1357614e12612bf6565b5b808601614e208982614171565b85526020850194505050602081019050614df0565b5050509392505050565b600082601f830112614e5457614e53612bf6565b5b8151614e64848260208601614db8565b91505092915050565b600060208284031215614e8357614e82612996565b5b600082015167ffffffffffffffff811115614ea157614ea061299b565b5b614ead84828501614e3f565b91505092915050565b600060208284031215614ecc57614ecb612996565b5b600082015167ffffffffffffffff811115614eea57614ee961299b565b5b614ef684828501614171565b91505092915050565b614f0881612df5565b82525050565b6000606082019050614f236000830186614051565b8181036020830152614f358185613ad3565b9050614f446040830184614eff565b949350505050565b6000606082019050614f616000830186614051565b8181036020830152614f738185613ad3565b90508181036040830152614f878184613076565b9050949350505050565b600067ffffffffffffffff821115614fac57614fab612c00565b5b602082029050602081019050919050565b600060408284031215614fd357614fd2613269565b5b614fdd6040612c60565b9050600082015167ffffffffffffffff811115614ffd57614ffc61326e565b5b61500984828501614171565b600083015250602082015167ffffffffffffffff81111561502d5761502c61326e565b5b61503984828501614313565b60208301525092915050565b600061505861505384614f91565b612c60565b9050808382526020820190506020840283018581111561507b5761507a613264565b5b835b818110156150c257805167ffffffffffffffff8111156150a05761509f612bf6565b5b8086016150ad8982614fbd565b8552602085019450505060208101905061507d565b5050509392505050565b600082601f8301126150e1576150e0612bf6565b5b81516150f1848260208601615045565b91505092915050565b6000806040838503121561511157615110612996565b5b600083015167ffffffffffffffff81111561512f5761512e61299b565b5b61513b858286016150cc565b925050602083015167ffffffffffffffff81111561515c5761515b61299b565b5b61516885828601614313565b9150509250929050565b60006040820190506151876000830185613f5c565b81810360208301526151998184613076565b9050939250505056fea26469706673582212205e9cc87288bae7234a0df32fd80064c59fe8ba10e54f3d3db2203d95084fd7a264736f6c634300081400332f636f736d6f732e7374616b696e672e763162657461312e4d736744656c6567617465",
  "linkReferences": {},
  "deployedLinkReferences": {}
}