{
  "_format": "hh-sol-artifact-1",
  "contractName": "DistributionCaller",
  "sourceName": "solidity/precompiles/testutil/contracts/DistributionCaller.sol",
  "abi": [
    {
      "inputs": [],
      "name": "counter",
      "outputs": [
        {
          "internalType": "int64",
          "name": "",
          "type": "int64"
        }
      ],
      "stateMutability": "view",
      "type": "function"
    },
    {
      "inputs": [
        {
          "internalType": "address",
          "name": "_delAddr",
          "type": "address"
        },
        {
          "internalType": "string",
          "name": "_withdrawAddr",
          "type": "string"
        }
      ],
      "name": "delegateCallSetWithdrawAddress",
      "outputs": [],
      "stateMutability": "nonpayable",
      "type": "function"
    },
    {
      "inputs": [],
      "name": "deposit",
      "outputs": [],
      "stateMutability": "payable",
      "type": "function"
    },
    {
      "inputs": [
        {
          "internalType": "address",
          "name": "_delAddr",
          "type": "address"
        },
        {
          "internalType": "string",
          "name": "_valAddr",
          "type": "string"
        }
      ],
      "name": "getDelegationRewards",
      "outputs": [
        {
          "components": [
            {
              "internalType": "string",
              "name": "denom",
              "type": "string"
            },
            {
              "internalType": "uint256",
              "name": "amount",
              "type": "uint256"
            },
            {
              "internalType": "uint8",
              "name": "precision",
              "type": "uint8"
            }
          ],
          "internalType": "struct DecCoin[]",
          "name": "",
          "type": "tuple[]"
        }
      ],
      "stateMutability": "view",
      "type": "function"
    },
    {
      "inputs": [
        {
          "internalType": "address",
          "name": "_delAddr",
          "type": "address"
        }
      ],
      "name": "getDelegationTotalRewards",
      "outputs": [
        {
          "components": [
            {
              "internalType": "string",
              "name": "validatorAddress",
              "type": "string"
            },
            {
              "components": [
                {
                  "internalType": "string",
                  "name": "denom",
                  "type": "string"
                },
                {
                  "internalType": "uint256",
                  "name": "amount",
                  "type": "uint256"
                },
                {
                  "internalType": "uint8",
                  "name": "precision",
                  "type": "uint8"
                }
              ],
              "internalType": "struct DecCoin[]",
              "name": "reward",
              "type": "tuple[]"
            }
          ],
          "internalType": "struct DelegationDelegatorReward[]",
          "name": "rewards",
          "type": "tuple[]"
        },
        {
          "components": [
            {
              "internalType": "string",
              "name": "denom",
              "type": "string"
            },
            {
              "internalType": "uint256",
              "name": "amount",
              "type": "uint256"
            },
            {
              "internalType": "uint8",
              "name": "precision",
              "type": "uint8"
            }
          ],
          "internalType": "struct DecCoin[]",
          "name": "total",
          "type": "tuple[]"
        }
      ],
      "stateMutability": "view",
      "type": "function"
    },
    {
      "inputs": [
        {
          "internalType": "address",
          "name": "_delAddr",
          "type": "address"
        }
      ],
      "name": "getDelegatorValidators",
      "outputs": [
        {
          "internalType": "string[]",
          "name": "",
          "type": "string[]"
        }
      ],
      "stateMutability": "view",
      "type": "function"
    },
    {
      "inputs": [
        {
          "internalType": "address",
          "name": "_delAddr",
          "type": "address"
        }
      ],
      "name": "getDelegatorWithdrawAddress",
      "outputs": [
        {
          "internalType": "string",
          "name": "",
          "type": "string"
        }
      ],
      "stateMutability": "view",
      "type": "function"
    },
    {
      "inputs": [
        {
          "internalType": "string",
          "name": "_valAddr",
          "type": "string"
        }
      ],
      "name": "getValidatorCommission",
      "outputs": [
        {
          "components": [
            {
              "internalType": "string",
              "name": "denom",
              "type": "string"
            },
            {
              "internalType": "uint256",
              "name": "amount",
              "type": "uint256"
            },
            {
              "internalType": "uint8",
              "name": "precision",
              "type": "uint8"
            }
          ],
          "internalType": "struct DecCoin[]",
          "name": "",
          "type": "tuple[]"
        }
      ],
      "stateMutability": "view",
      "type": "function"
    },
    {
      "inputs": [
        {
          "internalType": "string",
          "name": "_valAddr",
          "type": "string"
        }
      ],
      "name": "getValidatorDistributionInfo",
      "outputs": [
        {
          "components": [
            {
              "internalType": "string",
              "name": "operatorAddress",
              "type": "string"
            },
            {
              "components": [
                {
                  "internalType": "string",
                  "name": "denom",
                  "type": "string"
                },
                {
                  "internalType": "uint256",
                  "name": "amount",
                  "type": "uint256"
                },
                {
                  "internalType": "uint8",
                  "name": "precision",
                  "type": "uint8"
                }
              ],
              "internalType": "struct DecCoin[]",
              "name": "selfBondRewards",
              "type": "tuple[]"
            },
            {
              "components": [
                {
                  "internalType": "string",
                  "name": "denom",
                  "type": "string"
                },
                {
                  "internalType": "uint256",
                  "name": "amount",
                  "type": "uint256"
                },
                {
                  "internalType": "uint8",
                  "name": "precision",
                  "type": "uint8"
                }
              ],
              "internalType": "struct DecCoin[]",
              "name": "commission",
              "type": "tuple[]"
            }
          ],
          "internalType": "struct ValidatorDistributionInfo",
          "name": "",
          "type": "tuple"
        }
      ],
      "stateMutability": "view",
      "type": "function"
    },
    {
      "inputs": [
        {
          "internalType": "string",
          "name": "_valAddr",
          "type": "string"
        }
      ],
      "name": "getValidatorOutstandingRewards",
      "outputs": [
        {
          "components": [
            {
              "internalType": "string",
              "name": "denom",
              "type": "string"
            },
            {
              "internalType": "uint256",
              "name": "amount",
              "type": "uint256"
            },
            {
              "internalType": "uint8",
              "name": "precision",
              "type": "uint8"
            }
          ],
          "internalType": "struct DecCoin[]",
          "name": "",
          "type": "tuple[]"
        }
      ],
      "stateMutability": "view",
      "type": "function"
    },
    {
      "inputs": [
        {
          "internalType": "string",
          "name": "_valAddr",
          "type": "string"
        },
        {
          "internalType": "uint64",
          "name": "_startingHeight",
          "type": "uint64"
        },
        {
          "internalType": "uint64",
          "name": "_endingHeight",
          "type": "uint64"
        },
        {
          "components": [
            {
              "internalType": "bytes",
              "name": "key",
              "type": "bytes"
            },
            {
              "internalType": "uint64",
              "name": "offset",
              "type": "uint64"
            },
            {
              "internalType": "uint64",
              "name": "limit",
              "type": "uint64"
            },
            {
              "internalType": "bool",
              "name": "countTotal",
              "type": "bool"
            },
            {
              "internalType": "bool",
              "name": "reverse",
              "type": "bool"
            }
          ],
          "internalType": "struct PageRequest",
          "name": "pageRequest",
          "type": "tuple"
        }
      ],
      "name": "getValidatorSlashes",
      "outputs": [
        {
          "components": [
            {
              "internalType": "uint64",
              "name": "validatorPeriod",
              "type": "uint64"
            },
            {
              "components": [
                {
                  "internalType": "uint256",
                  "name": "value",
                  "type": "uint256"
                },
                {
                  "internalType": "uint8",
                  "name": "precision",
                  "type": "uint8"
                }
              ],
              "internalType": "struct Dec",
              "name": "fraction",
              "type": "tuple"
            }
          ],
          "internalType": "struct ValidatorSlashEvent[]",
          "name": "",
          "type": "tuple[]"
        },
        {
          "components": [
            {
              "internalType": "bytes",
              "name": "nextKey",
              "type": "bytes"
            },
            {
              "internalType": "uint64",
              "name": "total",
              "type": "uint64"
            }
          ],
          "internalType": "struct PageResponse",
          "name": "",
          "type": "tuple"
        }
      ],
      "stateMutability": "view",
      "type": "function"
    },
    {
      "inputs": [
        {
          "internalType": "address payable",
          "name": "_delAddr",
          "type": "address"
        },
        {
          "internalType": "address payable",
          "name": "_withdrawer",
          "type": "address"
        },
        {
          "internalType": "string",
          "name": "_valAddr",
          "type": "string"
        },
        {
          "internalType": "bool",
          "name": "_after",
          "type": "bool"
        }
      ],
      "name": "revertWithdrawRewardsAndTransfer",
      "outputs": [],
      "stateMutability": "nonpayable",
      "type": "function"
    },
    {
      "inputs": [
        {
          "internalType": "address",
          "name": "_delAddr",
          "type": "address"
        }
      ],
      "name": "staticCallGetWithdrawAddress",
      "outputs": [
        {
          "internalType": "bytes",
          "name": "",
          "type": "bytes"
        }
      ],
      "stateMutability": "view",
      "type": "function"
    },
    {
      "inputs": [
        {
          "internalType": "address",
          "name": "_delAddr",
          "type": "address"
        },
        {
          "internalType": "string",
          "name": "_withdrawAddr",
          "type": "string"
        }
      ],
      "name": "staticCallSetWithdrawAddress",
      "outputs": [],
      "stateMutability": "view",
      "type": "function"
    },
    {
      "inputs": [
        {
          "internalType": "address",
          "name": "_delAddr",
          "type": "address"
        },
        {
          "internalType": "uint32",
          "name": "_maxRetrieve",
          "type": "uint32"
        }
      ],
      "name": "testClaimRewards",
      "outputs": [
        {
          "internalType": "bool",
          "name": "success",
          "type": "bool"
        }
      ],
      "stateMutability": "nonpayable",
      "type": "function"
    },
    {
      "inputs": [
        {
          "internalType": "address payable",
          "name": "_delAddr",
          "type": "address"
        },
        {
          "internalType": "uint32",
          "name": "_maxRetrieve",
          "type": "uint32"
        },
        {
          "internalType": "bool",
          "name": "_before",
          "type": "bool"
        },
        {
          "internalType": "bool",
          "name": "_after",
          "type": "bool"
        }
      ],
      "name": "testClaimRewardsWithTransfer",
      "outputs": [],
      "stateMutability": "nonpayable",
      "type": "function"
    },
    {
      "inputs": [
        {
          "internalType": "string",
          "name": "_validatorAddr",
          "type": "string"
        },
        {
          "internalType": "uint256",
          "name": "_amount",
          "type": "uint256"
        }
      ],
      "name": "testDelegateFromContract",
      "outputs": [],
      "stateMutability": "nonpayable",
      "type": "function"
    },
    {
      "inputs": [
        {
          "internalType": "address",
          "name": "depositor",
          "type": "address"
        },
        {
          "internalType": "uint256",
          "name": "amount",
          "type": "uint256"
        }
      ],
      "name": "testFundCommunityPool",
      "outputs": [
        {
          "internalType": "bool",
          "name": "success",
          "type": "bool"
        }
      ],
      "stateMutability": "nonpayable",
      "type": "function"
    },
    {
      "inputs": [
        {
          "internalType": "address payable",
          "name": "depositor",
          "type": "address"
        },
        {
          "internalType": "uint256",
          "name": "amount",
          "type": "uint256"
        },
        {
          "internalType": "bool",
          "name": "_before",
          "type": "bool"
        },
        {
          "internalType": "bool",
          "name": "_after",
          "type": "bool"
        }
      ],
      "name": "testFundCommunityPoolWithTransfer",
      "outputs": [],
      "stateMutability": "nonpayable",
      "type": "function"
    },
    {
      "inputs": [
        {
          "internalType": "string",
          "name": "_withdrawAddr",
          "type": "string"
        },
        {
          "internalType": "address",
          "name": "_delAddr",
          "type": "address"
        },
        {
          "internalType": "string",
          "name": "_valAddr",
          "type": "string"
        }
      ],
      "name": "testRevertState",
      "outputs": [
        {
          "components": [
            {
              "internalType": "string",
              "name": "denom",
              "type": "string"
            },
            {
              "internalType": "uint256",
              "name": "amount",
              "type": "uint256"
            }
          ],
          "internalType": "struct Coin[]",
          "name": "",
          "type": "tuple[]"
        }
      ],
      "stateMutability": "nonpayable",
      "type": "function"
    },
    {
      "inputs": [
        {
          "internalType": "address",
          "name": "_delAddr",
          "type": "address"
        },
        {
          "internalType": "string",
          "name": "_withdrawAddr",
          "type": "string"
        }
      ],
      "name": "testSetWithdrawAddress",
      "outputs": [
        {
          "internalType": "bool",
          "name": "",
          "type": "bool"
        }
      ],
      "stateMutability": "nonpayable",
      "type": "function"
    },
    {
      "inputs": [
        {
          "internalType": "string",
          "name": "_withdrawAddr",
          "type": "string"
        }
      ],
      "name": "testSetWithdrawAddressFromContract",
      "outputs": [
        {
          "internalType": "bool",
          "name": "",
          "type": "bool"
        }
      ],
      "stateMutability": "nonpayable",
      "type": "function"
    },
    {
      "inputs": [
        {
          "internalType": "address",
          "name": "_delAddr",
          "type": "address"
        },
        {
          "internalType": "string",
          "name": "_valAddr",
          "type": "string"
        }
      ],
      "name": "testWithdrawDelegatorRewards",
      "outputs": [
        {
          "components": [
            {
              "internalType": "string",
              "name": "denom",
              "type": "string"
            },
            {
              "internalType": "uint256",
              "name": "amount",
              "type": "uint256"
            }
          ],
          "internalType": "struct Coin[]",
          "name": "",
          "type": "tuple[]"
        }
      ],
      "stateMutability": "nonpayable",
      "type": "function"
    },
    {
      "inputs": [
        {
          "internalType": "string",
          "name": "_valAddr",
          "type": "string"
        }
      ],
      "name": "testWithdrawDelegatorRewardsFromContract",
      "outputs": [
        {
          "components": [
            {
              "internalType": "string",
              "name": "denom",
              "type": "string"
            },
            {
              "internalType": "uint256",
              "name": "amount",
              "type": "uint256"
            }
          ],
          "internalType": "struct Coin[]",
          "name": "",
          "type": "tuple[]"
        }
      ],
      "stateMutability": "nonpayable",
      "type": "function"
    },
    {
      "inputs": [
        {
          "internalType": "address payable",
          "name": "_delAddr",
          "type": "address"
        },
        {
          "internalType": "string",
          "name": "_valAddr",
          "type": "string"
        },
        {
          "internalType": "bool",
          "name": "_before",
          "type": "bool"
        },
        {
          "internalType": "bool",
          "name": "_after",
          "type": "bool"
        }
      ],
      "name": "testWithdrawDelegatorRewardsWithTransfer",
      "outputs": [
        {
          "components": [
            {
              "internalType": "string",
              "name": "denom",
              "type": "string"
            },
            {
              "internalType": "uint256",
              "name": "amount",
              "type": "uint256"
            }
          ],
          "internalType": "struct Coin[]",
          "name": "coins",
          "type": "tuple[]"
        }
      ],
      "stateMutability": "nonpayable",
      "type": "function"
    },
    {
      "inputs": [
        {
          "internalType": "string",
          "name": "_valAddr",
          "type": "string"
        }
      ],
      "name": "testWithdrawValidatorCommission",
      "outputs": [
        {
          "components": [
            {
              "internalType": "string",
              "name": "denom",
              "type": "string"
            },
            {
              "internalType": "uint256",
              "name": "amount",
              "type": "uint256"
            }
          ],
          "internalType": "struct Coin[]",
          "name": "",
          "type": "tuple[]"
        }
      ],
      "stateMutability": "nonpayable",
      "type": "function"
    },
    {
      "inputs": [
        {
          "internalType": "string",
          "name": "_valAddr",
          "type": "string"
        },
        {
          "internalType": "address payable",
          "name": "_withdrawer",
          "type": "address"
        },
        {
          "internalType": "bool",
          "name": "_before",
          "type": "bool"
        },
        {
          "internalType": "bool",
          "name": "_after",
          "type": "bool"
        }
      ],
      "name": "testWithdrawValidatorCommissionWithTransfer",
      "outputs": [
        {
          "components": [
            {
              "internalType": "string",
              "name": "denom",
              "type": "string"
            },
            {
              "internalType": "uint256",
              "name": "amount",
              "type": "uint256"
            }
          ],
          "internalType": "struct Coin[]",
          "name": "coins",
          "type": "tuple[]"
        }
      ],
      "stateMutability": "nonpayable",
      "type": "function"
    },
    {
      "inputs": [
        {
          "internalType": "address",
          "name": "_delAddr",
          "type": "address"
        },
        {
          "internalType": "string",
          "name": "_valAddr",
          "type": "string"
        }
      ],
      "name": "withdrawDelegatorRewardsAndRevert",
      "outputs": [
        {
          "components": [
            {
              "internalType": "string",
              "name": "denom",
              "type": "string"
            },
            {
              "internalType": "uint256",
              "name": "amount",
              "type": "uint256"
            }
          ],
          "internalType": "struct Coin[]",
          "name": "coins",
          "type": "tuple[]"
        }
      ],
      "stateMutability": "nonpayable",
      "type": "function"
    }
  ],
  "bytecode": "0x6080604052604051806020016040528060405180606001604052806023815260200162004d9c6023913981525060009060016200003e92919062000053565b503480156200004c57600080fd5b50620004a1565b828054828255906000526020600020908101928215620000a0579160200282015b828111156200009f5782518290816200008e9190620003ba565b509160200191906001019062000074565b5b509050620000af9190620000b3565b5090565b5b80821115620000d75760008181620000cd9190620000db565b50600101620000b4565b5090565b508054620000e990620001a9565b6000825580601f10620000fd57506200011e565b601f0160209004906000526020600020908101906200011d919062000121565b5b50565b5b808211156200013c57600081600090555060010162000122565b5090565b600081519050919050565b7f4e487b7100000000000000000000000000000000000000000000000000000000600052604160045260246000fd5b7f4e487b7100000000000000000000000000000000000000000000000000000000600052602260045260246000fd5b60006002820490506001821680620001c257607f821691505b602082108103620001d857620001d76200017a565b5b50919050565b60008190508160005260206000209050919050565b60006020601f8301049050919050565b600082821b905092915050565b600060088302620002427fffffffffffffffffffffffffffffffffffffffffffffffffffffffffffffffff8262000203565b6200024e868362000203565b95508019841693508086168417925050509392505050565b6000819050919050565b6000819050919050565b60006200029b620002956200028f8462000266565b62000270565b62000266565b9050919050565b6000819050919050565b620002b7836200027a565b620002cf620002c682620002a2565b84845462000210565b825550505050565b600090565b620002e6620002d7565b620002f3818484620002ac565b505050565b5b818110156200031b576200030f600082620002dc565b600181019050620002f9565b5050565b601f8211156200036a576200033481620001de565b6200033f84620001f3565b810160208510156200034f578190505b620003676200035e85620001f3565b830182620002f8565b50505b505050565b600082821c905092915050565b60006200038f600019846008026200036f565b1980831691505092915050565b6000620003aa83836200037c565b9150826002028217905092915050565b620003c58262000140565b67ffffffffffffffff811115620003e157620003e06200014b565b5b620003ed8254620001a9565b620003fa8282856200031f565b600060209050601f8311600181146200043257600084156200041d578287015190505b6200042985826200039c565b86555062000499565b601f1984166200044286620001de565b60005b828110156200046c5784890151825560018201915060208501945060208101905062000445565b868310156200048c578489015162000488601f8916826200037c565b8355505b6001600288020188555050505b505050505050565b6148eb80620004b16000396000f3fe6080604052600436106101b75760003560e01c806388b2d581116100ec578063c7804bb51161008a578063d3f831be11610064578063d3f831be146106cc578063dd987c2014610709578063e0421e3914610732578063e236c7a61461076f576101b7565b8063c7804bb514610648578063cb85aa0a14610685578063d0e30db0146106c2576101b7565b8063ad5c4cdd116100c6578063ad5c4cdd14610554578063adb2378514610591578063b2d17883146105ce578063b6a216ae1461060b576101b7565b806388b2d5811461049c578063963516e4146104da5780639819459314610517576101b7565b8063613d4de8116101595780636f669da4116101335780636f669da4146103bc57806378a5dfd1146103f9578063796b96d2146104365780637c9db0bb1461045f576101b7565b8063613d4de81461032b57806361bc221a146103685780636cc9ac8a14610393576101b7565b80631b050207116101955780631b0502071461025f578063296c60aa146102885780632d0ee16a146102b157806346e16d34146102ee576101b7565b80630183e4b4146101bc57806301b68000146101e55780630c05e9e414610222575b600080fd5b3480156101c857600080fd5b506101e360048036038101906101de91906124b4565b6107ad565b005b3480156101f157600080fd5b5061020c60048036038101906102079190612559565b610adc565b6040516102199190612616565b60405180910390f35b34801561022e57600080fd5b506102496004803603810190610244919061276d565b610c24565b60405161025691906129b0565b60405180910390f35b34801561026b57600080fd5b50610286600480360381019061028191906129d2565b610cb4565b005b34801561029457600080fd5b506102af60048036038101906102aa9190612a55565b610e3b565b005b3480156102bd57600080fd5b506102d860048036038101906102d3919061276d565b610f7c565b6040516102e59190612bb0565b60405180910390f35b3480156102fa57600080fd5b5061031560048036038101906103109190612a55565b61100a565b6040516103229190612be1565b60405180910390f35b34801561033757600080fd5b50610352600480360381019061034d9190612bfc565b611094565b60405161035f9190612bb0565b60405180910390f35b34801561037457600080fd5b5061037d611387565b60405161038a9190612c9b565b60405180910390f35b34801561039f57600080fd5b506103ba60048036038101906103b59190612ce2565b61139a565b005b3480156103c857600080fd5b506103e360048036038101906103de9190612d49565b61162b565b6040516103f09190612be1565b60405180910390f35b34801561040557600080fd5b50610420600480360381019061041b9190612a55565b6116b5565b60405161042d9190612e0f565b60405180910390f35b34801561044257600080fd5b5061045d60048036038101906104589190612a55565b611742565b005b34801561046b57600080fd5b506104866004803603810190610481919061276d565b611883565b6040516104939190612e0f565b60405180910390f35b3480156104a857600080fd5b506104c360048036038101906104be9190612e95565b61190d565b6040516104d19291906130d7565b60405180910390f35b3480156104e657600080fd5b5061050160048036038101906104fc919061276d565b6119ab565b60405161050e9190612be1565b60405180910390f35b34801561052357600080fd5b5061053e60048036038101906105399190612a55565b611a34565b60405161054b9190612bb0565b60405180910390f35b34801561056057600080fd5b5061057b60048036038101906105769190612a55565b611ac3565b6040516105889190612bb0565b60405180910390f35b34801561059d57600080fd5b506105b860048036038101906105b3919061310e565b611b4f565b6040516105c59190612bb0565b60405180910390f35b3480156105da57600080fd5b506105f560048036038101906105f09190613191565b611ddc565b6040516106029190612bb0565b60405180910390f35b34801561061757600080fd5b50610632600480360381019061062d9190612559565b611f31565b60405161063f91906132de565b60405180910390f35b34801561065457600080fd5b5061066f600480360381019061066a9190613300565b611fbb565b60405161067c9190612be1565b60405180910390f35b34801561069157600080fd5b506106ac60048036038101906106a79190612559565b6120d3565b6040516106b9919061338a565b60405180910390f35b6106ca61215d565b005b3480156106d857600080fd5b506106f360048036038101906106ee919061276d565b61215f565b6040516107009190612e0f565b60405180910390f35b34801561071557600080fd5b50610730600480360381019061072b91906133ac565b6121e9565b005b34801561073e57600080fd5b506107596004803603810190610754919061276d565b612270565b6040516107669190612bb0565b60405180910390f35b34801561077b57600080fd5b5061079660048036038101906107919190612559565b6122fc565b6040516107a492919061350e565b60405180910390f35b81156108df576001600081819054906101000a900460070b809291906107d290613574565b91906101000a81548167ffffffffffffffff021916908360070b67ffffffffffffffff160217905550503073ffffffffffffffffffffffffffffffffffffffff168473ffffffffffffffffffffffffffffffffffffffff16146108de5760008473ffffffffffffffffffffffffffffffffffffffff16600f604051610856906135d5565b60006040518083038185875af1925050503d8060008114610893576040519150601f19603f3d011682016040523d82523d6000602084013e610898565b606091505b50509050806108dc576040517f08c379a00000000000000000000000000000000000000000000000000000000081526004016108d39061365c565b60405180910390fd5b505b5b600061080173ffffffffffffffffffffffffffffffffffffffff16632efe8a5f86866040518363ffffffff1660e01b815260040161091e9291906136ea565b6020604051808303816000875af115801561093d573d6000803e3d6000fd5b505050506040513d601f19601f820116820180604052508101906109619190613728565b9050806109a3576040517f08c379a000000000000000000000000000000000000000000000000000000000815260040161099a906137a1565b60405180910390fd5b8115610ad5576001600081819054906101000a900460070b809291906109c890613574565b91906101000a81548167ffffffffffffffff021916908360070b67ffffffffffffffff160217905550503073ffffffffffffffffffffffffffffffffffffffff168573ffffffffffffffffffffffffffffffffffffffff1614610ad45760008573ffffffffffffffffffffffffffffffffffffffff16600f604051610a4c906135d5565b60006040518083038185875af1925050503d8060008114610a89576040519150601f19603f3d011682016040523d82523d6000602084013e610a8e565b606091505b5050905080610ad2576040517f08c379a0000000000000000000000000000000000000000000000000000000008152600401610ac99061365c565b60405180910390fd5b505b5b5050505050565b606060008061080173ffffffffffffffffffffffffffffffffffffffff1684604051602401610b0b91906137d0565b6040516020818303038152906040527f5431f450000000000000000000000000000000000000000000000000000000007bffffffffffffffffffffffffffffffffffffffffffffffffffffffff19166020820180517bffffffffffffffffffffffffffffffffffffffffffffffffffffffff8381831617835250505050604051610b95919061381c565b600060405180830381855afa9150503d8060008114610bd0576040519150601f19603f3d011682016040523d82523d6000602084013e610bd5565b606091505b509150915081610c1a576040517f08c379a0000000000000000000000000000000000000000000000000000000008152600401610c119061387f565b60405180910390fd5b8092505050919050565b610c2c612389565b61080173ffffffffffffffffffffffffffffffffffffffff166354212a89836040518263ffffffff1660e01b8152600401610c67919061338a565b600060405180830381865afa158015610c84573d6000803e3d6000fd5b505050506040513d6000823e3d601f19601f82011682018060405250810190610cad9190613b78565b9050919050565b3073ffffffffffffffffffffffffffffffffffffffff1663ad5c4cdd85846040518363ffffffff1660e01b8152600401610cef929190613bc1565b6000604051808303816000875af1925050508015610d3057506040513d6000823e3d601f19601f82011682018060405250810190610d2d9190613d3e565b60015b15610d3757505b8015610e35576001600081819054906101000a900460070b80929190610d5c90613574565b91906101000a81548167ffffffffffffffff021916908360070b67ffffffffffffffff1602179055505060008373ffffffffffffffffffffffffffffffffffffffff16600f604051610dad906135d5565b60006040518083038185875af1925050503d8060008114610dea576040519150601f19603f3d011682016040523d82523d6000602084013e610def565b606091505b5050905080610e33576040517f08c379a0000000000000000000000000000000000000000000000000000000008152600401610e2a9061365c565b60405180910390fd5b505b50505050565b600061080173ffffffffffffffffffffffffffffffffffffffff168383604051602401610e69929190613d87565b6040516020818303038152906040527f5a9d9a96000000000000000000000000000000000000000000000000000000007bffffffffffffffffffffffffffffffffffffffffffffffffffffffff19166020820180517bffffffffffffffffffffffffffffffffffffffffffffffffffffffff8381831617835250505050604051610ef3919061381c565b600060405180830381855af49150503d8060008114610f2e576040519150601f19603f3d011682016040523d82523d6000602084013e610f33565b606091505b5050905080610f77576040517f08c379a0000000000000000000000000000000000000000000000000000000008152600401610f6e90613e29565b60405180910390fd5b505050565b606061080173ffffffffffffffffffffffffffffffffffffffff1663b46a8d6130846040518363ffffffff1660e01b8152600401610fbb929190613d87565b6000604051808303816000875af1158015610fda573d6000803e3d6000fd5b505050506040513d6000823e3d601f19601f820116820180604052508101906110039190613d3e565b9050919050565b600061080173ffffffffffffffffffffffffffffffffffffffff16635a9d9a9684846040518363ffffffff1660e01b8152600401611049929190613d87565b6020604051808303816000875af1158015611068573d6000803e3d6000fd5b505050506040513d601f19601f8201168201806040525081019061108c9190613728565b905092915050565b606082156111c8576001600081819054906101000a900460070b809291906110bb90613574565b91906101000a81548167ffffffffffffffff021916908360070b67ffffffffffffffff160217905550503073ffffffffffffffffffffffffffffffffffffffff168473ffffffffffffffffffffffffffffffffffffffff16146111c75760008473ffffffffffffffffffffffffffffffffffffffff16600f60405161113f906135d5565b60006040518083038185875af1925050503d806000811461117c576040519150601f19603f3d011682016040523d82523d6000602084013e611181565b606091505b50509050806111c5576040517f08c379a00000000000000000000000000000000000000000000000000000000081526004016111bc9061365c565b60405180910390fd5b505b5b61080173ffffffffffffffffffffffffffffffffffffffff16633ce4e3be866040518263ffffffff1660e01b8152600401611203919061338a565b6000604051808303816000875af1158015611222573d6000803e3d6000fd5b505050506040513d6000823e3d601f19601f8201168201806040525081019061124b9190613d3e565b9050811561137f576001600081819054906101000a900460070b8092919061127290613574565b91906101000a81548167ffffffffffffffff021916908360070b67ffffffffffffffff160217905550503073ffffffffffffffffffffffffffffffffffffffff168473ffffffffffffffffffffffffffffffffffffffff161461137e5760008473ffffffffffffffffffffffffffffffffffffffff16600f6040516112f6906135d5565b60006040518083038185875af1925050503d8060008114611333576040519150601f19603f3d011682016040523d82523d6000602084013e611338565b606091505b505090508061137c576040517f08c379a00000000000000000000000000000000000000000000000000000000081526004016113739061365c565b60405180910390fd5b505b5b949350505050565b600160009054906101000a900460070b81565b8115611498576001600081819054906101000a900460070b809291906113bf90613574565b91906101000a81548167ffffffffffffffff021916908360070b67ffffffffffffffff1602179055505060008473ffffffffffffffffffffffffffffffffffffffff16600f604051611410906135d5565b60006040518083038185875af1925050503d806000811461144d576040519150601f19603f3d011682016040523d82523d6000602084013e611452565b606091505b5050905080611496576040517f08c379a000000000000000000000000000000000000000000000000000000000815260040161148d9061365c565b60405180910390fd5b505b600061080173ffffffffffffffffffffffffffffffffffffffff1663ed41d0b686866040518363ffffffff1660e01b81526004016114d7929190613e58565b6020604051808303816000875af11580156114f6573d6000803e3d6000fd5b505050506040513d601f19601f8201168201806040525081019061151a9190613728565b90508061152657600080fd5b8115611624576001600081819054906101000a900460070b8092919061154b90613574565b91906101000a81548167ffffffffffffffff021916908360070b67ffffffffffffffff1602179055505060008573ffffffffffffffffffffffffffffffffffffffff16600f60405161159c906135d5565b60006040518083038185875af1925050503d80600081146115d9576040519150601f19603f3d011682016040523d82523d6000602084013e6115de565b606091505b5050905080611622576040517f08c379a00000000000000000000000000000000000000000000000000000000081526004016116199061365c565b60405180910390fd5b505b5050505050565b600061080173ffffffffffffffffffffffffffffffffffffffff16632efe8a5f84846040518363ffffffff1660e01b815260040161166a929190613e81565b6020604051808303816000875af1158015611689573d6000803e3d6000fd5b505050506040513d601f19601f820116820180604052508101906116ad9190613728565b905092915050565b606061080173ffffffffffffffffffffffffffffffffffffffff16639ad563b484846040518363ffffffff1660e01b81526004016116f4929190613d87565b600060405180830381865afa158015611711573d6000803e3d6000fd5b505050506040513d6000823e3d601f19601f8201168201806040525081019061173a9190613eaa565b905092915050565b600061080173ffffffffffffffffffffffffffffffffffffffff168383604051602401611770929190613d87565b6040516020818303038152906040527f5a9d9a96000000000000000000000000000000000000000000000000000000007bffffffffffffffffffffffffffffffffffffffffffffffffffffffff19166020820180517bffffffffffffffffffffffffffffffffffffffffffffffffffffffff83818316178352505050506040516117fa919061381c565b600060405180830381855afa9150503d8060008114611835576040519150601f19603f3d011682016040523d82523d6000602084013e61183a565b606091505b505090508061187e576040517f08c379a00000000000000000000000000000000000000000000000000000000081526004016118759061387f565b60405180910390fd5b505050565b606061080173ffffffffffffffffffffffffffffffffffffffff16633dd40f78836040518263ffffffff1660e01b81526004016118c0919061338a565b600060405180830381865afa1580156118dd573d6000803e3d6000fd5b505050506040513d6000823e3d601f19601f820116820180604052508101906119069190613eaa565b9050919050565b60606119176123aa565b61080173ffffffffffffffffffffffffffffffffffffffff16638f2473ce878787876040518563ffffffff1660e01b8152600401611958949392919061407e565b600060405180830381865afa158015611975573d6000803e3d6000fd5b505050506040513d6000823e3d601f19601f8201168201806040525081019061199e9190614356565b9150915094509492505050565b600061080173ffffffffffffffffffffffffffffffffffffffff16635a9d9a9630846040518363ffffffff1660e01b81526004016119ea929190613d87565b6020604051808303816000875af1158015611a09573d6000803e3d6000fd5b505050506040513d601f19601f82011682018060405250810190611a2d9190613728565b9050919050565b606061080173ffffffffffffffffffffffffffffffffffffffff1663b46a8d6184846040518363ffffffff1660e01b8152600401611a73929190613d87565b6000604051808303816000875af1158015611a92573d6000803e3d6000fd5b505050506040513d6000823e3d601f19601f82011682018060405250810190611abb9190613d3e565b905092915050565b606061080173ffffffffffffffffffffffffffffffffffffffff1663b46a8d6184846040518363ffffffff1660e01b8152600401611b02929190613d87565b6000604051808303816000875af1158015611b21573d6000803e3d6000fd5b505050506040513d6000823e3d601f19601f82011682018060405250810190611b4a9190613d3e565b600080fd5b60608215611c4f576001600081819054906101000a900460070b80929190611b7690613574565b91906101000a81548167ffffffffffffffff021916908360070b67ffffffffffffffff1602179055505060008573ffffffffffffffffffffffffffffffffffffffff16600f604051611bc7906135d5565b60006040518083038185875af1925050503d8060008114611c04576040519150601f19603f3d011682016040523d82523d6000602084013e611c09565b606091505b5050905080611c4d576040517f08c379a0000000000000000000000000000000000000000000000000000000008152600401611c449061365c565b60405180910390fd5b505b61080173ffffffffffffffffffffffffffffffffffffffff1663b46a8d6186866040518363ffffffff1660e01b8152600401611c8c929190613bc1565b6000604051808303816000875af1158015611cab573d6000803e3d6000fd5b505050506040513d6000823e3d601f19601f82011682018060405250810190611cd49190613d3e565b90508115611dd4576001600081819054906101000a900460070b80929190611cfb90613574565b91906101000a81548167ffffffffffffffff021916908360070b67ffffffffffffffff1602179055505060008573ffffffffffffffffffffffffffffffffffffffff16600f604051611d4c906135d5565b60006040518083038185875af1925050503d8060008114611d89576040519150601f19603f3d011682016040523d82523d6000602084013e611d8e565b606091505b5050905080611dd2576040517f08c379a0000000000000000000000000000000000000000000000000000000008152600401611dc99061365c565b60405180910390fd5b505b949350505050565b6060600061080173ffffffffffffffffffffffffffffffffffffffff16635a9d9a9633876040518363ffffffff1660e01b8152600401611e1d929190613d87565b6020604051808303816000875af1158015611e3c573d6000803e3d6000fd5b505050506040513d601f19601f82011682018060405250810190611e609190613728565b905080611ea2576040517f08c379a0000000000000000000000000000000000000000000000000000000008152600401611e999061441a565b60405180910390fd5b61080173ffffffffffffffffffffffffffffffffffffffff1663b46a8d6185856040518363ffffffff1660e01b8152600401611edf929190613d87565b6000604051808303816000875af1158015611efe573d6000803e3d6000fd5b505050506040513d6000823e3d601f19601f82011682018060405250810190611f279190613d3e565b9150509392505050565b606061080173ffffffffffffffffffffffffffffffffffffffff1663a66cb605836040518263ffffffff1660e01b8152600401611f6e91906137d0565b600060405180830381865afa158015611f8b573d6000803e3d6000fd5b505050506040513d6000823e3d601f19601f82011682018060405250810190611fb4919061451b565b9050919050565b600060018060008282829054906101000a900460070b611fdb9190614564565b92506101000a81548167ffffffffffffffff021916908360070b67ffffffffffffffff16021790555061080173ffffffffffffffffffffffffffffffffffffffff1663ed41d0b684846040518363ffffffff1660e01b81526004016120419291906145c4565b6020604051808303816000875af1158015612060573d6000803e3d6000fd5b505050506040513d601f19601f820116820180604052508101906120849190613728565b905060018060008282829054906101000a900460070b6120a491906145ed565b92506101000a81548167ffffffffffffffff021916908360070b67ffffffffffffffff16021790555092915050565b606061080173ffffffffffffffffffffffffffffffffffffffff16635431f450836040518263ffffffff1660e01b815260040161211091906137d0565b600060405180830381865afa15801561212d573d6000803e3d6000fd5b505050506040513d6000823e3d601f19601f82011682018060405250810190612156919061464d565b9050919050565b565b606061080173ffffffffffffffffffffffffffffffffffffffff166385b2d2da836040518263ffffffff1660e01b815260040161219c919061338a565b600060405180830381865afa1580156121b9573d6000803e3d6000fd5b505050506040513d6000823e3d601f19601f820116820180604052508101906121e29190613eaa565b9050919050565b61080073ffffffffffffffffffffffffffffffffffffffff166353266bbb3084846040518463ffffffff1660e01b815260040161222893929190614696565b6020604051808303816000875af1158015612247573d6000803e3d6000fd5b505050506040513d601f19601f8201168201806040525081019061226b9190613728565b505050565b606061080173ffffffffffffffffffffffffffffffffffffffff16633ce4e3be836040518263ffffffff1660e01b81526004016122ad919061338a565b6000604051808303816000875af11580156122cc573d6000803e3d6000fd5b505050506040513d6000823e3d601f19601f820116820180604052508101906122f59190613d3e565b9050919050565b60608061080173ffffffffffffffffffffffffffffffffffffffff166354be1a28846040518263ffffffff1660e01b815260040161233a91906137d0565b600060405180830381865afa158015612357573d6000803e3d6000fd5b505050506040513d6000823e3d601f19601f82011682018060405250810190612380919061483d565b91509150915091565b60405180606001604052806060815260200160608152602001606081525090565b604051806040016040528060608152602001600067ffffffffffffffff1681525090565b6000604051905090565b600080fd5b600080fd5b600073ffffffffffffffffffffffffffffffffffffffff82169050919050565b600061240d826123e2565b9050919050565b61241d81612402565b811461242857600080fd5b50565b60008135905061243a81612414565b92915050565b600063ffffffff82169050919050565b61245981612440565b811461246457600080fd5b50565b60008135905061247681612450565b92915050565b60008115159050919050565b6124918161247c565b811461249c57600080fd5b50565b6000813590506124ae81612488565b92915050565b600080600080608085870312156124ce576124cd6123d8565b5b60006124dc8782880161242b565b94505060206124ed87828801612467565b93505060406124fe8782880161249f565b925050606061250f8782880161249f565b91505092959194509250565b6000612526826123e2565b9050919050565b6125368161251b565b811461254157600080fd5b50565b6000813590506125538161252d565b92915050565b60006020828403121561256f5761256e6123d8565b5b600061257d84828501612544565b91505092915050565b600081519050919050565b600082825260208201905092915050565b60005b838110156125c05780820151818401526020810190506125a5565b60008484015250505050565b6000601f19601f8301169050919050565b60006125e882612586565b6125f28185612591565b93506126028185602086016125a2565b61260b816125cc565b840191505092915050565b6000602082019050818103600083015261263081846125dd565b905092915050565b600080fd5b600080fd5b7f4e487b7100000000000000000000000000000000000000000000000000000000600052604160045260246000fd5b61267a826125cc565b810181811067ffffffffffffffff8211171561269957612698612642565b5b80604052505050565b60006126ac6123ce565b90506126b88282612671565b919050565b600067ffffffffffffffff8211156126d8576126d7612642565b5b6126e1826125cc565b9050602081019050919050565b82818337600083830152505050565b600061271061270b846126bd565b6126a2565b90508281526020810184848401111561272c5761272b61263d565b5b6127378482856126ee565b509392505050565b600082601f83011261275457612753612638565b5b81356127648482602086016126fd565b91505092915050565b600060208284031215612783576127826123d8565b5b600082013567ffffffffffffffff8111156127a1576127a06123dd565b5b6127ad8482850161273f565b91505092915050565b600081519050919050565b600082825260208201905092915050565b60006127dd826127b6565b6127e781856127c1565b93506127f78185602086016125a2565b612800816125cc565b840191505092915050565b600081519050919050565b600082825260208201905092915050565b6000819050602082019050919050565b6000819050919050565b61284a81612837565b82525050565b600060ff82169050919050565b61286681612850565b82525050565b6000606083016000830151848203600086015261288982826127d2565b915050602083015161289e6020860182612841565b5060408301516128b1604086018261285d565b508091505092915050565b60006128c8838361286c565b905092915050565b6000602082019050919050565b60006128e88261280b565b6128f28185612816565b93508360208202850161290485612827565b8060005b85811015612940578484038952815161292185826128bc565b945061292c836128d0565b925060208a01995050600181019050612908565b50829750879550505050505092915050565b6000606083016000830151848203600086015261296f82826127d2565b9150506020830151848203602086015261298982826128dd565b915050604083015184820360408601526129a382826128dd565b9150508091505092915050565b600060208201905081810360008301526129ca8184612952565b905092915050565b600080600080608085870312156129ec576129eb6123d8565b5b60006129fa8782880161242b565b9450506020612a0b8782880161242b565b935050604085013567ffffffffffffffff811115612a2c57612a2b6123dd565b5b612a388782880161273f565b9250506060612a498782880161249f565b91505092959194509250565b60008060408385031215612a6c57612a6b6123d8565b5b6000612a7a85828601612544565b925050602083013567ffffffffffffffff811115612a9b57612a9a6123dd565b5b612aa78582860161273f565b9150509250929050565b600081519050919050565b600082825260208201905092915050565b6000819050602082019050919050565b60006040830160008301518482036000860152612afa82826127d2565b9150506020830151612b0f6020860182612841565b508091505092915050565b6000612b268383612add565b905092915050565b6000602082019050919050565b6000612b4682612ab1565b612b508185612abc565b935083602082028501612b6285612acd565b8060005b85811015612b9e5784840389528151612b7f8582612b1a565b9450612b8a83612b2e565b925060208a01995050600181019050612b66565b50829750879550505050505092915050565b60006020820190508181036000830152612bca8184612b3b565b905092915050565b612bdb8161247c565b82525050565b6000602082019050612bf66000830184612bd2565b92915050565b60008060008060808587031215612c1657612c156123d8565b5b600085013567ffffffffffffffff811115612c3457612c336123dd565b5b612c408782880161273f565b9450506020612c518782880161242b565b9350506040612c628782880161249f565b9250506060612c738782880161249f565b91505092959194509250565b60008160070b9050919050565b612c9581612c7f565b82525050565b6000602082019050612cb06000830184612c8c565b92915050565b612cbf81612837565b8114612cca57600080fd5b50565b600081359050612cdc81612cb6565b92915050565b60008060008060808587031215612cfc57612cfb6123d8565b5b6000612d0a8782880161242b565b9450506020612d1b87828801612ccd565b9350506040612d2c8782880161249f565b9250506060612d3d8782880161249f565b91505092959194509250565b60008060408385031215612d6057612d5f6123d8565b5b6000612d6e85828601612544565b9250506020612d7f85828601612467565b9150509250929050565b600082825260208201905092915050565b6000612da58261280b565b612daf8185612d89565b935083602082028501612dc185612827565b8060005b85811015612dfd5784840389528151612dde85826128bc565b9450612de9836128d0565b925060208a01995050600181019050612dc5565b50829750879550505050505092915050565b60006020820190508181036000830152612e298184612d9a565b905092915050565b600067ffffffffffffffff82169050919050565b612e4e81612e31565b8114612e5957600080fd5b50565b600081359050612e6b81612e45565b92915050565b600080fd5b600060a08284031215612e8c57612e8b612e71565b5b81905092915050565b60008060008060808587031215612eaf57612eae6123d8565b5b600085013567ffffffffffffffff811115612ecd57612ecc6123dd565b5b612ed98782880161273f565b9450506020612eea87828801612e5c565b9350506040612efb87828801612e5c565b925050606085013567ffffffffffffffff811115612f1c57612f1b6123dd565b5b612f2887828801612e76565b91505092959194509250565b600081519050919050565b600082825260208201905092915050565b6000819050602082019050919050565b612f6981612e31565b82525050565b604082016000820151612f856000850182612841565b506020820151612f98602085018261285d565b50505050565b606082016000820151612fb46000850182612f60565b506020820151612fc76020850182612f6f565b50505050565b6000612fd98383612f9e565b60608301905092915050565b6000602082019050919050565b6000612ffd82612f34565b6130078185612f3f565b935061301283612f50565b8060005b8381101561304357815161302a8882612fcd565b975061303583612fe5565b925050600181019050613016565b5085935050505092915050565b600082825260208201905092915050565b600061306c82612586565b6130768185613050565b93506130868185602086016125a2565b61308f816125cc565b840191505092915050565b600060408301600083015184820360008601526130b78282613061565b91505060208301516130cc6020860182612f60565b508091505092915050565b600060408201905081810360008301526130f18185612ff2565b90508181036020830152613105818461309a565b90509392505050565b60008060008060808587031215613128576131276123d8565b5b60006131368782880161242b565b945050602085013567ffffffffffffffff811115613157576131566123dd565b5b6131638782880161273f565b93505060406131748782880161249f565b92505060606131858782880161249f565b91505092959194509250565b6000806000606084860312156131aa576131a96123d8565b5b600084013567ffffffffffffffff8111156131c8576131c76123dd565b5b6131d48682870161273f565b93505060206131e586828701612544565b925050604084013567ffffffffffffffff811115613206576132056123dd565b5b6132128682870161273f565b9150509250925092565b600081519050919050565b600082825260208201905092915050565b6000819050602082019050919050565b600061325483836127d2565b905092915050565b6000602082019050919050565b60006132748261321c565b61327e8185613227565b93508360208202850161329085613238565b8060005b858110156132cc57848403895281516132ad8582613248565b94506132b88361325c565b925060208a01995050600181019050613294565b50829750879550505050505092915050565b600060208201905081810360008301526132f88184613269565b905092915050565b60008060408385031215613317576133166123d8565b5b600061332585828601612544565b925050602061333685828601612ccd565b9150509250929050565b600082825260208201905092915050565b600061335c826127b6565b6133668185613340565b93506133768185602086016125a2565b61337f816125cc565b840191505092915050565b600060208201905081810360008301526133a48184613351565b905092915050565b600080604083850312156133c3576133c26123d8565b5b600083013567ffffffffffffffff8111156133e1576133e06123dd565b5b6133ed8582860161273f565b92505060206133fe85828601612ccd565b9150509250929050565b600081519050919050565b600082825260208201905092915050565b6000819050602082019050919050565b6000604083016000830151848203600086015261345182826127d2565b9150506020830151848203602086015261346b82826128dd565b9150508091505092915050565b60006134848383613434565b905092915050565b6000602082019050919050565b60006134a482613408565b6134ae8185613413565b9350836020820285016134c085613424565b8060005b858110156134fc57848403895281516134dd8582613478565b94506134e88361348c565b925060208a019950506001810190506134c4565b50829750879550505050505092915050565b600060408201905081810360008301526135288185613499565b9050818103602083015261353c8184612d9a565b90509392505050565b7f4e487b7100000000000000000000000000000000000000000000000000000000600052601160045260246000fd5b600061357f82612c7f565b9150677fffffffffffffff820361359957613598613545565b5b600182019050919050565b600081905092915050565b50565b60006135bf6000836135a4565b91506135ca826135af565b600082019050919050565b60006135e0826135b2565b9150819050919050565b7f4661696c656420746f2073656e6420457468657220746f2064656c656761746f60008201527f7200000000000000000000000000000000000000000000000000000000000000602082015250565b6000613646602183613340565b9150613651826135ea565b604082019050919050565b6000602082019050818103600083015261367581613639565b9050919050565b6000819050919050565b60006136a161369c613697846123e2565b61367c565b6123e2565b9050919050565b60006136b382613686565b9050919050565b60006136c5826136a8565b9050919050565b6136d5816136ba565b82525050565b6136e481612440565b82525050565b60006040820190506136ff60008301856136cc565b61370c60208301846136db565b9392505050565b60008151905061372281612488565b92915050565b60006020828403121561373e5761373d6123d8565b5b600061374c84828501613713565b91505092915050565b7f6661696c656420746f20636c61696d2072657761726473000000000000000000600082015250565b600061378b601783613340565b915061379682613755565b602082019050919050565b600060208201905081810360008301526137ba8161377e565b9050919050565b6137ca8161251b565b82525050565b60006020820190506137e560008301846137c1565b92915050565b60006137f682612586565b61380081856135a4565b93506138108185602086016125a2565b80840191505092915050565b600061382882846137eb565b915081905092915050565b7f6661696c65642073746174696343616c6c20746f20707265636f6d70696c6500600082015250565b6000613869601f83613340565b915061387482613833565b602082019050919050565b600060208201905081810360008301526138988161385c565b9050919050565b600080fd5b600080fd5b60006138bc6138b7846126bd565b6126a2565b9050828152602081018484840111156138d8576138d761263d565b5b6138e38482856125a2565b509392505050565b600082601f830112613900576138ff612638565b5b81516139108482602086016138a9565b91505092915050565b600067ffffffffffffffff82111561393457613933612642565b5b602082029050602081019050919050565b600080fd5b60008151905061395981612cb6565b92915050565b61396881612850565b811461397357600080fd5b50565b6000815190506139858161395f565b92915050565b6000606082840312156139a1576139a061389f565b5b6139ab60606126a2565b9050600082015167ffffffffffffffff8111156139cb576139ca6138a4565b5b6139d7848285016138eb565b60008301525060206139eb8482850161394a565b60208301525060406139ff84828501613976565b60408301525092915050565b6000613a1e613a1984613919565b6126a2565b90508083825260208201905060208402830185811115613a4157613a40613945565b5b835b81811015613a8857805167ffffffffffffffff811115613a6657613a65612638565b5b808601613a73898261398b565b85526020850194505050602081019050613a43565b5050509392505050565b600082601f830112613aa757613aa6612638565b5b8151613ab7848260208601613a0b565b91505092915050565b600060608284031215613ad657613ad561389f565b5b613ae060606126a2565b9050600082015167ffffffffffffffff811115613b0057613aff6138a4565b5b613b0c848285016138eb565b600083015250602082015167ffffffffffffffff811115613b3057613b2f6138a4565b5b613b3c84828501613a92565b602083015250604082015167ffffffffffffffff811115613b6057613b5f6138a4565b5b613b6c84828501613a92565b60408301525092915050565b600060208284031215613b8e57613b8d6123d8565b5b600082015167ffffffffffffffff811115613bac57613bab6123dd565b5b613bb884828501613ac0565b91505092915050565b6000604082019050613bd660008301856136cc565b8181036020830152613be88184613351565b90509392505050565b600067ffffffffffffffff821115613c0c57613c0b612642565b5b602082029050602081019050919050565b600060408284031215613c3357613c3261389f565b5b613c3d60406126a2565b9050600082015167ffffffffffffffff811115613c5d57613c5c6138a4565b5b613c69848285016138eb565b6000830152506020613c7d8482850161394a565b60208301525092915050565b6000613c9c613c9784613bf1565b6126a2565b90508083825260208201905060208402830185811115613cbf57613cbe613945565b5b835b81811015613d0657805167ffffffffffffffff811115613ce457613ce3612638565b5b808601613cf18982613c1d565b85526020850194505050602081019050613cc1565b5050509392505050565b600082601f830112613d2557613d24612638565b5b8151613d35848260208601613c89565b91505092915050565b600060208284031215613d5457613d536123d8565b5b600082015167ffffffffffffffff811115613d7257613d716123dd565b5b613d7e84828501613d10565b91505092915050565b6000604082019050613d9c60008301856137c1565b8181036020830152613dae8184613351565b90509392505050565b7f6661696c65642064656c656761746543616c6c20746f20707265636f6d70696c60008201527f6500000000000000000000000000000000000000000000000000000000000000602082015250565b6000613e13602183613340565b9150613e1e82613db7565b604082019050919050565b60006020820190508181036000830152613e4281613e06565b9050919050565b613e5281612837565b82525050565b6000604082019050613e6d60008301856136cc565b613e7a6020830184613e49565b9392505050565b6000604082019050613e9660008301856137c1565b613ea360208301846136db565b9392505050565b600060208284031215613ec057613ebf6123d8565b5b600082015167ffffffffffffffff811115613ede57613edd6123dd565b5b613eea84828501613a92565b91505092915050565b613efc81612e31565b82525050565b600080fd5b600080fd5b600080fd5b60008083356001602003843603038112613f2e57613f2d613f0c565b5b83810192508235915060208301925067ffffffffffffffff821115613f5657613f55613f02565b5b600182023603831315613f6c57613f6b613f07565b5b509250929050565b6000613f808385613050565b9350613f8d8385846126ee565b613f96836125cc565b840190509392505050565b6000613fb06020840184612e5c565b905092915050565b6000613fc7602084018461249f565b905092915050565b613fd88161247c565b82525050565b600060a08301613ff16000840184613f11565b8583036000870152614004838284613f74565b925050506140156020840184613fa1565b6140226020860182612f60565b506140306040840184613fa1565b61403d6040860182612f60565b5061404b6060840184613fb8565b6140586060860182613fcf565b506140666080840184613fb8565b6140736080860182613fcf565b508091505092915050565b600060808201905081810360008301526140988187613351565b90506140a76020830186613ef3565b6140b46040830185613ef3565b81810360608301526140c68184613fde565b905095945050505050565b600067ffffffffffffffff8211156140ec576140eb612642565b5b602082029050602081019050919050565b60008151905061410c81612e45565b92915050565b6000604082840312156141285761412761389f565b5b61413260406126a2565b905060006141428482850161394a565b600083015250602061415684828501613976565b60208301525092915050565b6000606082840312156141785761417761389f565b5b61418260406126a2565b90506000614192848285016140fd565b60008301525060206141a684828501614112565b60208301525092915050565b60006141c56141c0846140d1565b6126a2565b905080838252602082019050606084028301858111156141e8576141e7613945565b5b835b8181101561421157806141fd8882614162565b8452602084019350506060810190506141ea565b5050509392505050565b600082601f8301126142305761422f612638565b5b81516142408482602086016141b2565b91505092915050565b600067ffffffffffffffff82111561426457614263612642565b5b61426d826125cc565b9050602081019050919050565b600061428d61428884614249565b6126a2565b9050828152602081018484840111156142a9576142a861263d565b5b6142b48482856125a2565b509392505050565b600082601f8301126142d1576142d0612638565b5b81516142e184826020860161427a565b91505092915050565b600060408284031215614300576142ff61389f565b5b61430a60406126a2565b9050600082015167ffffffffffffffff81111561432a576143296138a4565b5b614336848285016142bc565b600083015250602061434a848285016140fd565b60208301525092915050565b6000806040838503121561436d5761436c6123d8565b5b600083015167ffffffffffffffff81111561438b5761438a6123dd565b5b6143978582860161421b565b925050602083015167ffffffffffffffff8111156143b8576143b76123dd565b5b6143c4858286016142ea565b9150509250929050565b7f6661696c656420746f2073657420776974686472617720616464726573730000600082015250565b6000614404601e83613340565b915061440f826143ce565b602082019050919050565b60006020820190508181036000830152614433816143f7565b9050919050565b600067ffffffffffffffff82111561445557614454612642565b5b602082029050602081019050919050565b60006144796144748461443a565b6126a2565b9050808382526020820190506020840283018581111561449c5761449b613945565b5b835b818110156144e357805167ffffffffffffffff8111156144c1576144c0612638565b5b8086016144ce89826138eb565b8552602085019450505060208101905061449e565b5050509392505050565b600082601f83011261450257614501612638565b5b8151614512848260208601614466565b91505092915050565b600060208284031215614531576145306123d8565b5b600082015167ffffffffffffffff81111561454f5761454e6123dd565b5b61455b848285016144ed565b91505092915050565b600061456f82612c7f565b915061457a83612c7f565b925082820190507fffffffffffffffffffffffffffffffffffffffffffffffff80000000000000008112677fffffffffffffff821317156145be576145bd613545565b5b92915050565b60006040820190506145d960008301856137c1565b6145e66020830184613e49565b9392505050565b60006145f882612c7f565b915061460383612c7f565b92508282039050677fffffffffffffff81137fffffffffffffffffffffffffffffffffffffffffffffffff80000000000000008212171561464757614646613545565b5b92915050565b600060208284031215614663576146626123d8565b5b600082015167ffffffffffffffff811115614681576146806123dd565b5b61468d848285016138eb565b91505092915050565b60006060820190506146ab60008301866137c1565b81810360208301526146bd8185613351565b90506146cc6040830184613e49565b949350505050565b600067ffffffffffffffff8211156146ef576146ee612642565b5b602082029050602081019050919050565b6000604082840312156147165761471561389f565b5b61472060406126a2565b9050600082015167ffffffffffffffff8111156147405761473f6138a4565b5b61474c848285016138eb565b600083015250602082015167ffffffffffffffff8111156147705761476f6138a4565b5b61477c84828501613a92565b60208301525092915050565b600061479b614796846146d4565b6126a2565b905080838252602082019050602084028301858111156147be576147bd613945565b5b835b8181101561480557805167ffffffffffffffff8111156147e3576147e2612638565b5b8086016147f08982614700565b855260208501945050506020810190506147c0565b5050509392505050565b600082601f83011261482457614823612638565b5b8151614834848260208601614788565b91505092915050565b60008060408385031215614854576148536123d8565b5b600083015167ffffffffffffffff811115614872576148716123dd565b5b61487e8582860161480f565b925050602083015167ffffffffffffffff81111561489f5761489e6123dd565b5b6148ab85828601613a92565b915050925092905056fea2646970667358221220f27ffd5c460a126a4da0b1819b1820ce3e06ac99f60c183f78f93e054d003f5c64736f6c634300081400332f636f736d6f732e7374616b696e672e763162657461312e4d736744656c6567617465",
  "linkReferences": {},
  "deployedLinkReferences": {}
}