{
  "_format": "hh-sol-artifact-1",
  "contractName": "DistributionCaller",
  "sourceName": "solidity/precompiles/testutil/contracts/DistributionCaller.sol",
  "abi": [
    {
      "inputs": [],
      "name": "counter",
      "outputs": [
        {
          "internalType": "int64",
          "name": "",
          "type": "int64"
        }
      ],
      "stateMutability": "view",
      "type": "function"
    },
    {
      "inputs": [
        {
          "internalType": "address",
          "name": "_delAddr",
          "type": "address"
        },
        {
          "internalType": "string",
          "name": "_withdrawAddr",
          "type": "string"
        }
      ],
      "name": "delegateCallSetWithdrawAddress",
      "outputs": [],
      "stateMutability": "nonpayable",
      "type": "function"
    },
    {
      "inputs": [],
      "name": "deposit",
      "outputs": [],
      "stateMutability": "payable",
      "type": "function"
    },
    {
      "inputs": [
        {
          "internalType": "address",
          "name": "_delAddr",
          "type": "address"
        },
        {
          "internalType": "string",
          "name": "_valAddr",
          "type": "string"
        }
      ],
      "name": "getDelegationRewards",
      "outputs": [
        {
          "components": [
            {
              "internalType": "string",
              "name": "denom",
              "type": "string"
            },
            {
              "internalType": "uint256",
              "name": "amount",
              "type": "uint256"
            },
            {
              "internalType": "uint8",
              "name": "precision",
              "type": "uint8"
            }
          ],
          "internalType": "struct DecCoin[]",
          "name": "",
          "type": "tuple[]"
        }
      ],
      "stateMutability": "view",
      "type": "function"
    },
    {
      "inputs": [
        {
          "internalType": "address",
          "name": "_delAddr",
          "type": "address"
        }
      ],
      "name": "getDelegationTotalRewards",
      "outputs": [
        {
          "components": [
            {
              "internalType": "string",
              "name": "validatorAddress",
              "type": "string"
            },
            {
              "components": [
                {
                  "internalType": "string",
                  "name": "denom",
                  "type": "string"
                },
                {
                  "internalType": "uint256",
                  "name": "amount",
                  "type": "uint256"
                },
                {
                  "internalType": "uint8",
                  "name": "precision",
                  "type": "uint8"
                }
              ],
              "internalType": "struct DecCoin[]",
              "name": "reward",
              "type": "tuple[]"
            }
          ],
          "internalType": "struct DelegationDelegatorReward[]",
          "name": "rewards",
          "type": "tuple[]"
        },
        {
          "components": [
            {
              "internalType": "string",
              "name": "denom",
              "type": "string"
            },
            {
              "internalType": "uint256",
              "name": "amount",
              "type": "uint256"
            },
            {
              "internalType": "uint8",
              "name": "precision",
              "type": "uint8"
            }
          ],
          "internalType": "struct DecCoin[]",
          "name": "total",
          "type": "tuple[]"
        }
      ],
      "stateMutability": "view",
      "type": "function"
    },
    {
      "inputs": [
        {
          "internalType": "address",
          "name": "_delAddr",
          "type": "address"
        }
      ],
      "name": "getDelegatorValidators",
      "outputs": [
        {
          "internalType": "string[]",
          "name": "",
          "type": "string[]"
        }
      ],
      "stateMutability": "view",
      "type": "function"
    },
    {
      "inputs": [
        {
          "internalType": "address",
          "name": "_delAddr",
          "type": "address"
        }
      ],
      "name": "getDelegatorWithdrawAddress",
      "outputs": [
        {
          "internalType": "string",
          "name": "",
          "type": "string"
        }
      ],
      "stateMutability": "view",
      "type": "function"
    },
    {
      "inputs": [
        {
          "internalType": "string",
          "name": "_valAddr",
          "type": "string"
        }
      ],
      "name": "getValidatorCommission",
      "outputs": [
        {
          "components": [
            {
              "internalType": "string",
              "name": "denom",
              "type": "string"
            },
            {
              "internalType": "uint256",
              "name": "amount",
              "type": "uint256"
            },
            {
              "internalType": "uint8",
              "name": "precision",
              "type": "uint8"
            }
          ],
          "internalType": "struct DecCoin[]",
          "name": "",
          "type": "tuple[]"
        }
      ],
      "stateMutability": "view",
      "type": "function"
    },
    {
      "inputs": [
        {
          "internalType": "string",
          "name": "_valAddr",
          "type": "string"
        }
      ],
      "name": "getValidatorDistributionInfo",
      "outputs": [
        {
          "components": [
            {
              "internalType": "string",
              "name": "operatorAddress",
              "type": "string"
            },
            {
              "components": [
                {
                  "internalType": "string",
                  "name": "denom",
                  "type": "string"
                },
                {
                  "internalType": "uint256",
                  "name": "amount",
                  "type": "uint256"
                },
                {
                  "internalType": "uint8",
                  "name": "precision",
                  "type": "uint8"
                }
              ],
              "internalType": "struct DecCoin[]",
              "name": "selfBondRewards",
              "type": "tuple[]"
            },
            {
              "components": [
                {
                  "internalType": "string",
                  "name": "denom",
                  "type": "string"
                },
                {
                  "internalType": "uint256",
                  "name": "amount",
                  "type": "uint256"
                },
                {
                  "internalType": "uint8",
                  "name": "precision",
                  "type": "uint8"
                }
              ],
              "internalType": "struct DecCoin[]",
              "name": "commission",
              "type": "tuple[]"
            }
          ],
          "internalType": "struct ValidatorDistributionInfo",
          "name": "",
          "type": "tuple"
        }
      ],
      "stateMutability": "view",
      "type": "function"
    },
    {
      "inputs": [
        {
          "internalType": "string",
          "name": "_valAddr",
          "type": "string"
        }
      ],
      "name": "getValidatorOutstandingRewards",
      "outputs": [
        {
          "components": [
            {
              "internalType": "string",
              "name": "denom",
              "type": "string"
            },
            {
              "internalType": "uint256",
              "name": "amount",
              "type": "uint256"
            },
            {
              "internalType": "uint8",
              "name": "precision",
              "type": "uint8"
            }
          ],
          "internalType": "struct DecCoin[]",
          "name": "",
          "type": "tuple[]"
        }
      ],
      "stateMutability": "view",
      "type": "function"
    },
    {
      "inputs": [
        {
          "internalType": "string",
          "name": "_valAddr",
          "type": "string"
        },
        {
          "internalType": "uint64",
          "name": "_startingHeight",
          "type": "uint64"
        },
        {
          "internalType": "uint64",
          "name": "_endingHeight",
          "type": "uint64"
        },
        {
          "components": [
            {
              "internalType": "bytes",
              "name": "key",
              "type": "bytes"
            },
            {
              "internalType": "uint64",
              "name": "offset",
              "type": "uint64"
            },
            {
              "internalType": "uint64",
              "name": "limit",
              "type": "uint64"
            },
            {
              "internalType": "bool",
              "name": "countTotal",
              "type": "bool"
            },
            {
              "internalType": "bool",
              "name": "reverse",
              "type": "bool"
            }
          ],
          "internalType": "struct PageRequest",
          "name": "pageRequest",
          "type": "tuple"
        }
      ],
      "name": "getValidatorSlashes",
      "outputs": [
        {
          "components": [
            {
              "internalType": "uint64",
              "name": "validatorPeriod",
              "type": "uint64"
            },
            {
              "components": [
                {
                  "internalType": "uint256",
                  "name": "value",
                  "type": "uint256"
                },
                {
                  "internalType": "uint8",
                  "name": "precision",
                  "type": "uint8"
                }
              ],
              "internalType": "struct Dec",
              "name": "fraction",
              "type": "tuple"
            }
          ],
          "internalType": "struct ValidatorSlashEvent[]",
          "name": "",
          "type": "tuple[]"
        },
        {
          "components": [
            {
              "internalType": "bytes",
              "name": "nextKey",
              "type": "bytes"
            },
            {
              "internalType": "uint64",
              "name": "total",
              "type": "uint64"
            }
          ],
          "internalType": "struct PageResponse",
          "name": "",
          "type": "tuple"
        }
      ],
      "stateMutability": "view",
      "type": "function"
    },
    {
      "inputs": [
        {
          "internalType": "address payable",
          "name": "_delAddr",
          "type": "address"
        },
        {
          "internalType": "address payable",
          "name": "_withdrawer",
          "type": "address"
        },
        {
          "internalType": "string",
          "name": "_valAddr",
          "type": "string"
        },
        {
          "internalType": "bool",
          "name": "_after",
          "type": "bool"
        }
      ],
      "name": "revertWithdrawRewardsAndTransfer",
      "outputs": [],
      "stateMutability": "nonpayable",
      "type": "function"
    },
    {
      "inputs": [
        {
          "internalType": "address",
          "name": "_delAddr",
          "type": "address"
        }
      ],
      "name": "staticCallGetWithdrawAddress",
      "outputs": [
        {
          "internalType": "bytes",
          "name": "",
          "type": "bytes"
        }
      ],
      "stateMutability": "view",
      "type": "function"
    },
    {
      "inputs": [
        {
          "internalType": "address",
          "name": "_delAddr",
          "type": "address"
        },
        {
          "internalType": "string",
          "name": "_withdrawAddr",
          "type": "string"
        }
      ],
      "name": "staticCallSetWithdrawAddress",
      "outputs": [],
      "stateMutability": "view",
      "type": "function"
    },
    {
      "inputs": [
        {
          "internalType": "address",
          "name": "_delAddr",
          "type": "address"
        },
        {
          "internalType": "uint32",
          "name": "_maxRetrieve",
          "type": "uint32"
        }
      ],
      "name": "testClaimRewards",
      "outputs": [
        {
          "internalType": "bool",
          "name": "success",
          "type": "bool"
        }
      ],
      "stateMutability": "nonpayable",
      "type": "function"
    },
    {
      "inputs": [
        {
          "internalType": "address payable",
          "name": "_delAddr",
          "type": "address"
        },
        {
          "internalType": "uint32",
          "name": "_maxRetrieve",
          "type": "uint32"
        },
        {
          "internalType": "bool",
          "name": "_before",
          "type": "bool"
        },
        {
          "internalType": "bool",
          "name": "_after",
          "type": "bool"
        }
      ],
      "name": "testClaimRewardsWithTransfer",
      "outputs": [],
      "stateMutability": "nonpayable",
      "type": "function"
    },
    {
      "inputs": [
        {
          "internalType": "string",
          "name": "_validatorAddr",
          "type": "string"
        },
        {
          "internalType": "uint256",
          "name": "_amount",
          "type": "uint256"
        }
      ],
      "name": "testDelegateFromContract",
      "outputs": [],
      "stateMutability": "nonpayable",
      "type": "function"
    },
    {
      "inputs": [
        {
          "internalType": "address",
          "name": "depositor",
          "type": "address"
        },
        {
          "components": [
            {
              "internalType": "string",
              "name": "denom",
              "type": "string"
            },
            {
              "internalType": "uint256",
              "name": "amount",
              "type": "uint256"
            }
          ],
          "internalType": "struct Coin[]",
          "name": "amount",
          "type": "tuple[]"
        }
      ],
      "name": "testFundCommunityPool",
      "outputs": [
        {
          "internalType": "bool",
          "name": "success",
          "type": "bool"
        }
      ],
      "stateMutability": "nonpayable",
      "type": "function"
    },
    {
      "inputs": [
        {
          "internalType": "address payable",
          "name": "depositor",
          "type": "address"
        },
        {
          "components": [
            {
              "internalType": "string",
              "name": "denom",
              "type": "string"
            },
            {
              "internalType": "uint256",
              "name": "amount",
              "type": "uint256"
            }
          ],
          "internalType": "struct Coin[]",
          "name": "amount",
          "type": "tuple[]"
        },
        {
          "internalType": "bool",
          "name": "_before",
          "type": "bool"
        },
        {
          "internalType": "bool",
          "name": "_after",
          "type": "bool"
        }
      ],
      "name": "testFundCommunityPoolWithTransfer",
      "outputs": [],
      "stateMutability": "nonpayable",
      "type": "function"
    },
    {
      "inputs": [
        {
          "internalType": "string",
          "name": "_withdrawAddr",
          "type": "string"
        },
        {
          "internalType": "address",
          "name": "_delAddr",
          "type": "address"
        },
        {
          "internalType": "string",
          "name": "_valAddr",
          "type": "string"
        }
      ],
      "name": "testRevertState",
      "outputs": [
        {
          "components": [
            {
              "internalType": "string",
              "name": "denom",
              "type": "string"
            },
            {
              "internalType": "uint256",
              "name": "amount",
              "type": "uint256"
            }
          ],
          "internalType": "struct Coin[]",
          "name": "",
          "type": "tuple[]"
        }
      ],
      "stateMutability": "nonpayable",
      "type": "function"
    },
    {
      "inputs": [
        {
          "internalType": "address",
          "name": "_delAddr",
          "type": "address"
        },
        {
          "internalType": "string",
          "name": "_withdrawAddr",
          "type": "string"
        }
      ],
      "name": "testSetWithdrawAddress",
      "outputs": [
        {
          "internalType": "bool",
          "name": "",
          "type": "bool"
        }
      ],
      "stateMutability": "nonpayable",
      "type": "function"
    },
    {
      "inputs": [
        {
          "internalType": "string",
          "name": "_withdrawAddr",
          "type": "string"
        }
      ],
      "name": "testSetWithdrawAddressFromContract",
      "outputs": [
        {
          "internalType": "bool",
          "name": "",
          "type": "bool"
        }
      ],
      "stateMutability": "nonpayable",
      "type": "function"
    },
    {
      "inputs": [
        {
          "internalType": "address",
          "name": "delegatorAddress",
          "type": "address"
        },
        {
          "internalType": "uint32",
          "name": "maxRetrieve",
          "type": "uint32"
        }
      ],
      "name": "testTryClaimRewards",
      "outputs": [
        {
          "internalType": "bool",
          "name": "",
          "type": "bool"
        }
      ],
      "stateMutability": "nonpayable",
      "type": "function"
    },
    {
      "inputs": [
        {
          "internalType": "address",
          "name": "_delAddr",
          "type": "address"
        },
        {
          "internalType": "string",
          "name": "_valAddr",
          "type": "string"
        }
      ],
      "name": "testWithdrawDelegatorRewards",
      "outputs": [
        {
          "components": [
            {
              "internalType": "string",
              "name": "denom",
              "type": "string"
            },
            {
              "internalType": "uint256",
              "name": "amount",
              "type": "uint256"
            }
          ],
          "internalType": "struct Coin[]",
          "name": "",
          "type": "tuple[]"
        }
      ],
      "stateMutability": "nonpayable",
      "type": "function"
    },
    {
      "inputs": [
        {
          "internalType": "string",
          "name": "_valAddr",
          "type": "string"
        }
      ],
      "name": "testWithdrawDelegatorRewardsFromContract",
      "outputs": [
        {
          "components": [
            {
              "internalType": "string",
              "name": "denom",
              "type": "string"
            },
            {
              "internalType": "uint256",
              "name": "amount",
              "type": "uint256"
            }
          ],
          "internalType": "struct Coin[]",
          "name": "",
          "type": "tuple[]"
        }
      ],
      "stateMutability": "nonpayable",
      "type": "function"
    },
    {
      "inputs": [
        {
          "internalType": "address payable",
          "name": "_delAddr",
          "type": "address"
        },
        {
          "internalType": "string",
          "name": "_valAddr",
          "type": "string"
        },
        {
          "internalType": "bool",
          "name": "_before",
          "type": "bool"
        },
        {
          "internalType": "bool",
          "name": "_after",
          "type": "bool"
        }
      ],
      "name": "testWithdrawDelegatorRewardsWithTransfer",
      "outputs": [
        {
          "components": [
            {
              "internalType": "string",
              "name": "denom",
              "type": "string"
            },
            {
              "internalType": "uint256",
              "name": "amount",
              "type": "uint256"
            }
          ],
          "internalType": "struct Coin[]",
          "name": "coins",
          "type": "tuple[]"
        }
      ],
      "stateMutability": "nonpayable",
      "type": "function"
    },
    {
      "inputs": [
        {
          "internalType": "string",
          "name": "_valAddr",
          "type": "string"
        }
      ],
      "name": "testWithdrawValidatorCommission",
      "outputs": [
        {
          "components": [
            {
              "internalType": "string",
              "name": "denom",
              "type": "string"
            },
            {
              "internalType": "uint256",
              "name": "amount",
              "type": "uint256"
            }
          ],
          "internalType": "struct Coin[]",
          "name": "",
          "type": "tuple[]"
        }
      ],
      "stateMutability": "nonpayable",
      "type": "function"
    },
    {
      "inputs": [
        {
          "internalType": "string",
          "name": "_valAddr",
          "type": "string"
        },
        {
          "internalType": "address payable",
          "name": "_withdrawer",
          "type": "address"
        },
        {
          "internalType": "bool",
          "name": "_before",
          "type": "bool"
        },
        {
          "internalType": "bool",
          "name": "_after",
          "type": "bool"
        }
      ],
      "name": "testWithdrawValidatorCommissionWithTransfer",
      "outputs": [
        {
          "components": [
            {
              "internalType": "string",
              "name": "denom",
              "type": "string"
            },
            {
              "internalType": "uint256",
              "name": "amount",
              "type": "uint256"
            }
          ],
          "internalType": "struct Coin[]",
          "name": "coins",
          "type": "tuple[]"
        }
      ],
      "stateMutability": "nonpayable",
      "type": "function"
    },
    {
      "inputs": [
        {
          "internalType": "address",
          "name": "_delAddr",
          "type": "address"
        },
        {
          "internalType": "string",
          "name": "_valAddr",
          "type": "string"
        }
      ],
      "name": "withdrawDelegatorRewardsAndRevert",
      "outputs": [
        {
          "components": [
            {
              "internalType": "string",
              "name": "denom",
              "type": "string"
            },
            {
              "internalType": "uint256",
              "name": "amount",
              "type": "uint256"
            }
          ],
          "internalType": "struct Coin[]",
          "name": "coins",
          "type": "tuple[]"
        }
      ],
      "stateMutability": "nonpayable",
      "type": "function"
    }
  ],
  "bytecode": "0x6080604052604051806020016040528060405180606001604052806023815260200162004fe36023913981525060009060016200003e92919062000053565b503480156200004c57600080fd5b50620004a1565b828054828255906000526020600020908101928215620000a0579160200282015b828111156200009f5782518290816200008e9190620003ba565b509160200191906001019062000074565b5b509050620000af9190620000b3565b5090565b5b80821115620000d75760008181620000cd9190620000db565b50600101620000b4565b5090565b508054620000e990620001a9565b6000825580601f10620000fd57506200011e565b601f0160209004906000526020600020908101906200011d919062000121565b5b50565b5b808211156200013c57600081600090555060010162000122565b5090565b600081519050919050565b7f4e487b7100000000000000000000000000000000000000000000000000000000600052604160045260246000fd5b7f4e487b7100000000000000000000000000000000000000000000000000000000600052602260045260246000fd5b60006002820490506001821680620001c257607f821691505b602082108103620001d857620001d76200017a565b5b50919050565b60008190508160005260206000209050919050565b60006020601f8301049050919050565b600082821b905092915050565b600060088302620002427fffffffffffffffffffffffffffffffffffffffffffffffffffffffffffffffff8262000203565b6200024e868362000203565b95508019841693508086168417925050509392505050565b6000819050919050565b6000819050919050565b60006200029b620002956200028f8462000266565b62000270565b62000266565b9050919050565b6000819050919050565b620002b7836200027a565b620002cf620002c682620002a2565b84845462000210565b825550505050565b600090565b620002e6620002d7565b620002f3818484620002ac565b505050565b5b818110156200031b576200030f600082620002dc565b600181019050620002f9565b5050565b601f8211156200036a576200033481620001de565b6200033f84620001f3565b810160208510156200034f578190505b620003676200035e85620001f3565b830182620002f8565b50505b505050565b600082821c905092915050565b60006200038f600019846008026200036f565b1980831691505092915050565b6000620003aa83836200037c565b9150826002028217905092915050565b620003c58262000140565b67ffffffffffffffff811115620003e157620003e06200014b565b5b620003ed8254620001a9565b620003fa8282856200031f565b600060209050601f8311600181146200043257600084156200041d578287015190505b6200042985826200039c565b86555062000499565b601f1984166200044286620001de565b60005b828110156200046c5784890151825560018201915060208501945060208101905062000445565b868310156200048c578489015162000488601f8916826200037c565b8355505b6001600288020188555050505b505050505050565b614b3280620004b16000396000f3fe6080604052600436106101c25760003560e01c806388b2d581116100f7578063b6a216ae11610095578063dd987c2011610064578063dd987c2014610728578063e0421e3914610751578063e236c7a61461078e578063f9ed9b67146107cc576101c2565b8063b6a216ae14610667578063cb85aa0a146106a4578063d0e30db0146106e1578063d3f831be146106eb576101c2565b806398194593116100d15780639819459314610573578063ad5c4cdd146105b0578063adb23785146105ed578063b2d178831461062a576101c2565b806388b2d581146104bb57806393574cd1146104f9578063963516e414610536576101c2565b8063613d4de8116101645780636f669da41161013e5780636f669da4146103db57806378a5dfd114610418578063796b96d2146104555780637c9db0bb1461047e576101c2565b8063613d4de81461033657806361bc221a146103735780636b7a547c1461039e576101c2565b80631b050207116101a05780631b0502071461026a578063296c60aa146102935780632d0ee16a146102bc57806346e16d34146102f9576101c2565b80630183e4b4146101c757806301b68000146101f05780630c05e9e41461022d575b600080fd5b3480156101d357600080fd5b506101ee60048036038101906101e99190612594565b6107f5565b005b3480156101fc57600080fd5b5061021760048036038101906102129190612639565b610b24565b60405161022491906126f6565b60405180910390f35b34801561023957600080fd5b50610254600480360381019061024f919061284d565b610c6c565b6040516102619190612a90565b60405180910390f35b34801561027657600080fd5b50610291600480360381019061028c9190612ab2565b610cfc565b005b34801561029f57600080fd5b506102ba60048036038101906102b59190612b35565b610e83565b005b3480156102c857600080fd5b506102e360048036038101906102de919061284d565b610fc4565b6040516102f09190612c90565b60405180910390f35b34801561030557600080fd5b50610320600480360381019061031b9190612b35565b611052565b60405161032d9190612cc1565b60405180910390f35b34801561034257600080fd5b5061035d60048036038101906103589190612cdc565b6110dc565b60405161036a9190612c90565b60405180910390f35b34801561037f57600080fd5b506103886113cf565b6040516103959190612d7b565b60405180910390f35b3480156103aa57600080fd5b506103c560048036038101906103c09190612f1e565b6113e2565b6040516103d29190612cc1565b60405180910390f35b3480156103e757600080fd5b5061040260048036038101906103fd9190612f7a565b6114fa565b60405161040f9190612cc1565b60405180910390f35b34801561042457600080fd5b5061043f600480360381019061043a9190612b35565b611584565b60405161044c9190613040565b60405180910390f35b34801561046157600080fd5b5061047c60048036038101906104779190612b35565b611611565b005b34801561048a57600080fd5b506104a560048036038101906104a0919061284d565b611752565b6040516104b29190613040565b60405180910390f35b3480156104c757600080fd5b506104e260048036038101906104dd91906130c6565b6117dc565b6040516104f0929190613308565b60405180910390f35b34801561050557600080fd5b50610520600480360381019061051b9190612f7a565b61187a565b60405161052d9190612cc1565b60405180910390f35b34801561054257600080fd5b5061055d6004803603810190610558919061284d565b611912565b60405161056a9190612cc1565b60405180910390f35b34801561057f57600080fd5b5061059a60048036038101906105959190612b35565b61199b565b6040516105a79190612c90565b60405180910390f35b3480156105bc57600080fd5b506105d760048036038101906105d29190612b35565b611a2a565b6040516105e49190612c90565b60405180910390f35b3480156105f957600080fd5b50610614600480360381019061060f919061333f565b611ab6565b6040516106219190612c90565b60405180910390f35b34801561063657600080fd5b50610651600480360381019061064c91906133c2565b611d43565b60405161065e9190612c90565b60405180910390f35b34801561067357600080fd5b5061068e60048036038101906106899190612639565b611e98565b60405161069b919061350f565b60405180910390f35b3480156106b057600080fd5b506106cb60048036038101906106c69190612639565b611f22565b6040516106d8919061357b565b60405180910390f35b6106e9611fac565b005b3480156106f757600080fd5b50610712600480360381019061070d919061284d565b611fae565b60405161071f9190613040565b60405180910390f35b34801561073457600080fd5b5061074f600480360381019061074a919061359d565b612038565b005b34801561075d57600080fd5b506107786004803603810190610773919061284d565b6120bf565b6040516107859190612c90565b60405180910390f35b34801561079a57600080fd5b506107b560048036038101906107b09190612639565b61214b565b6040516107c39291906136ff565b60405180910390f35b3480156107d857600080fd5b506107f360048036038101906107ee9190613736565b6121d8565b005b8115610927576001600081819054906101000a900460070b8092919061081a906137e8565b91906101000a81548167ffffffffffffffff021916908360070b67ffffffffffffffff160217905550503073ffffffffffffffffffffffffffffffffffffffff168473ffffffffffffffffffffffffffffffffffffffff16146109265760008473ffffffffffffffffffffffffffffffffffffffff16600f60405161089e90613849565b60006040518083038185875af1925050503d80600081146108db576040519150601f19603f3d011682016040523d82523d6000602084013e6108e0565b606091505b5050905080610924576040517f08c379a000000000000000000000000000000000000000000000000000000000815260040161091b906138d0565b60405180910390fd5b505b5b600061080173ffffffffffffffffffffffffffffffffffffffff16632efe8a5f86866040518363ffffffff1660e01b815260040161096692919061395e565b6020604051808303816000875af1158015610985573d6000803e3d6000fd5b505050506040513d601f19601f820116820180604052508101906109a9919061399c565b9050806109eb576040517f08c379a00000000000000000000000000000000000000000000000000000000081526004016109e290613a15565b60405180910390fd5b8115610b1d576001600081819054906101000a900460070b80929190610a10906137e8565b91906101000a81548167ffffffffffffffff021916908360070b67ffffffffffffffff160217905550503073ffffffffffffffffffffffffffffffffffffffff168573ffffffffffffffffffffffffffffffffffffffff1614610b1c5760008573ffffffffffffffffffffffffffffffffffffffff16600f604051610a9490613849565b60006040518083038185875af1925050503d8060008114610ad1576040519150601f19603f3d011682016040523d82523d6000602084013e610ad6565b606091505b5050905080610b1a576040517f08c379a0000000000000000000000000000000000000000000000000000000008152600401610b11906138d0565b60405180910390fd5b505b5b5050505050565b606060008061080173ffffffffffffffffffffffffffffffffffffffff1684604051602401610b539190613a44565b6040516020818303038152906040527f5431f450000000000000000000000000000000000000000000000000000000007bffffffffffffffffffffffffffffffffffffffffffffffffffffffff19166020820180517bffffffffffffffffffffffffffffffffffffffffffffffffffffffff8381831617835250505050604051610bdd9190613a90565b600060405180830381855afa9150503d8060008114610c18576040519150601f19603f3d011682016040523d82523d6000602084013e610c1d565b606091505b509150915081610c62576040517f08c379a0000000000000000000000000000000000000000000000000000000008152600401610c5990613af3565b60405180910390fd5b8092505050919050565b610c74612469565b61080173ffffffffffffffffffffffffffffffffffffffff166354212a89836040518263ffffffff1660e01b8152600401610caf919061357b565b600060405180830381865afa158015610ccc573d6000803e3d6000fd5b505050506040513d6000823e3d601f19601f82011682018060405250810190610cf59190613ddd565b9050919050565b3073ffffffffffffffffffffffffffffffffffffffff1663ad5c4cdd85846040518363ffffffff1660e01b8152600401610d37929190613e26565b6000604051808303816000875af1925050508015610d7857506040513d6000823e3d601f19601f82011682018060405250810190610d759190613f77565b60015b15610d7f57505b8015610e7d576001600081819054906101000a900460070b80929190610da4906137e8565b91906101000a81548167ffffffffffffffff021916908360070b67ffffffffffffffff1602179055505060008373ffffffffffffffffffffffffffffffffffffffff16600f604051610df590613849565b60006040518083038185875af1925050503d8060008114610e32576040519150601f19603f3d011682016040523d82523d6000602084013e610e37565b606091505b5050905080610e7b576040517f08c379a0000000000000000000000000000000000000000000000000000000008152600401610e72906138d0565b60405180910390fd5b505b50505050565b600061080173ffffffffffffffffffffffffffffffffffffffff168383604051602401610eb1929190613fc0565b6040516020818303038152906040527f5a9d9a96000000000000000000000000000000000000000000000000000000007bffffffffffffffffffffffffffffffffffffffffffffffffffffffff19166020820180517bffffffffffffffffffffffffffffffffffffffffffffffffffffffff8381831617835250505050604051610f3b9190613a90565b600060405180830381855af49150503d8060008114610f76576040519150601f19603f3d011682016040523d82523d6000602084013e610f7b565b606091505b5050905080610fbf576040517f08c379a0000000000000000000000000000000000000000000000000000000008152600401610fb690614062565b60405180910390fd5b505050565b606061080173ffffffffffffffffffffffffffffffffffffffff1663b46a8d6130846040518363ffffffff1660e01b8152600401611003929190613fc0565b6000604051808303816000875af1158015611022573d6000803e3d6000fd5b505050506040513d6000823e3d601f19601f8201168201806040525081019061104b9190613f77565b9050919050565b600061080173ffffffffffffffffffffffffffffffffffffffff16635a9d9a9684846040518363ffffffff1660e01b8152600401611091929190613fc0565b6020604051808303816000875af11580156110b0573d6000803e3d6000fd5b505050506040513d601f19601f820116820180604052508101906110d4919061399c565b905092915050565b60608215611210576001600081819054906101000a900460070b80929190611103906137e8565b91906101000a81548167ffffffffffffffff021916908360070b67ffffffffffffffff160217905550503073ffffffffffffffffffffffffffffffffffffffff168473ffffffffffffffffffffffffffffffffffffffff161461120f5760008473ffffffffffffffffffffffffffffffffffffffff16600f60405161118790613849565b60006040518083038185875af1925050503d80600081146111c4576040519150601f19603f3d011682016040523d82523d6000602084013e6111c9565b606091505b505090508061120d576040517f08c379a0000000000000000000000000000000000000000000000000000000008152600401611204906138d0565b60405180910390fd5b505b5b61080173ffffffffffffffffffffffffffffffffffffffff16633ce4e3be866040518263ffffffff1660e01b815260040161124b919061357b565b6000604051808303816000875af115801561126a573d6000803e3d6000fd5b505050506040513d6000823e3d601f19601f820116820180604052508101906112939190613f77565b905081156113c7576001600081819054906101000a900460070b809291906112ba906137e8565b91906101000a81548167ffffffffffffffff021916908360070b67ffffffffffffffff160217905550503073ffffffffffffffffffffffffffffffffffffffff168473ffffffffffffffffffffffffffffffffffffffff16146113c65760008473ffffffffffffffffffffffffffffffffffffffff16600f60405161133e90613849565b60006040518083038185875af1925050503d806000811461137b576040519150601f19603f3d011682016040523d82523d6000602084013e611380565b606091505b50509050806113c4576040517f08c379a00000000000000000000000000000000000000000000000000000000081526004016113bb906138d0565b60405180910390fd5b505b5b949350505050565b600160009054906101000a900460070b81565b600060018060008282829054906101000a900460070b6114029190614082565b92506101000a81548167ffffffffffffffff021916908360070b67ffffffffffffffff16021790555061080173ffffffffffffffffffffffffffffffffffffffff16632d2b079c84846040518363ffffffff1660e01b81526004016114689291906140e2565b6020604051808303816000875af1158015611487573d6000803e3d6000fd5b505050506040513d601f19601f820116820180604052508101906114ab919061399c565b905060018060008282829054906101000a900460070b6114cb9190614112565b92506101000a81548167ffffffffffffffff021916908360070b67ffffffffffffffff16021790555092915050565b600061080173ffffffffffffffffffffffffffffffffffffffff16632efe8a5f84846040518363ffffffff1660e01b8152600401611539929190614172565b6020604051808303816000875af1158015611558573d6000803e3d6000fd5b505050506040513d601f19601f8201168201806040525081019061157c919061399c565b905092915050565b606061080173ffffffffffffffffffffffffffffffffffffffff16639ad563b484846040518363ffffffff1660e01b81526004016115c3929190613fc0565b600060405180830381865afa1580156115e0573d6000803e3d6000fd5b505050506040513d6000823e3d601f19601f82011682018060405250810190611609919061419b565b905092915050565b600061080173ffffffffffffffffffffffffffffffffffffffff16838360405160240161163f929190613fc0565b6040516020818303038152906040527f5a9d9a96000000000000000000000000000000000000000000000000000000007bffffffffffffffffffffffffffffffffffffffffffffffffffffffff19166020820180517bffffffffffffffffffffffffffffffffffffffffffffffffffffffff83818316178352505050506040516116c99190613a90565b600060405180830381855afa9150503d8060008114611704576040519150601f19603f3d011682016040523d82523d6000602084013e611709565b606091505b505090508061174d576040517f08c379a000000000000000000000000000000000000000000000000000000000815260040161174490613af3565b60405180910390fd5b505050565b606061080173ffffffffffffffffffffffffffffffffffffffff16633dd40f78836040518263ffffffff1660e01b815260040161178f919061357b565b600060405180830381865afa1580156117ac573d6000803e3d6000fd5b505050506040513d6000823e3d601f19601f820116820180604052508101906117d5919061419b565b9050919050565b60606117e661248a565b61080173ffffffffffffffffffffffffffffffffffffffff16638f2473ce878787876040518563ffffffff1660e01b8152600401611827949392919061436f565b600060405180830381865afa158015611844573d6000803e3d6000fd5b505050506040513d6000823e3d601f19601f8201168201806040525081019061186d9190614647565b9150915094509492505050565b60008061080173ffffffffffffffffffffffffffffffffffffffff16632efe8a5f85856040518363ffffffff1660e01b81526004016118ba929190614172565b6020604051808303816000875af19250505080156118f657506040513d601f19601f820116820180604052508101906118f3919061399c565b60015b6119035760009050611908565b809150505b8091505092915050565b600061080173ffffffffffffffffffffffffffffffffffffffff16635a9d9a9630846040518363ffffffff1660e01b8152600401611951929190613fc0565b6020604051808303816000875af1158015611970573d6000803e3d6000fd5b505050506040513d601f19601f82011682018060405250810190611994919061399c565b9050919050565b606061080173ffffffffffffffffffffffffffffffffffffffff1663b46a8d6184846040518363ffffffff1660e01b81526004016119da929190613fc0565b6000604051808303816000875af11580156119f9573d6000803e3d6000fd5b505050506040513d6000823e3d601f19601f82011682018060405250810190611a229190613f77565b905092915050565b606061080173ffffffffffffffffffffffffffffffffffffffff1663b46a8d6184846040518363ffffffff1660e01b8152600401611a69929190613fc0565b6000604051808303816000875af1158015611a88573d6000803e3d6000fd5b505050506040513d6000823e3d601f19601f82011682018060405250810190611ab19190613f77565b600080fd5b60608215611bb6576001600081819054906101000a900460070b80929190611add906137e8565b91906101000a81548167ffffffffffffffff021916908360070b67ffffffffffffffff1602179055505060008573ffffffffffffffffffffffffffffffffffffffff16600f604051611b2e90613849565b60006040518083038185875af1925050503d8060008114611b6b576040519150601f19603f3d011682016040523d82523d6000602084013e611b70565b606091505b5050905080611bb4576040517f08c379a0000000000000000000000000000000000000000000000000000000008152600401611bab906138d0565b60405180910390fd5b505b61080173ffffffffffffffffffffffffffffffffffffffff1663b46a8d6186866040518363ffffffff1660e01b8152600401611bf3929190613e26565b6000604051808303816000875af1158015611c12573d6000803e3d6000fd5b505050506040513d6000823e3d601f19601f82011682018060405250810190611c3b9190613f77565b90508115611d3b576001600081819054906101000a900460070b80929190611c62906137e8565b91906101000a81548167ffffffffffffffff021916908360070b67ffffffffffffffff1602179055505060008573ffffffffffffffffffffffffffffffffffffffff16600f604051611cb390613849565b60006040518083038185875af1925050503d8060008114611cf0576040519150601f19603f3d011682016040523d82523d6000602084013e611cf5565b606091505b5050905080611d39576040517f08c379a0000000000000000000000000000000000000000000000000000000008152600401611d30906138d0565b60405180910390fd5b505b949350505050565b6060600061080173ffffffffffffffffffffffffffffffffffffffff16635a9d9a9633876040518363ffffffff1660e01b8152600401611d84929190613fc0565b6020604051808303816000875af1158015611da3573d6000803e3d6000fd5b505050506040513d601f19601f82011682018060405250810190611dc7919061399c565b905080611e09576040517f08c379a0000000000000000000000000000000000000000000000000000000008152600401611e009061470b565b60405180910390fd5b61080173ffffffffffffffffffffffffffffffffffffffff1663b46a8d6185856040518363ffffffff1660e01b8152600401611e46929190613fc0565b6000604051808303816000875af1158015611e65573d6000803e3d6000fd5b505050506040513d6000823e3d601f19601f82011682018060405250810190611e8e9190613f77565b9150509392505050565b606061080173ffffffffffffffffffffffffffffffffffffffff1663a66cb605836040518263ffffffff1660e01b8152600401611ed59190613a44565b600060405180830381865afa158015611ef2573d6000803e3d6000fd5b505050506040513d6000823e3d601f19601f82011682018060405250810190611f1b919061480c565b9050919050565b606061080173ffffffffffffffffffffffffffffffffffffffff16635431f450836040518263ffffffff1660e01b8152600401611f5f9190613a44565b600060405180830381865afa158015611f7c573d6000803e3d6000fd5b505050506040513d6000823e3d601f19601f82011682018060405250810190611fa59190614855565b9050919050565b565b606061080173ffffffffffffffffffffffffffffffffffffffff166385b2d2da836040518263ffffffff1660e01b8152600401611feb919061357b565b600060405180830381865afa158015612008573d6000803e3d6000fd5b505050506040513d6000823e3d601f19601f82011682018060405250810190612031919061419b565b9050919050565b61080073ffffffffffffffffffffffffffffffffffffffff166353266bbb3084846040518463ffffffff1660e01b8152600401612077939291906148ad565b6020604051808303816000875af1158015612096573d6000803e3d6000fd5b505050506040513d601f19601f820116820180604052508101906120ba919061399c565b505050565b606061080173ffffffffffffffffffffffffffffffffffffffff16633ce4e3be836040518263ffffffff1660e01b81526004016120fc919061357b565b6000604051808303816000875af115801561211b573d6000803e3d6000fd5b505050506040513d6000823e3d601f19601f820116820180604052508101906121449190613f77565b9050919050565b60608061080173ffffffffffffffffffffffffffffffffffffffff166354be1a28846040518263ffffffff1660e01b81526004016121899190613a44565b600060405180830381865afa1580156121a6573d6000803e3d6000fd5b505050506040513d6000823e3d601f19601f820116820180604052508101906121cf9190614a54565b91509150915091565b81156122d6576001600081819054906101000a900460070b809291906121fd906137e8565b91906101000a81548167ffffffffffffffff021916908360070b67ffffffffffffffff1602179055505060008473ffffffffffffffffffffffffffffffffffffffff16600f60405161224e90613849565b60006040518083038185875af1925050503d806000811461228b576040519150601f19603f3d011682016040523d82523d6000602084013e612290565b606091505b50509050806122d4576040517f08c379a00000000000000000000000000000000000000000000000000000000081526004016122cb906138d0565b60405180910390fd5b505b600061080173ffffffffffffffffffffffffffffffffffffffff16632d2b079c86866040518363ffffffff1660e01b8152600401612315929190614acc565b6020604051808303816000875af1158015612334573d6000803e3d6000fd5b505050506040513d601f19601f82011682018060405250810190612358919061399c565b90508061236457600080fd5b8115612462576001600081819054906101000a900460070b80929190612389906137e8565b91906101000a81548167ffffffffffffffff021916908360070b67ffffffffffffffff1602179055505060008573ffffffffffffffffffffffffffffffffffffffff16600f6040516123da90613849565b60006040518083038185875af1925050503d8060008114612417576040519150601f19603f3d011682016040523d82523d6000602084013e61241c565b606091505b5050905080612460576040517f08c379a0000000000000000000000000000000000000000000000000000000008152600401612457906138d0565b60405180910390fd5b505b5050505050565b60405180606001604052806060815260200160608152602001606081525090565b604051806040016040528060608152602001600067ffffffffffffffff1681525090565b6000604051905090565b600080fd5b600080fd5b600073ffffffffffffffffffffffffffffffffffffffff82169050919050565b60006124ed826124c2565b9050919050565b6124fd816124e2565b811461250857600080fd5b50565b60008135905061251a816124f4565b92915050565b600063ffffffff82169050919050565b61253981612520565b811461254457600080fd5b50565b60008135905061255681612530565b92915050565b60008115159050919050565b6125718161255c565b811461257c57600080fd5b50565b60008135905061258e81612568565b92915050565b600080600080608085870312156125ae576125ad6124b8565b5b60006125bc8782880161250b565b94505060206125cd87828801612547565b93505060406125de8782880161257f565b92505060606125ef8782880161257f565b91505092959194509250565b6000612606826124c2565b9050919050565b612616816125fb565b811461262157600080fd5b50565b6000813590506126338161260d565b92915050565b60006020828403121561264f5761264e6124b8565b5b600061265d84828501612624565b91505092915050565b600081519050919050565b600082825260208201905092915050565b60005b838110156126a0578082015181840152602081019050612685565b60008484015250505050565b6000601f19601f8301169050919050565b60006126c882612666565b6126d28185612671565b93506126e2818560208601612682565b6126eb816126ac565b840191505092915050565b6000602082019050818103600083015261271081846126bd565b905092915050565b600080fd5b600080fd5b7f4e487b7100000000000000000000000000000000000000000000000000000000600052604160045260246000fd5b61275a826126ac565b810181811067ffffffffffffffff8211171561277957612778612722565b5b80604052505050565b600061278c6124ae565b90506127988282612751565b919050565b600067ffffffffffffffff8211156127b8576127b7612722565b5b6127c1826126ac565b9050602081019050919050565b82818337600083830152505050565b60006127f06127eb8461279d565b612782565b90508281526020810184848401111561280c5761280b61271d565b5b6128178482856127ce565b509392505050565b600082601f83011261283457612833612718565b5b81356128448482602086016127dd565b91505092915050565b600060208284031215612863576128626124b8565b5b600082013567ffffffffffffffff811115612881576128806124bd565b5b61288d8482850161281f565b91505092915050565b600081519050919050565b600082825260208201905092915050565b60006128bd82612896565b6128c781856128a1565b93506128d7818560208601612682565b6128e0816126ac565b840191505092915050565b600081519050919050565b600082825260208201905092915050565b6000819050602082019050919050565b6000819050919050565b61292a81612917565b82525050565b600060ff82169050919050565b61294681612930565b82525050565b6000606083016000830151848203600086015261296982826128b2565b915050602083015161297e6020860182612921565b506040830151612991604086018261293d565b508091505092915050565b60006129a8838361294c565b905092915050565b6000602082019050919050565b60006129c8826128eb565b6129d281856128f6565b9350836020820285016129e485612907565b8060005b85811015612a205784840389528151612a01858261299c565b9450612a0c836129b0565b925060208a019950506001810190506129e8565b50829750879550505050505092915050565b60006060830160008301518482036000860152612a4f82826128b2565b91505060208301518482036020860152612a6982826129bd565b91505060408301518482036040860152612a8382826129bd565b9150508091505092915050565b60006020820190508181036000830152612aaa8184612a32565b905092915050565b60008060008060808587031215612acc57612acb6124b8565b5b6000612ada8782880161250b565b9450506020612aeb8782880161250b565b935050604085013567ffffffffffffffff811115612b0c57612b0b6124bd565b5b612b188782880161281f565b9250506060612b298782880161257f565b91505092959194509250565b60008060408385031215612b4c57612b4b6124b8565b5b6000612b5a85828601612624565b925050602083013567ffffffffffffffff811115612b7b57612b7a6124bd565b5b612b878582860161281f565b9150509250929050565b600081519050919050565b600082825260208201905092915050565b6000819050602082019050919050565b60006040830160008301518482036000860152612bda82826128b2565b9150506020830151612bef6020860182612921565b508091505092915050565b6000612c068383612bbd565b905092915050565b6000602082019050919050565b6000612c2682612b91565b612c308185612b9c565b935083602082028501612c4285612bad565b8060005b85811015612c7e5784840389528151612c5f8582612bfa565b9450612c6a83612c0e565b925060208a01995050600181019050612c46565b50829750879550505050505092915050565b60006020820190508181036000830152612caa8184612c1b565b905092915050565b612cbb8161255c565b82525050565b6000602082019050612cd66000830184612cb2565b92915050565b60008060008060808587031215612cf657612cf56124b8565b5b600085013567ffffffffffffffff811115612d1457612d136124bd565b5b612d208782880161281f565b9450506020612d318782880161250b565b9350506040612d428782880161257f565b9250506060612d538782880161257f565b91505092959194509250565b60008160070b9050919050565b612d7581612d5f565b82525050565b6000602082019050612d906000830184612d6c565b92915050565b600067ffffffffffffffff821115612db157612db0612722565b5b602082029050602081019050919050565b600080fd5b600080fd5b600080fd5b612dda81612917565b8114612de557600080fd5b50565b600081359050612df781612dd1565b92915050565b600060408284031215612e1357612e12612dc7565b5b612e1d6040612782565b9050600082013567ffffffffffffffff811115612e3d57612e3c612dcc565b5b612e498482850161281f565b6000830152506020612e5d84828501612de8565b60208301525092915050565b6000612e7c612e7784612d96565b612782565b90508083825260208201905060208402830185811115612e9f57612e9e612dc2565b5b835b81811015612ee657803567ffffffffffffffff811115612ec457612ec3612718565b5b808601612ed18982612dfd565b85526020850194505050602081019050612ea1565b5050509392505050565b600082601f830112612f0557612f04612718565b5b8135612f15848260208601612e69565b91505092915050565b60008060408385031215612f3557612f346124b8565b5b6000612f4385828601612624565b925050602083013567ffffffffffffffff811115612f6457612f636124bd565b5b612f7085828601612ef0565b9150509250929050565b60008060408385031215612f9157612f906124b8565b5b6000612f9f85828601612624565b9250506020612fb085828601612547565b9150509250929050565b600082825260208201905092915050565b6000612fd6826128eb565b612fe08185612fba565b935083602082028501612ff285612907565b8060005b8581101561302e578484038952815161300f858261299c565b945061301a836129b0565b925060208a01995050600181019050612ff6565b50829750879550505050505092915050565b6000602082019050818103600083015261305a8184612fcb565b905092915050565b600067ffffffffffffffff82169050919050565b61307f81613062565b811461308a57600080fd5b50565b60008135905061309c81613076565b92915050565b600080fd5b600060a082840312156130bd576130bc6130a2565b5b81905092915050565b600080600080608085870312156130e0576130df6124b8565b5b600085013567ffffffffffffffff8111156130fe576130fd6124bd565b5b61310a8782880161281f565b945050602061311b8782880161308d565b935050604061312c8782880161308d565b925050606085013567ffffffffffffffff81111561314d5761314c6124bd565b5b613159878288016130a7565b91505092959194509250565b600081519050919050565b600082825260208201905092915050565b6000819050602082019050919050565b61319a81613062565b82525050565b6040820160008201516131b66000850182612921565b5060208201516131c9602085018261293d565b50505050565b6060820160008201516131e56000850182613191565b5060208201516131f860208501826131a0565b50505050565b600061320a83836131cf565b60608301905092915050565b6000602082019050919050565b600061322e82613165565b6132388185613170565b935061324383613181565b8060005b8381101561327457815161325b88826131fe565b975061326683613216565b925050600181019050613247565b5085935050505092915050565b600082825260208201905092915050565b600061329d82612666565b6132a78185613281565b93506132b7818560208601612682565b6132c0816126ac565b840191505092915050565b600060408301600083015184820360008601526132e88282613292565b91505060208301516132fd6020860182613191565b508091505092915050565b600060408201905081810360008301526133228185613223565b9050818103602083015261333681846132cb565b90509392505050565b60008060008060808587031215613359576133586124b8565b5b60006133678782880161250b565b945050602085013567ffffffffffffffff811115613388576133876124bd565b5b6133948782880161281f565b93505060406133a58782880161257f565b92505060606133b68782880161257f565b91505092959194509250565b6000806000606084860312156133db576133da6124b8565b5b600084013567ffffffffffffffff8111156133f9576133f86124bd565b5b6134058682870161281f565b935050602061341686828701612624565b925050604084013567ffffffffffffffff811115613437576134366124bd565b5b6134438682870161281f565b9150509250925092565b600081519050919050565b600082825260208201905092915050565b6000819050602082019050919050565b600061348583836128b2565b905092915050565b6000602082019050919050565b60006134a58261344d565b6134af8185613458565b9350836020820285016134c185613469565b8060005b858110156134fd57848403895281516134de8582613479565b94506134e98361348d565b925060208a019950506001810190506134c5565b50829750879550505050505092915050565b60006020820190508181036000830152613529818461349a565b905092915050565b600082825260208201905092915050565b600061354d82612896565b6135578185613531565b9350613567818560208601612682565b613570816126ac565b840191505092915050565b600060208201905081810360008301526135958184613542565b905092915050565b600080604083850312156135b4576135b36124b8565b5b600083013567ffffffffffffffff8111156135d2576135d16124bd565b5b6135de8582860161281f565b92505060206135ef85828601612de8565b9150509250929050565b600081519050919050565b600082825260208201905092915050565b6000819050602082019050919050565b6000604083016000830151848203600086015261364282826128b2565b9150506020830151848203602086015261365c82826129bd565b9150508091505092915050565b60006136758383613625565b905092915050565b6000602082019050919050565b6000613695826135f9565b61369f8185613604565b9350836020820285016136b185613615565b8060005b858110156136ed57848403895281516136ce8582613669565b94506136d98361367d565b925060208a019950506001810190506136b5565b50829750879550505050505092915050565b60006040820190508181036000830152613719818561368a565b9050818103602083015261372d8184612fcb565b90509392505050565b600080600080608085870312156137505761374f6124b8565b5b600061375e8782880161250b565b945050602085013567ffffffffffffffff81111561377f5761377e6124bd565b5b61378b87828801612ef0565b935050604061379c8782880161257f565b92505060606137ad8782880161257f565b91505092959194509250565b7f4e487b7100000000000000000000000000000000000000000000000000000000600052601160045260246000fd5b60006137f382612d5f565b9150677fffffffffffffff820361380d5761380c6137b9565b5b600182019050919050565b600081905092915050565b50565b6000613833600083613818565b915061383e82613823565b600082019050919050565b600061385482613826565b9150819050919050565b7f4661696c656420746f2073656e6420457468657220746f2064656c656761746f60008201527f7200000000000000000000000000000000000000000000000000000000000000602082015250565b60006138ba602183613531565b91506138c58261385e565b604082019050919050565b600060208201905081810360008301526138e9816138ad565b9050919050565b6000819050919050565b600061391561391061390b846124c2565b6138f0565b6124c2565b9050919050565b6000613927826138fa565b9050919050565b60006139398261391c565b9050919050565b6139498161392e565b82525050565b61395881612520565b82525050565b60006040820190506139736000830185613940565b613980602083018461394f565b9392505050565b60008151905061399681612568565b92915050565b6000602082840312156139b2576139b16124b8565b5b60006139c084828501613987565b91505092915050565b7f6661696c656420746f20636c61696d2072657761726473000000000000000000600082015250565b60006139ff601783613531565b9150613a0a826139c9565b602082019050919050565b60006020820190508181036000830152613a2e816139f2565b9050919050565b613a3e816125fb565b82525050565b6000602082019050613a596000830184613a35565b92915050565b6000613a6a82612666565b613a748185613818565b9350613a84818560208601612682565b80840191505092915050565b6000613a9c8284613a5f565b915081905092915050565b7f6661696c65642073746174696343616c6c20746f20707265636f6d70696c6500600082015250565b6000613add601f83613531565b9150613ae882613aa7565b602082019050919050565b60006020820190508181036000830152613b0c81613ad0565b9050919050565b6000613b26613b218461279d565b612782565b905082815260208101848484011115613b4257613b4161271d565b5b613b4d848285612682565b509392505050565b600082601f830112613b6a57613b69612718565b5b8151613b7a848260208601613b13565b91505092915050565b600067ffffffffffffffff821115613b9e57613b9d612722565b5b602082029050602081019050919050565b600081519050613bbe81612dd1565b92915050565b613bcd81612930565b8114613bd857600080fd5b50565b600081519050613bea81613bc4565b92915050565b600060608284031215613c0657613c05612dc7565b5b613c106060612782565b9050600082015167ffffffffffffffff811115613c3057613c2f612dcc565b5b613c3c84828501613b55565b6000830152506020613c5084828501613baf565b6020830152506040613c6484828501613bdb565b60408301525092915050565b6000613c83613c7e84613b83565b612782565b90508083825260208201905060208402830185811115613ca657613ca5612dc2565b5b835b81811015613ced57805167ffffffffffffffff811115613ccb57613cca612718565b5b808601613cd88982613bf0565b85526020850194505050602081019050613ca8565b5050509392505050565b600082601f830112613d0c57613d0b612718565b5b8151613d1c848260208601613c70565b91505092915050565b600060608284031215613d3b57613d3a612dc7565b5b613d456060612782565b9050600082015167ffffffffffffffff811115613d6557613d64612dcc565b5b613d7184828501613b55565b600083015250602082015167ffffffffffffffff811115613d9557613d94612dcc565b5b613da184828501613cf7565b602083015250604082015167ffffffffffffffff811115613dc557613dc4612dcc565b5b613dd184828501613cf7565b60408301525092915050565b600060208284031215613df357613df26124b8565b5b600082015167ffffffffffffffff811115613e1157613e106124bd565b5b613e1d84828501613d25565b91505092915050565b6000604082019050613e3b6000830185613940565b8181036020830152613e4d8184613542565b90509392505050565b600060408284031215613e6c57613e6b612dc7565b5b613e766040612782565b9050600082015167ffffffffffffffff811115613e9657613e95612dcc565b5b613ea284828501613b55565b6000830152506020613eb684828501613baf565b60208301525092915050565b6000613ed5613ed084612d96565b612782565b90508083825260208201905060208402830185811115613ef857613ef7612dc2565b5b835b81811015613f3f57805167ffffffffffffffff811115613f1d57613f1c612718565b5b808601613f2a8982613e56565b85526020850194505050602081019050613efa565b5050509392505050565b600082601f830112613f5e57613f5d612718565b5b8151613f6e848260208601613ec2565b91505092915050565b600060208284031215613f8d57613f8c6124b8565b5b600082015167ffffffffffffffff811115613fab57613faa6124bd565b5b613fb784828501613f49565b91505092915050565b6000604082019050613fd56000830185613a35565b8181036020830152613fe78184613542565b90509392505050565b7f6661696c65642064656c656761746543616c6c20746f20707265636f6d70696c60008201527f6500000000000000000000000000000000000000000000000000000000000000602082015250565b600061404c602183613531565b915061405782613ff0565b604082019050919050565b6000602082019050818103600083015261407b8161403f565b9050919050565b600061408d82612d5f565b915061409883612d5f565b925082820190507fffffffffffffffffffffffffffffffffffffffffffffffff80000000000000008112677fffffffffffffff821317156140dc576140db6137b9565b5b92915050565b60006040820190506140f76000830185613a35565b81810360208301526141098184612c1b565b90509392505050565b600061411d82612d5f565b915061412883612d5f565b92508282039050677fffffffffffffff81137fffffffffffffffffffffffffffffffffffffffffffffffff80000000000000008212171561416c5761416b6137b9565b5b92915050565b60006040820190506141876000830185613a35565b614194602083018461394f565b9392505050565b6000602082840312156141b1576141b06124b8565b5b600082015167ffffffffffffffff8111156141cf576141ce6124bd565b5b6141db84828501613cf7565b91505092915050565b6141ed81613062565b82525050565b600080fd5b600080fd5b600080fd5b6000808335600160200384360303811261421f5761421e6141fd565b5b83810192508235915060208301925067ffffffffffffffff821115614247576142466141f3565b5b60018202360383131561425d5761425c6141f8565b5b509250929050565b60006142718385613281565b935061427e8385846127ce565b614287836126ac565b840190509392505050565b60006142a1602084018461308d565b905092915050565b60006142b8602084018461257f565b905092915050565b6142c98161255c565b82525050565b600060a083016142e26000840184614202565b85830360008701526142f5838284614265565b925050506143066020840184614292565b6143136020860182613191565b506143216040840184614292565b61432e6040860182613191565b5061433c60608401846142a9565b61434960608601826142c0565b5061435760808401846142a9565b61436460808601826142c0565b508091505092915050565b600060808201905081810360008301526143898187613542565b905061439860208301866141e4565b6143a560408301856141e4565b81810360608301526143b781846142cf565b905095945050505050565b600067ffffffffffffffff8211156143dd576143dc612722565b5b602082029050602081019050919050565b6000815190506143fd81613076565b92915050565b60006040828403121561441957614418612dc7565b5b6144236040612782565b9050600061443384828501613baf565b600083015250602061444784828501613bdb565b60208301525092915050565b60006060828403121561446957614468612dc7565b5b6144736040612782565b90506000614483848285016143ee565b600083015250602061449784828501614403565b60208301525092915050565b60006144b66144b1846143c2565b612782565b905080838252602082019050606084028301858111156144d9576144d8612dc2565b5b835b8181101561450257806144ee8882614453565b8452602084019350506060810190506144db565b5050509392505050565b600082601f83011261452157614520612718565b5b81516145318482602086016144a3565b91505092915050565b600067ffffffffffffffff82111561455557614554612722565b5b61455e826126ac565b9050602081019050919050565b600061457e6145798461453a565b612782565b90508281526020810184848401111561459a5761459961271d565b5b6145a5848285612682565b509392505050565b600082601f8301126145c2576145c1612718565b5b81516145d284826020860161456b565b91505092915050565b6000604082840312156145f1576145f0612dc7565b5b6145fb6040612782565b9050600082015167ffffffffffffffff81111561461b5761461a612dcc565b5b614627848285016145ad565b600083015250602061463b848285016143ee565b60208301525092915050565b6000806040838503121561465e5761465d6124b8565b5b600083015167ffffffffffffffff81111561467c5761467b6124bd565b5b6146888582860161450c565b925050602083015167ffffffffffffffff8111156146a9576146a86124bd565b5b6146b5858286016145db565b9150509250929050565b7f6661696c656420746f2073657420776974686472617720616464726573730000600082015250565b60006146f5601e83613531565b9150614700826146bf565b602082019050919050565b60006020820190508181036000830152614724816146e8565b9050919050565b600067ffffffffffffffff82111561474657614745612722565b5b602082029050602081019050919050565b600061476a6147658461472b565b612782565b9050808382526020820190506020840283018581111561478d5761478c612dc2565b5b835b818110156147d457805167ffffffffffffffff8111156147b2576147b1612718565b5b8086016147bf8982613b55565b8552602085019450505060208101905061478f565b5050509392505050565b600082601f8301126147f3576147f2612718565b5b8151614803848260208601614757565b91505092915050565b600060208284031215614822576148216124b8565b5b600082015167ffffffffffffffff8111156148405761483f6124bd565b5b61484c848285016147de565b91505092915050565b60006020828403121561486b5761486a6124b8565b5b600082015167ffffffffffffffff811115614889576148886124bd565b5b61489584828501613b55565b91505092915050565b6148a781612917565b82525050565b60006060820190506148c26000830186613a35565b81810360208301526148d48185613542565b90506148e3604083018461489e565b949350505050565b600067ffffffffffffffff82111561490657614905612722565b5b602082029050602081019050919050565b60006040828403121561492d5761492c612dc7565b5b6149376040612782565b9050600082015167ffffffffffffffff81111561495757614956612dcc565b5b61496384828501613b55565b600083015250602082015167ffffffffffffffff81111561498757614986612dcc565b5b61499384828501613cf7565b60208301525092915050565b60006149b26149ad846148eb565b612782565b905080838252602082019050602084028301858111156149d5576149d4612dc2565b5b835b81811015614a1c57805167ffffffffffffffff8111156149fa576149f9612718565b5b808601614a078982614917565b855260208501945050506020810190506149d7565b5050509392505050565b600082601f830112614a3b57614a3a612718565b5b8151614a4b84826020860161499f565b91505092915050565b60008060408385031215614a6b57614a6a6124b8565b5b600083015167ffffffffffffffff811115614a8957614a886124bd565b5b614a9585828601614a26565b925050602083015167ffffffffffffffff811115614ab657614ab56124bd565b5b614ac285828601613cf7565b9150509250929050565b6000604082019050614ae16000830185613940565b8181036020830152614af38184612c1b565b9050939250505056fea26469706673582212209a8673d6555b2e34f9b826905360773c215236d14680b024971075d1687b39d064736f6c634300081400332f636f736d6f732e7374616b696e672e763162657461312e4d736744656c6567617465",
  "linkReferences": {},
  "deployedLinkReferences": {}
}