{
  "_format": "hh-sol-artifact-1",
  "contractName": "DistributionCaller",
  "sourceName": "solidity/precompiles/testutil/contracts/DistributionCaller.sol",
  "abi": [
    {
      "inputs": [],
      "name": "counter",
      "outputs": [
        {
          "internalType": "int64",
          "name": "",
          "type": "int64"
        }
      ],
      "stateMutability": "view",
      "type": "function"
    },
    {
      "inputs": [
        {
          "internalType": "address",
          "name": "_delAddr",
          "type": "address"
        },
        {
          "internalType": "string",
          "name": "_withdrawAddr",
          "type": "string"
        }
      ],
      "name": "delegateCallSetWithdrawAddress",
      "outputs": [],
      "stateMutability": "nonpayable",
      "type": "function"
    },
    {
      "inputs": [],
      "name": "deposit",
      "outputs": [],
      "stateMutability": "payable",
      "type": "function"
    },
    {
      "inputs": [
        {
          "internalType": "address",
          "name": "_delAddr",
          "type": "address"
        },
        {
          "internalType": "string",
          "name": "_valAddr",
          "type": "string"
        }
      ],
      "name": "getDelegationRewards",
      "outputs": [
        {
          "components": [
            {
              "internalType": "string",
              "name": "denom",
              "type": "string"
            },
            {
              "internalType": "uint256",
              "name": "amount",
              "type": "uint256"
            },
            {
              "internalType": "uint8",
              "name": "precision",
              "type": "uint8"
            }
          ],
          "internalType": "struct DecCoin[]",
          "name": "",
          "type": "tuple[]"
        }
      ],
      "stateMutability": "view",
      "type": "function"
    },
    {
      "inputs": [
        {
          "internalType": "address",
          "name": "_delAddr",
          "type": "address"
        }
      ],
      "name": "getDelegationTotalRewards",
      "outputs": [
        {
          "components": [
            {
              "internalType": "string",
              "name": "validatorAddress",
              "type": "string"
            },
            {
              "components": [
                {
                  "internalType": "string",
                  "name": "denom",
                  "type": "string"
                },
                {
                  "internalType": "uint256",
                  "name": "amount",
                  "type": "uint256"
                },
                {
                  "internalType": "uint8",
                  "name": "precision",
                  "type": "uint8"
                }
              ],
              "internalType": "struct DecCoin[]",
              "name": "reward",
              "type": "tuple[]"
            }
          ],
          "internalType": "struct DelegationDelegatorReward[]",
          "name": "rewards",
          "type": "tuple[]"
        },
        {
          "components": [
            {
              "internalType": "string",
              "name": "denom",
              "type": "string"
            },
            {
              "internalType": "uint256",
              "name": "amount",
              "type": "uint256"
            },
            {
              "internalType": "uint8",
              "name": "precision",
              "type": "uint8"
            }
          ],
          "internalType": "struct DecCoin[]",
          "name": "total",
          "type": "tuple[]"
        }
      ],
      "stateMutability": "view",
      "type": "function"
    },
    {
      "inputs": [
        {
          "internalType": "address",
          "name": "_delAddr",
          "type": "address"
        }
      ],
      "name": "getDelegatorValidators",
      "outputs": [
        {
          "internalType": "string[]",
          "name": "",
          "type": "string[]"
        }
      ],
      "stateMutability": "view",
      "type": "function"
    },
    {
      "inputs": [
        {
          "internalType": "address",
          "name": "_delAddr",
          "type": "address"
        }
      ],
      "name": "getDelegatorWithdrawAddress",
      "outputs": [
        {
          "internalType": "string",
          "name": "",
          "type": "string"
        }
      ],
      "stateMutability": "view",
      "type": "function"
    },
    {
      "inputs": [
        {
          "internalType": "string",
          "name": "_valAddr",
          "type": "string"
        }
      ],
      "name": "getValidatorCommission",
      "outputs": [
        {
          "components": [
            {
              "internalType": "string",
              "name": "denom",
              "type": "string"
            },
            {
              "internalType": "uint256",
              "name": "amount",
              "type": "uint256"
            },
            {
              "internalType": "uint8",
              "name": "precision",
              "type": "uint8"
            }
          ],
          "internalType": "struct DecCoin[]",
          "name": "",
          "type": "tuple[]"
        }
      ],
      "stateMutability": "view",
      "type": "function"
    },
    {
      "inputs": [
        {
          "internalType": "string",
          "name": "_valAddr",
          "type": "string"
        }
      ],
      "name": "getValidatorDistributionInfo",
      "outputs": [
        {
          "components": [
            {
              "internalType": "string",
              "name": "operatorAddress",
              "type": "string"
            },
            {
              "components": [
                {
                  "internalType": "string",
                  "name": "denom",
                  "type": "string"
                },
                {
                  "internalType": "uint256",
                  "name": "amount",
                  "type": "uint256"
                },
                {
                  "internalType": "uint8",
                  "name": "precision",
                  "type": "uint8"
                }
              ],
              "internalType": "struct DecCoin[]",
              "name": "selfBondRewards",
              "type": "tuple[]"
            },
            {
              "components": [
                {
                  "internalType": "string",
                  "name": "denom",
                  "type": "string"
                },
                {
                  "internalType": "uint256",
                  "name": "amount",
                  "type": "uint256"
                },
                {
                  "internalType": "uint8",
                  "name": "precision",
                  "type": "uint8"
                }
              ],
              "internalType": "struct DecCoin[]",
              "name": "commission",
              "type": "tuple[]"
            }
          ],
          "internalType": "struct ValidatorDistributionInfo",
          "name": "",
          "type": "tuple"
        }
      ],
      "stateMutability": "view",
      "type": "function"
    },
    {
      "inputs": [
        {
          "internalType": "string",
          "name": "_valAddr",
          "type": "string"
        }
      ],
      "name": "getValidatorOutstandingRewards",
      "outputs": [
        {
          "components": [
            {
              "internalType": "string",
              "name": "denom",
              "type": "string"
            },
            {
              "internalType": "uint256",
              "name": "amount",
              "type": "uint256"
            },
            {
              "internalType": "uint8",
              "name": "precision",
              "type": "uint8"
            }
          ],
          "internalType": "struct DecCoin[]",
          "name": "",
          "type": "tuple[]"
        }
      ],
      "stateMutability": "view",
      "type": "function"
    },
    {
      "inputs": [
        {
          "internalType": "string",
          "name": "_valAddr",
          "type": "string"
        },
        {
          "internalType": "uint64",
          "name": "_startingHeight",
          "type": "uint64"
        },
        {
          "internalType": "uint64",
          "name": "_endingHeight",
          "type": "uint64"
        },
        {
          "components": [
            {
              "internalType": "bytes",
              "name": "key",
              "type": "bytes"
            },
            {
              "internalType": "uint64",
              "name": "offset",
              "type": "uint64"
            },
            {
              "internalType": "uint64",
              "name": "limit",
              "type": "uint64"
            },
            {
              "internalType": "bool",
              "name": "countTotal",
              "type": "bool"
            },
            {
              "internalType": "bool",
              "name": "reverse",
              "type": "bool"
            }
          ],
          "internalType": "struct PageRequest",
          "name": "pageRequest",
          "type": "tuple"
        }
      ],
      "name": "getValidatorSlashes",
      "outputs": [
        {
          "components": [
            {
              "internalType": "uint64",
              "name": "validatorPeriod",
              "type": "uint64"
            },
            {
              "components": [
                {
                  "internalType": "uint256",
                  "name": "value",
                  "type": "uint256"
                },
                {
                  "internalType": "uint8",
                  "name": "precision",
                  "type": "uint8"
                }
              ],
              "internalType": "struct Dec",
              "name": "fraction",
              "type": "tuple"
            }
          ],
          "internalType": "struct ValidatorSlashEvent[]",
          "name": "",
          "type": "tuple[]"
        },
        {
          "components": [
            {
              "internalType": "bytes",
              "name": "nextKey",
              "type": "bytes"
            },
            {
              "internalType": "uint64",
              "name": "total",
              "type": "uint64"
            }
          ],
          "internalType": "struct PageResponse",
          "name": "",
          "type": "tuple"
        }
      ],
      "stateMutability": "view",
      "type": "function"
    },
    {
      "inputs": [
        {
          "internalType": "address payable",
          "name": "_delAddr",
          "type": "address"
        },
        {
          "internalType": "address payable",
          "name": "_withdrawer",
          "type": "address"
        },
        {
          "internalType": "string",
          "name": "_valAddr",
          "type": "string"
        },
        {
          "internalType": "bool",
          "name": "_after",
          "type": "bool"
        }
      ],
      "name": "revertWithdrawRewardsAndTransfer",
      "outputs": [],
      "stateMutability": "nonpayable",
      "type": "function"
    },
    {
      "inputs": [
        {
          "internalType": "address",
          "name": "_delAddr",
          "type": "address"
        }
      ],
      "name": "staticCallGetWithdrawAddress",
      "outputs": [
        {
          "internalType": "bytes",
          "name": "",
          "type": "bytes"
        }
      ],
      "stateMutability": "view",
      "type": "function"
    },
    {
      "inputs": [
        {
          "internalType": "address",
          "name": "_delAddr",
          "type": "address"
        },
        {
          "internalType": "string",
          "name": "_withdrawAddr",
          "type": "string"
        }
      ],
      "name": "staticCallSetWithdrawAddress",
      "outputs": [],
      "stateMutability": "view",
      "type": "function"
    },
    {
      "inputs": [
        {
          "internalType": "address",
          "name": "_delAddr",
          "type": "address"
        },
        {
          "internalType": "uint32",
          "name": "_maxRetrieve",
          "type": "uint32"
        }
      ],
      "name": "testClaimRewards",
      "outputs": [
        {
          "internalType": "bool",
          "name": "success",
          "type": "bool"
        }
      ],
      "stateMutability": "nonpayable",
      "type": "function"
    },
    {
      "inputs": [
        {
          "internalType": "address payable",
          "name": "_delAddr",
          "type": "address"
        },
        {
          "internalType": "uint32",
          "name": "_maxRetrieve",
          "type": "uint32"
        },
        {
          "internalType": "bool",
          "name": "_before",
          "type": "bool"
        },
        {
          "internalType": "bool",
          "name": "_after",
          "type": "bool"
        }
      ],
      "name": "testClaimRewardsWithTransfer",
      "outputs": [],
      "stateMutability": "nonpayable",
      "type": "function"
    },
    {
      "inputs": [
        {
          "internalType": "string",
          "name": "_validatorAddr",
          "type": "string"
        },
        {
          "internalType": "uint256",
          "name": "_amount",
          "type": "uint256"
        }
      ],
      "name": "testDelegateFromContract",
      "outputs": [],
      "stateMutability": "nonpayable",
      "type": "function"
    },
    {
      "inputs": [
        {
          "internalType": "address",
          "name": "depositor",
          "type": "address"
        },
        {
          "components": [
            {
              "internalType": "string",
              "name": "denom",
              "type": "string"
            },
            {
              "internalType": "uint256",
              "name": "amount",
              "type": "uint256"
            }
          ],
          "internalType": "struct Coin[]",
          "name": "amount",
          "type": "tuple[]"
        }
      ],
      "name": "testFundCommunityPool",
      "outputs": [
        {
          "internalType": "bool",
          "name": "success",
          "type": "bool"
        }
      ],
      "stateMutability": "nonpayable",
      "type": "function"
    },
    {
      "inputs": [
        {
          "internalType": "address payable",
          "name": "depositor",
          "type": "address"
        },
        {
          "components": [
            {
              "internalType": "string",
              "name": "denom",
              "type": "string"
            },
            {
              "internalType": "uint256",
              "name": "amount",
              "type": "uint256"
            }
          ],
          "internalType": "struct Coin[]",
          "name": "amount",
          "type": "tuple[]"
        },
        {
          "internalType": "bool",
          "name": "_before",
          "type": "bool"
        },
        {
          "internalType": "bool",
          "name": "_after",
          "type": "bool"
        }
      ],
      "name": "testFundCommunityPoolWithTransfer",
      "outputs": [],
      "stateMutability": "nonpayable",
      "type": "function"
    },
    {
      "inputs": [
        {
          "internalType": "string",
          "name": "_withdrawAddr",
          "type": "string"
        },
        {
          "internalType": "address",
          "name": "_delAddr",
          "type": "address"
        },
        {
          "internalType": "string",
          "name": "_valAddr",
          "type": "string"
        }
      ],
      "name": "testRevertState",
      "outputs": [
        {
          "components": [
            {
              "internalType": "string",
              "name": "denom",
              "type": "string"
            },
            {
              "internalType": "uint256",
              "name": "amount",
              "type": "uint256"
            }
          ],
          "internalType": "struct Coin[]",
          "name": "",
          "type": "tuple[]"
        }
      ],
      "stateMutability": "nonpayable",
      "type": "function"
    },
    {
      "inputs": [
        {
          "internalType": "address",
          "name": "_delAddr",
          "type": "address"
        },
        {
          "internalType": "string",
          "name": "_withdrawAddr",
          "type": "string"
        }
      ],
      "name": "testSetWithdrawAddress",
      "outputs": [
        {
          "internalType": "bool",
          "name": "",
          "type": "bool"
        }
      ],
      "stateMutability": "nonpayable",
      "type": "function"
    },
    {
      "inputs": [
        {
          "internalType": "string",
          "name": "_withdrawAddr",
          "type": "string"
        }
      ],
      "name": "testSetWithdrawAddressFromContract",
      "outputs": [
        {
          "internalType": "bool",
          "name": "",
          "type": "bool"
        }
      ],
      "stateMutability": "nonpayable",
      "type": "function"
    },
    {
      "inputs": [
        {
          "internalType": "address",
          "name": "delegatorAddress",
          "type": "address"
        },
        {
          "internalType": "uint32",
          "name": "maxRetrieve",
          "type": "uint32"
        }
      ],
      "name": "testTryClaimRewards",
      "outputs": [
        {
          "internalType": "bool",
          "name": "",
          "type": "bool"
        }
      ],
      "stateMutability": "nonpayable",
      "type": "function"
    },
    {
      "inputs": [
        {
          "internalType": "address",
          "name": "_delAddr",
          "type": "address"
        },
        {
          "internalType": "string",
          "name": "_valAddr",
          "type": "string"
        }
      ],
      "name": "testWithdrawDelegatorReward",
      "outputs": [
        {
          "components": [
            {
              "internalType": "string",
              "name": "denom",
              "type": "string"
            },
            {
              "internalType": "uint256",
              "name": "amount",
              "type": "uint256"
            }
          ],
          "internalType": "struct Coin[]",
          "name": "",
          "type": "tuple[]"
        }
      ],
      "stateMutability": "nonpayable",
      "type": "function"
    },
    {
      "inputs": [
        {
          "internalType": "string",
          "name": "_valAddr",
          "type": "string"
        }
      ],
      "name": "testWithdrawDelegatorRewardFromContract",
      "outputs": [
        {
          "components": [
            {
              "internalType": "string",
              "name": "denom",
              "type": "string"
            },
            {
              "internalType": "uint256",
              "name": "amount",
              "type": "uint256"
            }
          ],
          "internalType": "struct Coin[]",
          "name": "",
          "type": "tuple[]"
        }
      ],
      "stateMutability": "nonpayable",
      "type": "function"
    },
    {
      "inputs": [
        {
          "internalType": "address payable",
          "name": "_delAddr",
          "type": "address"
        },
        {
          "internalType": "string",
          "name": "_valAddr",
          "type": "string"
        },
        {
          "internalType": "bool",
          "name": "_before",
          "type": "bool"
        },
        {
          "internalType": "bool",
          "name": "_after",
          "type": "bool"
        }
      ],
      "name": "testWithdrawDelegatorRewardWithTransfer",
      "outputs": [
        {
          "components": [
            {
              "internalType": "string",
              "name": "denom",
              "type": "string"
            },
            {
              "internalType": "uint256",
              "name": "amount",
              "type": "uint256"
            }
          ],
          "internalType": "struct Coin[]",
          "name": "coins",
          "type": "tuple[]"
        }
      ],
      "stateMutability": "nonpayable",
      "type": "function"
    },
    {
      "inputs": [
        {
          "internalType": "string",
          "name": "_valAddr",
          "type": "string"
        }
      ],
      "name": "testWithdrawValidatorCommission",
      "outputs": [
        {
          "components": [
            {
              "internalType": "string",
              "name": "denom",
              "type": "string"
            },
            {
              "internalType": "uint256",
              "name": "amount",
              "type": "uint256"
            }
          ],
          "internalType": "struct Coin[]",
          "name": "",
          "type": "tuple[]"
        }
      ],
      "stateMutability": "nonpayable",
      "type": "function"
    },
    {
      "inputs": [
        {
          "internalType": "string",
          "name": "_valAddr",
          "type": "string"
        },
        {
          "internalType": "address payable",
          "name": "_withdrawer",
          "type": "address"
        },
        {
          "internalType": "bool",
          "name": "_before",
          "type": "bool"
        },
        {
          "internalType": "bool",
          "name": "_after",
          "type": "bool"
        }
      ],
      "name": "testWithdrawValidatorCommissionWithTransfer",
      "outputs": [
        {
          "components": [
            {
              "internalType": "string",
              "name": "denom",
              "type": "string"
            },
            {
              "internalType": "uint256",
              "name": "amount",
              "type": "uint256"
            }
          ],
          "internalType": "struct Coin[]",
          "name": "coins",
          "type": "tuple[]"
        }
      ],
      "stateMutability": "nonpayable",
      "type": "function"
    },
    {
      "inputs": [
        {
          "internalType": "address",
          "name": "_delAddr",
          "type": "address"
        },
        {
          "internalType": "string",
          "name": "_valAddr",
          "type": "string"
        }
      ],
      "name": "withdrawDelegatorRewardsAndRevert",
      "outputs": [
        {
          "components": [
            {
              "internalType": "string",
              "name": "denom",
              "type": "string"
            },
            {
              "internalType": "uint256",
              "name": "amount",
              "type": "uint256"
            }
          ],
          "internalType": "struct Coin[]",
          "name": "coins",
          "type": "tuple[]"
        }
      ],
      "stateMutability": "nonpayable",
      "type": "function"
    }
  ],
  "bytecode": "0x6080604052604051806020016040528060405180606001604052806023815260200162004fe36023913981525060009060016200003e92919062000053565b503480156200004c57600080fd5b50620004a1565b828054828255906000526020600020908101928215620000a0579160200282015b828111156200009f5782518290816200008e9190620003ba565b509160200191906001019062000074565b5b509050620000af9190620000b3565b5090565b5b80821115620000d75760008181620000cd9190620000db565b50600101620000b4565b5090565b508054620000e990620001a9565b6000825580601f10620000fd57506200011e565b601f0160209004906000526020600020908101906200011d919062000121565b5b50565b5b808211156200013c57600081600090555060010162000122565b5090565b600081519050919050565b7f4e487b7100000000000000000000000000000000000000000000000000000000600052604160045260246000fd5b7f4e487b7100000000000000000000000000000000000000000000000000000000600052602260045260246000fd5b60006002820490506001821680620001c257607f821691505b602082108103620001d857620001d76200017a565b5b50919050565b60008190508160005260206000209050919050565b60006020601f8301049050919050565b600082821b905092915050565b600060088302620002427fffffffffffffffffffffffffffffffffffffffffffffffffffffffffffffffff8262000203565b6200024e868362000203565b95508019841693508086168417925050509392505050565b6000819050919050565b6000819050919050565b60006200029b620002956200028f8462000266565b62000270565b62000266565b9050919050565b6000819050919050565b620002b7836200027a565b620002cf620002c682620002a2565b84845462000210565b825550505050565b600090565b620002e6620002d7565b620002f3818484620002ac565b505050565b5b818110156200031b576200030f600082620002dc565b600181019050620002f9565b5050565b601f8211156200036a576200033481620001de565b6200033f84620001f3565b810160208510156200034f578190505b620003676200035e85620001f3565b830182620002f8565b50505b505050565b600082821c905092915050565b60006200038f600019846008026200036f565b1980831691505092915050565b6000620003aa83836200037c565b9150826002028217905092915050565b620003c58262000140565b67ffffffffffffffff811115620003e157620003e06200014b565b5b620003ed8254620001a9565b620003fa8282856200031f565b600060209050601f8311600181146200043257600084156200041d578287015190505b6200042985826200039c565b86555062000499565b601f1984166200044286620001de565b60005b828110156200046c5784890151825560018201915060208501945060208101905062000445565b868310156200048c578489015162000488601f8916826200037c565b8355505b6001600288020188555050505b505050505050565b614b3280620004b16000396000f3fe6080604052600436106101c25760003560e01c80637c9db0bb116100f7578063b6a216ae11610095578063dd987c2011610064578063dd987c2014610728578063e0421e3914610751578063e236c7a61461078e578063f9ed9b67146107cc576101c2565b8063b6a216ae14610667578063cb85aa0a146106a4578063d0e30db0146106e1578063d3f831be146106eb576101c2565b806393574cd1116100d157806393574cd114610573578063963516e4146105b0578063ad5c4cdd146105ed578063b2d178831461062a576101c2565b80637c9db0bb146104bb5780637e9a3556146104f857806388b2d58114610535576101c2565b806346e16d34116101645780636b7a547c1161013e5780636b7a547c146103db5780636f669da41461041857806378a5dfd114610455578063796b96d214610492576101c2565b806346e16d3414610336578063613d4de81461037357806361bc221a146103b0576101c2565b80630da84768116101a05780630da847681461026a5780631b050207146102a7578063201139a2146102d0578063296c60aa1461030d576101c2565b80630183e4b4146101c757806301b68000146101f05780630c05e9e41461022d575b600080fd5b3480156101d357600080fd5b506101ee60048036038101906101e99190612594565b6107f5565b005b3480156101fc57600080fd5b5061021760048036038101906102129190612639565b610b24565b60405161022491906126f6565b60405180910390f35b34801561023957600080fd5b50610254600480360381019061024f919061284d565b610c6c565b6040516102619190612a90565b60405180910390f35b34801561027657600080fd5b50610291600480360381019061028c9190612ab2565b610cfc565b60405161029e9190612c0d565b60405180910390f35b3480156102b357600080fd5b506102ce60048036038101906102c99190612c2f565b610d8b565b005b3480156102dc57600080fd5b506102f760048036038101906102f2919061284d565b610f12565b6040516103049190612c0d565b60405180910390f35b34801561031957600080fd5b50610334600480360381019061032f9190612ab2565b610fa0565b005b34801561034257600080fd5b5061035d60048036038101906103589190612ab2565b6110e1565b60405161036a9190612cc1565b60405180910390f35b34801561037f57600080fd5b5061039a60048036038101906103959190612cdc565b61116b565b6040516103a79190612c0d565b60405180910390f35b3480156103bc57600080fd5b506103c561145e565b6040516103d29190612d7b565b60405180910390f35b3480156103e757600080fd5b5061040260048036038101906103fd9190612f1e565b611471565b60405161040f9190612cc1565b60405180910390f35b34801561042457600080fd5b5061043f600480360381019061043a9190612f7a565b611589565b60405161044c9190612cc1565b60405180910390f35b34801561046157600080fd5b5061047c60048036038101906104779190612ab2565b611613565b6040516104899190613040565b60405180910390f35b34801561049e57600080fd5b506104b960048036038101906104b49190612ab2565b6116a0565b005b3480156104c757600080fd5b506104e260048036038101906104dd919061284d565b6117e1565b6040516104ef9190613040565b60405180910390f35b34801561050457600080fd5b5061051f600480360381019061051a9190613062565b61186b565b60405161052c9190612c0d565b60405180910390f35b34801561054157600080fd5b5061055c60048036038101906105579190613149565b611af8565b60405161056a92919061338b565b60405180910390f35b34801561057f57600080fd5b5061059a60048036038101906105959190612f7a565b611b96565b6040516105a79190612cc1565b60405180910390f35b3480156105bc57600080fd5b506105d760048036038101906105d2919061284d565b611c2e565b6040516105e49190612cc1565b60405180910390f35b3480156105f957600080fd5b50610614600480360381019061060f9190612ab2565b611cb7565b6040516106219190612c0d565b60405180910390f35b34801561063657600080fd5b50610651600480360381019061064c91906133c2565b611d43565b60405161065e9190612c0d565b60405180910390f35b34801561067357600080fd5b5061068e60048036038101906106899190612639565b611e98565b60405161069b919061350f565b60405180910390f35b3480156106b057600080fd5b506106cb60048036038101906106c69190612639565b611f22565b6040516106d8919061357b565b60405180910390f35b6106e9611fac565b005b3480156106f757600080fd5b50610712600480360381019061070d919061284d565b611fae565b60405161071f9190613040565b60405180910390f35b34801561073457600080fd5b5061074f600480360381019061074a919061359d565b612038565b005b34801561075d57600080fd5b506107786004803603810190610773919061284d565b6120bf565b6040516107859190612c0d565b60405180910390f35b34801561079a57600080fd5b506107b560048036038101906107b09190612639565b61214b565b6040516107c39291906136ff565b60405180910390f35b3480156107d857600080fd5b506107f360048036038101906107ee9190613736565b6121d8565b005b8115610927576001600081819054906101000a900460070b8092919061081a906137e8565b91906101000a81548167ffffffffffffffff021916908360070b67ffffffffffffffff160217905550503073ffffffffffffffffffffffffffffffffffffffff168473ffffffffffffffffffffffffffffffffffffffff16146109265760008473ffffffffffffffffffffffffffffffffffffffff16600f60405161089e90613849565b60006040518083038185875af1925050503d80600081146108db576040519150601f19603f3d011682016040523d82523d6000602084013e6108e0565b606091505b5050905080610924576040517f08c379a000000000000000000000000000000000000000000000000000000000815260040161091b906138d0565b60405180910390fd5b505b5b600061080173ffffffffffffffffffffffffffffffffffffffff16632efe8a5f86866040518363ffffffff1660e01b815260040161096692919061395e565b6020604051808303816000875af1158015610985573d6000803e3d6000fd5b505050506040513d601f19601f820116820180604052508101906109a9919061399c565b9050806109eb576040517f08c379a00000000000000000000000000000000000000000000000000000000081526004016109e290613a15565b60405180910390fd5b8115610b1d576001600081819054906101000a900460070b80929190610a10906137e8565b91906101000a81548167ffffffffffffffff021916908360070b67ffffffffffffffff160217905550503073ffffffffffffffffffffffffffffffffffffffff168573ffffffffffffffffffffffffffffffffffffffff1614610b1c5760008573ffffffffffffffffffffffffffffffffffffffff16600f604051610a9490613849565b60006040518083038185875af1925050503d8060008114610ad1576040519150601f19603f3d011682016040523d82523d6000602084013e610ad6565b606091505b5050905080610b1a576040517f08c379a0000000000000000000000000000000000000000000000000000000008152600401610b11906138d0565b60405180910390fd5b505b5b5050505050565b606060008061080173ffffffffffffffffffffffffffffffffffffffff1684604051602401610b539190613a44565b6040516020818303038152906040527f5431f450000000000000000000000000000000000000000000000000000000007bffffffffffffffffffffffffffffffffffffffffffffffffffffffff19166020820180517bffffffffffffffffffffffffffffffffffffffffffffffffffffffff8381831617835250505050604051610bdd9190613a90565b600060405180830381855afa9150503d8060008114610c18576040519150601f19603f3d011682016040523d82523d6000602084013e610c1d565b606091505b509150915081610c62576040517f08c379a0000000000000000000000000000000000000000000000000000000008152600401610c5990613af3565b60405180910390fd5b8092505050919050565b610c74612469565b61080173ffffffffffffffffffffffffffffffffffffffff166354212a89836040518263ffffffff1660e01b8152600401610caf919061357b565b600060405180830381865afa158015610ccc573d6000803e3d6000fd5b505050506040513d6000823e3d601f19601f82011682018060405250810190610cf59190613ddd565b9050919050565b606061080173ffffffffffffffffffffffffffffffffffffffff1663b46a8d6184846040518363ffffffff1660e01b8152600401610d3b929190613e26565b6000604051808303816000875af1158015610d5a573d6000803e3d6000fd5b505050506040513d6000823e3d601f19601f82011682018060405250810190610d839190613f77565b905092915050565b3073ffffffffffffffffffffffffffffffffffffffff1663ad5c4cdd85846040518363ffffffff1660e01b8152600401610dc6929190613fc0565b6000604051808303816000875af1925050508015610e0757506040513d6000823e3d601f19601f82011682018060405250810190610e049190613f77565b60015b15610e0e57505b8015610f0c576001600081819054906101000a900460070b80929190610e33906137e8565b91906101000a81548167ffffffffffffffff021916908360070b67ffffffffffffffff1602179055505060008373ffffffffffffffffffffffffffffffffffffffff16600f604051610e8490613849565b60006040518083038185875af1925050503d8060008114610ec1576040519150601f19603f3d011682016040523d82523d6000602084013e610ec6565b606091505b5050905080610f0a576040517f08c379a0000000000000000000000000000000000000000000000000000000008152600401610f01906138d0565b60405180910390fd5b505b50505050565b606061080173ffffffffffffffffffffffffffffffffffffffff1663b46a8d6130846040518363ffffffff1660e01b8152600401610f51929190613e26565b6000604051808303816000875af1158015610f70573d6000803e3d6000fd5b505050506040513d6000823e3d601f19601f82011682018060405250810190610f999190613f77565b9050919050565b600061080173ffffffffffffffffffffffffffffffffffffffff168383604051602401610fce929190613e26565b6040516020818303038152906040527f5a9d9a96000000000000000000000000000000000000000000000000000000007bffffffffffffffffffffffffffffffffffffffffffffffffffffffff19166020820180517bffffffffffffffffffffffffffffffffffffffffffffffffffffffff83818316178352505050506040516110589190613a90565b600060405180830381855af49150503d8060008114611093576040519150601f19603f3d011682016040523d82523d6000602084013e611098565b606091505b50509050806110dc576040517f08c379a00000000000000000000000000000000000000000000000000000000081526004016110d390614062565b60405180910390fd5b505050565b600061080173ffffffffffffffffffffffffffffffffffffffff16635a9d9a9684846040518363ffffffff1660e01b8152600401611120929190613e26565b6020604051808303816000875af115801561113f573d6000803e3d6000fd5b505050506040513d601f19601f82011682018060405250810190611163919061399c565b905092915050565b6060821561129f576001600081819054906101000a900460070b80929190611192906137e8565b91906101000a81548167ffffffffffffffff021916908360070b67ffffffffffffffff160217905550503073ffffffffffffffffffffffffffffffffffffffff168473ffffffffffffffffffffffffffffffffffffffff161461129e5760008473ffffffffffffffffffffffffffffffffffffffff16600f60405161121690613849565b60006040518083038185875af1925050503d8060008114611253576040519150601f19603f3d011682016040523d82523d6000602084013e611258565b606091505b505090508061129c576040517f08c379a0000000000000000000000000000000000000000000000000000000008152600401611293906138d0565b60405180910390fd5b505b5b61080173ffffffffffffffffffffffffffffffffffffffff16633ce4e3be866040518263ffffffff1660e01b81526004016112da919061357b565b6000604051808303816000875af11580156112f9573d6000803e3d6000fd5b505050506040513d6000823e3d601f19601f820116820180604052508101906113229190613f77565b90508115611456576001600081819054906101000a900460070b80929190611349906137e8565b91906101000a81548167ffffffffffffffff021916908360070b67ffffffffffffffff160217905550503073ffffffffffffffffffffffffffffffffffffffff168473ffffffffffffffffffffffffffffffffffffffff16146114555760008473ffffffffffffffffffffffffffffffffffffffff16600f6040516113cd90613849565b60006040518083038185875af1925050503d806000811461140a576040519150601f19603f3d011682016040523d82523d6000602084013e61140f565b606091505b5050905080611453576040517f08c379a000000000000000000000000000000000000000000000000000000000815260040161144a906138d0565b60405180910390fd5b505b5b949350505050565b600160009054906101000a900460070b81565b600060018060008282829054906101000a900460070b6114919190614082565b92506101000a81548167ffffffffffffffff021916908360070b67ffffffffffffffff16021790555061080173ffffffffffffffffffffffffffffffffffffffff16632d2b079c84846040518363ffffffff1660e01b81526004016114f79291906140e2565b6020604051808303816000875af1158015611516573d6000803e3d6000fd5b505050506040513d601f19601f8201168201806040525081019061153a919061399c565b905060018060008282829054906101000a900460070b61155a9190614112565b92506101000a81548167ffffffffffffffff021916908360070b67ffffffffffffffff16021790555092915050565b600061080173ffffffffffffffffffffffffffffffffffffffff16632efe8a5f84846040518363ffffffff1660e01b81526004016115c8929190614172565b6020604051808303816000875af11580156115e7573d6000803e3d6000fd5b505050506040513d601f19601f8201168201806040525081019061160b919061399c565b905092915050565b606061080173ffffffffffffffffffffffffffffffffffffffff16639ad563b484846040518363ffffffff1660e01b8152600401611652929190613e26565b600060405180830381865afa15801561166f573d6000803e3d6000fd5b505050506040513d6000823e3d601f19601f82011682018060405250810190611698919061419b565b905092915050565b600061080173ffffffffffffffffffffffffffffffffffffffff1683836040516024016116ce929190613e26565b6040516020818303038152906040527f5a9d9a96000000000000000000000000000000000000000000000000000000007bffffffffffffffffffffffffffffffffffffffffffffffffffffffff19166020820180517bffffffffffffffffffffffffffffffffffffffffffffffffffffffff83818316178352505050506040516117589190613a90565b600060405180830381855afa9150503d8060008114611793576040519150601f19603f3d011682016040523d82523d6000602084013e611798565b606091505b50509050806117dc576040517f08c379a00000000000000000000000000000000000000000000000000000000081526004016117d390613af3565b60405180910390fd5b505050565b606061080173ffffffffffffffffffffffffffffffffffffffff16633dd40f78836040518263ffffffff1660e01b815260040161181e919061357b565b600060405180830381865afa15801561183b573d6000803e3d6000fd5b505050506040513d6000823e3d601f19601f82011682018060405250810190611864919061419b565b9050919050565b6060821561196b576001600081819054906101000a900460070b80929190611892906137e8565b91906101000a81548167ffffffffffffffff021916908360070b67ffffffffffffffff1602179055505060008573ffffffffffffffffffffffffffffffffffffffff16600f6040516118e390613849565b60006040518083038185875af1925050503d8060008114611920576040519150601f19603f3d011682016040523d82523d6000602084013e611925565b606091505b5050905080611969576040517f08c379a0000000000000000000000000000000000000000000000000000000008152600401611960906138d0565b60405180910390fd5b505b61080173ffffffffffffffffffffffffffffffffffffffff1663b46a8d6186866040518363ffffffff1660e01b81526004016119a8929190613fc0565b6000604051808303816000875af11580156119c7573d6000803e3d6000fd5b505050506040513d6000823e3d601f19601f820116820180604052508101906119f09190613f77565b90508115611af0576001600081819054906101000a900460070b80929190611a17906137e8565b91906101000a81548167ffffffffffffffff021916908360070b67ffffffffffffffff1602179055505060008573ffffffffffffffffffffffffffffffffffffffff16600f604051611a6890613849565b60006040518083038185875af1925050503d8060008114611aa5576040519150601f19603f3d011682016040523d82523d6000602084013e611aaa565b606091505b5050905080611aee576040517f08c379a0000000000000000000000000000000000000000000000000000000008152600401611ae5906138d0565b60405180910390fd5b505b949350505050565b6060611b0261248a565b61080173ffffffffffffffffffffffffffffffffffffffff16638f2473ce878787876040518563ffffffff1660e01b8152600401611b43949392919061436f565b600060405180830381865afa158015611b60573d6000803e3d6000fd5b505050506040513d6000823e3d601f19601f82011682018060405250810190611b899190614647565b9150915094509492505050565b60008061080173ffffffffffffffffffffffffffffffffffffffff16632efe8a5f85856040518363ffffffff1660e01b8152600401611bd6929190614172565b6020604051808303816000875af1925050508015611c1257506040513d601f19601f82011682018060405250810190611c0f919061399c565b60015b611c1f5760009050611c24565b809150505b8091505092915050565b600061080173ffffffffffffffffffffffffffffffffffffffff16635a9d9a9630846040518363ffffffff1660e01b8152600401611c6d929190613e26565b6020604051808303816000875af1158015611c8c573d6000803e3d6000fd5b505050506040513d601f19601f82011682018060405250810190611cb0919061399c565b9050919050565b606061080173ffffffffffffffffffffffffffffffffffffffff1663b46a8d6184846040518363ffffffff1660e01b8152600401611cf6929190613e26565b6000604051808303816000875af1158015611d15573d6000803e3d6000fd5b505050506040513d6000823e3d601f19601f82011682018060405250810190611d3e9190613f77565b600080fd5b6060600061080173ffffffffffffffffffffffffffffffffffffffff16635a9d9a9633876040518363ffffffff1660e01b8152600401611d84929190613e26565b6020604051808303816000875af1158015611da3573d6000803e3d6000fd5b505050506040513d601f19601f82011682018060405250810190611dc7919061399c565b905080611e09576040517f08c379a0000000000000000000000000000000000000000000000000000000008152600401611e009061470b565b60405180910390fd5b61080173ffffffffffffffffffffffffffffffffffffffff1663b46a8d6185856040518363ffffffff1660e01b8152600401611e46929190613e26565b6000604051808303816000875af1158015611e65573d6000803e3d6000fd5b505050506040513d6000823e3d601f19601f82011682018060405250810190611e8e9190613f77565b9150509392505050565b606061080173ffffffffffffffffffffffffffffffffffffffff1663a66cb605836040518263ffffffff1660e01b8152600401611ed59190613a44565b600060405180830381865afa158015611ef2573d6000803e3d6000fd5b505050506040513d6000823e3d601f19601f82011682018060405250810190611f1b919061480c565b9050919050565b606061080173ffffffffffffffffffffffffffffffffffffffff16635431f450836040518263ffffffff1660e01b8152600401611f5f9190613a44565b600060405180830381865afa158015611f7c573d6000803e3d6000fd5b505050506040513d6000823e3d601f19601f82011682018060405250810190611fa59190614855565b9050919050565b565b606061080173ffffffffffffffffffffffffffffffffffffffff166385b2d2da836040518263ffffffff1660e01b8152600401611feb919061357b565b600060405180830381865afa158015612008573d6000803e3d6000fd5b505050506040513d6000823e3d601f19601f82011682018060405250810190612031919061419b565b9050919050565b61080073ffffffffffffffffffffffffffffffffffffffff166353266bbb3084846040518463ffffffff1660e01b8152600401612077939291906148ad565b6020604051808303816000875af1158015612096573d6000803e3d6000fd5b505050506040513d601f19601f820116820180604052508101906120ba919061399c565b505050565b606061080173ffffffffffffffffffffffffffffffffffffffff16633ce4e3be836040518263ffffffff1660e01b81526004016120fc919061357b565b6000604051808303816000875af115801561211b573d6000803e3d6000fd5b505050506040513d6000823e3d601f19601f820116820180604052508101906121449190613f77565b9050919050565b60608061080173ffffffffffffffffffffffffffffffffffffffff166354be1a28846040518263ffffffff1660e01b81526004016121899190613a44565b600060405180830381865afa1580156121a6573d6000803e3d6000fd5b505050506040513d6000823e3d601f19601f820116820180604052508101906121cf9190614a54565b91509150915091565b81156122d6576001600081819054906101000a900460070b809291906121fd906137e8565b91906101000a81548167ffffffffffffffff021916908360070b67ffffffffffffffff1602179055505060008473ffffffffffffffffffffffffffffffffffffffff16600f60405161224e90613849565b60006040518083038185875af1925050503d806000811461228b576040519150601f19603f3d011682016040523d82523d6000602084013e612290565b606091505b50509050806122d4576040517f08c379a00000000000000000000000000000000000000000000000000000000081526004016122cb906138d0565b60405180910390fd5b505b600061080173ffffffffffffffffffffffffffffffffffffffff16632d2b079c86866040518363ffffffff1660e01b8152600401612315929190614acc565b6020604051808303816000875af1158015612334573d6000803e3d6000fd5b505050506040513d601f19601f82011682018060405250810190612358919061399c565b90508061236457600080fd5b8115612462576001600081819054906101000a900460070b80929190612389906137e8565b91906101000a81548167ffffffffffffffff021916908360070b67ffffffffffffffff1602179055505060008573ffffffffffffffffffffffffffffffffffffffff16600f6040516123da90613849565b60006040518083038185875af1925050503d8060008114612417576040519150601f19603f3d011682016040523d82523d6000602084013e61241c565b606091505b5050905080612460576040517f08c379a0000000000000000000000000000000000000000000000000000000008152600401612457906138d0565b60405180910390fd5b505b5050505050565b60405180606001604052806060815260200160608152602001606081525090565b604051806040016040528060608152602001600067ffffffffffffffff1681525090565b6000604051905090565b600080fd5b600080fd5b600073ffffffffffffffffffffffffffffffffffffffff82169050919050565b60006124ed826124c2565b9050919050565b6124fd816124e2565b811461250857600080fd5b50565b60008135905061251a816124f4565b92915050565b600063ffffffff82169050919050565b61253981612520565b811461254457600080fd5b50565b60008135905061255681612530565b92915050565b60008115159050919050565b6125718161255c565b811461257c57600080fd5b50565b60008135905061258e81612568565b92915050565b600080600080608085870312156125ae576125ad6124b8565b5b60006125bc8782880161250b565b94505060206125cd87828801612547565b93505060406125de8782880161257f565b92505060606125ef8782880161257f565b91505092959194509250565b6000612606826124c2565b9050919050565b612616816125fb565b811461262157600080fd5b50565b6000813590506126338161260d565b92915050565b60006020828403121561264f5761264e6124b8565b5b600061265d84828501612624565b91505092915050565b600081519050919050565b600082825260208201905092915050565b60005b838110156126a0578082015181840152602081019050612685565b60008484015250505050565b6000601f19601f8301169050919050565b60006126c882612666565b6126d28185612671565b93506126e2818560208601612682565b6126eb816126ac565b840191505092915050565b6000602082019050818103600083015261271081846126bd565b905092915050565b600080fd5b600080fd5b7f4e487b7100000000000000000000000000000000000000000000000000000000600052604160045260246000fd5b61275a826126ac565b810181811067ffffffffffffffff8211171561277957612778612722565b5b80604052505050565b600061278c6124ae565b90506127988282612751565b919050565b600067ffffffffffffffff8211156127b8576127b7612722565b5b6127c1826126ac565b9050602081019050919050565b82818337600083830152505050565b60006127f06127eb8461279d565b612782565b90508281526020810184848401111561280c5761280b61271d565b5b6128178482856127ce565b509392505050565b600082601f83011261283457612833612718565b5b81356128448482602086016127dd565b91505092915050565b600060208284031215612863576128626124b8565b5b600082013567ffffffffffffffff811115612881576128806124bd565b5b61288d8482850161281f565b91505092915050565b600081519050919050565b600082825260208201905092915050565b60006128bd82612896565b6128c781856128a1565b93506128d7818560208601612682565b6128e0816126ac565b840191505092915050565b600081519050919050565b600082825260208201905092915050565b6000819050602082019050919050565b6000819050919050565b61292a81612917565b82525050565b600060ff82169050919050565b61294681612930565b82525050565b6000606083016000830151848203600086015261296982826128b2565b915050602083015161297e6020860182612921565b506040830151612991604086018261293d565b508091505092915050565b60006129a8838361294c565b905092915050565b6000602082019050919050565b60006129c8826128eb565b6129d281856128f6565b9350836020820285016129e485612907565b8060005b85811015612a205784840389528151612a01858261299c565b9450612a0c836129b0565b925060208a019950506001810190506129e8565b50829750879550505050505092915050565b60006060830160008301518482036000860152612a4f82826128b2565b91505060208301518482036020860152612a6982826129bd565b91505060408301518482036040860152612a8382826129bd565b9150508091505092915050565b60006020820190508181036000830152612aaa8184612a32565b905092915050565b60008060408385031215612ac957612ac86124b8565b5b6000612ad785828601612624565b925050602083013567ffffffffffffffff811115612af857612af76124bd565b5b612b048582860161281f565b9150509250929050565b600081519050919050565b600082825260208201905092915050565b6000819050602082019050919050565b60006040830160008301518482036000860152612b5782826128b2565b9150506020830151612b6c6020860182612921565b508091505092915050565b6000612b838383612b3a565b905092915050565b6000602082019050919050565b6000612ba382612b0e565b612bad8185612b19565b935083602082028501612bbf85612b2a565b8060005b85811015612bfb5784840389528151612bdc8582612b77565b9450612be783612b8b565b925060208a01995050600181019050612bc3565b50829750879550505050505092915050565b60006020820190508181036000830152612c278184612b98565b905092915050565b60008060008060808587031215612c4957612c486124b8565b5b6000612c578782880161250b565b9450506020612c688782880161250b565b935050604085013567ffffffffffffffff811115612c8957612c886124bd565b5b612c958782880161281f565b9250506060612ca68782880161257f565b91505092959194509250565b612cbb8161255c565b82525050565b6000602082019050612cd66000830184612cb2565b92915050565b60008060008060808587031215612cf657612cf56124b8565b5b600085013567ffffffffffffffff811115612d1457612d136124bd565b5b612d208782880161281f565b9450506020612d318782880161250b565b9350506040612d428782880161257f565b9250506060612d538782880161257f565b91505092959194509250565b60008160070b9050919050565b612d7581612d5f565b82525050565b6000602082019050612d906000830184612d6c565b92915050565b600067ffffffffffffffff821115612db157612db0612722565b5b602082029050602081019050919050565b600080fd5b600080fd5b600080fd5b612dda81612917565b8114612de557600080fd5b50565b600081359050612df781612dd1565b92915050565b600060408284031215612e1357612e12612dc7565b5b612e1d6040612782565b9050600082013567ffffffffffffffff811115612e3d57612e3c612dcc565b5b612e498482850161281f565b6000830152506020612e5d84828501612de8565b60208301525092915050565b6000612e7c612e7784612d96565b612782565b90508083825260208201905060208402830185811115612e9f57612e9e612dc2565b5b835b81811015612ee657803567ffffffffffffffff811115612ec457612ec3612718565b5b808601612ed18982612dfd565b85526020850194505050602081019050612ea1565b5050509392505050565b600082601f830112612f0557612f04612718565b5b8135612f15848260208601612e69565b91505092915050565b60008060408385031215612f3557612f346124b8565b5b6000612f4385828601612624565b925050602083013567ffffffffffffffff811115612f6457612f636124bd565b5b612f7085828601612ef0565b9150509250929050565b60008060408385031215612f9157612f906124b8565b5b6000612f9f85828601612624565b9250506020612fb085828601612547565b9150509250929050565b600082825260208201905092915050565b6000612fd6826128eb565b612fe08185612fba565b935083602082028501612ff285612907565b8060005b8581101561302e578484038952815161300f858261299c565b945061301a836129b0565b925060208a01995050600181019050612ff6565b50829750879550505050505092915050565b6000602082019050818103600083015261305a8184612fcb565b905092915050565b6000806000806080858703121561307c5761307b6124b8565b5b600061308a8782880161250b565b945050602085013567ffffffffffffffff8111156130ab576130aa6124bd565b5b6130b78782880161281f565b93505060406130c88782880161257f565b92505060606130d98782880161257f565b91505092959194509250565b600067ffffffffffffffff82169050919050565b613102816130e5565b811461310d57600080fd5b50565b60008135905061311f816130f9565b92915050565b600080fd5b600060a082840312156131405761313f613125565b5b81905092915050565b60008060008060808587031215613163576131626124b8565b5b600085013567ffffffffffffffff811115613181576131806124bd565b5b61318d8782880161281f565b945050602061319e87828801613110565b93505060406131af87828801613110565b925050606085013567ffffffffffffffff8111156131d0576131cf6124bd565b5b6131dc8782880161312a565b91505092959194509250565b600081519050919050565b600082825260208201905092915050565b6000819050602082019050919050565b61321d816130e5565b82525050565b6040820160008201516132396000850182612921565b50602082015161324c602085018261293d565b50505050565b6060820160008201516132686000850182613214565b50602082015161327b6020850182613223565b50505050565b600061328d8383613252565b60608301905092915050565b6000602082019050919050565b60006132b1826131e8565b6132bb81856131f3565b93506132c683613204565b8060005b838110156132f75781516132de8882613281565b97506132e983613299565b9250506001810190506132ca565b5085935050505092915050565b600082825260208201905092915050565b600061332082612666565b61332a8185613304565b935061333a818560208601612682565b613343816126ac565b840191505092915050565b6000604083016000830151848203600086015261336b8282613315565b91505060208301516133806020860182613214565b508091505092915050565b600060408201905081810360008301526133a581856132a6565b905081810360208301526133b9818461334e565b90509392505050565b6000806000606084860312156133db576133da6124b8565b5b600084013567ffffffffffffffff8111156133f9576133f86124bd565b5b6134058682870161281f565b935050602061341686828701612624565b925050604084013567ffffffffffffffff811115613437576134366124bd565b5b6134438682870161281f565b9150509250925092565b600081519050919050565b600082825260208201905092915050565b6000819050602082019050919050565b600061348583836128b2565b905092915050565b6000602082019050919050565b60006134a58261344d565b6134af8185613458565b9350836020820285016134c185613469565b8060005b858110156134fd57848403895281516134de8582613479565b94506134e98361348d565b925060208a019950506001810190506134c5565b50829750879550505050505092915050565b60006020820190508181036000830152613529818461349a565b905092915050565b600082825260208201905092915050565b600061354d82612896565b6135578185613531565b9350613567818560208601612682565b613570816126ac565b840191505092915050565b600060208201905081810360008301526135958184613542565b905092915050565b600080604083850312156135b4576135b36124b8565b5b600083013567ffffffffffffffff8111156135d2576135d16124bd565b5b6135de8582860161281f565b92505060206135ef85828601612de8565b9150509250929050565b600081519050919050565b600082825260208201905092915050565b6000819050602082019050919050565b6000604083016000830151848203600086015261364282826128b2565b9150506020830151848203602086015261365c82826129bd565b9150508091505092915050565b60006136758383613625565b905092915050565b6000602082019050919050565b6000613695826135f9565b61369f8185613604565b9350836020820285016136b185613615565b8060005b858110156136ed57848403895281516136ce8582613669565b94506136d98361367d565b925060208a019950506001810190506136b5565b50829750879550505050505092915050565b60006040820190508181036000830152613719818561368a565b9050818103602083015261372d8184612fcb565b90509392505050565b600080600080608085870312156137505761374f6124b8565b5b600061375e8782880161250b565b945050602085013567ffffffffffffffff81111561377f5761377e6124bd565b5b61378b87828801612ef0565b935050604061379c8782880161257f565b92505060606137ad8782880161257f565b91505092959194509250565b7f4e487b7100000000000000000000000000000000000000000000000000000000600052601160045260246000fd5b60006137f382612d5f565b9150677fffffffffffffff820361380d5761380c6137b9565b5b600182019050919050565b600081905092915050565b50565b6000613833600083613818565b915061383e82613823565b600082019050919050565b600061385482613826565b9150819050919050565b7f4661696c656420746f2073656e6420457468657220746f2064656c656761746f60008201527f7200000000000000000000000000000000000000000000000000000000000000602082015250565b60006138ba602183613531565b91506138c58261385e565b604082019050919050565b600060208201905081810360008301526138e9816138ad565b9050919050565b6000819050919050565b600061391561391061390b846124c2565b6138f0565b6124c2565b9050919050565b6000613927826138fa565b9050919050565b60006139398261391c565b9050919050565b6139498161392e565b82525050565b61395881612520565b82525050565b60006040820190506139736000830185613940565b613980602083018461394f565b9392505050565b60008151905061399681612568565b92915050565b6000602082840312156139b2576139b16124b8565b5b60006139c084828501613987565b91505092915050565b7f6661696c656420746f20636c61696d2072657761726473000000000000000000600082015250565b60006139ff601783613531565b9150613a0a826139c9565b602082019050919050565b60006020820190508181036000830152613a2e816139f2565b9050919050565b613a3e816125fb565b82525050565b6000602082019050613a596000830184613a35565b92915050565b6000613a6a82612666565b613a748185613818565b9350613a84818560208601612682565b80840191505092915050565b6000613a9c8284613a5f565b915081905092915050565b7f6661696c65642073746174696343616c6c20746f20707265636f6d70696c6500600082015250565b6000613add601f83613531565b9150613ae882613aa7565b602082019050919050565b60006020820190508181036000830152613b0c81613ad0565b9050919050565b6000613b26613b218461279d565b612782565b905082815260208101848484011115613b4257613b4161271d565b5b613b4d848285612682565b509392505050565b600082601f830112613b6a57613b69612718565b5b8151613b7a848260208601613b13565b91505092915050565b600067ffffffffffffffff821115613b9e57613b9d612722565b5b602082029050602081019050919050565b600081519050613bbe81612dd1565b92915050565b613bcd81612930565b8114613bd857600080fd5b50565b600081519050613bea81613bc4565b92915050565b600060608284031215613c0657613c05612dc7565b5b613c106060612782565b9050600082015167ffffffffffffffff811115613c3057613c2f612dcc565b5b613c3c84828501613b55565b6000830152506020613c5084828501613baf565b6020830152506040613c6484828501613bdb565b60408301525092915050565b6000613c83613c7e84613b83565b612782565b90508083825260208201905060208402830185811115613ca657613ca5612dc2565b5b835b81811015613ced57805167ffffffffffffffff811115613ccb57613cca612718565b5b808601613cd88982613bf0565b85526020850194505050602081019050613ca8565b5050509392505050565b600082601f830112613d0c57613d0b612718565b5b8151613d1c848260208601613c70565b91505092915050565b600060608284031215613d3b57613d3a612dc7565b5b613d456060612782565b9050600082015167ffffffffffffffff811115613d6557613d64612dcc565b5b613d7184828501613b55565b600083015250602082015167ffffffffffffffff811115613d9557613d94612dcc565b5b613da184828501613cf7565b602083015250604082015167ffffffffffffffff811115613dc557613dc4612dcc565b5b613dd184828501613cf7565b60408301525092915050565b600060208284031215613df357613df26124b8565b5b600082015167ffffffffffffffff811115613e1157613e106124bd565b5b613e1d84828501613d25565b91505092915050565b6000604082019050613e3b6000830185613a35565b8181036020830152613e4d8184613542565b90509392505050565b600060408284031215613e6c57613e6b612dc7565b5b613e766040612782565b9050600082015167ffffffffffffffff811115613e9657613e95612dcc565b5b613ea284828501613b55565b6000830152506020613eb684828501613baf565b60208301525092915050565b6000613ed5613ed084612d96565b612782565b90508083825260208201905060208402830185811115613ef857613ef7612dc2565b5b835b81811015613f3f57805167ffffffffffffffff811115613f1d57613f1c612718565b5b808601613f2a8982613e56565b85526020850194505050602081019050613efa565b5050509392505050565b600082601f830112613f5e57613f5d612718565b5b8151613f6e848260208601613ec2565b91505092915050565b600060208284031215613f8d57613f8c6124b8565b5b600082015167ffffffffffffffff811115613fab57613faa6124bd565b5b613fb784828501613f49565b91505092915050565b6000604082019050613fd56000830185613940565b8181036020830152613fe78184613542565b90509392505050565b7f6661696c65642064656c656761746543616c6c20746f20707265636f6d70696c60008201527f6500000000000000000000000000000000000000000000000000000000000000602082015250565b600061404c602183613531565b915061405782613ff0565b604082019050919050565b6000602082019050818103600083015261407b8161403f565b9050919050565b600061408d82612d5f565b915061409883612d5f565b925082820190507fffffffffffffffffffffffffffffffffffffffffffffffff80000000000000008112677fffffffffffffff821317156140dc576140db6137b9565b5b92915050565b60006040820190506140f76000830185613a35565b81810360208301526141098184612b98565b90509392505050565b600061411d82612d5f565b915061412883612d5f565b92508282039050677fffffffffffffff81137fffffffffffffffffffffffffffffffffffffffffffffffff80000000000000008212171561416c5761416b6137b9565b5b92915050565b60006040820190506141876000830185613a35565b614194602083018461394f565b9392505050565b6000602082840312156141b1576141b06124b8565b5b600082015167ffffffffffffffff8111156141cf576141ce6124bd565b5b6141db84828501613cf7565b91505092915050565b6141ed816130e5565b82525050565b600080fd5b600080fd5b600080fd5b6000808335600160200384360303811261421f5761421e6141fd565b5b83810192508235915060208301925067ffffffffffffffff821115614247576142466141f3565b5b60018202360383131561425d5761425c6141f8565b5b509250929050565b60006142718385613304565b935061427e8385846127ce565b614287836126ac565b840190509392505050565b60006142a16020840184613110565b905092915050565b60006142b8602084018461257f565b905092915050565b6142c98161255c565b82525050565b600060a083016142e26000840184614202565b85830360008701526142f5838284614265565b925050506143066020840184614292565b6143136020860182613214565b506143216040840184614292565b61432e6040860182613214565b5061433c60608401846142a9565b61434960608601826142c0565b5061435760808401846142a9565b61436460808601826142c0565b508091505092915050565b600060808201905081810360008301526143898187613542565b905061439860208301866141e4565b6143a560408301856141e4565b81810360608301526143b781846142cf565b905095945050505050565b600067ffffffffffffffff8211156143dd576143dc612722565b5b602082029050602081019050919050565b6000815190506143fd816130f9565b92915050565b60006040828403121561441957614418612dc7565b5b6144236040612782565b9050600061443384828501613baf565b600083015250602061444784828501613bdb565b60208301525092915050565b60006060828403121561446957614468612dc7565b5b6144736040612782565b90506000614483848285016143ee565b600083015250602061449784828501614403565b60208301525092915050565b60006144b66144b1846143c2565b612782565b905080838252602082019050606084028301858111156144d9576144d8612dc2565b5b835b8181101561450257806144ee8882614453565b8452602084019350506060810190506144db565b5050509392505050565b600082601f83011261452157614520612718565b5b81516145318482602086016144a3565b91505092915050565b600067ffffffffffffffff82111561455557614554612722565b5b61455e826126ac565b9050602081019050919050565b600061457e6145798461453a565b612782565b90508281526020810184848401111561459a5761459961271d565b5b6145a5848285612682565b509392505050565b600082601f8301126145c2576145c1612718565b5b81516145d284826020860161456b565b91505092915050565b6000604082840312156145f1576145f0612dc7565b5b6145fb6040612782565b9050600082015167ffffffffffffffff81111561461b5761461a612dcc565b5b614627848285016145ad565b600083015250602061463b848285016143ee565b60208301525092915050565b6000806040838503121561465e5761465d6124b8565b5b600083015167ffffffffffffffff81111561467c5761467b6124bd565b5b6146888582860161450c565b925050602083015167ffffffffffffffff8111156146a9576146a86124bd565b5b6146b5858286016145db565b9150509250929050565b7f6661696c656420746f2073657420776974686472617720616464726573730000600082015250565b60006146f5601e83613531565b9150614700826146bf565b602082019050919050565b60006020820190508181036000830152614724816146e8565b9050919050565b600067ffffffffffffffff82111561474657614745612722565b5b602082029050602081019050919050565b600061476a6147658461472b565b612782565b9050808382526020820190506020840283018581111561478d5761478c612dc2565b5b835b818110156147d457805167ffffffffffffffff8111156147b2576147b1612718565b5b8086016147bf8982613b55565b8552602085019450505060208101905061478f565b5050509392505050565b600082601f8301126147f3576147f2612718565b5b8151614803848260208601614757565b91505092915050565b600060208284031215614822576148216124b8565b5b600082015167ffffffffffffffff8111156148405761483f6124bd565b5b61484c848285016147de565b91505092915050565b60006020828403121561486b5761486a6124b8565b5b600082015167ffffffffffffffff811115614889576148886124bd565b5b61489584828501613b55565b91505092915050565b6148a781612917565b82525050565b60006060820190506148c26000830186613a35565b81810360208301526148d48185613542565b90506148e3604083018461489e565b949350505050565b600067ffffffffffffffff82111561490657614905612722565b5b602082029050602081019050919050565b60006040828403121561492d5761492c612dc7565b5b6149376040612782565b9050600082015167ffffffffffffffff81111561495757614956612dcc565b5b61496384828501613b55565b600083015250602082015167ffffffffffffffff81111561498757614986612dcc565b5b61499384828501613cf7565b60208301525092915050565b60006149b26149ad846148eb565b612782565b905080838252602082019050602084028301858111156149d5576149d4612dc2565b5b835b81811015614a1c57805167ffffffffffffffff8111156149fa576149f9612718565b5b808601614a078982614917565b855260208501945050506020810190506149d7565b5050509392505050565b600082601f830112614a3b57614a3a612718565b5b8151614a4b84826020860161499f565b91505092915050565b60008060408385031215614a6b57614a6a6124b8565b5b600083015167ffffffffffffffff811115614a8957614a886124bd565b5b614a9585828601614a26565b925050602083015167ffffffffffffffff811115614ab657614ab56124bd565b5b614ac285828601613cf7565b9150509250929050565b6000604082019050614ae16000830185613940565b8181036020830152614af38184612b98565b9050939250505056fea26469706673582212207d8ff11a66b4aaf7d757597ca00ddc94f7706c91a35a2b768b81b185d32d78e864736f6c634300081400332f636f736d6f732e7374616b696e672e763162657461312e4d736744656c6567617465",
  "linkReferences": {},
  "deployedLinkReferences": {}
}