{
  "_format": "hh-sol-artifact-1",
  "contractName": "FlashLoan",
  "sourceName": "solidity/precompiles/testutil/contracts/FlashLoan.sol",
  "abi": [
    {
      "inputs": [],
      "stateMutability": "nonpayable",
      "type": "constructor"
    },
    {
      "inputs": [
        {
          "internalType": "address",
          "name": "_delegator",
          "type": "address"
        },
        {
          "internalType": "string",
          "name": "_validator",
          "type": "string"
        },
        {
          "internalType": "uint256",
          "name": "_amount",
          "type": "uint256"
        }
      ],
      "name": "delegateWithRevert",
      "outputs": [],
      "stateMutability": "nonpayable",
      "type": "function"
    },
    {
      "inputs": [
        {
          "internalType": "address",
          "name": "_token",
          "type": "address"
        },
        {
          "internalType": "string",
          "name": "_validator",
          "type": "string"
        }
      ],
      "name": "flashLoan",
      "outputs": [
        {
          "internalType": "bool",
          "name": "",
          "type": "bool"
        }
      ],
      "stateMutability": "payable",
      "type": "function"
    },
    {
      "inputs": [
        {
          "internalType": "address",
          "name": "_token",
          "type": "address"
        },
        {
          "internalType": "string",
          "name": "_validator",
          "type": "string"
        }
      ],
      "name": "flashLoanWithRevert",
      "outputs": [
        {
          "internalType": "bool",
          "name": "",
          "type": "bool"
        }
      ],
      "stateMutability": "payable",
      "type": "function"
    },
    {
      "inputs": [],
      "name": "owner",
      "outputs": [
        {
          "internalType": "address",
          "name": "",
          "type": "address"
        }
      ],
      "stateMutability": "view",
      "type": "function"
    }
  ],
  "bytecode": "0x608060405234801561001057600080fd5b50336000806101000a81548173ffffffffffffffffffffffffffffffffffffffff021916908373ffffffffffffffffffffffffffffffffffffffff16021790555061145d806100606000396000f3fe60806040526004361061003f5760003560e01c80638da5cb5b146100445780638f5184301461006f5780639b4f21a914610098578063b8621924146100c8575b600080fd5b34801561005057600080fd5b506100596100f8565b6040516100669190610bf4565b60405180910390f35b34801561007b57600080fd5b5061009660048036038101906100919190610dcb565b61011c565b005b6100b260048036038101906100ad9190610e3a565b6101e7565b6040516100bf9190610eb1565b60405180910390f35b6100e260048036038101906100dd9190610e3a565b6105bf565b6040516100ef9190610eb1565b60405180910390f35b60008054906101000a900473ffffffffffffffffffffffffffffffffffffffff1681565b600061080073ffffffffffffffffffffffffffffffffffffffff166353266bbb8585856040518463ffffffff1660e01b815260040161015d93929190610f5a565b6020604051808303816000875af115801561017c573d6000803e3d6000fd5b505050506040513d601f19601f820116820180604052508101906101a09190610fc4565b9050806101e2576040517f08c379a00000000000000000000000000000000000000000000000000000000081526004016101d99061103d565b60405180910390fd5b600080fd5b60008060009054906101000a900473ffffffffffffffffffffffffffffffffffffffff1673ffffffffffffffffffffffffffffffffffffffff163373ffffffffffffffffffffffffffffffffffffffff1614610278576040517f08c379a000000000000000000000000000000000000000000000000000000000815260040161026f906110cf565b60405180910390fd5b60003490506000849050818173ffffffffffffffffffffffffffffffffffffffff1663dd62ed3e33306040518363ffffffff1660e01b81526004016102be9291906110ef565b602060405180830381865afa1580156102db573d6000803e3d6000fd5b505050506040513d601f19601f820116820180604052508101906102ff919061112d565b1015610340576040517f08c379a0000000000000000000000000000000000000000000000000000000008152600401610337906111a6565b60405180910390fd5b60008173ffffffffffffffffffffffffffffffffffffffff166370a08231306040518263ffffffff1660e01b815260040161037b9190610bf4565b602060405180830381865afa158015610398573d6000803e3d6000fd5b505050506040513d601f19601f820116820180604052508101906103bc919061112d565b905060008273ffffffffffffffffffffffffffffffffffffffff166323b872dd3330876040518463ffffffff1660e01b81526004016103fd939291906111c6565b6020604051808303816000875af115801561041c573d6000803e3d6000fd5b505050506040513d601f19601f820116820180604052508101906104409190610fc4565b905080610482576040517f08c379a00000000000000000000000000000000000000000000000000000000081526004016104799061126f565b60405180910390fd5b838261048e91906112be565b8373ffffffffffffffffffffffffffffffffffffffff166370a08231306040518263ffffffff1660e01b81526004016104c79190610bf4565b602060405180830381865afa1580156104e4573d6000803e3d6000fd5b505050506040513d601f19601f82011682018060405250810190610508919061112d565b14610548576040517f08c379a000000000000000000000000000000000000000000000000000000000815260040161053f9061133e565b60405180910390fd5b3073ffffffffffffffffffffffffffffffffffffffff16638f5184303088876040518463ffffffff1660e01b815260040161058593929190610f5a565b600060405180830381600087803b15801561059f57600080fd5b505af19250505080156105b0575060015b50600194505050505092915050565b60008060009054906101000a900473ffffffffffffffffffffffffffffffffffffffff1673ffffffffffffffffffffffffffffffffffffffff163373ffffffffffffffffffffffffffffffffffffffff1614610650576040517f08c379a0000000000000000000000000000000000000000000000000000000008152600401610647906110cf565b60405180910390fd5b60003490506000849050818173ffffffffffffffffffffffffffffffffffffffff1663dd62ed3e33306040518363ffffffff1660e01b81526004016106969291906110ef565b602060405180830381865afa1580156106b3573d6000803e3d6000fd5b505050506040513d601f19601f820116820180604052508101906106d7919061112d565b1015610718576040517f08c379a000000000000000000000000000000000000000000000000000000000815260040161070f906111a6565b60405180910390fd5b60008173ffffffffffffffffffffffffffffffffffffffff166370a08231306040518263ffffffff1660e01b81526004016107539190610bf4565b602060405180830381865afa158015610770573d6000803e3d6000fd5b505050506040513d601f19601f82011682018060405250810190610794919061112d565b905060008273ffffffffffffffffffffffffffffffffffffffff166323b872dd3330876040518463ffffffff1660e01b81526004016107d5939291906111c6565b6020604051808303816000875af11580156107f4573d6000803e3d6000fd5b505050506040513d601f19601f820116820180604052508101906108189190610fc4565b90508061085a576040517f08c379a00000000000000000000000000000000000000000000000000000000081526004016108519061126f565b60405180910390fd5b838261086691906112be565b8373ffffffffffffffffffffffffffffffffffffffff166370a08231306040518263ffffffff1660e01b815260040161089f9190610bf4565b602060405180830381865afa1580156108bc573d6000803e3d6000fd5b505050506040513d601f19601f820116820180604052508101906108e0919061112d565b14610920576040517f08c379a00000000000000000000000000000000000000000000000000000000081526004016109179061133e565b60405180910390fd5b61080073ffffffffffffffffffffffffffffffffffffffff166353266bbb3088876040518463ffffffff1660e01b815260040161095f93929190610f5a565b6020604051808303816000875af115801561097e573d6000803e3d6000fd5b505050506040513d601f19601f820116820180604052508101906109a29190610fc4565b9050806109e4576040517f08c379a00000000000000000000000000000000000000000000000000000000081526004016109db9061103d565b60405180910390fd5b8273ffffffffffffffffffffffffffffffffffffffff166370a08231306040518263ffffffff1660e01b8152600401610a1d9190610bf4565b602060405180830381865afa158015610a3a573d6000803e3d6000fd5b505050506040513d601f19601f82011682018060405250810190610a5e919061112d565b91508273ffffffffffffffffffffffffffffffffffffffff1663a9059cbb33866040518363ffffffff1660e01b8152600401610a9b92919061135e565b6020604051808303816000875af1158015610aba573d6000803e3d6000fd5b505050506040513d601f19601f82011682018060405250810190610ade9190610fc4565b508382610aeb9190611387565b8373ffffffffffffffffffffffffffffffffffffffff166370a08231306040518263ffffffff1660e01b8152600401610b249190610bf4565b602060405180830381865afa158015610b41573d6000803e3d6000fd5b505050506040513d601f19601f82011682018060405250810190610b65919061112d565b14610ba5576040517f08c379a0000000000000000000000000000000000000000000000000000000008152600401610b9c90611407565b60405180910390fd5b600194505050505092915050565b600073ffffffffffffffffffffffffffffffffffffffff82169050919050565b6000610bde82610bb3565b9050919050565b610bee81610bd3565b82525050565b6000602082019050610c096000830184610be5565b92915050565b6000604051905090565b600080fd5b600080fd5b610c2c81610bd3565b8114610c3757600080fd5b50565b600081359050610c4981610c23565b92915050565b600080fd5b600080fd5b6000601f19601f8301169050919050565b7f4e487b7100000000000000000000000000000000000000000000000000000000600052604160045260246000fd5b610ca282610c59565b810181811067ffffffffffffffff82111715610cc157610cc0610c6a565b5b80604052505050565b6000610cd4610c0f565b9050610ce08282610c99565b919050565b600067ffffffffffffffff821115610d0057610cff610c6a565b5b610d0982610c59565b9050602081019050919050565b82818337600083830152505050565b6000610d38610d3384610ce5565b610cca565b905082815260208101848484011115610d5457610d53610c54565b5b610d5f848285610d16565b509392505050565b600082601f830112610d7c57610d7b610c4f565b5b8135610d8c848260208601610d25565b91505092915050565b6000819050919050565b610da881610d95565b8114610db357600080fd5b50565b600081359050610dc581610d9f565b92915050565b600080600060608486031215610de457610de3610c19565b5b6000610df286828701610c3a565b935050602084013567ffffffffffffffff811115610e1357610e12610c1e565b5b610e1f86828701610d67565b9250506040610e3086828701610db6565b9150509250925092565b60008060408385031215610e5157610e50610c19565b5b6000610e5f85828601610c3a565b925050602083013567ffffffffffffffff811115610e8057610e7f610c1e565b5b610e8c85828601610d67565b9150509250929050565b60008115159050919050565b610eab81610e96565b82525050565b6000602082019050610ec66000830184610ea2565b92915050565b600081519050919050565b600082825260208201905092915050565b60005b83811015610f06578082015181840152602081019050610eeb565b60008484015250505050565b6000610f1d82610ecc565b610f278185610ed7565b9350610f37818560208601610ee8565b610f4081610c59565b840191505092915050565b610f5481610d95565b82525050565b6000606082019050610f6f6000830186610be5565b8181036020830152610f818185610f12565b9050610f906040830184610f4b565b949350505050565b610fa181610e96565b8114610fac57600080fd5b50565b600081519050610fbe81610f98565b92915050565b600060208284031215610fda57610fd9610c19565b5b6000610fe884828501610faf565b91505092915050565b7f6661696c656420746f2064656c65676174650000000000000000000000000000600082015250565b6000611027601283610ed7565b915061103282610ff1565b602082019050919050565b600060208201905081810360008301526110568161101a565b9050919050565b7f4f6e6c79206f776e65722063616e2063616c6c20746869732066756e6374696f60008201527f6e00000000000000000000000000000000000000000000000000000000000000602082015250565b60006110b9602183610ed7565b91506110c48261105d565b604082019050919050565b600060208201905081810360008301526110e8816110ac565b9050919050565b60006040820190506111046000830185610be5565b6111116020830184610be5565b9392505050565b60008151905061112781610d9f565b92915050565b60006020828403121561114357611142610c19565b5b600061115184828501611118565b91505092915050565b7f496e73756666696369656e7420616c6c6f77616e636500000000000000000000600082015250565b6000611190601683610ed7565b915061119b8261115a565b602082019050919050565b600060208201905081810360008301526111bf81611183565b9050919050565b60006060820190506111db6000830186610be5565b6111e86020830185610be5565b6111f56040830184610f4b565b949350505050565b7f4661696c656420746f207472616e7366657220746f6b656e7320666f7220666c60008201527f617368206c6f616e000000000000000000000000000000000000000000000000602082015250565b6000611259602883610ed7565b9150611264826111fd565b604082019050919050565b600060208201905081810360008301526112888161124c565b9050919050565b7f4e487b7100000000000000000000000000000000000000000000000000000000600052601160045260246000fd5b60006112c982610d95565b91506112d483610d95565b92508282019050808211156112ec576112eb61128f565b5b92915050565b7f466c617368206c6f616e206661696c6564000000000000000000000000000000600082015250565b6000611328601183610ed7565b9150611333826112f2565b602082019050919050565b600060208201905081810360008301526113578161131b565b9050919050565b60006040820190506113736000830185610be5565b6113806020830184610f4b565b9392505050565b600061139282610d95565b915061139d83610d95565b92508282039050818111156113b5576113b461128f565b5b92915050565b7f466c617368206c6f616e2072657061796d656e74206661696c65640000000000600082015250565b60006113f1601b83610ed7565b91506113fc826113bb565b602082019050919050565b60006020820190508181036000830152611420816113e4565b905091905056fea2646970667358221220b85319a4c6c59c5c0a89c077d70e72859c68e456df7e4e6a1e65ed2d4eadbcb664736f6c63430008140033",
  "linkReferences": {},
  "deployedLinkReferences": {}
}