{
  "_format": "hh-sol-artifact-1",
  "contractName": "GovCaller",
  "sourceName": "solidity/precompiles/testutil/contracts/GovCaller.sol",
  "abi": [
    {
      "inputs": [],
      "name": "counter",
      "outputs": [
        {
          "internalType": "int64",
          "name": "",
          "type": "int64"
        }
      ],
      "stateMutability": "view",
      "type": "function"
    },
    {
      "inputs": [],
      "name": "deposit",
      "outputs": [],
      "stateMutability": "payable",
      "type": "function"
    },
    {
      "inputs": [],
      "name": "getParams",
      "outputs": [
        {
          "components": [
            {
              "internalType": "int64",
              "name": "votingPeriod",
              "type": "int64"
            },
            {
              "components": [
                {
                  "internalType": "string",
                  "name": "denom",
                  "type": "string"
                },
                {
                  "internalType": "uint256",
                  "name": "amount",
                  "type": "uint256"
                }
              ],
              "internalType": "struct Coin[]",
              "name": "minDeposit",
              "type": "tuple[]"
            },
            {
              "internalType": "int64",
              "name": "maxDepositPeriod",
              "type": "int64"
            },
            {
              "internalType": "string",
              "name": "quorum",
              "type": "string"
            },
            {
              "internalType": "string",
              "name": "threshold",
              "type": "string"
            },
            {
              "internalType": "string",
              "name": "vetoThreshold",
              "type": "string"
            },
            {
              "internalType": "string",
              "name": "minInitialDepositRatio",
              "type": "string"
            },
            {
              "internalType": "string",
              "name": "proposalCancelRatio",
              "type": "string"
            },
            {
              "internalType": "string",
              "name": "proposalCancelDest",
              "type": "string"
            },
            {
              "internalType": "int64",
              "name": "expeditedVotingPeriod",
              "type": "int64"
            },
            {
              "internalType": "string",
              "name": "expeditedThreshold",
              "type": "string"
            },
            {
              "components": [
                {
                  "internalType": "string",
                  "name": "denom",
                  "type": "string"
                },
                {
                  "internalType": "uint256",
                  "name": "amount",
                  "type": "uint256"
                }
              ],
              "internalType": "struct Coin[]",
              "name": "expeditedMinDeposit",
              "type": "tuple[]"
            },
            {
              "internalType": "bool",
              "name": "burnVoteQuorum",
              "type": "bool"
            },
            {
              "internalType": "bool",
              "name": "burnProposalDepositPrevote",
              "type": "bool"
            },
            {
              "internalType": "bool",
              "name": "burnVoteVeto",
              "type": "bool"
            },
            {
              "internalType": "string",
              "name": "minDepositRatio",
              "type": "string"
            }
          ],
          "internalType": "struct Params",
          "name": "params",
          "type": "tuple"
        }
      ],
      "stateMutability": "view",
      "type": "function"
    },
    {
      "inputs": [
        {
          "internalType": "address payable",
          "name": "_randomAddr",
          "type": "address"
        },
        {
          "internalType": "uint64",
          "name": "_proposalId",
          "type": "uint64"
        },
        {
          "internalType": "bool",
          "name": "_before",
          "type": "bool"
        },
        {
          "internalType": "bool",
          "name": "_after",
          "type": "bool"
        }
      ],
      "name": "testCancelFromContractWithTransfer",
      "outputs": [
        {
          "internalType": "bool",
          "name": "success",
          "type": "bool"
        }
      ],
      "stateMutability": "payable",
      "type": "function"
    },
    {
      "inputs": [
        {
          "internalType": "uint64",
          "name": "_proposalId",
          "type": "uint64"
        }
      ],
      "name": "testCancelProposalFromContract",
      "outputs": [
        {
          "internalType": "bool",
          "name": "success",
          "type": "bool"
        }
      ],
      "stateMutability": "payable",
      "type": "function"
    },
    {
      "inputs": [
        {
          "internalType": "uint64",
          "name": "_proposalId",
          "type": "uint64"
        },
        {
          "internalType": "bool",
          "name": "_before",
          "type": "bool"
        },
        {
          "internalType": "bool",
          "name": "_after",
          "type": "bool"
        }
      ],
      "name": "testCancelWithTransfer",
      "outputs": [
        {
          "internalType": "bool",
          "name": "success",
          "type": "bool"
        }
      ],
      "stateMutability": "payable",
      "type": "function"
    },
    {
      "inputs": [
        {
          "internalType": "address payable",
          "name": "_depositorAddr",
          "type": "address"
        },
        {
          "internalType": "uint64",
          "name": "_proposalId",
          "type": "uint64"
        },
        {
          "components": [
            {
              "internalType": "string",
              "name": "denom",
              "type": "string"
            },
            {
              "internalType": "uint256",
              "name": "amount",
              "type": "uint256"
            }
          ],
          "internalType": "struct Coin[]",
          "name": "_deposit",
          "type": "tuple[]"
        }
      ],
      "name": "testDeposit",
      "outputs": [
        {
          "internalType": "bool",
          "name": "success",
          "type": "bool"
        }
      ],
      "stateMutability": "payable",
      "type": "function"
    },
    {
      "inputs": [
        {
          "internalType": "uint64",
          "name": "_proposalId",
          "type": "uint64"
        },
        {
          "components": [
            {
              "internalType": "string",
              "name": "denom",
              "type": "string"
            },
            {
              "internalType": "uint256",
              "name": "amount",
              "type": "uint256"
            }
          ],
          "internalType": "struct Coin[]",
          "name": "_deposit",
          "type": "tuple[]"
        }
      ],
      "name": "testDepositFromContract",
      "outputs": [
        {
          "internalType": "bool",
          "name": "success",
          "type": "bool"
        }
      ],
      "stateMutability": "payable",
      "type": "function"
    },
    {
      "inputs": [
        {
          "internalType": "address payable",
          "name": "_randomAddr",
          "type": "address"
        },
        {
          "internalType": "uint64",
          "name": "_proposalId",
          "type": "uint64"
        },
        {
          "components": [
            {
              "internalType": "string",
              "name": "denom",
              "type": "string"
            },
            {
              "internalType": "uint256",
              "name": "amount",
              "type": "uint256"
            }
          ],
          "internalType": "struct Coin[]",
          "name": "_deposit",
          "type": "tuple[]"
        },
        {
          "internalType": "bool",
          "name": "_before",
          "type": "bool"
        },
        {
          "internalType": "bool",
          "name": "_after",
          "type": "bool"
        }
      ],
      "name": "testDepositFromContractWithTransfer",
      "outputs": [
        {
          "internalType": "bool",
          "name": "success",
          "type": "bool"
        }
      ],
      "stateMutability": "payable",
      "type": "function"
    },
    {
      "inputs": [
        {
          "internalType": "uint64",
          "name": "_proposalId",
          "type": "uint64"
        },
        {
          "components": [
            {
              "internalType": "string",
              "name": "denom",
              "type": "string"
            },
            {
              "internalType": "uint256",
              "name": "amount",
              "type": "uint256"
            }
          ],
          "internalType": "struct Coin[]",
          "name": "_deposit",
          "type": "tuple[]"
        },
        {
          "internalType": "bool",
          "name": "_before",
          "type": "bool"
        },
        {
          "internalType": "bool",
          "name": "_after",
          "type": "bool"
        }
      ],
      "name": "testDepositWithTransfer",
      "outputs": [
        {
          "internalType": "bool",
          "name": "success",
          "type": "bool"
        }
      ],
      "stateMutability": "payable",
      "type": "function"
    },
    {
      "inputs": [
        {
          "internalType": "address",
          "name": "_proposerAddr",
          "type": "address"
        },
        {
          "internalType": "bytes",
          "name": "_jsonProposal",
          "type": "bytes"
        },
        {
          "components": [
            {
              "internalType": "string",
              "name": "denom",
              "type": "string"
            },
            {
              "internalType": "uint256",
              "name": "amount",
              "type": "uint256"
            }
          ],
          "internalType": "struct Coin[]",
          "name": "_deposit",
          "type": "tuple[]"
        }
      ],
      "name": "testSubmitProposal",
      "outputs": [
        {
          "internalType": "uint64",
          "name": "proposalId",
          "type": "uint64"
        }
      ],
      "stateMutability": "payable",
      "type": "function"
    },
    {
      "inputs": [
        {
          "internalType": "bytes",
          "name": "_jsonProposal",
          "type": "bytes"
        },
        {
          "components": [
            {
              "internalType": "string",
              "name": "denom",
              "type": "string"
            },
            {
              "internalType": "uint256",
              "name": "amount",
              "type": "uint256"
            }
          ],
          "internalType": "struct Coin[]",
          "name": "_deposit",
          "type": "tuple[]"
        }
      ],
      "name": "testSubmitProposalFromContract",
      "outputs": [
        {
          "internalType": "uint64",
          "name": "proposalId",
          "type": "uint64"
        }
      ],
      "stateMutability": "payable",
      "type": "function"
    },
    {
      "inputs": [
        {
          "internalType": "address payable",
          "name": "_randomAddr",
          "type": "address"
        },
        {
          "internalType": "bytes",
          "name": "_jsonProposal",
          "type": "bytes"
        },
        {
          "components": [
            {
              "internalType": "string",
              "name": "denom",
              "type": "string"
            },
            {
              "internalType": "uint256",
              "name": "amount",
              "type": "uint256"
            }
          ],
          "internalType": "struct Coin[]",
          "name": "_deposit",
          "type": "tuple[]"
        },
        {
          "internalType": "bool",
          "name": "_before",
          "type": "bool"
        },
        {
          "internalType": "bool",
          "name": "_after",
          "type": "bool"
        }
      ],
      "name": "testSubmitProposalFromContractWithTransfer",
      "outputs": [
        {
          "internalType": "uint64",
          "name": "",
          "type": "uint64"
        }
      ],
      "stateMutability": "payable",
      "type": "function"
    },
    {
      "inputs": [
        {
          "internalType": "bytes",
          "name": "_jsonProposal",
          "type": "bytes"
        },
        {
          "components": [
            {
              "internalType": "string",
              "name": "denom",
              "type": "string"
            },
            {
              "internalType": "uint256",
              "name": "amount",
              "type": "uint256"
            }
          ],
          "internalType": "struct Coin[]",
          "name": "_deposit",
          "type": "tuple[]"
        },
        {
          "internalType": "bool",
          "name": "_before",
          "type": "bool"
        },
        {
          "internalType": "bool",
          "name": "_after",
          "type": "bool"
        }
      ],
      "name": "testSubmitProposalWithTransfer",
      "outputs": [
        {
          "internalType": "uint64",
          "name": "",
          "type": "uint64"
        }
      ],
      "stateMutability": "payable",
      "type": "function"
    }
  ],
  "bytecode": "0x608060405234801561001057600080fd5b50612cf5806100206000396000f3fe6080604052600436106100dd5760003560e01c80638e7431d31161007f578063bc7bdf7511610059578063bc7bdf75146102b8578063d0e30db0146102e8578063e8702c34146102f2578063ed6c08f714610322576100dd565b80638e7431d31461022857806391d6d8e71461025857806397fd84d214610288576100dd565b806361bc221a116100bb57806361bc221a1461016d57806361f09ad21461019857806372ff5ec4146101c85780637726ece0146101f8576100dd565b8063258691e2146100e257806326c11ffa146101125780635e615a6b14610142575b600080fd5b6100fc60048036038101906100f79190611776565b610352565b60405161010991906117ec565b60405180910390f35b61012c60048036038101906101279190611807565b6105d8565b60405161013991906117ec565b60405180910390f35b34801561014e57600080fd5b5061015761085d565b6040516101649190611bc4565b60405180910390f35b34801561017957600080fd5b506101826108e0565b60405161018f9190611bf5565b60405180910390f35b6101b260048036038101906101ad9190611ccb565b6108f1565b6040516101bf9190611d5b565b60405180910390f35b6101e260048036038101906101dd9190611d76565b610983565b6040516101ef91906117ec565b60405180910390f35b610212600480360381019061020d9190611dfe565b610c0e565b60405161021f9190611d5b565b60405180910390f35b610242600480360381019061023d9190611eba565b610ea3565b60405161024f91906117ec565b60405180910390f35b610272600480360381019061026d9190611f2e565b610f33565b60405161027f9190611d5b565b60405180910390f35b6102a2600480360381019061029d9190611fd5565b6111c7565b6040516102af91906117ec565b60405180910390f35b6102d260048036038101906102cd9190612002565b611250565b6040516102df91906117ec565b60405180910390f35b6102f06112df565b005b61030c600480360381019061030791906120a0565b6112e1565b6040516103199190611d5b565b60405180910390f35b61033c60048036038101906103379190612135565b611374565b60405161034991906117ec565b60405180910390f35b600082156104515760008081819054906101000a900460070b80929190610378906121fe565b91906101000a81548167ffffffffffffffff021916908360070b67ffffffffffffffff1602179055505060008573ffffffffffffffffffffffffffffffffffffffff16600f6040516103c99061225f565b60006040518083038185875af1925050503d8060008114610406576040519150601f19603f3d011682016040523d82523d6000602084013e61040b565b606091505b505090508061044f576040517f08c379a0000000000000000000000000000000000000000000000000000000008152600401610446906122d1565b60405180910390fd5b505b61080573ffffffffffffffffffffffffffffffffffffffff1663a33e308630866040518363ffffffff1660e01b815260040161048e929190612300565b6020604051808303816000875af11580156104ad573d6000803e3d6000fd5b505050506040513d601f19601f820116820180604052508101906104d1919061233e565b905081156105d05760008081819054906101000a900460070b809291906104f7906121fe565b91906101000a81548167ffffffffffffffff021916908360070b67ffffffffffffffff1602179055505060008573ffffffffffffffffffffffffffffffffffffffff16600f6040516105489061225f565b60006040518083038185875af1925050503d8060008114610585576040519150601f19603f3d011682016040523d82523d6000602084013e61058a565b606091505b50509050806105ce576040517f08c379a00000000000000000000000000000000000000000000000000000000081526004016105c5906122d1565b60405180910390fd5b505b949350505050565b600082156106d75760008081819054906101000a900460070b809291906105fe906121fe565b91906101000a81548167ffffffffffffffff021916908360070b67ffffffffffffffff1602179055505060003373ffffffffffffffffffffffffffffffffffffffff16600f60405161064f9061225f565b60006040518083038185875af1925050503d806000811461068c576040519150601f19603f3d011682016040523d82523d6000602084013e610691565b606091505b50509050806106d5576040517f08c379a00000000000000000000000000000000000000000000000000000000081526004016106cc906122d1565b60405180910390fd5b505b61080573ffffffffffffffffffffffffffffffffffffffff1663a33e308630866040518363ffffffff1660e01b8152600401610714929190612300565b6020604051808303816000875af1158015610733573d6000803e3d6000fd5b505050506040513d601f19601f82011682018060405250810190610757919061233e565b905081156108565760008081819054906101000a900460070b8092919061077d906121fe565b91906101000a81548167ffffffffffffffff021916908360070b67ffffffffffffffff1602179055505060003373ffffffffffffffffffffffffffffffffffffffff16600f6040516107ce9061225f565b60006040518083038185875af1925050503d806000811461080b576040519150601f19603f3d011682016040523d82523d6000602084013e610810565b606091505b5050905080610854576040517f08c379a000000000000000000000000000000000000000000000000000000000815260040161084b906122d1565b60405180910390fd5b505b9392505050565b610865611600565b61080573ffffffffffffffffffffffffffffffffffffffff16635e615a6b6040518163ffffffff1660e01b8152600401600060405180830381865afa1580156108b2573d6000803e3d6000fd5b505050506040513d6000823e3d601f19601f820116820180604052508101906108db91906128cd565b905090565b60008054906101000a900460070b81565b600061080573ffffffffffffffffffffffffffffffffffffffff1663a8fdc91930878787876040518663ffffffff1660e01b8152600401610936959493929190612b55565b6020604051808303816000875af1158015610955573d6000803e3d6000fd5b505050506040513d601f19601f820116820180604052508101906109799190612bb3565b9050949350505050565b60008215610a825760008081819054906101000a900460070b809291906109a9906121fe565b91906101000a81548167ffffffffffffffff021916908360070b67ffffffffffffffff1602179055505060003373ffffffffffffffffffffffffffffffffffffffff16600f6040516109fa9061225f565b60006040518083038185875af1925050503d8060008114610a37576040519150601f19603f3d011682016040523d82523d6000602084013e610a3c565b606091505b5050905080610a80576040517f08c379a0000000000000000000000000000000000000000000000000000000008152600401610a77906122d1565b60405180910390fd5b505b61080573ffffffffffffffffffffffffffffffffffffffff1663b24b0376308888886040518563ffffffff1660e01b8152600401610ac39493929190612be0565b6020604051808303816000875af1158015610ae2573d6000803e3d6000fd5b505050506040513d601f19601f82011682018060405250810190610b06919061233e565b90508115610c055760008081819054906101000a900460070b80929190610b2c906121fe565b91906101000a81548167ffffffffffffffff021916908360070b67ffffffffffffffff1602179055505060003373ffffffffffffffffffffffffffffffffffffffff16600f604051610b7d9061225f565b60006040518083038185875af1925050503d8060008114610bba576040519150601f19603f3d011682016040523d82523d6000602084013e610bbf565b606091505b5050905080610c03576040517f08c379a0000000000000000000000000000000000000000000000000000000008152600401610bfa906122d1565b60405180910390fd5b505b95945050505050565b60008215610d0d5760008081819054906101000a900460070b80929190610c34906121fe565b91906101000a81548167ffffffffffffffff021916908360070b67ffffffffffffffff1602179055505060008873ffffffffffffffffffffffffffffffffffffffff16600f604051610c859061225f565b60006040518083038185875af1925050503d8060008114610cc2576040519150601f19603f3d011682016040523d82523d6000602084013e610cc7565b606091505b5050905080610d0b576040517f08c379a0000000000000000000000000000000000000000000000000000000008152600401610d02906122d1565b60405180910390fd5b505b600061080573ffffffffffffffffffffffffffffffffffffffff1663a8fdc919308a8a8a8a6040518663ffffffff1660e01b8152600401610d52959493929190612b55565b6020604051808303816000875af1158015610d71573d6000803e3d6000fd5b505050506040513d601f19601f82011682018060405250810190610d959190612bb3565b90508215610e945760008081819054906101000a900460070b80929190610dbb906121fe565b91906101000a81548167ffffffffffffffff021916908360070b67ffffffffffffffff1602179055505060008973ffffffffffffffffffffffffffffffffffffffff16600f604051610e0c9061225f565b60006040518083038185875af1925050503d8060008114610e49576040519150601f19603f3d011682016040523d82523d6000602084013e610e4e565b606091505b5050905080610e92576040517f08c379a0000000000000000000000000000000000000000000000000000000008152600401610e89906122d1565b60405180910390fd5b505b80915050979650505050505050565b600061080573ffffffffffffffffffffffffffffffffffffffff1663b24b0376868686866040518563ffffffff1660e01b8152600401610ee69493929190612c7f565b6020604051808303816000875af1158015610f05573d6000803e3d6000fd5b505050506040513d601f19601f82011682018060405250810190610f29919061233e565b9050949350505050565b600082156110325760008081819054906101000a900460070b80929190610f59906121fe565b91906101000a81548167ffffffffffffffff021916908360070b67ffffffffffffffff1602179055505060003373ffffffffffffffffffffffffffffffffffffffff16600f604051610faa9061225f565b60006040518083038185875af1925050503d8060008114610fe7576040519150601f19603f3d011682016040523d82523d6000602084013e610fec565b606091505b5050905080611030576040517f08c379a0000000000000000000000000000000000000000000000000000000008152600401611027906122d1565b60405180910390fd5b505b600061080573ffffffffffffffffffffffffffffffffffffffff1663a8fdc919308a8a8a8a6040518663ffffffff1660e01b8152600401611077959493929190612b55565b6020604051808303816000875af1158015611096573d6000803e3d6000fd5b505050506040513d601f19601f820116820180604052508101906110ba9190612bb3565b905082156111b95760008081819054906101000a900460070b809291906110e0906121fe565b91906101000a81548167ffffffffffffffff021916908360070b67ffffffffffffffff1602179055505060003373ffffffffffffffffffffffffffffffffffffffff16600f6040516111319061225f565b60006040518083038185875af1925050503d806000811461116e576040519150601f19603f3d011682016040523d82523d6000602084013e611173565b606091505b50509050806111b7576040517f08c379a00000000000000000000000000000000000000000000000000000000081526004016111ae906122d1565b60405180910390fd5b505b809150509695505050505050565b600061080573ffffffffffffffffffffffffffffffffffffffff1663a33e308630846040518363ffffffff1660e01b8152600401611206929190612300565b6020604051808303816000875af1158015611225573d6000803e3d6000fd5b505050506040513d601f19601f82011682018060405250810190611249919061233e565b9050919050565b600061080573ffffffffffffffffffffffffffffffffffffffff1663b24b0376308686866040518563ffffffff1660e01b81526004016112939493929190612be0565b6020604051808303816000875af11580156112b2573d6000803e3d6000fd5b505050506040513d601f19601f820116820180604052508101906112d6919061233e565b90509392505050565b565b600061080573ffffffffffffffffffffffffffffffffffffffff1663a8fdc91987878787876040518663ffffffff1660e01b8152600401611326959493929190612b55565b6020604051808303816000875af1158015611345573d6000803e3d6000fd5b505050506040513d601f19601f820116820180604052508101906113699190612bb3565b905095945050505050565b600082156114735760008081819054906101000a900460070b8092919061139a906121fe565b91906101000a81548167ffffffffffffffff021916908360070b67ffffffffffffffff1602179055505060008773ffffffffffffffffffffffffffffffffffffffff16600f6040516113eb9061225f565b60006040518083038185875af1925050503d8060008114611428576040519150601f19603f3d011682016040523d82523d6000602084013e61142d565b606091505b5050905080611471576040517f08c379a0000000000000000000000000000000000000000000000000000000008152600401611468906122d1565b60405180910390fd5b505b61080573ffffffffffffffffffffffffffffffffffffffff1663b24b0376308888886040518563ffffffff1660e01b81526004016114b49493929190612be0565b6020604051808303816000875af11580156114d3573d6000803e3d6000fd5b505050506040513d601f19601f820116820180604052508101906114f7919061233e565b905081156115f65760008081819054906101000a900460070b8092919061151d906121fe565b91906101000a81548167ffffffffffffffff021916908360070b67ffffffffffffffff1602179055505060008773ffffffffffffffffffffffffffffffffffffffff16600f60405161156e9061225f565b60006040518083038185875af1925050503d80600081146115ab576040519150601f19603f3d011682016040523d82523d6000602084013e6115b0565b606091505b50509050806115f4576040517f08c379a00000000000000000000000000000000000000000000000000000000081526004016115eb906122d1565b60405180910390fd5b505b9695505050505050565b604051806102000160405280600060070b815260200160608152602001600060070b8152602001606081526020016060815260200160608152602001606081526020016060815260200160608152602001600060070b81526020016060815260200160608152602001600015158152602001600015158152602001600015158152602001606081525090565b6000604051905090565b600080fd5b600080fd5b600073ffffffffffffffffffffffffffffffffffffffff82169050919050565b60006116cb826116a0565b9050919050565b6116db816116c0565b81146116e657600080fd5b50565b6000813590506116f8816116d2565b92915050565b600067ffffffffffffffff82169050919050565b61171b816116fe565b811461172657600080fd5b50565b60008135905061173881611712565b92915050565b60008115159050919050565b6117538161173e565b811461175e57600080fd5b50565b6000813590506117708161174a565b92915050565b600080600080608085870312156117905761178f611696565b5b600061179e878288016116e9565b94505060206117af87828801611729565b93505060406117c087828801611761565b92505060606117d187828801611761565b91505092959194509250565b6117e68161173e565b82525050565b600060208201905061180160008301846117dd565b92915050565b6000806000606084860312156118205761181f611696565b5b600061182e86828701611729565b935050602061183f86828701611761565b925050604061185086828701611761565b9150509250925092565b60008160070b9050919050565b6118708161185a565b82525050565b600081519050919050565b600082825260208201905092915050565b6000819050602082019050919050565b600081519050919050565b600082825260208201905092915050565b60005b838110156118dc5780820151818401526020810190506118c1565b60008484015250505050565b6000601f19601f8301169050919050565b6000611904826118a2565b61190e81856118ad565b935061191e8185602086016118be565b611927816118e8565b840191505092915050565b6000819050919050565b61194581611932565b82525050565b6000604083016000830151848203600086015261196882826118f9565b915050602083015161197d602086018261193c565b508091505092915050565b6000611994838361194b565b905092915050565b6000602082019050919050565b60006119b482611876565b6119be8185611881565b9350836020820285016119d085611892565b8060005b85811015611a0c57848403895281516119ed8582611988565b94506119f88361199c565b925060208a019950506001810190506119d4565b50829750879550505050505092915050565b611a278161173e565b82525050565b600061020083016000830151611a466000860182611867565b5060208301518482036020860152611a5e82826119a9565b9150506040830151611a736040860182611867565b5060608301518482036060860152611a8b82826118f9565b91505060808301518482036080860152611aa582826118f9565b91505060a083015184820360a0860152611abf82826118f9565b91505060c083015184820360c0860152611ad982826118f9565b91505060e083015184820360e0860152611af382826118f9565b915050610100830151848203610100860152611b0f82826118f9565b915050610120830151611b26610120860182611867565b50610140830151848203610140860152611b4082826118f9565b915050610160830151848203610160860152611b5c82826119a9565b915050610180830151611b73610180860182611a1e565b506101a0830151611b886101a0860182611a1e565b506101c0830151611b9d6101c0860182611a1e565b506101e08301518482036101e0860152611bb782826118f9565b9150508091505092915050565b60006020820190508181036000830152611bde8184611a2d565b905092915050565b611bef8161185a565b82525050565b6000602082019050611c0a6000830184611be6565b92915050565b600080fd5b600080fd5b600080fd5b60008083601f840112611c3557611c34611c10565b5b8235905067ffffffffffffffff811115611c5257611c51611c15565b5b602083019150836001820283011115611c6e57611c6d611c1a565b5b9250929050565b60008083601f840112611c8b57611c8a611c10565b5b8235905067ffffffffffffffff811115611ca857611ca7611c15565b5b602083019150836020820283011115611cc457611cc3611c1a565b5b9250929050565b60008060008060408587031215611ce557611ce4611696565b5b600085013567ffffffffffffffff811115611d0357611d0261169b565b5b611d0f87828801611c1f565b9450945050602085013567ffffffffffffffff811115611d3257611d3161169b565b5b611d3e87828801611c75565b925092505092959194509250565b611d55816116fe565b82525050565b6000602082019050611d706000830184611d4c565b92915050565b600080600080600060808688031215611d9257611d91611696565b5b6000611da088828901611729565b955050602086013567ffffffffffffffff811115611dc157611dc061169b565b5b611dcd88828901611c75565b94509450506040611de088828901611761565b9250506060611df188828901611761565b9150509295509295909350565b600080600080600080600060a0888a031215611e1d57611e1c611696565b5b6000611e2b8a828b016116e9565b975050602088013567ffffffffffffffff811115611e4c57611e4b61169b565b5b611e588a828b01611c1f565b9650965050604088013567ffffffffffffffff811115611e7b57611e7a61169b565b5b611e878a828b01611c75565b94509450506060611e9a8a828b01611761565b9250506080611eab8a828b01611761565b91505092959891949750929550565b60008060008060608587031215611ed457611ed3611696565b5b6000611ee2878288016116e9565b9450506020611ef387828801611729565b935050604085013567ffffffffffffffff811115611f1457611f1361169b565b5b611f2087828801611c75565b925092505092959194509250565b60008060008060008060808789031215611f4b57611f4a611696565b5b600087013567ffffffffffffffff811115611f6957611f6861169b565b5b611f7589828a01611c1f565b9650965050602087013567ffffffffffffffff811115611f9857611f9761169b565b5b611fa489828a01611c75565b94509450506040611fb789828a01611761565b9250506060611fc889828a01611761565b9150509295509295509295565b600060208284031215611feb57611fea611696565b5b6000611ff984828501611729565b91505092915050565b60008060006040848603121561201b5761201a611696565b5b600061202986828701611729565b935050602084013567ffffffffffffffff81111561204a5761204961169b565b5b61205686828701611c75565b92509250509250925092565b600061206d826116a0565b9050919050565b61207d81612062565b811461208857600080fd5b50565b60008135905061209a81612074565b92915050565b6000806000806000606086880312156120bc576120bb611696565b5b60006120ca8882890161208b565b955050602086013567ffffffffffffffff8111156120eb576120ea61169b565b5b6120f788828901611c1f565b9450945050604086013567ffffffffffffffff81111561211a5761211961169b565b5b61212688828901611c75565b92509250509295509295909350565b60008060008060008060a0878903121561215257612151611696565b5b600061216089828a016116e9565b965050602061217189828a01611729565b955050604087013567ffffffffffffffff8111156121925761219161169b565b5b61219e89828a01611c75565b945094505060606121b189828a01611761565b92505060806121c289828a01611761565b9150509295509295509295565b7f4e487b7100000000000000000000000000000000000000000000000000000000600052601160045260246000fd5b60006122098261185a565b9150677fffffffffffffff8203612223576122226121cf565b5b600182019050919050565b600081905092915050565b50565b600061224960008361222e565b915061225482612239565b600082019050919050565b600061226a8261223c565b9150819050919050565b600082825260208201905092915050565b7f4661696c656420746f2073656e6420457468657220746f2070726f706f736572600082015250565b60006122bb602083612274565b91506122c682612285565b602082019050919050565b600060208201905081810360008301526122ea816122ae565b9050919050565b6122fa81612062565b82525050565b600060408201905061231560008301856122f1565b6123226020830184611d4c565b9392505050565b6000815190506123388161174a565b92915050565b60006020828403121561235457612353611696565b5b600061236284828501612329565b91505092915050565b600080fd5b7f4e487b7100000000000000000000000000000000000000000000000000000000600052604160045260246000fd5b6123a8826118e8565b810181811067ffffffffffffffff821117156123c7576123c6612370565b5b80604052505050565b60006123da61168c565b90506123e6828261239f565b919050565b600080fd5b6123f98161185a565b811461240457600080fd5b50565b600081519050612416816123f0565b92915050565b600067ffffffffffffffff82111561243757612436612370565b5b602082029050602081019050919050565b600080fd5b600067ffffffffffffffff82111561246857612467612370565b5b612471826118e8565b9050602081019050919050565b600061249161248c8461244d565b6123d0565b9050828152602081018484840111156124ad576124ac612448565b5b6124b88482856118be565b509392505050565b600082601f8301126124d5576124d4611c10565b5b81516124e584826020860161247e565b91505092915050565b6124f781611932565b811461250257600080fd5b50565b600081519050612514816124ee565b92915050565b6000604082840312156125305761252f61236b565b5b61253a60406123d0565b9050600082015167ffffffffffffffff81111561255a576125596123eb565b5b612566848285016124c0565b600083015250602061257a84828501612505565b60208301525092915050565b60006125996125948461241c565b6123d0565b905080838252602082019050602084028301858111156125bc576125bb611c1a565b5b835b8181101561260357805167ffffffffffffffff8111156125e1576125e0611c10565b5b8086016125ee898261251a565b855260208501945050506020810190506125be565b5050509392505050565b600082601f83011261262257612621611c10565b5b8151612632848260208601612586565b91505092915050565b600061020082840312156126525761265161236b565b5b61265d6102006123d0565b9050600061266d84828501612407565b600083015250602082015167ffffffffffffffff811115612691576126906123eb565b5b61269d8482850161260d565b60208301525060406126b184828501612407565b604083015250606082015167ffffffffffffffff8111156126d5576126d46123eb565b5b6126e1848285016124c0565b606083015250608082015167ffffffffffffffff811115612705576127046123eb565b5b612711848285016124c0565b60808301525060a082015167ffffffffffffffff811115612735576127346123eb565b5b612741848285016124c0565b60a08301525060c082015167ffffffffffffffff811115612765576127646123eb565b5b612771848285016124c0565b60c08301525060e082015167ffffffffffffffff811115612795576127946123eb565b5b6127a1848285016124c0565b60e08301525061010082015167ffffffffffffffff8111156127c6576127c56123eb565b5b6127d2848285016124c0565b610100830152506101206127e884828501612407565b6101208301525061014082015167ffffffffffffffff81111561280e5761280d6123eb565b5b61281a848285016124c0565b6101408301525061016082015167ffffffffffffffff8111156128405761283f6123eb565b5b61284c8482850161260d565b6101608301525061018061286284828501612329565b610180830152506101a061287884828501612329565b6101a0830152506101c061288e84828501612329565b6101c0830152506101e082015167ffffffffffffffff8111156128b4576128b36123eb565b5b6128c0848285016124c0565b6101e08301525092915050565b6000602082840312156128e3576128e2611696565b5b600082015167ffffffffffffffff8111156129015761290061169b565b5b61290d8482850161263b565b91505092915050565b600082825260208201905092915050565b82818337600083830152505050565b60006129428385612916565b935061294f838584612927565b612958836118e8565b840190509392505050565b600082825260208201905092915050565b6000819050919050565b600080fd5b600080fd5b600080fd5b600080833560016020038436030381126129aa576129a9612988565b5b83810192508235915060208301925067ffffffffffffffff8211156129d2576129d161297e565b5b6001820236038313156129e8576129e7612983565b5b509250929050565b60006129fc83856118ad565b9350612a09838584612927565b612a12836118e8565b840190509392505050565b600081359050612a2c816124ee565b92915050565b6000612a416020840184612a1d565b905092915050565b600060408301612a5c600084018461298d565b8583036000870152612a6f8382846129f0565b92505050612a806020840184612a32565b612a8d602086018261193c565b508091505092915050565b6000612aa48383612a49565b905092915050565b600082356001604003833603038112612ac857612ac7612988565b5b82810191505092915050565b6000602082019050919050565b6000612aed8385612963565b935083602084028501612aff84612974565b8060005b87811015612b43578484038952612b1a8284612aac565b612b248582612a98565b9450612b2f83612ad4565b925060208a01995050600181019050612b03565b50829750879450505050509392505050565b6000606082019050612b6a60008301886122f1565b8181036020830152612b7d818688612936565b90508181036040830152612b92818486612ae1565b90509695505050505050565b600081519050612bad81611712565b92915050565b600060208284031215612bc957612bc8611696565b5b6000612bd784828501612b9e565b91505092915050565b6000606082019050612bf560008301876122f1565b612c026020830186611d4c565b8181036040830152612c15818486612ae1565b905095945050505050565b6000819050919050565b6000612c45612c40612c3b846116a0565b612c20565b6116a0565b9050919050565b6000612c5782612c2a565b9050919050565b6000612c6982612c4c565b9050919050565b612c7981612c5e565b82525050565b6000606082019050612c946000830187612c70565b612ca16020830186611d4c565b8181036040830152612cb4818486612ae1565b90509594505050505056fea264697066735822122060a95e94ebd8cf6e73880bf053b6edd16c98126332790052714bac4c2eea45e764736f6c63430008140033",
  "linkReferences": {},
  "deployedLinkReferences": {}
}