{
  "_format": "hh-sol-artifact-1",
  "contractName": "GovCaller",
  "sourceName": "solidity/precompiles/testutil/contracts/GovCaller.sol",
  "abi": [
    {
      "inputs": [],
      "name": "counter",
      "outputs": [
        {
          "internalType": "int64",
          "name": "",
          "type": "int64"
        }
      ],
      "stateMutability": "view",
      "type": "function"
    },
    {
      "inputs": [],
      "name": "deposit",
      "outputs": [],
      "stateMutability": "payable",
      "type": "function"
    },
    {
      "inputs": [],
      "name": "getParams",
      "outputs": [
        {
          "components": [
            {
              "internalType": "int64",
              "name": "votingPeriod",
              "type": "int64"
            },
            {
              "components": [
                {
                  "internalType": "string",
                  "name": "denom",
                  "type": "string"
                },
                {
                  "internalType": "uint256",
                  "name": "amount",
                  "type": "uint256"
                }
              ],
              "internalType": "struct Coin[]",
              "name": "minDeposit",
              "type": "tuple[]"
            },
            {
              "internalType": "int64",
              "name": "maxDepositPeriod",
              "type": "int64"
            },
            {
              "internalType": "string",
              "name": "quorum",
              "type": "string"
            },
            {
              "internalType": "string",
              "name": "threshold",
              "type": "string"
            },
            {
              "internalType": "string",
              "name": "vetoThreshold",
              "type": "string"
            },
            {
              "internalType": "string",
              "name": "minInitialDepositRatio",
              "type": "string"
            },
            {
              "internalType": "string",
              "name": "proposalCancelRatio",
              "type": "string"
            },
            {
              "internalType": "string",
              "name": "proposalCancelDest",
              "type": "string"
            },
            {
              "internalType": "int64",
              "name": "expeditedVotingPeriod",
              "type": "int64"
            },
            {
              "internalType": "string",
              "name": "expeditedThreshold",
              "type": "string"
            },
            {
              "components": [
                {
                  "internalType": "string",
                  "name": "denom",
                  "type": "string"
                },
                {
                  "internalType": "uint256",
                  "name": "amount",
                  "type": "uint256"
                }
              ],
              "internalType": "struct Coin[]",
              "name": "expeditedMinDeposit",
              "type": "tuple[]"
            },
            {
              "internalType": "bool",
              "name": "burnVoteQuorum",
              "type": "bool"
            },
            {
              "internalType": "bool",
              "name": "burnProposalDepositPrevote",
              "type": "bool"
            },
            {
              "internalType": "bool",
              "name": "burnVoteVeto",
              "type": "bool"
            },
            {
              "internalType": "string",
              "name": "minDepositRatio",
              "type": "string"
            }
          ],
          "internalType": "struct Params",
          "name": "params",
          "type": "tuple"
        }
      ],
      "stateMutability": "view",
      "type": "function"
    },
    {
      "inputs": [
        {
          "internalType": "uint64",
          "name": "_proposalId",
          "type": "uint64"
        }
      ],
      "name": "testCancelProposalFromContract",
      "outputs": [
        {
          "internalType": "bool",
          "name": "success",
          "type": "bool"
        }
      ],
      "stateMutability": "payable",
      "type": "function"
    },
    {
      "inputs": [
        {
          "internalType": "uint64",
          "name": "_proposalId",
          "type": "uint64"
        },
        {
          "components": [
            {
              "internalType": "string",
              "name": "denom",
              "type": "string"
            },
            {
              "internalType": "uint256",
              "name": "amount",
              "type": "uint256"
            }
          ],
          "internalType": "struct Coin[]",
          "name": "_deposit",
          "type": "tuple[]"
        }
      ],
      "name": "testDepositFromContract",
      "outputs": [
        {
          "internalType": "bool",
          "name": "success",
          "type": "bool"
        }
      ],
      "stateMutability": "payable",
      "type": "function"
    },
    {
      "inputs": [
        {
          "internalType": "address payable",
          "name": "_randomAddr",
          "type": "address"
        },
        {
          "internalType": "uint64",
          "name": "_proposalId",
          "type": "uint64"
        },
        {
          "components": [
            {
              "internalType": "string",
              "name": "denom",
              "type": "string"
            },
            {
              "internalType": "uint256",
              "name": "amount",
              "type": "uint256"
            }
          ],
          "internalType": "struct Coin[]",
          "name": "_deposit",
          "type": "tuple[]"
        },
        {
          "internalType": "bool",
          "name": "_before",
          "type": "bool"
        },
        {
          "internalType": "bool",
          "name": "_after",
          "type": "bool"
        }
      ],
      "name": "testDepositFromContractWithTransfer",
      "outputs": [
        {
          "internalType": "bool",
          "name": "success",
          "type": "bool"
        }
      ],
      "stateMutability": "payable",
      "type": "function"
    },
    {
      "inputs": [
        {
          "internalType": "address payable",
          "name": "_depositorAddr",
          "type": "address"
        },
        {
          "internalType": "uint64",
          "name": "_proposalId",
          "type": "uint64"
        },
        {
          "components": [
            {
              "internalType": "string",
              "name": "denom",
              "type": "string"
            },
            {
              "internalType": "uint256",
              "name": "amount",
              "type": "uint256"
            }
          ],
          "internalType": "struct Coin[]",
          "name": "_deposit",
          "type": "tuple[]"
        },
        {
          "internalType": "bool",
          "name": "_before",
          "type": "bool"
        },
        {
          "internalType": "bool",
          "name": "_after",
          "type": "bool"
        }
      ],
      "name": "testDepositWithTransfer",
      "outputs": [
        {
          "internalType": "bool",
          "name": "success",
          "type": "bool"
        }
      ],
      "stateMutability": "payable",
      "type": "function"
    },
    {
      "inputs": [
        {
          "internalType": "bytes",
          "name": "_jsonProposal",
          "type": "bytes"
        },
        {
          "components": [
            {
              "internalType": "string",
              "name": "denom",
              "type": "string"
            },
            {
              "internalType": "uint256",
              "name": "amount",
              "type": "uint256"
            }
          ],
          "internalType": "struct Coin[]",
          "name": "_deposit",
          "type": "tuple[]"
        }
      ],
      "name": "testSubmitProposalFromContract",
      "outputs": [
        {
          "internalType": "uint64",
          "name": "proposalId",
          "type": "uint64"
        }
      ],
      "stateMutability": "payable",
      "type": "function"
    },
    {
      "inputs": [
        {
          "internalType": "address payable",
          "name": "_randomAddr",
          "type": "address"
        },
        {
          "internalType": "bytes",
          "name": "_jsonProposal",
          "type": "bytes"
        },
        {
          "components": [
            {
              "internalType": "string",
              "name": "denom",
              "type": "string"
            },
            {
              "internalType": "uint256",
              "name": "amount",
              "type": "uint256"
            }
          ],
          "internalType": "struct Coin[]",
          "name": "_deposit",
          "type": "tuple[]"
        },
        {
          "internalType": "bool",
          "name": "_before",
          "type": "bool"
        },
        {
          "internalType": "bool",
          "name": "_after",
          "type": "bool"
        }
      ],
      "name": "testSubmitProposalFromContractWithTransfer",
      "outputs": [
        {
          "internalType": "uint64",
          "name": "",
          "type": "uint64"
        }
      ],
      "stateMutability": "payable",
      "type": "function"
    },
    {
      "inputs": [
        {
          "internalType": "address payable",
          "name": "_proposerAddr",
          "type": "address"
        },
        {
          "internalType": "bytes",
          "name": "_jsonProposal",
          "type": "bytes"
        },
        {
          "components": [
            {
              "internalType": "string",
              "name": "denom",
              "type": "string"
            },
            {
              "internalType": "uint256",
              "name": "amount",
              "type": "uint256"
            }
          ],
          "internalType": "struct Coin[]",
          "name": "_deposit",
          "type": "tuple[]"
        },
        {
          "internalType": "bool",
          "name": "_before",
          "type": "bool"
        },
        {
          "internalType": "bool",
          "name": "_after",
          "type": "bool"
        }
      ],
      "name": "testSubmitProposalWithTransfer",
      "outputs": [
        {
          "internalType": "uint64",
          "name": "",
          "type": "uint64"
        }
      ],
      "stateMutability": "payable",
      "type": "function"
    }
  ],
  "bytecode": "0x608060405234801561001057600080fd5b506122e8806100206000396000f3fe6080604052600436106100915760003560e01c806397fd84d21161005957806397fd84d21461017c578063990d04ca146101ac578063bc7bdf75146101dc578063d0e30db01461020c578063ed6c08f71461021657610091565b80635e615a6b1461009657806361bc221a146100c157806361f09ad2146100ec5780637726ece01461011c5780638a07ab441461014c575b600080fd5b3480156100a257600080fd5b506100ab610246565b6040516100b891906112ca565b60405180910390f35b3480156100cd57600080fd5b506100d66102c9565b6040516100e391906112fb565b60405180910390f35b610106600480360381019061010191906113e5565b6102da565b6040516101139190611489565b60405180910390f35b6101366004803603810190610131919061152e565b61036c565b6040516101439190611489565b60405180910390f35b61016660048036038101906101619190611616565b610601565b60405161017391906116bf565b60405180910390f35b610196600480360381019061019191906116da565b61088d565b6040516101a391906116bf565b60405180910390f35b6101c660048036038101906101c1919061152e565b610916565b6040516101d39190611489565b60405180910390f35b6101f660048036038101906101f19190611707565b610bab565b60405161020391906116bf565b60405180910390f35b610214610c3a565b005b610230600480360381019061022b9190611616565b610c3c565b60405161023d91906116bf565b60405180910390f35b61024e610ec8565b61080573ffffffffffffffffffffffffffffffffffffffff16635e615a6b6040518163ffffffff1660e01b8152600401600060405180830381865afa15801561029b573d6000803e3d6000fd5b505050506040513d6000823e3d601f19601f820116820180604052508101906102c49190611cde565b905090565b60008054906101000a900460070b81565b600061080573ffffffffffffffffffffffffffffffffffffffff1663a8fdc91930878787876040518663ffffffff1660e01b815260040161031f959493929190611f87565b6020604051808303816000875af115801561033e573d6000803e3d6000fd5b505050506040513d601f19601f820116820180604052508101906103629190611fe5565b9050949350505050565b6000821561046b5760008081819054906101000a900460070b8092919061039290612041565b91906101000a81548167ffffffffffffffff021916908360070b67ffffffffffffffff1602179055505060008873ffffffffffffffffffffffffffffffffffffffff16600f6040516103e3906120a2565b60006040518083038185875af1925050503d8060008114610420576040519150601f19603f3d011682016040523d82523d6000602084013e610425565b606091505b5050905080610469576040517f08c379a000000000000000000000000000000000000000000000000000000000815260040161046090612114565b60405180910390fd5b505b600061080573ffffffffffffffffffffffffffffffffffffffff1663a8fdc919308a8a8a8a6040518663ffffffff1660e01b81526004016104b0959493929190611f87565b6020604051808303816000875af11580156104cf573d6000803e3d6000fd5b505050506040513d601f19601f820116820180604052508101906104f39190611fe5565b905082156105f25760008081819054906101000a900460070b8092919061051990612041565b91906101000a81548167ffffffffffffffff021916908360070b67ffffffffffffffff1602179055505060008973ffffffffffffffffffffffffffffffffffffffff16600f60405161056a906120a2565b60006040518083038185875af1925050503d80600081146105a7576040519150601f19603f3d011682016040523d82523d6000602084013e6105ac565b606091505b50509050806105f0576040517f08c379a00000000000000000000000000000000000000000000000000000000081526004016105e790612114565b60405180910390fd5b505b80915050979650505050505050565b600082156107005760008081819054906101000a900460070b8092919061062790612041565b91906101000a81548167ffffffffffffffff021916908360070b67ffffffffffffffff1602179055505060008773ffffffffffffffffffffffffffffffffffffffff16600f604051610678906120a2565b60006040518083038185875af1925050503d80600081146106b5576040519150601f19603f3d011682016040523d82523d6000602084013e6106ba565b606091505b50509050806106fe576040517f08c379a00000000000000000000000000000000000000000000000000000000081526004016106f590612114565b60405180910390fd5b505b61080573ffffffffffffffffffffffffffffffffffffffff1663b24b0376888888886040518563ffffffff1660e01b81526004016107419493929190612193565b6020604051808303816000875af1158015610760573d6000803e3d6000fd5b505050506040513d601f19601f8201168201806040525081019061078491906121d3565b905081156108835760008081819054906101000a900460070b809291906107aa90612041565b91906101000a81548167ffffffffffffffff021916908360070b67ffffffffffffffff1602179055505060008773ffffffffffffffffffffffffffffffffffffffff16600f6040516107fb906120a2565b60006040518083038185875af1925050503d8060008114610838576040519150601f19603f3d011682016040523d82523d6000602084013e61083d565b606091505b5050905080610881576040517f08c379a000000000000000000000000000000000000000000000000000000000815260040161087890612114565b60405180910390fd5b505b9695505050505050565b600061080573ffffffffffffffffffffffffffffffffffffffff1663a33e308630846040518363ffffffff1660e01b81526004016108cc929190612200565b6020604051808303816000875af11580156108eb573d6000803e3d6000fd5b505050506040513d601f19601f8201168201806040525081019061090f91906121d3565b9050919050565b60008215610a155760008081819054906101000a900460070b8092919061093c90612041565b91906101000a81548167ffffffffffffffff021916908360070b67ffffffffffffffff1602179055505060008873ffffffffffffffffffffffffffffffffffffffff16600f60405161098d906120a2565b60006040518083038185875af1925050503d80600081146109ca576040519150601f19603f3d011682016040523d82523d6000602084013e6109cf565b606091505b5050905080610a13576040517f08c379a0000000000000000000000000000000000000000000000000000000008152600401610a0a90612114565b60405180910390fd5b505b600061080573ffffffffffffffffffffffffffffffffffffffff1663a8fdc9198a8a8a8a8a6040518663ffffffff1660e01b8152600401610a5a959493929190612229565b6020604051808303816000875af1158015610a79573d6000803e3d6000fd5b505050506040513d601f19601f82011682018060405250810190610a9d9190611fe5565b90508215610b9c5760008081819054906101000a900460070b80929190610ac390612041565b91906101000a81548167ffffffffffffffff021916908360070b67ffffffffffffffff1602179055505060008973ffffffffffffffffffffffffffffffffffffffff16600f604051610b14906120a2565b60006040518083038185875af1925050503d8060008114610b51576040519150601f19603f3d011682016040523d82523d6000602084013e610b56565b606091505b5050905080610b9a576040517f08c379a0000000000000000000000000000000000000000000000000000000008152600401610b9190612114565b60405180910390fd5b505b80915050979650505050505050565b600061080573ffffffffffffffffffffffffffffffffffffffff1663b24b0376308686866040518563ffffffff1660e01b8152600401610bee9493929190612272565b6020604051808303816000875af1158015610c0d573d6000803e3d6000fd5b505050506040513d601f19601f82011682018060405250810190610c3191906121d3565b90509392505050565b565b60008215610d3b5760008081819054906101000a900460070b80929190610c6290612041565b91906101000a81548167ffffffffffffffff021916908360070b67ffffffffffffffff1602179055505060008773ffffffffffffffffffffffffffffffffffffffff16600f604051610cb3906120a2565b60006040518083038185875af1925050503d8060008114610cf0576040519150601f19603f3d011682016040523d82523d6000602084013e610cf5565b606091505b5050905080610d39576040517f08c379a0000000000000000000000000000000000000000000000000000000008152600401610d3090612114565b60405180910390fd5b505b61080573ffffffffffffffffffffffffffffffffffffffff1663b24b0376308888886040518563ffffffff1660e01b8152600401610d7c9493929190612272565b6020604051808303816000875af1158015610d9b573d6000803e3d6000fd5b505050506040513d601f19601f82011682018060405250810190610dbf91906121d3565b90508115610ebe5760008081819054906101000a900460070b80929190610de590612041565b91906101000a81548167ffffffffffffffff021916908360070b67ffffffffffffffff1602179055505060008773ffffffffffffffffffffffffffffffffffffffff16600f604051610e36906120a2565b60006040518083038185875af1925050503d8060008114610e73576040519150601f19603f3d011682016040523d82523d6000602084013e610e78565b606091505b5050905080610ebc576040517f08c379a0000000000000000000000000000000000000000000000000000000008152600401610eb390612114565b60405180910390fd5b505b9695505050505050565b604051806102000160405280600060070b815260200160608152602001600060070b8152602001606081526020016060815260200160608152602001606081526020016060815260200160608152602001600060070b81526020016060815260200160608152602001600015158152602001600015158152602001600015158152602001606081525090565b60008160070b9050919050565b610f6a81610f54565b82525050565b600081519050919050565b600082825260208201905092915050565b6000819050602082019050919050565b600081519050919050565b600082825260208201905092915050565b60005b83811015610fd6578082015181840152602081019050610fbb565b60008484015250505050565b6000601f19601f8301169050919050565b6000610ffe82610f9c565b6110088185610fa7565b9350611018818560208601610fb8565b61102181610fe2565b840191505092915050565b6000819050919050565b61103f8161102c565b82525050565b600060408301600083015184820360008601526110628282610ff3565b91505060208301516110776020860182611036565b508091505092915050565b600061108e8383611045565b905092915050565b6000602082019050919050565b60006110ae82610f70565b6110b88185610f7b565b9350836020820285016110ca85610f8c565b8060005b8581101561110657848403895281516110e78582611082565b94506110f283611096565b925060208a019950506001810190506110ce565b50829750879550505050505092915050565b60008115159050919050565b61112d81611118565b82525050565b60006102008301600083015161114c6000860182610f61565b506020830151848203602086015261116482826110a3565b91505060408301516111796040860182610f61565b50606083015184820360608601526111918282610ff3565b915050608083015184820360808601526111ab8282610ff3565b91505060a083015184820360a08601526111c58282610ff3565b91505060c083015184820360c08601526111df8282610ff3565b91505060e083015184820360e08601526111f98282610ff3565b9150506101008301518482036101008601526112158282610ff3565b91505061012083015161122c610120860182610f61565b506101408301518482036101408601526112468282610ff3565b91505061016083015184820361016086015261126282826110a3565b915050610180830151611279610180860182611124565b506101a083015161128e6101a0860182611124565b506101c08301516112a36101c0860182611124565b506101e08301518482036101e08601526112bd8282610ff3565b9150508091505092915050565b600060208201905081810360008301526112e48184611133565b905092915050565b6112f581610f54565b82525050565b600060208201905061131060008301846112ec565b92915050565b6000604051905090565b600080fd5b600080fd5b600080fd5b600080fd5b600080fd5b60008083601f84011261134f5761134e61132a565b5b8235905067ffffffffffffffff81111561136c5761136b61132f565b5b60208301915083600182028301111561138857611387611334565b5b9250929050565b60008083601f8401126113a5576113a461132a565b5b8235905067ffffffffffffffff8111156113c2576113c161132f565b5b6020830191508360208202830111156113de576113dd611334565b5b9250929050565b600080600080604085870312156113ff576113fe611320565b5b600085013567ffffffffffffffff81111561141d5761141c611325565b5b61142987828801611339565b9450945050602085013567ffffffffffffffff81111561144c5761144b611325565b5b6114588782880161138f565b925092505092959194509250565b600067ffffffffffffffff82169050919050565b61148381611466565b82525050565b600060208201905061149e600083018461147a565b92915050565b600073ffffffffffffffffffffffffffffffffffffffff82169050919050565b60006114cf826114a4565b9050919050565b6114df816114c4565b81146114ea57600080fd5b50565b6000813590506114fc816114d6565b92915050565b61150b81611118565b811461151657600080fd5b50565b60008135905061152881611502565b92915050565b600080600080600080600060a0888a03121561154d5761154c611320565b5b600061155b8a828b016114ed565b975050602088013567ffffffffffffffff81111561157c5761157b611325565b5b6115888a828b01611339565b9650965050604088013567ffffffffffffffff8111156115ab576115aa611325565b5b6115b78a828b0161138f565b945094505060606115ca8a828b01611519565b92505060806115db8a828b01611519565b91505092959891949750929550565b6115f381611466565b81146115fe57600080fd5b50565b600081359050611610816115ea565b92915050565b60008060008060008060a0878903121561163357611632611320565b5b600061164189828a016114ed565b965050602061165289828a01611601565b955050604087013567ffffffffffffffff81111561167357611672611325565b5b61167f89828a0161138f565b9450945050606061169289828a01611519565b92505060806116a389828a01611519565b9150509295509295509295565b6116b981611118565b82525050565b60006020820190506116d460008301846116b0565b92915050565b6000602082840312156116f0576116ef611320565b5b60006116fe84828501611601565b91505092915050565b6000806000604084860312156117205761171f611320565b5b600061172e86828701611601565b935050602084013567ffffffffffffffff81111561174f5761174e611325565b5b61175b8682870161138f565b92509250509250925092565b600080fd5b7f4e487b7100000000000000000000000000000000000000000000000000000000600052604160045260246000fd5b6117a482610fe2565b810181811067ffffffffffffffff821117156117c3576117c261176c565b5b80604052505050565b60006117d6611316565b90506117e2828261179b565b919050565b600080fd5b6117f581610f54565b811461180057600080fd5b50565b600081519050611812816117ec565b92915050565b600067ffffffffffffffff8211156118335761183261176c565b5b602082029050602081019050919050565b600080fd5b600067ffffffffffffffff8211156118645761186361176c565b5b61186d82610fe2565b9050602081019050919050565b600061188d61188884611849565b6117cc565b9050828152602081018484840111156118a9576118a8611844565b5b6118b4848285610fb8565b509392505050565b600082601f8301126118d1576118d061132a565b5b81516118e184826020860161187a565b91505092915050565b6118f38161102c565b81146118fe57600080fd5b50565b600081519050611910816118ea565b92915050565b60006040828403121561192c5761192b611767565b5b61193660406117cc565b9050600082015167ffffffffffffffff811115611956576119556117e7565b5b611962848285016118bc565b600083015250602061197684828501611901565b60208301525092915050565b600061199561199084611818565b6117cc565b905080838252602082019050602084028301858111156119b8576119b7611334565b5b835b818110156119ff57805167ffffffffffffffff8111156119dd576119dc61132a565b5b8086016119ea8982611916565b855260208501945050506020810190506119ba565b5050509392505050565b600082601f830112611a1e57611a1d61132a565b5b8151611a2e848260208601611982565b91505092915050565b600081519050611a4681611502565b92915050565b60006102008284031215611a6357611a62611767565b5b611a6e6102006117cc565b90506000611a7e84828501611803565b600083015250602082015167ffffffffffffffff811115611aa257611aa16117e7565b5b611aae84828501611a09565b6020830152506040611ac284828501611803565b604083015250606082015167ffffffffffffffff811115611ae657611ae56117e7565b5b611af2848285016118bc565b606083015250608082015167ffffffffffffffff811115611b1657611b156117e7565b5b611b22848285016118bc565b60808301525060a082015167ffffffffffffffff811115611b4657611b456117e7565b5b611b52848285016118bc565b60a08301525060c082015167ffffffffffffffff811115611b7657611b756117e7565b5b611b82848285016118bc565b60c08301525060e082015167ffffffffffffffff811115611ba657611ba56117e7565b5b611bb2848285016118bc565b60e08301525061010082015167ffffffffffffffff811115611bd757611bd66117e7565b5b611be3848285016118bc565b61010083015250610120611bf984828501611803565b6101208301525061014082015167ffffffffffffffff811115611c1f57611c1e6117e7565b5b611c2b848285016118bc565b6101408301525061016082015167ffffffffffffffff811115611c5157611c506117e7565b5b611c5d84828501611a09565b61016083015250610180611c7384828501611a37565b610180830152506101a0611c8984828501611a37565b6101a0830152506101c0611c9f84828501611a37565b6101c0830152506101e082015167ffffffffffffffff811115611cc557611cc46117e7565b5b611cd1848285016118bc565b6101e08301525092915050565b600060208284031215611cf457611cf3611320565b5b600082015167ffffffffffffffff811115611d1257611d11611325565b5b611d1e84828501611a4c565b91505092915050565b6000611d32826114a4565b9050919050565b611d4281611d27565b82525050565b600082825260208201905092915050565b82818337600083830152505050565b6000611d748385611d48565b9350611d81838584611d59565b611d8a83610fe2565b840190509392505050565b600082825260208201905092915050565b6000819050919050565b600080fd5b600080fd5b600080fd5b60008083356001602003843603038112611ddc57611ddb611dba565b5b83810192508235915060208301925067ffffffffffffffff821115611e0457611e03611db0565b5b600182023603831315611e1a57611e19611db5565b5b509250929050565b6000611e2e8385610fa7565b9350611e3b838584611d59565b611e4483610fe2565b840190509392505050565b600081359050611e5e816118ea565b92915050565b6000611e736020840184611e4f565b905092915050565b600060408301611e8e6000840184611dbf565b8583036000870152611ea1838284611e22565b92505050611eb26020840184611e64565b611ebf6020860182611036565b508091505092915050565b6000611ed68383611e7b565b905092915050565b600082356001604003833603038112611efa57611ef9611dba565b5b82810191505092915050565b6000602082019050919050565b6000611f1f8385611d95565b935083602084028501611f3184611da6565b8060005b87811015611f75578484038952611f4c8284611ede565b611f568582611eca565b9450611f6183611f06565b925060208a01995050600181019050611f35565b50829750879450505050509392505050565b6000606082019050611f9c6000830188611d39565b8181036020830152611faf818688611d68565b90508181036040830152611fc4818486611f13565b90509695505050505050565b600081519050611fdf816115ea565b92915050565b600060208284031215611ffb57611ffa611320565b5b600061200984828501611fd0565b91505092915050565b7f4e487b7100000000000000000000000000000000000000000000000000000000600052601160045260246000fd5b600061204c82610f54565b9150677fffffffffffffff820361206657612065612012565b5b600182019050919050565b600081905092915050565b50565b600061208c600083612071565b91506120978261207c565b600082019050919050565b60006120ad8261207f565b9150819050919050565b600082825260208201905092915050565b7f4661696c656420746f2073656e6420457468657220746f2070726f706f736572600082015250565b60006120fe6020836120b7565b9150612109826120c8565b602082019050919050565b6000602082019050818103600083015261212d816120f1565b9050919050565b6000819050919050565b600061215961215461214f846114a4565b612134565b6114a4565b9050919050565b600061216b8261213e565b9050919050565b600061217d82612160565b9050919050565b61218d81612172565b82525050565b60006060820190506121a86000830187612184565b6121b5602083018661147a565b81810360408301526121c8818486611f13565b905095945050505050565b6000602082840312156121e9576121e8611320565b5b60006121f784828501611a37565b91505092915050565b60006040820190506122156000830185611d39565b612222602083018461147a565b9392505050565b600060608201905061223e6000830188612184565b8181036020830152612251818688611d68565b90508181036040830152612266818486611f13565b90509695505050505050565b60006060820190506122876000830187611d39565b612294602083018661147a565b81810360408301526122a7818486611f13565b90509594505050505056fea264697066735822122039465e7a2771800f01d73b4d3131db35d8baa46c2c3db1f95690d7aa1496d8c764736f6c63430008140033",
  "linkReferences": {},
  "deployedLinkReferences": {}
}