{
  "_format": "hh-sol-artifact-1",
  "contractName": "GovCaller",
  "sourceName": "solidity/precompiles/testutil/contracts/GovCaller.sol",
  "abi": [
    {
      "inputs": [],
      "name": "counter",
      "outputs": [
        {
          "internalType": "int64",
          "name": "",
          "type": "int64"
        }
      ],
      "stateMutability": "view",
      "type": "function"
    },
    {
      "inputs": [],
      "name": "deposit",
      "outputs": [],
      "stateMutability": "payable",
      "type": "function"
    },
    {
      "inputs": [],
      "name": "getParams",
      "outputs": [
        {
          "components": [
            {
              "internalType": "int64",
              "name": "votingPeriod",
              "type": "int64"
            },
            {
              "components": [
                {
                  "internalType": "string",
                  "name": "denom",
                  "type": "string"
                },
                {
                  "internalType": "uint256",
                  "name": "amount",
                  "type": "uint256"
                }
              ],
              "internalType": "struct Coin[]",
              "name": "minDeposit",
              "type": "tuple[]"
            },
            {
              "internalType": "int64",
              "name": "maxDepositPeriod",
              "type": "int64"
            },
            {
              "internalType": "string",
              "name": "quorum",
              "type": "string"
            },
            {
              "internalType": "string",
              "name": "threshold",
              "type": "string"
            },
            {
              "internalType": "string",
              "name": "vetoThreshold",
              "type": "string"
            },
            {
              "internalType": "string",
              "name": "minInitialDepositRatio",
              "type": "string"
            },
            {
              "internalType": "string",
              "name": "proposalCancelRatio",
              "type": "string"
            },
            {
              "internalType": "string",
              "name": "proposalCancelDest",
              "type": "string"
            },
            {
              "internalType": "int64",
              "name": "expeditedVotingPeriod",
              "type": "int64"
            },
            {
              "internalType": "string",
              "name": "expeditedThreshold",
              "type": "string"
            },
            {
              "components": [
                {
                  "internalType": "string",
                  "name": "denom",
                  "type": "string"
                },
                {
                  "internalType": "uint256",
                  "name": "amount",
                  "type": "uint256"
                }
              ],
              "internalType": "struct Coin[]",
              "name": "expeditedMinDeposit",
              "type": "tuple[]"
            },
            {
              "internalType": "bool",
              "name": "burnVoteQuorum",
              "type": "bool"
            },
            {
              "internalType": "bool",
              "name": "burnProposalDepositPrevote",
              "type": "bool"
            },
            {
              "internalType": "bool",
              "name": "burnVoteVeto",
              "type": "bool"
            },
            {
              "internalType": "string",
              "name": "minDepositRatio",
              "type": "string"
            }
          ],
          "internalType": "struct Params",
          "name": "params",
          "type": "tuple"
        }
      ],
      "stateMutability": "view",
      "type": "function"
    },
    {
      "inputs": [
        {
          "internalType": "uint64",
          "name": "_proposalId",
          "type": "uint64"
        }
      ],
      "name": "testCancelProposalFromContract",
      "outputs": [
        {
          "internalType": "bool",
          "name": "success",
          "type": "bool"
        }
      ],
      "stateMutability": "payable",
      "type": "function"
    },
    {
      "inputs": [
        {
          "internalType": "uint64",
          "name": "_proposalId",
          "type": "uint64"
        },
        {
          "components": [
            {
              "internalType": "string",
              "name": "denom",
              "type": "string"
            },
            {
              "internalType": "uint256",
              "name": "amount",
              "type": "uint256"
            }
          ],
          "internalType": "struct Coin[]",
          "name": "_deposit",
          "type": "tuple[]"
        }
      ],
      "name": "testDepositFromContract",
      "outputs": [
        {
          "internalType": "bool",
          "name": "success",
          "type": "bool"
        }
      ],
      "stateMutability": "payable",
      "type": "function"
    },
    {
      "inputs": [
        {
          "internalType": "bytes",
          "name": "_jsonProposal",
          "type": "bytes"
        },
        {
          "components": [
            {
              "internalType": "string",
              "name": "denom",
              "type": "string"
            },
            {
              "internalType": "uint256",
              "name": "amount",
              "type": "uint256"
            }
          ],
          "internalType": "struct Coin[]",
          "name": "_deposit",
          "type": "tuple[]"
        }
      ],
      "name": "testSubmitProposalFromContract",
      "outputs": [
        {
          "internalType": "uint64",
          "name": "proposalId",
          "type": "uint64"
        }
      ],
      "stateMutability": "payable",
      "type": "function"
    },
    {
      "inputs": [
        {
          "internalType": "address payable",
          "name": "_randomAddr",
          "type": "address"
        },
        {
          "internalType": "bytes",
          "name": "_jsonProposal",
          "type": "bytes"
        },
        {
          "components": [
            {
              "internalType": "string",
              "name": "denom",
              "type": "string"
            },
            {
              "internalType": "uint256",
              "name": "amount",
              "type": "uint256"
            }
          ],
          "internalType": "struct Coin[]",
          "name": "_deposit",
          "type": "tuple[]"
        },
        {
          "internalType": "bool",
          "name": "_before",
          "type": "bool"
        },
        {
          "internalType": "bool",
          "name": "_after",
          "type": "bool"
        }
      ],
      "name": "testSubmitProposalFromContractWithTransfer",
      "outputs": [
        {
          "internalType": "uint64",
          "name": "",
          "type": "uint64"
        }
      ],
      "stateMutability": "payable",
      "type": "function"
    },
    {
      "inputs": [
        {
          "internalType": "address payable",
          "name": "_proposerAddr",
          "type": "address"
        },
        {
          "internalType": "bytes",
          "name": "_jsonProposal",
          "type": "bytes"
        },
        {
          "components": [
            {
              "internalType": "string",
              "name": "denom",
              "type": "string"
            },
            {
              "internalType": "uint256",
              "name": "amount",
              "type": "uint256"
            }
          ],
          "internalType": "struct Coin[]",
          "name": "_deposit",
          "type": "tuple[]"
        },
        {
          "internalType": "bool",
          "name": "_before",
          "type": "bool"
        },
        {
          "internalType": "bool",
          "name": "_after",
          "type": "bool"
        }
      ],
      "name": "testSubmitProposalWithTransfer",
      "outputs": [
        {
          "internalType": "uint64",
          "name": "",
          "type": "uint64"
        }
      ],
      "stateMutability": "payable",
      "type": "function"
    }
  ],
  "bytecode": "0x608060405234801561001057600080fd5b50611c80806100206000396000f3fe60806040526004361061007b5760003560e01c806397fd84d21161004e57806397fd84d214610136578063990d04ca14610166578063bc7bdf7514610196578063d0e30db0146101c65761007b565b80635e615a6b1461008057806361bc221a146100ab57806361f09ad2146100d65780637726ece014610106575b600080fd5b34801561008c57600080fd5b506100956101d0565b6040516100a29190610d3c565b60405180910390f35b3480156100b757600080fd5b506100c0610253565b6040516100cd9190610d6d565b60405180910390f35b6100f060048036038101906100eb9190610e57565b610264565b6040516100fd9190610efb565b60405180910390f35b610120600480360381019061011b9190610fa0565b6102f6565b60405161012d9190610efb565b60405180910390f35b610150600480360381019061014b9190611088565b61058b565b60405161015d91906110c4565b60405180910390f35b610180600480360381019061017b9190610fa0565b610614565b60405161018d9190610efb565b60405180910390f35b6101b060048036038101906101ab91906110df565b6108a9565b6040516101bd91906110c4565b60405180910390f35b6101ce610938565b005b6101d861093a565b61080573ffffffffffffffffffffffffffffffffffffffff16635e615a6b6040518163ffffffff1660e01b8152600401600060405180830381865afa158015610225573d6000803e3d6000fd5b505050506040513d6000823e3d601f19601f8201168201806040525081019061024e91906116b6565b905090565b60008054906101000a900460070b81565b600061080573ffffffffffffffffffffffffffffffffffffffff1663a8fdc91930878787876040518663ffffffff1660e01b81526004016102a995949392919061195f565b6020604051808303816000875af11580156102c8573d6000803e3d6000fd5b505050506040513d601f19601f820116820180604052508101906102ec91906119bd565b9050949350505050565b600082156103f55760008081819054906101000a900460070b8092919061031c90611a19565b91906101000a81548167ffffffffffffffff021916908360070b67ffffffffffffffff1602179055505060008873ffffffffffffffffffffffffffffffffffffffff16600f60405161036d90611a7a565b60006040518083038185875af1925050503d80600081146103aa576040519150601f19603f3d011682016040523d82523d6000602084013e6103af565b606091505b50509050806103f3576040517f08c379a00000000000000000000000000000000000000000000000000000000081526004016103ea90611aec565b60405180910390fd5b505b600061080573ffffffffffffffffffffffffffffffffffffffff1663a8fdc919308a8a8a8a6040518663ffffffff1660e01b815260040161043a95949392919061195f565b6020604051808303816000875af1158015610459573d6000803e3d6000fd5b505050506040513d601f19601f8201168201806040525081019061047d91906119bd565b9050821561057c5760008081819054906101000a900460070b809291906104a390611a19565b91906101000a81548167ffffffffffffffff021916908360070b67ffffffffffffffff1602179055505060008973ffffffffffffffffffffffffffffffffffffffff16600f6040516104f490611a7a565b60006040518083038185875af1925050503d8060008114610531576040519150601f19603f3d011682016040523d82523d6000602084013e610536565b606091505b505090508061057a576040517f08c379a000000000000000000000000000000000000000000000000000000000815260040161057190611aec565b60405180910390fd5b505b80915050979650505050505050565b600061080573ffffffffffffffffffffffffffffffffffffffff1663a33e308630846040518363ffffffff1660e01b81526004016105ca929190611b0c565b6020604051808303816000875af11580156105e9573d6000803e3d6000fd5b505050506040513d601f19601f8201168201806040525081019061060d9190611b35565b9050919050565b600082156107135760008081819054906101000a900460070b8092919061063a90611a19565b91906101000a81548167ffffffffffffffff021916908360070b67ffffffffffffffff1602179055505060008873ffffffffffffffffffffffffffffffffffffffff16600f60405161068b90611a7a565b60006040518083038185875af1925050503d80600081146106c8576040519150601f19603f3d011682016040523d82523d6000602084013e6106cd565b606091505b5050905080610711576040517f08c379a000000000000000000000000000000000000000000000000000000000815260040161070890611aec565b60405180910390fd5b505b600061080573ffffffffffffffffffffffffffffffffffffffff1663a8fdc9198a8a8a8a8a6040518663ffffffff1660e01b8152600401610758959493929190611bc1565b6020604051808303816000875af1158015610777573d6000803e3d6000fd5b505050506040513d601f19601f8201168201806040525081019061079b91906119bd565b9050821561089a5760008081819054906101000a900460070b809291906107c190611a19565b91906101000a81548167ffffffffffffffff021916908360070b67ffffffffffffffff1602179055505060008973ffffffffffffffffffffffffffffffffffffffff16600f60405161081290611a7a565b60006040518083038185875af1925050503d806000811461084f576040519150601f19603f3d011682016040523d82523d6000602084013e610854565b606091505b5050905080610898576040517f08c379a000000000000000000000000000000000000000000000000000000000815260040161088f90611aec565b60405180910390fd5b505b80915050979650505050505050565b600061080573ffffffffffffffffffffffffffffffffffffffff1663b24b0376308686866040518563ffffffff1660e01b81526004016108ec9493929190611c0a565b6020604051808303816000875af115801561090b573d6000803e3d6000fd5b505050506040513d601f19601f8201168201806040525081019061092f9190611b35565b90509392505050565b565b604051806102000160405280600060070b815260200160608152602001600060070b8152602001606081526020016060815260200160608152602001606081526020016060815260200160608152602001600060070b81526020016060815260200160608152602001600015158152602001600015158152602001600015158152602001606081525090565b60008160070b9050919050565b6109dc816109c6565b82525050565b600081519050919050565b600082825260208201905092915050565b6000819050602082019050919050565b600081519050919050565b600082825260208201905092915050565b60005b83811015610a48578082015181840152602081019050610a2d565b60008484015250505050565b6000601f19601f8301169050919050565b6000610a7082610a0e565b610a7a8185610a19565b9350610a8a818560208601610a2a565b610a9381610a54565b840191505092915050565b6000819050919050565b610ab181610a9e565b82525050565b60006040830160008301518482036000860152610ad48282610a65565b9150506020830151610ae96020860182610aa8565b508091505092915050565b6000610b008383610ab7565b905092915050565b6000602082019050919050565b6000610b20826109e2565b610b2a81856109ed565b935083602082028501610b3c856109fe565b8060005b85811015610b785784840389528151610b598582610af4565b9450610b6483610b08565b925060208a01995050600181019050610b40565b50829750879550505050505092915050565b60008115159050919050565b610b9f81610b8a565b82525050565b600061020083016000830151610bbe60008601826109d3565b5060208301518482036020860152610bd68282610b15565b9150506040830151610beb60408601826109d3565b5060608301518482036060860152610c038282610a65565b91505060808301518482036080860152610c1d8282610a65565b91505060a083015184820360a0860152610c378282610a65565b91505060c083015184820360c0860152610c518282610a65565b91505060e083015184820360e0860152610c6b8282610a65565b915050610100830151848203610100860152610c878282610a65565b915050610120830151610c9e6101208601826109d3565b50610140830151848203610140860152610cb88282610a65565b915050610160830151848203610160860152610cd48282610b15565b915050610180830151610ceb610180860182610b96565b506101a0830151610d006101a0860182610b96565b506101c0830151610d156101c0860182610b96565b506101e08301518482036101e0860152610d2f8282610a65565b9150508091505092915050565b60006020820190508181036000830152610d568184610ba5565b905092915050565b610d67816109c6565b82525050565b6000602082019050610d826000830184610d5e565b92915050565b6000604051905090565b600080fd5b600080fd5b600080fd5b600080fd5b600080fd5b60008083601f840112610dc157610dc0610d9c565b5b8235905067ffffffffffffffff811115610dde57610ddd610da1565b5b602083019150836001820283011115610dfa57610df9610da6565b5b9250929050565b60008083601f840112610e1757610e16610d9c565b5b8235905067ffffffffffffffff811115610e3457610e33610da1565b5b602083019150836020820283011115610e5057610e4f610da6565b5b9250929050565b60008060008060408587031215610e7157610e70610d92565b5b600085013567ffffffffffffffff811115610e8f57610e8e610d97565b5b610e9b87828801610dab565b9450945050602085013567ffffffffffffffff811115610ebe57610ebd610d97565b5b610eca87828801610e01565b925092505092959194509250565b600067ffffffffffffffff82169050919050565b610ef581610ed8565b82525050565b6000602082019050610f106000830184610eec565b92915050565b600073ffffffffffffffffffffffffffffffffffffffff82169050919050565b6000610f4182610f16565b9050919050565b610f5181610f36565b8114610f5c57600080fd5b50565b600081359050610f6e81610f48565b92915050565b610f7d81610b8a565b8114610f8857600080fd5b50565b600081359050610f9a81610f74565b92915050565b600080600080600080600060a0888a031215610fbf57610fbe610d92565b5b6000610fcd8a828b01610f5f565b975050602088013567ffffffffffffffff811115610fee57610fed610d97565b5b610ffa8a828b01610dab565b9650965050604088013567ffffffffffffffff81111561101d5761101c610d97565b5b6110298a828b01610e01565b9450945050606061103c8a828b01610f8b565b925050608061104d8a828b01610f8b565b91505092959891949750929550565b61106581610ed8565b811461107057600080fd5b50565b6000813590506110828161105c565b92915050565b60006020828403121561109e5761109d610d92565b5b60006110ac84828501611073565b91505092915050565b6110be81610b8a565b82525050565b60006020820190506110d960008301846110b5565b92915050565b6000806000604084860312156110f8576110f7610d92565b5b600061110686828701611073565b935050602084013567ffffffffffffffff81111561112757611126610d97565b5b61113386828701610e01565b92509250509250925092565b600080fd5b7f4e487b7100000000000000000000000000000000000000000000000000000000600052604160045260246000fd5b61117c82610a54565b810181811067ffffffffffffffff8211171561119b5761119a611144565b5b80604052505050565b60006111ae610d88565b90506111ba8282611173565b919050565b600080fd5b6111cd816109c6565b81146111d857600080fd5b50565b6000815190506111ea816111c4565b92915050565b600067ffffffffffffffff82111561120b5761120a611144565b5b602082029050602081019050919050565b600080fd5b600067ffffffffffffffff82111561123c5761123b611144565b5b61124582610a54565b9050602081019050919050565b600061126561126084611221565b6111a4565b9050828152602081018484840111156112815761128061121c565b5b61128c848285610a2a565b509392505050565b600082601f8301126112a9576112a8610d9c565b5b81516112b9848260208601611252565b91505092915050565b6112cb81610a9e565b81146112d657600080fd5b50565b6000815190506112e8816112c2565b92915050565b6000604082840312156113045761130361113f565b5b61130e60406111a4565b9050600082015167ffffffffffffffff81111561132e5761132d6111bf565b5b61133a84828501611294565b600083015250602061134e848285016112d9565b60208301525092915050565b600061136d611368846111f0565b6111a4565b905080838252602082019050602084028301858111156113905761138f610da6565b5b835b818110156113d757805167ffffffffffffffff8111156113b5576113b4610d9c565b5b8086016113c289826112ee565b85526020850194505050602081019050611392565b5050509392505050565b600082601f8301126113f6576113f5610d9c565b5b815161140684826020860161135a565b91505092915050565b60008151905061141e81610f74565b92915050565b6000610200828403121561143b5761143a61113f565b5b6114466102006111a4565b90506000611456848285016111db565b600083015250602082015167ffffffffffffffff81111561147a576114796111bf565b5b611486848285016113e1565b602083015250604061149a848285016111db565b604083015250606082015167ffffffffffffffff8111156114be576114bd6111bf565b5b6114ca84828501611294565b606083015250608082015167ffffffffffffffff8111156114ee576114ed6111bf565b5b6114fa84828501611294565b60808301525060a082015167ffffffffffffffff81111561151e5761151d6111bf565b5b61152a84828501611294565b60a08301525060c082015167ffffffffffffffff81111561154e5761154d6111bf565b5b61155a84828501611294565b60c08301525060e082015167ffffffffffffffff81111561157e5761157d6111bf565b5b61158a84828501611294565b60e08301525061010082015167ffffffffffffffff8111156115af576115ae6111bf565b5b6115bb84828501611294565b610100830152506101206115d1848285016111db565b6101208301525061014082015167ffffffffffffffff8111156115f7576115f66111bf565b5b61160384828501611294565b6101408301525061016082015167ffffffffffffffff811115611629576116286111bf565b5b611635848285016113e1565b6101608301525061018061164b8482850161140f565b610180830152506101a06116618482850161140f565b6101a0830152506101c06116778482850161140f565b6101c0830152506101e082015167ffffffffffffffff81111561169d5761169c6111bf565b5b6116a984828501611294565b6101e08301525092915050565b6000602082840312156116cc576116cb610d92565b5b600082015167ffffffffffffffff8111156116ea576116e9610d97565b5b6116f684828501611424565b91505092915050565b600061170a82610f16565b9050919050565b61171a816116ff565b82525050565b600082825260208201905092915050565b82818337600083830152505050565b600061174c8385611720565b9350611759838584611731565b61176283610a54565b840190509392505050565b600082825260208201905092915050565b6000819050919050565b600080fd5b600080fd5b600080fd5b600080833560016020038436030381126117b4576117b3611792565b5b83810192508235915060208301925067ffffffffffffffff8211156117dc576117db611788565b5b6001820236038313156117f2576117f161178d565b5b509250929050565b60006118068385610a19565b9350611813838584611731565b61181c83610a54565b840190509392505050565b600081359050611836816112c2565b92915050565b600061184b6020840184611827565b905092915050565b6000604083016118666000840184611797565b85830360008701526118798382846117fa565b9250505061188a602084018461183c565b6118976020860182610aa8565b508091505092915050565b60006118ae8383611853565b905092915050565b6000823560016040038336030381126118d2576118d1611792565b5b82810191505092915050565b6000602082019050919050565b60006118f7838561176d565b9350836020840285016119098461177e565b8060005b8781101561194d57848403895261192482846118b6565b61192e85826118a2565b9450611939836118de565b925060208a0199505060018101905061190d565b50829750879450505050509392505050565b60006060820190506119746000830188611711565b8181036020830152611987818688611740565b9050818103604083015261199c8184866118eb565b90509695505050505050565b6000815190506119b78161105c565b92915050565b6000602082840312156119d3576119d2610d92565b5b60006119e1848285016119a8565b91505092915050565b7f4e487b7100000000000000000000000000000000000000000000000000000000600052601160045260246000fd5b6000611a24826109c6565b9150677fffffffffffffff8203611a3e57611a3d6119ea565b5b600182019050919050565b600081905092915050565b50565b6000611a64600083611a49565b9150611a6f82611a54565b600082019050919050565b6000611a8582611a57565b9150819050919050565b600082825260208201905092915050565b7f4661696c656420746f2073656e6420457468657220746f2070726f706f736572600082015250565b6000611ad6602083611a8f565b9150611ae182611aa0565b602082019050919050565b60006020820190508181036000830152611b0581611ac9565b9050919050565b6000604082019050611b216000830185611711565b611b2e6020830184610eec565b9392505050565b600060208284031215611b4b57611b4a610d92565b5b6000611b598482850161140f565b91505092915050565b6000819050919050565b6000611b87611b82611b7d84610f16565b611b62565b610f16565b9050919050565b6000611b9982611b6c565b9050919050565b6000611bab82611b8e565b9050919050565b611bbb81611ba0565b82525050565b6000606082019050611bd66000830188611bb2565b8181036020830152611be9818688611740565b90508181036040830152611bfe8184866118eb565b90509695505050505050565b6000606082019050611c1f6000830187611711565b611c2c6020830186610eec565b8181036040830152611c3f8184866118eb565b90509594505050505056fea264697066735822122045b99c5b5e31ec606d6b838353c306a9ec4561d4699639f73c354900cf25b2fb64736f6c63430008140033",
  "linkReferences": {},
  "deployedLinkReferences": {}
}