{
  "_format": "hh-sol-artifact-1",
  "contractName": "GovCaller",
  "sourceName": "solidity/precompiles/testutil/contracts/GovCaller.sol",
  "abi": [
    {
      "inputs": [],
      "name": "counter",
      "outputs": [
        {
          "internalType": "int64",
          "name": "",
          "type": "int64"
        }
      ],
      "stateMutability": "view",
      "type": "function"
    },
    {
      "inputs": [],
      "name": "deposit",
      "outputs": [],
      "stateMutability": "payable",
      "type": "function"
    },
    {
      "inputs": [],
      "name": "getParams",
      "outputs": [
        {
          "components": [
            {
              "internalType": "int64",
              "name": "votingPeriod",
              "type": "int64"
            },
            {
              "components": [
                {
                  "internalType": "string",
                  "name": "denom",
                  "type": "string"
                },
                {
                  "internalType": "uint256",
                  "name": "amount",
                  "type": "uint256"
                }
              ],
              "internalType": "struct Coin[]",
              "name": "minDeposit",
              "type": "tuple[]"
            },
            {
              "internalType": "int64",
              "name": "maxDepositPeriod",
              "type": "int64"
            },
            {
              "internalType": "string",
              "name": "quorum",
              "type": "string"
            },
            {
              "internalType": "string",
              "name": "threshold",
              "type": "string"
            },
            {
              "internalType": "string",
              "name": "vetoThreshold",
              "type": "string"
            },
            {
              "internalType": "string",
              "name": "minInitialDepositRatio",
              "type": "string"
            },
            {
              "internalType": "string",
              "name": "proposalCancelRatio",
              "type": "string"
            },
            {
              "internalType": "string",
              "name": "proposalCancelDest",
              "type": "string"
            },
            {
              "internalType": "int64",
              "name": "expeditedVotingPeriod",
              "type": "int64"
            },
            {
              "internalType": "string",
              "name": "expeditedThreshold",
              "type": "string"
            },
            {
              "components": [
                {
                  "internalType": "string",
                  "name": "denom",
                  "type": "string"
                },
                {
                  "internalType": "uint256",
                  "name": "amount",
                  "type": "uint256"
                }
              ],
              "internalType": "struct Coin[]",
              "name": "expeditedMinDeposit",
              "type": "tuple[]"
            },
            {
              "internalType": "bool",
              "name": "burnVoteQuorum",
              "type": "bool"
            },
            {
              "internalType": "bool",
              "name": "burnProposalDepositPrevote",
              "type": "bool"
            },
            {
              "internalType": "bool",
              "name": "burnVoteVeto",
              "type": "bool"
            },
            {
              "internalType": "string",
              "name": "minDepositRatio",
              "type": "string"
            }
          ],
          "internalType": "struct Params",
          "name": "params",
          "type": "tuple"
        }
      ],
      "stateMutability": "view",
      "type": "function"
    },
    {
      "inputs": [
        {
          "internalType": "uint64",
          "name": "_proposalId",
          "type": "uint64"
        }
      ],
      "name": "testCancelProposalFromContract",
      "outputs": [
        {
          "internalType": "bool",
          "name": "success",
          "type": "bool"
        }
      ],
      "stateMutability": "payable",
      "type": "function"
    },
    {
      "inputs": [
        {
          "internalType": "uint64",
          "name": "_proposalId",
          "type": "uint64"
        },
        {
          "components": [
            {
              "internalType": "string",
              "name": "denom",
              "type": "string"
            },
            {
              "internalType": "uint256",
              "name": "amount",
              "type": "uint256"
            }
          ],
          "internalType": "struct Coin[]",
          "name": "_deposit",
          "type": "tuple[]"
        }
      ],
      "name": "testDepositFromContract",
      "outputs": [
        {
          "internalType": "bool",
          "name": "success",
          "type": "bool"
        }
      ],
      "stateMutability": "payable",
      "type": "function"
    },
    {
      "inputs": [
        {
          "internalType": "bytes",
          "name": "_jsonProposal",
          "type": "bytes"
        },
        {
          "components": [
            {
              "internalType": "string",
              "name": "denom",
              "type": "string"
            },
            {
              "internalType": "uint256",
              "name": "amount",
              "type": "uint256"
            }
          ],
          "internalType": "struct Coin[]",
          "name": "_deposit",
          "type": "tuple[]"
        }
      ],
      "name": "testSubmitProposalFromContract",
      "outputs": [
        {
          "internalType": "uint64",
          "name": "proposalId",
          "type": "uint64"
        }
      ],
      "stateMutability": "payable",
      "type": "function"
    },
    {
      "inputs": [
        {
          "internalType": "address payable",
          "name": "_proposerAddr",
          "type": "address"
        },
        {
          "internalType": "bytes",
          "name": "_jsonProposal",
          "type": "bytes"
        },
        {
          "components": [
            {
              "internalType": "string",
              "name": "denom",
              "type": "string"
            },
            {
              "internalType": "uint256",
              "name": "amount",
              "type": "uint256"
            }
          ],
          "internalType": "struct Coin[]",
          "name": "_deposit",
          "type": "tuple[]"
        },
        {
          "internalType": "bool",
          "name": "_before",
          "type": "bool"
        },
        {
          "internalType": "bool",
          "name": "_after",
          "type": "bool"
        }
      ],
      "name": "testSubmitProposalWithTransfer",
      "outputs": [
        {
          "internalType": "uint64",
          "name": "",
          "type": "uint64"
        }
      ],
      "stateMutability": "nonpayable",
      "type": "function"
    }
  ],
  "bytecode": "0x608060405234801561001057600080fd5b506119bd806100206000396000f3fe6080604052600436106100705760003560e01c806397fd84d21161004e57806397fd84d2146100fb578063990d04ca1461012b578063bc7bdf7514610168578063d0e30db01461019857610070565b80635e615a6b1461007557806361bc221a146100a057806361f09ad2146100cb575b600080fd5b34801561008157600080fd5b5061008a6101a2565b6040516100979190610a79565b60405180910390f35b3480156100ac57600080fd5b506100b5610225565b6040516100c29190610aaa565b60405180910390f35b6100e560048036038101906100e09190610b94565b610236565b6040516100f29190610c38565b60405180910390f35b61011560048036038101906101109190610c7f565b6102c8565b6040516101229190610cbb565b60405180910390f35b34801561013757600080fd5b50610152600480360381019061014d9190610d60565b610351565b60405161015f9190610c38565b60405180910390f35b610182600480360381019061017d9190610e1c565b6105e6565b60405161018f9190610cbb565b60405180910390f35b6101a0610675565b005b6101aa610677565b61080573ffffffffffffffffffffffffffffffffffffffff16635e615a6b6040518163ffffffff1660e01b8152600401600060405180830381865afa1580156101f7573d6000803e3d6000fd5b505050506040513d6000823e3d601f19601f8201168201806040525081019061022091906113f3565b905090565b60008054906101000a900460070b81565b600061080573ffffffffffffffffffffffffffffffffffffffff1663a8fdc91930878787876040518663ffffffff1660e01b815260040161027b95949392919061169c565b6020604051808303816000875af115801561029a573d6000803e3d6000fd5b505050506040513d601f19601f820116820180604052508101906102be91906116fa565b9050949350505050565b600061080573ffffffffffffffffffffffffffffffffffffffff1663a33e308630846040518363ffffffff1660e01b8152600401610307929190611727565b6020604051808303816000875af1158015610326573d6000803e3d6000fd5b505050506040513d601f19601f8201168201806040525081019061034a9190611750565b9050919050565b600082156104505760008081819054906101000a900460070b80929190610377906117ac565b91906101000a81548167ffffffffffffffff021916908360070b67ffffffffffffffff1602179055505060008873ffffffffffffffffffffffffffffffffffffffff16600f6040516103c89061180d565b60006040518083038185875af1925050503d8060008114610405576040519150601f19603f3d011682016040523d82523d6000602084013e61040a565b606091505b505090508061044e576040517f08c379a00000000000000000000000000000000000000000000000000000000081526004016104459061187f565b60405180910390fd5b505b600061080573ffffffffffffffffffffffffffffffffffffffff1663a8fdc9198a8a8a8a8a6040518663ffffffff1660e01b81526004016104959594939291906118fe565b6020604051808303816000875af11580156104b4573d6000803e3d6000fd5b505050506040513d601f19601f820116820180604052508101906104d891906116fa565b905082156105d75760008081819054906101000a900460070b809291906104fe906117ac565b91906101000a81548167ffffffffffffffff021916908360070b67ffffffffffffffff1602179055505060008973ffffffffffffffffffffffffffffffffffffffff16600f60405161054f9061180d565b60006040518083038185875af1925050503d806000811461058c576040519150601f19603f3d011682016040523d82523d6000602084013e610591565b606091505b50509050806105d5576040517f08c379a00000000000000000000000000000000000000000000000000000000081526004016105cc9061187f565b60405180910390fd5b505b80915050979650505050505050565b600061080573ffffffffffffffffffffffffffffffffffffffff1663b24b0376308686866040518563ffffffff1660e01b81526004016106299493929190611947565b6020604051808303816000875af1158015610648573d6000803e3d6000fd5b505050506040513d601f19601f8201168201806040525081019061066c9190611750565b90509392505050565b565b604051806102000160405280600060070b815260200160608152602001600060070b8152602001606081526020016060815260200160608152602001606081526020016060815260200160608152602001600060070b81526020016060815260200160608152602001600015158152602001600015158152602001600015158152602001606081525090565b60008160070b9050919050565b61071981610703565b82525050565b600081519050919050565b600082825260208201905092915050565b6000819050602082019050919050565b600081519050919050565b600082825260208201905092915050565b60005b8381101561078557808201518184015260208101905061076a565b60008484015250505050565b6000601f19601f8301169050919050565b60006107ad8261074b565b6107b78185610756565b93506107c7818560208601610767565b6107d081610791565b840191505092915050565b6000819050919050565b6107ee816107db565b82525050565b6000604083016000830151848203600086015261081182826107a2565b915050602083015161082660208601826107e5565b508091505092915050565b600061083d83836107f4565b905092915050565b6000602082019050919050565b600061085d8261071f565b610867818561072a565b9350836020820285016108798561073b565b8060005b858110156108b557848403895281516108968582610831565b94506108a183610845565b925060208a0199505060018101905061087d565b50829750879550505050505092915050565b60008115159050919050565b6108dc816108c7565b82525050565b6000610200830160008301516108fb6000860182610710565b50602083015184820360208601526109138282610852565b91505060408301516109286040860182610710565b506060830151848203606086015261094082826107a2565b9150506080830151848203608086015261095a82826107a2565b91505060a083015184820360a086015261097482826107a2565b91505060c083015184820360c086015261098e82826107a2565b91505060e083015184820360e08601526109a882826107a2565b9150506101008301518482036101008601526109c482826107a2565b9150506101208301516109db610120860182610710565b506101408301518482036101408601526109f582826107a2565b915050610160830151848203610160860152610a118282610852565b915050610180830151610a286101808601826108d3565b506101a0830151610a3d6101a08601826108d3565b506101c0830151610a526101c08601826108d3565b506101e08301518482036101e0860152610a6c82826107a2565b9150508091505092915050565b60006020820190508181036000830152610a9381846108e2565b905092915050565b610aa481610703565b82525050565b6000602082019050610abf6000830184610a9b565b92915050565b6000604051905090565b600080fd5b600080fd5b600080fd5b600080fd5b600080fd5b60008083601f840112610afe57610afd610ad9565b5b8235905067ffffffffffffffff811115610b1b57610b1a610ade565b5b602083019150836001820283011115610b3757610b36610ae3565b5b9250929050565b60008083601f840112610b5457610b53610ad9565b5b8235905067ffffffffffffffff811115610b7157610b70610ade565b5b602083019150836020820283011115610b8d57610b8c610ae3565b5b9250929050565b60008060008060408587031215610bae57610bad610acf565b5b600085013567ffffffffffffffff811115610bcc57610bcb610ad4565b5b610bd887828801610ae8565b9450945050602085013567ffffffffffffffff811115610bfb57610bfa610ad4565b5b610c0787828801610b3e565b925092505092959194509250565b600067ffffffffffffffff82169050919050565b610c3281610c15565b82525050565b6000602082019050610c4d6000830184610c29565b92915050565b610c5c81610c15565b8114610c6757600080fd5b50565b600081359050610c7981610c53565b92915050565b600060208284031215610c9557610c94610acf565b5b6000610ca384828501610c6a565b91505092915050565b610cb5816108c7565b82525050565b6000602082019050610cd06000830184610cac565b92915050565b600073ffffffffffffffffffffffffffffffffffffffff82169050919050565b6000610d0182610cd6565b9050919050565b610d1181610cf6565b8114610d1c57600080fd5b50565b600081359050610d2e81610d08565b92915050565b610d3d816108c7565b8114610d4857600080fd5b50565b600081359050610d5a81610d34565b92915050565b600080600080600080600060a0888a031215610d7f57610d7e610acf565b5b6000610d8d8a828b01610d1f565b975050602088013567ffffffffffffffff811115610dae57610dad610ad4565b5b610dba8a828b01610ae8565b9650965050604088013567ffffffffffffffff811115610ddd57610ddc610ad4565b5b610de98a828b01610b3e565b94509450506060610dfc8a828b01610d4b565b9250506080610e0d8a828b01610d4b565b91505092959891949750929550565b600080600060408486031215610e3557610e34610acf565b5b6000610e4386828701610c6a565b935050602084013567ffffffffffffffff811115610e6457610e63610ad4565b5b610e7086828701610b3e565b92509250509250925092565b600080fd5b7f4e487b7100000000000000000000000000000000000000000000000000000000600052604160045260246000fd5b610eb982610791565b810181811067ffffffffffffffff82111715610ed857610ed7610e81565b5b80604052505050565b6000610eeb610ac5565b9050610ef78282610eb0565b919050565b600080fd5b610f0a81610703565b8114610f1557600080fd5b50565b600081519050610f2781610f01565b92915050565b600067ffffffffffffffff821115610f4857610f47610e81565b5b602082029050602081019050919050565b600080fd5b600067ffffffffffffffff821115610f7957610f78610e81565b5b610f8282610791565b9050602081019050919050565b6000610fa2610f9d84610f5e565b610ee1565b905082815260208101848484011115610fbe57610fbd610f59565b5b610fc9848285610767565b509392505050565b600082601f830112610fe657610fe5610ad9565b5b8151610ff6848260208601610f8f565b91505092915050565b611008816107db565b811461101357600080fd5b50565b60008151905061102581610fff565b92915050565b60006040828403121561104157611040610e7c565b5b61104b6040610ee1565b9050600082015167ffffffffffffffff81111561106b5761106a610efc565b5b61107784828501610fd1565b600083015250602061108b84828501611016565b60208301525092915050565b60006110aa6110a584610f2d565b610ee1565b905080838252602082019050602084028301858111156110cd576110cc610ae3565b5b835b8181101561111457805167ffffffffffffffff8111156110f2576110f1610ad9565b5b8086016110ff898261102b565b855260208501945050506020810190506110cf565b5050509392505050565b600082601f83011261113357611132610ad9565b5b8151611143848260208601611097565b91505092915050565b60008151905061115b81610d34565b92915050565b6000610200828403121561117857611177610e7c565b5b611183610200610ee1565b9050600061119384828501610f18565b600083015250602082015167ffffffffffffffff8111156111b7576111b6610efc565b5b6111c38482850161111e565b60208301525060406111d784828501610f18565b604083015250606082015167ffffffffffffffff8111156111fb576111fa610efc565b5b61120784828501610fd1565b606083015250608082015167ffffffffffffffff81111561122b5761122a610efc565b5b61123784828501610fd1565b60808301525060a082015167ffffffffffffffff81111561125b5761125a610efc565b5b61126784828501610fd1565b60a08301525060c082015167ffffffffffffffff81111561128b5761128a610efc565b5b61129784828501610fd1565b60c08301525060e082015167ffffffffffffffff8111156112bb576112ba610efc565b5b6112c784828501610fd1565b60e08301525061010082015167ffffffffffffffff8111156112ec576112eb610efc565b5b6112f884828501610fd1565b6101008301525061012061130e84828501610f18565b6101208301525061014082015167ffffffffffffffff81111561133457611333610efc565b5b61134084828501610fd1565b6101408301525061016082015167ffffffffffffffff81111561136657611365610efc565b5b6113728482850161111e565b610160830152506101806113888482850161114c565b610180830152506101a061139e8482850161114c565b6101a0830152506101c06113b48482850161114c565b6101c0830152506101e082015167ffffffffffffffff8111156113da576113d9610efc565b5b6113e684828501610fd1565b6101e08301525092915050565b60006020828403121561140957611408610acf565b5b600082015167ffffffffffffffff81111561142757611426610ad4565b5b61143384828501611161565b91505092915050565b600061144782610cd6565b9050919050565b6114578161143c565b82525050565b600082825260208201905092915050565b82818337600083830152505050565b6000611489838561145d565b935061149683858461146e565b61149f83610791565b840190509392505050565b600082825260208201905092915050565b6000819050919050565b600080fd5b600080fd5b600080fd5b600080833560016020038436030381126114f1576114f06114cf565b5b83810192508235915060208301925067ffffffffffffffff821115611519576115186114c5565b5b60018202360383131561152f5761152e6114ca565b5b509250929050565b60006115438385610756565b935061155083858461146e565b61155983610791565b840190509392505050565b60008135905061157381610fff565b92915050565b60006115886020840184611564565b905092915050565b6000604083016115a360008401846114d4565b85830360008701526115b6838284611537565b925050506115c76020840184611579565b6115d460208601826107e5565b508091505092915050565b60006115eb8383611590565b905092915050565b60008235600160400383360303811261160f5761160e6114cf565b5b82810191505092915050565b6000602082019050919050565b600061163483856114aa565b935083602084028501611646846114bb565b8060005b8781101561168a57848403895261166182846115f3565b61166b85826115df565b94506116768361161b565b925060208a0199505060018101905061164a565b50829750879450505050509392505050565b60006060820190506116b1600083018861144e565b81810360208301526116c481868861147d565b905081810360408301526116d9818486611628565b90509695505050505050565b6000815190506116f481610c53565b92915050565b6000602082840312156117105761170f610acf565b5b600061171e848285016116e5565b91505092915050565b600060408201905061173c600083018561144e565b6117496020830184610c29565b9392505050565b60006020828403121561176657611765610acf565b5b60006117748482850161114c565b91505092915050565b7f4e487b7100000000000000000000000000000000000000000000000000000000600052601160045260246000fd5b60006117b782610703565b9150677fffffffffffffff82036117d1576117d061177d565b5b600182019050919050565b600081905092915050565b50565b60006117f76000836117dc565b9150611802826117e7565b600082019050919050565b6000611818826117ea565b9150819050919050565b600082825260208201905092915050565b7f4661696c656420746f2073656e6420457468657220746f2070726f706f736572600082015250565b6000611869602083611822565b915061187482611833565b602082019050919050565b600060208201905081810360008301526118988161185c565b9050919050565b6000819050919050565b60006118c46118bf6118ba84610cd6565b61189f565b610cd6565b9050919050565b60006118d6826118a9565b9050919050565b60006118e8826118cb565b9050919050565b6118f8816118dd565b82525050565b600060608201905061191360008301886118ef565b818103602083015261192681868861147d565b9050818103604083015261193b818486611628565b90509695505050505050565b600060608201905061195c600083018761144e565b6119696020830186610c29565b818103604083015261197c818486611628565b90509594505050505056fea2646970667358221220466f78eccf0cb7bf37191bdff113617d2521b342e17d2c5b49f672e83cafdb6a64736f6c63430008140033",
  "linkReferences": {},
  "deployedLinkReferences": {}
}