{
  "_format": "hh-sol-artifact-1",
  "contractName": "GovCaller",
  "sourceName": "solidity/precompiles/testutil/contracts/GovCaller.sol",
  "abi": [
    {
      "inputs": [],
      "name": "counter",
      "outputs": [
        {
          "internalType": "int64",
          "name": "",
          "type": "int64"
        }
      ],
      "stateMutability": "view",
      "type": "function"
    },
    {
      "inputs": [],
      "name": "deposit",
      "outputs": [],
      "stateMutability": "payable",
      "type": "function"
    },
    {
      "inputs": [],
      "name": "getParams",
      "outputs": [
        {
          "components": [
            {
              "internalType": "int64",
              "name": "votingPeriod",
              "type": "int64"
            },
            {
              "components": [
                {
                  "internalType": "string",
                  "name": "denom",
                  "type": "string"
                },
                {
                  "internalType": "uint256",
                  "name": "amount",
                  "type": "uint256"
                }
              ],
              "internalType": "struct Coin[]",
              "name": "minDeposit",
              "type": "tuple[]"
            },
            {
              "internalType": "int64",
              "name": "maxDepositPeriod",
              "type": "int64"
            },
            {
              "internalType": "string",
              "name": "quorum",
              "type": "string"
            },
            {
              "internalType": "string",
              "name": "threshold",
              "type": "string"
            },
            {
              "internalType": "string",
              "name": "vetoThreshold",
              "type": "string"
            },
            {
              "internalType": "string",
              "name": "minInitialDepositRatio",
              "type": "string"
            },
            {
              "internalType": "string",
              "name": "proposalCancelRatio",
              "type": "string"
            },
            {
              "internalType": "string",
              "name": "proposalCancelDest",
              "type": "string"
            },
            {
              "internalType": "int64",
              "name": "expeditedVotingPeriod",
              "type": "int64"
            },
            {
              "internalType": "string",
              "name": "expeditedThreshold",
              "type": "string"
            },
            {
              "components": [
                {
                  "internalType": "string",
                  "name": "denom",
                  "type": "string"
                },
                {
                  "internalType": "uint256",
                  "name": "amount",
                  "type": "uint256"
                }
              ],
              "internalType": "struct Coin[]",
              "name": "expeditedMinDeposit",
              "type": "tuple[]"
            },
            {
              "internalType": "bool",
              "name": "burnVoteQuorum",
              "type": "bool"
            },
            {
              "internalType": "bool",
              "name": "burnProposalDepositPrevote",
              "type": "bool"
            },
            {
              "internalType": "bool",
              "name": "burnVoteVeto",
              "type": "bool"
            },
            {
              "internalType": "string",
              "name": "minDepositRatio",
              "type": "string"
            }
          ],
          "internalType": "struct Params",
          "name": "params",
          "type": "tuple"
        }
      ],
      "stateMutability": "view",
      "type": "function"
    },
    {
      "inputs": [
        {
          "internalType": "address payable",
          "name": "_randomAddr",
          "type": "address"
        },
        {
          "internalType": "uint64",
          "name": "_proposalId",
          "type": "uint64"
        },
        {
          "internalType": "bool",
          "name": "_before",
          "type": "bool"
        },
        {
          "internalType": "bool",
          "name": "_after",
          "type": "bool"
        }
      ],
      "name": "testCancelFromContractWithTransfer",
      "outputs": [
        {
          "internalType": "bool",
          "name": "success",
          "type": "bool"
        }
      ],
      "stateMutability": "payable",
      "type": "function"
    },
    {
      "inputs": [
        {
          "internalType": "uint64",
          "name": "_proposalId",
          "type": "uint64"
        }
      ],
      "name": "testCancelProposalFromContract",
      "outputs": [
        {
          "internalType": "bool",
          "name": "success",
          "type": "bool"
        }
      ],
      "stateMutability": "payable",
      "type": "function"
    },
    {
      "inputs": [
        {
          "internalType": "uint64",
          "name": "_proposalId",
          "type": "uint64"
        },
        {
          "internalType": "bool",
          "name": "_before",
          "type": "bool"
        },
        {
          "internalType": "bool",
          "name": "_after",
          "type": "bool"
        }
      ],
      "name": "testCancelWithTransfer",
      "outputs": [
        {
          "internalType": "bool",
          "name": "success",
          "type": "bool"
        }
      ],
      "stateMutability": "payable",
      "type": "function"
    },
    {
      "inputs": [
        {
          "internalType": "address payable",
          "name": "_depositorAddr",
          "type": "address"
        },
        {
          "internalType": "uint64",
          "name": "_proposalId",
          "type": "uint64"
        },
        {
          "components": [
            {
              "internalType": "string",
              "name": "denom",
              "type": "string"
            },
            {
              "internalType": "uint256",
              "name": "amount",
              "type": "uint256"
            }
          ],
          "internalType": "struct Coin[]",
          "name": "_deposit",
          "type": "tuple[]"
        }
      ],
      "name": "testDeposit",
      "outputs": [
        {
          "internalType": "bool",
          "name": "success",
          "type": "bool"
        }
      ],
      "stateMutability": "payable",
      "type": "function"
    },
    {
      "inputs": [
        {
          "internalType": "uint64",
          "name": "_proposalId",
          "type": "uint64"
        },
        {
          "components": [
            {
              "internalType": "string",
              "name": "denom",
              "type": "string"
            },
            {
              "internalType": "uint256",
              "name": "amount",
              "type": "uint256"
            }
          ],
          "internalType": "struct Coin[]",
          "name": "_deposit",
          "type": "tuple[]"
        }
      ],
      "name": "testDepositFromContract",
      "outputs": [
        {
          "internalType": "bool",
          "name": "success",
          "type": "bool"
        }
      ],
      "stateMutability": "payable",
      "type": "function"
    },
    {
      "inputs": [
        {
          "internalType": "address payable",
          "name": "_randomAddr",
          "type": "address"
        },
        {
          "internalType": "uint64",
          "name": "_proposalId",
          "type": "uint64"
        },
        {
          "components": [
            {
              "internalType": "string",
              "name": "denom",
              "type": "string"
            },
            {
              "internalType": "uint256",
              "name": "amount",
              "type": "uint256"
            }
          ],
          "internalType": "struct Coin[]",
          "name": "_deposit",
          "type": "tuple[]"
        },
        {
          "internalType": "bool",
          "name": "_before",
          "type": "bool"
        },
        {
          "internalType": "bool",
          "name": "_after",
          "type": "bool"
        }
      ],
      "name": "testDepositFromContractWithTransfer",
      "outputs": [
        {
          "internalType": "bool",
          "name": "success",
          "type": "bool"
        }
      ],
      "stateMutability": "payable",
      "type": "function"
    },
    {
      "inputs": [
        {
          "internalType": "uint64",
          "name": "_proposalId",
          "type": "uint64"
        },
        {
          "components": [
            {
              "internalType": "string",
              "name": "denom",
              "type": "string"
            },
            {
              "internalType": "uint256",
              "name": "amount",
              "type": "uint256"
            }
          ],
          "internalType": "struct Coin[]",
          "name": "_deposit",
          "type": "tuple[]"
        },
        {
          "internalType": "bool",
          "name": "_before",
          "type": "bool"
        },
        {
          "internalType": "bool",
          "name": "_after",
          "type": "bool"
        }
      ],
      "name": "testDepositWithTransfer",
      "outputs": [
        {
          "internalType": "bool",
          "name": "success",
          "type": "bool"
        }
      ],
      "stateMutability": "payable",
      "type": "function"
    },
    {
      "inputs": [
        {
          "internalType": "address",
          "name": "depositor",
          "type": "address"
        },
        {
          "internalType": "string",
          "name": "validatorAddress",
          "type": "string"
        },
        {
          "components": [
            {
              "internalType": "string",
              "name": "denom",
              "type": "string"
            },
            {
              "internalType": "uint256",
              "name": "amount",
              "type": "uint256"
            }
          ],
          "internalType": "struct Coin[]",
          "name": "amount",
          "type": "tuple[]"
        }
      ],
      "name": "testFundCommunityPool",
      "outputs": [
        {
          "internalType": "bool",
          "name": "success",
          "type": "bool"
        }
      ],
      "stateMutability": "nonpayable",
      "type": "function"
    },
    {
      "inputs": [
        {
          "internalType": "address",
          "name": "_proposerAddr",
          "type": "address"
        },
        {
          "internalType": "bytes",
          "name": "_jsonProposal",
          "type": "bytes"
        },
        {
          "components": [
            {
              "internalType": "string",
              "name": "denom",
              "type": "string"
            },
            {
              "internalType": "uint256",
              "name": "amount",
              "type": "uint256"
            }
          ],
          "internalType": "struct Coin[]",
          "name": "_deposit",
          "type": "tuple[]"
        }
      ],
      "name": "testSubmitProposal",
      "outputs": [
        {
          "internalType": "uint64",
          "name": "proposalId",
          "type": "uint64"
        }
      ],
      "stateMutability": "payable",
      "type": "function"
    },
    {
      "inputs": [
        {
          "internalType": "bytes",
          "name": "_jsonProposal",
          "type": "bytes"
        },
        {
          "components": [
            {
              "internalType": "string",
              "name": "denom",
              "type": "string"
            },
            {
              "internalType": "uint256",
              "name": "amount",
              "type": "uint256"
            }
          ],
          "internalType": "struct Coin[]",
          "name": "_deposit",
          "type": "tuple[]"
        }
      ],
      "name": "testSubmitProposalFromContract",
      "outputs": [
        {
          "internalType": "uint64",
          "name": "proposalId",
          "type": "uint64"
        }
      ],
      "stateMutability": "payable",
      "type": "function"
    },
    {
      "inputs": [
        {
          "internalType": "address payable",
          "name": "_randomAddr",
          "type": "address"
        },
        {
          "internalType": "bytes",
          "name": "_jsonProposal",
          "type": "bytes"
        },
        {
          "components": [
            {
              "internalType": "string",
              "name": "denom",
              "type": "string"
            },
            {
              "internalType": "uint256",
              "name": "amount",
              "type": "uint256"
            }
          ],
          "internalType": "struct Coin[]",
          "name": "_deposit",
          "type": "tuple[]"
        },
        {
          "internalType": "bool",
          "name": "_before",
          "type": "bool"
        },
        {
          "internalType": "bool",
          "name": "_after",
          "type": "bool"
        }
      ],
      "name": "testSubmitProposalFromContractWithTransfer",
      "outputs": [
        {
          "internalType": "uint64",
          "name": "",
          "type": "uint64"
        }
      ],
      "stateMutability": "payable",
      "type": "function"
    },
    {
      "inputs": [
        {
          "internalType": "bytes",
          "name": "_jsonProposal",
          "type": "bytes"
        },
        {
          "components": [
            {
              "internalType": "string",
              "name": "denom",
              "type": "string"
            },
            {
              "internalType": "uint256",
              "name": "amount",
              "type": "uint256"
            }
          ],
          "internalType": "struct Coin[]",
          "name": "_deposit",
          "type": "tuple[]"
        },
        {
          "internalType": "bool",
          "name": "_before",
          "type": "bool"
        },
        {
          "internalType": "bool",
          "name": "_after",
          "type": "bool"
        }
      ],
      "name": "testSubmitProposalWithTransfer",
      "outputs": [
        {
          "internalType": "uint64",
          "name": "",
          "type": "uint64"
        }
      ],
      "stateMutability": "payable",
      "type": "function"
    },
    {
      "inputs": [
        {
          "internalType": "address payable",
          "name": "depositor",
          "type": "address"
        },
        {
          "internalType": "uint64",
          "name": "_proposalId",
          "type": "uint64"
        },
        {
          "internalType": "bytes",
          "name": "denom",
          "type": "bytes"
        },
        {
          "internalType": "string",
          "name": "validatorAddress",
          "type": "string"
        }
      ],
      "name": "testTransferCancelFund",
      "outputs": [
        {
          "internalType": "bool",
          "name": "success",
          "type": "bool"
        }
      ],
      "stateMutability": "payable",
      "type": "function"
    },
    {
      "stateMutability": "payable",
      "type": "receive"
    }
  ],
  "bytecode": "0x608060405234801561001057600080fd5b50613cdc806100206000396000f3fe6080604052600436106100f75760003560e01c80638e7431d31161008a578063bc7bdf7511610059578063bc7bdf7514610346578063d0e30db014610376578063e8702c3414610380578063ed6c08f7146103b0576100fe565b80638e7431d31461027957806391d6d8e7146102a957806397fd84d2146102d9578063b94c982214610309576100fe565b806361bc221a116100c657806361bc221a146101be57806361f09ad2146101e957806372ff5ec4146102195780637726ece014610249576100fe565b80630f6265fb14610103578063258691e21461013357806326c11ffa146101635780635e615a6b14610193576100fe565b366100fe57005b600080fd5b61011d60048036038101906101189190611fc8565b6103e0565b60405161012a9190612087565b60405180910390f35b61014d600480360381019061014891906120ce565b610901565b60405161015a9190612087565b60405180910390f35b61017d60048036038101906101789190612135565b610b87565b60405161018a9190612087565b60405180910390f35b34801561019f57600080fd5b506101a8610e0c565b6040516101b591906124e1565b60405180910390f35b3480156101ca57600080fd5b506101d3610e8f565b6040516101e09190612512565b60405180910390f35b61020360048036038101906101fe9190612583565b610ea0565b6040516102109190612613565b60405180910390f35b610233600480360381019061022e919061262e565b610f32565b6040516102409190612087565b60405180910390f35b610263600480360381019061025e91906126b6565b6111bd565b6040516102709190612613565b60405180910390f35b610293600480360381019061028e9190612772565b611452565b6040516102a09190612087565b60405180910390f35b6102c360048036038101906102be91906127e6565b6114e2565b6040516102d09190612613565b60405180910390f35b6102f360048036038101906102ee919061288d565b611776565b6040516103009190612087565b60405180910390f35b34801561031557600080fd5b50610330600480360381019061032b9190612a7b565b6117ff565b60405161033d9190612087565b60405180910390f35b610360600480360381019061035b9190612b06565b61191a565b60405161036d9190612087565b60405180910390f35b61037e6119a9565b005b61039a60048036038101906103959190612b66565b6119ab565b6040516103a79190612613565b60405180910390f35b6103ca60048036038101906103c59190612bfb565b611a3e565b6040516103d79190612087565b60405180910390f35b60008086905060008081819054906101000a900460070b8092919061040490612cc4565b91906101000a81548167ffffffffffffffff021916908360070b67ffffffffffffffff1602179055505060008773ffffffffffffffffffffffffffffffffffffffff16600160405161045590612d25565b60006040518083038185875af1925050503d8060008114610492576040519150601f19603f3d011682016040523d82523d6000602084013e610497565b606091505b50509050806104db576040517f08c379a00000000000000000000000000000000000000000000000000000000081526004016104d290612dbd565b60405180910390fd5b61080573ffffffffffffffffffffffffffffffffffffffff1663a33e308630896040518363ffffffff1660e01b8152600401610518929190612dec565b6020604051808303816000875af192505050801561055457506040513d601f19601f820116820180604052508101906105519190612e2a565b60015b61061857610560612e64565b806308c379a0036105db5750610574612e86565b8061057f57506105dd565b806040516020016105909190612f9e565b6040516020818303038152906040526040517f08c379a00000000000000000000000000000000000000000000000000000000081526004016105d29190612ff9565b60405180910390fd5b505b6040517f08c379a000000000000000000000000000000000000000000000000000000000815260040161060f90613067565b60405180910390fd5b80610658576040517f08c379a000000000000000000000000000000000000000000000000000000000815260040161064f906130d3565b60405180910390fd5b5060008081819054906101000a900460070b8092919061067790612cc4565b91906101000a81548167ffffffffffffffff021916908360070b67ffffffffffffffff160217905550506000600167ffffffffffffffff8111156106be576106bd611e9d565b5b6040519080825280602002602001820160405280156106f757816020015b6106e4611cca565b8152602001906001900390816106dc5790505b509050604051806040016040528088888080601f016020809104026020016040519081016040528093929190818152602001838380828437600081840152601f19601f820116905080830192505050505050508152602001600281525081600081518110610768576107676130f3565b5b60200260200101819052508273ffffffffffffffffffffffffffffffffffffffff1663b94c98228a87846040518463ffffffff1660e01b81526004016107b0939291906131a8565b6020604051808303816000875af19250505080156107ec57506040513d601f19601f820116820180604052508101906107e99190612e2a565b60015b6108b0576107f8612e64565b806308c379a003610873575061080c612e86565b806108175750610875565b806040516020016108289190613239565b6040516020818303038152906040526040517f08c379a000000000000000000000000000000000000000000000000000000000815260040161086a9190612ff9565b60405180910390fd5b505b6040517f08c379a00000000000000000000000000000000000000000000000000000000081526004016108a7906132cd565b60405180910390fd5b806108f0576040517f08c379a00000000000000000000000000000000000000000000000000000000081526004016108e790613339565b60405180910390fd5b506001935050505095945050505050565b60008215610a005760008081819054906101000a900460070b8092919061092790612cc4565b91906101000a81548167ffffffffffffffff021916908360070b67ffffffffffffffff1602179055505060008573ffffffffffffffffffffffffffffffffffffffff16600f60405161097890612d25565b60006040518083038185875af1925050503d80600081146109b5576040519150601f19603f3d011682016040523d82523d6000602084013e6109ba565b606091505b50509050806109fe576040517f08c379a00000000000000000000000000000000000000000000000000000000081526004016109f5906133a5565b60405180910390fd5b505b61080573ffffffffffffffffffffffffffffffffffffffff1663a33e308630866040518363ffffffff1660e01b8152600401610a3d929190612dec565b6020604051808303816000875af1158015610a5c573d6000803e3d6000fd5b505050506040513d601f19601f82011682018060405250810190610a809190612e2a565b90508115610b7f5760008081819054906101000a900460070b80929190610aa690612cc4565b91906101000a81548167ffffffffffffffff021916908360070b67ffffffffffffffff1602179055505060008573ffffffffffffffffffffffffffffffffffffffff16600f604051610af790612d25565b60006040518083038185875af1925050503d8060008114610b34576040519150601f19603f3d011682016040523d82523d6000602084013e610b39565b606091505b5050905080610b7d576040517f08c379a0000000000000000000000000000000000000000000000000000000008152600401610b74906133a5565b60405180910390fd5b505b949350505050565b60008215610c865760008081819054906101000a900460070b80929190610bad90612cc4565b91906101000a81548167ffffffffffffffff021916908360070b67ffffffffffffffff1602179055505060003373ffffffffffffffffffffffffffffffffffffffff16600f604051610bfe90612d25565b60006040518083038185875af1925050503d8060008114610c3b576040519150601f19603f3d011682016040523d82523d6000602084013e610c40565b606091505b5050905080610c84576040517f08c379a0000000000000000000000000000000000000000000000000000000008152600401610c7b906133a5565b60405180910390fd5b505b61080573ffffffffffffffffffffffffffffffffffffffff1663a33e308630866040518363ffffffff1660e01b8152600401610cc3929190612dec565b6020604051808303816000875af1158015610ce2573d6000803e3d6000fd5b505050506040513d601f19601f82011682018060405250810190610d069190612e2a565b90508115610e055760008081819054906101000a900460070b80929190610d2c90612cc4565b91906101000a81548167ffffffffffffffff021916908360070b67ffffffffffffffff1602179055505060003373ffffffffffffffffffffffffffffffffffffffff16600f604051610d7d90612d25565b60006040518083038185875af1925050503d8060008114610dba576040519150601f19603f3d011682016040523d82523d6000602084013e610dbf565b606091505b5050905080610e03576040517f08c379a0000000000000000000000000000000000000000000000000000000008152600401610dfa906133a5565b60405180910390fd5b505b9392505050565b610e14611ce4565b61080573ffffffffffffffffffffffffffffffffffffffff16635e615a6b6040518163ffffffff1660e01b8152600401600060405180830381865afa158015610e61573d6000803e3d6000fd5b505050506040513d6000823e3d601f19601f82011682018060405250810190610e8a9190613829565b905090565b60008054906101000a900460070b81565b600061080573ffffffffffffffffffffffffffffffffffffffff1663a8fdc91930878787876040518663ffffffff1660e01b8152600401610ee5959493929190613a7c565b6020604051808303816000875af1158015610f04573d6000803e3d6000fd5b505050506040513d601f19601f82011682018060405250810190610f289190613ada565b9050949350505050565b600082156110315760008081819054906101000a900460070b80929190610f5890612cc4565b91906101000a81548167ffffffffffffffff021916908360070b67ffffffffffffffff1602179055505060003373ffffffffffffffffffffffffffffffffffffffff16600f604051610fa990612d25565b60006040518083038185875af1925050503d8060008114610fe6576040519150601f19603f3d011682016040523d82523d6000602084013e610feb565b606091505b505090508061102f576040517f08c379a0000000000000000000000000000000000000000000000000000000008152600401611026906133a5565b60405180910390fd5b505b61080573ffffffffffffffffffffffffffffffffffffffff1663b24b0376308888886040518563ffffffff1660e01b81526004016110729493929190613b07565b6020604051808303816000875af1158015611091573d6000803e3d6000fd5b505050506040513d601f19601f820116820180604052508101906110b59190612e2a565b905081156111b45760008081819054906101000a900460070b809291906110db90612cc4565b91906101000a81548167ffffffffffffffff021916908360070b67ffffffffffffffff1602179055505060003373ffffffffffffffffffffffffffffffffffffffff16600f60405161112c90612d25565b60006040518083038185875af1925050503d8060008114611169576040519150601f19603f3d011682016040523d82523d6000602084013e61116e565b606091505b50509050806111b2576040517f08c379a00000000000000000000000000000000000000000000000000000000081526004016111a9906133a5565b60405180910390fd5b505b95945050505050565b600082156112bc5760008081819054906101000a900460070b809291906111e390612cc4565b91906101000a81548167ffffffffffffffff021916908360070b67ffffffffffffffff1602179055505060008873ffffffffffffffffffffffffffffffffffffffff16600f60405161123490612d25565b60006040518083038185875af1925050503d8060008114611271576040519150601f19603f3d011682016040523d82523d6000602084013e611276565b606091505b50509050806112ba576040517f08c379a00000000000000000000000000000000000000000000000000000000081526004016112b1906133a5565b60405180910390fd5b505b600061080573ffffffffffffffffffffffffffffffffffffffff1663a8fdc919308a8a8a8a6040518663ffffffff1660e01b8152600401611301959493929190613a7c565b6020604051808303816000875af1158015611320573d6000803e3d6000fd5b505050506040513d601f19601f820116820180604052508101906113449190613ada565b905082156114435760008081819054906101000a900460070b8092919061136a90612cc4565b91906101000a81548167ffffffffffffffff021916908360070b67ffffffffffffffff1602179055505060008973ffffffffffffffffffffffffffffffffffffffff16600f6040516113bb90612d25565b60006040518083038185875af1925050503d80600081146113f8576040519150601f19603f3d011682016040523d82523d6000602084013e6113fd565b606091505b5050905080611441576040517f08c379a0000000000000000000000000000000000000000000000000000000008152600401611438906133a5565b60405180910390fd5b505b80915050979650505050505050565b600061080573ffffffffffffffffffffffffffffffffffffffff1663b24b0376868686866040518563ffffffff1660e01b81526004016114959493929190613ba6565b6020604051808303816000875af11580156114b4573d6000803e3d6000fd5b505050506040513d601f19601f820116820180604052508101906114d89190612e2a565b9050949350505050565b600082156115e15760008081819054906101000a900460070b8092919061150890612cc4565b91906101000a81548167ffffffffffffffff021916908360070b67ffffffffffffffff1602179055505060003373ffffffffffffffffffffffffffffffffffffffff16600f60405161155990612d25565b60006040518083038185875af1925050503d8060008114611596576040519150601f19603f3d011682016040523d82523d6000602084013e61159b565b606091505b50509050806115df576040517f08c379a00000000000000000000000000000000000000000000000000000000081526004016115d6906133a5565b60405180910390fd5b505b600061080573ffffffffffffffffffffffffffffffffffffffff1663a8fdc919308a8a8a8a6040518663ffffffff1660e01b8152600401611626959493929190613a7c565b6020604051808303816000875af1158015611645573d6000803e3d6000fd5b505050506040513d601f19601f820116820180604052508101906116699190613ada565b905082156117685760008081819054906101000a900460070b8092919061168f90612cc4565b91906101000a81548167ffffffffffffffff021916908360070b67ffffffffffffffff1602179055505060003373ffffffffffffffffffffffffffffffffffffffff16600f6040516116e090612d25565b60006040518083038185875af1925050503d806000811461171d576040519150601f19603f3d011682016040523d82523d6000602084013e611722565b606091505b5050905080611766576040517f08c379a000000000000000000000000000000000000000000000000000000000815260040161175d906133a5565b60405180910390fd5b505b809150509695505050505050565b600061080573ffffffffffffffffffffffffffffffffffffffff1663a33e308630846040518363ffffffff1660e01b81526004016117b5929190612dec565b6020604051808303816000875af11580156117d4573d6000803e3d6000fd5b505050506040513d601f19601f820116820180604052508101906117f89190612e2a565b9050919050565b600060016000808282829054906101000a900460070b61181f9190613be6565b92506101000a81548167ffffffffffffffff021916908360070b67ffffffffffffffff16021790555061080173ffffffffffffffffffffffffffffffffffffffff16632eb1df528585856040518463ffffffff1660e01b8152600401611887939291906131a8565b6020604051808303816000875af11580156118a6573d6000803e3d6000fd5b505050506040513d601f19601f820116820180604052508101906118ca9190612e2a565b905060016000808282829054906101000a900460070b6118ea9190613c46565b92506101000a81548167ffffffffffffffff021916908360070b67ffffffffffffffff1602179055509392505050565b600061080573ffffffffffffffffffffffffffffffffffffffff1663b24b0376308686866040518563ffffffff1660e01b815260040161195d9493929190613b07565b6020604051808303816000875af115801561197c573d6000803e3d6000fd5b505050506040513d601f19601f820116820180604052508101906119a09190612e2a565b90509392505050565b565b600061080573ffffffffffffffffffffffffffffffffffffffff1663a8fdc91987878787876040518663ffffffff1660e01b81526004016119f0959493929190613a7c565b6020604051808303816000875af1158015611a0f573d6000803e3d6000fd5b505050506040513d601f19601f82011682018060405250810190611a339190613ada565b905095945050505050565b60008215611b3d5760008081819054906101000a900460070b80929190611a6490612cc4565b91906101000a81548167ffffffffffffffff021916908360070b67ffffffffffffffff1602179055505060008773ffffffffffffffffffffffffffffffffffffffff16600f604051611ab590612d25565b60006040518083038185875af1925050503d8060008114611af2576040519150601f19603f3d011682016040523d82523d6000602084013e611af7565b606091505b5050905080611b3b576040517f08c379a0000000000000000000000000000000000000000000000000000000008152600401611b32906133a5565b60405180910390fd5b505b61080573ffffffffffffffffffffffffffffffffffffffff1663b24b0376308888886040518563ffffffff1660e01b8152600401611b7e9493929190613b07565b6020604051808303816000875af1158015611b9d573d6000803e3d6000fd5b505050506040513d601f19601f82011682018060405250810190611bc19190612e2a565b90508115611cc05760008081819054906101000a900460070b80929190611be790612cc4565b91906101000a81548167ffffffffffffffff021916908360070b67ffffffffffffffff1602179055505060008773ffffffffffffffffffffffffffffffffffffffff16600f604051611c3890612d25565b60006040518083038185875af1925050503d8060008114611c75576040519150601f19603f3d011682016040523d82523d6000602084013e611c7a565b606091505b5050905080611cbe576040517f08c379a0000000000000000000000000000000000000000000000000000000008152600401611cb5906133a5565b60405180910390fd5b505b9695505050505050565b604051806040016040528060608152602001600081525090565b604051806102000160405280600060070b815260200160608152602001600060070b8152602001606081526020016060815260200160608152602001606081526020016060815260200160608152602001600060070b81526020016060815260200160608152602001600015158152602001600015158152602001600015158152602001606081525090565b6000604051905090565b600080fd5b600080fd5b600073ffffffffffffffffffffffffffffffffffffffff82169050919050565b6000611daf82611d84565b9050919050565b611dbf81611da4565b8114611dca57600080fd5b50565b600081359050611ddc81611db6565b92915050565b600067ffffffffffffffff82169050919050565b611dff81611de2565b8114611e0a57600080fd5b50565b600081359050611e1c81611df6565b92915050565b600080fd5b600080fd5b600080fd5b60008083601f840112611e4757611e46611e22565b5b8235905067ffffffffffffffff811115611e6457611e63611e27565b5b602083019150836001820283011115611e8057611e7f611e2c565b5b9250929050565b600080fd5b6000601f19601f8301169050919050565b7f4e487b7100000000000000000000000000000000000000000000000000000000600052604160045260246000fd5b611ed582611e8c565b810181811067ffffffffffffffff82111715611ef457611ef3611e9d565b5b80604052505050565b6000611f07611d70565b9050611f138282611ecc565b919050565b600067ffffffffffffffff821115611f3357611f32611e9d565b5b611f3c82611e8c565b9050602081019050919050565b82818337600083830152505050565b6000611f6b611f6684611f18565b611efd565b905082815260208101848484011115611f8757611f86611e87565b5b611f92848285611f49565b509392505050565b600082601f830112611faf57611fae611e22565b5b8135611fbf848260208601611f58565b91505092915050565b600080600080600060808688031215611fe457611fe3611d7a565b5b6000611ff288828901611dcd565b955050602061200388828901611e0d565b945050604086013567ffffffffffffffff81111561202457612023611d7f565b5b61203088828901611e31565b9350935050606086013567ffffffffffffffff81111561205357612052611d7f565b5b61205f88828901611f9a565b9150509295509295909350565b60008115159050919050565b6120818161206c565b82525050565b600060208201905061209c6000830184612078565b92915050565b6120ab8161206c565b81146120b657600080fd5b50565b6000813590506120c8816120a2565b92915050565b600080600080608085870312156120e8576120e7611d7a565b5b60006120f687828801611dcd565b945050602061210787828801611e0d565b9350506040612118878288016120b9565b9250506060612129878288016120b9565b91505092959194509250565b60008060006060848603121561214e5761214d611d7a565b5b600061215c86828701611e0d565b935050602061216d868287016120b9565b925050604061217e868287016120b9565b9150509250925092565b60008160070b9050919050565b61219e81612188565b82525050565b600081519050919050565b600082825260208201905092915050565b6000819050602082019050919050565b600081519050919050565b600082825260208201905092915050565b60005b8381101561220a5780820151818401526020810190506121ef565b60008484015250505050565b6000612221826121d0565b61222b81856121db565b935061223b8185602086016121ec565b61224481611e8c565b840191505092915050565b6000819050919050565b6122628161224f565b82525050565b600060408301600083015184820360008601526122858282612216565b915050602083015161229a6020860182612259565b508091505092915050565b60006122b18383612268565b905092915050565b6000602082019050919050565b60006122d1826121a4565b6122db81856121af565b9350836020820285016122ed856121c0565b8060005b85811015612329578484038952815161230a85826122a5565b9450612315836122b9565b925060208a019950506001810190506122f1565b50829750879550505050505092915050565b6123448161206c565b82525050565b6000610200830160008301516123636000860182612195565b506020830151848203602086015261237b82826122c6565b91505060408301516123906040860182612195565b50606083015184820360608601526123a88282612216565b915050608083015184820360808601526123c28282612216565b91505060a083015184820360a08601526123dc8282612216565b91505060c083015184820360c08601526123f68282612216565b91505060e083015184820360e08601526124108282612216565b91505061010083015184820361010086015261242c8282612216565b915050610120830151612443610120860182612195565b5061014083015184820361014086015261245d8282612216565b91505061016083015184820361016086015261247982826122c6565b91505061018083015161249061018086018261233b565b506101a08301516124a56101a086018261233b565b506101c08301516124ba6101c086018261233b565b506101e08301518482036101e08601526124d48282612216565b9150508091505092915050565b600060208201905081810360008301526124fb818461234a565b905092915050565b61250c81612188565b82525050565b60006020820190506125276000830184612503565b92915050565b60008083601f84011261254357612542611e22565b5b8235905067ffffffffffffffff8111156125605761255f611e27565b5b60208301915083602082028301111561257c5761257b611e2c565b5b9250929050565b6000806000806040858703121561259d5761259c611d7a565b5b600085013567ffffffffffffffff8111156125bb576125ba611d7f565b5b6125c787828801611e31565b9450945050602085013567ffffffffffffffff8111156125ea576125e9611d7f565b5b6125f68782880161252d565b925092505092959194509250565b61260d81611de2565b82525050565b60006020820190506126286000830184612604565b92915050565b60008060008060006080868803121561264a57612649611d7a565b5b600061265888828901611e0d565b955050602086013567ffffffffffffffff81111561267957612678611d7f565b5b6126858882890161252d565b94509450506040612698888289016120b9565b92505060606126a9888289016120b9565b9150509295509295909350565b600080600080600080600060a0888a0312156126d5576126d4611d7a565b5b60006126e38a828b01611dcd565b975050602088013567ffffffffffffffff81111561270457612703611d7f565b5b6127108a828b01611e31565b9650965050604088013567ffffffffffffffff81111561273357612732611d7f565b5b61273f8a828b0161252d565b945094505060606127528a828b016120b9565b92505060806127638a828b016120b9565b91505092959891949750929550565b6000806000806060858703121561278c5761278b611d7a565b5b600061279a87828801611dcd565b94505060206127ab87828801611e0d565b935050604085013567ffffffffffffffff8111156127cc576127cb611d7f565b5b6127d88782880161252d565b925092505092959194509250565b6000806000806000806080878903121561280357612802611d7a565b5b600087013567ffffffffffffffff81111561282157612820611d7f565b5b61282d89828a01611e31565b9650965050602087013567ffffffffffffffff8111156128505761284f611d7f565b5b61285c89828a0161252d565b9450945050604061286f89828a016120b9565b925050606061288089828a016120b9565b9150509295509295509295565b6000602082840312156128a3576128a2611d7a565b5b60006128b184828501611e0d565b91505092915050565b60006128c582611d84565b9050919050565b6128d5816128ba565b81146128e057600080fd5b50565b6000813590506128f2816128cc565b92915050565b600067ffffffffffffffff82111561291357612912611e9d565b5b602082029050602081019050919050565b600080fd5b600080fd5b6129378161224f565b811461294257600080fd5b50565b6000813590506129548161292e565b92915050565b6000604082840312156129705761296f612924565b5b61297a6040611efd565b9050600082013567ffffffffffffffff81111561299a57612999612929565b5b6129a684828501611f9a565b60008301525060206129ba84828501612945565b60208301525092915050565b60006129d96129d4846128f8565b611efd565b905080838252602082019050602084028301858111156129fc576129fb611e2c565b5b835b81811015612a4357803567ffffffffffffffff811115612a2157612a20611e22565b5b808601612a2e898261295a565b855260208501945050506020810190506129fe565b5050509392505050565b600082601f830112612a6257612a61611e22565b5b8135612a728482602086016129c6565b91505092915050565b600080600060608486031215612a9457612a93611d7a565b5b6000612aa2868287016128e3565b935050602084013567ffffffffffffffff811115612ac357612ac2611d7f565b5b612acf86828701611f9a565b925050604084013567ffffffffffffffff811115612af057612aef611d7f565b5b612afc86828701612a4d565b9150509250925092565b600080600060408486031215612b1f57612b1e611d7a565b5b6000612b2d86828701611e0d565b935050602084013567ffffffffffffffff811115612b4e57612b4d611d7f565b5b612b5a8682870161252d565b92509250509250925092565b600080600080600060608688031215612b8257612b81611d7a565b5b6000612b90888289016128e3565b955050602086013567ffffffffffffffff811115612bb157612bb0611d7f565b5b612bbd88828901611e31565b9450945050604086013567ffffffffffffffff811115612be057612bdf611d7f565b5b612bec8882890161252d565b92509250509295509295909350565b60008060008060008060a08789031215612c1857612c17611d7a565b5b6000612c2689828a01611dcd565b9650506020612c3789828a01611e0d565b955050604087013567ffffffffffffffff811115612c5857612c57611d7f565b5b612c6489828a0161252d565b94509450506060612c7789828a016120b9565b9250506080612c8889828a016120b9565b9150509295509295509295565b7f4e487b7100000000000000000000000000000000000000000000000000000000600052601160045260246000fd5b6000612ccf82612188565b9150677fffffffffffffff8203612ce957612ce8612c95565b5b600182019050919050565b600081905092915050565b50565b6000612d0f600083612cf4565b9150612d1a82612cff565b600082019050919050565b6000612d3082612d02565b9150819050919050565b600082825260208201905092915050565b7f4661696c656420746f2073656e6420457468657220746f206465706f7369746f60008201527f7200000000000000000000000000000000000000000000000000000000000000602082015250565b6000612da7602183612d3a565b9150612db282612d4b565b604082019050919050565b60006020820190508181036000830152612dd681612d9a565b9050919050565b612de6816128ba565b82525050565b6000604082019050612e016000830185612ddd565b612e0e6020830184612604565b9392505050565b600081519050612e24816120a2565b92915050565b600060208284031215612e4057612e3f611d7a565b5b6000612e4e84828501612e15565b91505092915050565b60008160e01c9050919050565b600060033d1115612e835760046000803e612e80600051612e57565b90505b90565b600060443d10612f1357612e98611d70565b60043d036004823e80513d602482011167ffffffffffffffff82111715612ec0575050612f13565b808201805167ffffffffffffffff811115612ede5750505050612f13565b80602083010160043d038501811115612efb575050505050612f13565b612f0a82602001850186611ecc565b82955050505050505b90565b600081905092915050565b7f63616e63656c50726f706f73616c206661696c65643a20000000000000000000600082015250565b6000612f57601783612f16565b9150612f6282612f21565b601782019050919050565b6000612f78826121d0565b612f828185612f16565b9350612f928185602086016121ec565b80840191505092915050565b6000612fa982612f4a565b9150612fb58284612f6d565b915081905092915050565b6000612fcb826121d0565b612fd58185612d3a565b9350612fe58185602086016121ec565b612fee81611e8c565b840191505092915050565b600060208201905081810360008301526130138184612fc0565b905092915050565b7f63616e63656c50726f706f73616c206661696c65642073696c656e746c790000600082015250565b6000613051601e83612d3a565b915061305c8261301b565b602082019050919050565b6000602082019050818103600083015261308081613044565b9050919050565b7f63616e63656c50726f706f73616c2072657475726e65642066616c7365000000600082015250565b60006130bd601d83612d3a565b91506130c882613087565b602082019050919050565b600060208201905081810360008301526130ec816130b0565b9050919050565b7f4e487b7100000000000000000000000000000000000000000000000000000000600052603260045260246000fd5b600082825260208201905092915050565b600061313e826121a4565b6131488185613122565b93508360208202850161315a856121c0565b8060005b85811015613196578484038952815161317785826122a5565b9450613182836122b9565b925060208a0199505060018101905061315e565b50829750879550505050505092915050565b60006060820190506131bd6000830186612ddd565b81810360208301526131cf8185612fc0565b905081810360408301526131e38184613133565b9050949350505050565b7f66756e64436f6d6d756e697479506f6f6c206661696c65643a20000000000000600082015250565b6000613223601a83612f16565b915061322e826131ed565b601a82019050919050565b600061324482613216565b91506132508284612f6d565b915081905092915050565b7f66756e64436f6d6d756e697479506f6f6c206661696c65642073696c656e746c60008201527f7900000000000000000000000000000000000000000000000000000000000000602082015250565b60006132b7602183612d3a565b91506132c28261325b565b604082019050919050565b600060208201905081810360008301526132e6816132aa565b9050919050565b7f66756e64436f6d6d756e697479506f6f6c2072657475726e65642066616c7365600082015250565b6000613323602083612d3a565b915061332e826132ed565b602082019050919050565b6000602082019050818103600083015261335281613316565b9050919050565b7f4661696c656420746f2073656e6420457468657220746f2070726f706f736572600082015250565b600061338f602083612d3a565b915061339a82613359565b602082019050919050565b600060208201905081810360008301526133be81613382565b9050919050565b6133ce81612188565b81146133d957600080fd5b50565b6000815190506133eb816133c5565b92915050565b60006134046133ff84611f18565b611efd565b9050828152602081018484840111156134205761341f611e87565b5b61342b8482856121ec565b509392505050565b600082601f83011261344857613447611e22565b5b81516134588482602086016133f1565b91505092915050565b6000815190506134708161292e565b92915050565b60006040828403121561348c5761348b612924565b5b6134966040611efd565b9050600082015167ffffffffffffffff8111156134b6576134b5612929565b5b6134c284828501613433565b60008301525060206134d684828501613461565b60208301525092915050565b60006134f56134f0846128f8565b611efd565b9050808382526020820190506020840283018581111561351857613517611e2c565b5b835b8181101561355f57805167ffffffffffffffff81111561353d5761353c611e22565b5b80860161354a8982613476565b8552602085019450505060208101905061351a565b5050509392505050565b600082601f83011261357e5761357d611e22565b5b815161358e8482602086016134e2565b91505092915050565b600061020082840312156135ae576135ad612924565b5b6135b9610200611efd565b905060006135c9848285016133dc565b600083015250602082015167ffffffffffffffff8111156135ed576135ec612929565b5b6135f984828501613569565b602083015250604061360d848285016133dc565b604083015250606082015167ffffffffffffffff81111561363157613630612929565b5b61363d84828501613433565b606083015250608082015167ffffffffffffffff81111561366157613660612929565b5b61366d84828501613433565b60808301525060a082015167ffffffffffffffff81111561369157613690612929565b5b61369d84828501613433565b60a08301525060c082015167ffffffffffffffff8111156136c1576136c0612929565b5b6136cd84828501613433565b60c08301525060e082015167ffffffffffffffff8111156136f1576136f0612929565b5b6136fd84828501613433565b60e08301525061010082015167ffffffffffffffff81111561372257613721612929565b5b61372e84828501613433565b61010083015250610120613744848285016133dc565b6101208301525061014082015167ffffffffffffffff81111561376a57613769612929565b5b61377684828501613433565b6101408301525061016082015167ffffffffffffffff81111561379c5761379b612929565b5b6137a884828501613569565b610160830152506101806137be84828501612e15565b610180830152506101a06137d484828501612e15565b6101a0830152506101c06137ea84828501612e15565b6101c0830152506101e082015167ffffffffffffffff8111156138105761380f612929565b5b61381c84828501613433565b6101e08301525092915050565b60006020828403121561383f5761383e611d7a565b5b600082015167ffffffffffffffff81111561385d5761385c611d7f565b5b61386984828501613597565b91505092915050565b600082825260208201905092915050565b600061388f8385613872565b935061389c838584611f49565b6138a583611e8c565b840190509392505050565b6000819050919050565b600080fd5b600080fd5b600080fd5b600080833560016020038436030381126138e6576138e56138c4565b5b83810192508235915060208301925067ffffffffffffffff82111561390e5761390d6138ba565b5b600182023603831315613924576139236138bf565b5b509250929050565b600061393883856121db565b9350613945838584611f49565b61394e83611e8c565b840190509392505050565b60006139686020840184612945565b905092915050565b60006040830161398360008401846138c9565b858303600087015261399683828461392c565b925050506139a76020840184613959565b6139b46020860182612259565b508091505092915050565b60006139cb8383613970565b905092915050565b6000823560016040038336030381126139ef576139ee6138c4565b5b82810191505092915050565b6000602082019050919050565b6000613a148385613122565b935083602084028501613a26846138b0565b8060005b87811015613a6a578484038952613a4182846139d3565b613a4b85826139bf565b9450613a56836139fb565b925060208a01995050600181019050613a2a565b50829750879450505050509392505050565b6000606082019050613a916000830188612ddd565b8181036020830152613aa4818688613883565b90508181036040830152613ab9818486613a08565b90509695505050505050565b600081519050613ad481611df6565b92915050565b600060208284031215613af057613aef611d7a565b5b6000613afe84828501613ac5565b91505092915050565b6000606082019050613b1c6000830187612ddd565b613b296020830186612604565b8181036040830152613b3c818486613a08565b905095945050505050565b6000819050919050565b6000613b6c613b67613b6284611d84565b613b47565b611d84565b9050919050565b6000613b7e82613b51565b9050919050565b6000613b9082613b73565b9050919050565b613ba081613b85565b82525050565b6000606082019050613bbb6000830187613b97565b613bc86020830186612604565b8181036040830152613bdb818486613a08565b905095945050505050565b6000613bf182612188565b9150613bfc83612188565b925082820190507fffffffffffffffffffffffffffffffffffffffffffffffff80000000000000008112677fffffffffffffff82131715613c4057613c3f612c95565b5b92915050565b6000613c5182612188565b9150613c5c83612188565b92508282039050677fffffffffffffff81137fffffffffffffffffffffffffffffffffffffffffffffffff800000000000000082121715613ca057613c9f612c95565b5b9291505056fea2646970667358221220bbfe7dbc4bdf974a49ac5207495ab12da4eaef8267c91a5fb3383c64ac59ac0064736f6c63430008140033",
  "linkReferences": {},
  "deployedLinkReferences": {}
}