{
  "_format": "hh-sol-artifact-1",
  "contractName": "GovCaller",
  "sourceName": "solidity/precompiles/testutil/contracts/GovCaller.sol",
  "abi": [
    {
      "inputs": [],
      "name": "counter",
      "outputs": [
        {
          "internalType": "int64",
          "name": "",
          "type": "int64"
        }
      ],
      "stateMutability": "view",
      "type": "function"
    },
    {
      "inputs": [],
      "name": "deposit",
      "outputs": [],
      "stateMutability": "payable",
      "type": "function"
    },
    {
      "inputs": [],
      "name": "getParams",
      "outputs": [
        {
          "components": [
            {
              "internalType": "int64",
              "name": "votingPeriod",
              "type": "int64"
            },
            {
              "components": [
                {
                  "internalType": "string",
                  "name": "denom",
                  "type": "string"
                },
                {
                  "internalType": "uint256",
                  "name": "amount",
                  "type": "uint256"
                }
              ],
              "internalType": "struct Coin[]",
              "name": "minDeposit",
              "type": "tuple[]"
            },
            {
              "internalType": "int64",
              "name": "maxDepositPeriod",
              "type": "int64"
            },
            {
              "internalType": "string",
              "name": "quorum",
              "type": "string"
            },
            {
              "internalType": "string",
              "name": "threshold",
              "type": "string"
            },
            {
              "internalType": "string",
              "name": "vetoThreshold",
              "type": "string"
            },
            {
              "internalType": "string",
              "name": "minInitialDepositRatio",
              "type": "string"
            },
            {
              "internalType": "string",
              "name": "proposalCancelRatio",
              "type": "string"
            },
            {
              "internalType": "string",
              "name": "proposalCancelDest",
              "type": "string"
            },
            {
              "internalType": "int64",
              "name": "expeditedVotingPeriod",
              "type": "int64"
            },
            {
              "internalType": "string",
              "name": "expeditedThreshold",
              "type": "string"
            },
            {
              "components": [
                {
                  "internalType": "string",
                  "name": "denom",
                  "type": "string"
                },
                {
                  "internalType": "uint256",
                  "name": "amount",
                  "type": "uint256"
                }
              ],
              "internalType": "struct Coin[]",
              "name": "expeditedMinDeposit",
              "type": "tuple[]"
            },
            {
              "internalType": "bool",
              "name": "burnVoteQuorum",
              "type": "bool"
            },
            {
              "internalType": "bool",
              "name": "burnProposalDepositPrevote",
              "type": "bool"
            },
            {
              "internalType": "bool",
              "name": "burnVoteVeto",
              "type": "bool"
            },
            {
              "internalType": "string",
              "name": "minDepositRatio",
              "type": "string"
            }
          ],
          "internalType": "struct Params",
          "name": "params",
          "type": "tuple"
        }
      ],
      "stateMutability": "view",
      "type": "function"
    },
    {
      "inputs": [
        {
          "internalType": "address payable",
          "name": "_randomAddr",
          "type": "address"
        },
        {
          "internalType": "uint64",
          "name": "_proposalId",
          "type": "uint64"
        },
        {
          "internalType": "bool",
          "name": "_before",
          "type": "bool"
        },
        {
          "internalType": "bool",
          "name": "_after",
          "type": "bool"
        }
      ],
      "name": "testCancelFromContractWithTransfer",
      "outputs": [
        {
          "internalType": "bool",
          "name": "success",
          "type": "bool"
        }
      ],
      "stateMutability": "payable",
      "type": "function"
    },
    {
      "inputs": [
        {
          "internalType": "uint64",
          "name": "_proposalId",
          "type": "uint64"
        }
      ],
      "name": "testCancelProposalFromContract",
      "outputs": [
        {
          "internalType": "bool",
          "name": "success",
          "type": "bool"
        }
      ],
      "stateMutability": "payable",
      "type": "function"
    },
    {
      "inputs": [
        {
          "internalType": "address payable",
          "name": "_cancellerAddr",
          "type": "address"
        },
        {
          "internalType": "uint64",
          "name": "_proposalId",
          "type": "uint64"
        },
        {
          "internalType": "bool",
          "name": "_before",
          "type": "bool"
        },
        {
          "internalType": "bool",
          "name": "_after",
          "type": "bool"
        }
      ],
      "name": "testCancelWithTransfer",
      "outputs": [
        {
          "internalType": "bool",
          "name": "success",
          "type": "bool"
        }
      ],
      "stateMutability": "payable",
      "type": "function"
    },
    {
      "inputs": [
        {
          "internalType": "uint64",
          "name": "_proposalId",
          "type": "uint64"
        },
        {
          "components": [
            {
              "internalType": "string",
              "name": "denom",
              "type": "string"
            },
            {
              "internalType": "uint256",
              "name": "amount",
              "type": "uint256"
            }
          ],
          "internalType": "struct Coin[]",
          "name": "_deposit",
          "type": "tuple[]"
        }
      ],
      "name": "testDepositFromContract",
      "outputs": [
        {
          "internalType": "bool",
          "name": "success",
          "type": "bool"
        }
      ],
      "stateMutability": "payable",
      "type": "function"
    },
    {
      "inputs": [
        {
          "internalType": "address payable",
          "name": "_randomAddr",
          "type": "address"
        },
        {
          "internalType": "uint64",
          "name": "_proposalId",
          "type": "uint64"
        },
        {
          "components": [
            {
              "internalType": "string",
              "name": "denom",
              "type": "string"
            },
            {
              "internalType": "uint256",
              "name": "amount",
              "type": "uint256"
            }
          ],
          "internalType": "struct Coin[]",
          "name": "_deposit",
          "type": "tuple[]"
        },
        {
          "internalType": "bool",
          "name": "_before",
          "type": "bool"
        },
        {
          "internalType": "bool",
          "name": "_after",
          "type": "bool"
        }
      ],
      "name": "testDepositFromContractWithTransfer",
      "outputs": [
        {
          "internalType": "bool",
          "name": "success",
          "type": "bool"
        }
      ],
      "stateMutability": "payable",
      "type": "function"
    },
    {
      "inputs": [
        {
          "internalType": "address payable",
          "name": "_depositorAddr",
          "type": "address"
        },
        {
          "internalType": "uint64",
          "name": "_proposalId",
          "type": "uint64"
        },
        {
          "components": [
            {
              "internalType": "string",
              "name": "denom",
              "type": "string"
            },
            {
              "internalType": "uint256",
              "name": "amount",
              "type": "uint256"
            }
          ],
          "internalType": "struct Coin[]",
          "name": "_deposit",
          "type": "tuple[]"
        },
        {
          "internalType": "bool",
          "name": "_before",
          "type": "bool"
        },
        {
          "internalType": "bool",
          "name": "_after",
          "type": "bool"
        }
      ],
      "name": "testDepositWithTransfer",
      "outputs": [
        {
          "internalType": "bool",
          "name": "success",
          "type": "bool"
        }
      ],
      "stateMutability": "payable",
      "type": "function"
    },
    {
      "inputs": [
        {
          "internalType": "address",
          "name": "_proposerAddr",
          "type": "address"
        },
        {
          "internalType": "bytes",
          "name": "_jsonProposal",
          "type": "bytes"
        },
        {
          "components": [
            {
              "internalType": "string",
              "name": "denom",
              "type": "string"
            },
            {
              "internalType": "uint256",
              "name": "amount",
              "type": "uint256"
            }
          ],
          "internalType": "struct Coin[]",
          "name": "_deposit",
          "type": "tuple[]"
        }
      ],
      "name": "testSubmitProposal",
      "outputs": [
        {
          "internalType": "uint64",
          "name": "proposalId",
          "type": "uint64"
        }
      ],
      "stateMutability": "payable",
      "type": "function"
    },
    {
      "inputs": [
        {
          "internalType": "bytes",
          "name": "_jsonProposal",
          "type": "bytes"
        },
        {
          "components": [
            {
              "internalType": "string",
              "name": "denom",
              "type": "string"
            },
            {
              "internalType": "uint256",
              "name": "amount",
              "type": "uint256"
            }
          ],
          "internalType": "struct Coin[]",
          "name": "_deposit",
          "type": "tuple[]"
        }
      ],
      "name": "testSubmitProposalFromContract",
      "outputs": [
        {
          "internalType": "uint64",
          "name": "proposalId",
          "type": "uint64"
        }
      ],
      "stateMutability": "payable",
      "type": "function"
    },
    {
      "inputs": [
        {
          "internalType": "address payable",
          "name": "_randomAddr",
          "type": "address"
        },
        {
          "internalType": "bytes",
          "name": "_jsonProposal",
          "type": "bytes"
        },
        {
          "components": [
            {
              "internalType": "string",
              "name": "denom",
              "type": "string"
            },
            {
              "internalType": "uint256",
              "name": "amount",
              "type": "uint256"
            }
          ],
          "internalType": "struct Coin[]",
          "name": "_deposit",
          "type": "tuple[]"
        },
        {
          "internalType": "bool",
          "name": "_before",
          "type": "bool"
        },
        {
          "internalType": "bool",
          "name": "_after",
          "type": "bool"
        }
      ],
      "name": "testSubmitProposalFromContractWithTransfer",
      "outputs": [
        {
          "internalType": "uint64",
          "name": "",
          "type": "uint64"
        }
      ],
      "stateMutability": "payable",
      "type": "function"
    },
    {
      "inputs": [
        {
          "internalType": "address payable",
          "name": "_proposerAddr",
          "type": "address"
        },
        {
          "internalType": "bytes",
          "name": "_jsonProposal",
          "type": "bytes"
        },
        {
          "components": [
            {
              "internalType": "string",
              "name": "denom",
              "type": "string"
            },
            {
              "internalType": "uint256",
              "name": "amount",
              "type": "uint256"
            }
          ],
          "internalType": "struct Coin[]",
          "name": "_deposit",
          "type": "tuple[]"
        },
        {
          "internalType": "bool",
          "name": "_before",
          "type": "bool"
        },
        {
          "internalType": "bool",
          "name": "_after",
          "type": "bool"
        }
      ],
      "name": "testSubmitProposalWithTransfer",
      "outputs": [
        {
          "internalType": "uint64",
          "name": "",
          "type": "uint64"
        }
      ],
      "stateMutability": "payable",
      "type": "function"
    }
  ],
  "bytecode": "0x608060405234801561001057600080fd5b50612a99806100206000396000f3fe6080604052600436106100c25760003560e01c80638a07ab441161007f578063bc7bdf7511610059578063bc7bdf751461026d578063d0e30db01461029d578063e8702c34146102a7578063ed6c08f7146102d7576100c2565b80638a07ab44146101dd57806397fd84d21461020d578063990d04ca1461023d576100c2565b8063258691e2146100c757806337281a5e146100f75780635e615a6b1461012757806361bc221a1461015257806361f09ad21461017d5780637726ece0146101ad575b600080fd5b6100e160048036038101906100dc919061169e565b610307565b6040516100ee9190611714565b60405180910390f35b610111600480360381019061010c919061169e565b61058d565b60405161011e9190611714565b60405180910390f35b34801561013357600080fd5b5061013c610813565b6040516101499190611a99565b60405180910390f35b34801561015e57600080fd5b50610167610896565b6040516101749190611aca565b60405180910390f35b61019760048036038101906101929190611ba0565b6108a7565b6040516101a49190611c30565b60405180910390f35b6101c760048036038101906101c29190611c4b565b610939565b6040516101d49190611c30565b60405180910390f35b6101f760048036038101906101f29190611d07565b610bce565b6040516102049190611714565b60405180910390f35b61022760048036038101906102229190611da1565b610e5a565b6040516102349190611714565b60405180910390f35b61025760048036038101906102529190611c4b565b610ee3565b6040516102649190611c30565b60405180910390f35b61028760048036038101906102829190611dce565b611178565b6040516102949190611714565b60405180910390f35b6102a5611207565b005b6102c160048036038101906102bc9190611e6c565b611209565b6040516102ce9190611c30565b60405180910390f35b6102f160048036038101906102ec9190611d07565b61129c565b6040516102fe9190611714565b60405180910390f35b600082156104065760008081819054906101000a900460070b8092919061032d90611f30565b91906101000a81548167ffffffffffffffff021916908360070b67ffffffffffffffff1602179055505060008573ffffffffffffffffffffffffffffffffffffffff16600f60405161037e90611f91565b60006040518083038185875af1925050503d80600081146103bb576040519150601f19603f3d011682016040523d82523d6000602084013e6103c0565b606091505b5050905080610404576040517f08c379a00000000000000000000000000000000000000000000000000000000081526004016103fb90612003565b60405180910390fd5b505b61080573ffffffffffffffffffffffffffffffffffffffff1663a33e308630866040518363ffffffff1660e01b8152600401610443929190612032565b6020604051808303816000875af1158015610462573d6000803e3d6000fd5b505050506040513d601f19601f820116820180604052508101906104869190612070565b905081156105855760008081819054906101000a900460070b809291906104ac90611f30565b91906101000a81548167ffffffffffffffff021916908360070b67ffffffffffffffff1602179055505060008573ffffffffffffffffffffffffffffffffffffffff16600f6040516104fd90611f91565b60006040518083038185875af1925050503d806000811461053a576040519150601f19603f3d011682016040523d82523d6000602084013e61053f565b606091505b5050905080610583576040517f08c379a000000000000000000000000000000000000000000000000000000000815260040161057a90612003565b60405180910390fd5b505b949350505050565b6000821561068c5760008081819054906101000a900460070b809291906105b390611f30565b91906101000a81548167ffffffffffffffff021916908360070b67ffffffffffffffff1602179055505060008573ffffffffffffffffffffffffffffffffffffffff16600f60405161060490611f91565b60006040518083038185875af1925050503d8060008114610641576040519150601f19603f3d011682016040523d82523d6000602084013e610646565b606091505b505090508061068a576040517f08c379a000000000000000000000000000000000000000000000000000000000815260040161068190612003565b60405180910390fd5b505b61080573ffffffffffffffffffffffffffffffffffffffff1663a33e308686866040518363ffffffff1660e01b81526004016106c99291906120fc565b6020604051808303816000875af11580156106e8573d6000803e3d6000fd5b505050506040513d601f19601f8201168201806040525081019061070c9190612070565b9050811561080b5760008081819054906101000a900460070b8092919061073290611f30565b91906101000a81548167ffffffffffffffff021916908360070b67ffffffffffffffff1602179055505060008573ffffffffffffffffffffffffffffffffffffffff16600f60405161078390611f91565b60006040518083038185875af1925050503d80600081146107c0576040519150601f19603f3d011682016040523d82523d6000602084013e6107c5565b606091505b5050905080610809576040517f08c379a000000000000000000000000000000000000000000000000000000000815260040161080090612003565b60405180910390fd5b505b949350505050565b61081b611528565b61080573ffffffffffffffffffffffffffffffffffffffff16635e615a6b6040518163ffffffff1660e01b8152600401600060405180830381865afa158015610868573d6000803e3d6000fd5b505050506040513d6000823e3d601f19601f820116820180604052508101906108919190612687565b905090565b60008054906101000a900460070b81565b600061080573ffffffffffffffffffffffffffffffffffffffff1663a8fdc91930878787876040518663ffffffff1660e01b81526004016108ec95949392919061290f565b6020604051808303816000875af115801561090b573d6000803e3d6000fd5b505050506040513d601f19601f8201168201806040525081019061092f919061296d565b9050949350505050565b60008215610a385760008081819054906101000a900460070b8092919061095f90611f30565b91906101000a81548167ffffffffffffffff021916908360070b67ffffffffffffffff1602179055505060008873ffffffffffffffffffffffffffffffffffffffff16600f6040516109b090611f91565b60006040518083038185875af1925050503d80600081146109ed576040519150601f19603f3d011682016040523d82523d6000602084013e6109f2565b606091505b5050905080610a36576040517f08c379a0000000000000000000000000000000000000000000000000000000008152600401610a2d90612003565b60405180910390fd5b505b600061080573ffffffffffffffffffffffffffffffffffffffff1663a8fdc919308a8a8a8a6040518663ffffffff1660e01b8152600401610a7d95949392919061290f565b6020604051808303816000875af1158015610a9c573d6000803e3d6000fd5b505050506040513d601f19601f82011682018060405250810190610ac0919061296d565b90508215610bbf5760008081819054906101000a900460070b80929190610ae690611f30565b91906101000a81548167ffffffffffffffff021916908360070b67ffffffffffffffff1602179055505060008973ffffffffffffffffffffffffffffffffffffffff16600f604051610b3790611f91565b60006040518083038185875af1925050503d8060008114610b74576040519150601f19603f3d011682016040523d82523d6000602084013e610b79565b606091505b5050905080610bbd576040517f08c379a0000000000000000000000000000000000000000000000000000000008152600401610bb490612003565b60405180910390fd5b505b80915050979650505050505050565b60008215610ccd5760008081819054906101000a900460070b80929190610bf490611f30565b91906101000a81548167ffffffffffffffff021916908360070b67ffffffffffffffff1602179055505060008773ffffffffffffffffffffffffffffffffffffffff16600f604051610c4590611f91565b60006040518083038185875af1925050503d8060008114610c82576040519150601f19603f3d011682016040523d82523d6000602084013e610c87565b606091505b5050905080610ccb576040517f08c379a0000000000000000000000000000000000000000000000000000000008152600401610cc290612003565b60405180910390fd5b505b61080573ffffffffffffffffffffffffffffffffffffffff1663b24b0376888888886040518563ffffffff1660e01b8152600401610d0e949392919061299a565b6020604051808303816000875af1158015610d2d573d6000803e3d6000fd5b505050506040513d601f19601f82011682018060405250810190610d519190612070565b90508115610e505760008081819054906101000a900460070b80929190610d7790611f30565b91906101000a81548167ffffffffffffffff021916908360070b67ffffffffffffffff1602179055505060008773ffffffffffffffffffffffffffffffffffffffff16600f604051610dc890611f91565b60006040518083038185875af1925050503d8060008114610e05576040519150601f19603f3d011682016040523d82523d6000602084013e610e0a565b606091505b5050905080610e4e576040517f08c379a0000000000000000000000000000000000000000000000000000000008152600401610e4590612003565b60405180910390fd5b505b9695505050505050565b600061080573ffffffffffffffffffffffffffffffffffffffff1663a33e308630846040518363ffffffff1660e01b8152600401610e99929190612032565b6020604051808303816000875af1158015610eb8573d6000803e3d6000fd5b505050506040513d601f19601f82011682018060405250810190610edc9190612070565b9050919050565b60008215610fe25760008081819054906101000a900460070b80929190610f0990611f30565b91906101000a81548167ffffffffffffffff021916908360070b67ffffffffffffffff1602179055505060008873ffffffffffffffffffffffffffffffffffffffff16600f604051610f5a90611f91565b60006040518083038185875af1925050503d8060008114610f97576040519150601f19603f3d011682016040523d82523d6000602084013e610f9c565b606091505b5050905080610fe0576040517f08c379a0000000000000000000000000000000000000000000000000000000008152600401610fd790612003565b60405180910390fd5b505b600061080573ffffffffffffffffffffffffffffffffffffffff1663a8fdc9198a8a8a8a8a6040518663ffffffff1660e01b81526004016110279594939291906129da565b6020604051808303816000875af1158015611046573d6000803e3d6000fd5b505050506040513d601f19601f8201168201806040525081019061106a919061296d565b905082156111695760008081819054906101000a900460070b8092919061109090611f30565b91906101000a81548167ffffffffffffffff021916908360070b67ffffffffffffffff1602179055505060008973ffffffffffffffffffffffffffffffffffffffff16600f6040516110e190611f91565b60006040518083038185875af1925050503d806000811461111e576040519150601f19603f3d011682016040523d82523d6000602084013e611123565b606091505b5050905080611167576040517f08c379a000000000000000000000000000000000000000000000000000000000815260040161115e90612003565b60405180910390fd5b505b80915050979650505050505050565b600061080573ffffffffffffffffffffffffffffffffffffffff1663b24b0376308686866040518563ffffffff1660e01b81526004016111bb9493929190612a23565b6020604051808303816000875af11580156111da573d6000803e3d6000fd5b505050506040513d601f19601f820116820180604052508101906111fe9190612070565b90509392505050565b565b600061080573ffffffffffffffffffffffffffffffffffffffff1663a8fdc91987878787876040518663ffffffff1660e01b815260040161124e95949392919061290f565b6020604051808303816000875af115801561126d573d6000803e3d6000fd5b505050506040513d601f19601f82011682018060405250810190611291919061296d565b905095945050505050565b6000821561139b5760008081819054906101000a900460070b809291906112c290611f30565b91906101000a81548167ffffffffffffffff021916908360070b67ffffffffffffffff1602179055505060008773ffffffffffffffffffffffffffffffffffffffff16600f60405161131390611f91565b60006040518083038185875af1925050503d8060008114611350576040519150601f19603f3d011682016040523d82523d6000602084013e611355565b606091505b5050905080611399576040517f08c379a000000000000000000000000000000000000000000000000000000000815260040161139090612003565b60405180910390fd5b505b61080573ffffffffffffffffffffffffffffffffffffffff1663b24b0376308888886040518563ffffffff1660e01b81526004016113dc9493929190612a23565b6020604051808303816000875af11580156113fb573d6000803e3d6000fd5b505050506040513d601f19601f8201168201806040525081019061141f9190612070565b9050811561151e5760008081819054906101000a900460070b8092919061144590611f30565b91906101000a81548167ffffffffffffffff021916908360070b67ffffffffffffffff1602179055505060008773ffffffffffffffffffffffffffffffffffffffff16600f60405161149690611f91565b60006040518083038185875af1925050503d80600081146114d3576040519150601f19603f3d011682016040523d82523d6000602084013e6114d8565b606091505b505090508061151c576040517f08c379a000000000000000000000000000000000000000000000000000000000815260040161151390612003565b60405180910390fd5b505b9695505050505050565b604051806102000160405280600060070b815260200160608152602001600060070b8152602001606081526020016060815260200160608152602001606081526020016060815260200160608152602001600060070b81526020016060815260200160608152602001600015158152602001600015158152602001600015158152602001606081525090565b6000604051905090565b600080fd5b600080fd5b600073ffffffffffffffffffffffffffffffffffffffff82169050919050565b60006115f3826115c8565b9050919050565b611603816115e8565b811461160e57600080fd5b50565b600081359050611620816115fa565b92915050565b600067ffffffffffffffff82169050919050565b61164381611626565b811461164e57600080fd5b50565b6000813590506116608161163a565b92915050565b60008115159050919050565b61167b81611666565b811461168657600080fd5b50565b60008135905061169881611672565b92915050565b600080600080608085870312156116b8576116b76115be565b5b60006116c687828801611611565b94505060206116d787828801611651565b93505060406116e887828801611689565b92505060606116f987828801611689565b91505092959194509250565b61170e81611666565b82525050565b60006020820190506117296000830184611705565b92915050565b60008160070b9050919050565b6117458161172f565b82525050565b600081519050919050565b600082825260208201905092915050565b6000819050602082019050919050565b600081519050919050565b600082825260208201905092915050565b60005b838110156117b1578082015181840152602081019050611796565b60008484015250505050565b6000601f19601f8301169050919050565b60006117d982611777565b6117e38185611782565b93506117f3818560208601611793565b6117fc816117bd565b840191505092915050565b6000819050919050565b61181a81611807565b82525050565b6000604083016000830151848203600086015261183d82826117ce565b91505060208301516118526020860182611811565b508091505092915050565b60006118698383611820565b905092915050565b6000602082019050919050565b60006118898261174b565b6118938185611756565b9350836020820285016118a585611767565b8060005b858110156118e157848403895281516118c2858261185d565b94506118cd83611871565b925060208a019950506001810190506118a9565b50829750879550505050505092915050565b6118fc81611666565b82525050565b60006102008301600083015161191b600086018261173c565b5060208301518482036020860152611933828261187e565b9150506040830151611948604086018261173c565b506060830151848203606086015261196082826117ce565b9150506080830151848203608086015261197a82826117ce565b91505060a083015184820360a086015261199482826117ce565b91505060c083015184820360c08601526119ae82826117ce565b91505060e083015184820360e08601526119c882826117ce565b9150506101008301518482036101008601526119e482826117ce565b9150506101208301516119fb61012086018261173c565b50610140830151848203610140860152611a1582826117ce565b915050610160830151848203610160860152611a31828261187e565b915050610180830151611a486101808601826118f3565b506101a0830151611a5d6101a08601826118f3565b506101c0830151611a726101c08601826118f3565b506101e08301518482036101e0860152611a8c82826117ce565b9150508091505092915050565b60006020820190508181036000830152611ab38184611902565b905092915050565b611ac48161172f565b82525050565b6000602082019050611adf6000830184611abb565b92915050565b600080fd5b600080fd5b600080fd5b60008083601f840112611b0a57611b09611ae5565b5b8235905067ffffffffffffffff811115611b2757611b26611aea565b5b602083019150836001820283011115611b4357611b42611aef565b5b9250929050565b60008083601f840112611b6057611b5f611ae5565b5b8235905067ffffffffffffffff811115611b7d57611b7c611aea565b5b602083019150836020820283011115611b9957611b98611aef565b5b9250929050565b60008060008060408587031215611bba57611bb96115be565b5b600085013567ffffffffffffffff811115611bd857611bd76115c3565b5b611be487828801611af4565b9450945050602085013567ffffffffffffffff811115611c0757611c066115c3565b5b611c1387828801611b4a565b925092505092959194509250565b611c2a81611626565b82525050565b6000602082019050611c456000830184611c21565b92915050565b600080600080600080600060a0888a031215611c6a57611c696115be565b5b6000611c788a828b01611611565b975050602088013567ffffffffffffffff811115611c9957611c986115c3565b5b611ca58a828b01611af4565b9650965050604088013567ffffffffffffffff811115611cc857611cc76115c3565b5b611cd48a828b01611b4a565b94509450506060611ce78a828b01611689565b9250506080611cf88a828b01611689565b91505092959891949750929550565b60008060008060008060a08789031215611d2457611d236115be565b5b6000611d3289828a01611611565b9650506020611d4389828a01611651565b955050604087013567ffffffffffffffff811115611d6457611d636115c3565b5b611d7089828a01611b4a565b94509450506060611d8389828a01611689565b9250506080611d9489828a01611689565b9150509295509295509295565b600060208284031215611db757611db66115be565b5b6000611dc584828501611651565b91505092915050565b600080600060408486031215611de757611de66115be565b5b6000611df586828701611651565b935050602084013567ffffffffffffffff811115611e1657611e156115c3565b5b611e2286828701611b4a565b92509250509250925092565b6000611e39826115c8565b9050919050565b611e4981611e2e565b8114611e5457600080fd5b50565b600081359050611e6681611e40565b92915050565b600080600080600060608688031215611e8857611e876115be565b5b6000611e9688828901611e57565b955050602086013567ffffffffffffffff811115611eb757611eb66115c3565b5b611ec388828901611af4565b9450945050604086013567ffffffffffffffff811115611ee657611ee56115c3565b5b611ef288828901611b4a565b92509250509295509295909350565b7f4e487b7100000000000000000000000000000000000000000000000000000000600052601160045260246000fd5b6000611f3b8261172f565b9150677fffffffffffffff8203611f5557611f54611f01565b5b600182019050919050565b600081905092915050565b50565b6000611f7b600083611f60565b9150611f8682611f6b565b600082019050919050565b6000611f9c82611f6e565b9150819050919050565b600082825260208201905092915050565b7f4661696c656420746f2073656e6420457468657220746f2070726f706f736572600082015250565b6000611fed602083611fa6565b9150611ff882611fb7565b602082019050919050565b6000602082019050818103600083015261201c81611fe0565b9050919050565b61202c81611e2e565b82525050565b60006040820190506120476000830185612023565b6120546020830184611c21565b9392505050565b60008151905061206a81611672565b92915050565b600060208284031215612086576120856115be565b5b60006120948482850161205b565b91505092915050565b6000819050919050565b60006120c26120bd6120b8846115c8565b61209d565b6115c8565b9050919050565b60006120d4826120a7565b9050919050565b60006120e6826120c9565b9050919050565b6120f6816120db565b82525050565b600060408201905061211160008301856120ed565b61211e6020830184611c21565b9392505050565b600080fd5b7f4e487b7100000000000000000000000000000000000000000000000000000000600052604160045260246000fd5b612162826117bd565b810181811067ffffffffffffffff821117156121815761218061212a565b5b80604052505050565b60006121946115b4565b90506121a08282612159565b919050565b600080fd5b6121b38161172f565b81146121be57600080fd5b50565b6000815190506121d0816121aa565b92915050565b600067ffffffffffffffff8211156121f1576121f061212a565b5b602082029050602081019050919050565b600080fd5b600067ffffffffffffffff8211156122225761222161212a565b5b61222b826117bd565b9050602081019050919050565b600061224b61224684612207565b61218a565b90508281526020810184848401111561226757612266612202565b5b612272848285611793565b509392505050565b600082601f83011261228f5761228e611ae5565b5b815161229f848260208601612238565b91505092915050565b6122b181611807565b81146122bc57600080fd5b50565b6000815190506122ce816122a8565b92915050565b6000604082840312156122ea576122e9612125565b5b6122f4604061218a565b9050600082015167ffffffffffffffff811115612314576123136121a5565b5b6123208482850161227a565b6000830152506020612334848285016122bf565b60208301525092915050565b600061235361234e846121d6565b61218a565b9050808382526020820190506020840283018581111561237657612375611aef565b5b835b818110156123bd57805167ffffffffffffffff81111561239b5761239a611ae5565b5b8086016123a889826122d4565b85526020850194505050602081019050612378565b5050509392505050565b600082601f8301126123dc576123db611ae5565b5b81516123ec848260208601612340565b91505092915050565b6000610200828403121561240c5761240b612125565b5b61241761020061218a565b90506000612427848285016121c1565b600083015250602082015167ffffffffffffffff81111561244b5761244a6121a5565b5b612457848285016123c7565b602083015250604061246b848285016121c1565b604083015250606082015167ffffffffffffffff81111561248f5761248e6121a5565b5b61249b8482850161227a565b606083015250608082015167ffffffffffffffff8111156124bf576124be6121a5565b5b6124cb8482850161227a565b60808301525060a082015167ffffffffffffffff8111156124ef576124ee6121a5565b5b6124fb8482850161227a565b60a08301525060c082015167ffffffffffffffff81111561251f5761251e6121a5565b5b61252b8482850161227a565b60c08301525060e082015167ffffffffffffffff81111561254f5761254e6121a5565b5b61255b8482850161227a565b60e08301525061010082015167ffffffffffffffff8111156125805761257f6121a5565b5b61258c8482850161227a565b610100830152506101206125a2848285016121c1565b6101208301525061014082015167ffffffffffffffff8111156125c8576125c76121a5565b5b6125d48482850161227a565b6101408301525061016082015167ffffffffffffffff8111156125fa576125f96121a5565b5b612606848285016123c7565b6101608301525061018061261c8482850161205b565b610180830152506101a06126328482850161205b565b6101a0830152506101c06126488482850161205b565b6101c0830152506101e082015167ffffffffffffffff81111561266e5761266d6121a5565b5b61267a8482850161227a565b6101e08301525092915050565b60006020828403121561269d5761269c6115be565b5b600082015167ffffffffffffffff8111156126bb576126ba6115c3565b5b6126c7848285016123f5565b91505092915050565b600082825260208201905092915050565b82818337600083830152505050565b60006126fc83856126d0565b93506127098385846126e1565b612712836117bd565b840190509392505050565b600082825260208201905092915050565b6000819050919050565b600080fd5b600080fd5b600080fd5b6000808335600160200384360303811261276457612763612742565b5b83810192508235915060208301925067ffffffffffffffff82111561278c5761278b612738565b5b6001820236038313156127a2576127a161273d565b5b509250929050565b60006127b68385611782565b93506127c38385846126e1565b6127cc836117bd565b840190509392505050565b6000813590506127e6816122a8565b92915050565b60006127fb60208401846127d7565b905092915050565b6000604083016128166000840184612747565b85830360008701526128298382846127aa565b9250505061283a60208401846127ec565b6128476020860182611811565b508091505092915050565b600061285e8383612803565b905092915050565b60008235600160400383360303811261288257612881612742565b5b82810191505092915050565b6000602082019050919050565b60006128a7838561271d565b9350836020840285016128b98461272e565b8060005b878110156128fd5784840389526128d48284612866565b6128de8582612852565b94506128e98361288e565b925060208a019950506001810190506128bd565b50829750879450505050509392505050565b60006060820190506129246000830188612023565b81810360208301526129378186886126f0565b9050818103604083015261294c81848661289b565b90509695505050505050565b6000815190506129678161163a565b92915050565b600060208284031215612983576129826115be565b5b600061299184828501612958565b91505092915050565b60006060820190506129af60008301876120ed565b6129bc6020830186611c21565b81810360408301526129cf81848661289b565b905095945050505050565b60006060820190506129ef60008301886120ed565b8181036020830152612a028186886126f0565b90508181036040830152612a1781848661289b565b90509695505050505050565b6000606082019050612a386000830187612023565b612a456020830186611c21565b8181036040830152612a5881848661289b565b90509594505050505056fea2646970667358221220f4392229710f455c0fa011ede026bf4abddf1b18c4a0098418a01ce96de9552064736f6c63430008140033",
  "linkReferences": {},
  "deployedLinkReferences": {}
}