{
  "_format": "hh-sol-artifact-1",
  "contractName": "GovCaller",
  "sourceName": "solidity/precompiles/testutil/contracts/GovCaller.sol",
  "abi": [
    {
      "inputs": [],
      "name": "counter",
      "outputs": [
        {
          "internalType": "int64",
          "name": "",
          "type": "int64"
        }
      ],
      "stateMutability": "view",
      "type": "function"
    },
    {
      "inputs": [],
      "name": "deposit",
      "outputs": [],
      "stateMutability": "payable",
      "type": "function"
    },
    {
      "inputs": [],
      "name": "getParams",
      "outputs": [
        {
          "components": [
            {
              "internalType": "int64",
              "name": "votingPeriod",
              "type": "int64"
            },
            {
              "components": [
                {
                  "internalType": "string",
                  "name": "denom",
                  "type": "string"
                },
                {
                  "internalType": "uint256",
                  "name": "amount",
                  "type": "uint256"
                }
              ],
              "internalType": "struct Coin[]",
              "name": "minDeposit",
              "type": "tuple[]"
            },
            {
              "internalType": "int64",
              "name": "maxDepositPeriod",
              "type": "int64"
            },
            {
              "internalType": "string",
              "name": "quorum",
              "type": "string"
            },
            {
              "internalType": "string",
              "name": "threshold",
              "type": "string"
            },
            {
              "internalType": "string",
              "name": "vetoThreshold",
              "type": "string"
            },
            {
              "internalType": "string",
              "name": "minInitialDepositRatio",
              "type": "string"
            },
            {
              "internalType": "string",
              "name": "proposalCancelRatio",
              "type": "string"
            },
            {
              "internalType": "string",
              "name": "proposalCancelDest",
              "type": "string"
            },
            {
              "internalType": "int64",
              "name": "expeditedVotingPeriod",
              "type": "int64"
            },
            {
              "internalType": "string",
              "name": "expeditedThreshold",
              "type": "string"
            },
            {
              "components": [
                {
                  "internalType": "string",
                  "name": "denom",
                  "type": "string"
                },
                {
                  "internalType": "uint256",
                  "name": "amount",
                  "type": "uint256"
                }
              ],
              "internalType": "struct Coin[]",
              "name": "expeditedMinDeposit",
              "type": "tuple[]"
            },
            {
              "internalType": "bool",
              "name": "burnVoteQuorum",
              "type": "bool"
            },
            {
              "internalType": "bool",
              "name": "burnProposalDepositPrevote",
              "type": "bool"
            },
            {
              "internalType": "bool",
              "name": "burnVoteVeto",
              "type": "bool"
            },
            {
              "internalType": "string",
              "name": "minDepositRatio",
              "type": "string"
            }
          ],
          "internalType": "struct Params",
          "name": "params",
          "type": "tuple"
        }
      ],
      "stateMutability": "view",
      "type": "function"
    },
    {
      "inputs": [
        {
          "internalType": "address payable",
          "name": "_randomAddr",
          "type": "address"
        },
        {
          "internalType": "uint64",
          "name": "_proposalId",
          "type": "uint64"
        },
        {
          "internalType": "bool",
          "name": "_before",
          "type": "bool"
        },
        {
          "internalType": "bool",
          "name": "_after",
          "type": "bool"
        }
      ],
      "name": "testCancelFromContractWithTransfer",
      "outputs": [
        {
          "internalType": "bool",
          "name": "success",
          "type": "bool"
        }
      ],
      "stateMutability": "payable",
      "type": "function"
    },
    {
      "inputs": [
        {
          "internalType": "uint64",
          "name": "_proposalId",
          "type": "uint64"
        }
      ],
      "name": "testCancelProposalFromContract",
      "outputs": [
        {
          "internalType": "bool",
          "name": "success",
          "type": "bool"
        }
      ],
      "stateMutability": "payable",
      "type": "function"
    },
    {
      "inputs": [
        {
          "internalType": "address payable",
          "name": "_cancellerAddr",
          "type": "address"
        },
        {
          "internalType": "uint64",
          "name": "_proposalId",
          "type": "uint64"
        },
        {
          "internalType": "bool",
          "name": "_before",
          "type": "bool"
        },
        {
          "internalType": "bool",
          "name": "_after",
          "type": "bool"
        }
      ],
      "name": "testCancelWithTransfer",
      "outputs": [
        {
          "internalType": "bool",
          "name": "success",
          "type": "bool"
        }
      ],
      "stateMutability": "payable",
      "type": "function"
    },
    {
      "inputs": [
        {
          "internalType": "address payable",
          "name": "_depositorAddr",
          "type": "address"
        },
        {
          "internalType": "uint64",
          "name": "_proposalId",
          "type": "uint64"
        },
        {
          "components": [
            {
              "internalType": "string",
              "name": "denom",
              "type": "string"
            },
            {
              "internalType": "uint256",
              "name": "amount",
              "type": "uint256"
            }
          ],
          "internalType": "struct Coin[]",
          "name": "_deposit",
          "type": "tuple[]"
        }
      ],
      "name": "testDeposit",
      "outputs": [
        {
          "internalType": "bool",
          "name": "success",
          "type": "bool"
        }
      ],
      "stateMutability": "payable",
      "type": "function"
    },
    {
      "inputs": [
        {
          "internalType": "uint64",
          "name": "_proposalId",
          "type": "uint64"
        },
        {
          "components": [
            {
              "internalType": "string",
              "name": "denom",
              "type": "string"
            },
            {
              "internalType": "uint256",
              "name": "amount",
              "type": "uint256"
            }
          ],
          "internalType": "struct Coin[]",
          "name": "_deposit",
          "type": "tuple[]"
        }
      ],
      "name": "testDepositFromContract",
      "outputs": [
        {
          "internalType": "bool",
          "name": "success",
          "type": "bool"
        }
      ],
      "stateMutability": "payable",
      "type": "function"
    },
    {
      "inputs": [
        {
          "internalType": "address payable",
          "name": "_randomAddr",
          "type": "address"
        },
        {
          "internalType": "uint64",
          "name": "_proposalId",
          "type": "uint64"
        },
        {
          "components": [
            {
              "internalType": "string",
              "name": "denom",
              "type": "string"
            },
            {
              "internalType": "uint256",
              "name": "amount",
              "type": "uint256"
            }
          ],
          "internalType": "struct Coin[]",
          "name": "_deposit",
          "type": "tuple[]"
        },
        {
          "internalType": "bool",
          "name": "_before",
          "type": "bool"
        },
        {
          "internalType": "bool",
          "name": "_after",
          "type": "bool"
        }
      ],
      "name": "testDepositFromContractWithTransfer",
      "outputs": [
        {
          "internalType": "bool",
          "name": "success",
          "type": "bool"
        }
      ],
      "stateMutability": "payable",
      "type": "function"
    },
    {
      "inputs": [
        {
          "internalType": "address payable",
          "name": "_depositorAddr",
          "type": "address"
        },
        {
          "internalType": "uint64",
          "name": "_proposalId",
          "type": "uint64"
        },
        {
          "components": [
            {
              "internalType": "string",
              "name": "denom",
              "type": "string"
            },
            {
              "internalType": "uint256",
              "name": "amount",
              "type": "uint256"
            }
          ],
          "internalType": "struct Coin[]",
          "name": "_deposit",
          "type": "tuple[]"
        },
        {
          "internalType": "bool",
          "name": "_before",
          "type": "bool"
        },
        {
          "internalType": "bool",
          "name": "_after",
          "type": "bool"
        }
      ],
      "name": "testDepositWithTransfer",
      "outputs": [
        {
          "internalType": "bool",
          "name": "success",
          "type": "bool"
        }
      ],
      "stateMutability": "payable",
      "type": "function"
    },
    {
      "inputs": [
        {
          "internalType": "address",
          "name": "_proposerAddr",
          "type": "address"
        },
        {
          "internalType": "bytes",
          "name": "_jsonProposal",
          "type": "bytes"
        },
        {
          "components": [
            {
              "internalType": "string",
              "name": "denom",
              "type": "string"
            },
            {
              "internalType": "uint256",
              "name": "amount",
              "type": "uint256"
            }
          ],
          "internalType": "struct Coin[]",
          "name": "_deposit",
          "type": "tuple[]"
        }
      ],
      "name": "testSubmitProposal",
      "outputs": [
        {
          "internalType": "uint64",
          "name": "proposalId",
          "type": "uint64"
        }
      ],
      "stateMutability": "payable",
      "type": "function"
    },
    {
      "inputs": [
        {
          "internalType": "bytes",
          "name": "_jsonProposal",
          "type": "bytes"
        },
        {
          "components": [
            {
              "internalType": "string",
              "name": "denom",
              "type": "string"
            },
            {
              "internalType": "uint256",
              "name": "amount",
              "type": "uint256"
            }
          ],
          "internalType": "struct Coin[]",
          "name": "_deposit",
          "type": "tuple[]"
        }
      ],
      "name": "testSubmitProposalFromContract",
      "outputs": [
        {
          "internalType": "uint64",
          "name": "proposalId",
          "type": "uint64"
        }
      ],
      "stateMutability": "payable",
      "type": "function"
    },
    {
      "inputs": [
        {
          "internalType": "address payable",
          "name": "_randomAddr",
          "type": "address"
        },
        {
          "internalType": "bytes",
          "name": "_jsonProposal",
          "type": "bytes"
        },
        {
          "components": [
            {
              "internalType": "string",
              "name": "denom",
              "type": "string"
            },
            {
              "internalType": "uint256",
              "name": "amount",
              "type": "uint256"
            }
          ],
          "internalType": "struct Coin[]",
          "name": "_deposit",
          "type": "tuple[]"
        },
        {
          "internalType": "bool",
          "name": "_before",
          "type": "bool"
        },
        {
          "internalType": "bool",
          "name": "_after",
          "type": "bool"
        }
      ],
      "name": "testSubmitProposalFromContractWithTransfer",
      "outputs": [
        {
          "internalType": "uint64",
          "name": "",
          "type": "uint64"
        }
      ],
      "stateMutability": "payable",
      "type": "function"
    },
    {
      "inputs": [
        {
          "internalType": "address payable",
          "name": "_proposerAddr",
          "type": "address"
        },
        {
          "internalType": "bytes",
          "name": "_jsonProposal",
          "type": "bytes"
        },
        {
          "components": [
            {
              "internalType": "string",
              "name": "denom",
              "type": "string"
            },
            {
              "internalType": "uint256",
              "name": "amount",
              "type": "uint256"
            }
          ],
          "internalType": "struct Coin[]",
          "name": "_deposit",
          "type": "tuple[]"
        },
        {
          "internalType": "bool",
          "name": "_before",
          "type": "bool"
        },
        {
          "internalType": "bool",
          "name": "_after",
          "type": "bool"
        }
      ],
      "name": "testSubmitProposalWithTransfer",
      "outputs": [
        {
          "internalType": "uint64",
          "name": "",
          "type": "uint64"
        }
      ],
      "stateMutability": "payable",
      "type": "function"
    }
  ],
  "bytecode": "0x608060405234801561001057600080fd5b50612be8806100206000396000f3fe6080604052600436106100dd5760003560e01c80638e7431d31161007f578063bc7bdf7511610059578063bc7bdf75146102b8578063d0e30db0146102e8578063e8702c34146102f2578063ed6c08f714610322576100dd565b80638e7431d31461022857806397fd84d214610258578063990d04ca14610288576100dd565b806361bc221a116100bb57806361bc221a1461016d57806361f09ad2146101985780637726ece0146101c85780638a07ab44146101f8576100dd565b8063258691e2146100e257806337281a5e146101125780635e615a6b14610142575b600080fd5b6100fc60048036038101906100f79190611779565b610352565b60405161010991906117ef565b60405180910390f35b61012c60048036038101906101279190611779565b6105d8565b60405161013991906117ef565b60405180910390f35b34801561014e57600080fd5b5061015761085e565b6040516101649190611b74565b60405180910390f35b34801561017957600080fd5b506101826108e1565b60405161018f9190611ba5565b60405180910390f35b6101b260048036038101906101ad9190611c7b565b6108f2565b6040516101bf9190611d0b565b60405180910390f35b6101e260048036038101906101dd9190611d26565b610984565b6040516101ef9190611d0b565b60405180910390f35b610212600480360381019061020d9190611de2565b610c19565b60405161021f91906117ef565b60405180910390f35b610242600480360381019061023d9190611e7c565b610ea5565b60405161024f91906117ef565b60405180910390f35b610272600480360381019061026d9190611ef0565b610f35565b60405161027f91906117ef565b60405180910390f35b6102a2600480360381019061029d9190611d26565b610fbe565b6040516102af9190611d0b565b60405180910390f35b6102d260048036038101906102cd9190611f1d565b611253565b6040516102df91906117ef565b60405180910390f35b6102f06112e2565b005b61030c60048036038101906103079190611fbb565b6112e4565b6040516103199190611d0b565b60405180910390f35b61033c60048036038101906103379190611de2565b611377565b60405161034991906117ef565b60405180910390f35b600082156104515760008081819054906101000a900460070b809291906103789061207f565b91906101000a81548167ffffffffffffffff021916908360070b67ffffffffffffffff1602179055505060008573ffffffffffffffffffffffffffffffffffffffff16600f6040516103c9906120e0565b60006040518083038185875af1925050503d8060008114610406576040519150601f19603f3d011682016040523d82523d6000602084013e61040b565b606091505b505090508061044f576040517f08c379a000000000000000000000000000000000000000000000000000000000815260040161044690612152565b60405180910390fd5b505b61080573ffffffffffffffffffffffffffffffffffffffff1663a33e308630866040518363ffffffff1660e01b815260040161048e929190612181565b6020604051808303816000875af11580156104ad573d6000803e3d6000fd5b505050506040513d601f19601f820116820180604052508101906104d191906121bf565b905081156105d05760008081819054906101000a900460070b809291906104f79061207f565b91906101000a81548167ffffffffffffffff021916908360070b67ffffffffffffffff1602179055505060008573ffffffffffffffffffffffffffffffffffffffff16600f604051610548906120e0565b60006040518083038185875af1925050503d8060008114610585576040519150601f19603f3d011682016040523d82523d6000602084013e61058a565b606091505b50509050806105ce576040517f08c379a00000000000000000000000000000000000000000000000000000000081526004016105c590612152565b60405180910390fd5b505b949350505050565b600082156106d75760008081819054906101000a900460070b809291906105fe9061207f565b91906101000a81548167ffffffffffffffff021916908360070b67ffffffffffffffff1602179055505060008573ffffffffffffffffffffffffffffffffffffffff16600f60405161064f906120e0565b60006040518083038185875af1925050503d806000811461068c576040519150601f19603f3d011682016040523d82523d6000602084013e610691565b606091505b50509050806106d5576040517f08c379a00000000000000000000000000000000000000000000000000000000081526004016106cc90612152565b60405180910390fd5b505b61080573ffffffffffffffffffffffffffffffffffffffff1663a33e308686866040518363ffffffff1660e01b815260040161071492919061224b565b6020604051808303816000875af1158015610733573d6000803e3d6000fd5b505050506040513d601f19601f8201168201806040525081019061075791906121bf565b905081156108565760008081819054906101000a900460070b8092919061077d9061207f565b91906101000a81548167ffffffffffffffff021916908360070b67ffffffffffffffff1602179055505060008573ffffffffffffffffffffffffffffffffffffffff16600f6040516107ce906120e0565b60006040518083038185875af1925050503d806000811461080b576040519150601f19603f3d011682016040523d82523d6000602084013e610810565b606091505b5050905080610854576040517f08c379a000000000000000000000000000000000000000000000000000000000815260040161084b90612152565b60405180910390fd5b505b949350505050565b610866611603565b61080573ffffffffffffffffffffffffffffffffffffffff16635e615a6b6040518163ffffffff1660e01b8152600401600060405180830381865afa1580156108b3573d6000803e3d6000fd5b505050506040513d6000823e3d601f19601f820116820180604052508101906108dc91906127d6565b905090565b60008054906101000a900460070b81565b600061080573ffffffffffffffffffffffffffffffffffffffff1663a8fdc91930878787876040518663ffffffff1660e01b8152600401610937959493929190612a5e565b6020604051808303816000875af1158015610956573d6000803e3d6000fd5b505050506040513d601f19601f8201168201806040525081019061097a9190612abc565b9050949350505050565b60008215610a835760008081819054906101000a900460070b809291906109aa9061207f565b91906101000a81548167ffffffffffffffff021916908360070b67ffffffffffffffff1602179055505060008873ffffffffffffffffffffffffffffffffffffffff16600f6040516109fb906120e0565b60006040518083038185875af1925050503d8060008114610a38576040519150601f19603f3d011682016040523d82523d6000602084013e610a3d565b606091505b5050905080610a81576040517f08c379a0000000000000000000000000000000000000000000000000000000008152600401610a7890612152565b60405180910390fd5b505b600061080573ffffffffffffffffffffffffffffffffffffffff1663a8fdc919308a8a8a8a6040518663ffffffff1660e01b8152600401610ac8959493929190612a5e565b6020604051808303816000875af1158015610ae7573d6000803e3d6000fd5b505050506040513d601f19601f82011682018060405250810190610b0b9190612abc565b90508215610c0a5760008081819054906101000a900460070b80929190610b319061207f565b91906101000a81548167ffffffffffffffff021916908360070b67ffffffffffffffff1602179055505060008973ffffffffffffffffffffffffffffffffffffffff16600f604051610b82906120e0565b60006040518083038185875af1925050503d8060008114610bbf576040519150601f19603f3d011682016040523d82523d6000602084013e610bc4565b606091505b5050905080610c08576040517f08c379a0000000000000000000000000000000000000000000000000000000008152600401610bff90612152565b60405180910390fd5b505b80915050979650505050505050565b60008215610d185760008081819054906101000a900460070b80929190610c3f9061207f565b91906101000a81548167ffffffffffffffff021916908360070b67ffffffffffffffff1602179055505060008773ffffffffffffffffffffffffffffffffffffffff16600f604051610c90906120e0565b60006040518083038185875af1925050503d8060008114610ccd576040519150601f19603f3d011682016040523d82523d6000602084013e610cd2565b606091505b5050905080610d16576040517f08c379a0000000000000000000000000000000000000000000000000000000008152600401610d0d90612152565b60405180910390fd5b505b61080573ffffffffffffffffffffffffffffffffffffffff1663b24b0376888888886040518563ffffffff1660e01b8152600401610d599493929190612ae9565b6020604051808303816000875af1158015610d78573d6000803e3d6000fd5b505050506040513d601f19601f82011682018060405250810190610d9c91906121bf565b90508115610e9b5760008081819054906101000a900460070b80929190610dc29061207f565b91906101000a81548167ffffffffffffffff021916908360070b67ffffffffffffffff1602179055505060008773ffffffffffffffffffffffffffffffffffffffff16600f604051610e13906120e0565b60006040518083038185875af1925050503d8060008114610e50576040519150601f19603f3d011682016040523d82523d6000602084013e610e55565b606091505b5050905080610e99576040517f08c379a0000000000000000000000000000000000000000000000000000000008152600401610e9090612152565b60405180910390fd5b505b9695505050505050565b600061080573ffffffffffffffffffffffffffffffffffffffff1663b24b0376868686866040518563ffffffff1660e01b8152600401610ee89493929190612ae9565b6020604051808303816000875af1158015610f07573d6000803e3d6000fd5b505050506040513d601f19601f82011682018060405250810190610f2b91906121bf565b9050949350505050565b600061080573ffffffffffffffffffffffffffffffffffffffff1663a33e308630846040518363ffffffff1660e01b8152600401610f74929190612181565b6020604051808303816000875af1158015610f93573d6000803e3d6000fd5b505050506040513d601f19601f82011682018060405250810190610fb791906121bf565b9050919050565b600082156110bd5760008081819054906101000a900460070b80929190610fe49061207f565b91906101000a81548167ffffffffffffffff021916908360070b67ffffffffffffffff1602179055505060008873ffffffffffffffffffffffffffffffffffffffff16600f604051611035906120e0565b60006040518083038185875af1925050503d8060008114611072576040519150601f19603f3d011682016040523d82523d6000602084013e611077565b606091505b50509050806110bb576040517f08c379a00000000000000000000000000000000000000000000000000000000081526004016110b290612152565b60405180910390fd5b505b600061080573ffffffffffffffffffffffffffffffffffffffff1663a8fdc9198a8a8a8a8a6040518663ffffffff1660e01b8152600401611102959493929190612b29565b6020604051808303816000875af1158015611121573d6000803e3d6000fd5b505050506040513d601f19601f820116820180604052508101906111459190612abc565b905082156112445760008081819054906101000a900460070b8092919061116b9061207f565b91906101000a81548167ffffffffffffffff021916908360070b67ffffffffffffffff1602179055505060008973ffffffffffffffffffffffffffffffffffffffff16600f6040516111bc906120e0565b60006040518083038185875af1925050503d80600081146111f9576040519150601f19603f3d011682016040523d82523d6000602084013e6111fe565b606091505b5050905080611242576040517f08c379a000000000000000000000000000000000000000000000000000000000815260040161123990612152565b60405180910390fd5b505b80915050979650505050505050565b600061080573ffffffffffffffffffffffffffffffffffffffff1663b24b0376308686866040518563ffffffff1660e01b81526004016112969493929190612b72565b6020604051808303816000875af11580156112b5573d6000803e3d6000fd5b505050506040513d601f19601f820116820180604052508101906112d991906121bf565b90509392505050565b565b600061080573ffffffffffffffffffffffffffffffffffffffff1663a8fdc91987878787876040518663ffffffff1660e01b8152600401611329959493929190612a5e565b6020604051808303816000875af1158015611348573d6000803e3d6000fd5b505050506040513d601f19601f8201168201806040525081019061136c9190612abc565b905095945050505050565b600082156114765760008081819054906101000a900460070b8092919061139d9061207f565b91906101000a81548167ffffffffffffffff021916908360070b67ffffffffffffffff1602179055505060008773ffffffffffffffffffffffffffffffffffffffff16600f6040516113ee906120e0565b60006040518083038185875af1925050503d806000811461142b576040519150601f19603f3d011682016040523d82523d6000602084013e611430565b606091505b5050905080611474576040517f08c379a000000000000000000000000000000000000000000000000000000000815260040161146b90612152565b60405180910390fd5b505b61080573ffffffffffffffffffffffffffffffffffffffff1663b24b0376308888886040518563ffffffff1660e01b81526004016114b79493929190612b72565b6020604051808303816000875af11580156114d6573d6000803e3d6000fd5b505050506040513d601f19601f820116820180604052508101906114fa91906121bf565b905081156115f95760008081819054906101000a900460070b809291906115209061207f565b91906101000a81548167ffffffffffffffff021916908360070b67ffffffffffffffff1602179055505060008773ffffffffffffffffffffffffffffffffffffffff16600f604051611571906120e0565b60006040518083038185875af1925050503d80600081146115ae576040519150601f19603f3d011682016040523d82523d6000602084013e6115b3565b606091505b50509050806115f7576040517f08c379a00000000000000000000000000000000000000000000000000000000081526004016115ee90612152565b60405180910390fd5b505b9695505050505050565b604051806102000160405280600060070b815260200160608152602001600060070b8152602001606081526020016060815260200160608152602001606081526020016060815260200160608152602001600060070b81526020016060815260200160608152602001600015158152602001600015158152602001600015158152602001606081525090565b6000604051905090565b600080fd5b600080fd5b600073ffffffffffffffffffffffffffffffffffffffff82169050919050565b60006116ce826116a3565b9050919050565b6116de816116c3565b81146116e957600080fd5b50565b6000813590506116fb816116d5565b92915050565b600067ffffffffffffffff82169050919050565b61171e81611701565b811461172957600080fd5b50565b60008135905061173b81611715565b92915050565b60008115159050919050565b61175681611741565b811461176157600080fd5b50565b6000813590506117738161174d565b92915050565b6000806000806080858703121561179357611792611699565b5b60006117a1878288016116ec565b94505060206117b28782880161172c565b93505060406117c387828801611764565b92505060606117d487828801611764565b91505092959194509250565b6117e981611741565b82525050565b600060208201905061180460008301846117e0565b92915050565b60008160070b9050919050565b6118208161180a565b82525050565b600081519050919050565b600082825260208201905092915050565b6000819050602082019050919050565b600081519050919050565b600082825260208201905092915050565b60005b8381101561188c578082015181840152602081019050611871565b60008484015250505050565b6000601f19601f8301169050919050565b60006118b482611852565b6118be818561185d565b93506118ce81856020860161186e565b6118d781611898565b840191505092915050565b6000819050919050565b6118f5816118e2565b82525050565b6000604083016000830151848203600086015261191882826118a9565b915050602083015161192d60208601826118ec565b508091505092915050565b600061194483836118fb565b905092915050565b6000602082019050919050565b600061196482611826565b61196e8185611831565b93508360208202850161198085611842565b8060005b858110156119bc578484038952815161199d8582611938565b94506119a88361194c565b925060208a01995050600181019050611984565b50829750879550505050505092915050565b6119d781611741565b82525050565b6000610200830160008301516119f66000860182611817565b5060208301518482036020860152611a0e8282611959565b9150506040830151611a236040860182611817565b5060608301518482036060860152611a3b82826118a9565b91505060808301518482036080860152611a5582826118a9565b91505060a083015184820360a0860152611a6f82826118a9565b91505060c083015184820360c0860152611a8982826118a9565b91505060e083015184820360e0860152611aa382826118a9565b915050610100830151848203610100860152611abf82826118a9565b915050610120830151611ad6610120860182611817565b50610140830151848203610140860152611af082826118a9565b915050610160830151848203610160860152611b0c8282611959565b915050610180830151611b236101808601826119ce565b506101a0830151611b386101a08601826119ce565b506101c0830151611b4d6101c08601826119ce565b506101e08301518482036101e0860152611b6782826118a9565b9150508091505092915050565b60006020820190508181036000830152611b8e81846119dd565b905092915050565b611b9f8161180a565b82525050565b6000602082019050611bba6000830184611b96565b92915050565b600080fd5b600080fd5b600080fd5b60008083601f840112611be557611be4611bc0565b5b8235905067ffffffffffffffff811115611c0257611c01611bc5565b5b602083019150836001820283011115611c1e57611c1d611bca565b5b9250929050565b60008083601f840112611c3b57611c3a611bc0565b5b8235905067ffffffffffffffff811115611c5857611c57611bc5565b5b602083019150836020820283011115611c7457611c73611bca565b5b9250929050565b60008060008060408587031215611c9557611c94611699565b5b600085013567ffffffffffffffff811115611cb357611cb261169e565b5b611cbf87828801611bcf565b9450945050602085013567ffffffffffffffff811115611ce257611ce161169e565b5b611cee87828801611c25565b925092505092959194509250565b611d0581611701565b82525050565b6000602082019050611d206000830184611cfc565b92915050565b600080600080600080600060a0888a031215611d4557611d44611699565b5b6000611d538a828b016116ec565b975050602088013567ffffffffffffffff811115611d7457611d7361169e565b5b611d808a828b01611bcf565b9650965050604088013567ffffffffffffffff811115611da357611da261169e565b5b611daf8a828b01611c25565b94509450506060611dc28a828b01611764565b9250506080611dd38a828b01611764565b91505092959891949750929550565b60008060008060008060a08789031215611dff57611dfe611699565b5b6000611e0d89828a016116ec565b9650506020611e1e89828a0161172c565b955050604087013567ffffffffffffffff811115611e3f57611e3e61169e565b5b611e4b89828a01611c25565b94509450506060611e5e89828a01611764565b9250506080611e6f89828a01611764565b9150509295509295509295565b60008060008060608587031215611e9657611e95611699565b5b6000611ea4878288016116ec565b9450506020611eb58782880161172c565b935050604085013567ffffffffffffffff811115611ed657611ed561169e565b5b611ee287828801611c25565b925092505092959194509250565b600060208284031215611f0657611f05611699565b5b6000611f148482850161172c565b91505092915050565b600080600060408486031215611f3657611f35611699565b5b6000611f448682870161172c565b935050602084013567ffffffffffffffff811115611f6557611f6461169e565b5b611f7186828701611c25565b92509250509250925092565b6000611f88826116a3565b9050919050565b611f9881611f7d565b8114611fa357600080fd5b50565b600081359050611fb581611f8f565b92915050565b600080600080600060608688031215611fd757611fd6611699565b5b6000611fe588828901611fa6565b955050602086013567ffffffffffffffff8111156120065761200561169e565b5b61201288828901611bcf565b9450945050604086013567ffffffffffffffff8111156120355761203461169e565b5b61204188828901611c25565b92509250509295509295909350565b7f4e487b7100000000000000000000000000000000000000000000000000000000600052601160045260246000fd5b600061208a8261180a565b9150677fffffffffffffff82036120a4576120a3612050565b5b600182019050919050565b600081905092915050565b50565b60006120ca6000836120af565b91506120d5826120ba565b600082019050919050565b60006120eb826120bd565b9150819050919050565b600082825260208201905092915050565b7f4661696c656420746f2073656e6420457468657220746f2070726f706f736572600082015250565b600061213c6020836120f5565b915061214782612106565b602082019050919050565b6000602082019050818103600083015261216b8161212f565b9050919050565b61217b81611f7d565b82525050565b60006040820190506121966000830185612172565b6121a36020830184611cfc565b9392505050565b6000815190506121b98161174d565b92915050565b6000602082840312156121d5576121d4611699565b5b60006121e3848285016121aa565b91505092915050565b6000819050919050565b600061221161220c612207846116a3565b6121ec565b6116a3565b9050919050565b6000612223826121f6565b9050919050565b600061223582612218565b9050919050565b6122458161222a565b82525050565b6000604082019050612260600083018561223c565b61226d6020830184611cfc565b9392505050565b600080fd5b7f4e487b7100000000000000000000000000000000000000000000000000000000600052604160045260246000fd5b6122b182611898565b810181811067ffffffffffffffff821117156122d0576122cf612279565b5b80604052505050565b60006122e361168f565b90506122ef82826122a8565b919050565b600080fd5b6123028161180a565b811461230d57600080fd5b50565b60008151905061231f816122f9565b92915050565b600067ffffffffffffffff8211156123405761233f612279565b5b602082029050602081019050919050565b600080fd5b600067ffffffffffffffff82111561237157612370612279565b5b61237a82611898565b9050602081019050919050565b600061239a61239584612356565b6122d9565b9050828152602081018484840111156123b6576123b5612351565b5b6123c184828561186e565b509392505050565b600082601f8301126123de576123dd611bc0565b5b81516123ee848260208601612387565b91505092915050565b612400816118e2565b811461240b57600080fd5b50565b60008151905061241d816123f7565b92915050565b60006040828403121561243957612438612274565b5b61244360406122d9565b9050600082015167ffffffffffffffff811115612463576124626122f4565b5b61246f848285016123c9565b60008301525060206124838482850161240e565b60208301525092915050565b60006124a261249d84612325565b6122d9565b905080838252602082019050602084028301858111156124c5576124c4611bca565b5b835b8181101561250c57805167ffffffffffffffff8111156124ea576124e9611bc0565b5b8086016124f78982612423565b855260208501945050506020810190506124c7565b5050509392505050565b600082601f83011261252b5761252a611bc0565b5b815161253b84826020860161248f565b91505092915050565b6000610200828403121561255b5761255a612274565b5b6125666102006122d9565b9050600061257684828501612310565b600083015250602082015167ffffffffffffffff81111561259a576125996122f4565b5b6125a684828501612516565b60208301525060406125ba84828501612310565b604083015250606082015167ffffffffffffffff8111156125de576125dd6122f4565b5b6125ea848285016123c9565b606083015250608082015167ffffffffffffffff81111561260e5761260d6122f4565b5b61261a848285016123c9565b60808301525060a082015167ffffffffffffffff81111561263e5761263d6122f4565b5b61264a848285016123c9565b60a08301525060c082015167ffffffffffffffff81111561266e5761266d6122f4565b5b61267a848285016123c9565b60c08301525060e082015167ffffffffffffffff81111561269e5761269d6122f4565b5b6126aa848285016123c9565b60e08301525061010082015167ffffffffffffffff8111156126cf576126ce6122f4565b5b6126db848285016123c9565b610100830152506101206126f184828501612310565b6101208301525061014082015167ffffffffffffffff811115612717576127166122f4565b5b612723848285016123c9565b6101408301525061016082015167ffffffffffffffff811115612749576127486122f4565b5b61275584828501612516565b6101608301525061018061276b848285016121aa565b610180830152506101a0612781848285016121aa565b6101a0830152506101c0612797848285016121aa565b6101c0830152506101e082015167ffffffffffffffff8111156127bd576127bc6122f4565b5b6127c9848285016123c9565b6101e08301525092915050565b6000602082840312156127ec576127eb611699565b5b600082015167ffffffffffffffff81111561280a5761280961169e565b5b61281684828501612544565b91505092915050565b600082825260208201905092915050565b82818337600083830152505050565b600061284b838561281f565b9350612858838584612830565b61286183611898565b840190509392505050565b600082825260208201905092915050565b6000819050919050565b600080fd5b600080fd5b600080fd5b600080833560016020038436030381126128b3576128b2612891565b5b83810192508235915060208301925067ffffffffffffffff8211156128db576128da612887565b5b6001820236038313156128f1576128f061288c565b5b509250929050565b6000612905838561185d565b9350612912838584612830565b61291b83611898565b840190509392505050565b600081359050612935816123f7565b92915050565b600061294a6020840184612926565b905092915050565b6000604083016129656000840184612896565b85830360008701526129788382846128f9565b92505050612989602084018461293b565b61299660208601826118ec565b508091505092915050565b60006129ad8383612952565b905092915050565b6000823560016040038336030381126129d1576129d0612891565b5b82810191505092915050565b6000602082019050919050565b60006129f6838561286c565b935083602084028501612a088461287d565b8060005b87811015612a4c578484038952612a2382846129b5565b612a2d85826129a1565b9450612a38836129dd565b925060208a01995050600181019050612a0c565b50829750879450505050509392505050565b6000606082019050612a736000830188612172565b8181036020830152612a8681868861283f565b90508181036040830152612a9b8184866129ea565b90509695505050505050565b600081519050612ab681611715565b92915050565b600060208284031215612ad257612ad1611699565b5b6000612ae084828501612aa7565b91505092915050565b6000606082019050612afe600083018761223c565b612b0b6020830186611cfc565b8181036040830152612b1e8184866129ea565b905095945050505050565b6000606082019050612b3e600083018861223c565b8181036020830152612b5181868861283f565b90508181036040830152612b668184866129ea565b90509695505050505050565b6000606082019050612b876000830187612172565b612b946020830186611cfc565b8181036040830152612ba78184866129ea565b90509594505050505056fea2646970667358221220a137766dac848ff1c0c5eb78d7fe8583b385b4b37f41e28926194f291cfa972964736f6c63430008140033",
  "linkReferences": {},
  "deployedLinkReferences": {}
}