{
  "_format": "hh-sol-artifact-1",
  "contractName": "ICS20Caller",
  "sourceName": "solidity/precompiles/testutil/contracts/ICS20Caller.sol",
  "abi": [
    {
      "inputs": [],
      "name": "counter",
      "outputs": [
        {
          "internalType": "int64",
          "name": "",
          "type": "int64"
        }
      ],
      "stateMutability": "view",
      "type": "function"
    },
    {
      "inputs": [],
      "name": "deposit",
      "outputs": [],
      "stateMutability": "payable",
      "type": "function"
    },
    {
      "inputs": [
        {
          "internalType": "string",
          "name": "_sourcePort",
          "type": "string"
        },
        {
          "internalType": "string",
          "name": "_sourceChannel",
          "type": "string"
        },
        {
          "internalType": "string",
          "name": "_denom",
          "type": "string"
        },
        {
          "internalType": "uint256",
          "name": "_amount",
          "type": "uint256"
        },
        {
          "internalType": "address",
          "name": "_sender",
          "type": "address"
        },
        {
          "internalType": "string",
          "name": "_receiver",
          "type": "string"
        },
        {
          "components": [
            {
              "internalType": "uint64",
              "name": "revisionNumber",
              "type": "uint64"
            },
            {
              "internalType": "uint64",
              "name": "revisionHeight",
              "type": "uint64"
            }
          ],
          "internalType": "struct Height",
          "name": "_timeoutHeight",
          "type": "tuple"
        },
        {
          "internalType": "uint64",
          "name": "_timeoutTimestamp",
          "type": "uint64"
        },
        {
          "internalType": "string",
          "name": "_memo",
          "type": "string"
        }
      ],
      "name": "ibcTransferAndRevert",
      "outputs": [
        {
          "internalType": "uint64",
          "name": "nextSequence",
          "type": "uint64"
        }
      ],
      "stateMutability": "nonpayable",
      "type": "function"
    },
    {
      "inputs": [
        {
          "internalType": "string",
          "name": "_sourcePort",
          "type": "string"
        },
        {
          "internalType": "string",
          "name": "_sourceChannel",
          "type": "string"
        },
        {
          "internalType": "string",
          "name": "_denom",
          "type": "string"
        },
        {
          "internalType": "uint256",
          "name": "_amount",
          "type": "uint256"
        },
        {
          "internalType": "address",
          "name": "_sender",
          "type": "address"
        },
        {
          "internalType": "string",
          "name": "_receiver",
          "type": "string"
        },
        {
          "components": [
            {
              "internalType": "uint64",
              "name": "revisionNumber",
              "type": "uint64"
            },
            {
              "internalType": "uint64",
              "name": "revisionHeight",
              "type": "uint64"
            }
          ],
          "internalType": "struct Height",
          "name": "_timeoutHeight",
          "type": "tuple"
        },
        {
          "internalType": "uint64",
          "name": "_timeoutTimestamp",
          "type": "uint64"
        },
        {
          "internalType": "string",
          "name": "_memo",
          "type": "string"
        }
      ],
      "name": "testIbcTransfer",
      "outputs": [
        {
          "internalType": "uint64",
          "name": "",
          "type": "uint64"
        }
      ],
      "stateMutability": "nonpayable",
      "type": "function"
    },
    {
      "inputs": [
        {
          "internalType": "string",
          "name": "_sourcePort",
          "type": "string"
        },
        {
          "internalType": "string",
          "name": "_sourceChannel",
          "type": "string"
        },
        {
          "internalType": "string",
          "name": "_denom",
          "type": "string"
        },
        {
          "internalType": "uint256",
          "name": "_amount",
          "type": "uint256"
        },
        {
          "internalType": "string",
          "name": "_receiver",
          "type": "string"
        },
        {
          "components": [
            {
              "internalType": "uint64",
              "name": "revisionNumber",
              "type": "uint64"
            },
            {
              "internalType": "uint64",
              "name": "revisionHeight",
              "type": "uint64"
            }
          ],
          "internalType": "struct Height",
          "name": "_timeoutHeight",
          "type": "tuple"
        },
        {
          "internalType": "uint64",
          "name": "_timeoutTimestamp",
          "type": "uint64"
        },
        {
          "internalType": "string",
          "name": "_memo",
          "type": "string"
        }
      ],
      "name": "testIbcTransferFromContract",
      "outputs": [
        {
          "internalType": "uint64",
          "name": "",
          "type": "uint64"
        }
      ],
      "stateMutability": "nonpayable",
      "type": "function"
    },
    {
      "inputs": [
        {
          "internalType": "string",
          "name": "_sourcePort",
          "type": "string"
        },
        {
          "internalType": "string",
          "name": "_sourceChannel",
          "type": "string"
        },
        {
          "internalType": "string",
          "name": "_denom",
          "type": "string"
        },
        {
          "internalType": "uint256",
          "name": "_amount",
          "type": "uint256"
        },
        {
          "internalType": "address",
          "name": "_sender",
          "type": "address"
        },
        {
          "internalType": "string",
          "name": "_receiver",
          "type": "string"
        },
        {
          "components": [
            {
              "internalType": "uint64",
              "name": "revisionNumber",
              "type": "uint64"
            },
            {
              "internalType": "uint64",
              "name": "revisionHeight",
              "type": "uint64"
            }
          ],
          "internalType": "struct Height",
          "name": "_timeoutHeight",
          "type": "tuple"
        },
        {
          "internalType": "uint64",
          "name": "_timeoutTimestamp",
          "type": "uint64"
        },
        {
          "internalType": "string",
          "name": "_memo",
          "type": "string"
        },
        {
          "internalType": "bool",
          "name": "_before",
          "type": "bool"
        },
        {
          "internalType": "bool",
          "name": "_after",
          "type": "bool"
        }
      ],
      "name": "testIbcTransferWithTransfer",
      "outputs": [
        {
          "internalType": "uint64",
          "name": "",
          "type": "uint64"
        }
      ],
      "stateMutability": "nonpayable",
      "type": "function"
    },
    {
      "inputs": [
        {
          "internalType": "string",
          "name": "_sourcePort",
          "type": "string"
        },
        {
          "internalType": "string",
          "name": "_sourceChannel",
          "type": "string"
        },
        {
          "internalType": "string",
          "name": "_denom",
          "type": "string"
        },
        {
          "internalType": "uint256",
          "name": "_amount",
          "type": "uint256"
        },
        {
          "internalType": "address",
          "name": "_sender",
          "type": "address"
        },
        {
          "internalType": "string",
          "name": "_receiver",
          "type": "string"
        },
        {
          "internalType": "address",
          "name": "_receiverAddr",
          "type": "address"
        },
        {
          "components": [
            {
              "internalType": "uint64",
              "name": "revisionNumber",
              "type": "uint64"
            },
            {
              "internalType": "uint64",
              "name": "revisionHeight",
              "type": "uint64"
            }
          ],
          "internalType": "struct Height",
          "name": "_timeoutHeight",
          "type": "tuple"
        },
        {
          "internalType": "uint64",
          "name": "_timeoutTimestamp",
          "type": "uint64"
        },
        {
          "internalType": "string",
          "name": "_memo",
          "type": "string"
        },
        {
          "internalType": "bool",
          "name": "_after",
          "type": "bool"
        }
      ],
      "name": "testRevertIbcTransfer",
      "outputs": [],
      "stateMutability": "nonpayable",
      "type": "function"
    }
  ],
  "bytecode": "0x608060405234801561001057600080fd5b50611441806100206000396000f3fe6080604052600436106100705760003560e01c8063c35264501161004e578063c352645014610106578063d0e30db014610143578063d8bb6c0e1461014d578063e12e9b271461018a57610070565b806361bc221a14610075578063b42bc5a9146100a0578063bcc45b79146100c9575b600080fd5b34801561008157600080fd5b5061008a6101c7565b60405161009791906107ff565b60405180910390f35b3480156100ac57600080fd5b506100c760048036038101906100c29190610ad5565b6101d8565b005b3480156100d557600080fd5b506100f060048036038101906100eb9190610c55565b61036e565b6040516100fd9190610da7565b60405180910390f35b34801561011257600080fd5b5061012d60048036038101906101289190610dc2565b61040c565b60405161013a9190610da7565b60405180910390f35b61014b6106ad565b005b34801561015957600080fd5b50610174600480360381019061016f9190610f43565b6106af565b6040516101819190610da7565b60405180910390f35b34801561019657600080fd5b506101b160048036038101906101ac9190610f43565b61074e565b6040516101be9190610da7565b60405180910390f35b60008054906101000a900460070b81565b3073ffffffffffffffffffffffffffffffffffffffff1663e12e9b278c8c8c8c8c8c8b8b8b6040518a63ffffffff1660e01b815260040161022199989796959493929190611175565b6020604051808303816000875af192505050801561025d57506040513d601f19601f8201168201806040525081019061025a919061123b565b60015b1561026457505b80156103615760008081819054906101000a900460070b8092919061028890611297565b91906101000a81548167ffffffffffffffff021916908360070b67ffffffffffffffff1602179055505060008573ffffffffffffffffffffffffffffffffffffffff16600f6040516102d9906112f8565b60006040518083038185875af1925050503d8060008114610316576040519150601f19603f3d011682016040523d82523d6000602084013e61031b565b606091505b505090508061035f576040517f08c379a00000000000000000000000000000000000000000000000000000000081526004016103569061137f565b60405180910390fd5b505b5050505050505050505050565b600061080273ffffffffffffffffffffffffffffffffffffffff1663632535b98a8a8a8a308b8b8b8b6040518a63ffffffff1660e01b81526004016103bb99989796959493929190611175565b6020604051808303816000875af11580156103da573d6000803e3d6000fd5b505050506040513d601f19601f820116820180604052508101906103fe919061123b565b905098975050505050505050565b6000821561050b5760008081819054906101000a900460070b8092919061043290611297565b91906101000a81548167ffffffffffffffff021916908360070b67ffffffffffffffff1602179055505060003373ffffffffffffffffffffffffffffffffffffffff16600f604051610483906112f8565b60006040518083038185875af1925050503d80600081146104c0576040519150601f19603f3d011682016040523d82523d6000602084013e6104c5565b606091505b5050905080610509576040517f08c379a0000000000000000000000000000000000000000000000000000000008152600401610500906113eb565b60405180910390fd5b505b600061080273ffffffffffffffffffffffffffffffffffffffff1663632535b98e8e8e8e8e8e8e8e8e6040518a63ffffffff1660e01b815260040161055899989796959493929190611175565b6020604051808303816000875af1158015610577573d6000803e3d6000fd5b505050506040513d601f19601f8201168201806040525081019061059b919061123b565b9050821561069a5760008081819054906101000a900460070b809291906105c190611297565b91906101000a81548167ffffffffffffffff021916908360070b67ffffffffffffffff1602179055505060003373ffffffffffffffffffffffffffffffffffffffff16600f604051610612906112f8565b60006040518083038185875af1925050503d806000811461064f576040519150601f19603f3d011682016040523d82523d6000602084013e610654565b606091505b5050905080610698576040517f08c379a000000000000000000000000000000000000000000000000000000000815260040161068f906113eb565b60405180910390fd5b505b809150509b9a5050505050505050505050565b565b600061080273ffffffffffffffffffffffffffffffffffffffff1663632535b98b8b8b8b8b8b8b8b8b6040518a63ffffffff1660e01b81526004016106fc99989796959493929190611175565b6020604051808303816000875af115801561071b573d6000803e3d6000fd5b505050506040513d601f19601f8201168201806040525081019061073f919061123b565b90509998505050505050505050565b600061080273ffffffffffffffffffffffffffffffffffffffff1663632535b98b8b8b8b8b8b8b8b8b6040518a63ffffffff1660e01b815260040161079b99989796959493929190611175565b6020604051808303816000875af11580156107ba573d6000803e3d6000fd5b505050506040513d601f19601f820116820180604052508101906107de919061123b565b600080fd5b60008160070b9050919050565b6107f9816107e3565b82525050565b600060208201905061081460008301846107f0565b92915050565b6000604051905090565b600080fd5b600080fd5b600080fd5b600080fd5b6000601f19601f8301169050919050565b7f4e487b7100000000000000000000000000000000000000000000000000000000600052604160045260246000fd5b61088182610838565b810181811067ffffffffffffffff821117156108a05761089f610849565b5b80604052505050565b60006108b361081a565b90506108bf8282610878565b919050565b600067ffffffffffffffff8211156108df576108de610849565b5b6108e882610838565b9050602081019050919050565b82818337600083830152505050565b6000610917610912846108c4565b6108a9565b90508281526020810184848401111561093357610932610833565b5b61093e8482856108f5565b509392505050565b600082601f83011261095b5761095a61082e565b5b813561096b848260208601610904565b91505092915050565b6000819050919050565b61098781610974565b811461099257600080fd5b50565b6000813590506109a48161097e565b92915050565b600073ffffffffffffffffffffffffffffffffffffffff82169050919050565b60006109d5826109aa565b9050919050565b6109e5816109ca565b81146109f057600080fd5b50565b600081359050610a02816109dc565b92915050565b600080fd5b600067ffffffffffffffff82169050919050565b610a2a81610a0d565b8114610a3557600080fd5b50565b600081359050610a4781610a21565b92915050565b600060408284031215610a6357610a62610a08565b5b610a6d60406108a9565b90506000610a7d84828501610a38565b6000830152506020610a9184828501610a38565b60208301525092915050565b60008115159050919050565b610ab281610a9d565b8114610abd57600080fd5b50565b600081359050610acf81610aa9565b92915050565b60008060008060008060008060008060006101808c8e031215610afb57610afa610824565b5b60008c013567ffffffffffffffff811115610b1957610b18610829565b5b610b258e828f01610946565b9b505060208c013567ffffffffffffffff811115610b4657610b45610829565b5b610b528e828f01610946565b9a505060408c013567ffffffffffffffff811115610b7357610b72610829565b5b610b7f8e828f01610946565b9950506060610b908e828f01610995565b9850506080610ba18e828f016109f3565b97505060a08c013567ffffffffffffffff811115610bc257610bc1610829565b5b610bce8e828f01610946565b96505060c0610bdf8e828f016109f3565b95505060e0610bf08e828f01610a4d565b945050610120610c028e828f01610a38565b9350506101408c013567ffffffffffffffff811115610c2457610c23610829565b5b610c308e828f01610946565b925050610160610c428e828f01610ac0565b9150509295989b509295989b9093969950565b600080600080600080600080610120898b031215610c7657610c75610824565b5b600089013567ffffffffffffffff811115610c9457610c93610829565b5b610ca08b828c01610946565b985050602089013567ffffffffffffffff811115610cc157610cc0610829565b5b610ccd8b828c01610946565b975050604089013567ffffffffffffffff811115610cee57610ced610829565b5b610cfa8b828c01610946565b9650506060610d0b8b828c01610995565b955050608089013567ffffffffffffffff811115610d2c57610d2b610829565b5b610d388b828c01610946565b94505060a0610d498b828c01610a4d565b93505060e0610d5a8b828c01610a38565b92505061010089013567ffffffffffffffff811115610d7c57610d7b610829565b5b610d888b828c01610946565b9150509295985092959890939650565b610da181610a0d565b82525050565b6000602082019050610dbc6000830184610d98565b92915050565b60008060008060008060008060008060006101808c8e031215610de857610de7610824565b5b60008c013567ffffffffffffffff811115610e0657610e05610829565b5b610e128e828f01610946565b9b505060208c013567ffffffffffffffff811115610e3357610e32610829565b5b610e3f8e828f01610946565b9a505060408c013567ffffffffffffffff811115610e6057610e5f610829565b5b610e6c8e828f01610946565b9950506060610e7d8e828f01610995565b9850506080610e8e8e828f016109f3565b97505060a08c013567ffffffffffffffff811115610eaf57610eae610829565b5b610ebb8e828f01610946565b96505060c0610ecc8e828f01610a4d565b955050610100610ede8e828f01610a38565b9450506101208c013567ffffffffffffffff811115610f0057610eff610829565b5b610f0c8e828f01610946565b935050610140610f1e8e828f01610ac0565b925050610160610f308e828f01610ac0565b9150509295989b509295989b9093969950565b60008060008060008060008060006101408a8c031215610f6657610f65610824565b5b60008a013567ffffffffffffffff811115610f8457610f83610829565b5b610f908c828d01610946565b99505060208a013567ffffffffffffffff811115610fb157610fb0610829565b5b610fbd8c828d01610946565b98505060408a013567ffffffffffffffff811115610fde57610fdd610829565b5b610fea8c828d01610946565b9750506060610ffb8c828d01610995565b965050608061100c8c828d016109f3565b95505060a08a013567ffffffffffffffff81111561102d5761102c610829565b5b6110398c828d01610946565b94505060c061104a8c828d01610a4d565b93505061010061105c8c828d01610a38565b9250506101208a013567ffffffffffffffff81111561107e5761107d610829565b5b61108a8c828d01610946565b9150509295985092959850929598565b600081519050919050565b600082825260208201905092915050565b60005b838110156110d45780820151818401526020810190506110b9565b60008484015250505050565b60006110eb8261109a565b6110f581856110a5565b93506111058185602086016110b6565b61110e81610838565b840191505092915050565b61112281610974565b82525050565b611131816109ca565b82525050565b61114081610a0d565b82525050565b60408201600082015161115c6000850182611137565b50602082015161116f6020850182611137565b50505050565b6000610140820190508181036000830152611190818c6110e0565b905081810360208301526111a4818b6110e0565b905081810360408301526111b8818a6110e0565b90506111c76060830189611119565b6111d46080830188611128565b81810360a08301526111e681876110e0565b90506111f560c0830186611146565b611203610100830185610d98565b81810361012083015261121681846110e0565b90509a9950505050505050505050565b60008151905061123581610a21565b92915050565b60006020828403121561125157611250610824565b5b600061125f84828501611226565b91505092915050565b7f4e487b7100000000000000000000000000000000000000000000000000000000600052601160045260246000fd5b60006112a2826107e3565b9150677fffffffffffffff82036112bc576112bb611268565b5b600182019050919050565b600081905092915050565b50565b60006112e26000836112c7565b91506112ed826112d2565b600082019050919050565b6000611303826112d5565b9150819050919050565b7f4661696c656420746f2073656e6420457468657220746f2064656c656761746f60008201527f7200000000000000000000000000000000000000000000000000000000000000602082015250565b60006113696021836110a5565b91506113748261130d565b604082019050919050565b600060208201905081810360008301526113988161135c565b9050919050565b7f4661696c656420746f2073656e6420457468657220746f2073656e6465720000600082015250565b60006113d5601e836110a5565b91506113e08261139f565b602082019050919050565b60006020820190508181036000830152611404816113c8565b905091905056fea2646970667358221220f03fdfa29644c503bd2ebd2faaa75c42d40249bad32bcd7836785bf67b9dfd5364736f6c63430008140033",
  "linkReferences": {},
  "deployedLinkReferences": {}
}