{
  "_format": "hh-sol-artifact-1",
  "contractName": "ICS20Caller",
  "sourceName": "solidity/precompiles/testutil/contracts/ICS20Caller.sol",
  "abi": [
    {
      "inputs": [],
      "name": "counter",
      "outputs": [
        {
          "internalType": "int64",
          "name": "",
          "type": "int64"
        }
      ],
      "stateMutability": "view",
      "type": "function"
    },
    {
      "inputs": [],
      "name": "deposit",
      "outputs": [],
      "stateMutability": "payable",
      "type": "function"
    },
    {
      "inputs": [
        {
          "internalType": "string",
          "name": "_sourcePort",
          "type": "string"
        },
        {
          "internalType": "string",
          "name": "_sourceChannel",
          "type": "string"
        },
        {
          "internalType": "string",
          "name": "_denom",
          "type": "string"
        },
        {
          "internalType": "uint256",
          "name": "_amount",
          "type": "uint256"
        },
        {
          "internalType": "address",
          "name": "_sender",
          "type": "address"
        },
        {
          "internalType": "string",
          "name": "_receiver",
          "type": "string"
        },
        {
          "components": [
            {
              "internalType": "uint64",
              "name": "revisionNumber",
              "type": "uint64"
            },
            {
              "internalType": "uint64",
              "name": "revisionHeight",
              "type": "uint64"
            }
          ],
          "internalType": "struct Height",
          "name": "_timeoutHeight",
          "type": "tuple"
        },
        {
          "internalType": "uint64",
          "name": "_timeoutTimestamp",
          "type": "uint64"
        },
        {
          "internalType": "string",
          "name": "_memo",
          "type": "string"
        }
      ],
      "name": "ibcTransferAndRevert",
      "outputs": [
        {
          "internalType": "uint64",
          "name": "nextSequence",
          "type": "uint64"
        }
      ],
      "stateMutability": "nonpayable",
      "type": "function"
    },
    {
      "inputs": [
        {
          "internalType": "string",
          "name": "_sourcePort",
          "type": "string"
        },
        {
          "internalType": "string",
          "name": "_sourceChannel",
          "type": "string"
        },
        {
          "internalType": "string",
          "name": "_denom",
          "type": "string"
        },
        {
          "internalType": "uint256",
          "name": "_amount",
          "type": "uint256"
        },
        {
          "internalType": "address",
          "name": "_sender",
          "type": "address"
        },
        {
          "internalType": "string",
          "name": "_receiver",
          "type": "string"
        },
        {
          "components": [
            {
              "internalType": "uint64",
              "name": "revisionNumber",
              "type": "uint64"
            },
            {
              "internalType": "uint64",
              "name": "revisionHeight",
              "type": "uint64"
            }
          ],
          "internalType": "struct Height",
          "name": "_timeoutHeight",
          "type": "tuple"
        },
        {
          "internalType": "uint64",
          "name": "_timeoutTimestamp",
          "type": "uint64"
        },
        {
          "internalType": "string",
          "name": "_memo",
          "type": "string"
        }
      ],
      "name": "testIbcTransfer",
      "outputs": [
        {
          "internalType": "uint64",
          "name": "",
          "type": "uint64"
        }
      ],
      "stateMutability": "nonpayable",
      "type": "function"
    },
    {
      "inputs": [
        {
          "internalType": "string",
          "name": "_sourcePort",
          "type": "string"
        },
        {
          "internalType": "string",
          "name": "_sourceChannel",
          "type": "string"
        },
        {
          "internalType": "string",
          "name": "_denom",
          "type": "string"
        },
        {
          "internalType": "uint256",
          "name": "_amount",
          "type": "uint256"
        },
        {
          "internalType": "string",
          "name": "_receiver",
          "type": "string"
        },
        {
          "components": [
            {
              "internalType": "uint64",
              "name": "revisionNumber",
              "type": "uint64"
            },
            {
              "internalType": "uint64",
              "name": "revisionHeight",
              "type": "uint64"
            }
          ],
          "internalType": "struct Height",
          "name": "_timeoutHeight",
          "type": "tuple"
        },
        {
          "internalType": "uint64",
          "name": "_timeoutTimestamp",
          "type": "uint64"
        },
        {
          "internalType": "string",
          "name": "_memo",
          "type": "string"
        }
      ],
      "name": "testIbcTransferFromContract",
      "outputs": [
        {
          "internalType": "uint64",
          "name": "",
          "type": "uint64"
        }
      ],
      "stateMutability": "nonpayable",
      "type": "function"
    },
    {
      "inputs": [
        {
          "internalType": "string",
          "name": "_sourcePort",
          "type": "string"
        },
        {
          "internalType": "string",
          "name": "_sourceChannel",
          "type": "string"
        },
        {
          "internalType": "string",
          "name": "_denom",
          "type": "string"
        },
        {
          "internalType": "uint256",
          "name": "_amount",
          "type": "uint256"
        },
        {
          "internalType": "address",
          "name": "_sender",
          "type": "address"
        },
        {
          "internalType": "string",
          "name": "_receiver",
          "type": "string"
        },
        {
          "components": [
            {
              "internalType": "uint64",
              "name": "revisionNumber",
              "type": "uint64"
            },
            {
              "internalType": "uint64",
              "name": "revisionHeight",
              "type": "uint64"
            }
          ],
          "internalType": "struct Height",
          "name": "_timeoutHeight",
          "type": "tuple"
        },
        {
          "internalType": "uint64",
          "name": "_timeoutTimestamp",
          "type": "uint64"
        },
        {
          "internalType": "string",
          "name": "_memo",
          "type": "string"
        },
        {
          "internalType": "bool",
          "name": "_before",
          "type": "bool"
        },
        {
          "internalType": "bool",
          "name": "_after",
          "type": "bool"
        }
      ],
      "name": "testIbcTransferWithTransfer",
      "outputs": [
        {
          "internalType": "uint64",
          "name": "",
          "type": "uint64"
        }
      ],
      "stateMutability": "nonpayable",
      "type": "function"
    },
    {
      "inputs": [
        {
          "internalType": "string",
          "name": "_sourcePort",
          "type": "string"
        },
        {
          "internalType": "string",
          "name": "_sourceChannel",
          "type": "string"
        },
        {
          "internalType": "string",
          "name": "_denom",
          "type": "string"
        },
        {
          "internalType": "uint256",
          "name": "_amount",
          "type": "uint256"
        },
        {
          "internalType": "address",
          "name": "_sender",
          "type": "address"
        },
        {
          "internalType": "string",
          "name": "_receiver",
          "type": "string"
        },
        {
          "components": [
            {
              "internalType": "uint64",
              "name": "revisionNumber",
              "type": "uint64"
            },
            {
              "internalType": "uint64",
              "name": "revisionHeight",
              "type": "uint64"
            }
          ],
          "internalType": "struct Height",
          "name": "_timeoutHeight",
          "type": "tuple"
        },
        {
          "internalType": "uint64",
          "name": "_timeoutTimestamp",
          "type": "uint64"
        },
        {
          "internalType": "string",
          "name": "_memo",
          "type": "string"
        },
        {
          "internalType": "bool",
          "name": "_after",
          "type": "bool"
        }
      ],
      "name": "testRevertIbcTransfer",
      "outputs": [],
      "stateMutability": "nonpayable",
      "type": "function"
    }
  ],
  "bytecode": "0x608060405234801561001057600080fd5b5061142c806100206000396000f3fe6080604052600436106100705760003560e01c8063d0e30db01161004e578063d0e30db01461011a578063d8bb6c0e14610124578063e12e9b2714610161578063f5ad0d231461019e57610070565b806361bc221a14610075578063bcc45b79146100a0578063c3526450146100dd575b600080fd5b34801561008157600080fd5b5061008a6101c7565b60405161009791906107fe565b60405180910390f35b3480156100ac57600080fd5b506100c760048036038101906100c29190610a3e565b6101d8565b6040516100d49190610b90565b60405180910390f35b3480156100e957600080fd5b5061010460048036038101906100ff9190610c41565b610276565b6040516101119190610b90565b60405180910390f35b610122610517565b005b34801561013057600080fd5b5061014b60048036038101906101469190610dc2565b610519565b6040516101589190610b90565b60405180910390f35b34801561016d57600080fd5b5061018860048036038101906101839190610dc2565b6105b8565b6040516101959190610b90565b60405180910390f35b3480156101aa57600080fd5b506101c560048036038101906101c09190610f19565b61064d565b005b60008054906101000a900460070b81565b600061080273ffffffffffffffffffffffffffffffffffffffff1663632535b98a8a8a8a308b8b8b8b6040518a63ffffffff1660e01b815260040161022599989796959493929190611160565b6020604051808303816000875af1158015610244573d6000803e3d6000fd5b505050506040513d601f19601f820116820180604052508101906102689190611226565b905098975050505050505050565b600082156103755760008081819054906101000a900460070b8092919061029c90611282565b91906101000a81548167ffffffffffffffff021916908360070b67ffffffffffffffff1602179055505060003373ffffffffffffffffffffffffffffffffffffffff16600f6040516102ed906112e3565b60006040518083038185875af1925050503d806000811461032a576040519150601f19603f3d011682016040523d82523d6000602084013e61032f565b606091505b5050905080610373576040517f08c379a000000000000000000000000000000000000000000000000000000000815260040161036a90611344565b60405180910390fd5b505b600061080273ffffffffffffffffffffffffffffffffffffffff1663632535b98e8e8e8e8e8e8e8e8e6040518a63ffffffff1660e01b81526004016103c299989796959493929190611160565b6020604051808303816000875af11580156103e1573d6000803e3d6000fd5b505050506040513d601f19601f820116820180604052508101906104059190611226565b905082156105045760008081819054906101000a900460070b8092919061042b90611282565b91906101000a81548167ffffffffffffffff021916908360070b67ffffffffffffffff1602179055505060003373ffffffffffffffffffffffffffffffffffffffff16600f60405161047c906112e3565b60006040518083038185875af1925050503d80600081146104b9576040519150601f19603f3d011682016040523d82523d6000602084013e6104be565b606091505b5050905080610502576040517f08c379a00000000000000000000000000000000000000000000000000000000081526004016104f990611344565b60405180910390fd5b505b809150509b9a5050505050505050505050565b565b600061080273ffffffffffffffffffffffffffffffffffffffff1663632535b98b8b8b8b8b8b8b8b8b6040518a63ffffffff1660e01b815260040161056699989796959493929190611160565b6020604051808303816000875af1158015610585573d6000803e3d6000fd5b505050506040513d601f19601f820116820180604052508101906105a99190611226565b90509998505050505050505050565b600061080273ffffffffffffffffffffffffffffffffffffffff1663632535b98b8b8b8b8b8b8b8b8b6040518a63ffffffff1660e01b815260040161060599989796959493929190611160565b6020604051808303816000875af1158015610624573d6000803e3d6000fd5b505050506040513d601f19601f820116820180604052508101906106489190611226565b600080fd5b3073ffffffffffffffffffffffffffffffffffffffff1663e12e9b278b8b8b8b8b8b8b8b8b6040518a63ffffffff1660e01b815260040161069699989796959493929190611160565b6020604051808303816000875af19250505080156106d257506040513d601f19601f820116820180604052508101906106cf9190611226565b60015b156106d957505b80156107d65760008081819054906101000a900460070b809291906106fd90611282565b91906101000a81548167ffffffffffffffff021916908360070b67ffffffffffffffff1602179055505060008673ffffffffffffffffffffffffffffffffffffffff16600f60405161074e906112e3565b60006040518083038185875af1925050503d806000811461078b576040519150601f19603f3d011682016040523d82523d6000602084013e610790565b606091505b50509050806107d4576040517f08c379a00000000000000000000000000000000000000000000000000000000081526004016107cb906113d6565b60405180910390fd5b505b50505050505050505050565b60008160070b9050919050565b6107f8816107e2565b82525050565b600060208201905061081360008301846107ef565b92915050565b6000604051905090565b600080fd5b600080fd5b600080fd5b600080fd5b6000601f19601f8301169050919050565b7f4e487b7100000000000000000000000000000000000000000000000000000000600052604160045260246000fd5b61088082610837565b810181811067ffffffffffffffff8211171561089f5761089e610848565b5b80604052505050565b60006108b2610819565b90506108be8282610877565b919050565b600067ffffffffffffffff8211156108de576108dd610848565b5b6108e782610837565b9050602081019050919050565b82818337600083830152505050565b6000610916610911846108c3565b6108a8565b90508281526020810184848401111561093257610931610832565b5b61093d8482856108f4565b509392505050565b600082601f83011261095a5761095961082d565b5b813561096a848260208601610903565b91505092915050565b6000819050919050565b61098681610973565b811461099157600080fd5b50565b6000813590506109a38161097d565b92915050565b600080fd5b600067ffffffffffffffff82169050919050565b6109cb816109ae565b81146109d657600080fd5b50565b6000813590506109e8816109c2565b92915050565b600060408284031215610a0457610a036109a9565b5b610a0e60406108a8565b90506000610a1e848285016109d9565b6000830152506020610a32848285016109d9565b60208301525092915050565b600080600080600080600080610120898b031215610a5f57610a5e610823565b5b600089013567ffffffffffffffff811115610a7d57610a7c610828565b5b610a898b828c01610945565b985050602089013567ffffffffffffffff811115610aaa57610aa9610828565b5b610ab68b828c01610945565b975050604089013567ffffffffffffffff811115610ad757610ad6610828565b5b610ae38b828c01610945565b9650506060610af48b828c01610994565b955050608089013567ffffffffffffffff811115610b1557610b14610828565b5b610b218b828c01610945565b94505060a0610b328b828c016109ee565b93505060e0610b438b828c016109d9565b92505061010089013567ffffffffffffffff811115610b6557610b64610828565b5b610b718b828c01610945565b9150509295985092959890939650565b610b8a816109ae565b82525050565b6000602082019050610ba56000830184610b81565b92915050565b600073ffffffffffffffffffffffffffffffffffffffff82169050919050565b6000610bd682610bab565b9050919050565b610be681610bcb565b8114610bf157600080fd5b50565b600081359050610c0381610bdd565b92915050565b60008115159050919050565b610c1e81610c09565b8114610c2957600080fd5b50565b600081359050610c3b81610c15565b92915050565b60008060008060008060008060008060006101808c8e031215610c6757610c66610823565b5b60008c013567ffffffffffffffff811115610c8557610c84610828565b5b610c918e828f01610945565b9b505060208c013567ffffffffffffffff811115610cb257610cb1610828565b5b610cbe8e828f01610945565b9a505060408c013567ffffffffffffffff811115610cdf57610cde610828565b5b610ceb8e828f01610945565b9950506060610cfc8e828f01610994565b9850506080610d0d8e828f01610bf4565b97505060a08c013567ffffffffffffffff811115610d2e57610d2d610828565b5b610d3a8e828f01610945565b96505060c0610d4b8e828f016109ee565b955050610100610d5d8e828f016109d9565b9450506101208c013567ffffffffffffffff811115610d7f57610d7e610828565b5b610d8b8e828f01610945565b935050610140610d9d8e828f01610c2c565b925050610160610daf8e828f01610c2c565b9150509295989b509295989b9093969950565b60008060008060008060008060006101408a8c031215610de557610de4610823565b5b60008a013567ffffffffffffffff811115610e0357610e02610828565b5b610e0f8c828d01610945565b99505060208a013567ffffffffffffffff811115610e3057610e2f610828565b5b610e3c8c828d01610945565b98505060408a013567ffffffffffffffff811115610e5d57610e5c610828565b5b610e698c828d01610945565b9750506060610e7a8c828d01610994565b9650506080610e8b8c828d01610bf4565b95505060a08a013567ffffffffffffffff811115610eac57610eab610828565b5b610eb88c828d01610945565b94505060c0610ec98c828d016109ee565b935050610100610edb8c828d016109d9565b9250506101208a013567ffffffffffffffff811115610efd57610efc610828565b5b610f098c828d01610945565b9150509295985092959850929598565b6000806000806000806000806000806101608b8d031215610f3d57610f3c610823565b5b60008b013567ffffffffffffffff811115610f5b57610f5a610828565b5b610f678d828e01610945565b9a505060208b013567ffffffffffffffff811115610f8857610f87610828565b5b610f948d828e01610945565b99505060408b013567ffffffffffffffff811115610fb557610fb4610828565b5b610fc18d828e01610945565b9850506060610fd28d828e01610994565b9750506080610fe38d828e01610bf4565b96505060a08b013567ffffffffffffffff81111561100457611003610828565b5b6110108d828e01610945565b95505060c06110218d828e016109ee565b9450506101006110338d828e016109d9565b9350506101208b013567ffffffffffffffff81111561105557611054610828565b5b6110618d828e01610945565b9250506101406110738d828e01610c2c565b9150509295989b9194979a5092959850565b600081519050919050565b600082825260208201905092915050565b60005b838110156110bf5780820151818401526020810190506110a4565b60008484015250505050565b60006110d682611085565b6110e08185611090565b93506110f08185602086016110a1565b6110f981610837565b840191505092915050565b61110d81610973565b82525050565b61111c81610bcb565b82525050565b61112b816109ae565b82525050565b6040820160008201516111476000850182611122565b50602082015161115a6020850182611122565b50505050565b600061014082019050818103600083015261117b818c6110cb565b9050818103602083015261118f818b6110cb565b905081810360408301526111a3818a6110cb565b90506111b26060830189611104565b6111bf6080830188611113565b81810360a08301526111d181876110cb565b90506111e060c0830186611131565b6111ee610100830185610b81565b81810361012083015261120181846110cb565b90509a9950505050505050505050565b600081519050611220816109c2565b92915050565b60006020828403121561123c5761123b610823565b5b600061124a84828501611211565b91505092915050565b7f4e487b7100000000000000000000000000000000000000000000000000000000600052601160045260246000fd5b600061128d826107e2565b9150677fffffffffffffff82036112a7576112a6611253565b5b600182019050919050565b600081905092915050565b50565b60006112cd6000836112b2565b91506112d8826112bd565b600082019050919050565b60006112ee826112c0565b9150819050919050565b7f4661696c656420746f2073656e6420457468657220746f2073656e6465720000600082015250565b600061132e601e83611090565b9150611339826112f8565b602082019050919050565b6000602082019050818103600083015261135d81611321565b9050919050565b7f4661696c656420746f2073656e6420457468657220746f2064656c656761746f60008201527f7200000000000000000000000000000000000000000000000000000000000000602082015250565b60006113c0602183611090565b91506113cb82611364565b604082019050919050565b600060208201905081810360008301526113ef816113b3565b905091905056fea2646970667358221220b8bab14cb31c788c1eec5f0e07af7e6f121d826e04fc1572df3a14c382aa809d64736f6c63430008140033",
  "linkReferences": {},
  "deployedLinkReferences": {}
}