{
  "_format": "hh-sol-artifact-1",
  "contractName": "InterchainSender",
  "sourceName": "solidity/precompiles/testutil/contracts/InterchainSender.sol",
  "abi": [
    {
      "inputs": [],
      "name": "counter",
      "outputs": [
        {
          "internalType": "int64",
          "name": "",
          "type": "int64"
        }
      ],
      "stateMutability": "view",
      "type": "function"
    },
    {
      "inputs": [
        {
          "internalType": "address",
          "name": "owner",
          "type": "address"
        },
        {
          "internalType": "address",
          "name": "spender",
          "type": "address"
        }
      ],
      "name": "testAllowance",
      "outputs": [
        {
          "components": [
            {
              "internalType": "string",
              "name": "sourcePort",
              "type": "string"
            },
            {
              "internalType": "string",
              "name": "sourceChannel",
              "type": "string"
            },
            {
              "components": [
                {
                  "internalType": "string",
                  "name": "denom",
                  "type": "string"
                },
                {
                  "internalType": "uint256",
                  "name": "amount",
                  "type": "uint256"
                }
              ],
              "internalType": "struct Coin[]",
              "name": "spendLimit",
              "type": "tuple[]"
            },
            {
              "internalType": "string[]",
              "name": "allowList",
              "type": "string[]"
            },
            {
              "internalType": "string[]",
              "name": "allowedPacketData",
              "type": "string[]"
            }
          ],
          "internalType": "struct ICS20Allocation[]",
          "name": "allocations",
          "type": "tuple[]"
        }
      ],
      "stateMutability": "view",
      "type": "function"
    },
    {
      "inputs": [
        {
          "components": [
            {
              "internalType": "string",
              "name": "sourcePort",
              "type": "string"
            },
            {
              "internalType": "string",
              "name": "sourceChannel",
              "type": "string"
            },
            {
              "components": [
                {
                  "internalType": "string",
                  "name": "denom",
                  "type": "string"
                },
                {
                  "internalType": "uint256",
                  "name": "amount",
                  "type": "uint256"
                }
              ],
              "internalType": "struct Coin[]",
              "name": "spendLimit",
              "type": "tuple[]"
            },
            {
              "internalType": "string[]",
              "name": "allowList",
              "type": "string[]"
            },
            {
              "internalType": "string[]",
              "name": "allowedPacketData",
              "type": "string[]"
            }
          ],
          "internalType": "struct ICS20Allocation[]",
          "name": "allocs",
          "type": "tuple[]"
        }
      ],
      "name": "testApprove",
      "outputs": [],
      "stateMutability": "nonpayable",
      "type": "function"
    },
    {
      "inputs": [
        {
          "internalType": "string",
          "name": "sourcePort",
          "type": "string"
        },
        {
          "internalType": "string",
          "name": "sourceChannel",
          "type": "string"
        },
        {
          "internalType": "string",
          "name": "denom",
          "type": "string"
        },
        {
          "internalType": "uint256",
          "name": "amount",
          "type": "uint256"
        }
      ],
      "name": "testDecreaseAllowance",
      "outputs": [],
      "stateMutability": "nonpayable",
      "type": "function"
    },
    {
      "inputs": [
        {
          "internalType": "string",
          "name": "hash",
          "type": "string"
        }
      ],
      "name": "testDenom",
      "outputs": [
        {
          "components": [
            {
              "internalType": "string",
              "name": "path",
              "type": "string"
            },
            {
              "internalType": "string",
              "name": "baseDenom",
              "type": "string"
            }
          ],
          "internalType": "struct Denom",
          "name": "denomTrace",
          "type": "tuple"
        }
      ],
      "stateMutability": "view",
      "type": "function"
    },
    {
      "inputs": [
        {
          "internalType": "string",
          "name": "trace",
          "type": "string"
        }
      ],
      "name": "testDenomHash",
      "outputs": [
        {
          "internalType": "string",
          "name": "hash",
          "type": "string"
        }
      ],
      "stateMutability": "view",
      "type": "function"
    },
    {
      "inputs": [
        {
          "components": [
            {
              "internalType": "bytes",
              "name": "key",
              "type": "bytes"
            },
            {
              "internalType": "uint64",
              "name": "offset",
              "type": "uint64"
            },
            {
              "internalType": "uint64",
              "name": "limit",
              "type": "uint64"
            },
            {
              "internalType": "bool",
              "name": "countTotal",
              "type": "bool"
            },
            {
              "internalType": "bool",
              "name": "reverse",
              "type": "bool"
            }
          ],
          "internalType": "struct PageRequest",
          "name": "pageRequest",
          "type": "tuple"
        }
      ],
      "name": "testDenoms",
      "outputs": [
        {
          "components": [
            {
              "internalType": "string",
              "name": "path",
              "type": "string"
            },
            {
              "internalType": "string",
              "name": "baseDenom",
              "type": "string"
            }
          ],
          "internalType": "struct Denom[]",
          "name": "denoms",
          "type": "tuple[]"
        },
        {
          "components": [
            {
              "internalType": "bytes",
              "name": "nextKey",
              "type": "bytes"
            },
            {
              "internalType": "uint64",
              "name": "total",
              "type": "uint64"
            }
          ],
          "internalType": "struct PageResponse",
          "name": "pageResponse",
          "type": "tuple"
        }
      ],
      "stateMutability": "view",
      "type": "function"
    },
    {
      "inputs": [
        {
          "internalType": "string",
          "name": "sourcePort",
          "type": "string"
        },
        {
          "internalType": "string",
          "name": "sourceChannel",
          "type": "string"
        },
        {
          "internalType": "string",
          "name": "denom",
          "type": "string"
        },
        {
          "internalType": "uint256",
          "name": "amount",
          "type": "uint256"
        }
      ],
      "name": "testIncreaseAllowance",
      "outputs": [],
      "stateMutability": "nonpayable",
      "type": "function"
    },
    {
      "inputs": [
        {
          "internalType": "address payable",
          "name": "_source",
          "type": "address"
        },
        {
          "internalType": "string",
          "name": "sourcePort",
          "type": "string"
        },
        {
          "internalType": "string",
          "name": "sourceChannel",
          "type": "string"
        },
        {
          "internalType": "string",
          "name": "denom",
          "type": "string"
        },
        {
          "internalType": "uint256",
          "name": "amount",
          "type": "uint256"
        },
        {
          "internalType": "string",
          "name": "receiver",
          "type": "string"
        },
        {
          "internalType": "bool",
          "name": "_before",
          "type": "bool"
        },
        {
          "internalType": "bool",
          "name": "_between",
          "type": "bool"
        },
        {
          "internalType": "bool",
          "name": "_after",
          "type": "bool"
        }
      ],
      "name": "testMultiTransferWithInternalTransfer",
      "outputs": [],
      "stateMutability": "nonpayable",
      "type": "function"
    },
    {
      "inputs": [],
      "name": "testRevoke",
      "outputs": [],
      "stateMutability": "nonpayable",
      "type": "function"
    },
    {
      "inputs": [
        {
          "internalType": "string",
          "name": "sourcePort",
          "type": "string"
        },
        {
          "internalType": "string",
          "name": "sourceChannel",
          "type": "string"
        },
        {
          "internalType": "string",
          "name": "denom",
          "type": "string"
        },
        {
          "internalType": "uint256",
          "name": "amount",
          "type": "uint256"
        },
        {
          "internalType": "string",
          "name": "receiver",
          "type": "string"
        },
        {
          "components": [
            {
              "internalType": "uint64",
              "name": "revisionNumber",
              "type": "uint64"
            },
            {
              "internalType": "uint64",
              "name": "revisionHeight",
              "type": "uint64"
            }
          ],
          "internalType": "struct Height",
          "name": "timeoutHeight",
          "type": "tuple"
        },
        {
          "internalType": "uint64",
          "name": "timeoutTimestamp",
          "type": "uint64"
        },
        {
          "internalType": "string",
          "name": "memo",
          "type": "string"
        }
      ],
      "name": "testTransferContractFunds",
      "outputs": [
        {
          "internalType": "uint64",
          "name": "nextSequence",
          "type": "uint64"
        }
      ],
      "stateMutability": "nonpayable",
      "type": "function"
    },
    {
      "inputs": [
        {
          "internalType": "address payable",
          "name": "_otherAcc",
          "type": "address"
        },
        {
          "internalType": "address",
          "name": "_source",
          "type": "address"
        },
        {
          "internalType": "string",
          "name": "sourcePort",
          "type": "string"
        },
        {
          "internalType": "string",
          "name": "sourceChannel",
          "type": "string"
        },
        {
          "internalType": "string",
          "name": "denom",
          "type": "string"
        },
        {
          "internalType": "uint256",
          "name": "amount",
          "type": "uint256"
        },
        {
          "internalType": "string",
          "name": "receiver",
          "type": "string"
        },
        {
          "internalType": "bool",
          "name": "_before",
          "type": "bool"
        },
        {
          "internalType": "bool",
          "name": "_after",
          "type": "bool"
        }
      ],
      "name": "testTransferFundsWithTransferToOtherAcc",
      "outputs": [],
      "stateMutability": "nonpayable",
      "type": "function"
    },
    {
      "inputs": [
        {
          "internalType": "string",
          "name": "sourcePort",
          "type": "string"
        },
        {
          "internalType": "string",
          "name": "sourceChannel",
          "type": "string"
        },
        {
          "internalType": "string",
          "name": "denom",
          "type": "string"
        },
        {
          "internalType": "uint256",
          "name": "amount",
          "type": "uint256"
        },
        {
          "internalType": "string",
          "name": "receiver",
          "type": "string"
        },
        {
          "components": [
            {
              "internalType": "uint64",
              "name": "revisionNumber",
              "type": "uint64"
            },
            {
              "internalType": "uint64",
              "name": "revisionHeight",
              "type": "uint64"
            }
          ],
          "internalType": "struct Height",
          "name": "timeoutHeight",
          "type": "tuple"
        },
        {
          "internalType": "uint64",
          "name": "timeoutTimestamp",
          "type": "uint64"
        },
        {
          "internalType": "string",
          "name": "memo",
          "type": "string"
        }
      ],
      "name": "testTransferUserFunds",
      "outputs": [
        {
          "internalType": "uint64",
          "name": "nextSequence",
          "type": "uint64"
        }
      ],
      "stateMutability": "nonpayable",
      "type": "function"
    }
  ],
  "bytecode": "0x608060405234801561001057600080fd5b50613831806100206000396000f3fe608060405234801561001057600080fd5b50600436106100cf5760003560e01c80637a6185e11161008c578063b967287911610066578063b967287914610225578063c595699a14610241578063f298e7a814610271578063f3675f081461028d576100cf565b80637a6185e1146101bb578063a363df84146101c5578063accc7b90146101f5576100cf565b80631dba685b146100d4578063424af9f6146100f057806344c286701461010c57806361bc221a1461013d5780636fdf23cc1461015b5780637492bdd81461018b575b600080fd5b6100ee60048036038101906100e9919061131b565b6102a9565b005b61010a600480360381019061010591906114b5565b61071e565b005b610126600480360381019061012191906115a2565b6107f8565b604051610134929190611825565b60405180910390f35b61014561088c565b6040516101529190611878565b60405180910390f35b61017560048036038101906101709190611919565b61089d565b6040516101829190611a6b565b60405180910390f35b6101a560048036038101906101a09190611919565b61093b565b6040516101b29190611a6b565b60405180910390f35b6101c36109d9565b005b6101df60048036038101906101da9190611ac4565b610a9e565b6040516101ec9190611e28565b60405180910390f35b61020f600480360381019061020a9190611e4a565b610b2b565b60405161021c9190611ed7565b60405180910390f35b61023f600480360381019061023a9190611ef9565b610bbb565b005b61025b60048036038101906102569190611e4a565b610e88565b604051610268919061207d565b60405180910390f35b61028b600480360381019061028691906114b5565b610f12565b005b6102a760048036038101906102a291906120f5565b610fec565b005b82156103ab5760008081819054906101000a900460070b809291906102cd90612171565b91906101000a81548167ffffffffffffffff021916908360070b67ffffffffffffffff1602179055505060008973ffffffffffffffffffffffffffffffffffffffff16650da475abf000604051610323906121d2565b60006040518083038185875af1925050503d8060008114610360576040519150601f19603f3d011682016040523d82523d6000602084013e610365565b606091505b50509050806103a9576040517f08c379a00000000000000000000000000000000000000000000000000000000081526004016103a090612259565b60405180910390fd5b505b60006040518060400160405280606467ffffffffffffffff168152602001606467ffffffffffffffff16815250905061080273ffffffffffffffffffffffffffffffffffffffff1663632535b98a8a8a60028b61040891906122a8565b8f8b8860006040518963ffffffff1660e01b81526004016104309897969594939291906123d4565b6020604051808303816000875af115801561044f573d6000803e3d6000fd5b505050506040513d601f19601f820116820180604052508101906104739190612498565b5082156105765760008081819054906101000a900460070b8092919061049890612171565b91906101000a81548167ffffffffffffffff021916908360070b67ffffffffffffffff1602179055505060008a73ffffffffffffffffffffffffffffffffffffffff16650da475abf0006040516104ee906121d2565b60006040518083038185875af1925050503d806000811461052b576040519150601f19603f3d011682016040523d82523d6000602084013e610530565b606091505b5050905080610574576040517f08c379a000000000000000000000000000000000000000000000000000000000815260040161056b90612259565b60405180910390fd5b505b61080273ffffffffffffffffffffffffffffffffffffffff1663632535b98a8a8a60028b6105a491906122a8565b8f8b8860006040518963ffffffff1660e01b81526004016105cc9897969594939291906123d4565b6020604051808303816000875af11580156105eb573d6000803e3d6000fd5b505050506040513d601f19601f8201168201806040525081019061060f9190612498565b5081156107125760008081819054906101000a900460070b8092919061063490612171565b91906101000a81548167ffffffffffffffff021916908360070b67ffffffffffffffff1602179055505060008a73ffffffffffffffffffffffffffffffffffffffff16650da475abf00060405161068a906121d2565b60006040518083038185875af1925050503d80600081146106c7576040519150601f19603f3d011682016040523d82523d6000602084013e6106cc565b606091505b5050905080610710576040517f08c379a000000000000000000000000000000000000000000000000000000000815260040161070790612259565b60405180910390fd5b505b50505050505050505050565b600061080273ffffffffffffffffffffffffffffffffffffffff166354de647b308a8a8a8a8a8a8a6040518963ffffffff1660e01b8152600401610769989796959493929190612501565b6020604051808303816000875af1158015610788573d6000803e3d6000fd5b505050506040513d601f19601f820116820180604052508101906107ac9190612584565b9050806107ee576040517f08c379a00000000000000000000000000000000000000000000000000000000081526004016107e5906125fd565b60405180910390fd5b5050505050505050565b60606108026110b7565b61080273ffffffffffffffffffffffffffffffffffffffff1663c0fab104846040518263ffffffff1660e01b815260040161083d9190612799565b600060405180830381865afa15801561085a573d6000803e3d6000fd5b505050506040513d6000823e3d601f19601f820116820180604052508101906108839190612aa1565b91509150915091565b60008054906101000a900460070b81565b600061080273ffffffffffffffffffffffffffffffffffffffff1663632535b98a8a8a8a308b8b8b8b6040518a63ffffffff1660e01b81526004016108ea99989796959493929190612b19565b6020604051808303816000875af1158015610909573d6000803e3d6000fd5b505050506040513d601f19601f8201168201806040525081019061092d9190612498565b905098975050505050505050565b600061080273ffffffffffffffffffffffffffffffffffffffff1663632535b98a8a8a8a338b8b8b8b6040518a63ffffffff1660e01b815260040161098899989796959493929190612b19565b6020604051808303816000875af11580156109a7573d6000803e3d6000fd5b505050506040513d601f19601f820116820180604052508101906109cb9190612498565b905098975050505050505050565b600061080273ffffffffffffffffffffffffffffffffffffffff166374a8f103306040518263ffffffff1660e01b8152600401610a169190612bca565b6020604051808303816000875af1158015610a35573d6000803e3d6000fd5b505050506040513d601f19601f82011682018060405250810190610a599190612584565b905080610a9b576040517f08c379a0000000000000000000000000000000000000000000000000000000008152600401610a9290612c31565b60405180910390fd5b50565b606061080273ffffffffffffffffffffffffffffffffffffffff1663dd62ed3e84846040518363ffffffff1660e01b8152600401610add929190612c51565b600060405180830381865afa158015610afa573d6000803e3d6000fd5b505050506040513d6000823e3d601f19601f82011682018060405250810190610b2391906130b6565b905092915050565b610b336110db565b61080273ffffffffffffffffffffffffffffffffffffffff16635f1f98a2836040518263ffffffff1660e01b8152600401610b6e919061207d565b600060405180830381865afa158015610b8b573d6000803e3d6000fd5b505050506040513d6000823e3d601f19601f82011682018060405250810190610bb491906130ff565b9050919050565b8115610cbd5760008081819054906101000a900460070b80929190610bdf90612171565b91906101000a81548167ffffffffffffffff021916908360070b67ffffffffffffffff1602179055505060008973ffffffffffffffffffffffffffffffffffffffff16650da475abf000604051610c35906121d2565b60006040518083038185875af1925050503d8060008114610c72576040519150601f19603f3d011682016040523d82523d6000602084013e610c77565b606091505b5050905080610cbb576040517f08c379a0000000000000000000000000000000000000000000000000000000008152600401610cb290612259565b60405180910390fd5b505b60006040518060400160405280606467ffffffffffffffff168152602001606467ffffffffffffffff16815250905061080273ffffffffffffffffffffffffffffffffffffffff1663632535b9898989898e8a8860006040518963ffffffff1660e01b8152600401610d36989796959493929190613148565b6020604051808303816000875af1158015610d55573d6000803e3d6000fd5b505050506040513d601f19601f82011682018060405250810190610d799190612498565b508115610e7c5760008081819054906101000a900460070b80929190610d9e90612171565b91906101000a81548167ffffffffffffffff021916908360070b67ffffffffffffffff1602179055505060008a73ffffffffffffffffffffffffffffffffffffffff16650da475abf000604051610df4906121d2565b60006040518083038185875af1925050503d8060008114610e31576040519150601f19603f3d011682016040523d82523d6000602084013e610e36565b606091505b5050905080610e7a576040517f08c379a0000000000000000000000000000000000000000000000000000000008152600401610e7190612259565b60405180910390fd5b505b50505050505050505050565b606061080273ffffffffffffffffffffffffffffffffffffffff1663b5cb6e7d836040518263ffffffff1660e01b8152600401610ec5919061207d565b600060405180830381865afa158015610ee2573d6000803e3d6000fd5b505050506040513d6000823e3d601f19601f82011682018060405250810190610f0b91906131f7565b9050919050565b600061080273ffffffffffffffffffffffffffffffffffffffff1663b3f536ec308a8a8a8a8a8a8a6040518963ffffffff1660e01b8152600401610f5d989796959493929190612501565b6020604051808303816000875af1158015610f7c573d6000803e3d6000fd5b505050506040513d601f19601f82011682018060405250810190610fa09190612584565b905080610fe2576040517f08c379a0000000000000000000000000000000000000000000000000000000008152600401610fd99061328c565b60405180910390fd5b5050505050505050565b600061080273ffffffffffffffffffffffffffffffffffffffff1663473c90c73085856040518463ffffffff1660e01b815260040161102d9392919061375d565b6020604051808303816000875af115801561104c573d6000803e3d6000fd5b505050506040513d601f19601f820116820180604052508101906110709190612584565b9050806110b2576040517f08c379a00000000000000000000000000000000000000000000000000000000081526004016110a9906137db565b60405180910390fd5b505050565b604051806040016040528060608152602001600067ffffffffffffffff1681525090565b604051806040016040528060608152602001606081525090565b6000604051905090565b600080fd5b600080fd5b600073ffffffffffffffffffffffffffffffffffffffff82169050919050565b600061113482611109565b9050919050565b61114481611129565b811461114f57600080fd5b50565b6000813590506111618161113b565b92915050565b600080fd5b600080fd5b6000601f19601f8301169050919050565b7f4e487b7100000000000000000000000000000000000000000000000000000000600052604160045260246000fd5b6111ba82611171565b810181811067ffffffffffffffff821117156111d9576111d8611182565b5b80604052505050565b60006111ec6110f5565b90506111f882826111b1565b919050565b600067ffffffffffffffff82111561121857611217611182565b5b61122182611171565b9050602081019050919050565b82818337600083830152505050565b600061125061124b846111fd565b6111e2565b90508281526020810184848401111561126c5761126b61116c565b5b61127784828561122e565b509392505050565b600082601f83011261129457611293611167565b5b81356112a484826020860161123d565b91505092915050565b6000819050919050565b6112c0816112ad565b81146112cb57600080fd5b50565b6000813590506112dd816112b7565b92915050565b60008115159050919050565b6112f8816112e3565b811461130357600080fd5b50565b600081359050611315816112ef565b92915050565b60008060008060008060008060006101208a8c03121561133e5761133d6110ff565b5b600061134c8c828d01611152565b99505060208a013567ffffffffffffffff81111561136d5761136c611104565b5b6113798c828d0161127f565b98505060408a013567ffffffffffffffff81111561139a57611399611104565b5b6113a68c828d0161127f565b97505060608a013567ffffffffffffffff8111156113c7576113c6611104565b5b6113d38c828d0161127f565b96505060806113e48c828d016112ce565b95505060a08a013567ffffffffffffffff81111561140557611404611104565b5b6114118c828d0161127f565b94505060c06114228c828d01611306565b93505060e06114338c828d01611306565b9250506101006114458c828d01611306565b9150509295985092959850929598565b600080fd5b600080fd5b60008083601f84011261147557611474611167565b5b8235905067ffffffffffffffff81111561149257611491611455565b5b6020830191508360018202830111156114ae576114ad61145a565b5b9250929050565b60008060008060008060006080888a0312156114d4576114d36110ff565b5b600088013567ffffffffffffffff8111156114f2576114f1611104565b5b6114fe8a828b0161145f565b9750975050602088013567ffffffffffffffff81111561152157611520611104565b5b61152d8a828b0161145f565b9550955050604088013567ffffffffffffffff8111156115505761154f611104565b5b61155c8a828b0161145f565b9350935050606061156f8a828b016112ce565b91505092959891949750929550565b600080fd5b600060a082840312156115995761159861157e565b5b81905092915050565b6000602082840312156115b8576115b76110ff565b5b600082013567ffffffffffffffff8111156115d6576115d5611104565b5b6115e284828501611583565b91505092915050565b600081519050919050565b600082825260208201905092915050565b6000819050602082019050919050565b600081519050919050565b600082825260208201905092915050565b60005b83811015611651578082015181840152602081019050611636565b60008484015250505050565b600061166882611617565b6116728185611622565b9350611682818560208601611633565b61168b81611171565b840191505092915050565b600060408301600083015184820360008601526116b3828261165d565b915050602083015184820360208601526116cd828261165d565b9150508091505092915050565b60006116e68383611696565b905092915050565b6000602082019050919050565b6000611706826115eb565b61171081856115f6565b93508360208202850161172285611607565b8060005b8581101561175e578484038952815161173f85826116da565b945061174a836116ee565b925060208a01995050600181019050611726565b50829750879550505050505092915050565b600081519050919050565b600082825260208201905092915050565b600061179782611770565b6117a1818561177b565b93506117b1818560208601611633565b6117ba81611171565b840191505092915050565b600067ffffffffffffffff82169050919050565b6117e2816117c5565b82525050565b60006040830160008301518482036000860152611805828261178c565b915050602083015161181a60208601826117d9565b508091505092915050565b6000604082019050818103600083015261183f81856116fb565b9050818103602083015261185381846117e8565b90509392505050565b60008160070b9050919050565b6118728161185c565b82525050565b600060208201905061188d6000830184611869565b92915050565b600080fd5b600080fd5b6118a6816117c5565b81146118b157600080fd5b50565b6000813590506118c38161189d565b92915050565b6000604082840312156118df576118de611893565b5b6118e960406111e2565b905060006118f9848285016118b4565b600083015250602061190d848285016118b4565b60208301525092915050565b600080600080600080600080610120898b03121561193a576119396110ff565b5b600089013567ffffffffffffffff81111561195857611957611104565b5b6119648b828c0161127f565b985050602089013567ffffffffffffffff81111561198557611984611104565b5b6119918b828c0161127f565b975050604089013567ffffffffffffffff8111156119b2576119b1611104565b5b6119be8b828c0161127f565b96505060606119cf8b828c016112ce565b955050608089013567ffffffffffffffff8111156119f0576119ef611104565b5b6119fc8b828c0161127f565b94505060a0611a0d8b828c016118c9565b93505060e0611a1e8b828c016118b4565b92505061010089013567ffffffffffffffff811115611a4057611a3f611104565b5b611a4c8b828c0161127f565b9150509295985092959890939650565b611a65816117c5565b82525050565b6000602082019050611a806000830184611a5c565b92915050565b6000611a9182611109565b9050919050565b611aa181611a86565b8114611aac57600080fd5b50565b600081359050611abe81611a98565b92915050565b60008060408385031215611adb57611ada6110ff565b5b6000611ae985828601611aaf565b9250506020611afa85828601611aaf565b9150509250929050565b600081519050919050565b600082825260208201905092915050565b6000819050602082019050919050565b600081519050919050565b600082825260208201905092915050565b6000819050602082019050919050565b611b65816112ad565b82525050565b60006040830160008301518482036000860152611b88828261165d565b9150506020830151611b9d6020860182611b5c565b508091505092915050565b6000611bb48383611b6b565b905092915050565b6000602082019050919050565b6000611bd482611b30565b611bde8185611b3b565b935083602082028501611bf085611b4c565b8060005b85811015611c2c5784840389528151611c0d8582611ba8565b9450611c1883611bbc565b925060208a01995050600181019050611bf4565b50829750879550505050505092915050565b600081519050919050565b600082825260208201905092915050565b6000819050602082019050919050565b6000611c76838361165d565b905092915050565b6000602082019050919050565b6000611c9682611c3e565b611ca08185611c49565b935083602082028501611cb285611c5a565b8060005b85811015611cee5784840389528151611ccf8582611c6a565b9450611cda83611c7e565b925060208a01995050600181019050611cb6565b50829750879550505050505092915050565b600060a0830160008301518482036000860152611d1d828261165d565b91505060208301518482036020860152611d37828261165d565b91505060408301518482036040860152611d518282611bc9565b91505060608301518482036060860152611d6b8282611c8b565b91505060808301518482036080860152611d858282611c8b565b9150508091505092915050565b6000611d9e8383611d00565b905092915050565b6000602082019050919050565b6000611dbe82611b04565b611dc88185611b0f565b935083602082028501611dda85611b20565b8060005b85811015611e165784840389528151611df78582611d92565b9450611e0283611da6565b925060208a01995050600181019050611dde565b50829750879550505050505092915050565b60006020820190508181036000830152611e428184611db3565b905092915050565b600060208284031215611e6057611e5f6110ff565b5b600082013567ffffffffffffffff811115611e7e57611e7d611104565b5b611e8a8482850161127f565b91505092915050565b60006040830160008301518482036000860152611eb0828261165d565b91505060208301518482036020860152611eca828261165d565b9150508091505092915050565b60006020820190508181036000830152611ef18184611e93565b905092915050565b60008060008060008060008060006101208a8c031215611f1c57611f1b6110ff565b5b6000611f2a8c828d01611152565b9950506020611f3b8c828d01611aaf565b98505060408a013567ffffffffffffffff811115611f5c57611f5b611104565b5b611f688c828d0161127f565b97505060608a013567ffffffffffffffff811115611f8957611f88611104565b5b611f958c828d0161127f565b96505060808a013567ffffffffffffffff811115611fb657611fb5611104565b5b611fc28c828d0161127f565b95505060a0611fd38c828d016112ce565b94505060c08a013567ffffffffffffffff811115611ff457611ff3611104565b5b6120008c828d0161127f565b93505060e06120118c828d01611306565b9250506101006120238c828d01611306565b9150509295985092959850929598565b600082825260208201905092915050565b600061204f82611617565b6120598185612033565b9350612069818560208601611633565b61207281611171565b840191505092915050565b600060208201905081810360008301526120978184612044565b905092915050565b60008083601f8401126120b5576120b4611167565b5b8235905067ffffffffffffffff8111156120d2576120d1611455565b5b6020830191508360208202830111156120ee576120ed61145a565b5b9250929050565b6000806020838503121561210c5761210b6110ff565b5b600083013567ffffffffffffffff81111561212a57612129611104565b5b6121368582860161209f565b92509250509250929050565b7f4e487b7100000000000000000000000000000000000000000000000000000000600052601160045260246000fd5b600061217c8261185c565b9150677fffffffffffffff820361219657612195612142565b5b600182019050919050565b600081905092915050565b50565b60006121bc6000836121a1565b91506121c7826121ac565b600082019050919050565b60006121dd826121af565b9150819050919050565b7f4661696c656420746f2073656e6420457468657220746f2064656c656761746f60008201527f7200000000000000000000000000000000000000000000000000000000000000602082015250565b6000612243602183612033565b915061224e826121e7565b604082019050919050565b6000602082019050818103600083015261227281612236565b9050919050565b7f4e487b7100000000000000000000000000000000000000000000000000000000600052601260045260246000fd5b60006122b3826112ad565b91506122be836112ad565b9250826122ce576122cd612279565b5b828204905092915050565b6122e2816112ad565b82525050565b6000819050919050565b600061230d61230861230384611109565b6122e8565b611109565b9050919050565b600061231f826122f2565b9050919050565b600061233182612314565b9050919050565b61234181612326565b82525050565b60408201600082015161235d60008501826117d9565b50602082015161237060208501826117d9565b50505050565b6000819050919050565b600061239b61239661239184612376565b6122e8565b6117c5565b9050919050565b6123ab81612380565b82525050565b60006123be600083612033565b91506123c9826121ac565b600082019050919050565b60006101408201905081810360008301526123ef818b612044565b90508181036020830152612403818a612044565b905081810360408301526124178189612044565b905061242660608301886122d9565b6124336080830187612338565b81810360a08301526124458186612044565b905061245460c0830185612347565b6124626101008301846123a2565b818103610120830152612474816123b1565b90509998505050505050505050565b6000815190506124928161189d565b92915050565b6000602082840312156124ae576124ad6110ff565b5b60006124bc84828501612483565b91505092915050565b6124ce81611a86565b82525050565b60006124e08385612033565b93506124ed83858461122e565b6124f683611171565b840190509392505050565b600060a082019050612516600083018b6124c5565b818103602083015261252981898b6124d4565b9050818103604083015261253e8187896124d4565b905081810360608301526125538185876124d4565b905061256260808301846122d9565b9998505050505050505050565b60008151905061257e816112ef565b92915050565b60006020828403121561259a576125996110ff565b5b60006125a88482850161256f565b91505092915050565b7f4661696c656420746f20696e63726561736520616c6c6f77616e636500000000600082015250565b60006125e7601c83612033565b91506125f2826125b1565b602082019050919050565b60006020820190508181036000830152612616816125da565b9050919050565b600080fd5b600080fd5b600080fd5b6000808335600160200384360303811261264957612648612627565b5b83810192508235915060208301925067ffffffffffffffff8211156126715761267061261d565b5b60018202360383131561268757612686612622565b5b509250929050565b600061269b838561177b565b93506126a883858461122e565b6126b183611171565b840190509392505050565b60006126cb60208401846118b4565b905092915050565b60006126e26020840184611306565b905092915050565b6126f3816112e3565b82525050565b600060a0830161270c600084018461262c565b858303600087015261271f83828461268f565b9250505061273060208401846126bc565b61273d60208601826117d9565b5061274b60408401846126bc565b61275860408601826117d9565b5061276660608401846126d3565b61277360608601826126ea565b5061278160808401846126d3565b61278e60808601826126ea565b508091505092915050565b600060208201905081810360008301526127b381846126f9565b905092915050565b600067ffffffffffffffff8211156127d6576127d5611182565b5b602082029050602081019050919050565b60006127fa6127f5846111fd565b6111e2565b9050828152602081018484840111156128165761281561116c565b5b612821848285611633565b509392505050565b600082601f83011261283e5761283d611167565b5b815161284e8482602086016127e7565b91505092915050565b60006040828403121561286d5761286c611893565b5b61287760406111e2565b9050600082015167ffffffffffffffff81111561289757612896611898565b5b6128a384828501612829565b600083015250602082015167ffffffffffffffff8111156128c7576128c6611898565b5b6128d384828501612829565b60208301525092915050565b60006128f26128ed846127bb565b6111e2565b905080838252602082019050602084028301858111156129155761291461145a565b5b835b8181101561295c57805167ffffffffffffffff81111561293a57612939611167565b5b8086016129478982612857565b85526020850194505050602081019050612917565b5050509392505050565b600082601f83011261297b5761297a611167565b5b815161298b8482602086016128df565b91505092915050565b600067ffffffffffffffff8211156129af576129ae611182565b5b6129b882611171565b9050602081019050919050565b60006129d86129d384612994565b6111e2565b9050828152602081018484840111156129f4576129f361116c565b5b6129ff848285611633565b509392505050565b600082601f830112612a1c57612a1b611167565b5b8151612a2c8482602086016129c5565b91505092915050565b600060408284031215612a4b57612a4a611893565b5b612a5560406111e2565b9050600082015167ffffffffffffffff811115612a7557612a74611898565b5b612a8184828501612a07565b6000830152506020612a9584828501612483565b60208301525092915050565b60008060408385031215612ab857612ab76110ff565b5b600083015167ffffffffffffffff811115612ad657612ad5611104565b5b612ae285828601612966565b925050602083015167ffffffffffffffff811115612b0357612b02611104565b5b612b0f85828601612a35565b9150509250929050565b6000610140820190508181036000830152612b34818c612044565b90508181036020830152612b48818b612044565b90508181036040830152612b5c818a612044565b9050612b6b60608301896122d9565b612b7860808301886124c5565b81810360a0830152612b8a8187612044565b9050612b9960c0830186612347565b612ba7610100830185611a5c565b818103610120830152612bba8184612044565b90509a9950505050505050505050565b6000602082019050612bdf60008301846124c5565b92915050565b7f4661696c656420746f207265766f6b6520617070726f76616c00000000000000600082015250565b6000612c1b601983612033565b9150612c2682612be5565b602082019050919050565b60006020820190508181036000830152612c4a81612c0e565b9050919050565b6000604082019050612c6660008301856124c5565b612c7360208301846124c5565b9392505050565b600067ffffffffffffffff821115612c9557612c94611182565b5b602082029050602081019050919050565b600067ffffffffffffffff821115612cc157612cc0611182565b5b602082029050602081019050919050565b600081519050612ce1816112b7565b92915050565b600060408284031215612cfd57612cfc611893565b5b612d0760406111e2565b9050600082015167ffffffffffffffff811115612d2757612d26611898565b5b612d3384828501612829565b6000830152506020612d4784828501612cd2565b60208301525092915050565b6000612d66612d6184612ca6565b6111e2565b90508083825260208201905060208402830185811115612d8957612d8861145a565b5b835b81811015612dd057805167ffffffffffffffff811115612dae57612dad611167565b5b808601612dbb8982612ce7565b85526020850194505050602081019050612d8b565b5050509392505050565b600082601f830112612def57612dee611167565b5b8151612dff848260208601612d53565b91505092915050565b600067ffffffffffffffff821115612e2357612e22611182565b5b602082029050602081019050919050565b6000612e47612e4284612e08565b6111e2565b90508083825260208201905060208402830185811115612e6a57612e6961145a565b5b835b81811015612eb157805167ffffffffffffffff811115612e8f57612e8e611167565b5b808601612e9c8982612829565b85526020850194505050602081019050612e6c565b5050509392505050565b600082601f830112612ed057612ecf611167565b5b8151612ee0848260208601612e34565b91505092915050565b600060a08284031215612eff57612efe611893565b5b612f0960a06111e2565b9050600082015167ffffffffffffffff811115612f2957612f28611898565b5b612f3584828501612829565b600083015250602082015167ffffffffffffffff811115612f5957612f58611898565b5b612f6584828501612829565b602083015250604082015167ffffffffffffffff811115612f8957612f88611898565b5b612f9584828501612dda565b604083015250606082015167ffffffffffffffff811115612fb957612fb8611898565b5b612fc584828501612ebb565b606083015250608082015167ffffffffffffffff811115612fe957612fe8611898565b5b612ff584828501612ebb565b60808301525092915050565b600061301461300f84612c7a565b6111e2565b905080838252602082019050602084028301858111156130375761303661145a565b5b835b8181101561307e57805167ffffffffffffffff81111561305c5761305b611167565b5b8086016130698982612ee9565b85526020850194505050602081019050613039565b5050509392505050565b600082601f83011261309d5761309c611167565b5b81516130ad848260208601613001565b91505092915050565b6000602082840312156130cc576130cb6110ff565b5b600082015167ffffffffffffffff8111156130ea576130e9611104565b5b6130f684828501613088565b91505092915050565b600060208284031215613115576131146110ff565b5b600082015167ffffffffffffffff81111561313357613132611104565b5b61313f84828501612857565b91505092915050565b6000610140820190508181036000830152613163818b612044565b90508181036020830152613177818a612044565b9050818103604083015261318b8189612044565b905061319a60608301886122d9565b6131a760808301876124c5565b81810360a08301526131b98186612044565b90506131c860c0830185612347565b6131d66101008301846123a2565b8181036101208301526131e8816123b1565b90509998505050505050505050565b60006020828403121561320d5761320c6110ff565b5b600082015167ffffffffffffffff81111561322b5761322a611104565b5b61323784828501612829565b91505092915050565b7f4661696c656420746f20646563726561736520616c6c6f77616e636500000000600082015250565b6000613276601c83612033565b915061328182613240565b602082019050919050565b600060208201905081810360008301526132a581613269565b9050919050565b6000819050919050565b600080833560016020038436030381126132d3576132d2612627565b5b83810192508235915060208301925067ffffffffffffffff8211156132fb576132fa61261d565b5b60018202360383131561331157613310612622565b5b509250929050565b60006133258385611622565b935061333283858461122e565b61333b83611171565b840190509392505050565b6000808335600160200384360303811261336357613362612627565b5b83810192508235915060208301925067ffffffffffffffff82111561338b5761338a61261d565b5b6020820236038313156133a1576133a0612622565b5b509250929050565b6000819050919050565b60006133c260208401846112ce565b905092915050565b6000604083016133dd60008401846132b6565b85830360008701526133f0838284613319565b9250505061340160208401846133b3565b61340e6020860182611b5c565b508091505092915050565b600061342583836133ca565b905092915050565b60008235600160400383360303811261344957613448612627565b5b82810191505092915050565b6000602082019050919050565b600061346e8385611b3b565b935083602084028501613480846133a9565b8060005b878110156134c457848403895261349b828461342d565b6134a58582613419565b94506134b083613455565b925060208a01995050600181019050613484565b50829750879450505050509392505050565b600080833560016020038436030381126134f3576134f2612627565b5b83810192508235915060208301925067ffffffffffffffff82111561351b5761351a61261d565b5b60208202360383131561353157613530612622565b5b509250929050565b6000819050919050565b6000613550848484613319565b90509392505050565b6000602082019050919050565b60006135728385611c49565b93508360208402850161358484613539565b8060005b878110156135ca57848403895261359f82846132b6565b6135aa868284613543565b95506135b584613559565b935060208b019a505050600181019050613588565b50829750879450505050509392505050565b600060a083016135ef60008401846132b6565b8583036000870152613602838284613319565b9250505061361360208401846132b6565b8583036020870152613626838284613319565b925050506136376040840184613346565b858303604087015261364a838284613462565b9250505061365b60608401846134d6565b858303606087015261366e838284613566565b9250505061367f60808401846134d6565b8583036080870152613692838284613566565b925050508091505092915050565b60006136ac83836135dc565b905092915050565b60008235600160a0038336030381126136d0576136cf612627565b5b82810191505092915050565b6000602082019050919050565b60006136f58385611b0f565b935083602084028501613707846132ac565b8060005b8781101561374b57848403895261372282846136b4565b61372c85826136a0565b9450613737836136dc565b925060208a0199505060018101905061370b565b50829750879450505050509392505050565b600060408201905061377260008301866124c5565b81810360208301526137858184866136e9565b9050949350505050565b7f4661696c656420746f20706572666f726d20617070726f76616c000000000000600082015250565b60006137c5601a83612033565b91506137d08261378f565b602082019050919050565b600060208201905081810360008301526137f4816137b8565b905091905056fea2646970667358221220851e57b5d12bf748509c3f69c33bffdb4e4cfaede7eeb42591bcd0975440103f64736f6c63430008140033",
  "linkReferences": {},
  "deployedLinkReferences": {}
}