{
  "_format": "hh-sol-artifact-1",
  "contractName": "InterchainSender",
  "sourceName": "solidity/precompiles/testutil/contracts/InterchainSender.sol",
  "abi": [
    {
      "inputs": [],
      "name": "counter",
      "outputs": [
        {
          "internalType": "int64",
          "name": "",
          "type": "int64"
        }
      ],
      "stateMutability": "view",
      "type": "function"
    },
    {
      "inputs": [
        {
          "internalType": "address",
          "name": "owner",
          "type": "address"
        },
        {
          "internalType": "address",
          "name": "spender",
          "type": "address"
        }
      ],
      "name": "testAllowance",
      "outputs": [
        {
          "components": [
            {
              "internalType": "string",
              "name": "sourcePort",
              "type": "string"
            },
            {
              "internalType": "string",
              "name": "sourceChannel",
              "type": "string"
            },
            {
              "components": [
                {
                  "internalType": "string",
                  "name": "denom",
                  "type": "string"
                },
                {
                  "internalType": "uint256",
                  "name": "amount",
                  "type": "uint256"
                }
              ],
              "internalType": "struct Coin[]",
              "name": "spendLimit",
              "type": "tuple[]"
            },
            {
              "internalType": "string[]",
              "name": "allowList",
              "type": "string[]"
            },
            {
              "internalType": "string[]",
              "name": "allowedPacketData",
              "type": "string[]"
            }
          ],
          "internalType": "struct ICS20Allocation[]",
          "name": "allocations",
          "type": "tuple[]"
        }
      ],
      "stateMutability": "view",
      "type": "function"
    },
    {
      "inputs": [
        {
          "components": [
            {
              "internalType": "string",
              "name": "sourcePort",
              "type": "string"
            },
            {
              "internalType": "string",
              "name": "sourceChannel",
              "type": "string"
            },
            {
              "components": [
                {
                  "internalType": "string",
                  "name": "denom",
                  "type": "string"
                },
                {
                  "internalType": "uint256",
                  "name": "amount",
                  "type": "uint256"
                }
              ],
              "internalType": "struct Coin[]",
              "name": "spendLimit",
              "type": "tuple[]"
            },
            {
              "internalType": "string[]",
              "name": "allowList",
              "type": "string[]"
            },
            {
              "internalType": "string[]",
              "name": "allowedPacketData",
              "type": "string[]"
            }
          ],
          "internalType": "struct ICS20Allocation[]",
          "name": "allocs",
          "type": "tuple[]"
        }
      ],
      "name": "testApprove",
      "outputs": [],
      "stateMutability": "nonpayable",
      "type": "function"
    },
    {
      "inputs": [
        {
          "internalType": "string",
          "name": "sourcePort",
          "type": "string"
        },
        {
          "internalType": "string",
          "name": "sourceChannel",
          "type": "string"
        },
        {
          "internalType": "string",
          "name": "denom",
          "type": "string"
        },
        {
          "internalType": "uint256",
          "name": "amount",
          "type": "uint256"
        }
      ],
      "name": "testDecreaseAllowance",
      "outputs": [],
      "stateMutability": "nonpayable",
      "type": "function"
    },
    {
      "inputs": [
        {
          "internalType": "string",
          "name": "hash",
          "type": "string"
        }
      ],
      "name": "testDenom",
      "outputs": [
        {
          "components": [
            {
              "internalType": "string",
              "name": "base",
              "type": "string"
            },
            {
              "components": [
                {
                  "internalType": "string",
                  "name": "portId",
                  "type": "string"
                },
                {
                  "internalType": "string",
                  "name": "channelId",
                  "type": "string"
                }
              ],
              "internalType": "struct Hop[]",
              "name": "trace",
              "type": "tuple[]"
            }
          ],
          "internalType": "struct Denom",
          "name": "denomTrace",
          "type": "tuple"
        }
      ],
      "stateMutability": "view",
      "type": "function"
    },
    {
      "inputs": [
        {
          "internalType": "string",
          "name": "trace",
          "type": "string"
        }
      ],
      "name": "testDenomHash",
      "outputs": [
        {
          "internalType": "string",
          "name": "hash",
          "type": "string"
        }
      ],
      "stateMutability": "view",
      "type": "function"
    },
    {
      "inputs": [
        {
          "components": [
            {
              "internalType": "bytes",
              "name": "key",
              "type": "bytes"
            },
            {
              "internalType": "uint64",
              "name": "offset",
              "type": "uint64"
            },
            {
              "internalType": "uint64",
              "name": "limit",
              "type": "uint64"
            },
            {
              "internalType": "bool",
              "name": "countTotal",
              "type": "bool"
            },
            {
              "internalType": "bool",
              "name": "reverse",
              "type": "bool"
            }
          ],
          "internalType": "struct PageRequest",
          "name": "pageRequest",
          "type": "tuple"
        }
      ],
      "name": "testDenoms",
      "outputs": [
        {
          "components": [
            {
              "internalType": "string",
              "name": "base",
              "type": "string"
            },
            {
              "components": [
                {
                  "internalType": "string",
                  "name": "portId",
                  "type": "string"
                },
                {
                  "internalType": "string",
                  "name": "channelId",
                  "type": "string"
                }
              ],
              "internalType": "struct Hop[]",
              "name": "trace",
              "type": "tuple[]"
            }
          ],
          "internalType": "struct Denom[]",
          "name": "denoms",
          "type": "tuple[]"
        },
        {
          "components": [
            {
              "internalType": "bytes",
              "name": "nextKey",
              "type": "bytes"
            },
            {
              "internalType": "uint64",
              "name": "total",
              "type": "uint64"
            }
          ],
          "internalType": "struct PageResponse",
          "name": "pageResponse",
          "type": "tuple"
        }
      ],
      "stateMutability": "view",
      "type": "function"
    },
    {
      "inputs": [
        {
          "internalType": "string",
          "name": "sourcePort",
          "type": "string"
        },
        {
          "internalType": "string",
          "name": "sourceChannel",
          "type": "string"
        },
        {
          "internalType": "string",
          "name": "denom",
          "type": "string"
        },
        {
          "internalType": "uint256",
          "name": "amount",
          "type": "uint256"
        }
      ],
      "name": "testIncreaseAllowance",
      "outputs": [],
      "stateMutability": "nonpayable",
      "type": "function"
    },
    {
      "inputs": [
        {
          "internalType": "address payable",
          "name": "_source",
          "type": "address"
        },
        {
          "internalType": "string",
          "name": "sourcePort",
          "type": "string"
        },
        {
          "internalType": "string",
          "name": "sourceChannel",
          "type": "string"
        },
        {
          "internalType": "string",
          "name": "denom",
          "type": "string"
        },
        {
          "internalType": "uint256",
          "name": "amount",
          "type": "uint256"
        },
        {
          "internalType": "string",
          "name": "receiver",
          "type": "string"
        },
        {
          "internalType": "bool",
          "name": "_before",
          "type": "bool"
        },
        {
          "internalType": "bool",
          "name": "_between",
          "type": "bool"
        },
        {
          "internalType": "bool",
          "name": "_after",
          "type": "bool"
        }
      ],
      "name": "testMultiTransferWithInternalTransfer",
      "outputs": [],
      "stateMutability": "nonpayable",
      "type": "function"
    },
    {
      "inputs": [],
      "name": "testRevoke",
      "outputs": [],
      "stateMutability": "nonpayable",
      "type": "function"
    },
    {
      "inputs": [
        {
          "internalType": "string",
          "name": "sourcePort",
          "type": "string"
        },
        {
          "internalType": "string",
          "name": "sourceChannel",
          "type": "string"
        },
        {
          "internalType": "string",
          "name": "denom",
          "type": "string"
        },
        {
          "internalType": "uint256",
          "name": "amount",
          "type": "uint256"
        },
        {
          "internalType": "string",
          "name": "receiver",
          "type": "string"
        },
        {
          "components": [
            {
              "internalType": "uint64",
              "name": "revisionNumber",
              "type": "uint64"
            },
            {
              "internalType": "uint64",
              "name": "revisionHeight",
              "type": "uint64"
            }
          ],
          "internalType": "struct Height",
          "name": "timeoutHeight",
          "type": "tuple"
        },
        {
          "internalType": "uint64",
          "name": "timeoutTimestamp",
          "type": "uint64"
        },
        {
          "internalType": "string",
          "name": "memo",
          "type": "string"
        }
      ],
      "name": "testTransferContractFunds",
      "outputs": [
        {
          "internalType": "uint64",
          "name": "nextSequence",
          "type": "uint64"
        }
      ],
      "stateMutability": "nonpayable",
      "type": "function"
    },
    {
      "inputs": [
        {
          "internalType": "address payable",
          "name": "_otherAcc",
          "type": "address"
        },
        {
          "internalType": "address",
          "name": "_source",
          "type": "address"
        },
        {
          "internalType": "string",
          "name": "sourcePort",
          "type": "string"
        },
        {
          "internalType": "string",
          "name": "sourceChannel",
          "type": "string"
        },
        {
          "internalType": "string",
          "name": "denom",
          "type": "string"
        },
        {
          "internalType": "uint256",
          "name": "amount",
          "type": "uint256"
        },
        {
          "internalType": "string",
          "name": "receiver",
          "type": "string"
        },
        {
          "internalType": "bool",
          "name": "_before",
          "type": "bool"
        },
        {
          "internalType": "bool",
          "name": "_after",
          "type": "bool"
        }
      ],
      "name": "testTransferFundsWithTransferToOtherAcc",
      "outputs": [],
      "stateMutability": "nonpayable",
      "type": "function"
    },
    {
      "inputs": [
        {
          "internalType": "string",
          "name": "sourcePort",
          "type": "string"
        },
        {
          "internalType": "string",
          "name": "sourceChannel",
          "type": "string"
        },
        {
          "internalType": "string",
          "name": "denom",
          "type": "string"
        },
        {
          "internalType": "uint256",
          "name": "amount",
          "type": "uint256"
        },
        {
          "internalType": "string",
          "name": "receiver",
          "type": "string"
        },
        {
          "components": [
            {
              "internalType": "uint64",
              "name": "revisionNumber",
              "type": "uint64"
            },
            {
              "internalType": "uint64",
              "name": "revisionHeight",
              "type": "uint64"
            }
          ],
          "internalType": "struct Height",
          "name": "timeoutHeight",
          "type": "tuple"
        },
        {
          "internalType": "uint64",
          "name": "timeoutTimestamp",
          "type": "uint64"
        },
        {
          "internalType": "string",
          "name": "memo",
          "type": "string"
        }
      ],
      "name": "testTransferUserFunds",
      "outputs": [
        {
          "internalType": "uint64",
          "name": "nextSequence",
          "type": "uint64"
        }
      ],
      "stateMutability": "nonpayable",
      "type": "function"
    }
  ],
  "bytecode": "0x608060405234801561001057600080fd5b50613aa0806100206000396000f3fe608060405234801561001057600080fd5b50600436106100cf5760003560e01c80637a6185e11161008c578063b967287911610066578063b967287914610225578063c595699a14610241578063f298e7a814610271578063f3675f081461028d576100cf565b80637a6185e1146101bb578063a363df84146101c5578063accc7b90146101f5576100cf565b80631dba685b146100d4578063424af9f6146100f057806344c286701461010c57806361bc221a1461013d5780636fdf23cc1461015b5780637492bdd81461018b575b600080fd5b6100ee60048036038101906100e9919061131b565b6102a9565b005b61010a600480360381019061010591906114b5565b61071e565b005b610126600480360381019061012191906115a2565b6107f8565b60405161013492919061192b565b60405180910390f35b61014561088c565b604051610152919061197e565b60405180910390f35b61017560048036038101906101709190611a1f565b61089d565b6040516101829190611b71565b60405180910390f35b6101a560048036038101906101a09190611a1f565b61093b565b6040516101b29190611b71565b60405180910390f35b6101c36109d9565b005b6101df60048036038101906101da9190611bca565b610a9e565b6040516101ec9190611f2e565b60405180910390f35b61020f600480360381019061020a9190611f50565b610b2b565b60405161021c9190611fdd565b60405180910390f35b61023f600480360381019061023a9190611fff565b610bbb565b005b61025b60048036038101906102569190611f50565b610e88565b6040516102689190612183565b60405180910390f35b61028b600480360381019061028691906114b5565b610f12565b005b6102a760048036038101906102a291906121fb565b610fec565b005b82156103ab5760008081819054906101000a900460070b809291906102cd90612277565b91906101000a81548167ffffffffffffffff021916908360070b67ffffffffffffffff1602179055505060008973ffffffffffffffffffffffffffffffffffffffff16650da475abf000604051610323906122d8565b60006040518083038185875af1925050503d8060008114610360576040519150601f19603f3d011682016040523d82523d6000602084013e610365565b606091505b50509050806103a9576040517f08c379a00000000000000000000000000000000000000000000000000000000081526004016103a09061235f565b60405180910390fd5b505b60006040518060400160405280606467ffffffffffffffff168152602001606467ffffffffffffffff16815250905061080273ffffffffffffffffffffffffffffffffffffffff1663632535b98a8a8a60028b61040891906123ae565b8f8b8860006040518963ffffffff1660e01b81526004016104309897969594939291906124da565b6020604051808303816000875af115801561044f573d6000803e3d6000fd5b505050506040513d601f19601f82011682018060405250810190610473919061259e565b5082156105765760008081819054906101000a900460070b8092919061049890612277565b91906101000a81548167ffffffffffffffff021916908360070b67ffffffffffffffff1602179055505060008a73ffffffffffffffffffffffffffffffffffffffff16650da475abf0006040516104ee906122d8565b60006040518083038185875af1925050503d806000811461052b576040519150601f19603f3d011682016040523d82523d6000602084013e610530565b606091505b5050905080610574576040517f08c379a000000000000000000000000000000000000000000000000000000000815260040161056b9061235f565b60405180910390fd5b505b61080273ffffffffffffffffffffffffffffffffffffffff1663632535b98a8a8a60028b6105a491906123ae565b8f8b8860006040518963ffffffff1660e01b81526004016105cc9897969594939291906124da565b6020604051808303816000875af11580156105eb573d6000803e3d6000fd5b505050506040513d601f19601f8201168201806040525081019061060f919061259e565b5081156107125760008081819054906101000a900460070b8092919061063490612277565b91906101000a81548167ffffffffffffffff021916908360070b67ffffffffffffffff1602179055505060008a73ffffffffffffffffffffffffffffffffffffffff16650da475abf00060405161068a906122d8565b60006040518083038185875af1925050503d80600081146106c7576040519150601f19603f3d011682016040523d82523d6000602084013e6106cc565b606091505b5050905080610710576040517f08c379a00000000000000000000000000000000000000000000000000000000081526004016107079061235f565b60405180910390fd5b505b50505050505050505050565b600061080273ffffffffffffffffffffffffffffffffffffffff166354de647b308a8a8a8a8a8a8a6040518963ffffffff1660e01b8152600401610769989796959493929190612607565b6020604051808303816000875af1158015610788573d6000803e3d6000fd5b505050506040513d601f19601f820116820180604052508101906107ac919061268a565b9050806107ee576040517f08c379a00000000000000000000000000000000000000000000000000000000081526004016107e590612703565b60405180910390fd5b5050505050505050565b60606108026110b7565b61080273ffffffffffffffffffffffffffffffffffffffff1663c0fab104846040518263ffffffff1660e01b815260040161083d919061289f565b600060405180830381865afa15801561085a573d6000803e3d6000fd5b505050506040513d6000823e3d601f19601f820116820180604052508101906108839190612d10565b91509150915091565b60008054906101000a900460070b81565b600061080273ffffffffffffffffffffffffffffffffffffffff1663632535b98a8a8a8a308b8b8b8b6040518a63ffffffff1660e01b81526004016108ea99989796959493929190612d88565b6020604051808303816000875af1158015610909573d6000803e3d6000fd5b505050506040513d601f19601f8201168201806040525081019061092d919061259e565b905098975050505050505050565b600061080273ffffffffffffffffffffffffffffffffffffffff1663632535b98a8a8a8a338b8b8b8b6040518a63ffffffff1660e01b815260040161098899989796959493929190612d88565b6020604051808303816000875af11580156109a7573d6000803e3d6000fd5b505050506040513d601f19601f820116820180604052508101906109cb919061259e565b905098975050505050505050565b600061080273ffffffffffffffffffffffffffffffffffffffff166374a8f103306040518263ffffffff1660e01b8152600401610a169190612e39565b6020604051808303816000875af1158015610a35573d6000803e3d6000fd5b505050506040513d601f19601f82011682018060405250810190610a59919061268a565b905080610a9b576040517f08c379a0000000000000000000000000000000000000000000000000000000008152600401610a9290612ea0565b60405180910390fd5b50565b606061080273ffffffffffffffffffffffffffffffffffffffff1663dd62ed3e84846040518363ffffffff1660e01b8152600401610add929190612ec0565b600060405180830381865afa158015610afa573d6000803e3d6000fd5b505050506040513d6000823e3d601f19601f82011682018060405250810190610b239190613325565b905092915050565b610b336110db565b61080273ffffffffffffffffffffffffffffffffffffffff16635f1f98a2836040518263ffffffff1660e01b8152600401610b6e9190612183565b600060405180830381865afa158015610b8b573d6000803e3d6000fd5b505050506040513d6000823e3d601f19601f82011682018060405250810190610bb4919061336e565b9050919050565b8115610cbd5760008081819054906101000a900460070b80929190610bdf90612277565b91906101000a81548167ffffffffffffffff021916908360070b67ffffffffffffffff1602179055505060008973ffffffffffffffffffffffffffffffffffffffff16650da475abf000604051610c35906122d8565b60006040518083038185875af1925050503d8060008114610c72576040519150601f19603f3d011682016040523d82523d6000602084013e610c77565b606091505b5050905080610cbb576040517f08c379a0000000000000000000000000000000000000000000000000000000008152600401610cb29061235f565b60405180910390fd5b505b60006040518060400160405280606467ffffffffffffffff168152602001606467ffffffffffffffff16815250905061080273ffffffffffffffffffffffffffffffffffffffff1663632535b9898989898e8a8860006040518963ffffffff1660e01b8152600401610d369897969594939291906133b7565b6020604051808303816000875af1158015610d55573d6000803e3d6000fd5b505050506040513d601f19601f82011682018060405250810190610d79919061259e565b508115610e7c5760008081819054906101000a900460070b80929190610d9e90612277565b91906101000a81548167ffffffffffffffff021916908360070b67ffffffffffffffff1602179055505060008a73ffffffffffffffffffffffffffffffffffffffff16650da475abf000604051610df4906122d8565b60006040518083038185875af1925050503d8060008114610e31576040519150601f19603f3d011682016040523d82523d6000602084013e610e36565b606091505b5050905080610e7a576040517f08c379a0000000000000000000000000000000000000000000000000000000008152600401610e719061235f565b60405180910390fd5b505b50505050505050505050565b606061080273ffffffffffffffffffffffffffffffffffffffff1663b5cb6e7d836040518263ffffffff1660e01b8152600401610ec59190612183565b600060405180830381865afa158015610ee2573d6000803e3d6000fd5b505050506040513d6000823e3d601f19601f82011682018060405250810190610f0b9190613466565b9050919050565b600061080273ffffffffffffffffffffffffffffffffffffffff1663b3f536ec308a8a8a8a8a8a8a6040518963ffffffff1660e01b8152600401610f5d989796959493929190612607565b6020604051808303816000875af1158015610f7c573d6000803e3d6000fd5b505050506040513d601f19601f82011682018060405250810190610fa0919061268a565b905080610fe2576040517f08c379a0000000000000000000000000000000000000000000000000000000008152600401610fd9906134fb565b60405180910390fd5b5050505050505050565b600061080273ffffffffffffffffffffffffffffffffffffffff1663473c90c73085856040518463ffffffff1660e01b815260040161102d939291906139cc565b6020604051808303816000875af115801561104c573d6000803e3d6000fd5b505050506040513d601f19601f82011682018060405250810190611070919061268a565b9050806110b2576040517f08c379a00000000000000000000000000000000000000000000000000000000081526004016110a990613a4a565b60405180910390fd5b505050565b604051806040016040528060608152602001600067ffffffffffffffff1681525090565b604051806040016040528060608152602001606081525090565b6000604051905090565b600080fd5b600080fd5b600073ffffffffffffffffffffffffffffffffffffffff82169050919050565b600061113482611109565b9050919050565b61114481611129565b811461114f57600080fd5b50565b6000813590506111618161113b565b92915050565b600080fd5b600080fd5b6000601f19601f8301169050919050565b7f4e487b7100000000000000000000000000000000000000000000000000000000600052604160045260246000fd5b6111ba82611171565b810181811067ffffffffffffffff821117156111d9576111d8611182565b5b80604052505050565b60006111ec6110f5565b90506111f882826111b1565b919050565b600067ffffffffffffffff82111561121857611217611182565b5b61122182611171565b9050602081019050919050565b82818337600083830152505050565b600061125061124b846111fd565b6111e2565b90508281526020810184848401111561126c5761126b61116c565b5b61127784828561122e565b509392505050565b600082601f83011261129457611293611167565b5b81356112a484826020860161123d565b91505092915050565b6000819050919050565b6112c0816112ad565b81146112cb57600080fd5b50565b6000813590506112dd816112b7565b92915050565b60008115159050919050565b6112f8816112e3565b811461130357600080fd5b50565b600081359050611315816112ef565b92915050565b60008060008060008060008060006101208a8c03121561133e5761133d6110ff565b5b600061134c8c828d01611152565b99505060208a013567ffffffffffffffff81111561136d5761136c611104565b5b6113798c828d0161127f565b98505060408a013567ffffffffffffffff81111561139a57611399611104565b5b6113a68c828d0161127f565b97505060608a013567ffffffffffffffff8111156113c7576113c6611104565b5b6113d38c828d0161127f565b96505060806113e48c828d016112ce565b95505060a08a013567ffffffffffffffff81111561140557611404611104565b5b6114118c828d0161127f565b94505060c06114228c828d01611306565b93505060e06114338c828d01611306565b9250506101006114458c828d01611306565b9150509295985092959850929598565b600080fd5b600080fd5b60008083601f84011261147557611474611167565b5b8235905067ffffffffffffffff81111561149257611491611455565b5b6020830191508360018202830111156114ae576114ad61145a565b5b9250929050565b60008060008060008060006080888a0312156114d4576114d36110ff565b5b600088013567ffffffffffffffff8111156114f2576114f1611104565b5b6114fe8a828b0161145f565b9750975050602088013567ffffffffffffffff81111561152157611520611104565b5b61152d8a828b0161145f565b9550955050604088013567ffffffffffffffff8111156115505761154f611104565b5b61155c8a828b0161145f565b9350935050606061156f8a828b016112ce565b91505092959891949750929550565b600080fd5b600060a082840312156115995761159861157e565b5b81905092915050565b6000602082840312156115b8576115b76110ff565b5b600082013567ffffffffffffffff8111156115d6576115d5611104565b5b6115e284828501611583565b91505092915050565b600081519050919050565b600082825260208201905092915050565b6000819050602082019050919050565b600081519050919050565b600082825260208201905092915050565b60005b83811015611651578082015181840152602081019050611636565b60008484015250505050565b600061166882611617565b6116728185611622565b9350611682818560208601611633565b61168b81611171565b840191505092915050565b600081519050919050565b600082825260208201905092915050565b6000819050602082019050919050565b600060408301600083015184820360008601526116df828261165d565b915050602083015184820360208601526116f9828261165d565b9150508091505092915050565b600061171283836116c2565b905092915050565b6000602082019050919050565b600061173282611696565b61173c81856116a1565b93508360208202850161174e856116b2565b8060005b8581101561178a578484038952815161176b8582611706565b94506117768361171a565b925060208a01995050600181019050611752565b50829750879550505050505092915050565b600060408301600083015184820360008601526117b9828261165d565b915050602083015184820360208601526117d38282611727565b9150508091505092915050565b60006117ec838361179c565b905092915050565b6000602082019050919050565b600061180c826115eb565b61181681856115f6565b93508360208202850161182885611607565b8060005b85811015611864578484038952815161184585826117e0565b9450611850836117f4565b925060208a0199505060018101905061182c565b50829750879550505050505092915050565b600081519050919050565b600082825260208201905092915050565b600061189d82611876565b6118a78185611881565b93506118b7818560208601611633565b6118c081611171565b840191505092915050565b600067ffffffffffffffff82169050919050565b6118e8816118cb565b82525050565b6000604083016000830151848203600086015261190b8282611892565b915050602083015161192060208601826118df565b508091505092915050565b600060408201905081810360008301526119458185611801565b9050818103602083015261195981846118ee565b90509392505050565b60008160070b9050919050565b61197881611962565b82525050565b6000602082019050611993600083018461196f565b92915050565b600080fd5b600080fd5b6119ac816118cb565b81146119b757600080fd5b50565b6000813590506119c9816119a3565b92915050565b6000604082840312156119e5576119e4611999565b5b6119ef60406111e2565b905060006119ff848285016119ba565b6000830152506020611a13848285016119ba565b60208301525092915050565b600080600080600080600080610120898b031215611a4057611a3f6110ff565b5b600089013567ffffffffffffffff811115611a5e57611a5d611104565b5b611a6a8b828c0161127f565b985050602089013567ffffffffffffffff811115611a8b57611a8a611104565b5b611a978b828c0161127f565b975050604089013567ffffffffffffffff811115611ab857611ab7611104565b5b611ac48b828c0161127f565b9650506060611ad58b828c016112ce565b955050608089013567ffffffffffffffff811115611af657611af5611104565b5b611b028b828c0161127f565b94505060a0611b138b828c016119cf565b93505060e0611b248b828c016119ba565b92505061010089013567ffffffffffffffff811115611b4657611b45611104565b5b611b528b828c0161127f565b9150509295985092959890939650565b611b6b816118cb565b82525050565b6000602082019050611b866000830184611b62565b92915050565b6000611b9782611109565b9050919050565b611ba781611b8c565b8114611bb257600080fd5b50565b600081359050611bc481611b9e565b92915050565b60008060408385031215611be157611be06110ff565b5b6000611bef85828601611bb5565b9250506020611c0085828601611bb5565b9150509250929050565b600081519050919050565b600082825260208201905092915050565b6000819050602082019050919050565b600081519050919050565b600082825260208201905092915050565b6000819050602082019050919050565b611c6b816112ad565b82525050565b60006040830160008301518482036000860152611c8e828261165d565b9150506020830151611ca36020860182611c62565b508091505092915050565b6000611cba8383611c71565b905092915050565b6000602082019050919050565b6000611cda82611c36565b611ce48185611c41565b935083602082028501611cf685611c52565b8060005b85811015611d325784840389528151611d138582611cae565b9450611d1e83611cc2565b925060208a01995050600181019050611cfa565b50829750879550505050505092915050565b600081519050919050565b600082825260208201905092915050565b6000819050602082019050919050565b6000611d7c838361165d565b905092915050565b6000602082019050919050565b6000611d9c82611d44565b611da68185611d4f565b935083602082028501611db885611d60565b8060005b85811015611df45784840389528151611dd58582611d70565b9450611de083611d84565b925060208a01995050600181019050611dbc565b50829750879550505050505092915050565b600060a0830160008301518482036000860152611e23828261165d565b91505060208301518482036020860152611e3d828261165d565b91505060408301518482036040860152611e578282611ccf565b91505060608301518482036060860152611e718282611d91565b91505060808301518482036080860152611e8b8282611d91565b9150508091505092915050565b6000611ea48383611e06565b905092915050565b6000602082019050919050565b6000611ec482611c0a565b611ece8185611c15565b935083602082028501611ee085611c26565b8060005b85811015611f1c5784840389528151611efd8582611e98565b9450611f0883611eac565b925060208a01995050600181019050611ee4565b50829750879550505050505092915050565b60006020820190508181036000830152611f488184611eb9565b905092915050565b600060208284031215611f6657611f656110ff565b5b600082013567ffffffffffffffff811115611f8457611f83611104565b5b611f908482850161127f565b91505092915050565b60006040830160008301518482036000860152611fb6828261165d565b91505060208301518482036020860152611fd08282611727565b9150508091505092915050565b60006020820190508181036000830152611ff78184611f99565b905092915050565b60008060008060008060008060006101208a8c031215612022576120216110ff565b5b60006120308c828d01611152565b99505060206120418c828d01611bb5565b98505060408a013567ffffffffffffffff81111561206257612061611104565b5b61206e8c828d0161127f565b97505060608a013567ffffffffffffffff81111561208f5761208e611104565b5b61209b8c828d0161127f565b96505060808a013567ffffffffffffffff8111156120bc576120bb611104565b5b6120c88c828d0161127f565b95505060a06120d98c828d016112ce565b94505060c08a013567ffffffffffffffff8111156120fa576120f9611104565b5b6121068c828d0161127f565b93505060e06121178c828d01611306565b9250506101006121298c828d01611306565b9150509295985092959850929598565b600082825260208201905092915050565b600061215582611617565b61215f8185612139565b935061216f818560208601611633565b61217881611171565b840191505092915050565b6000602082019050818103600083015261219d818461214a565b905092915050565b60008083601f8401126121bb576121ba611167565b5b8235905067ffffffffffffffff8111156121d8576121d7611455565b5b6020830191508360208202830111156121f4576121f361145a565b5b9250929050565b60008060208385031215612212576122116110ff565b5b600083013567ffffffffffffffff8111156122305761222f611104565b5b61223c858286016121a5565b92509250509250929050565b7f4e487b7100000000000000000000000000000000000000000000000000000000600052601160045260246000fd5b600061228282611962565b9150677fffffffffffffff820361229c5761229b612248565b5b600182019050919050565b600081905092915050565b50565b60006122c26000836122a7565b91506122cd826122b2565b600082019050919050565b60006122e3826122b5565b9150819050919050565b7f4661696c656420746f2073656e6420457468657220746f2064656c656761746f60008201527f7200000000000000000000000000000000000000000000000000000000000000602082015250565b6000612349602183612139565b9150612354826122ed565b604082019050919050565b600060208201905081810360008301526123788161233c565b9050919050565b7f4e487b7100000000000000000000000000000000000000000000000000000000600052601260045260246000fd5b60006123b9826112ad565b91506123c4836112ad565b9250826123d4576123d361237f565b5b828204905092915050565b6123e8816112ad565b82525050565b6000819050919050565b600061241361240e61240984611109565b6123ee565b611109565b9050919050565b6000612425826123f8565b9050919050565b60006124378261241a565b9050919050565b6124478161242c565b82525050565b60408201600082015161246360008501826118df565b50602082015161247660208501826118df565b50505050565b6000819050919050565b60006124a161249c6124978461247c565b6123ee565b6118cb565b9050919050565b6124b181612486565b82525050565b60006124c4600083612139565b91506124cf826122b2565b600082019050919050565b60006101408201905081810360008301526124f5818b61214a565b90508181036020830152612509818a61214a565b9050818103604083015261251d818961214a565b905061252c60608301886123df565b612539608083018761243e565b81810360a083015261254b818661214a565b905061255a60c083018561244d565b6125686101008301846124a8565b81810361012083015261257a816124b7565b90509998505050505050505050565b600081519050612598816119a3565b92915050565b6000602082840312156125b4576125b36110ff565b5b60006125c284828501612589565b91505092915050565b6125d481611b8c565b82525050565b60006125e68385612139565b93506125f383858461122e565b6125fc83611171565b840190509392505050565b600060a08201905061261c600083018b6125cb565b818103602083015261262f81898b6125da565b905081810360408301526126448187896125da565b905081810360608301526126598185876125da565b905061266860808301846123df565b9998505050505050505050565b600081519050612684816112ef565b92915050565b6000602082840312156126a05761269f6110ff565b5b60006126ae84828501612675565b91505092915050565b7f4661696c656420746f20696e63726561736520616c6c6f77616e636500000000600082015250565b60006126ed601c83612139565b91506126f8826126b7565b602082019050919050565b6000602082019050818103600083015261271c816126e0565b9050919050565b600080fd5b600080fd5b600080fd5b6000808335600160200384360303811261274f5761274e61272d565b5b83810192508235915060208301925067ffffffffffffffff82111561277757612776612723565b5b60018202360383131561278d5761278c612728565b5b509250929050565b60006127a18385611881565b93506127ae83858461122e565b6127b783611171565b840190509392505050565b60006127d160208401846119ba565b905092915050565b60006127e86020840184611306565b905092915050565b6127f9816112e3565b82525050565b600060a083016128126000840184612732565b8583036000870152612825838284612795565b9250505061283660208401846127c2565b61284360208601826118df565b5061285160408401846127c2565b61285e60408601826118df565b5061286c60608401846127d9565b61287960608601826127f0565b5061288760808401846127d9565b61289460808601826127f0565b508091505092915050565b600060208201905081810360008301526128b981846127ff565b905092915050565b600067ffffffffffffffff8211156128dc576128db611182565b5b602082029050602081019050919050565b60006129006128fb846111fd565b6111e2565b90508281526020810184848401111561291c5761291b61116c565b5b612927848285611633565b509392505050565b600082601f83011261294457612943611167565b5b81516129548482602086016128ed565b91505092915050565b600067ffffffffffffffff82111561297857612977611182565b5b602082029050602081019050919050565b60006040828403121561299f5761299e611999565b5b6129a960406111e2565b9050600082015167ffffffffffffffff8111156129c9576129c861199e565b5b6129d58482850161292f565b600083015250602082015167ffffffffffffffff8111156129f9576129f861199e565b5b612a058482850161292f565b60208301525092915050565b6000612a24612a1f8461295d565b6111e2565b90508083825260208201905060208402830185811115612a4757612a4661145a565b5b835b81811015612a8e57805167ffffffffffffffff811115612a6c57612a6b611167565b5b808601612a798982612989565b85526020850194505050602081019050612a49565b5050509392505050565b600082601f830112612aad57612aac611167565b5b8151612abd848260208601612a11565b91505092915050565b600060408284031215612adc57612adb611999565b5b612ae660406111e2565b9050600082015167ffffffffffffffff811115612b0657612b0561199e565b5b612b128482850161292f565b600083015250602082015167ffffffffffffffff811115612b3657612b3561199e565b5b612b4284828501612a98565b60208301525092915050565b6000612b61612b5c846128c1565b6111e2565b90508083825260208201905060208402830185811115612b8457612b8361145a565b5b835b81811015612bcb57805167ffffffffffffffff811115612ba957612ba8611167565b5b808601612bb68982612ac6565b85526020850194505050602081019050612b86565b5050509392505050565b600082601f830112612bea57612be9611167565b5b8151612bfa848260208601612b4e565b91505092915050565b600067ffffffffffffffff821115612c1e57612c1d611182565b5b612c2782611171565b9050602081019050919050565b6000612c47612c4284612c03565b6111e2565b905082815260208101848484011115612c6357612c6261116c565b5b612c6e848285611633565b509392505050565b600082601f830112612c8b57612c8a611167565b5b8151612c9b848260208601612c34565b91505092915050565b600060408284031215612cba57612cb9611999565b5b612cc460406111e2565b9050600082015167ffffffffffffffff811115612ce457612ce361199e565b5b612cf084828501612c76565b6000830152506020612d0484828501612589565b60208301525092915050565b60008060408385031215612d2757612d266110ff565b5b600083015167ffffffffffffffff811115612d4557612d44611104565b5b612d5185828601612bd5565b925050602083015167ffffffffffffffff811115612d7257612d71611104565b5b612d7e85828601612ca4565b9150509250929050565b6000610140820190508181036000830152612da3818c61214a565b90508181036020830152612db7818b61214a565b90508181036040830152612dcb818a61214a565b9050612dda60608301896123df565b612de760808301886125cb565b81810360a0830152612df9818761214a565b9050612e0860c083018661244d565b612e16610100830185611b62565b818103610120830152612e29818461214a565b90509a9950505050505050505050565b6000602082019050612e4e60008301846125cb565b92915050565b7f4661696c656420746f207265766f6b6520617070726f76616c00000000000000600082015250565b6000612e8a601983612139565b9150612e9582612e54565b602082019050919050565b60006020820190508181036000830152612eb981612e7d565b9050919050565b6000604082019050612ed560008301856125cb565b612ee260208301846125cb565b9392505050565b600067ffffffffffffffff821115612f0457612f03611182565b5b602082029050602081019050919050565b600067ffffffffffffffff821115612f3057612f2f611182565b5b602082029050602081019050919050565b600081519050612f50816112b7565b92915050565b600060408284031215612f6c57612f6b611999565b5b612f7660406111e2565b9050600082015167ffffffffffffffff811115612f9657612f9561199e565b5b612fa28482850161292f565b6000830152506020612fb684828501612f41565b60208301525092915050565b6000612fd5612fd084612f15565b6111e2565b90508083825260208201905060208402830185811115612ff857612ff761145a565b5b835b8181101561303f57805167ffffffffffffffff81111561301d5761301c611167565b5b80860161302a8982612f56565b85526020850194505050602081019050612ffa565b5050509392505050565b600082601f83011261305e5761305d611167565b5b815161306e848260208601612fc2565b91505092915050565b600067ffffffffffffffff82111561309257613091611182565b5b602082029050602081019050919050565b60006130b66130b184613077565b6111e2565b905080838252602082019050602084028301858111156130d9576130d861145a565b5b835b8181101561312057805167ffffffffffffffff8111156130fe576130fd611167565b5b80860161310b898261292f565b855260208501945050506020810190506130db565b5050509392505050565b600082601f83011261313f5761313e611167565b5b815161314f8482602086016130a3565b91505092915050565b600060a0828403121561316e5761316d611999565b5b61317860a06111e2565b9050600082015167ffffffffffffffff8111156131985761319761199e565b5b6131a48482850161292f565b600083015250602082015167ffffffffffffffff8111156131c8576131c761199e565b5b6131d48482850161292f565b602083015250604082015167ffffffffffffffff8111156131f8576131f761199e565b5b61320484828501613049565b604083015250606082015167ffffffffffffffff8111156132285761322761199e565b5b6132348482850161312a565b606083015250608082015167ffffffffffffffff8111156132585761325761199e565b5b6132648482850161312a565b60808301525092915050565b600061328361327e84612ee9565b6111e2565b905080838252602082019050602084028301858111156132a6576132a561145a565b5b835b818110156132ed57805167ffffffffffffffff8111156132cb576132ca611167565b5b8086016132d88982613158565b855260208501945050506020810190506132a8565b5050509392505050565b600082601f83011261330c5761330b611167565b5b815161331c848260208601613270565b91505092915050565b60006020828403121561333b5761333a6110ff565b5b600082015167ffffffffffffffff81111561335957613358611104565b5b613365848285016132f7565b91505092915050565b600060208284031215613384576133836110ff565b5b600082015167ffffffffffffffff8111156133a2576133a1611104565b5b6133ae84828501612ac6565b91505092915050565b60006101408201905081810360008301526133d2818b61214a565b905081810360208301526133e6818a61214a565b905081810360408301526133fa818961214a565b905061340960608301886123df565b61341660808301876125cb565b81810360a0830152613428818661214a565b905061343760c083018561244d565b6134456101008301846124a8565b818103610120830152613457816124b7565b90509998505050505050505050565b60006020828403121561347c5761347b6110ff565b5b600082015167ffffffffffffffff81111561349a57613499611104565b5b6134a68482850161292f565b91505092915050565b7f4661696c656420746f20646563726561736520616c6c6f77616e636500000000600082015250565b60006134e5601c83612139565b91506134f0826134af565b602082019050919050565b60006020820190508181036000830152613514816134d8565b9050919050565b6000819050919050565b600080833560016020038436030381126135425761354161272d565b5b83810192508235915060208301925067ffffffffffffffff82111561356a57613569612723565b5b6001820236038313156135805761357f612728565b5b509250929050565b60006135948385611622565b93506135a183858461122e565b6135aa83611171565b840190509392505050565b600080833560016020038436030381126135d2576135d161272d565b5b83810192508235915060208301925067ffffffffffffffff8211156135fa576135f9612723565b5b6020820236038313156136105761360f612728565b5b509250929050565b6000819050919050565b600061363160208401846112ce565b905092915050565b60006040830161364c6000840184613525565b858303600087015261365f838284613588565b925050506136706020840184613622565b61367d6020860182611c62565b508091505092915050565b60006136948383613639565b905092915050565b6000823560016040038336030381126136b8576136b761272d565b5b82810191505092915050565b6000602082019050919050565b60006136dd8385611c41565b9350836020840285016136ef84613618565b8060005b8781101561373357848403895261370a828461369c565b6137148582613688565b945061371f836136c4565b925060208a019950506001810190506136f3565b50829750879450505050509392505050565b600080833560016020038436030381126137625761376161272d565b5b83810192508235915060208301925067ffffffffffffffff82111561378a57613789612723565b5b6020820236038313156137a05761379f612728565b5b509250929050565b6000819050919050565b60006137bf848484613588565b90509392505050565b6000602082019050919050565b60006137e18385611d4f565b9350836020840285016137f3846137a8565b8060005b8781101561383957848403895261380e8284613525565b6138198682846137b2565b9550613824846137c8565b935060208b019a5050506001810190506137f7565b50829750879450505050509392505050565b600060a0830161385e6000840184613525565b8583036000870152613871838284613588565b925050506138826020840184613525565b8583036020870152613895838284613588565b925050506138a660408401846135b5565b85830360408701526138b98382846136d1565b925050506138ca6060840184613745565b85830360608701526138dd8382846137d5565b925050506138ee6080840184613745565b85830360808701526139018382846137d5565b925050508091505092915050565b600061391b838361384b565b905092915050565b60008235600160a00383360303811261393f5761393e61272d565b5b82810191505092915050565b6000602082019050919050565b60006139648385611c15565b9350836020840285016139768461351b565b8060005b878110156139ba5784840389526139918284613923565b61399b858261390f565b94506139a68361394b565b925060208a0199505060018101905061397a565b50829750879450505050509392505050565b60006040820190506139e160008301866125cb565b81810360208301526139f4818486613958565b9050949350505050565b7f4661696c656420746f20706572666f726d20617070726f76616c000000000000600082015250565b6000613a34601a83612139565b9150613a3f826139fe565b602082019050919050565b60006020820190508181036000830152613a6381613a27565b905091905056fea26469706673582212208a4589e357a33a460553a9ae77fd8e92a8486a8e4034c35ea3792822e7b2a4c564736f6c63430008140033",
  "linkReferences": {},
  "deployedLinkReferences": {}
}