{
  "_format": "hh-sol-artifact-1",
  "contractName": "InterchainSender",
  "sourceName": "solidity/precompiles/testutil/contracts/InterchainSender.sol",
  "abi": [
    {
      "inputs": [],
      "name": "counter",
      "outputs": [
        {
          "internalType": "int64",
          "name": "",
          "type": "int64"
        }
      ],
      "stateMutability": "view",
      "type": "function"
    },
    {
      "inputs": [
        {
          "internalType": "string",
          "name": "hash",
          "type": "string"
        }
      ],
      "name": "testDenom",
      "outputs": [
        {
          "components": [
            {
              "internalType": "string",
              "name": "base",
              "type": "string"
            },
            {
              "components": [
                {
                  "internalType": "string",
                  "name": "portId",
                  "type": "string"
                },
                {
                  "internalType": "string",
                  "name": "channelId",
                  "type": "string"
                }
              ],
              "internalType": "struct Hop[]",
              "name": "trace",
              "type": "tuple[]"
            }
          ],
          "internalType": "struct Denom",
          "name": "denom",
          "type": "tuple"
        }
      ],
      "stateMutability": "view",
      "type": "function"
    },
    {
      "inputs": [
        {
          "internalType": "string",
          "name": "trace",
          "type": "string"
        }
      ],
      "name": "testDenomHash",
      "outputs": [
        {
          "internalType": "string",
          "name": "hash",
          "type": "string"
        }
      ],
      "stateMutability": "view",
      "type": "function"
    },
    {
      "inputs": [
        {
          "components": [
            {
              "internalType": "bytes",
              "name": "key",
              "type": "bytes"
            },
            {
              "internalType": "uint64",
              "name": "offset",
              "type": "uint64"
            },
            {
              "internalType": "uint64",
              "name": "limit",
              "type": "uint64"
            },
            {
              "internalType": "bool",
              "name": "countTotal",
              "type": "bool"
            },
            {
              "internalType": "bool",
              "name": "reverse",
              "type": "bool"
            }
          ],
          "internalType": "struct PageRequest",
          "name": "pageRequest",
          "type": "tuple"
        }
      ],
      "name": "testDenoms",
      "outputs": [
        {
          "components": [
            {
              "internalType": "string",
              "name": "base",
              "type": "string"
            },
            {
              "components": [
                {
                  "internalType": "string",
                  "name": "portId",
                  "type": "string"
                },
                {
                  "internalType": "string",
                  "name": "channelId",
                  "type": "string"
                }
              ],
              "internalType": "struct Hop[]",
              "name": "trace",
              "type": "tuple[]"
            }
          ],
          "internalType": "struct Denom[]",
          "name": "denoms",
          "type": "tuple[]"
        },
        {
          "components": [
            {
              "internalType": "bytes",
              "name": "nextKey",
              "type": "bytes"
            },
            {
              "internalType": "uint64",
              "name": "total",
              "type": "uint64"
            }
          ],
          "internalType": "struct PageResponse",
          "name": "pageResponse",
          "type": "tuple"
        }
      ],
      "stateMutability": "view",
      "type": "function"
    },
    {
      "inputs": [
        {
          "internalType": "address payable",
          "name": "_source",
          "type": "address"
        },
        {
          "internalType": "string",
          "name": "sourcePort",
          "type": "string"
        },
        {
          "internalType": "string",
          "name": "sourceChannel",
          "type": "string"
        },
        {
          "internalType": "string",
          "name": "denom",
          "type": "string"
        },
        {
          "internalType": "uint256",
          "name": "amount",
          "type": "uint256"
        },
        {
          "internalType": "string",
          "name": "receiver",
          "type": "string"
        },
        {
          "internalType": "bool",
          "name": "_before",
          "type": "bool"
        },
        {
          "internalType": "bool",
          "name": "_between",
          "type": "bool"
        },
        {
          "internalType": "bool",
          "name": "_after",
          "type": "bool"
        }
      ],
      "name": "testMultiTransferWithInternalTransfer",
      "outputs": [],
      "stateMutability": "nonpayable",
      "type": "function"
    },
    {
      "inputs": [
        {
          "internalType": "string",
          "name": "sourcePort",
          "type": "string"
        },
        {
          "internalType": "string",
          "name": "sourceChannel",
          "type": "string"
        },
        {
          "internalType": "string",
          "name": "denom",
          "type": "string"
        },
        {
          "internalType": "uint256",
          "name": "amount",
          "type": "uint256"
        },
        {
          "internalType": "string",
          "name": "receiver",
          "type": "string"
        },
        {
          "components": [
            {
              "internalType": "uint64",
              "name": "revisionNumber",
              "type": "uint64"
            },
            {
              "internalType": "uint64",
              "name": "revisionHeight",
              "type": "uint64"
            }
          ],
          "internalType": "struct Height",
          "name": "timeoutHeight",
          "type": "tuple"
        },
        {
          "internalType": "uint64",
          "name": "timeoutTimestamp",
          "type": "uint64"
        },
        {
          "internalType": "string",
          "name": "memo",
          "type": "string"
        }
      ],
      "name": "testTransferContractFunds",
      "outputs": [
        {
          "internalType": "uint64",
          "name": "nextSequence",
          "type": "uint64"
        }
      ],
      "stateMutability": "nonpayable",
      "type": "function"
    },
    {
      "inputs": [
        {
          "internalType": "address payable",
          "name": "_otherAcc",
          "type": "address"
        },
        {
          "internalType": "address",
          "name": "_source",
          "type": "address"
        },
        {
          "internalType": "string",
          "name": "sourcePort",
          "type": "string"
        },
        {
          "internalType": "string",
          "name": "sourceChannel",
          "type": "string"
        },
        {
          "internalType": "string",
          "name": "denom",
          "type": "string"
        },
        {
          "internalType": "uint256",
          "name": "amount",
          "type": "uint256"
        },
        {
          "internalType": "string",
          "name": "receiver",
          "type": "string"
        },
        {
          "internalType": "bool",
          "name": "_before",
          "type": "bool"
        },
        {
          "internalType": "bool",
          "name": "_after",
          "type": "bool"
        }
      ],
      "name": "testTransferFundsWithTransferToOtherAcc",
      "outputs": [],
      "stateMutability": "nonpayable",
      "type": "function"
    },
    {
      "inputs": [
        {
          "internalType": "string",
          "name": "sourcePort",
          "type": "string"
        },
        {
          "internalType": "string",
          "name": "sourceChannel",
          "type": "string"
        },
        {
          "internalType": "string",
          "name": "denom",
          "type": "string"
        },
        {
          "internalType": "uint256",
          "name": "amount",
          "type": "uint256"
        },
        {
          "internalType": "string",
          "name": "receiver",
          "type": "string"
        },
        {
          "components": [
            {
              "internalType": "uint64",
              "name": "revisionNumber",
              "type": "uint64"
            },
            {
              "internalType": "uint64",
              "name": "revisionHeight",
              "type": "uint64"
            }
          ],
          "internalType": "struct Height",
          "name": "timeoutHeight",
          "type": "tuple"
        },
        {
          "internalType": "uint64",
          "name": "timeoutTimestamp",
          "type": "uint64"
        },
        {
          "internalType": "string",
          "name": "memo",
          "type": "string"
        }
      ],
      "name": "testTransferUserFunds",
      "outputs": [
        {
          "internalType": "uint64",
          "name": "nextSequence",
          "type": "uint64"
        }
      ],
      "stateMutability": "nonpayable",
      "type": "function"
    }
  ],
  "bytecode": "0x608060405234801561001057600080fd5b50612474806100206000396000f3fe608060405234801561001057600080fd5b50600436106100885760003560e01c80637492bdd81161005b5780637492bdd814610128578063accc7b9014610158578063b967287914610188578063c595699a146101a457610088565b80631dba685b1461008d57806344c28670146100a957806361bc221a146100da5780636fdf23cc146100f8575b600080fd5b6100a760048036038101906100a29190610e75565b6101d4565b005b6100c360048036038101906100be9190610fd3565b610649565b6040516100d192919061135c565b60405180910390f35b6100e26106dd565b6040516100ef91906113af565b60405180910390f35b610112600480360381019061010d9190611450565b6106ee565b60405161011f91906115a2565b60405180910390f35b610142600480360381019061013d9190611450565b61078c565b60405161014f91906115a2565b60405180910390f35b610172600480360381019061016d91906115bd565b61082a565b60405161017f919061164a565b60405180910390f35b6101a2600480360381019061019d91906116aa565b6108ba565b005b6101be60048036038101906101b991906115bd565b610b87565b6040516101cb919061182e565b60405180910390f35b82156102d65760008081819054906101000a900460070b809291906101f89061187f565b91906101000a81548167ffffffffffffffff021916908360070b67ffffffffffffffff1602179055505060008973ffffffffffffffffffffffffffffffffffffffff16650da475abf00060405161024e906118e0565b60006040518083038185875af1925050503d806000811461028b576040519150601f19603f3d011682016040523d82523d6000602084013e610290565b606091505b50509050806102d4576040517f08c379a00000000000000000000000000000000000000000000000000000000081526004016102cb90611967565b60405180910390fd5b505b60006040518060400160405280606467ffffffffffffffff168152602001606467ffffffffffffffff16815250905061080273ffffffffffffffffffffffffffffffffffffffff1663632535b98a8a8a60028b61033391906119b6565b8f8b8860006040518963ffffffff1660e01b815260040161035b989796959493929190611ae2565b6020604051808303816000875af115801561037a573d6000803e3d6000fd5b505050506040513d601f19601f8201168201806040525081019061039e9190611ba6565b5082156104a15760008081819054906101000a900460070b809291906103c39061187f565b91906101000a81548167ffffffffffffffff021916908360070b67ffffffffffffffff1602179055505060008a73ffffffffffffffffffffffffffffffffffffffff16650da475abf000604051610419906118e0565b60006040518083038185875af1925050503d8060008114610456576040519150601f19603f3d011682016040523d82523d6000602084013e61045b565b606091505b505090508061049f576040517f08c379a000000000000000000000000000000000000000000000000000000000815260040161049690611967565b60405180910390fd5b505b61080273ffffffffffffffffffffffffffffffffffffffff1663632535b98a8a8a60028b6104cf91906119b6565b8f8b8860006040518963ffffffff1660e01b81526004016104f7989796959493929190611ae2565b6020604051808303816000875af1158015610516573d6000803e3d6000fd5b505050506040513d601f19601f8201168201806040525081019061053a9190611ba6565b50811561063d5760008081819054906101000a900460070b8092919061055f9061187f565b91906101000a81548167ffffffffffffffff021916908360070b67ffffffffffffffff1602179055505060008a73ffffffffffffffffffffffffffffffffffffffff16650da475abf0006040516105b5906118e0565b60006040518083038185875af1925050503d80600081146105f2576040519150601f19603f3d011682016040523d82523d6000602084013e6105f7565b606091505b505090508061063b576040517f08c379a000000000000000000000000000000000000000000000000000000000815260040161063290611967565b60405180910390fd5b505b50505050505050505050565b6060610653610c11565b61080273ffffffffffffffffffffffffffffffffffffffff1663c0fab104846040518263ffffffff1660e01b815260040161068e9190611d4f565b600060405180830381865afa1580156106ab573d6000803e3d6000fd5b505050506040513d6000823e3d601f19601f820116820180604052508101906106d491906121c5565b91509150915091565b60008054906101000a900460070b81565b600061080273ffffffffffffffffffffffffffffffffffffffff1663632535b98a8a8a8a308b8b8b8b6040518a63ffffffff1660e01b815260040161073b9998979695949392919061224c565b6020604051808303816000875af115801561075a573d6000803e3d6000fd5b505050506040513d601f19601f8201168201806040525081019061077e9190611ba6565b905098975050505050505050565b600061080273ffffffffffffffffffffffffffffffffffffffff1663632535b98a8a8a8a338b8b8b8b6040518a63ffffffff1660e01b81526004016107d99998979695949392919061224c565b6020604051808303816000875af11580156107f8573d6000803e3d6000fd5b505050506040513d601f19601f8201168201806040525081019061081c9190611ba6565b905098975050505050505050565b610832610c35565b61080273ffffffffffffffffffffffffffffffffffffffff16635f1f98a2836040518263ffffffff1660e01b815260040161086d919061182e565b600060405180830381865afa15801561088a573d6000803e3d6000fd5b505050506040513d6000823e3d601f19601f820116820180604052508101906108b391906122fd565b9050919050565b81156109bc5760008081819054906101000a900460070b809291906108de9061187f565b91906101000a81548167ffffffffffffffff021916908360070b67ffffffffffffffff1602179055505060008973ffffffffffffffffffffffffffffffffffffffff16650da475abf000604051610934906118e0565b60006040518083038185875af1925050503d8060008114610971576040519150601f19603f3d011682016040523d82523d6000602084013e610976565b606091505b50509050806109ba576040517f08c379a00000000000000000000000000000000000000000000000000000000081526004016109b190611967565b60405180910390fd5b505b60006040518060400160405280606467ffffffffffffffff168152602001606467ffffffffffffffff16815250905061080273ffffffffffffffffffffffffffffffffffffffff1663632535b9898989898e8a8860006040518963ffffffff1660e01b8152600401610a35989796959493929190612346565b6020604051808303816000875af1158015610a54573d6000803e3d6000fd5b505050506040513d601f19601f82011682018060405250810190610a789190611ba6565b508115610b7b5760008081819054906101000a900460070b80929190610a9d9061187f565b91906101000a81548167ffffffffffffffff021916908360070b67ffffffffffffffff1602179055505060008a73ffffffffffffffffffffffffffffffffffffffff16650da475abf000604051610af3906118e0565b60006040518083038185875af1925050503d8060008114610b30576040519150601f19603f3d011682016040523d82523d6000602084013e610b35565b606091505b5050905080610b79576040517f08c379a0000000000000000000000000000000000000000000000000000000008152600401610b7090611967565b60405180910390fd5b505b50505050505050505050565b606061080273ffffffffffffffffffffffffffffffffffffffff1663b5cb6e7d836040518263ffffffff1660e01b8152600401610bc4919061182e565b600060405180830381865afa158015610be1573d6000803e3d6000fd5b505050506040513d6000823e3d601f19601f82011682018060405250810190610c0a91906123f5565b9050919050565b604051806040016040528060608152602001600067ffffffffffffffff1681525090565b604051806040016040528060608152602001606081525090565b6000604051905090565b600080fd5b600080fd5b600073ffffffffffffffffffffffffffffffffffffffff82169050919050565b6000610c8e82610c63565b9050919050565b610c9e81610c83565b8114610ca957600080fd5b50565b600081359050610cbb81610c95565b92915050565b600080fd5b600080fd5b6000601f19601f8301169050919050565b7f4e487b7100000000000000000000000000000000000000000000000000000000600052604160045260246000fd5b610d1482610ccb565b810181811067ffffffffffffffff82111715610d3357610d32610cdc565b5b80604052505050565b6000610d46610c4f565b9050610d528282610d0b565b919050565b600067ffffffffffffffff821115610d7257610d71610cdc565b5b610d7b82610ccb565b9050602081019050919050565b82818337600083830152505050565b6000610daa610da584610d57565b610d3c565b905082815260208101848484011115610dc657610dc5610cc6565b5b610dd1848285610d88565b509392505050565b600082601f830112610dee57610ded610cc1565b5b8135610dfe848260208601610d97565b91505092915050565b6000819050919050565b610e1a81610e07565b8114610e2557600080fd5b50565b600081359050610e3781610e11565b92915050565b60008115159050919050565b610e5281610e3d565b8114610e5d57600080fd5b50565b600081359050610e6f81610e49565b92915050565b60008060008060008060008060006101208a8c031215610e9857610e97610c59565b5b6000610ea68c828d01610cac565b99505060208a013567ffffffffffffffff811115610ec757610ec6610c5e565b5b610ed38c828d01610dd9565b98505060408a013567ffffffffffffffff811115610ef457610ef3610c5e565b5b610f008c828d01610dd9565b97505060608a013567ffffffffffffffff811115610f2157610f20610c5e565b5b610f2d8c828d01610dd9565b9650506080610f3e8c828d01610e28565b95505060a08a013567ffffffffffffffff811115610f5f57610f5e610c5e565b5b610f6b8c828d01610dd9565b94505060c0610f7c8c828d01610e60565b93505060e0610f8d8c828d01610e60565b925050610100610f9f8c828d01610e60565b9150509295985092959850929598565b600080fd5b600060a08284031215610fca57610fc9610faf565b5b81905092915050565b600060208284031215610fe957610fe8610c59565b5b600082013567ffffffffffffffff81111561100757611006610c5e565b5b61101384828501610fb4565b91505092915050565b600081519050919050565b600082825260208201905092915050565b6000819050602082019050919050565b600081519050919050565b600082825260208201905092915050565b60005b83811015611082578082015181840152602081019050611067565b60008484015250505050565b600061109982611048565b6110a38185611053565b93506110b3818560208601611064565b6110bc81610ccb565b840191505092915050565b600081519050919050565b600082825260208201905092915050565b6000819050602082019050919050565b60006040830160008301518482036000860152611110828261108e565b9150506020830151848203602086015261112a828261108e565b9150508091505092915050565b600061114383836110f3565b905092915050565b6000602082019050919050565b6000611163826110c7565b61116d81856110d2565b93508360208202850161117f856110e3565b8060005b858110156111bb578484038952815161119c8582611137565b94506111a78361114b565b925060208a01995050600181019050611183565b50829750879550505050505092915050565b600060408301600083015184820360008601526111ea828261108e565b915050602083015184820360208601526112048282611158565b9150508091505092915050565b600061121d83836111cd565b905092915050565b6000602082019050919050565b600061123d8261101c565b6112478185611027565b93508360208202850161125985611038565b8060005b8581101561129557848403895281516112768582611211565b945061128183611225565b925060208a0199505060018101905061125d565b50829750879550505050505092915050565b600081519050919050565b600082825260208201905092915050565b60006112ce826112a7565b6112d881856112b2565b93506112e8818560208601611064565b6112f181610ccb565b840191505092915050565b600067ffffffffffffffff82169050919050565b611319816112fc565b82525050565b6000604083016000830151848203600086015261133c82826112c3565b91505060208301516113516020860182611310565b508091505092915050565b600060408201905081810360008301526113768185611232565b9050818103602083015261138a818461131f565b90509392505050565b60008160070b9050919050565b6113a981611393565b82525050565b60006020820190506113c460008301846113a0565b92915050565b600080fd5b600080fd5b6113dd816112fc565b81146113e857600080fd5b50565b6000813590506113fa816113d4565b92915050565b600060408284031215611416576114156113ca565b5b6114206040610d3c565b90506000611430848285016113eb565b6000830152506020611444848285016113eb565b60208301525092915050565b600080600080600080600080610120898b03121561147157611470610c59565b5b600089013567ffffffffffffffff81111561148f5761148e610c5e565b5b61149b8b828c01610dd9565b985050602089013567ffffffffffffffff8111156114bc576114bb610c5e565b5b6114c88b828c01610dd9565b975050604089013567ffffffffffffffff8111156114e9576114e8610c5e565b5b6114f58b828c01610dd9565b96505060606115068b828c01610e28565b955050608089013567ffffffffffffffff81111561152757611526610c5e565b5b6115338b828c01610dd9565b94505060a06115448b828c01611400565b93505060e06115558b828c016113eb565b92505061010089013567ffffffffffffffff81111561157757611576610c5e565b5b6115838b828c01610dd9565b9150509295985092959890939650565b61159c816112fc565b82525050565b60006020820190506115b76000830184611593565b92915050565b6000602082840312156115d3576115d2610c59565b5b600082013567ffffffffffffffff8111156115f1576115f0610c5e565b5b6115fd84828501610dd9565b91505092915050565b60006040830160008301518482036000860152611623828261108e565b9150506020830151848203602086015261163d8282611158565b9150508091505092915050565b600060208201905081810360008301526116648184611606565b905092915050565b600061167782610c63565b9050919050565b6116878161166c565b811461169257600080fd5b50565b6000813590506116a48161167e565b92915050565b60008060008060008060008060006101208a8c0312156116cd576116cc610c59565b5b60006116db8c828d01610cac565b99505060206116ec8c828d01611695565b98505060408a013567ffffffffffffffff81111561170d5761170c610c5e565b5b6117198c828d01610dd9565b97505060608a013567ffffffffffffffff81111561173a57611739610c5e565b5b6117468c828d01610dd9565b96505060808a013567ffffffffffffffff81111561176757611766610c5e565b5b6117738c828d01610dd9565b95505060a06117848c828d01610e28565b94505060c08a013567ffffffffffffffff8111156117a5576117a4610c5e565b5b6117b18c828d01610dd9565b93505060e06117c28c828d01610e60565b9250506101006117d48c828d01610e60565b9150509295985092959850929598565b600082825260208201905092915050565b600061180082611048565b61180a81856117e4565b935061181a818560208601611064565b61182381610ccb565b840191505092915050565b6000602082019050818103600083015261184881846117f5565b905092915050565b7f4e487b7100000000000000000000000000000000000000000000000000000000600052601160045260246000fd5b600061188a82611393565b9150677fffffffffffffff82036118a4576118a3611850565b5b600182019050919050565b600081905092915050565b50565b60006118ca6000836118af565b91506118d5826118ba565b600082019050919050565b60006118eb826118bd565b9150819050919050565b7f4661696c656420746f2073656e6420457468657220746f2064656c656761746f60008201527f7200000000000000000000000000000000000000000000000000000000000000602082015250565b60006119516021836117e4565b915061195c826118f5565b604082019050919050565b6000602082019050818103600083015261198081611944565b9050919050565b7f4e487b7100000000000000000000000000000000000000000000000000000000600052601260045260246000fd5b60006119c182610e07565b91506119cc83610e07565b9250826119dc576119db611987565b5b828204905092915050565b6119f081610e07565b82525050565b6000819050919050565b6000611a1b611a16611a1184610c63565b6119f6565b610c63565b9050919050565b6000611a2d82611a00565b9050919050565b6000611a3f82611a22565b9050919050565b611a4f81611a34565b82525050565b604082016000820151611a6b6000850182611310565b506020820151611a7e6020850182611310565b50505050565b6000819050919050565b6000611aa9611aa4611a9f84611a84565b6119f6565b6112fc565b9050919050565b611ab981611a8e565b82525050565b6000611acc6000836117e4565b9150611ad7826118ba565b600082019050919050565b6000610140820190508181036000830152611afd818b6117f5565b90508181036020830152611b11818a6117f5565b90508181036040830152611b2581896117f5565b9050611b3460608301886119e7565b611b416080830187611a46565b81810360a0830152611b5381866117f5565b9050611b6260c0830185611a55565b611b70610100830184611ab0565b818103610120830152611b8281611abf565b90509998505050505050505050565b600081519050611ba0816113d4565b92915050565b600060208284031215611bbc57611bbb610c59565b5b6000611bca84828501611b91565b91505092915050565b600080fd5b600080fd5b600080fd5b60008083356001602003843603038112611bff57611bfe611bdd565b5b83810192508235915060208301925067ffffffffffffffff821115611c2757611c26611bd3565b5b600182023603831315611c3d57611c3c611bd8565b5b509250929050565b6000611c5183856112b2565b9350611c5e838584610d88565b611c6783610ccb565b840190509392505050565b6000611c8160208401846113eb565b905092915050565b6000611c986020840184610e60565b905092915050565b611ca981610e3d565b82525050565b600060a08301611cc26000840184611be2565b8583036000870152611cd5838284611c45565b92505050611ce66020840184611c72565b611cf36020860182611310565b50611d016040840184611c72565b611d0e6040860182611310565b50611d1c6060840184611c89565b611d296060860182611ca0565b50611d376080840184611c89565b611d446080860182611ca0565b508091505092915050565b60006020820190508181036000830152611d698184611caf565b905092915050565b600067ffffffffffffffff821115611d8c57611d8b610cdc565b5b602082029050602081019050919050565b600080fd5b6000611db5611db084610d57565b610d3c565b905082815260208101848484011115611dd157611dd0610cc6565b5b611ddc848285611064565b509392505050565b600082601f830112611df957611df8610cc1565b5b8151611e09848260208601611da2565b91505092915050565b600067ffffffffffffffff821115611e2d57611e2c610cdc565b5b602082029050602081019050919050565b600060408284031215611e5457611e536113ca565b5b611e5e6040610d3c565b9050600082015167ffffffffffffffff811115611e7e57611e7d6113cf565b5b611e8a84828501611de4565b600083015250602082015167ffffffffffffffff811115611eae57611ead6113cf565b5b611eba84828501611de4565b60208301525092915050565b6000611ed9611ed484611e12565b610d3c565b90508083825260208201905060208402830185811115611efc57611efb611d9d565b5b835b81811015611f4357805167ffffffffffffffff811115611f2157611f20610cc1565b5b808601611f2e8982611e3e565b85526020850194505050602081019050611efe565b5050509392505050565b600082601f830112611f6257611f61610cc1565b5b8151611f72848260208601611ec6565b91505092915050565b600060408284031215611f9157611f906113ca565b5b611f9b6040610d3c565b9050600082015167ffffffffffffffff811115611fbb57611fba6113cf565b5b611fc784828501611de4565b600083015250602082015167ffffffffffffffff811115611feb57611fea6113cf565b5b611ff784828501611f4d565b60208301525092915050565b600061201661201184611d71565b610d3c565b9050808382526020820190506020840283018581111561203957612038611d9d565b5b835b8181101561208057805167ffffffffffffffff81111561205e5761205d610cc1565b5b80860161206b8982611f7b565b8552602085019450505060208101905061203b565b5050509392505050565b600082601f83011261209f5761209e610cc1565b5b81516120af848260208601612003565b91505092915050565b600067ffffffffffffffff8211156120d3576120d2610cdc565b5b6120dc82610ccb565b9050602081019050919050565b60006120fc6120f7846120b8565b610d3c565b90508281526020810184848401111561211857612117610cc6565b5b612123848285611064565b509392505050565b600082601f8301126121405761213f610cc1565b5b81516121508482602086016120e9565b91505092915050565b60006040828403121561216f5761216e6113ca565b5b6121796040610d3c565b9050600082015167ffffffffffffffff811115612199576121986113cf565b5b6121a58482850161212b565b60008301525060206121b984828501611b91565b60208301525092915050565b600080604083850312156121dc576121db610c59565b5b600083015167ffffffffffffffff8111156121fa576121f9610c5e565b5b6122068582860161208a565b925050602083015167ffffffffffffffff81111561222757612226610c5e565b5b61223385828601612159565b9150509250929050565b6122468161166c565b82525050565b6000610140820190508181036000830152612267818c6117f5565b9050818103602083015261227b818b6117f5565b9050818103604083015261228f818a6117f5565b905061229e60608301896119e7565b6122ab608083018861223d565b81810360a08301526122bd81876117f5565b90506122cc60c0830186611a55565b6122da610100830185611593565b8181036101208301526122ed81846117f5565b90509a9950505050505050505050565b60006020828403121561231357612312610c59565b5b600082015167ffffffffffffffff81111561233157612330610c5e565b5b61233d84828501611f7b565b91505092915050565b6000610140820190508181036000830152612361818b6117f5565b90508181036020830152612375818a6117f5565b9050818103604083015261238981896117f5565b905061239860608301886119e7565b6123a5608083018761223d565b81810360a08301526123b781866117f5565b90506123c660c0830185611a55565b6123d4610100830184611ab0565b8181036101208301526123e681611abf565b90509998505050505050505050565b60006020828403121561240b5761240a610c59565b5b600082015167ffffffffffffffff81111561242957612428610c5e565b5b61243584828501611de4565b9150509291505056fea26469706673582212205174745eb919146b654610bcda5d2fc5fddced602c238df77e7b9e694712087764736f6c63430008140033",
  "linkReferences": {},
  "deployedLinkReferences": {}
}