{
  "_format": "hh-sol-artifact-1",
  "contractName": "StakingReverter",
  "sourceName": "solidity/precompiles/testutil/contracts/StakingReverter.sol",
  "abi": [
    {
      "inputs": [],
      "stateMutability": "payable",
      "type": "constructor"
    },
    {
      "inputs": [
        {
          "internalType": "uint256",
          "name": "numTimes",
          "type": "uint256"
        },
        {
          "internalType": "string",
          "name": "validatorAddress",
          "type": "string"
        }
      ],
      "name": "callPrecompileBeforeAndAfterRevert",
      "outputs": [],
      "stateMutability": "nonpayable",
      "type": "function"
    },
    {
      "inputs": [
        {
          "internalType": "string",
          "name": "validatorAddress",
          "type": "string"
        }
      ],
      "name": "getCurrentStake",
      "outputs": [
        {
          "internalType": "uint256",
          "name": "shares",
          "type": "uint256"
        },
        {
          "components": [
            {
              "internalType": "string",
              "name": "denom",
              "type": "string"
            },
            {
              "internalType": "uint256",
              "name": "amount",
              "type": "uint256"
            }
          ],
          "internalType": "struct Coin",
          "name": "balance",
          "type": "tuple"
        }
      ],
      "stateMutability": "view",
      "type": "function"
    },
    {
      "inputs": [
        {
          "internalType": "uint256",
          "name": "numTimes",
          "type": "uint256"
        },
        {
          "internalType": "string",
          "name": "validatorAddress",
          "type": "string"
        }
      ],
      "name": "multipleDelegations",
      "outputs": [],
      "stateMutability": "nonpayable",
      "type": "function"
    },
    {
      "inputs": [
        {
          "internalType": "uint256",
          "name": "numTimes",
          "type": "uint256"
        },
        {
          "internalType": "address",
          "name": "validatorAddress",
          "type": "address"
        }
      ],
      "name": "multipleQueries",
      "outputs": [
        {
          "components": [
            {
              "internalType": "string",
              "name": "operatorAddress",
              "type": "string"
            },
            {
              "internalType": "string",
              "name": "consensusPubkey",
              "type": "string"
            },
            {
              "internalType": "bool",
              "name": "jailed",
              "type": "bool"
            },
            {
              "internalType": "enum BondStatus",
              "name": "status",
              "type": "uint8"
            },
            {
              "internalType": "uint256",
              "name": "tokens",
              "type": "uint256"
            },
            {
              "internalType": "uint256",
              "name": "delegatorShares",
              "type": "uint256"
            },
            {
              "internalType": "string",
              "name": "description",
              "type": "string"
            },
            {
              "internalType": "int64",
              "name": "unbondingHeight",
              "type": "int64"
            },
            {
              "internalType": "int64",
              "name": "unbondingTime",
              "type": "int64"
            },
            {
              "internalType": "uint256",
              "name": "commission",
              "type": "uint256"
            },
            {
              "internalType": "uint256",
              "name": "minSelfDelegation",
              "type": "uint256"
            }
          ],
          "internalType": "struct Validator",
          "name": "validator",
          "type": "tuple"
        }
      ],
      "stateMutability": "view",
      "type": "function"
    },
    {
      "inputs": [
        {
          "internalType": "string",
          "name": "validatorAddress",
          "type": "string"
        }
      ],
      "name": "performDelegation",
      "outputs": [],
      "stateMutability": "nonpayable",
      "type": "function"
    },
    {
      "inputs": [
        {
          "internalType": "uint256",
          "name": "numTimes",
          "type": "uint256"
        },
        {
          "internalType": "string",
          "name": "validatorAddress",
          "type": "string"
        }
      ],
      "name": "run",
      "outputs": [],
      "stateMutability": "nonpayable",
      "type": "function"
    }
  ],
  "bytecode": "0x6080604052600080556111b7806100176000396000f3fe608060405234801561001057600080fd5b50600436106100625760003560e01c80634e5a8fe51461006757806352fce7b114610083578063668f452b1461009f578063922a4b67146100d0578063cbc367d4146100ec578063f66013d71461011c575b600080fd5b610081600480360381019061007c919061072a565b610138565b005b61009d6004803603810190610098919061072a565b6101da565b005b6100b960048036038101906100b4919061078a565b610282565b6040516100c79291906108c2565b60405180910390f35b6100ea60048036038101906100e5919061072a565b61031c565b005b61010660048036038101906101019190610950565b6104b3565b6040516101139190610b3b565b60405180910390f35b6101366004803603810190610131919061078a565b610563565b005b60008081548092919061014a90610b8c565b919050555060005b838110156101d4573073ffffffffffffffffffffffffffffffffffffffff1663f66013d784846040518363ffffffff1660e01b8152600401610195929190610c21565b600060405180830381600087803b1580156101af57600080fd5b505af19250505080156101c0575060015b5080806101cc90610b8c565b915050610152565b50505050565b6000808154809291906101ec90610b8c565b919050555060005b8381101561027c573073ffffffffffffffffffffffffffffffffffffffff1663f66013d784846040518363ffffffff1660e01b8152600401610237929190610c21565b600060405180830381600087803b15801561025157600080fd5b505af1158015610265573d6000803e3d6000fd5b50505050808061027490610b8c565b9150506101f4565b50505050565b600061028c6105ed565b61080073ffffffffffffffffffffffffffffffffffffffff1663241774e63086866040518463ffffffff1660e01b81526004016102cb93929190610c54565b600060405180830381865afa1580156102e8573d6000803e3d6000fd5b505050506040513d6000823e3d601f19601f820116820180604052508101906103119190610e32565b915091509250929050565b61080073ffffffffffffffffffffffffffffffffffffffff166353266bbb308484600a6040518563ffffffff1660e01b815260040161035e9493929190610ed3565b6020604051808303816000875af115801561037d573d6000803e3d6000fd5b505050506040513d601f19601f820116820180604052508101906103a19190610f3f565b5060005b83811015610427573073ffffffffffffffffffffffffffffffffffffffff1663f66013d784846040518363ffffffff1660e01b81526004016103e8929190610c21565b600060405180830381600087803b15801561040257600080fd5b505af1925050508015610413575060015b50808061041f90610b8c565b9150506103a5565b5061080073ffffffffffffffffffffffffffffffffffffffff166353266bbb308484600a6040518563ffffffff1660e01b815260040161046a9493929190610ed3565b6020604051808303816000875af1158015610489573d6000803e3d6000fd5b505050506040513d601f19601f820116820180604052508101906104ad9190610f3f565b50505050565b6104bb610607565b60005b8381101561055c5761080073ffffffffffffffffffffffffffffffffffffffff1663223b3b7a846040518263ffffffff1660e01b81526004016105019190610f6c565b600060405180830381865afa15801561051e573d6000803e3d6000fd5b505050506040513d6000823e3d601f19601f820116820180604052508101906105479190611138565b9150808061055490610b8c565b9150506104be565b5092915050565b61080073ffffffffffffffffffffffffffffffffffffffff166353266bbb308484600a6040518563ffffffff1660e01b81526004016105a59493929190610ed3565b6020604051808303816000875af11580156105c4573d6000803e3d6000fd5b505050506040513d601f19601f820116820180604052508101906105e89190610f3f565b600080fd5b604051806040016040528060608152602001600081525090565b60405180610160016040528060608152602001606081526020016000151581526020016000600381111561063e5761063d6109ab565b5b8152602001600081526020016000815260200160608152602001600060070b8152602001600060070b815260200160008152602001600081525090565b6000604051905090565b600080fd5b600080fd5b6000819050919050565b6106a28161068f565b81146106ad57600080fd5b50565b6000813590506106bf81610699565b92915050565b600080fd5b600080fd5b600080fd5b60008083601f8401126106ea576106e96106c5565b5b8235905067ffffffffffffffff811115610707576107066106ca565b5b602083019150836001820283011115610723576107226106cf565b5b9250929050565b60008060006040848603121561074357610742610685565b5b6000610751868287016106b0565b935050602084013567ffffffffffffffff8111156107725761077161068a565b5b61077e868287016106d4565b92509250509250925092565b600080602083850312156107a1576107a0610685565b5b600083013567ffffffffffffffff8111156107bf576107be61068a565b5b6107cb858286016106d4565b92509250509250929050565b6107e08161068f565b82525050565b600081519050919050565b600082825260208201905092915050565b60005b83811015610820578082015181840152602081019050610805565b60008484015250505050565b6000601f19601f8301169050919050565b6000610848826107e6565b61085281856107f1565b9350610862818560208601610802565b61086b8161082c565b840191505092915050565b61087f8161068f565b82525050565b600060408301600083015184820360008601526108a2828261083d565b91505060208301516108b76020860182610876565b508091505092915050565b60006040820190506108d760008301856107d7565b81810360208301526108e98184610885565b90509392505050565b600073ffffffffffffffffffffffffffffffffffffffff82169050919050565b600061091d826108f2565b9050919050565b61092d81610912565b811461093857600080fd5b50565b60008135905061094a81610924565b92915050565b6000806040838503121561096757610966610685565b5b6000610975858286016106b0565b92505060206109868582860161093b565b9150509250929050565b60008115159050919050565b6109a581610990565b82525050565b7f4e487b7100000000000000000000000000000000000000000000000000000000600052602160045260246000fd5b600481106109eb576109ea6109ab565b5b50565b60008190506109fc826109da565b919050565b6000610a0c826109ee565b9050919050565b610a1c81610a01565b82525050565b60008160070b9050919050565b610a3881610a22565b82525050565b6000610160830160008301518482036000860152610a5c828261083d565b91505060208301518482036020860152610a76828261083d565b9150506040830151610a8b604086018261099c565b506060830151610a9e6060860182610a13565b506080830151610ab16080860182610876565b5060a0830151610ac460a0860182610876565b5060c083015184820360c0860152610adc828261083d565b91505060e0830151610af160e0860182610a2f565b50610100830151610b06610100860182610a2f565b50610120830151610b1b610120860182610876565b50610140830151610b30610140860182610876565b508091505092915050565b60006020820190508181036000830152610b558184610a3e565b905092915050565b7f4e487b7100000000000000000000000000000000000000000000000000000000600052601160045260246000fd5b6000610b978261068f565b91507fffffffffffffffffffffffffffffffffffffffffffffffffffffffffffffffff8203610bc957610bc8610b5d565b5b600182019050919050565b600082825260208201905092915050565b82818337600083830152505050565b6000610c008385610bd4565b9350610c0d838584610be5565b610c168361082c565b840190509392505050565b60006020820190508181036000830152610c3c818486610bf4565b90509392505050565b610c4e81610912565b82525050565b6000604082019050610c696000830186610c45565b8181036020830152610c7c818486610bf4565b9050949350505050565b600081519050610c9581610699565b92915050565b600080fd5b7f4e487b7100000000000000000000000000000000000000000000000000000000600052604160045260246000fd5b610cd88261082c565b810181811067ffffffffffffffff82111715610cf757610cf6610ca0565b5b80604052505050565b6000610d0a61067b565b9050610d168282610ccf565b919050565b600080fd5b600080fd5b600067ffffffffffffffff821115610d4057610d3f610ca0565b5b610d498261082c565b9050602081019050919050565b6000610d69610d6484610d25565b610d00565b905082815260208101848484011115610d8557610d84610d20565b5b610d90848285610802565b509392505050565b600082601f830112610dad57610dac6106c5565b5b8151610dbd848260208601610d56565b91505092915050565b600060408284031215610ddc57610ddb610c9b565b5b610de66040610d00565b9050600082015167ffffffffffffffff811115610e0657610e05610d1b565b5b610e1284828501610d98565b6000830152506020610e2684828501610c86565b60208301525092915050565b60008060408385031215610e4957610e48610685565b5b6000610e5785828601610c86565b925050602083015167ffffffffffffffff811115610e7857610e7761068a565b5b610e8485828601610dc6565b9150509250929050565b6000819050919050565b6000819050919050565b6000610ebd610eb8610eb384610e8e565b610e98565b61068f565b9050919050565b610ecd81610ea2565b82525050565b6000606082019050610ee86000830187610c45565b8181036020830152610efb818587610bf4565b9050610f0a6040830184610ec4565b95945050505050565b610f1c81610990565b8114610f2757600080fd5b50565b600081519050610f3981610f13565b92915050565b600060208284031215610f5557610f54610685565b5b6000610f6384828501610f2a565b91505092915050565b6000602082019050610f816000830184610c45565b92915050565b60048110610f9457600080fd5b50565b600081519050610fa681610f87565b92915050565b610fb581610a22565b8114610fc057600080fd5b50565b600081519050610fd281610fac565b92915050565b60006101608284031215610fef57610fee610c9b565b5b610ffa610160610d00565b9050600082015167ffffffffffffffff81111561101a57611019610d1b565b5b61102684828501610d98565b600083015250602082015167ffffffffffffffff81111561104a57611049610d1b565b5b61105684828501610d98565b602083015250604061106a84828501610f2a565b604083015250606061107e84828501610f97565b606083015250608061109284828501610c86565b60808301525060a06110a684828501610c86565b60a08301525060c082015167ffffffffffffffff8111156110ca576110c9610d1b565b5b6110d684828501610d98565b60c08301525060e06110ea84828501610fc3565b60e0830152506101006110ff84828501610fc3565b6101008301525061012061111584828501610c86565b6101208301525061014061112b84828501610c86565b6101408301525092915050565b60006020828403121561114e5761114d610685565b5b600082015167ffffffffffffffff81111561116c5761116b61068a565b5b61117884828501610fd8565b9150509291505056fea2646970667358221220f5f833c34bff960673e6df4fad50cb2e0deb7da5035552189c3d4e09281dd21264736f6c63430008140033",
  "linkReferences": {},
  "deployedLinkReferences": {}
}