{"abi":[{"type":"function","name":"cancelUnbondingDelegation","inputs":[{"name":"delegatorAddress","type":"address","internalType":"address"},{"name":"","type":"string","internalType":"string"},{"name":"amount","type":"uint256","internalType":"uint256"},{"name":"creationHeight","type":"uint256","internalType":"uint256"}],"outputs":[{"name":"","type":"bool","internalType":"bool"}],"stateMutability":"nonpayable"},{"type":"function","name":"createValidator","inputs":[{"name":"","type":"tuple","internalType":"struct Description","components":[{"name":"moniker","type":"string","internalType":"string"},{"name":"identity","type":"string","internalType":"string"},{"name":"website","type":"string","internalType":"string"},{"name":"securityContact","type":"string","internalType":"string"},{"name":"details","type":"string","internalType":"string"}]},{"name":"","type":"tuple","internalType":"struct CommissionRates","components":[{"name":"rate","type":"uint256","internalType":"uint256"},{"name":"maxRate","type":"uint256","internalType":"uint256"},{"name":"maxChangeRate","type":"uint256","internalType":"uint256"}]},{"name":"","type":"uint256","internalType":"uint256"},{"name":"validatorAddress","type":"address","internalType":"address"},{"name":"","type":"string","internalType":"string"},{"name":"value","type":"uint256","internalType":"uint256"}],"outputs":[{"name":"","type":"bool","internalType":"bool"}],"stateMutability":"nonpayable"},{"type":"function","name":"delegate","inputs":[{"name":"delegatorAddress","type":"address","internalType":"address"},{"name":"validatorAddress","type":"string","internalType":"string"},{"name":"amount","type":"uint256","internalType":"uint256"}],"outputs":[{"name":"","type":"bool","internalType":"bool"}],"stateMutability":"nonpayable"},{"type":"function","name":"delegation","inputs":[{"name":"","type":"address","internalType":"address"},{"name":"","type":"string","internalType":"string"}],"outputs":[{"name":"shares","type":"uint256","internalType":"uint256"},{"name":"balance","type":"tuple","internalType":"struct Coin","components":[{"name":"denom","type":"string","internalType":"string"},{"name":"amount","type":"uint256","internalType":"uint256"}]}],"stateMutability":"view"},{"type":"function","name":"editValidator","inputs":[{"name":"","type":"tuple","internalType":"struct Description","components":[{"name":"moniker","type":"string","internalType":"string"},{"name":"identity","type":"string","internalType":"string"},{"name":"website","type":"string","internalType":"string"},{"name":"securityContact","type":"string","internalType":"string"},{"name":"details","type":"string","internalType":"string"}]},{"name":"validatorAddress","type":"address","internalType":"address"},{"name":"commissionRate","type":"int256","internalType":"int256"},{"name":"minSelfDelegation","type":"int256","internalType":"int256"}],"outputs":[{"name":"","type":"bool","internalType":"bool"}],"stateMutability":"nonpayable"},{"type":"function","name":"redelegate","inputs":[{"name":"delegatorAddress","type":"address","internalType":"address"},{"name":"","type":"string","internalType":"string"},{"name":"","type":"string","internalType":"string"},{"name":"amount","type":"uint256","internalType":"uint256"}],"outputs":[{"name":"","type":"int64","internalType":"int64"}],"stateMutability":"nonpayable"},{"type":"function","name":"redelegation","inputs":[{"name":"","type":"address","internalType":"address"},{"name":"","type":"string","internalType":"string"},{"name":"","type":"string","internalType":"string"}],"outputs":[{"name":"output","type":"tuple","internalType":"struct RedelegationOutput","components":[{"name":"delegatorAddress","type":"string","internalType":"string"},{"name":"validatorSrcAddress","type":"string","internalType":"string"},{"name":"validatorDstAddress","type":"string","internalType":"string"},{"name":"entries","type":"tuple[]","internalType":"struct RedelegationEntry[]","components":[{"name":"creationHeight","type":"int64","internalType":"int64"},{"name":"completionTime","type":"int64","internalType":"int64"},{"name":"initialBalance","type":"uint256","internalType":"uint256"},{"name":"sharesDst","type":"uint256","internalType":"uint256"}]}]}],"stateMutability":"view"},{"type":"function","name":"redelegations","inputs":[{"name":"","type":"address","internalType":"address"},{"name":"","type":"string","internalType":"string"},{"name":"","type":"string","internalType":"string"},{"name":"","type":"tuple","internalType":"struct PageRequest","components":[{"name":"key","type":"bytes","internalType":"bytes"},{"name":"offset","type":"uint64","internalType":"uint64"},{"name":"limit","type":"uint64","internalType":"uint64"},{"name":"countTotal","type":"bool","internalType":"bool"},{"name":"reverse","type":"bool","internalType":"bool"}]}],"outputs":[{"name":"rs","type":"tuple[]","internalType":"struct RedelegationResponse[]","components":[{"name":"redelegation","type":"tuple","internalType":"struct Redelegation","components":[{"name":"delegatorAddress","type":"string","internalType":"string"},{"name":"validatorSrcAddress","type":"string","internalType":"string"},{"name":"validatorDstAddress","type":"string","internalType":"string"},{"name":"entries","type":"tuple[]","internalType":"struct RedelegationEntry[]","components":[{"name":"creationHeight","type":"int64","internalType":"int64"},{"name":"completionTime","type":"int64","internalType":"int64"},{"name":"initialBalance","type":"uint256","internalType":"uint256"},{"name":"sharesDst","type":"uint256","internalType":"uint256"}]}]},{"name":"entries","type":"tuple[]","internalType":"struct RedelegationEntryResponse[]","components":[{"name":"redelegationEntry","type":"tuple","internalType":"struct RedelegationEntry","components":[{"name":"creationHeight","type":"int64","internalType":"int64"},{"name":"completionTime","type":"int64","internalType":"int64"},{"name":"initialBalance","type":"uint256","internalType":"uint256"},{"name":"sharesDst","type":"uint256","internalType":"uint256"}]},{"name":"balance","type":"uint256","internalType":"uint256"}]}]},{"name":"pr","type":"tuple","internalType":"struct PageResponse","components":[{"name":"nextKey","type":"bytes","internalType":"bytes"},{"name":"total","type":"uint64","internalType":"uint64"}]}],"stateMutability":"view"},{"type":"function","name":"unbondingDelegation","inputs":[{"name":"","type":"address","internalType":"address"},{"name":"","type":"string","internalType":"string"}],"outputs":[{"name":"output","type":"tuple","internalType":"struct UnbondingDelegationOutput","components":[{"name":"delegatorAddress","type":"string","internalType":"string"},{"name":"validatorAddress","type":"string","internalType":"string"},{"name":"entries","type":"tuple[]","internalType":"struct UnbondingDelegationEntry[]","components":[{"name":"creationHeight","type":"int64","internalType":"int64"},{"name":"completionTime","type":"int64","internalType":"int64"},{"name":"initialBalance","type":"uint256","internalType":"uint256"},{"name":"balance","type":"uint256","internalType":"uint256"},{"name":"unbondingId","type":"uint64","internalType":"uint64"},{"name":"unbondingOnHoldRefCount","type":"int64","internalType":"int64"}]}]}],"stateMutability":"view"},{"type":"function","name":"undelegate","inputs":[{"name":"delegatorAddress","type":"address","internalType":"address"},{"name":"","type":"string","internalType":"string"},{"name":"amount","type":"uint256","internalType":"uint256"}],"outputs":[{"name":"","type":"int64","internalType":"int64"}],"stateMutability":"nonpayable"},{"type":"function","name":"validator","inputs":[{"name":"","type":"address","internalType":"address"}],"outputs":[{"name":"output","type":"tuple","internalType":"struct Validator","components":[{"name":"operatorAddress","type":"string","internalType":"string"},{"name":"consensusPubkey","type":"string","internalType":"string"},{"name":"jailed","type":"bool","internalType":"bool"},{"name":"status","type":"uint8","internalType":"enum BondStatus"},{"name":"tokens","type":"uint256","internalType":"uint256"},{"name":"delegatorShares","type":"uint256","internalType":"uint256"},{"name":"description","type":"string","internalType":"string"},{"name":"unbondingHeight","type":"int64","internalType":"int64"},{"name":"unbondingTime","type":"int64","internalType":"int64"},{"name":"commission","type":"uint256","internalType":"uint256"},{"name":"minSelfDelegation","type":"uint256","internalType":"uint256"}]}],"stateMutability":"view"},{"type":"function","name":"validators","inputs":[{"name":"","type":"string","internalType":"string"},{"name":"","type":"tuple","internalType":"struct PageRequest","components":[{"name":"key","type":"bytes","internalType":"bytes"},{"name":"offset","type":"uint64","internalType":"uint64"},{"name":"limit","type":"uint64","internalType":"uint64"},{"name":"countTotal","type":"bool","internalType":"bool"},{"name":"reverse","type":"bool","internalType":"bool"}]}],"outputs":[{"name":"vs","type":"tuple[]","internalType":"struct Validator[]","components":[{"name":"operatorAddress","type":"string","internalType":"string"},{"name":"consensusPubkey","type":"string","internalType":"string"},{"name":"jailed","type":"bool","internalType":"bool"},{"name":"status","type":"uint8","internalType":"enum BondStatus"},{"name":"tokens","type":"uint256","internalType":"uint256"},{"name":"delegatorShares","type":"uint256","internalType":"uint256"},{"name":"description","type":"string","internalType":"string"},{"name":"unbondingHeight","type":"int64","internalType":"int64"},{"name":"unbondingTime","type":"int64","internalType":"int64"},{"name":"commission","type":"uint256","internalType":"uint256"},{"name":"minSelfDelegation","type":"uint256","internalType":"uint256"}]},{"name":"pr","type":"tuple","internalType":"struct PageResponse","components":[{"name":"nextKey","type":"bytes","internalType":"bytes"},{"name":"total","type":"uint64","internalType":"uint64"}]}],"stateMutability":"view"},{"type":"event","name":"CancelUnbondingDelegation","inputs":[{"name":"delegatorAddress","type":"address","indexed":true,"internalType":"address"},{"name":"validatorAddress","type":"address","indexed":true,"internalType":"address"},{"name":"amount","type":"uint256","indexed":false,"internalType":"uint256"},{"name":"creationHeight","type":"uint256","indexed":false,"internalType":"uint256"}],"anonymous":false},{"type":"event","name":"CreateValidator","inputs":[{"name":"validatorAddress","type":"address","indexed":true,"internalType":"address"},{"name":"value","type":"uint256","indexed":false,"internalType":"uint256"}],"anonymous":false},{"type":"event","name":"Delegate","inputs":[{"name":"delegatorAddress","type":"address","indexed":true,"internalType":"address"},{"name":"validatorAddress","type":"address","indexed":true,"internalType":"address"},{"name":"amount","type":"uint256","indexed":false,"internalType":"uint256"},{"name":"newShares","type":"uint256","indexed":false,"internalType":"uint256"}],"anonymous":false},{"type":"event","name":"EditValidator","inputs":[{"name":"validatorAddress","type":"address","indexed":true,"internalType":"address"},{"name":"commissionRate","type":"int256","indexed":false,"internalType":"int256"},{"name":"minSelfDelegation","type":"int256","indexed":false,"internalType":"int256"}],"anonymous":false},{"type":"event","name":"Redelegate","inputs":[{"name":"delegatorAddress","type":"address","indexed":true,"internalType":"address"},{"name":"validatorSrcAddress","type":"address","indexed":true,"internalType":"address"},{"name":"validatorDstAddress","type":"address","indexed":true,"internalType":"address"},{"name":"amount","type":"uint256","indexed":false,"internalType":"uint256"},{"name":"completionTime","type":"uint256","indexed":false,"internalType":"uint256"}],"anonymous":false},{"type":"event","name":"Unbond","inputs":[{"name":"delegatorAddress","type":"address","indexed":true,"internalType":"address"},{"name":"validatorAddress","type":"address","indexed":true,"internalType":"address"},{"name":"amount","type":"uint256","indexed":false,"internalType":"uint256"},{"name":"completionTime","type":"uint256","indexed":false,"internalType":"uint256"}],"anonymous":false}],"bytecode":{"object":"0x608060405234801561000f575f80fd5b50611b848061001d5f395ff3fe608060405234801561000f575f80fd5b50600436106100b2575f3560e01c806353266bbb1161006f57806353266bbb146101d957806354b826f5146102095780637d9f939c14610239578063a03ffee114610269578063a50f05ac14610299578063f7cd5516146102c9576100b2565b806310a2851c146100b657806312d58dfe146100e7578063186b216714610117578063223b3b7a14610148578063241774e6146101785780633edab33c146101a9575b5f80fd5b6100d060048036038101906100cb9190610811565b6102f9565b6040516100de929190610d7c565b60405180910390f35b61010160048036038101906100fc9190610ddb565b61030e565b60405161010e9190610e79565b60405180910390f35b610131600480360381019061012c9190610e92565b610383565b60405161013f929190611142565b60405180910390f35b610162600480360381019061015d9190611177565b610395565b60405161016f919061129c565b60405180910390f35b610192600480360381019061018d91906112bc565b6103a2565b6040516101a0929190611362565b60405180910390f35b6101c360048036038101906101be9190611390565b6103db565b6040516101d09190611410565b60405180910390f35b6101f360048036038101906101ee9190611551565b610453565b6040516102009190610e79565b60405180910390f35b610223600480360381019061021e91906115bd565b6104c6565b6040516102309190611410565b60405180910390f35b610253600480360381019061024e9190611660565b610557565b6040516102609190611766565b60405180910390f35b610283600480360381019061027e91906112bc565b610568565b6040516102909190611902565b60405180910390f35b6102b360048036038101906102ae9190611973565b610577565b6040516102c09190610e79565b60405180910390f35b6102e360048036038101906102de9190611a11565b6105d4565b6040516102f09190610e79565b60405180910390f35b6060610303610632565b965096945050505050565b5f8573ffffffffffffffffffffffffffffffffffffffff168673ffffffffffffffffffffffffffffffffffffffff167f6dbe2fb6b2613bdd8e3d284a6111592e06c3ab0af846ff89b6688d48f408dbb5858560405161036e929190611ad8565b60405180910390a36001905095945050505050565b606061038d610632565b935093915050565b61039d610655565b919050565b5f6103ab6106c1565b604051806040016040528060405180602001604052805f81525081526020015f81525090505f9150935093915050565b5f804290508573ffffffffffffffffffffffffffffffffffffffff168673ffffffffffffffffffffffffffffffffffffffff167f4bf8087be3b8a59c2662514df2ed4a3dcaf9ca22f442340cfc05a4e52343d18e858460405161043f929190611ad8565b60405180910390a380915050949350505050565b5f8373ffffffffffffffffffffffffffffffffffffffff168473ffffffffffffffffffffffffffffffffffffffff167f500599802164a08023e87ffc3eed0ba3ae60697b3083ba81d046683679d81c6b84856040516104b3929190611ad8565b60405180910390a3600190509392505050565b5f804290508773ffffffffffffffffffffffffffffffffffffffff168873ffffffffffffffffffffffffffffffffffffffff168973ffffffffffffffffffffffffffffffffffffffff167f82b07f2421474f1e3f1e0b34738cb5ffb925273f408e7591d9c803dcae8da6578685604051610541929190611ad8565b60405180910390a4809150509695505050505050565b61055f6106da565b95945050505050565b610570610702565b9392505050565b5f8373ffffffffffffffffffffffffffffffffffffffff167fdce27cf2792bd8d8f28df5d2cdf379cd593414f21332370ca808c1e703eb4e1f84846040516105c0929190611b0e565b60405180910390a260019050949350505050565b5f8473ffffffffffffffffffffffffffffffffffffffff167f9bdb560f8135cb46033a55410c14e14b1a7bc2d3f3e9973f4b49533e176468b08360405161061b9190611b35565b60405180910390a260019050979650505050505050565b6040518060400160405280606081526020015f67ffffffffffffffff1681525090565b60405180610160016040528060608152602001606081526020015f151581526020015f600381111561068a57610689610f43565b5b81526020015f81526020015f8152602001606081526020015f60070b81526020015f60070b81526020015f81526020015f81525090565b6040518060400160405280606081526020015f81525090565b6040518060800160405280606081526020016060815260200160608152602001606081525090565b60405180606001604052806060815260200160608152602001606081525090565b5f604051905090565b5f80fd5b5f80fd5b5f73ffffffffffffffffffffffffffffffffffffffff82169050919050565b5f61075d82610734565b9050919050565b61076d81610753565b8114610777575f80fd5b50565b5f8135905061078881610764565b92915050565b5f80fd5b5f80fd5b5f80fd5b5f8083601f8401126107af576107ae61078e565b5b8235905067ffffffffffffffff8111156107cc576107cb610792565b5b6020830191508360018202830111156107e8576107e7610796565b5b9250929050565b5f80fd5b5f60a08284031215610808576108076107ef565b5b81905092915050565b5f805f805f806080878903121561082b5761082a61072c565b5b5f61083889828a0161077a565b965050602087013567ffffffffffffffff81111561085957610858610730565b5b61086589828a0161079a565b9550955050604087013567ffffffffffffffff81111561088857610887610730565b5b61089489828a0161079a565b9350935050606087013567ffffffffffffffff8111156108b7576108b6610730565b5b6108c389828a016107f3565b9150509295509295509295565b5f81519050919050565b5f82825260208201905092915050565b5f819050602082019050919050565b5f81519050919050565b5f82825260208201905092915050565b5f5b83811015610930578082015181840152602081019050610915565b5f8484015250505050565b5f601f19601f8301169050919050565b5f610955826108f9565b61095f8185610903565b935061096f818560208601610913565b6109788161093b565b840191505092915050565b5f81519050919050565b5f82825260208201905092915050565b5f819050602082019050919050565b5f8160070b9050919050565b6109c1816109ac565b82525050565b5f819050919050565b6109d9816109c7565b82525050565b608082015f8201516109f35f8501826109b8565b506020820151610a0660208501826109b8565b506040820151610a1960408501826109d0565b506060820151610a2c60608501826109d0565b50505050565b5f610a3d83836109df565b60808301905092915050565b5f602082019050919050565b5f610a5f82610983565b610a69818561098d565b9350610a748361099d565b805f5b83811015610aa4578151610a8b8882610a32565b9750610a9683610a49565b925050600181019050610a77565b5085935050505092915050565b5f608083015f8301518482035f860152610acb828261094b565b91505060208301518482036020860152610ae5828261094b565b91505060408301518482036040860152610aff828261094b565b91505060608301518482036060860152610b198282610a55565b9150508091505092915050565b5f81519050919050565b5f82825260208201905092915050565b5f819050602082019050919050565b60a082015f820151610b635f8501826109df565b506020820151610b7660808501826109d0565b50505050565b5f610b878383610b4f565b60a08301905092915050565b5f602082019050919050565b5f610ba982610b26565b610bb38185610b30565b9350610bbe83610b40565b805f5b83811015610bee578151610bd58882610b7c565b9750610be083610b93565b925050600181019050610bc1565b5085935050505092915050565b5f604083015f8301518482035f860152610c158282610ab1565b91505060208301518482036020860152610c2f8282610b9f565b9150508091505092915050565b5f610c478383610bfb565b905092915050565b5f602082019050919050565b5f610c65826108d0565b610c6f81856108da565b935083602082028501610c81856108ea565b805f5b85811015610cbc5784840389528151610c9d8582610c3c565b9450610ca883610c4f565b925060208a01995050600181019050610c84565b50829750879550505050505092915050565b5f81519050919050565b5f82825260208201905092915050565b5f610cf282610cce565b610cfc8185610cd8565b9350610d0c818560208601610913565b610d158161093b565b840191505092915050565b5f67ffffffffffffffff82169050919050565b610d3c81610d20565b82525050565b5f604083015f8301518482035f860152610d5c8282610ce8565b9150506020830151610d716020860182610d33565b508091505092915050565b5f6040820190508181035f830152610d948185610c5b565b90508181036020830152610da88184610d42565b90509392505050565b610dba816109c7565b8114610dc4575f80fd5b50565b5f81359050610dd581610db1565b92915050565b5f805f805f60808688031215610df457610df361072c565b5b5f610e018882890161077a565b955050602086013567ffffffffffffffff811115610e2257610e21610730565b5b610e2e8882890161079a565b94509450506040610e4188828901610dc7565b9250506060610e5288828901610dc7565b9150509295509295909350565b5f8115159050919050565b610e7381610e5f565b82525050565b5f602082019050610e8c5f830184610e6a565b92915050565b5f805f60408486031215610ea957610ea861072c565b5b5f84013567ffffffffffffffff811115610ec657610ec5610730565b5b610ed28682870161079a565b9350935050602084013567ffffffffffffffff811115610ef557610ef4610730565b5b610f01868287016107f3565b9150509250925092565b5f81519050919050565b5f82825260208201905092915050565b5f819050602082019050919050565b610f3d81610e5f565b82525050565b7f4e487b71000000000000000000000000000000000000000000000000000000005f52602160045260245ffd5b60048110610f8157610f80610f43565b5b50565b5f819050610f9182610f70565b919050565b5f610fa082610f84565b9050919050565b610fb081610f96565b82525050565b5f61016083015f8301518482035f860152610fd1828261094b565b91505060208301518482036020860152610feb828261094b565b91505060408301516110006040860182610f34565b5060608301516110136060860182610fa7565b50608083015161102660808601826109d0565b5060a083015161103960a08601826109d0565b5060c083015184820360c0860152611051828261094b565b91505060e083015161106660e08601826109b8565b5061010083015161107b6101008601826109b8565b506101208301516110906101208601826109d0565b506101408301516110a56101408601826109d0565b508091505092915050565b5f6110bb8383610fb6565b905092915050565b5f602082019050919050565b5f6110d982610f0b565b6110e38185610f15565b9350836020820285016110f585610f25565b805f5b85811015611130578484038952815161111185826110b0565b945061111c836110c3565b925060208a019950506001810190506110f8565b50829750879550505050505092915050565b5f6040820190508181035f83015261115a81856110cf565b9050818103602083015261116e8184610d42565b90509392505050565b5f6020828403121561118c5761118b61072c565b5b5f6111998482850161077a565b91505092915050565b5f61016083015f8301518482035f8601526111bd828261094b565b915050602083015184820360208601526111d7828261094b565b91505060408301516111ec6040860182610f34565b5060608301516111ff6060860182610fa7565b50608083015161121260808601826109d0565b5060a083015161122560a08601826109d0565b5060c083015184820360c086015261123d828261094b565b91505060e083015161125260e08601826109b8565b506101008301516112676101008601826109b8565b5061012083015161127c6101208601826109d0565b506101408301516112916101408601826109d0565b508091505092915050565b5f6020820190508181035f8301526112b481846111a2565b905092915050565b5f805f604084860312156112d3576112d261072c565b5b5f6112e08682870161077a565b935050602084013567ffffffffffffffff81111561130157611300610730565b5b61130d8682870161079a565b92509250509250925092565b611322816109c7565b82525050565b5f604083015f8301518482035f860152611342828261094b565b915050602083015161135760208601826109d0565b508091505092915050565b5f6040820190506113755f830185611319565b81810360208301526113878184611328565b90509392505050565b5f805f80606085870312156113a8576113a761072c565b5b5f6113b58782880161077a565b945050602085013567ffffffffffffffff8111156113d6576113d5610730565b5b6113e28782880161079a565b935093505060406113f587828801610dc7565b91505092959194509250565b61140a816109ac565b82525050565b5f6020820190506114235f830184611401565b92915050565b5f80fd5b7f4e487b71000000000000000000000000000000000000000000000000000000005f52604160045260245ffd5b6114638261093b565b810181811067ffffffffffffffff821117156114825761148161142d565b5b80604052505050565b5f611494610723565b90506114a0828261145a565b919050565b5f67ffffffffffffffff8211156114bf576114be61142d565b5b6114c88261093b565b9050602081019050919050565b828183375f83830152505050565b5f6114f56114f0846114a5565b61148b565b90508281526020810184848401111561151157611510611429565b5b61151c8482856114d5565b509392505050565b5f82601f8301126115385761153761078e565b5b81356115488482602086016114e3565b91505092915050565b5f805f606084860312156115685761156761072c565b5b5f6115758682870161077a565b935050602084013567ffffffffffffffff81111561159657611595610730565b5b6115a286828701611524565b92505060406115b386828701610dc7565b9150509250925092565b5f805f805f80608087890312156115d7576115d661072c565b5b5f6115e489828a0161077a565b965050602087013567ffffffffffffffff81111561160557611604610730565b5b61161189828a0161079a565b9550955050604087013567ffffffffffffffff81111561163457611633610730565b5b61164089828a0161079a565b9350935050606061165389828a01610dc7565b9150509295509295509295565b5f805f805f606086880312156116795761167861072c565b5b5f6116868882890161077a565b955050602086013567ffffffffffffffff8111156116a7576116a6610730565b5b6116b38882890161079a565b9450945050604086013567ffffffffffffffff8111156116d6576116d5610730565b5b6116e28882890161079a565b92509250509295509295909350565b5f608083015f8301518482035f86015261170b828261094b565b91505060208301518482036020860152611725828261094b565b9150506040830151848203604086015261173f828261094b565b915050606083015184820360608601526117598282610a55565b9150508091505092915050565b5f6020820190508181035f83015261177e81846116f1565b905092915050565b5f81519050919050565b5f82825260208201905092915050565b5f819050602082019050919050565b60c082015f8201516117c35f8501826109b8565b5060208201516117d660208501826109b8565b5060408201516117e960408501826109d0565b5060608201516117fc60608501826109d0565b50608082015161180f6080850182610d33565b5060a082015161182260a08501826109b8565b50505050565b5f61183383836117af565b60c08301905092915050565b5f602082019050919050565b5f61185582611786565b61185f8185611790565b935061186a836117a0565b805f5b8381101561189a5781516118818882611828565b975061188c8361183f565b92505060018101905061186d565b5085935050505092915050565b5f606083015f8301518482035f8601526118c1828261094b565b915050602083015184820360208601526118db828261094b565b915050604083015184820360408601526118f5828261184b565b9150508091505092915050565b5f6020820190508181035f83015261191a81846118a7565b905092915050565b5f60a08284031215611937576119366107ef565b5b81905092915050565b5f819050919050565b61195281611940565b811461195c575f80fd5b50565b5f8135905061196d81611949565b92915050565b5f805f806080858703121561198b5761198a61072c565b5b5f85013567ffffffffffffffff8111156119a8576119a7610730565b5b6119b487828801611922565b94505060206119c58782880161077a565b93505060406119d68782880161195f565b92505060606119e78782880161195f565b91505092959194509250565b5f60608284031215611a0857611a076107ef565b5b81905092915050565b5f805f805f805f610100888a031215611a2d57611a2c61072c565b5b5f88013567ffffffffffffffff811115611a4a57611a49610730565b5b611a568a828b01611922565b9750506020611a678a828b016119f3565b9650506080611a788a828b01610dc7565b95505060a0611a898a828b0161077a565b94505060c088013567ffffffffffffffff811115611aaa57611aa9610730565b5b611ab68a828b0161079a565b935093505060e0611ac98a828b01610dc7565b91505092959891949750929550565b5f604082019050611aeb5f830185611319565b611af86020830184611319565b9392505050565b611b0881611940565b82525050565b5f604082019050611b215f830185611aff565b611b2e6020830184611aff565b9392505050565b5f602082019050611b485f830184611319565b9291505056fea2646970667358221220f0a9b621f46cce6a9bae7dad4fc8588bf801fff08c4202996762dbb4a3f6f7b864736f6c63430008170033","linkReferences":{}},"methodIdentifiers":{"cancelUnbondingDelegation(address,string,uint256,uint256)":"12d58dfe","createValidator((string,string,string,string,string),(uint256,uint256,uint256),uint256,address,string,uint256)":"f7cd5516","delegate(address,string,uint256)":"53266bbb","delegation(address,string)":"241774e6","editValidator((string,string,string,string,string),address,int256,int256)":"a50f05ac","redelegate(address,string,string,uint256)":"54b826f5","redelegation(address,string,string)":"7d9f939c","redelegations(address,string,string,(bytes,uint64,uint64,bool,bool))":"10a2851c","unbondingDelegation(address,string)":"a03ffee1","undelegate(address,string,uint256)":"3edab33c","validator(address)":"223b3b7a","validators(string,(bytes,uint64,uint64,bool,bool))":"186b2167"},"id":2}