{
  "_format": "hh-sol-artifact-1",
  "contractName": "WATOM",
  "sourceName": "solidity/WATOM.sol",
  "abi": [
    {
      "anonymous": false,
      "inputs": [
        {
          "indexed": true,
          "internalType": "address",
          "name": "dst",
          "type": "address"
        },
        {
          "indexed": false,
          "internalType": "uint256",
          "name": "amount",
          "type": "uint256"
        }
      ],
      "name": "Deposit",
      "type": "event"
    },
    {
      "anonymous": false,
      "inputs": [
        {
          "indexed": true,
          "internalType": "address",
          "name": "src",
          "type": "address"
        },
        {
          "indexed": true,
          "internalType": "address",
          "name": "dst",
          "type": "address"
        },
        {
          "indexed": false,
          "internalType": "uint256",
          "name": "amount",
          "type": "uint256"
        }
      ],
      "name": "Transfer",
      "type": "event"
    },
    {
      "anonymous": false,
      "inputs": [
        {
          "indexed": true,
          "internalType": "address",
          "name": "src",
          "type": "address"
        },
        {
          "indexed": false,
          "internalType": "uint256",
          "name": "amount",
          "type": "uint256"
        }
      ],
      "name": "Withdrawal",
      "type": "event"
    },
    {
      "inputs": [
        {
          "internalType": "address",
          "name": "",
          "type": "address"
        }
      ],
      "name": "balanceOf",
      "outputs": [
        {
          "internalType": "uint256",
          "name": "",
          "type": "uint256"
        }
      ],
      "stateMutability": "view",
      "type": "function"
    },
    {
      "inputs": [],
      "name": "decimals",
      "outputs": [
        {
          "internalType": "uint8",
          "name": "",
          "type": "uint8"
        }
      ],
      "stateMutability": "view",
      "type": "function"
    },
    {
      "inputs": [],
      "name": "deposit",
      "outputs": [],
      "stateMutability": "payable",
      "type": "function"
    },
    {
      "inputs": [],
      "name": "name",
      "outputs": [
        {
          "internalType": "string",
          "name": "",
          "type": "string"
        }
      ],
      "stateMutability": "view",
      "type": "function"
    },
    {
      "inputs": [],
      "name": "symbol",
      "outputs": [
        {
          "internalType": "string",
          "name": "",
          "type": "string"
        }
      ],
      "stateMutability": "view",
      "type": "function"
    },
    {
      "inputs": [
        {
          "internalType": "address",
          "name": "to",
          "type": "address"
        },
        {
          "internalType": "uint256",
          "name": "amount",
          "type": "uint256"
        }
      ],
      "name": "transfer",
      "outputs": [
        {
          "internalType": "bool",
          "name": "",
          "type": "bool"
        }
      ],
      "stateMutability": "nonpayable",
      "type": "function"
    },
    {
      "inputs": [
        {
          "internalType": "uint256",
          "name": "amount",
          "type": "uint256"
        }
      ],
      "name": "withdraw",
      "outputs": [],
      "stateMutability": "nonpayable",
      "type": "function"
    },
    {
      "stateMutability": "payable",
      "type": "receive"
    }
  ],
  "bytecode": "0x60806040526040518060400160405280600c81526020017f577261707065642041746f6d0000000000000000000000000000000000000000815250600090816200004a91906200033c565b506040518060400160405280600581526020017f5741544f4d000000000000000000000000000000000000000000000000000000815250600190816200009191906200033c565b506012600260006101000a81548160ff021916908360ff160217905550348015620000bb57600080fd5b5062000423565b600081519050919050565b7f4e487b7100000000000000000000000000000000000000000000000000000000600052604160045260246000fd5b7f4e487b7100000000000000000000000000000000000000000000000000000000600052602260045260246000fd5b600060028204905060018216806200014457607f821691505b6020821081036200015a5762000159620000fc565b5b50919050565b60008190508160005260206000209050919050565b60006020601f8301049050919050565b600082821b905092915050565b600060088302620001c47fffffffffffffffffffffffffffffffffffffffffffffffffffffffffffffffff8262000185565b620001d0868362000185565b95508019841693508086168417925050509392505050565b6000819050919050565b6000819050919050565b60006200021d620002176200021184620001e8565b620001f2565b620001e8565b9050919050565b6000819050919050565b6200023983620001fc565b62000251620002488262000224565b84845462000192565b825550505050565b600090565b6200026862000259565b620002758184846200022e565b505050565b5b818110156200029d57620002916000826200025e565b6001810190506200027b565b5050565b601f821115620002ec57620002b68162000160565b620002c18462000175565b81016020851015620002d1578190505b620002e9620002e08562000175565b8301826200027a565b50505b505050565b600082821c905092915050565b60006200031160001984600802620002f1565b1980831691505092915050565b60006200032c8383620002fe565b9150826002028217905092915050565b6200034782620000c2565b67ffffffffffffffff811115620003635762000362620000cd565b5b6200036f82546200012b565b6200037c828285620002a1565b600060209050601f831160018114620003b457600084156200039f578287015190505b620003ab85826200031e565b8655506200041b565b601f198416620003c48662000160565b60005b82811015620003ee57848901518255600182019150602085019450602081019050620003c7565b868310156200040e57848901516200040a601f891682620002fe565b8355505b6001600288020188555050505b505050505050565b610bdf80620004336000396000f3fe6080604052600436106100745760003560e01c806370a082311161004e57806370a082311461010757806395d89b4114610144578063a9059cbb1461016f578063d0e30db0146101ac57610083565b806306fdde03146100885780632e1a7d4d146100b3578063313ce567146100dc57610083565b36610083576100816101b6565b005b600080fd5b34801561009457600080fd5b5061009d61025c565b6040516100aa91906107a8565b60405180910390f35b3480156100bf57600080fd5b506100da60048036038101906100d59190610805565b6102ea565b005b3480156100e857600080fd5b506100f16104c0565b6040516100fe919061084e565b60405180910390f35b34801561011357600080fd5b5061012e600480360381019061012991906108c7565b6104d3565b60405161013b9190610903565b60405180910390f35b34801561015057600080fd5b506101596104eb565b60405161016691906107a8565b60405180910390f35b34801561017b57600080fd5b506101966004803603810190610191919061091e565b610579565b6040516101a39190610979565b60405180910390f35b6101b46101b6565b005b34600360003373ffffffffffffffffffffffffffffffffffffffff1673ffffffffffffffffffffffffffffffffffffffff168152602001908152602001600020600082825461020591906109c3565b925050819055503373ffffffffffffffffffffffffffffffffffffffff167fe1fffcc4923d04b559f4d29a8bfc6cda04eb5b0d3c460751c2402c5c5cc9109c346040516102529190610903565b60405180910390a2565b6000805461026990610a26565b80601f016020809104026020016040519081016040528092919081815260200182805461029590610a26565b80156102e25780601f106102b7576101008083540402835291602001916102e2565b820191906000526020600020905b8154815290600101906020018083116102c557829003601f168201915b505050505081565b80600360003373ffffffffffffffffffffffffffffffffffffffff1673ffffffffffffffffffffffffffffffffffffffff16815260200190815260200160002054101561036c576040517f08c379a000000000000000000000000000000000000000000000000000000000815260040161036390610aa3565b60405180910390fd5b80600360003373ffffffffffffffffffffffffffffffffffffffff1673ffffffffffffffffffffffffffffffffffffffff16815260200190815260200160002060008282546103bb9190610ac3565b9250508190555060003373ffffffffffffffffffffffffffffffffffffffff16826040516103e890610b28565b60006040518083038185875af1925050503d8060008114610425576040519150601f19603f3d011682016040523d82523d6000602084013e61042a565b606091505b505090508061046e576040517f08c379a000000000000000000000000000000000000000000000000000000000815260040161046590610b89565b60405180910390fd5b3373ffffffffffffffffffffffffffffffffffffffff167f7fcf532c15f0a6db0bd6d0e038bea71d30d808c7d98cb3bf7268a95bf5081b65836040516104b49190610903565b60405180910390a25050565b600260009054906101000a900460ff1681565b60036020528060005260406000206000915090505481565b600180546104f890610a26565b80601f016020809104026020016040519081016040528092919081815260200182805461052490610a26565b80156105715780601f1061054657610100808354040283529160200191610571565b820191906000526020600020905b81548152906001019060200180831161055457829003601f168201915b505050505081565b600081600360003373ffffffffffffffffffffffffffffffffffffffff1673ffffffffffffffffffffffffffffffffffffffff1681526020019081526020016000205410156105fd576040517f08c379a00000000000000000000000000000000000000000000000000000000081526004016105f490610aa3565b60405180910390fd5b81600360003373ffffffffffffffffffffffffffffffffffffffff1673ffffffffffffffffffffffffffffffffffffffff168152602001908152602001600020600082825461064c9190610ac3565b9250508190555081600360008573ffffffffffffffffffffffffffffffffffffffff1673ffffffffffffffffffffffffffffffffffffffff16815260200190815260200160002060008282546106a291906109c3565b925050819055508273ffffffffffffffffffffffffffffffffffffffff163373ffffffffffffffffffffffffffffffffffffffff167fddf252ad1be2c89b69c2b068fc378daa952ba7f163c4a11628f55a4df523b3ef846040516107069190610903565b60405180910390a36001905092915050565b600081519050919050565b600082825260208201905092915050565b60005b83811015610752578082015181840152602081019050610737565b60008484015250505050565b6000601f19601f8301169050919050565b600061077a82610718565b6107848185610723565b9350610794818560208601610734565b61079d8161075e565b840191505092915050565b600060208201905081810360008301526107c2818461076f565b905092915050565b600080fd5b6000819050919050565b6107e2816107cf565b81146107ed57600080fd5b50565b6000813590506107ff816107d9565b92915050565b60006020828403121561081b5761081a6107ca565b5b6000610829848285016107f0565b91505092915050565b600060ff82169050919050565b61084881610832565b82525050565b6000602082019050610863600083018461083f565b92915050565b600073ffffffffffffffffffffffffffffffffffffffff82169050919050565b600061089482610869565b9050919050565b6108a481610889565b81146108af57600080fd5b50565b6000813590506108c18161089b565b92915050565b6000602082840312156108dd576108dc6107ca565b5b60006108eb848285016108b2565b91505092915050565b6108fd816107cf565b82525050565b600060208201905061091860008301846108f4565b92915050565b60008060408385031215610935576109346107ca565b5b6000610943858286016108b2565b9250506020610954858286016107f0565b9150509250929050565b60008115159050919050565b6109738161095e565b82525050565b600060208201905061098e600083018461096a565b92915050565b7f4e487b7100000000000000000000000000000000000000000000000000000000600052601160045260246000fd5b60006109ce826107cf565b91506109d9836107cf565b92508282019050808211156109f1576109f0610994565b5b92915050565b7f4e487b7100000000000000000000000000000000000000000000000000000000600052602260045260246000fd5b60006002820490506001821680610a3e57607f821691505b602082108103610a5157610a506109f7565b5b50919050565b7f696e73756666696369656e742062616c616e6365000000000000000000000000600082015250565b6000610a8d601483610723565b9150610a9882610a57565b602082019050919050565b60006020820190508181036000830152610abc81610a80565b9050919050565b6000610ace826107cf565b9150610ad9836107cf565b9250828203905081811115610af157610af0610994565b5b92915050565b600081905092915050565b50565b6000610b12600083610af7565b9150610b1d82610b02565b600082019050919050565b6000610b3382610b05565b9150819050919050565b7f6661696c656420746f20776974686472617720746f2073656e64657200000000600082015250565b6000610b73601c83610723565b9150610b7e82610b3d565b602082019050919050565b60006020820190508181036000830152610ba281610b66565b905091905056fea264697066735822122014f0a4d9153d63cb6dc8f136b21822a5a614c67112f2585958b7709a2948685f64736f6c63430008140033",
  "linkReferences": {},
  "deployedLinkReferences": {}
}