{
  "_format": "hh-sol-artifact-1",
  "contractName": "WATOM",
  "sourceName": "solidity/WATOM.sol",
  "abi": [
    {
      "anonymous": false,
      "inputs": [
        {
          "indexed": true,
          "internalType": "address",
          "name": "dst",
          "type": "address"
        },
        {
          "indexed": false,
          "internalType": "uint256",
          "name": "amount",
          "type": "uint256"
        }
      ],
      "name": "Deposit",
      "type": "event"
    },
    {
      "anonymous": false,
      "inputs": [
        {
          "indexed": true,
          "internalType": "address",
          "name": "src",
          "type": "address"
        },
        {
          "indexed": true,
          "internalType": "address",
          "name": "dst",
          "type": "address"
        },
        {
          "indexed": false,
          "internalType": "uint256",
          "name": "amount",
          "type": "uint256"
        }
      ],
      "name": "Transfer",
      "type": "event"
    },
    {
      "anonymous": false,
      "inputs": [
        {
          "indexed": true,
          "internalType": "address",
          "name": "src",
          "type": "address"
        },
        {
          "indexed": false,
          "internalType": "uint256",
          "name": "amount",
          "type": "uint256"
        }
      ],
      "name": "Withdrawal",
      "type": "event"
    },
    {
      "inputs": [
        {
          "internalType": "address",
          "name": "",
          "type": "address"
        }
      ],
      "name": "balanceOf",
      "outputs": [
        {
          "internalType": "uint256",
          "name": "",
          "type": "uint256"
        }
      ],
      "stateMutability": "view",
      "type": "function"
    },
    {
      "inputs": [],
      "name": "decimals",
      "outputs": [
        {
          "internalType": "uint8",
          "name": "",
          "type": "uint8"
        }
      ],
      "stateMutability": "view",
      "type": "function"
    },
    {
      "inputs": [],
      "name": "deposit",
      "outputs": [],
      "stateMutability": "payable",
      "type": "function"
    },
    {
      "inputs": [],
      "name": "name",
      "outputs": [
        {
          "internalType": "string",
          "name": "",
          "type": "string"
        }
      ],
      "stateMutability": "view",
      "type": "function"
    },
    {
      "inputs": [],
      "name": "symbol",
      "outputs": [
        {
          "internalType": "string",
          "name": "",
          "type": "string"
        }
      ],
      "stateMutability": "view",
      "type": "function"
    },
    {
      "inputs": [
        {
          "internalType": "address",
          "name": "to",
          "type": "address"
        },
        {
          "internalType": "uint256",
          "name": "amount",
          "type": "uint256"
        }
      ],
      "name": "transfer",
      "outputs": [
        {
          "internalType": "bool",
          "name": "",
          "type": "bool"
        }
      ],
      "stateMutability": "nonpayable",
      "type": "function"
    },
    {
      "inputs": [
        {
          "internalType": "uint256",
          "name": "amount",
          "type": "uint256"
        }
      ],
      "name": "withdraw",
      "outputs": [],
      "stateMutability": "nonpayable",
      "type": "function"
    },
    {
      "stateMutability": "payable",
      "type": "receive"
    }
  ],
  "bytecode": "0x60806040526040518060400160405280600c81526020017f577261707065642041746f6d0000000000000000000000000000000000000000815250600090816200004a91906200033c565b506040518060400160405280600581526020017f5741544f4d000000000000000000000000000000000000000000000000000000815250600190816200009191906200033c565b506012600260006101000a81548160ff021916908360ff160217905550348015620000bb57600080fd5b5062000423565b600081519050919050565b7f4e487b7100000000000000000000000000000000000000000000000000000000600052604160045260246000fd5b7f4e487b7100000000000000000000000000000000000000000000000000000000600052602260045260246000fd5b600060028204905060018216806200014457607f821691505b6020821081036200015a5762000159620000fc565b5b50919050565b60008190508160005260206000209050919050565b60006020601f8301049050919050565b600082821b905092915050565b600060088302620001c47fffffffffffffffffffffffffffffffffffffffffffffffffffffffffffffffff8262000185565b620001d0868362000185565b95508019841693508086168417925050509392505050565b6000819050919050565b6000819050919050565b60006200021d620002176200021184620001e8565b620001f2565b620001e8565b9050919050565b6000819050919050565b6200023983620001fc565b62000251620002488262000224565b84845462000192565b825550505050565b600090565b6200026862000259565b620002758184846200022e565b505050565b5b818110156200029d57620002916000826200025e565b6001810190506200027b565b5050565b601f821115620002ec57620002b68162000160565b620002c18462000175565b81016020851015620002d1578190505b620002e9620002e08562000175565b8301826200027a565b50505b505050565b600082821c905092915050565b60006200031160001984600802620002f1565b1980831691505092915050565b60006200032c8383620002fe565b9150826002028217905092915050565b6200034782620000c2565b67ffffffffffffffff811115620003635762000362620000cd565b5b6200036f82546200012b565b6200037c828285620002a1565b600060209050601f831160018114620003b457600084156200039f578287015190505b620003ab85826200031e565b8655506200041b565b601f198416620003c48662000160565b60005b82811015620003ee57848901518255600182019150602085019450602081019050620003c7565b868310156200040e57848901516200040a601f891682620002fe565b8355505b6001600288020188555050505b505050505050565b610ac780620004336000396000f3fe6080604052600436106100745760003560e01c806370a082311161004e57806370a082311461010757806395d89b4114610144578063a9059cbb1461016f578063d0e30db0146101ac57610083565b806306fdde03146100885780632e1a7d4d146100b3578063313ce567146100dc57610083565b36610083576100816101b6565b005b600080fd5b34801561009457600080fd5b5061009d61025c565b6040516100aa9190610742565b60405180910390f35b3480156100bf57600080fd5b506100da60048036038101906100d5919061079f565b6102ea565b005b3480156100e857600080fd5b506100f161045a565b6040516100fe91906107e8565b60405180910390f35b34801561011357600080fd5b5061012e60048036038101906101299190610861565b61046d565b60405161013b919061089d565b60405180910390f35b34801561015057600080fd5b50610159610485565b6040516101669190610742565b60405180910390f35b34801561017b57600080fd5b50610196600480360381019061019191906108b8565b610513565b6040516101a39190610913565b60405180910390f35b6101b46101b6565b005b34600360003373ffffffffffffffffffffffffffffffffffffffff1673ffffffffffffffffffffffffffffffffffffffff1681526020019081526020016000206000828254610205919061095d565b925050819055503373ffffffffffffffffffffffffffffffffffffffff167fe1fffcc4923d04b559f4d29a8bfc6cda04eb5b0d3c460751c2402c5c5cc9109c34604051610252919061089d565b60405180910390a2565b60008054610269906109c0565b80601f0160208091040260200160405190810160405280929190818152602001828054610295906109c0565b80156102e25780601f106102b7576101008083540402835291602001916102e2565b820191906000526020600020905b8154815290600101906020018083116102c557829003601f168201915b505050505081565b80600360003373ffffffffffffffffffffffffffffffffffffffff1673ffffffffffffffffffffffffffffffffffffffff16815260200190815260200160002054101561036c576040517f08c379a000000000000000000000000000000000000000000000000000000000815260040161036390610a3d565b60405180910390fd5b80600360003373ffffffffffffffffffffffffffffffffffffffff1673ffffffffffffffffffffffffffffffffffffffff16815260200190815260200160002060008282546103bb9190610a5d565b925050819055503373ffffffffffffffffffffffffffffffffffffffff166108fc829081150290604051600060405180830381858888f19350505050158015610408573d6000803e3d6000fd5b503373ffffffffffffffffffffffffffffffffffffffff167f7fcf532c15f0a6db0bd6d0e038bea71d30d808c7d98cb3bf7268a95bf5081b658260405161044f919061089d565b60405180910390a250565b600260009054906101000a900460ff1681565b60036020528060005260406000206000915090505481565b60018054610492906109c0565b80601f01602080910402602001604051908101604052809291908181526020018280546104be906109c0565b801561050b5780601f106104e05761010080835404028352916020019161050b565b820191906000526020600020905b8154815290600101906020018083116104ee57829003601f168201915b505050505081565b600081600360003373ffffffffffffffffffffffffffffffffffffffff1673ffffffffffffffffffffffffffffffffffffffff168152602001908152602001600020541015610597576040517f08c379a000000000000000000000000000000000000000000000000000000000815260040161058e90610a3d565b60405180910390fd5b81600360003373ffffffffffffffffffffffffffffffffffffffff1673ffffffffffffffffffffffffffffffffffffffff16815260200190815260200160002060008282546105e69190610a5d565b9250508190555081600360008573ffffffffffffffffffffffffffffffffffffffff1673ffffffffffffffffffffffffffffffffffffffff168152602001908152602001600020600082825461063c919061095d565b925050819055508273ffffffffffffffffffffffffffffffffffffffff163373ffffffffffffffffffffffffffffffffffffffff167fddf252ad1be2c89b69c2b068fc378daa952ba7f163c4a11628f55a4df523b3ef846040516106a0919061089d565b60405180910390a36001905092915050565b600081519050919050565b600082825260208201905092915050565b60005b838110156106ec5780820151818401526020810190506106d1565b60008484015250505050565b6000601f19601f8301169050919050565b6000610714826106b2565b61071e81856106bd565b935061072e8185602086016106ce565b610737816106f8565b840191505092915050565b6000602082019050818103600083015261075c8184610709565b905092915050565b600080fd5b6000819050919050565b61077c81610769565b811461078757600080fd5b50565b60008135905061079981610773565b92915050565b6000602082840312156107b5576107b4610764565b5b60006107c38482850161078a565b91505092915050565b600060ff82169050919050565b6107e2816107cc565b82525050565b60006020820190506107fd60008301846107d9565b92915050565b600073ffffffffffffffffffffffffffffffffffffffff82169050919050565b600061082e82610803565b9050919050565b61083e81610823565b811461084957600080fd5b50565b60008135905061085b81610835565b92915050565b60006020828403121561087757610876610764565b5b60006108858482850161084c565b91505092915050565b61089781610769565b82525050565b60006020820190506108b2600083018461088e565b92915050565b600080604083850312156108cf576108ce610764565b5b60006108dd8582860161084c565b92505060206108ee8582860161078a565b9150509250929050565b60008115159050919050565b61090d816108f8565b82525050565b60006020820190506109286000830184610904565b92915050565b7f4e487b7100000000000000000000000000000000000000000000000000000000600052601160045260246000fd5b600061096882610769565b915061097383610769565b925082820190508082111561098b5761098a61092e565b5b92915050565b7f4e487b7100000000000000000000000000000000000000000000000000000000600052602260045260246000fd5b600060028204905060018216806109d857607f821691505b6020821081036109eb576109ea610991565b5b50919050565b7f696e73756666696369656e742062616c616e6365000000000000000000000000600082015250565b6000610a276014836106bd565b9150610a32826109f1565b602082019050919050565b60006020820190508181036000830152610a5681610a1a565b9050919050565b6000610a6882610769565b9150610a7383610769565b9250828203905081811115610a8b57610a8a61092e565b5b9291505056fea264697066735822122057944cb96090b8e18aeda460800f4460c79793b47b40c822ba087fef43c18bad64736f6c63430008140033",
  "linkReferences": {},
  "deployedLinkReferences": {}
}