{
  "_format": "hh-sol-artifact-1",
  "contractName": "CounterWithCallbacks",
  "sourceName": "solidity/x/ibc/callbacks/testutil/CounterWithCallbacks.sol",
  "abi": [
    {
      "anonymous": false,
      "inputs": [
        {
          "indexed": false,
          "internalType": "int256",
          "name": "newValue",
          "type": "int256"
        },
        {
          "indexed": true,
          "internalType": "address",
          "name": "user",
          "type": "address"
        }
      ],
      "name": "CounterIncremented",
      "type": "event"
    },
    {
      "anonymous": false,
      "inputs": [
        {
          "indexed": true,
          "internalType": "string",
          "name": "channelId",
          "type": "string"
        },
        {
          "indexed": true,
          "internalType": "string",
          "name": "portId",
          "type": "string"
        },
        {
          "indexed": false,
          "internalType": "uint64",
          "name": "sequence",
          "type": "uint64"
        },
        {
          "indexed": false,
          "internalType": "bytes",
          "name": "data",
          "type": "bytes"
        },
        {
          "indexed": false,
          "internalType": "bytes",
          "name": "acknowledgement",
          "type": "bytes"
        }
      ],
      "name": "PacketAcknowledged",
      "type": "event"
    },
    {
      "anonymous": false,
      "inputs": [
        {
          "indexed": true,
          "internalType": "string",
          "name": "channelId",
          "type": "string"
        },
        {
          "indexed": true,
          "internalType": "string",
          "name": "portId",
          "type": "string"
        },
        {
          "indexed": false,
          "internalType": "uint64",
          "name": "sequence",
          "type": "uint64"
        },
        {
          "indexed": false,
          "internalType": "bytes",
          "name": "data",
          "type": "bytes"
        }
      ],
      "name": "PacketTimedOut",
      "type": "event"
    },
    {
      "anonymous": false,
      "inputs": [
        {
          "indexed": true,
          "internalType": "address",
          "name": "user",
          "type": "address"
        },
        {
          "indexed": true,
          "internalType": "address",
          "name": "token",
          "type": "address"
        },
        {
          "indexed": false,
          "internalType": "uint256",
          "name": "amount",
          "type": "uint256"
        },
        {
          "indexed": false,
          "internalType": "uint256",
          "name": "newBalance",
          "type": "uint256"
        }
      ],
      "name": "TokensDeposited",
      "type": "event"
    },
    {
      "inputs": [
        {
          "internalType": "address",
          "name": "token",
          "type": "address"
        },
        {
          "internalType": "uint256",
          "name": "amount",
          "type": "uint256"
        }
      ],
      "name": "add",
      "outputs": [],
      "stateMutability": "nonpayable",
      "type": "function"
    },
    {
      "inputs": [],
      "name": "counter",
      "outputs": [
        {
          "internalType": "int256",
          "name": "",
          "type": "int256"
        }
      ],
      "stateMutability": "view",
      "type": "function"
    },
    {
      "inputs": [],
      "name": "getCounter",
      "outputs": [
        {
          "internalType": "int256",
          "name": "",
          "type": "int256"
        }
      ],
      "stateMutability": "view",
      "type": "function"
    },
    {
      "inputs": [
        {
          "internalType": "address",
          "name": "user",
          "type": "address"
        },
        {
          "internalType": "address",
          "name": "token",
          "type": "address"
        }
      ],
      "name": "getTokenBalance",
      "outputs": [
        {
          "internalType": "uint256",
          "name": "",
          "type": "uint256"
        }
      ],
      "stateMutability": "view",
      "type": "function"
    },
    {
      "inputs": [
        {
          "internalType": "string",
          "name": "channelId",
          "type": "string"
        },
        {
          "internalType": "string",
          "name": "portId",
          "type": "string"
        },
        {
          "internalType": "uint64",
          "name": "sequence",
          "type": "uint64"
        },
        {
          "internalType": "bytes",
          "name": "data",
          "type": "bytes"
        },
        {
          "internalType": "bytes",
          "name": "acknowledgement",
          "type": "bytes"
        }
      ],
      "name": "onPacketAcknowledgement",
      "outputs": [],
      "stateMutability": "nonpayable",
      "type": "function"
    },
    {
      "inputs": [
        {
          "internalType": "string",
          "name": "channelId",
          "type": "string"
        },
        {
          "internalType": "string",
          "name": "portId",
          "type": "string"
        },
        {
          "internalType": "uint64",
          "name": "sequence",
          "type": "uint64"
        },
        {
          "internalType": "bytes",
          "name": "data",
          "type": "bytes"
        }
      ],
      "name": "onPacketTimeout",
      "outputs": [],
      "stateMutability": "nonpayable",
      "type": "function"
    },
    {
      "inputs": [],
      "name": "resetCounter",
      "outputs": [],
      "stateMutability": "nonpayable",
      "type": "function"
    },
    {
      "inputs": [
        {
          "internalType": "address",
          "name": "",
          "type": "address"
        },
        {
          "internalType": "address",
          "name": "",
          "type": "address"
        }
      ],
      "name": "userTokenBalances",
      "outputs": [
        {
          "internalType": "uint256",
          "name": "",
          "type": "uint256"
        }
      ],
      "stateMutability": "view",
      "type": "function"
    }
  ],
  "bytecode": "0x608060405234801561001057600080fd5b50610e62806100206000396000f3fe608060405234801561001057600080fd5b50600436106100885760003560e01c80638ada066e1161005b5780638ada066e14610113578063c489744b14610131578063dbdf7fce14610161578063f5d82b6b1461016b57610088565b80631f8ee6031461008d57806339b4073a146100a957806345f2d105146100c557806361bc221a146100f5575b600080fd5b6100a760048036038101906100a291906107f5565b610187565b005b6100c360048036038101906100be91906108b0565b61020b565b005b6100df60048036038101906100da91906109f9565b610292565b6040516100ec9190610a52565b60405180910390f35b6100fd6102b7565b60405161010a9190610a86565b60405180910390f35b61011b6102bd565b6040516101289190610a86565b60405180910390f35b61014b600480360381019061014691906109f9565b6102c6565b6040516101589190610a52565b60405180910390f35b61016961034d565b005b61018560048036038101906101809190610acd565b610356565b005b826040516101959190610b7e565b6040518091039020846040516101ab9190610b7e565b60405180910390207f1e0d6d3f26f1ac738b3c50c77ac3e7931853b73d3c754eba1ec9ea2dfb0442c884846040516101e4929190610bf9565b60405180910390a360016000808282546101fe9190610c58565b9250508190555050505050565b836040516102199190610b7e565b60405180910390208560405161022f9190610b7e565b60405180910390207f42611285d4634f96d3f741584f4f896003f59253c3c7a40472cbf0053e726b5f85858560405161026a93929190610c9b565b60405180910390a360016000808282546102849190610ce0565b925050819055505050505050565b6001602052816000526040600020602052806000526040600020600091509150505481565b60005481565b60008054905090565b6000600160008473ffffffffffffffffffffffffffffffffffffffff1673ffffffffffffffffffffffffffffffffffffffff16815260200190815260200160002060008373ffffffffffffffffffffffffffffffffffffffff1673ffffffffffffffffffffffffffffffffffffffff16815260200190815260200160002054905092915050565b60008081905550565b8173ffffffffffffffffffffffffffffffffffffffff166323b872dd3330846040518463ffffffff1660e01b815260040161039393929190610d33565b6020604051808303816000875af11580156103b2573d6000803e3d6000fd5b505050506040513d601f19601f820116820180604052508101906103d69190610da2565b5060016000808282546103e99190610ce0565b9250508190555080600160003373ffffffffffffffffffffffffffffffffffffffff1673ffffffffffffffffffffffffffffffffffffffff16815260200190815260200160002060008473ffffffffffffffffffffffffffffffffffffffff1673ffffffffffffffffffffffffffffffffffffffff168152602001908152602001600020600082825461047c9190610dcf565b925050819055503373ffffffffffffffffffffffffffffffffffffffff167fea6fcea9210b4226b3bb7e55ffa18bf072036d64073f5553336ee9bef303c2f06000546040516104cb9190610a86565b60405180910390a28173ffffffffffffffffffffffffffffffffffffffff163373ffffffffffffffffffffffffffffffffffffffff167f9d572f819ae4f4b4839dda54bcb4cc8d7c2f0a67807db864716b20eafb51535983600160003373ffffffffffffffffffffffffffffffffffffffff1673ffffffffffffffffffffffffffffffffffffffff16815260200190815260200160002060008773ffffffffffffffffffffffffffffffffffffffff1673ffffffffffffffffffffffffffffffffffffffff168152602001908152602001600020546040516105ae929190610e03565b60405180910390a35050565b6000604051905090565b600080fd5b600080fd5b600080fd5b600080fd5b6000601f19601f8301169050919050565b7f4e487b7100000000000000000000000000000000000000000000000000000000600052604160045260246000fd5b610621826105d8565b810181811067ffffffffffffffff821117156106405761063f6105e9565b5b80604052505050565b60006106536105ba565b905061065f8282610618565b919050565b600067ffffffffffffffff82111561067f5761067e6105e9565b5b610688826105d8565b9050602081019050919050565b82818337600083830152505050565b60006106b76106b284610664565b610649565b9050828152602081018484840111156106d3576106d26105d3565b5b6106de848285610695565b509392505050565b600082601f8301126106fb576106fa6105ce565b5b813561070b8482602086016106a4565b91505092915050565b600067ffffffffffffffff82169050919050565b61073181610714565b811461073c57600080fd5b50565b60008135905061074e81610728565b92915050565b600067ffffffffffffffff82111561076f5761076e6105e9565b5b610778826105d8565b9050602081019050919050565b600061079861079384610754565b610649565b9050828152602081018484840111156107b4576107b36105d3565b5b6107bf848285610695565b509392505050565b600082601f8301126107dc576107db6105ce565b5b81356107ec848260208601610785565b91505092915050565b6000806000806080858703121561080f5761080e6105c4565b5b600085013567ffffffffffffffff81111561082d5761082c6105c9565b5b610839878288016106e6565b945050602085013567ffffffffffffffff81111561085a576108596105c9565b5b610866878288016106e6565b93505060406108778782880161073f565b925050606085013567ffffffffffffffff811115610898576108976105c9565b5b6108a4878288016107c7565b91505092959194509250565b600080600080600060a086880312156108cc576108cb6105c4565b5b600086013567ffffffffffffffff8111156108ea576108e96105c9565b5b6108f6888289016106e6565b955050602086013567ffffffffffffffff811115610917576109166105c9565b5b610923888289016106e6565b94505060406109348882890161073f565b935050606086013567ffffffffffffffff811115610955576109546105c9565b5b610961888289016107c7565b925050608086013567ffffffffffffffff811115610982576109816105c9565b5b61098e888289016107c7565b9150509295509295909350565b600073ffffffffffffffffffffffffffffffffffffffff82169050919050565b60006109c68261099b565b9050919050565b6109d6816109bb565b81146109e157600080fd5b50565b6000813590506109f3816109cd565b92915050565b60008060408385031215610a1057610a0f6105c4565b5b6000610a1e858286016109e4565b9250506020610a2f858286016109e4565b9150509250929050565b6000819050919050565b610a4c81610a39565b82525050565b6000602082019050610a676000830184610a43565b92915050565b6000819050919050565b610a8081610a6d565b82525050565b6000602082019050610a9b6000830184610a77565b92915050565b610aaa81610a39565b8114610ab557600080fd5b50565b600081359050610ac781610aa1565b92915050565b60008060408385031215610ae457610ae36105c4565b5b6000610af2858286016109e4565b9250506020610b0385828601610ab8565b9150509250929050565b600081519050919050565b600081905092915050565b60005b83811015610b41578082015181840152602081019050610b26565b60008484015250505050565b6000610b5882610b0d565b610b628185610b18565b9350610b72818560208601610b23565b80840191505092915050565b6000610b8a8284610b4d565b915081905092915050565b610b9e81610714565b82525050565b600081519050919050565b600082825260208201905092915050565b6000610bcb82610ba4565b610bd58185610baf565b9350610be5818560208601610b23565b610bee816105d8565b840191505092915050565b6000604082019050610c0e6000830185610b95565b8181036020830152610c208184610bc0565b90509392505050565b7f4e487b7100000000000000000000000000000000000000000000000000000000600052601160045260246000fd5b6000610c6382610a6d565b9150610c6e83610a6d565b9250828203905081811260008412168282136000851215161715610c9557610c94610c29565b5b92915050565b6000606082019050610cb06000830186610b95565b8181036020830152610cc28185610bc0565b90508181036040830152610cd68184610bc0565b9050949350505050565b6000610ceb82610a6d565b9150610cf683610a6d565b925082820190508281121560008312168382126000841215161715610d1e57610d1d610c29565b5b92915050565b610d2d816109bb565b82525050565b6000606082019050610d486000830186610d24565b610d556020830185610d24565b610d626040830184610a43565b949350505050565b60008115159050919050565b610d7f81610d6a565b8114610d8a57600080fd5b50565b600081519050610d9c81610d76565b92915050565b600060208284031215610db857610db76105c4565b5b6000610dc684828501610d8d565b91505092915050565b6000610dda82610a39565b9150610de583610a39565b9250828201905080821115610dfd57610dfc610c29565b5b92915050565b6000604082019050610e186000830185610a43565b610e256020830184610a43565b939250505056fea26469706673582212207a2c612486eb98de791303a3cb72a4c8a1918623df888920195944cf7aeac4ed64736f6c63430008140033",
  "linkReferences": {},
  "deployedLinkReferences": {}
}