{
  "_format": "hh-sol-artifact-1",
  "contractName": "ERC20TestCaller",
  "sourceName": "solidity/precompiles/erc20/testdata/ERC20TestCaller.sol",
  "abi": [
    {
      "inputs": [
        {
          "internalType": "address",
          "name": "tokenAddress",
          "type": "address"
        }
      ],
      "stateMutability": "nonpayable",
      "type": "constructor"
    },
    {
      "inputs": [
        {
          "internalType": "address",
          "name": "owner",
          "type": "address"
        },
        {
          "internalType": "address",
          "name": "spender",
          "type": "address"
        }
      ],
      "name": "allowance",
      "outputs": [
        {
          "internalType": "uint256",
          "name": "",
          "type": "uint256"
        }
      ],
      "stateMutability": "view",
      "type": "function"
    },
    {
      "inputs": [
        {
          "internalType": "address",
          "name": "spender",
          "type": "address"
        },
        {
          "internalType": "uint256",
          "name": "amount",
          "type": "uint256"
        }
      ],
      "name": "approve",
      "outputs": [
        {
          "internalType": "bool",
          "name": "",
          "type": "bool"
        }
      ],
      "stateMutability": "nonpayable",
      "type": "function"
    },
    {
      "inputs": [
        {
          "internalType": "address",
          "name": "owner",
          "type": "address"
        }
      ],
      "name": "balanceOf",
      "outputs": [
        {
          "internalType": "uint256",
          "name": "",
          "type": "uint256"
        }
      ],
      "stateMutability": "view",
      "type": "function"
    },
    {
      "inputs": [],
      "name": "counter",
      "outputs": [
        {
          "internalType": "uint256",
          "name": "",
          "type": "uint256"
        }
      ],
      "stateMutability": "view",
      "type": "function"
    },
    {
      "inputs": [],
      "name": "decimals",
      "outputs": [
        {
          "internalType": "uint8",
          "name": "",
          "type": "uint8"
        }
      ],
      "stateMutability": "view",
      "type": "function"
    },
    {
      "inputs": [],
      "name": "name",
      "outputs": [
        {
          "internalType": "string",
          "name": "",
          "type": "string"
        }
      ],
      "stateMutability": "view",
      "type": "function"
    },
    {
      "inputs": [],
      "name": "symbol",
      "outputs": [
        {
          "internalType": "string",
          "name": "",
          "type": "string"
        }
      ],
      "stateMutability": "view",
      "type": "function"
    },
    {
      "inputs": [
        {
          "internalType": "address payable",
          "name": "_source",
          "type": "address"
        },
        {
          "internalType": "uint256",
          "name": "amount_to_transfer",
          "type": "uint256"
        },
        {
          "internalType": "uint256",
          "name": "amount_to_send",
          "type": "uint256"
        },
        {
          "internalType": "uint256",
          "name": "amount_to_send_after",
          "type": "uint256"
        },
        {
          "internalType": "bool",
          "name": "_before",
          "type": "bool"
        },
        {
          "internalType": "bool",
          "name": "_after",
          "type": "bool"
        }
      ],
      "name": "testTransferAndSend",
      "outputs": [
        {
          "internalType": "bool",
          "name": "",
          "type": "bool"
        }
      ],
      "stateMutability": "payable",
      "type": "function"
    },
    {
      "inputs": [],
      "name": "token",
      "outputs": [
        {
          "internalType": "contract IERC20Metadata",
          "name": "",
          "type": "address"
        }
      ],
      "stateMutability": "view",
      "type": "function"
    },
    {
      "inputs": [],
      "name": "totalSupply",
      "outputs": [
        {
          "internalType": "uint256",
          "name": "",
          "type": "uint256"
        }
      ],
      "stateMutability": "view",
      "type": "function"
    },
    {
      "inputs": [
        {
          "internalType": "address",
          "name": "to",
          "type": "address"
        },
        {
          "internalType": "uint256",
          "name": "amount",
          "type": "uint256"
        }
      ],
      "name": "transfer",
      "outputs": [
        {
          "internalType": "bool",
          "name": "",
          "type": "bool"
        }
      ],
      "stateMutability": "nonpayable",
      "type": "function"
    },
    {
      "inputs": [
        {
          "internalType": "address",
          "name": "from",
          "type": "address"
        },
        {
          "internalType": "address",
          "name": "to",
          "type": "address"
        },
        {
          "internalType": "uint256",
          "name": "amount",
          "type": "uint256"
        }
      ],
      "name": "transferFrom",
      "outputs": [
        {
          "internalType": "bool",
          "name": "",
          "type": "bool"
        }
      ],
      "stateMutability": "nonpayable",
      "type": "function"
    },
    {
      "inputs": [
        {
          "internalType": "address",
          "name": "to",
          "type": "address"
        },
        {
          "internalType": "uint256",
          "name": "amount",
          "type": "uint256"
        },
        {
          "internalType": "bool",
          "name": "before",
          "type": "bool"
        },
        {
          "internalType": "bool",
          "name": "aft",
          "type": "bool"
        }
      ],
      "name": "transferWithRevert",
      "outputs": [
        {
          "internalType": "bool",
          "name": "",
          "type": "bool"
        }
      ],
      "stateMutability": "payable",
      "type": "function"
    },
    {
      "inputs": [
        {
          "internalType": "address payable",
          "name": "receiver",
          "type": "address"
        },
        {
          "internalType": "uint256",
          "name": "amount_to_transfer",
          "type": "uint256"
        },
        {
          "internalType": "uint256",
          "name": "amount_to_fail",
          "type": "uint256"
        }
      ],
      "name": "transfersWithTry",
      "outputs": [],
      "stateMutability": "payable",
      "type": "function"
    }
  ],
  "bytecode": "0x60806040523480156200001157600080fd5b5060405162001be238038062001be28339818101604052810190620000379190620000f0565b806000806101000a81548173ffffffffffffffffffffffffffffffffffffffff021916908373ffffffffffffffffffffffffffffffffffffffff16021790555060006001819055505062000122565b600080fd5b600073ffffffffffffffffffffffffffffffffffffffff82169050919050565b6000620000b8826200008b565b9050919050565b620000ca81620000ab565b8114620000d657600080fd5b50565b600081519050620000ea81620000bf565b92915050565b60006020828403121562000109576200010862000086565b5b60006200011984828501620000d9565b91505092915050565b611ab080620001326000396000f3fe6080604052600436106100dd5760003560e01c80636bc7b7cd1161007f578063a9059cbb11610059578063a9059cbb146102bc578063d0fedf55146102f9578063dd62ed3e14610329578063fc0c546a14610366576100dd565b80636bc7b7cd1461022457806370a082311461025457806395d89b4114610291576100dd565b806323b872dd116100bb57806323b872dd14610175578063268d070a146101b2578063313ce567146101ce57806361bc221a146101f9576100dd565b806306fdde03146100e2578063095ea7b31461010d57806318160ddd1461014a575b600080fd5b3480156100ee57600080fd5b506100f7610391565b6040516101049190611010565b60405180910390f35b34801561011957600080fd5b50610134600480360381019061012f91906110da565b61042c565b6040516101419190611135565b60405180910390f35b34801561015657600080fd5b5061015f6104d5565b60405161016c919061115f565b60405180910390f35b34801561018157600080fd5b5061019c6004803603810190610197919061117a565b61056c565b6040516101a99190611135565b60405180910390f35b6101cc60048036038101906101c7919061120b565b610618565b005b3480156101da57600080fd5b506101e36107b4565b6040516101f0919061127a565b60405180910390f35b34801561020557600080fd5b5061020e61084b565b60405161021b919061115f565b60405180910390f35b61023e600480360381019061023991906112c1565b610851565b60405161024b9190611135565b60405180910390f35b34801561026057600080fd5b5061027b6004803603810190610276919061134e565b610b5c565b604051610288919061115f565b60405180910390f35b34801561029d57600080fd5b506102a6610c00565b6040516102b39190611010565b60405180910390f35b3480156102c857600080fd5b506102e360048036038101906102de91906110da565b610c9b565b6040516102f09190611135565b60405180910390f35b610313600480360381019061030e919061137b565b610d44565b6040516103209190611135565b60405180910390f35b34801561033557600080fd5b50610350600480360381019061034b91906113e2565b610eb5565b60405161035d919061115f565b60405180910390f35b34801561037257600080fd5b5061037b610f5c565b6040516103889190611481565b60405180910390f35b606060008054906101000a900473ffffffffffffffffffffffffffffffffffffffff1673ffffffffffffffffffffffffffffffffffffffff166306fdde036040518163ffffffff1660e01b8152600401600060405180830381865afa1580156103fe573d6000803e3d6000fd5b505050506040513d6000823e3d601f19601f8201168201806040525081019061042791906115c2565b905090565b60008060009054906101000a900473ffffffffffffffffffffffffffffffffffffffff1673ffffffffffffffffffffffffffffffffffffffff1663095ea7b384846040518363ffffffff1660e01b815260040161048a92919061161a565b6020604051808303816000875af11580156104a9573d6000803e3d6000fd5b505050506040513d601f19601f820116820180604052508101906104cd9190611658565b905092915050565b60008060009054906101000a900473ffffffffffffffffffffffffffffffffffffffff1673ffffffffffffffffffffffffffffffffffffffff166318160ddd6040518163ffffffff1660e01b8152600401602060405180830381865afa158015610543573d6000803e3d6000fd5b505050506040513d601f19601f82011682018060405250810190610567919061169a565b905090565b60008060009054906101000a900473ffffffffffffffffffffffffffffffffffffffff1673ffffffffffffffffffffffffffffffffffffffff166323b872dd8585856040518463ffffffff1660e01b81526004016105cc939291906116c7565b6020604051808303816000875af11580156105eb573d6000803e3d6000fd5b505050506040513d601f19601f8201168201806040525081019061060f9190611658565b90509392505050565b6001600081548092919061062b9061172d565b919050555060008060009054906101000a900473ffffffffffffffffffffffffffffffffffffffff1673ffffffffffffffffffffffffffffffffffffffff1663a9059cbb85856040518363ffffffff1660e01b815260040161068e929190611796565b6020604051808303816000875af11580156106ad573d6000803e3d6000fd5b505050506040513d601f19601f820116820180604052508101906106d19190611658565b905080610713576040517f08c379a000000000000000000000000000000000000000000000000000000000815260040161070a9061180b565b60405180910390fd5b3073ffffffffffffffffffffffffffffffffffffffff1663d0fedf5585846001806040518563ffffffff1660e01b8152600401610753949392919061182b565b6020604051808303816000875af192505050801561078f57506040513d601f19601f8201168201806040525081019061078c9190611658565b60015b1561079657505b600160008154809291906107a99061172d565b919050555050505050565b60008060009054906101000a900473ffffffffffffffffffffffffffffffffffffffff1673ffffffffffffffffffffffffffffffffffffffff1663313ce5676040518163ffffffff1660e01b8152600401602060405180830381865afa158015610822573d6000803e3d6000fd5b505050506040513d601f19601f82011682018060405250810190610846919061189c565b905090565b60015481565b6000808773ffffffffffffffffffffffffffffffffffffffff1686604051610878906118fa565b60006040518083038185875af1925050503d80600081146108b5576040519150601f19603f3d011682016040523d82523d6000602084013e6108ba565b606091505b50509050806108fe576040517f08c379a00000000000000000000000000000000000000000000000000000000081526004016108f590611981565b60405180910390fd5b831561095e57600160008154809291906109179061172d565b9190505550600061095d576040517f08c379a0000000000000000000000000000000000000000000000000000000008152600401610954906119ed565b60405180910390fd5b5b60008060009054906101000a900473ffffffffffffffffffffffffffffffffffffffff1673ffffffffffffffffffffffffffffffffffffffff1663a9059cbb8a8a6040518363ffffffff1660e01b81526004016109bc929190611796565b6020604051808303816000875af11580156109db573d6000803e3d6000fd5b505050506040513d601f19601f820116820180604052508101906109ff9190611658565b905080610a41576040517f08c379a0000000000000000000000000000000000000000000000000000000008152600401610a3890611981565b60405180910390fd5b8315610aa15760016000815480929190610a5a9061172d565b91905055506000610aa0576040517f08c379a0000000000000000000000000000000000000000000000000000000008152600401610a97906119ed565b60405180910390fd5b5b8873ffffffffffffffffffffffffffffffffffffffff1686604051610ac5906118fa565b60006040518083038185875af1925050503d8060008114610b02576040519150601f19603f3d011682016040523d82523d6000602084013e610b07565b606091505b50508092505081610b4d576040517f08c379a0000000000000000000000000000000000000000000000000000000008152600401610b4490611981565b60405180910390fd5b81925050509695505050505050565b60008060009054906101000a900473ffffffffffffffffffffffffffffffffffffffff1673ffffffffffffffffffffffffffffffffffffffff166370a08231836040518263ffffffff1660e01b8152600401610bb89190611a0d565b602060405180830381865afa158015610bd5573d6000803e3d6000fd5b505050506040513d601f19601f82011682018060405250810190610bf9919061169a565b9050919050565b606060008054906101000a900473ffffffffffffffffffffffffffffffffffffffff1673ffffffffffffffffffffffffffffffffffffffff166395d89b416040518163ffffffff1660e01b8152600401600060405180830381865afa158015610c6d573d6000803e3d6000fd5b505050506040513d6000823e3d601f19601f82011682018060405250810190610c9691906115c2565b905090565b60008060009054906101000a900473ffffffffffffffffffffffffffffffffffffffff1673ffffffffffffffffffffffffffffffffffffffff1663a9059cbb84846040518363ffffffff1660e01b8152600401610cf992919061161a565b6020604051808303816000875af1158015610d18573d6000803e3d6000fd5b505050506040513d601f19601f82011682018060405250810190610d3c9190611658565b905092915050565b600060016000815480929190610d599061172d565b919050555060008060009054906101000a900473ffffffffffffffffffffffffffffffffffffffff1673ffffffffffffffffffffffffffffffffffffffff1663a9059cbb87876040518363ffffffff1660e01b8152600401610dbc92919061161a565b6020604051808303816000875af1158015610ddb573d6000803e3d6000fd5b505050506040513d601f19601f82011682018060405250810190610dff9190611658565b90508315610e49576000610e48576040517f08c379a0000000000000000000000000000000000000000000000000000000008152600401610e3f906119ed565b60405180910390fd5b5b60016000815480929190610e5c90611a28565b91905055508215610ea9576000610ea8576040517f08c379a0000000000000000000000000000000000000000000000000000000008152600401610e9f906119ed565b60405180910390fd5b5b80915050949350505050565b60008060009054906101000a900473ffffffffffffffffffffffffffffffffffffffff1673ffffffffffffffffffffffffffffffffffffffff1663dd62ed3e84846040518363ffffffff1660e01b8152600401610f13929190611a51565b602060405180830381865afa158015610f30573d6000803e3d6000fd5b505050506040513d601f19601f82011682018060405250810190610f54919061169a565b905092915050565b60008054906101000a900473ffffffffffffffffffffffffffffffffffffffff1681565b600081519050919050565b600082825260208201905092915050565b60005b83811015610fba578082015181840152602081019050610f9f565b60008484015250505050565b6000601f19601f8301169050919050565b6000610fe282610f80565b610fec8185610f8b565b9350610ffc818560208601610f9c565b61100581610fc6565b840191505092915050565b6000602082019050818103600083015261102a8184610fd7565b905092915050565b6000604051905090565b600080fd5b600080fd5b600073ffffffffffffffffffffffffffffffffffffffff82169050919050565b600061107182611046565b9050919050565b61108181611066565b811461108c57600080fd5b50565b60008135905061109e81611078565b92915050565b6000819050919050565b6110b7816110a4565b81146110c257600080fd5b50565b6000813590506110d4816110ae565b92915050565b600080604083850312156110f1576110f061103c565b5b60006110ff8582860161108f565b9250506020611110858286016110c5565b9150509250929050565b60008115159050919050565b61112f8161111a565b82525050565b600060208201905061114a6000830184611126565b92915050565b611159816110a4565b82525050565b60006020820190506111746000830184611150565b92915050565b6000806000606084860312156111935761119261103c565b5b60006111a18682870161108f565b93505060206111b28682870161108f565b92505060406111c3868287016110c5565b9150509250925092565b60006111d882611046565b9050919050565b6111e8816111cd565b81146111f357600080fd5b50565b600081359050611205816111df565b92915050565b6000806000606084860312156112245761122361103c565b5b6000611232868287016111f6565b9350506020611243868287016110c5565b9250506040611254868287016110c5565b9150509250925092565b600060ff82169050919050565b6112748161125e565b82525050565b600060208201905061128f600083018461126b565b92915050565b61129e8161111a565b81146112a957600080fd5b50565b6000813590506112bb81611295565b92915050565b60008060008060008060c087890312156112de576112dd61103c565b5b60006112ec89828a016111f6565b96505060206112fd89828a016110c5565b955050604061130e89828a016110c5565b945050606061131f89828a016110c5565b935050608061133089828a016112ac565b92505060a061134189828a016112ac565b9150509295509295509295565b6000602082840312156113645761136361103c565b5b60006113728482850161108f565b91505092915050565b600080600080608085870312156113955761139461103c565b5b60006113a38782880161108f565b94505060206113b4878288016110c5565b93505060406113c5878288016112ac565b92505060606113d6878288016112ac565b91505092959194509250565b600080604083850312156113f9576113f861103c565b5b60006114078582860161108f565b92505060206114188582860161108f565b9150509250929050565b6000819050919050565b600061144761144261143d84611046565b611422565b611046565b9050919050565b60006114598261142c565b9050919050565b600061146b8261144e565b9050919050565b61147b81611460565b82525050565b60006020820190506114966000830184611472565b92915050565b600080fd5b600080fd5b7f4e487b7100000000000000000000000000000000000000000000000000000000600052604160045260246000fd5b6114de82610fc6565b810181811067ffffffffffffffff821117156114fd576114fc6114a6565b5b80604052505050565b6000611510611032565b905061151c82826114d5565b919050565b600067ffffffffffffffff82111561153c5761153b6114a6565b5b61154582610fc6565b9050602081019050919050565b600061156561156084611521565b611506565b905082815260208101848484011115611581576115806114a1565b5b61158c848285610f9c565b509392505050565b600082601f8301126115a9576115a861149c565b5b81516115b9848260208601611552565b91505092915050565b6000602082840312156115d8576115d761103c565b5b600082015167ffffffffffffffff8111156115f6576115f5611041565b5b61160284828501611594565b91505092915050565b61161481611066565b82525050565b600060408201905061162f600083018561160b565b61163c6020830184611150565b9392505050565b60008151905061165281611295565b92915050565b60006020828403121561166e5761166d61103c565b5b600061167c84828501611643565b91505092915050565b600081519050611694816110ae565b92915050565b6000602082840312156116b0576116af61103c565b5b60006116be84828501611685565b91505092915050565b60006060820190506116dc600083018661160b565b6116e9602083018561160b565b6116f66040830184611150565b949350505050565b7f4e487b7100000000000000000000000000000000000000000000000000000000600052601160045260246000fd5b6000611738826110a4565b91507fffffffffffffffffffffffffffffffffffffffffffffffffffffffffffffffff820361176a576117696116fe565b5b600182019050919050565b60006117808261144e565b9050919050565b61179081611775565b82525050565b60006040820190506117ab6000830185611787565b6117b86020830184611150565b9392505050565b7f6661696c20746f207472616e7366657200000000000000000000000000000000600082015250565b60006117f5601083610f8b565b9150611800826117bf565b602082019050919050565b60006020820190508181036000830152611824816117e8565b9050919050565b60006080820190506118406000830187611787565b61184d6020830186611150565b61185a6040830185611126565b6118676060830184611126565b95945050505050565b6118798161125e565b811461188457600080fd5b50565b60008151905061189681611870565b92915050565b6000602082840312156118b2576118b161103c565b5b60006118c084828501611887565b91505092915050565b600081905092915050565b50565b60006118e46000836118c9565b91506118ef826118d4565b600082019050919050565b6000611905826118d7565b9150819050919050565b7f4661696c656420746f2073656e6420457468657220746f2064656c656761746f60008201527f7200000000000000000000000000000000000000000000000000000000000000602082015250565b600061196b602183610f8b565b91506119768261190f565b604082019050919050565b6000602082019050818103600083015261199a8161195e565b9050919050565b7f7265766572742068657265000000000000000000000000000000000000000000600082015250565b60006119d7600b83610f8b565b91506119e2826119a1565b602082019050919050565b60006020820190508181036000830152611a06816119ca565b9050919050565b6000602082019050611a22600083018461160b565b92915050565b6000611a33826110a4565b915060008203611a4657611a456116fe565b5b600182039050919050565b6000604082019050611a66600083018561160b565b611a73602083018461160b565b939250505056fea26469706673582212207c748f21e6ea6b67ec0bd81832ad76693c0487523b3bcd23eb18fd555f630d1d64736f6c63430008140033",
  "linkReferences": {},
  "deployedLinkReferences": {}
}